{
  "contractName": "AccessControl",
  "abi": [
    {
      "inputs": [],
      "payable": false,
      "stateMutability": "nonpayable",
      "type": "constructor"
    },
    {
      "anonymous": false,
      "inputs": [],
      "name": "ContractPaused",
      "type": "event"
    },
    {
      "anonymous": false,
      "inputs": [],
      "name": "ContractUnpaused",
      "type": "event"
    },
    {
      "anonymous": false,
      "inputs": [
        {
          "indexed": false,
          "internalType": "address",
          "name": "newContract",
          "type": "address"
        }
      ],
      "name": "ContractUpgrade",
      "type": "event"
    },
    {
      "constant": true,
      "inputs": [],
      "name": "newContractAddress",
      "outputs": [
        {
          "internalType": "address",
          "name": "",
          "type": "address"
        }
      ],
      "payable": false,
      "stateMutability": "view",
      "type": "function"
    },
    {
      "constant": true,
      "inputs": [],
      "name": "paused",
      "outputs": [
        {
          "internalType": "bool",
          "name": "",
          "type": "bool"
        }
      ],
      "payable": false,
      "stateMutability": "view",
      "type": "function"
    },
    {
      "constant": true,
      "inputs": [],
      "name": "upgraded",
      "outputs": [
        {
          "internalType": "bool",
          "name": "",
          "type": "bool"
        }
      ],
      "payable": false,
      "stateMutability": "view",
      "type": "function"
    },
    {
      "constant": false,
      "inputs": [
        {
          "internalType": "address",
          "name": "_newAddress",
          "type": "address"
        }
      ],
      "name": "upgradeContract",
      "outputs": [],
      "payable": false,
      "stateMutability": "nonpayable",
      "type": "function"
    },
    {
      "constant": false,
      "inputs": [],
      "name": "pause",
      "outputs": [],
      "payable": false,
      "stateMutability": "nonpayable",
      "type": "function"
    },
    {
      "constant": false,
      "inputs": [],
      "name": "unpause",
      "outputs": [],
      "payable": false,
      "stateMutability": "nonpayable",
      "type": "function"
    }
  ],
  "bytecode": "0x60806040526000600360006101000a81548160ff0219169083151502179055506000600360016101000a81548160ff02191690831515021790555034801561004657600080fd5b506001600360016101000a81548160ff02191690831515021790555061007a33600061009760201b6104a21790919060201c565b61009233600161009760201b6104a21790919060201c565b610256565b6100a7828261017860201b60201c565b1561011a576040517f08c379a000000000000000000000000000000000000000000000000000000000815260040180806020018281038252601f8152602001807f526f6c65733a206163636f756e7420616c72656164792068617320726f6c650081525060200191505060405180910390fd5b60018260000160008373ffffffffffffffffffffffffffffffffffffffff1673ffffffffffffffffffffffffffffffffffffffff16815260200190815260200160002060006101000a81548160ff0219169083151502179055505050565b60008073ffffffffffffffffffffffffffffffffffffffff168273ffffffffffffffffffffffffffffffffffffffff1614156101ff576040517f08c379a00000000000000000000000000000000000000000000000000000000081526004018080602001828103825260228152602001806108396022913960400191505060405180910390fd5b8260000160008373ffffffffffffffffffffffffffffffffffffffff1673ffffffffffffffffffffffffffffffffffffffff16815260200190815260200160002060009054906101000a900460ff16905092915050565b6105d4806102656000396000f3fe608060405234801561001057600080fd5b50600436106100625760003560e01c80633f4ba83a146100675780635c975abb146100715780636af04a57146100935780638456cb59146100dd578063c28de2cd146100e7578063eb2c022314610109575b600080fd5b61006f61014d565b005b6100796101e6565b604051808215151515815260200191505060405180910390f35b61009b6101f9565b604051808273ffffffffffffffffffffffffffffffffffffffff1673ffffffffffffffffffffffffffffffffffffffff16815260200191505060405180910390f35b6100e561021f565b005b6100ef61029f565b604051808215151515815260200191505060405180910390f35b61014b6004803603602081101561011f57600080fd5b81019080803573ffffffffffffffffffffffffffffffffffffffff1690602001909291905050506102b2565b005b6101613360006103c490919063ffffffff16565b61016a57600080fd5b600360019054906101000a900460ff1661018357600080fd5b600360009054906101000a900460ff161561019d57600080fd5b6000600360016101000a81548160ff0219169083151502179055507f0e5e3b3fb504c22cf5c42fa07d521225937514c654007e1f12646f89768d6f9460405160405180910390a1565b600360019054906101000a900460ff1681565b600360029054906101000a900473ffffffffffffffffffffffffffffffffffffffff1681565b6102333360006103c490919063ffffffff16565b61023c57600080fd5b600360019054906101000a900460ff161561025657600080fd5b6001600360016101000a81548160ff0219169083151502179055507fab35696f06e428ebc5ceba8cd17f8fed287baf43440206d1943af1ee53e6d26760405160405180910390a1565b600360009054906101000a900460ff1681565b6102c63360006103c490919063ffffffff16565b6102cf57600080fd5b600360019054906101000a900460ff166102e857600080fd5b600360009054906101000a900460ff161561030257600080fd5b6001600360006101000a81548160ff02191690831515021790555080600360026101000a81548173ffffffffffffffffffffffffffffffffffffffff021916908373ffffffffffffffffffffffffffffffffffffffff1602179055507f450db8da6efbe9c22f2347f7c2021231df1fc58d3ae9a2fa75d39fa44619930581604051808273ffffffffffffffffffffffffffffffffffffffff1673ffffffffffffffffffffffffffffffffffffffff16815260200191505060405180910390a150565b60008073ffffffffffffffffffffffffffffffffffffffff168273ffffffffffffffffffffffffffffffffffffffff16141561044b576040517f08c379a000000000000000000000000000000000000000000000000000000000815260040180806020018281038252602281526020018061057e6022913960400191505060405180910390fd5b8260000160008373ffffffffffffffffffffffffffffffffffffffff1673ffffffffffffffffffffffffffffffffffffffff16815260200190815260200160002060009054906101000a900460ff16905092915050565b6104ac82826103c4565b1561051f576040517f08c379a000000000000000000000000000000000000000000000000000000000815260040180806020018281038252601f8152602001807f526f6c65733a206163636f756e7420616c72656164792068617320726f6c650081525060200191505060405180910390fd5b60018260000160008373ffffffffffffffffffffffffffffffffffffffff1673ffffffffffffffffffffffffffffffffffffffff16815260200190815260200160002060006101000a81548160ff021916908315150217905550505056fe526f6c65733a206163636f756e7420697320746865207a65726f2061646472657373a265627a7a72315820f49b8dd458da53ff71bc9ec4186c27a982ee3ea722ca0f2b80262025fe2bf56e64736f6c634300050f0032526f6c65733a206163636f756e7420697320746865207a65726f2061646472657373",
  "source": "pragma solidity ^0.5.12;\n\nimport \"@openzeppelin/contracts/access/Roles.sol\";\nimport \"@openzeppelin/contracts/math/SafeMath.sol\";\n\n/**\n * @title AccessControl\n * @notice Role-based access control and related functions, function modifiers, and events\n */\ncontract AccessControl {\n\n    using SafeMath for uint256;\n    using Roles for Roles.Role;\n\n    Roles.Role internal admins;\n    Roles.Role internal franchise;\n    Roles.Role internal shopOwners;\n\n    /**\n     * @dev constructor. Sets msg.sender as system admin by default\n     */\n    constructor() public {\n        paused = true; // Start paused. un-paused after full migration\n        admins.add(msg.sender);\n        franchise.add(msg.sender);\n    }\n\n    /**\n     * @dev event emitted when contract is upgraded\n     */\n    event ContractUpgrade(address newContract);\n\n    /**\n     * @dev event emitted when contract is paused\n     */\n    event ContractPaused();\n\n    /**\n     * @dev event emitted when contract is un-npaused\n     */\n    event ContractUnpaused();\n\n    /**\n     * dev state variable indicating whether the contract has been upgraded\n     */\n    bool public upgraded = false;\n\n    /**\n     * @dev state variable indicating whether the contract is paused\n     */\n    bool public paused = false;\n\n    /**\n     * Set in case the contract is broken and an upgrade is required\n     */\n    address public newContractAddress;\n\n    /**\n     * @dev modifier to scope access to system administrator\n     */\n    modifier onlySysAdmin() {\n        require(admins.has(msg.sender));\n    _;\n    }\n\n    /**\n     * @dev modifier to scope access to franchise owner\n     */\n    modifier onlyFranchiseOwner() {\n        require(franchise.has(msg.sender));\n        _;\n    }\n\n    /**\n     * @dev Modifier to make a function callable only when the contract is not paused.\n     */\n    modifier whenNotPaused() {\n        require(!paused);\n        _;\n    }\n\n    /**\n     * @dev Modifier to make a function callable only when the contract is paused.\n     */\n    modifier whenPaused() {\n        require(paused);\n        _;\n    }\n\n    /**\n     * @dev Modifier to make a function callable only when the contract not upgraded.\n     */\n    modifier whenNotUpgraded() {\n        require(!upgraded);\n        _;\n    }\n\n    /**\n     * @dev called by a system administrator to  mark the smart contract as upgraded,\n     *      in case there is a serious breaking bug. This method stores the new contract\n     *      address and emits an event to that effect. Clients of the contract should\n     *      update to the new contract address upon receiving this event.\n     *\n     *      This contract will remain paused indefinitely after such an upgrade.\n     *\n     * @param _newAddress address of new contract\n     */\n    function upgradeContract(address _newAddress) external onlySysAdmin whenPaused whenNotUpgraded {\n        upgraded = true;\n        newContractAddress = _newAddress;\n        emit ContractUpgrade(_newAddress);\n    }\n\n    /**\n     * @dev called by the system administrator to pause, triggers stopped state\n     */\n    function pause() public onlySysAdmin whenNotPaused {\n        paused = true;\n        emit ContractPaused();\n    }\n\n    /**\n     * @dev called by the ystem administrator to un-pause, returns to normal state\n     */\n    function unpause() public onlySysAdmin whenPaused whenNotUpgraded {\n        paused = false;\n        emit ContractUnpaused();\n    }\n\n}",
  "sourcePath": "/Users/cliff/Projects/in-app-pro-shop/contracts/AccessControl.sol",
  "compiler": {
    "name": "solc",
    "version": "0.5.15+commit.6a57276f.Emscripten.clang"
  },
  "schemaVersion": "3.0.20",
  "updatedAt": "2019-12-28T21:35:08.628Z",
  "devdoc": {
    "methods": {
      "constructor": {
        "details": "constructor. Sets msg.sender as system admin by default"
      },
      "pause()": {
        "details": "called by the system administrator to pause, triggers stopped state"
      },
      "unpause()": {
        "details": "called by the ystem administrator to un-pause, returns to normal state"
      },
      "upgradeContract(address)": {
        "details": "called by a system administrator to  mark the smart contract as upgraded,     in case there is a serious breaking bug. This method stores the new contract     address and emits an event to that effect. Clients of the contract should     update to the new contract address upon receiving this event.     *      This contract will remain paused indefinitely after such an upgrade.",
        "params": {
          "_newAddress": "address of new contract"
        }
      }
    },
    "title": "AccessControl"
  },
  "userdoc": {
    "methods": {},
    "notice": "Role-based access control and related functions, function modifiers, and events"
  }
}