{
  "contractName": "AccessControl",
  "abi": [
    {
      "constant": true,
      "inputs": [
        {
          "name": "_operator",
          "type": "address"
        },
        {
          "name": "_role",
          "type": "string"
        }
      ],
      "name": "checkRole",
      "outputs": [],
      "payable": false,
      "stateMutability": "view",
      "type": "function"
    },
    {
      "constant": true,
      "inputs": [
        {
          "name": "_operator",
          "type": "address"
        },
        {
          "name": "_role",
          "type": "string"
        }
      ],
      "name": "hasRole",
      "outputs": [
        {
          "name": "",
          "type": "bool"
        }
      ],
      "payable": false,
      "stateMutability": "view",
      "type": "function"
    },
    {
      "constant": true,
      "inputs": [],
      "name": "ROLE_SYS_ADMIN",
      "outputs": [
        {
          "name": "",
          "type": "string"
        }
      ],
      "payable": false,
      "stateMutability": "view",
      "type": "function"
    },
    {
      "constant": true,
      "inputs": [],
      "name": "paused",
      "outputs": [
        {
          "name": "",
          "type": "bool"
        }
      ],
      "payable": false,
      "stateMutability": "view",
      "type": "function"
    },
    {
      "constant": true,
      "inputs": [],
      "name": "newContractAddress",
      "outputs": [
        {
          "name": "",
          "type": "address"
        }
      ],
      "payable": false,
      "stateMutability": "view",
      "type": "function"
    },
    {
      "constant": true,
      "inputs": [],
      "name": "ROLE_SHOP_OWNER",
      "outputs": [
        {
          "name": "",
          "type": "string"
        }
      ],
      "payable": false,
      "stateMutability": "view",
      "type": "function"
    },
    {
      "constant": true,
      "inputs": [],
      "name": "ROLE_FRANCHISE_OWNER",
      "outputs": [
        {
          "name": "",
          "type": "string"
        }
      ],
      "payable": false,
      "stateMutability": "view",
      "type": "function"
    },
    {
      "inputs": [],
      "payable": false,
      "stateMutability": "nonpayable",
      "type": "constructor"
    },
    {
      "anonymous": false,
      "inputs": [
        {
          "indexed": false,
          "name": "newContract",
          "type": "address"
        }
      ],
      "name": "ContractUpgrade",
      "type": "event"
    },
    {
      "anonymous": false,
      "inputs": [],
      "name": "ContractPaused",
      "type": "event"
    },
    {
      "anonymous": false,
      "inputs": [],
      "name": "ContractUnpaused",
      "type": "event"
    },
    {
      "anonymous": false,
      "inputs": [
        {
          "indexed": true,
          "name": "operator",
          "type": "address"
        },
        {
          "indexed": false,
          "name": "role",
          "type": "string"
        }
      ],
      "name": "RoleAdded",
      "type": "event"
    },
    {
      "anonymous": false,
      "inputs": [
        {
          "indexed": true,
          "name": "operator",
          "type": "address"
        },
        {
          "indexed": false,
          "name": "role",
          "type": "string"
        }
      ],
      "name": "RoleRemoved",
      "type": "event"
    },
    {
      "constant": false,
      "inputs": [
        {
          "name": "_newAddress",
          "type": "address"
        }
      ],
      "name": "setNewAddress",
      "outputs": [],
      "payable": false,
      "stateMutability": "nonpayable",
      "type": "function"
    },
    {
      "constant": false,
      "inputs": [],
      "name": "pause",
      "outputs": [],
      "payable": false,
      "stateMutability": "nonpayable",
      "type": "function"
    },
    {
      "constant": false,
      "inputs": [],
      "name": "unpause",
      "outputs": [],
      "payable": false,
      "stateMutability": "nonpayable",
      "type": "function"
    }
  ],
  "bytecode": "0x60806040526000600160006101000a81548160ff02191690831515021790555034801561002b57600080fd5b5060018060006101000a81548160ff021916908315150217905550610094336040805190810160405280601181526020017f726f6c652f73797374656d2d61646d696e000000000000000000000000000000815250610135640100000000026401000000009004565b6100e2336040805190810160405280600f81526020017f726f6c652f73686f702d6f776e65720000000000000000000000000000000000815250610135640100000000026401000000009004565b610130336040805190810160405280601481526020017f726f6c652f6672616e63686973652d6f776e6572000000000000000000000000815250610135640100000000026401000000009004565b6102d4565b6101bf826000836040518082805190602001908083835b602083101515610171578051825260208201915060208101905060208303925061014c565b6001836020036101000a03801982511681845116808217855250505050505090500191505090815260200160405180910390206102766401000000000261091d179091906401000000009004565b8173ffffffffffffffffffffffffffffffffffffffff167fbfec83d64eaa953f2708271a023ab9ee82057f8f3578d548c1a4ba0b5b700489826040518080602001828103825283818151815260200191508051906020019080838360005b8381101561023857808201518184015260208101905061021d565b50505050905090810190601f1680156102655780820380516001836020036101000a031916815260200191505b509250505060405180910390a25050565b60018260000160008373ffffffffffffffffffffffffffffffffffffffff1673ffffffffffffffffffffffffffffffffffffffff16815260200190815260200160002060006101000a81548160ff0219169083151502179055505050565b6109a7806102e36000396000f3006080604052600436106100a4576000357c0100000000000000000000000000000000000000000000000000000000900463ffffffff1680630988ca8c146100a9578063217fe6c6146101325780633f4ba83a146101d357806356de8ccd146101ea5780635c975abb1461027a5780636af04a57146102a957806371587988146103005780637e1ae976146103435780638456cb59146103d3578063cb1b2001146103ea575b600080fd5b3480156100b557600080fd5b50610130600480360381019080803573ffffffffffffffffffffffffffffffffffffffff169060200190929190803590602001908201803590602001908080601f016020809104026020016040519081016040528093929190818152602001838380828437820191505050505050919291929050505061047a565b005b34801561013e57600080fd5b506101b9600480360381019080803573ffffffffffffffffffffffffffffffffffffffff169060200190929190803590602001908201803590602001908080601f01602080910402602001604051908101604052809392919081815260200183838082843782019150505050505091929192905050506104fb565b604051808215151515815260200191505060405180910390f35b3480156101df57600080fd5b506101e8610582565b005b3480156101f657600080fd5b506101ff610625565b6040518080602001828103825283818151815260200191508051906020019080838360005b8381101561023f578082015181840152602081019050610224565b50505050905090810190601f16801561026c5780820380516001836020036101000a031916815260200191505b509250505060405180910390f35b34801561028657600080fd5b5061028f61065e565b604051808215151515815260200191505060405180910390f35b3480156102b557600080fd5b506102be610671565b604051808273ffffffffffffffffffffffffffffffffffffffff1673ffffffffffffffffffffffffffffffffffffffff16815260200191505060405180910390f35b34801561030c57600080fd5b50610341600480360381019080803573ffffffffffffffffffffffffffffffffffffffff169060200190929190505050610696565b005b34801561034f57600080fd5b50610358610796565b6040518080602001828103825283818151815260200191508051906020019080838360005b8381101561039857808201518184015260208101905061037d565b50505050905090810190601f1680156103c55780820380516001836020036101000a031916815260200191505b509250505060405180910390f35b3480156103df57600080fd5b506103e86107cf565b005b3480156103f657600080fd5b506103ff610872565b6040518080602001828103825283818151815260200191508051906020019080838360005b8381101561043f578082015181840152602081019050610424565b50505050905090810190601f16801561046c5780820380516001836020036101000a031916815260200191505b509250505060405180910390f35b6104f7826000836040518082805190602001908083835b6020831015156104b65780518252602082019150602081019050602083039250610491565b6001836020036101000a03801982511681845116808217855250505050505090500191505090815260200160405180910390206108ab90919063ffffffff16565b5050565b600061057a836000846040518082805190602001908083835b6020831015156105395780518252602082019150602081019050602083039250610514565b6001836020036101000a03801982511681845116808217855250505050505090500191505090815260200160405180910390206108c490919063ffffffff16565b905092915050565b6105c1336040805190810160405280601181526020017f726f6c652f73797374656d2d61646d696e00000000000000000000000000000081525061047a565b600160009054906101000a900460ff1615156105dc57600080fd5b6000600160006101000a81548160ff0219169083151502179055507f0e5e3b3fb504c22cf5c42fa07d521225937514c654007e1f12646f89768d6f9460405160405180910390a1565b6040805190810160405280601181526020017f726f6c652f73797374656d2d61646d696e00000000000000000000000000000081525081565b600160009054906101000a900460ff1681565b6001809054906101000a900473ffffffffffffffffffffffffffffffffffffffff1681565b6106d5336040805190810160405280601181526020017f726f6c652f73797374656d2d61646d696e00000000000000000000000000000081525061047a565b600160009054906101000a900460ff1615156106f057600080fd5b806001806101000a81548173ffffffffffffffffffffffffffffffffffffffff021916908373ffffffffffffffffffffffffffffffffffffffff1602179055507f450db8da6efbe9c22f2347f7c2021231df1fc58d3ae9a2fa75d39fa44619930581604051808273ffffffffffffffffffffffffffffffffffffffff1673ffffffffffffffffffffffffffffffffffffffff16815260200191505060405180910390a150565b6040805190810160405280600f81526020017f726f6c652f73686f702d6f776e6572000000000000000000000000000000000081525081565b61080e336040805190810160405280601181526020017f726f6c652f73797374656d2d61646d696e00000000000000000000000000000081525061047a565b600160009054906101000a900460ff1615151561082a57600080fd5b60018060006101000a81548160ff0219169083151502179055507fab35696f06e428ebc5ceba8cd17f8fed287baf43440206d1943af1ee53e6d26760405160405180910390a1565b6040805190810160405280601481526020017f726f6c652f6672616e63686973652d6f776e657200000000000000000000000081525081565b6108b582826108c4565b15156108c057600080fd5b5050565b60008260000160008373ffffffffffffffffffffffffffffffffffffffff1673ffffffffffffffffffffffffffffffffffffffff16815260200190815260200160002060009054906101000a900460ff16905092915050565b60018260000160008373ffffffffffffffffffffffffffffffffffffffff1673ffffffffffffffffffffffffffffffffffffffff16815260200190815260200160002060006101000a81548160ff02191690831515021790555050505600a165627a7a723058204951f105935b151e817af6aa7f460fc668c067e457ee2b31b4f7ba406454ec760029",
  "source": "pragma solidity ^0.4.24;\n\nimport \"openzeppelin-solidity/contracts/ownership/RBAC/RBAC.sol\";\n\n\n/**\n * @title AccessControl\n * @notice Role-based access control and related functions, function modifiers, and events\n */\ncontract AccessControl is RBAC {\n\n    /**\n     * @dev constructor. Sets msg.sender as system admin by default\n     */\n    constructor() public {\n        paused = true; // Start paused. un-paused after full migration\n        addRole(msg.sender, ROLE_SYS_ADMIN);\n        addRole(msg.sender, ROLE_SHOP_OWNER);\n        addRole(msg.sender, ROLE_FRANCHISE_OWNER);\n    }\n\n    /**\n     * @dev event emitted when contract is upgraded\n     */\n    event ContractUpgrade(address newContract);\n\n    /**\n     * @dev event emitted when contract is paused\n     */\n    event ContractPaused();\n\n    /**\n     * @dev event emitted when contract is un-npaused\n     */\n    event ContractUnpaused();\n\n    /**\n     * @dev state variable indicating whether the contract is paused\n     */\n    bool public paused = false;\n\n    /**\n     * Set in case the contract is broken and an upgrade is required\n     */\n    address public newContractAddress;\n\n    /**\n     * Role name for administrator of entire system\n     */\n    string public constant ROLE_SYS_ADMIN = \"role/system-admin\";\n\n    /**\n     * Role name for shop owners.\n     */\n    string public constant ROLE_SHOP_OWNER = \"role/shop-owner\";\n\n    /**\n     * Role name for franchise owner.\n     */\n    string public constant ROLE_FRANCHISE_OWNER = \"role/franchise-owner\";\n\n    /**\n     * @dev modifier to scope access to system administrator\n     */\n    modifier onlySysAdmin() {\n        checkRole(msg.sender, ROLE_SYS_ADMIN);\n        _;\n    }\n\n    /**\n     * @dev modifier to scope access to franchise owner\n     */\n    modifier onlyFranchiseOwner() {\n        checkRole(msg.sender, ROLE_FRANCHISE_OWNER);\n        _;\n    }\n\n    /**\n     * @dev Modifier to make a function callable only when the contract is not paused.\n     */\n    modifier whenNotPaused() {\n        require(!paused);\n        _;\n    }\n\n    /**\n     * @dev Modifier to make a function callable only when the contract is paused.\n     */\n    modifier whenPaused() {\n        require(paused);\n        _;\n    }\n\n    /**\n     * @dev Used to mark the smart contract as upgraded, in case there is a serious\n     *      breaking bug. This method only keeps track of the new contract and emits\n     *      a message indicating that the new address is set. It's up to clients of\n     *      contract to update to the new contract address in that case.\n     *      This contract will be paused indefinitely if such an upgrade takes place.\n     *\n     * @param _newAddress address of new contract\n     */\n    function setNewAddress(address _newAddress) external onlySysAdmin whenPaused {\n        newContractAddress = _newAddress;\n        emit ContractUpgrade(_newAddress);\n    }\n\n    /**\n     * @dev called by the system administrator to pause, triggers stopped state\n     */\n    function pause() public onlySysAdmin whenNotPaused {\n        paused = true;\n        emit ContractPaused();\n    }\n\n    /**\n     * @dev called by the ystem administrator to un-pause, returns to normal state\n     */\n    function unpause() public onlySysAdmin whenPaused {\n        paused = false;\n        emit ContractUnpaused();\n    }\n\n}",
  "sourcePath": "/Users/cliff/Documents/in-app-pro-shop/contracts/AccessControl.sol",
  "compiler": {
    "name": "solc",
    "version": "0.4.24+commit.e67f0147.Emscripten.clang"
  },
  "schemaVersion": "2.0.1",
  "updatedAt": "2019-03-12T20:20:14.814Z"
}