{
  "contractName": "AccessControl",
  "abi": [
    {
      "constant": true,
      "inputs": [
        {
          "name": "",
          "type": "uint256"
        },
        {
          "name": "",
          "type": "uint256"
        }
      ],
      "name": "shopSKUTypes",
      "outputs": [
        {
          "name": "",
          "type": "uint256"
        }
      ],
      "payable": false,
      "stateMutability": "view",
      "type": "function"
    },
    {
      "constant": true,
      "inputs": [
        {
          "name": "_interfaceId",
          "type": "bytes4"
        }
      ],
      "name": "supportsInterface",
      "outputs": [
        {
          "name": "",
          "type": "bool"
        }
      ],
      "payable": false,
      "stateMutability": "view",
      "type": "function"
    },
    {
      "constant": true,
      "inputs": [],
      "name": "name",
      "outputs": [
        {
          "name": "",
          "type": "string"
        }
      ],
      "payable": false,
      "stateMutability": "view",
      "type": "function"
    },
    {
      "constant": true,
      "inputs": [
        {
          "name": "_tokenId",
          "type": "uint256"
        }
      ],
      "name": "getApproved",
      "outputs": [
        {
          "name": "",
          "type": "address"
        }
      ],
      "payable": false,
      "stateMutability": "view",
      "type": "function"
    },
    {
      "constant": false,
      "inputs": [
        {
          "name": "_to",
          "type": "address"
        },
        {
          "name": "_tokenId",
          "type": "uint256"
        }
      ],
      "name": "approve",
      "outputs": [],
      "payable": false,
      "stateMutability": "nonpayable",
      "type": "function"
    },
    {
      "constant": true,
      "inputs": [
        {
          "name": "_operator",
          "type": "address"
        },
        {
          "name": "_role",
          "type": "string"
        }
      ],
      "name": "checkRole",
      "outputs": [],
      "payable": false,
      "stateMutability": "view",
      "type": "function"
    },
    {
      "constant": true,
      "inputs": [],
      "name": "totalSupply",
      "outputs": [
        {
          "name": "",
          "type": "uint256"
        }
      ],
      "payable": false,
      "stateMutability": "view",
      "type": "function"
    },
    {
      "constant": true,
      "inputs": [],
      "name": "TOKEN_NAME",
      "outputs": [
        {
          "name": "",
          "type": "string"
        }
      ],
      "payable": false,
      "stateMutability": "view",
      "type": "function"
    },
    {
      "constant": true,
      "inputs": [],
      "name": "InterfaceId_ERC165",
      "outputs": [
        {
          "name": "",
          "type": "bytes4"
        }
      ],
      "payable": false,
      "stateMutability": "view",
      "type": "function"
    },
    {
      "constant": true,
      "inputs": [
        {
          "name": "",
          "type": "uint256"
        }
      ],
      "name": "itemToOwner",
      "outputs": [
        {
          "name": "",
          "type": "address"
        }
      ],
      "payable": false,
      "stateMutability": "view",
      "type": "function"
    },
    {
      "constant": true,
      "inputs": [
        {
          "name": "_operator",
          "type": "address"
        },
        {
          "name": "_role",
          "type": "string"
        }
      ],
      "name": "hasRole",
      "outputs": [
        {
          "name": "",
          "type": "bool"
        }
      ],
      "payable": false,
      "stateMutability": "view",
      "type": "function"
    },
    {
      "constant": false,
      "inputs": [
        {
          "name": "_from",
          "type": "address"
        },
        {
          "name": "_to",
          "type": "address"
        },
        {
          "name": "_tokenId",
          "type": "uint256"
        }
      ],
      "name": "transferFrom",
      "outputs": [],
      "payable": false,
      "stateMutability": "nonpayable",
      "type": "function"
    },
    {
      "constant": true,
      "inputs": [
        {
          "name": "",
          "type": "uint256"
        },
        {
          "name": "",
          "type": "uint256"
        }
      ],
      "name": "skuItems",
      "outputs": [
        {
          "name": "",
          "type": "uint256"
        }
      ],
      "payable": false,
      "stateMutability": "view",
      "type": "function"
    },
    {
      "constant": true,
      "inputs": [],
      "name": "TOKEN_SYMBOL",
      "outputs": [
        {
          "name": "",
          "type": "string"
        }
      ],
      "payable": false,
      "stateMutability": "view",
      "type": "function"
    },
    {
      "constant": true,
      "inputs": [
        {
          "name": "",
          "type": "uint256"
        }
      ],
      "name": "shopToOwner",
      "outputs": [
        {
          "name": "",
          "type": "address"
        }
      ],
      "payable": false,
      "stateMutability": "view",
      "type": "function"
    },
    {
      "constant": true,
      "inputs": [
        {
          "name": "_owner",
          "type": "address"
        },
        {
          "name": "_index",
          "type": "uint256"
        }
      ],
      "name": "tokenOfOwnerByIndex",
      "outputs": [
        {
          "name": "",
          "type": "uint256"
        }
      ],
      "payable": false,
      "stateMutability": "view",
      "type": "function"
    },
    {
      "constant": true,
      "inputs": [
        {
          "name": "",
          "type": "uint256"
        }
      ],
      "name": "skus",
      "outputs": [
        {
          "name": "shopId",
          "type": "uint256"
        },
        {
          "name": "skuId",
          "type": "uint256"
        },
        {
          "name": "skuTypeId",
          "type": "uint256"
        },
        {
          "name": "price",
          "type": "uint256"
        },
        {
          "name": "name",
          "type": "string"
        },
        {
          "name": "description",
          "type": "string"
        },
        {
          "name": "consumable",
          "type": "bool"
        },
        {
          "name": "limited",
          "type": "bool"
        },
        {
          "name": "limit",
          "type": "uint256"
        }
      ],
      "payable": false,
      "stateMutability": "view",
      "type": "function"
    },
    {
      "constant": true,
      "inputs": [
        {
          "name": "",
          "type": "uint256"
        }
      ],
      "name": "skuTypeToShop",
      "outputs": [
        {
          "name": "",
          "type": "uint256"
        }
      ],
      "payable": false,
      "stateMutability": "view",
      "type": "function"
    },
    {
      "constant": false,
      "inputs": [
        {
          "name": "_from",
          "type": "address"
        },
        {
          "name": "_to",
          "type": "address"
        },
        {
          "name": "_tokenId",
          "type": "uint256"
        }
      ],
      "name": "safeTransferFrom",
      "outputs": [],
      "payable": false,
      "stateMutability": "nonpayable",
      "type": "function"
    },
    {
      "constant": true,
      "inputs": [
        {
          "name": "",
          "type": "address"
        },
        {
          "name": "",
          "type": "uint256"
        }
      ],
      "name": "ownedItems",
      "outputs": [
        {
          "name": "",
          "type": "uint256"
        }
      ],
      "payable": false,
      "stateMutability": "view",
      "type": "function"
    },
    {
      "constant": true,
      "inputs": [],
      "name": "franchiseBalance",
      "outputs": [
        {
          "name": "",
          "type": "uint256"
        }
      ],
      "payable": false,
      "stateMutability": "view",
      "type": "function"
    },
    {
      "constant": true,
      "inputs": [],
      "name": "franchiseFeePercent",
      "outputs": [
        {
          "name": "",
          "type": "uint256"
        }
      ],
      "payable": false,
      "stateMutability": "view",
      "type": "function"
    },
    {
      "constant": true,
      "inputs": [
        {
          "name": "_tokenId",
          "type": "uint256"
        }
      ],
      "name": "exists",
      "outputs": [
        {
          "name": "",
          "type": "bool"
        }
      ],
      "payable": false,
      "stateMutability": "view",
      "type": "function"
    },
    {
      "constant": true,
      "inputs": [
        {
          "name": "_index",
          "type": "uint256"
        }
      ],
      "name": "tokenByIndex",
      "outputs": [
        {
          "name": "",
          "type": "uint256"
        }
      ],
      "payable": false,
      "stateMutability": "view",
      "type": "function"
    },
    {
      "constant": true,
      "inputs": [
        {
          "name": "",
          "type": "address"
        },
        {
          "name": "",
          "type": "uint256"
        }
      ],
      "name": "ownedShops",
      "outputs": [
        {
          "name": "",
          "type": "uint256"
        }
      ],
      "payable": false,
      "stateMutability": "view",
      "type": "function"
    },
    {
      "constant": true,
      "inputs": [
        {
          "name": "",
          "type": "uint256"
        }
      ],
      "name": "skuTypes",
      "outputs": [
        {
          "name": "shopId",
          "type": "uint256"
        },
        {
          "name": "skuTypeId",
          "type": "uint256"
        },
        {
          "name": "name",
          "type": "string"
        },
        {
          "name": "description",
          "type": "string"
        }
      ],
      "payable": false,
      "stateMutability": "view",
      "type": "function"
    },
    {
      "constant": true,
      "inputs": [],
      "name": "ROLE_SYS_ADMIN",
      "outputs": [
        {
          "name": "",
          "type": "string"
        }
      ],
      "payable": false,
      "stateMutability": "view",
      "type": "function"
    },
    {
      "constant": true,
      "inputs": [],
      "name": "paused",
      "outputs": [
        {
          "name": "",
          "type": "bool"
        }
      ],
      "payable": false,
      "stateMutability": "view",
      "type": "function"
    },
    {
      "constant": true,
      "inputs": [
        {
          "name": "",
          "type": "uint256"
        },
        {
          "name": "",
          "type": "uint256"
        }
      ],
      "name": "skuTypeSKUs",
      "outputs": [
        {
          "name": "",
          "type": "uint256"
        }
      ],
      "payable": false,
      "stateMutability": "view",
      "type": "function"
    },
    {
      "constant": true,
      "inputs": [
        {
          "name": "_tokenId",
          "type": "uint256"
        }
      ],
      "name": "ownerOf",
      "outputs": [
        {
          "name": "",
          "type": "address"
        }
      ],
      "payable": false,
      "stateMutability": "view",
      "type": "function"
    },
    {
      "constant": true,
      "inputs": [],
      "name": "newContractAddress",
      "outputs": [
        {
          "name": "",
          "type": "address"
        }
      ],
      "payable": false,
      "stateMutability": "view",
      "type": "function"
    },
    {
      "constant": true,
      "inputs": [
        {
          "name": "_owner",
          "type": "address"
        }
      ],
      "name": "balanceOf",
      "outputs": [
        {
          "name": "",
          "type": "uint256"
        }
      ],
      "payable": false,
      "stateMutability": "view",
      "type": "function"
    },
    {
      "constant": true,
      "inputs": [
        {
          "name": "",
          "type": "uint256"
        }
      ],
      "name": "shops",
      "outputs": [
        {
          "name": "owner",
          "type": "address"
        },
        {
          "name": "shopId",
          "type": "uint256"
        },
        {
          "name": "name",
          "type": "string"
        },
        {
          "name": "description",
          "type": "string"
        }
      ],
      "payable": false,
      "stateMutability": "view",
      "type": "function"
    },
    {
      "constant": true,
      "inputs": [
        {
          "name": "",
          "type": "uint256"
        },
        {
          "name": "",
          "type": "uint256"
        }
      ],
      "name": "shopItems",
      "outputs": [
        {
          "name": "",
          "type": "uint256"
        }
      ],
      "payable": false,
      "stateMutability": "view",
      "type": "function"
    },
    {
      "constant": true,
      "inputs": [],
      "name": "ROLE_SHOP_OWNER",
      "outputs": [
        {
          "name": "",
          "type": "string"
        }
      ],
      "payable": false,
      "stateMutability": "view",
      "type": "function"
    },
    {
      "constant": true,
      "inputs": [
        {
          "name": "",
          "type": "uint256"
        },
        {
          "name": "",
          "type": "uint256"
        }
      ],
      "name": "shopSKUs",
      "outputs": [
        {
          "name": "",
          "type": "uint256"
        }
      ],
      "payable": false,
      "stateMutability": "view",
      "type": "function"
    },
    {
      "constant": true,
      "inputs": [
        {
          "name": "",
          "type": "uint256"
        }
      ],
      "name": "skuToShop",
      "outputs": [
        {
          "name": "",
          "type": "uint256"
        }
      ],
      "payable": false,
      "stateMutability": "view",
      "type": "function"
    },
    {
      "constant": true,
      "inputs": [],
      "name": "symbol",
      "outputs": [
        {
          "name": "",
          "type": "string"
        }
      ],
      "payable": false,
      "stateMutability": "view",
      "type": "function"
    },
    {
      "constant": false,
      "inputs": [
        {
          "name": "_to",
          "type": "address"
        },
        {
          "name": "_approved",
          "type": "bool"
        }
      ],
      "name": "setApprovalForAll",
      "outputs": [],
      "payable": false,
      "stateMutability": "nonpayable",
      "type": "function"
    },
    {
      "constant": true,
      "inputs": [
        {
          "name": "",
          "type": "uint256"
        }
      ],
      "name": "itemToShop",
      "outputs": [
        {
          "name": "",
          "type": "uint256"
        }
      ],
      "payable": false,
      "stateMutability": "view",
      "type": "function"
    },
    {
      "constant": false,
      "inputs": [
        {
          "name": "_from",
          "type": "address"
        },
        {
          "name": "_to",
          "type": "address"
        },
        {
          "name": "_tokenId",
          "type": "uint256"
        },
        {
          "name": "_data",
          "type": "bytes"
        }
      ],
      "name": "safeTransferFrom",
      "outputs": [],
      "payable": false,
      "stateMutability": "nonpayable",
      "type": "function"
    },
    {
      "constant": true,
      "inputs": [
        {
          "name": "",
          "type": "uint256"
        }
      ],
      "name": "items",
      "outputs": [
        {
          "name": "owner",
          "type": "address"
        },
        {
          "name": "shopId",
          "type": "uint256"
        },
        {
          "name": "itemId",
          "type": "uint256"
        },
        {
          "name": "skuTypeId",
          "type": "uint256"
        },
        {
          "name": "skuId",
          "type": "uint256"
        },
        {
          "name": "consumed",
          "type": "bool"
        }
      ],
      "payable": false,
      "stateMutability": "view",
      "type": "function"
    },
    {
      "constant": true,
      "inputs": [
        {
          "name": "_tokenId",
          "type": "uint256"
        }
      ],
      "name": "tokenURI",
      "outputs": [
        {
          "name": "",
          "type": "string"
        }
      ],
      "payable": false,
      "stateMutability": "view",
      "type": "function"
    },
    {
      "constant": true,
      "inputs": [],
      "name": "ROLE_FRANCHISE_OWNER",
      "outputs": [
        {
          "name": "",
          "type": "string"
        }
      ],
      "payable": false,
      "stateMutability": "view",
      "type": "function"
    },
    {
      "constant": true,
      "inputs": [
        {
          "name": "",
          "type": "uint256"
        }
      ],
      "name": "shopBalances",
      "outputs": [
        {
          "name": "",
          "type": "uint256"
        }
      ],
      "payable": false,
      "stateMutability": "view",
      "type": "function"
    },
    {
      "constant": true,
      "inputs": [
        {
          "name": "_owner",
          "type": "address"
        },
        {
          "name": "_operator",
          "type": "address"
        }
      ],
      "name": "isApprovedForAll",
      "outputs": [
        {
          "name": "",
          "type": "bool"
        }
      ],
      "payable": false,
      "stateMutability": "view",
      "type": "function"
    },
    {
      "inputs": [],
      "payable": false,
      "stateMutability": "nonpayable",
      "type": "constructor"
    },
    {
      "anonymous": false,
      "inputs": [
        {
          "indexed": false,
          "name": "newContract",
          "type": "address"
        }
      ],
      "name": "ContractUpgrade",
      "type": "event"
    },
    {
      "anonymous": false,
      "inputs": [],
      "name": "ContractPaused",
      "type": "event"
    },
    {
      "anonymous": false,
      "inputs": [],
      "name": "ContractUnpaused",
      "type": "event"
    },
    {
      "anonymous": false,
      "inputs": [
        {
          "indexed": true,
          "name": "_from",
          "type": "address"
        },
        {
          "indexed": true,
          "name": "_to",
          "type": "address"
        },
        {
          "indexed": true,
          "name": "_tokenId",
          "type": "uint256"
        }
      ],
      "name": "Transfer",
      "type": "event"
    },
    {
      "anonymous": false,
      "inputs": [
        {
          "indexed": true,
          "name": "_owner",
          "type": "address"
        },
        {
          "indexed": true,
          "name": "_approved",
          "type": "address"
        },
        {
          "indexed": true,
          "name": "_tokenId",
          "type": "uint256"
        }
      ],
      "name": "Approval",
      "type": "event"
    },
    {
      "anonymous": false,
      "inputs": [
        {
          "indexed": true,
          "name": "_owner",
          "type": "address"
        },
        {
          "indexed": true,
          "name": "_operator",
          "type": "address"
        },
        {
          "indexed": false,
          "name": "_approved",
          "type": "bool"
        }
      ],
      "name": "ApprovalForAll",
      "type": "event"
    },
    {
      "anonymous": false,
      "inputs": [
        {
          "indexed": true,
          "name": "operator",
          "type": "address"
        },
        {
          "indexed": false,
          "name": "role",
          "type": "string"
        }
      ],
      "name": "RoleAdded",
      "type": "event"
    },
    {
      "anonymous": false,
      "inputs": [
        {
          "indexed": true,
          "name": "operator",
          "type": "address"
        },
        {
          "indexed": false,
          "name": "role",
          "type": "string"
        }
      ],
      "name": "RoleRemoved",
      "type": "event"
    },
    {
      "constant": false,
      "inputs": [
        {
          "name": "_newAddress",
          "type": "address"
        }
      ],
      "name": "setNewAddress",
      "outputs": [],
      "payable": false,
      "stateMutability": "nonpayable",
      "type": "function"
    },
    {
      "constant": false,
      "inputs": [],
      "name": "pause",
      "outputs": [],
      "payable": false,
      "stateMutability": "nonpayable",
      "type": "function"
    },
    {
      "constant": false,
      "inputs": [],
      "name": "unpause",
      "outputs": [],
      "payable": false,
      "stateMutability": "nonpayable",
      "type": "function"
    }
  ],
  "bytecode": "0x60806040526000602060006101000a81548160ff0219169083151502179055503480156200002c57600080fd5b506040805190810160405280601081526020017f496e41707050726f53686f704974656d000000000000000000000000000000008152506040805190810160405280600481526020017f4941505300000000000000000000000000000000000000000000000000000000815250620000d66301ffc9a77c010000000000000000000000000000000000000000000000000000000002620002bf640100000000026401000000009004565b620001136380ac58cd7c010000000000000000000000000000000000000000000000000000000002620002bf640100000000026401000000009004565b62000150634f558e797c010000000000000000000000000000000000000000000000000000000002620002bf640100000000026401000000009004565b81600690805190602001906200016892919062000524565b5080600790805190602001906200018192919062000524565b50620001bf63780e9d637c010000000000000000000000000000000000000000000000000000000002620002bf640100000000026401000000009004565b620001fc635b5e139f7c010000000000000000000000000000000000000000000000000000000002620002bf640100000000026401000000009004565b50506001602060006101000a81548160ff02191690831515021790555062000269336040805190810160405280601181526020017f726f6c652f73797374656d2d61646d696e0000000000000000000000000000008152506200037d640100000000026401000000009004565b620002b9336040805190810160405280601481526020017f726f6c652f6672616e63686973652d6f776e65720000000000000000000000008152506200037d640100000000026401000000009004565b620005d3565b63ffffffff7c010000000000000000000000000000000000000000000000000000000002817bffffffffffffffffffffffffffffffffffffffffffffffffffffffff1916141515156200031157600080fd5b6001806000837bffffffffffffffffffffffffffffffffffffffffffffffffffffffff19167bffffffffffffffffffffffffffffffffffffffffffffffffffffffff1916815260200190815260200160002060006101000a81548160ff02191690831515021790555050565b6200040c826000836040518082805190602001908083835b602083101515620003bc578051825260208201915060208101905060208303925062000395565b6001836020036101000a0380198251168184511680821785525050505050509050019150509081526020016040518091039020620004c6640100000000026200373d179091906401000000009004565b8173ffffffffffffffffffffffffffffffffffffffff167fbfec83d64eaa953f2708271a023ab9ee82057f8f3578d548c1a4ba0b5b700489826040518080602001828103825283818151815260200191508051906020019080838360005b83811015620004875780820151818401526020810190506200046a565b50505050905090810190601f168015620004b55780820380516001836020036101000a031916815260200191505b509250505060405180910390a25050565b60018260000160008373ffffffffffffffffffffffffffffffffffffffff1673ffffffffffffffffffffffffffffffffffffffff16815260200190815260200160002060006101000a81548160ff0219169083151502179055505050565b828054600181600116156101000203166002900490600052602060002090601f016020900481019282601f106200056757805160ff191683800117855562000598565b8280016001018555821562000598579182015b82811115620005975782518255916020019190600101906200057a565b5b509050620005a79190620005ab565b5090565b620005d091905b80821115620005cc576000816000905550600101620005b2565b5090565b90565b6137c780620005e36000396000f300608060405260043610610251576000357c0100000000000000000000000000000000000000000000000000000000900463ffffffff16806301ba75391461025657806301ffc9a7146102a157806306fdde0314610305578063081812fc14610395578063095ea7b3146104025780630988ca8c1461044f57806318160ddd146104d8578063188214001461050357806319fa8f50146105935780631a4d96cd146105fc578063217fe6c61461066957806323b872dd1461070a57806327bcfd61146107775780632a905318146107c25780632cf0d92a146108525780632f745c59146108bf57806335007f0e146109205780633632929414610a6b5780633f4ba83a14610aac57806342842e0e14610ac35780634284653414610b30578063477e2b3c14610b915780634b2aecdc14610bbc5780634f558e7914610be75780634f6ccce714610c2c57806351b4fc7e14610c6d578063531e005b14610cce57806356de8ccd14610dee5780635c975abb14610e7e5780635ded461a14610ead5780636352211e14610ef85780636af04a5714610f6557806370a0823114610fbc578063713aca7414611013578063715879881461115f5780637ceab6b0146111a25780637e1ae976146111ed5780638456cb591461127d578063910339401461129457806394eccbbf146112df57806395d89b4114611320578063a22cb465146113b0578063a9cb6d73146113ff578063b88d4fde14611440578063bfb231d2146114f3578063c87b56dd14611587578063cb1b20011461162d578063e659ebef146116bd578063e985e9c5146116fe575b600080fd5b34801561026257600080fd5b5061028b6004803603810190808035906020019092919080359060200190929190505050611779565b6040518082815260200191505060405180910390f35b3480156102ad57600080fd5b506102eb60048036038101908080357bffffffffffffffffffffffffffffffffffffffffffffffffffffffff191690602001909291905050506117a9565b604051808215151515815260200191505060405180910390f35b34801561031157600080fd5b5061031a611811565b6040518080602001828103825283818151815260200191508051906020019080838360005b8381101561035a57808201518184015260208101905061033f565b50505050905090810190601f1680156103875780820380516001836020036101000a031916815260200191505b509250505060405180910390f35b3480156103a157600080fd5b506103c0600480360381019080803590602001909291905050506118b3565b604051808273ffffffffffffffffffffffffffffffffffffffff1673ffffffffffffffffffffffffffffffffffffffff16815260200191505060405180910390f35b34801561040e57600080fd5b5061044d600480360381019080803573ffffffffffffffffffffffffffffffffffffffff169060200190929190803590602001909291905050506118f0565b005b34801561045b57600080fd5b506104d6600480360381019080803573ffffffffffffffffffffffffffffffffffffffff169060200190929190803590602001908201803590602001908080601f0160208091040260200160405190810160405280939291908181526020018383808284378201915050505050509192919290505050611a35565b005b3480156104e457600080fd5b506104ed611ab6565b6040518082815260200191505060405180910390f35b34801561050f57600080fd5b50610518611ac3565b6040518080602001828103825283818151815260200191508051906020019080838360005b8381101561055857808201518184015260208101905061053d565b50505050905090810190601f1680156105855780820380516001836020036101000a031916815260200191505b509250505060405180910390f35b34801561059f57600080fd5b506105a8611afc565b60405180827bffffffffffffffffffffffffffffffffffffffffffffffffffffffff19167bffffffffffffffffffffffffffffffffffffffffffffffffffffffff1916815260200191505060405180910390f35b34801561060857600080fd5b5061062760048036038101908080359060200190929190505050611b23565b604051808273ffffffffffffffffffffffffffffffffffffffff1673ffffffffffffffffffffffffffffffffffffffff16815260200191505060405180910390f35b34801561067557600080fd5b506106f0600480360381019080803573ffffffffffffffffffffffffffffffffffffffff169060200190929190803590602001908201803590602001908080601f0160208091040260200160405190810160405280939291908181526020018383808284378201915050505050509192919290505050611b56565b604051808215151515815260200191505060405180910390f35b34801561071657600080fd5b50610775600480360381019080803573ffffffffffffffffffffffffffffffffffffffff169060200190929190803573ffffffffffffffffffffffffffffffffffffffff16906020019092919080359060200190929190505050611bdd565b005b34801561078357600080fd5b506107ac6004803603810190808035906020019092919080359060200190929190505050611cea565b6040518082815260200191505060405180910390f35b3480156107ce57600080fd5b506107d7611d1a565b6040518080602001828103825283818151815260200191508051906020019080838360005b838110156108175780820151818401526020810190506107fc565b50505050905090810190601f1680156108445780820380516001836020036101000a031916815260200191505b509250505060405180910390f35b34801561085e57600080fd5b5061087d60048036038101908080359060200190929190505050611d53565b604051808273ffffffffffffffffffffffffffffffffffffffff1673ffffffffffffffffffffffffffffffffffffffff16815260200191505060405180910390f35b3480156108cb57600080fd5b5061090a600480360381019080803573ffffffffffffffffffffffffffffffffffffffff16906020019092919080359060200190929190505050611d86565b6040518082815260200191505060405180910390f35b34801561092c57600080fd5b5061094b60048036038101908080359060200190929190505050611dfd565b604051808a815260200189815260200188815260200187815260200180602001806020018615151515815260200185151515158152602001848152602001838103835288818151815260200191508051906020019080838360005b838110156109c15780820151818401526020810190506109a6565b50505050905090810190601f1680156109ee5780820380516001836020036101000a031916815260200191505b50838103825287818151815260200191508051906020019080838360005b83811015610a27578082015181840152602081019050610a0c565b50505050905090810190601f168015610a545780820380516001836020036101000a031916815260200191505b509b50505050505050505050505060405180910390f35b348015610a7757600080fd5b50610a9660048036038101908080359060200190929190505050611fa4565b6040518082815260200191505060405180910390f35b348015610ab857600080fd5b50610ac1611fbc565b005b348015610acf57600080fd5b50610b2e600480360381019080803573ffffffffffffffffffffffffffffffffffffffff169060200190929190803573ffffffffffffffffffffffffffffffffffffffff1690602001909291908035906020019092919050505061205f565b005b348015610b3c57600080fd5b50610b7b600480360381019080803573ffffffffffffffffffffffffffffffffffffffff16906020019092919080359060200190929190505050612097565b6040518082815260200191505060405180910390f35b348015610b9d57600080fd5b50610ba66120c7565b6040518082815260200191505060405180910390f35b348015610bc857600080fd5b50610bd16120cd565b6040518082815260200191505060405180910390f35b348015610bf357600080fd5b50610c12600480360381019080803590602001909291905050506120d3565b604051808215151515815260200191505060405180910390f35b348015610c3857600080fd5b50610c5760048036038101908080359060200190929190505050612145565b6040518082815260200191505060405180910390f35b348015610c7957600080fd5b50610cb8600480360381019080803573ffffffffffffffffffffffffffffffffffffffff1690602001909291908035906020019092919050505061217d565b6040518082815260200191505060405180910390f35b348015610cda57600080fd5b50610cf9600480360381019080803590602001909291905050506121ad565b604051808581526020018481526020018060200180602001838103835285818151815260200191508051906020019080838360005b83811015610d49578082015181840152602081019050610d2e565b50505050905090810190601f168015610d765780820380516001836020036101000a031916815260200191505b50838103825284818151815260200191508051906020019080838360005b83811015610daf578082015181840152602081019050610d94565b50505050905090810190601f168015610ddc5780820380516001836020036101000a031916815260200191505b50965050505050505060405180910390f35b348015610dfa57600080fd5b50610e0361231c565b6040518080602001828103825283818151815260200191508051906020019080838360005b83811015610e43578082015181840152602081019050610e28565b50505050905090810190601f168015610e705780820380516001836020036101000a031916815260200191505b509250505060405180910390f35b348015610e8a57600080fd5b50610e93612355565b604051808215151515815260200191505060405180910390f35b348015610eb957600080fd5b50610ee26004803603810190808035906020019092919080359060200190929190505050612368565b6040518082815260200191505060405180910390f35b348015610f0457600080fd5b50610f2360048036038101908080359060200190929190505050612398565b604051808273ffffffffffffffffffffffffffffffffffffffff1673ffffffffffffffffffffffffffffffffffffffff16815260200191505060405180910390f35b348015610f7157600080fd5b50610f7a612416565b604051808273ffffffffffffffffffffffffffffffffffffffff1673ffffffffffffffffffffffffffffffffffffffff16815260200191505060405180910390f35b348015610fc857600080fd5b50610ffd600480360381019080803573ffffffffffffffffffffffffffffffffffffffff16906020019092919050505061243c565b6040518082815260200191505060405180910390f35b34801561101f57600080fd5b5061103e600480360381019080803590602001909291905050506124c0565b604051808573ffffffffffffffffffffffffffffffffffffffff1673ffffffffffffffffffffffffffffffffffffffff1681526020018481526020018060200180602001838103835285818151815260200191508051906020019080838360005b838110156110ba57808201518184015260208101905061109f565b50505050905090810190601f1680156110e75780820380516001836020036101000a031916815260200191505b50838103825284818151815260200191508051906020019080838360005b83811015611120578082015181840152602081019050611105565b50505050905090810190601f16801561114d5780820380516001836020036101000a031916815260200191505b50965050505050505060405180910390f35b34801561116b57600080fd5b506111a0600480360381019080803573ffffffffffffffffffffffffffffffffffffffff16906020019092919050505061264f565b005b3480156111ae57600080fd5b506111d76004803603810190808035906020019092919080359060200190929190505050612750565b6040518082815260200191505060405180910390f35b3480156111f957600080fd5b50611202612780565b6040518080602001828103825283818151815260200191508051906020019080838360005b83811015611242578082015181840152602081019050611227565b50505050905090810190601f16801561126f5780820380516001836020036101000a031916815260200191505b509250505060405180910390f35b34801561128957600080fd5b506112926127b9565b005b3480156112a057600080fd5b506112c9600480360381019080803590602001909291908035906020019092919050505061285d565b6040518082815260200191505060405180910390f35b3480156112eb57600080fd5b5061130a6004803603810190808035906020019092919050505061288d565b6040518082815260200191505060405180910390f35b34801561132c57600080fd5b506113356128a5565b6040518080602001828103825283818151815260200191508051906020019080838360005b8381101561137557808201518184015260208101905061135a565b50505050905090810190601f1680156113a25780820380516001836020036101000a031916815260200191505b509250505060405180910390f35b3480156113bc57600080fd5b506113fd600480360381019080803573ffffffffffffffffffffffffffffffffffffffff169060200190929190803515159060200190929190505050612947565b005b34801561140b57600080fd5b5061142a60048036038101908080359060200190929190505050612a83565b6040518082815260200191505060405180910390f35b34801561144c57600080fd5b506114f1600480360381019080803573ffffffffffffffffffffffffffffffffffffffff169060200190929190803573ffffffffffffffffffffffffffffffffffffffff16906020019092919080359060200190929190803590602001908201803590602001908080601f0160208091040260200160405190810160405280939291908181526020018383808284378201915050505050509192919290505050612a9b565b005b3480156114ff57600080fd5b5061151e60048036038101908080359060200190929190505050612ada565b604051808773ffffffffffffffffffffffffffffffffffffffff1673ffffffffffffffffffffffffffffffffffffffff16815260200186815260200185815260200184815260200183815260200182151515158152602001965050505050505060405180910390f35b34801561159357600080fd5b506115b260048036038101908080359060200190929190505050612b52565b6040518080602001828103825283818151815260200191508051906020019080838360005b838110156115f25780820151818401526020810190506115d7565b50505050905090810190601f16801561161f5780820380516001836020036101000a031916815260200191505b509250505060405180910390f35b34801561163957600080fd5b50611642612c1b565b6040518080602001828103825283818151815260200191508051906020019080838360005b83811015611682578082015181840152602081019050611667565b50505050905090810190601f1680156116af5780820380516001836020036101000a031916815260200191505b509250505060405180910390f35b3480156116c957600080fd5b506116e860048036038101908080359060200190929190505050612c54565b6040518082815260200191505060405180910390f35b34801561170a57600080fd5b5061175f600480360381019080803573ffffffffffffffffffffffffffffffffffffffff169060200190929190803573ffffffffffffffffffffffffffffffffffffffff169060200190929190505050612c6c565b604051808215151515815260200191505060405180910390f35b60166020528160005260406000208181548110151561179457fe5b90600052602060002001600091509150505481565b600060016000837bffffffffffffffffffffffffffffffffffffffffffffffffffffffff19167bffffffffffffffffffffffffffffffffffffffffffffffffffffffff1916815260200190815260200160002060009054906101000a900460ff169050919050565b606060068054600181600116156101000203166002900480601f0160208091040260200160405190810160405280929190818152602001828054600181600116156101000203166002900480156118a95780601f1061187e576101008083540402835291602001916118a9565b820191906000526020600020905b81548152906001019060200180831161188c57829003601f168201915b5050505050905090565b60006003600083815260200190815260200160002060009054906101000a900473ffffffffffffffffffffffffffffffffffffffff169050919050565b60006118fb82612398565b90508073ffffffffffffffffffffffffffffffffffffffff168373ffffffffffffffffffffffffffffffffffffffff161415151561193857600080fd5b8073ffffffffffffffffffffffffffffffffffffffff163373ffffffffffffffffffffffffffffffffffffffff16148061197857506119778133612c6c565b5b151561198357600080fd5b826003600084815260200190815260200160002060006101000a81548173ffffffffffffffffffffffffffffffffffffffff021916908373ffffffffffffffffffffffffffffffffffffffff160217905550818373ffffffffffffffffffffffffffffffffffffffff168273ffffffffffffffffffffffffffffffffffffffff167f8c5be1e5ebec7d5bd14f71427d1e84f3dd0314c0f7b2291e5b200ac8c7c3b92560405160405180910390a4505050565b611ab2826000836040518082805190602001908083835b602083101515611a715780518252602082019150602081019050602083039250611a4c565b6001836020036101000a0380198251168184511680821785525050505050509050019150509081526020016040518091039020612d0090919063ffffffff16565b5050565b6000600a80549050905090565b6040805190810160405280601081526020017f496e41707050726f53686f704974656d0000000000000000000000000000000081525081565b6301ffc9a77c01000000000000000000000000000000000000000000000000000000000281565b601d6020528060005260406000206000915054906101000a900473ffffffffffffffffffffffffffffffffffffffff1681565b6000611bd5836000846040518082805190602001908083835b602083101515611b945780518252602082019150602081019050602083039250611b6f565b6001836020036101000a0380198251168184511680821785525050505050509050019150509081526020016040518091039020612d1990919063ffffffff16565b905092915050565b80611be83382612d72565b1515611bf357600080fd5b600073ffffffffffffffffffffffffffffffffffffffff168473ffffffffffffffffffffffffffffffffffffffff1614151515611c2f57600080fd5b600073ffffffffffffffffffffffffffffffffffffffff168373ffffffffffffffffffffffffffffffffffffffff1614151515611c6b57600080fd5b611c758483612e07565b611c7f8483612f0a565b611c898383613122565b818373ffffffffffffffffffffffffffffffffffffffff168573ffffffffffffffffffffffffffffffffffffffff167fddf252ad1be2c89b69c2b068fc378daa952ba7f163c4a11628f55a4df523b3ef60405160405180910390a450505050565b601a60205281600052604060002081815481101515611d0557fe5b90600052602060002001600091509150505481565b6040805190810160405280600481526020017f494150530000000000000000000000000000000000000000000000000000000081525081565b60136020528060005260406000206000915054906101000a900473ffffffffffffffffffffffffffffffffffffffff1681565b6000611d918361243c565b82101515611d9e57600080fd5b600860008473ffffffffffffffffffffffffffffffffffffffff1673ffffffffffffffffffffffffffffffffffffffff16815260200190815260200160002082815481101515611dea57fe5b9060005260206000200154905092915050565b600f81815481101515611e0c57fe5b9060005260206000209060080201600091509050806000015490806001015490806002015490806003015490806004018054600181600116156101000203166002900480601f016020809104026020016040519081016040528092919081815260200182805460018160011615610100020316600290048015611ed05780601f10611ea557610100808354040283529160200191611ed0565b820191906000526020600020905b815481529060010190602001808311611eb357829003601f168201915b505050505090806005018054600181600116156101000203166002900480601f016020809104026020016040519081016040528092919081815260200182805460018160011615610100020316600290048015611f6e5780601f10611f4357610100808354040283529160200191611f6e565b820191906000526020600020905b815481529060010190602001808311611f5157829003601f168201915b5050505050908060060160009054906101000a900460ff16908060060160019054906101000a900460ff16908060070154905089565b60156020528060005260406000206000915090505481565b611ffb336040805190810160405280601181526020017f726f6c652f73797374656d2d61646d696e000000000000000000000000000000815250611a35565b602060009054906101000a900460ff16151561201657600080fd5b6000602060006101000a81548160ff0219169083151502179055507f0e5e3b3fb504c22cf5c42fa07d521225937514c654007e1f12646f89768d6f9460405160405180910390a1565b8061206a3382612d72565b151561207557600080fd5b6120918484846020604051908101604052806000815250612a9b565b50505050565b601c602052816000526040600020818154811015156120b257fe5b90600052602060002001600091509150505481565b60115481565b60125481565b6000806002600084815260200190815260200160002060009054906101000a900473ffffffffffffffffffffffffffffffffffffffff169050600073ffffffffffffffffffffffffffffffffffffffff168173ffffffffffffffffffffffffffffffffffffffff161415915050919050565b600061214f611ab6565b8210151561215c57600080fd5b600a8281548110151561216b57fe5b90600052602060002001549050919050565b60146020528160005260406000208181548110151561219857fe5b90600052602060002001600091509150505481565b600e818154811015156121bc57fe5b9060005260206000209060040201600091509050806000015490806001015490806002018054600181600116156101000203166002900480601f0160208091040260200160405190810160405280929190818152602001828054600181600116156101000203166002900480156122745780601f1061224957610100808354040283529160200191612274565b820191906000526020600020905b81548152906001019060200180831161225757829003601f168201915b505050505090806003018054600181600116156101000203166002900480601f0160208091040260200160405190810160405280929190818152602001828054600181600116156101000203166002900480156123125780601f106122e757610100808354040283529160200191612312565b820191906000526020600020905b8154815290600101906020018083116122f557829003601f168201915b5050505050905084565b6040805190810160405280601181526020017f726f6c652f73797374656d2d61646d696e00000000000000000000000000000081525081565b602060009054906101000a900460ff1681565b60186020528160005260406000208181548110151561238357fe5b90600052602060002001600091509150505481565b6000806002600084815260200190815260200160002060009054906101000a900473ffffffffffffffffffffffffffffffffffffffff169050600073ffffffffffffffffffffffffffffffffffffffff168173ffffffffffffffffffffffffffffffffffffffff161415151561240d57600080fd5b80915050919050565b602060019054906101000a900473ffffffffffffffffffffffffffffffffffffffff1681565b60008073ffffffffffffffffffffffffffffffffffffffff168273ffffffffffffffffffffffffffffffffffffffff161415151561247957600080fd5b600460008373ffffffffffffffffffffffffffffffffffffffff1673ffffffffffffffffffffffffffffffffffffffff168152602001908152602001600020549050919050565b600d818154811015156124cf57fe5b90600052602060002090600402016000915090508060000160009054906101000a900473ffffffffffffffffffffffffffffffffffffffff1690806001015490806002018054600181600116156101000203166002900480601f0160208091040260200160405190810160405280929190818152602001828054600181600116156101000203166002900480156125a75780601f1061257c576101008083540402835291602001916125a7565b820191906000526020600020905b81548152906001019060200180831161258a57829003601f168201915b505050505090806003018054600181600116156101000203166002900480601f0160208091040260200160405190810160405280929190818152602001828054600181600116156101000203166002900480156126455780601f1061261a57610100808354040283529160200191612645565b820191906000526020600020905b81548152906001019060200180831161262857829003601f168201915b5050505050905084565b61268e336040805190810160405280601181526020017f726f6c652f73797374656d2d61646d696e000000000000000000000000000000815250611a35565b602060009054906101000a900460ff1615156126a957600080fd5b80602060016101000a81548173ffffffffffffffffffffffffffffffffffffffff021916908373ffffffffffffffffffffffffffffffffffffffff1602179055507f450db8da6efbe9c22f2347f7c2021231df1fc58d3ae9a2fa75d39fa44619930581604051808273ffffffffffffffffffffffffffffffffffffffff1673ffffffffffffffffffffffffffffffffffffffff16815260200191505060405180910390a150565b601e6020528160005260406000208181548110151561276b57fe5b90600052602060002001600091509150505481565b6040805190810160405280600f81526020017f726f6c652f73686f702d6f776e6572000000000000000000000000000000000081525081565b6127f8336040805190810160405280601181526020017f726f6c652f73797374656d2d61646d696e000000000000000000000000000000815250611a35565b602060009054906101000a900460ff1615151561281457600080fd5b6001602060006101000a81548160ff0219169083151502179055507fab35696f06e428ebc5ceba8cd17f8fed287baf43440206d1943af1ee53e6d26760405160405180910390a1565b60196020528160005260406000208181548110151561287857fe5b90600052602060002001600091509150505481565b60176020528060005260406000206000915090505481565b606060078054600181600116156101000203166002900480601f01602080910402602001604051908101604052809291908181526020018280546001816001161561010002031660029004801561293d5780601f106129125761010080835404028352916020019161293d565b820191906000526020600020905b81548152906001019060200180831161292057829003601f168201915b5050505050905090565b3373ffffffffffffffffffffffffffffffffffffffff168273ffffffffffffffffffffffffffffffffffffffff161415151561298257600080fd5b80600560003373ffffffffffffffffffffffffffffffffffffffff1673ffffffffffffffffffffffffffffffffffffffff16815260200190815260200160002060008473ffffffffffffffffffffffffffffffffffffffff1673ffffffffffffffffffffffffffffffffffffffff16815260200190815260200160002060006101000a81548160ff0219169083151502179055508173ffffffffffffffffffffffffffffffffffffffff163373ffffffffffffffffffffffffffffffffffffffff167f17307eab39ab6107e8899845ad3d59bd9653f200f220920489ca2b5937696c3183604051808215151515815260200191505060405180910390a35050565b601b6020528060005260406000206000915090505481565b81612aa63382612d72565b1515612ab157600080fd5b612abc858585611bdd565b612ac8858585856131f9565b1515612ad357600080fd5b5050505050565b601081815481101515612ae957fe5b90600052602060002090600602016000915090508060000160009054906101000a900473ffffffffffffffffffffffffffffffffffffffff16908060010154908060020154908060030154908060040154908060050160009054906101000a900460ff16905086565b6060612b5d826120d3565b1515612b6857600080fd5b600c60008381526020019081526020016000208054600181600116156101000203166002900480601f016020809104026020016040519081016040528092919081815260200182805460018160011615610100020316600290048015612c0f5780601f10612be457610100808354040283529160200191612c0f565b820191906000526020600020905b815481529060010190602001808311612bf257829003601f168201915b50505050509050919050565b6040805190810160405280601481526020017f726f6c652f6672616e63686973652d6f776e657200000000000000000000000081525081565b601f6020528060005260406000206000915090505481565b6000600560008473ffffffffffffffffffffffffffffffffffffffff1673ffffffffffffffffffffffffffffffffffffffff16815260200190815260200160002060008373ffffffffffffffffffffffffffffffffffffffff1673ffffffffffffffffffffffffffffffffffffffff16815260200190815260200160002060009054906101000a900460ff16905092915050565b612d0a8282612d19565b1515612d1557600080fd5b5050565b60008260000160008373ffffffffffffffffffffffffffffffffffffffff1673ffffffffffffffffffffffffffffffffffffffff16815260200190815260200160002060009054906101000a900460ff16905092915050565b600080612d7e83612398565b90508073ffffffffffffffffffffffffffffffffffffffff168473ffffffffffffffffffffffffffffffffffffffff161480612ded57508373ffffffffffffffffffffffffffffffffffffffff16612dd5846118b3565b73ffffffffffffffffffffffffffffffffffffffff16145b80612dfe5750612dfd8185612c6c565b5b91505092915050565b8173ffffffffffffffffffffffffffffffffffffffff16612e2782612398565b73ffffffffffffffffffffffffffffffffffffffff16141515612e4957600080fd5b600073ffffffffffffffffffffffffffffffffffffffff166003600083815260200190815260200160002060009054906101000a900473ffffffffffffffffffffffffffffffffffffffff1673ffffffffffffffffffffffffffffffffffffffff16141515612f065760006003600083815260200190815260200160002060006101000a81548173ffffffffffffffffffffffffffffffffffffffff021916908373ffffffffffffffffffffffffffffffffffffffff1602179055505b5050565b6000806000612f19858561341b565b60096000858152602001908152602001600020549250612f856001600860008873ffffffffffffffffffffffffffffffffffffffff1673ffffffffffffffffffffffffffffffffffffffff1681526020019081526020016000208054905061354a90919063ffffffff16565b9150600860008673ffffffffffffffffffffffffffffffffffffffff1673ffffffffffffffffffffffffffffffffffffffff16815260200190815260200160002082815481101515612fd357fe5b9060005260206000200154905080600860008773ffffffffffffffffffffffffffffffffffffffff1673ffffffffffffffffffffffffffffffffffffffff1681526020019081526020016000208481548110151561302d57fe5b90600052602060002001819055506000600860008773ffffffffffffffffffffffffffffffffffffffff1673ffffffffffffffffffffffffffffffffffffffff1681526020019081526020016000208381548110151561308957fe5b9060005260206000200181905550600860008673ffffffffffffffffffffffffffffffffffffffff1673ffffffffffffffffffffffffffffffffffffffff1681526020019081526020016000208054809190600190036130e991906136ec565b50600060096000868152602001908152602001600020819055508260096000838152602001908152602001600020819055505050505050565b600061312e8383613563565b600860008473ffffffffffffffffffffffffffffffffffffffff1673ffffffffffffffffffffffffffffffffffffffff168152602001908152602001600020805490509050600860008473ffffffffffffffffffffffffffffffffffffffff1673ffffffffffffffffffffffffffffffffffffffff168152602001908152602001600020829080600181540180825580915050906001820390600052602060002001600090919290919091505550806009600084815260200190815260200160002081905550505050565b60008061321b8573ffffffffffffffffffffffffffffffffffffffff166136bd565b151561322a5760019150613412565b8473ffffffffffffffffffffffffffffffffffffffff1663150b7a02338887876040518563ffffffff167c0100000000000000000000000000000000000000000000000000000000028152600401808573ffffffffffffffffffffffffffffffffffffffff1673ffffffffffffffffffffffffffffffffffffffff1681526020018473ffffffffffffffffffffffffffffffffffffffff1673ffffffffffffffffffffffffffffffffffffffff16815260200183815260200180602001828103825283818151815260200191508051906020019080838360005b8381101561331f578082015181840152602081019050613304565b50505050905090810190601f16801561334c5780820380516001836020036101000a031916815260200191505b5095505050505050602060405180830381600087803b15801561336e57600080fd5b505af1158015613382573d6000803e3d6000fd5b505050506040513d602081101561339857600080fd5b8101908080519060200190929190505050905063150b7a027c0100000000000000000000000000000000000000000000000000000000027bffffffffffffffffffffffffffffffffffffffffffffffffffffffff1916817bffffffffffffffffffffffffffffffffffffffffffffffffffffffff19161491505b50949350505050565b8173ffffffffffffffffffffffffffffffffffffffff1661343b82612398565b73ffffffffffffffffffffffffffffffffffffffff1614151561345d57600080fd5b6134b06001600460008573ffffffffffffffffffffffffffffffffffffffff1673ffffffffffffffffffffffffffffffffffffffff1681526020019081526020016000205461354a90919063ffffffff16565b600460008473ffffffffffffffffffffffffffffffffffffffff1673ffffffffffffffffffffffffffffffffffffffff1681526020019081526020016000208190555060006002600083815260200190815260200160002060006101000a81548173ffffffffffffffffffffffffffffffffffffffff021916908373ffffffffffffffffffffffffffffffffffffffff1602179055505050565b600082821115151561355857fe5b818303905092915050565b600073ffffffffffffffffffffffffffffffffffffffff166002600083815260200190815260200160002060009054906101000a900473ffffffffffffffffffffffffffffffffffffffff1673ffffffffffffffffffffffffffffffffffffffff161415156135d157600080fd5b816002600083815260200190815260200160002060006101000a81548173ffffffffffffffffffffffffffffffffffffffff021916908373ffffffffffffffffffffffffffffffffffffffff1602179055506136766001600460008573ffffffffffffffffffffffffffffffffffffffff1673ffffffffffffffffffffffffffffffffffffffff168152602001908152602001600020546136d090919063ffffffff16565b600460008473ffffffffffffffffffffffffffffffffffffffff1673ffffffffffffffffffffffffffffffffffffffff168152602001908152602001600020819055505050565b600080823b905060008111915050919050565b600081830190508281101515156136e357fe5b80905092915050565b815481835581811115613713578183600052602060002091820191016137129190613718565b5b505050565b61373a91905b8082111561373657600081600090555060010161371e565b5090565b90565b60018260000160008373ffffffffffffffffffffffffffffffffffffffff1673ffffffffffffffffffffffffffffffffffffffff16815260200190815260200160002060006101000a81548160ff02191690831515021790555050505600a165627a7a72305820df5568f8e577d9abdd6e67546bfd432439f73a6111192c8a720d252ae68c0fd60029",
  "source": "pragma solidity ^0.4.24;\n\nimport \"openzeppelin-solidity/contracts/ownership/RBAC/RBAC.sol\";\nimport \"./ProShopBase.sol\";\n\n\n/**\n * @title AccessControl\n * @notice Role-based access control and related functions, function modifiers, and events\n */\ncontract AccessControl is RBAC, ProShopBase {\n\n    /**\n     * @dev constructor. Sets msg.sender as system admin by default\n     */\n    constructor() public {\n        paused = true; // Start paused. un-paused after full migration\n        addRole(msg.sender, ROLE_SYS_ADMIN);\n        addRole(msg.sender, ROLE_FRANCHISE_OWNER);\n    }\n\n    /**\n     * @dev event emitted when contract is upgraded\n     */\n    event ContractUpgrade(address newContract);\n\n    /**\n     * @dev event emitted when contract is paused\n     */\n    event ContractPaused();\n\n    /**\n     * @dev event emitted when contract is un-npaused\n     */\n    event ContractUnpaused();\n\n    /**\n     * @dev state variable indicating whether the contract is paused\n     */\n    bool public paused = false;\n\n    /**\n     * Set in case the contract is broken and an upgrade is required\n     */\n    address public newContractAddress;\n\n    /**\n     * Role name for administrator of entire system\n     */\n    string public constant ROLE_SYS_ADMIN = \"role/system-admin\";\n\n    /**\n     * Role name for shop owners.\n     */\n    string public constant ROLE_SHOP_OWNER = \"role/shop-owner\";\n\n    /**\n     * Role name for franchise owner.\n     */\n    string public constant ROLE_FRANCHISE_OWNER = \"role/franchise-owner\";\n\n    /**\n     * @dev modifier to scope access to system administrator\n     */\n    modifier onlySysAdmin() {\n        checkRole(msg.sender, ROLE_SYS_ADMIN);\n        _;\n    }\n\n    /**\n     * @dev modifier to scope access to franchise owner\n     */\n    modifier onlyFranchiseOwner() {\n        checkRole(msg.sender, ROLE_FRANCHISE_OWNER);\n        _;\n    }\n\n    /**\n     * @dev modifier to scope access to owner of given shop\n     */\n    modifier onlyShopOwner(uint256 _shopId) {\n        address owner = shopToOwner[_shopId];\n        require(msg.sender == owner);\n        _;\n    }\n\n    /**\n     * @dev Modifier to make a function callable only when the contract is not paused.\n     */\n    modifier whenNotPaused() {\n        require(!paused);\n        _;\n    }\n\n    /**\n     * @dev Modifier to make a function callable only when the contract is paused.\n     */\n    modifier whenPaused() {\n        require(paused);\n        _;\n    }\n\n    /**\n     * @dev Used to mark the smart contract as upgraded, in case there is a serious\n     *      breaking bug. This method only keeps track of the new contract and emits\n     *      a message indicating that the new address is set. It's up to clients of\n     *      contract to update to the new contract address in that case.\n     *      This contract will be paused indefinitely if such an upgrade takes place.\n     *\n     * @param _newAddress address of new contract\n     */\n    function setNewAddress(address _newAddress) external onlySysAdmin whenPaused {\n        newContractAddress = _newAddress;\n        emit ContractUpgrade(_newAddress);\n    }\n\n    /**\n     * @dev called by the system administrator to pause, triggers stopped state\n     */\n    function pause() public onlySysAdmin whenNotPaused {\n        paused = true;\n        emit ContractPaused();\n    }\n\n    /**\n     * @dev called by the ystem administrator to un-pause, returns to normal state\n     */\n    function unpause() public onlySysAdmin whenPaused {\n        paused = false;\n        emit ContractUnpaused();\n    }\n\n}",
  "sourcePath": "/Users/cliff/Documents/in-app-pro-shop/contracts/AccessControl.sol",
  "compiler": {
    "name": "solc",
    "version": "0.4.24+commit.e67f0147.Emscripten.clang"
  },
  "schemaVersion": "2.0.1",
  "updatedAt": "2018-11-03T20:33:22.938Z"
}