{
  "contractName": "FiatContract",
  "abi": [
    {
      "constant": true,
      "inputs": [],
      "name": "creator",
      "outputs": [
        {
          "name": "",
          "type": "address"
        }
      ],
      "payable": false,
      "stateMutability": "view",
      "type": "function"
    },
    {
      "constant": true,
      "inputs": [
        {
          "name": "",
          "type": "uint256"
        }
      ],
      "name": "tokens",
      "outputs": [
        {
          "name": "name",
          "type": "string"
        },
        {
          "name": "eth",
          "type": "uint256"
        },
        {
          "name": "usd",
          "type": "uint256"
        },
        {
          "name": "eur",
          "type": "uint256"
        },
        {
          "name": "gbp",
          "type": "uint256"
        },
        {
          "name": "block",
          "type": "uint256"
        }
      ],
      "payable": false,
      "stateMutability": "view",
      "type": "function"
    },
    {
      "constant": true,
      "inputs": [],
      "name": "sender",
      "outputs": [
        {
          "name": "",
          "type": "address"
        }
      ],
      "payable": false,
      "stateMutability": "view",
      "type": "function"
    },
    {
      "inputs": [],
      "payable": false,
      "stateMutability": "nonpayable",
      "type": "constructor"
    },
    {
      "payable": true,
      "stateMutability": "payable",
      "type": "fallback"
    },
    {
      "anonymous": false,
      "inputs": [
        {
          "indexed": false,
          "name": "id",
          "type": "uint256"
        },
        {
          "indexed": false,
          "name": "token",
          "type": "string"
        }
      ],
      "name": "NewPrice",
      "type": "event"
    },
    {
      "anonymous": false,
      "inputs": [
        {
          "indexed": false,
          "name": "id",
          "type": "uint256"
        }
      ],
      "name": "DeletePrice",
      "type": "event"
    },
    {
      "anonymous": false,
      "inputs": [
        {
          "indexed": false,
          "name": "id",
          "type": "uint256"
        }
      ],
      "name": "UpdatedPrice",
      "type": "event"
    },
    {
      "anonymous": false,
      "inputs": [
        {
          "indexed": false,
          "name": "id",
          "type": "uint256"
        }
      ],
      "name": "RequestUpdate",
      "type": "event"
    },
    {
      "anonymous": false,
      "inputs": [
        {
          "indexed": false,
          "name": "from",
          "type": "address"
        }
      ],
      "name": "Donation",
      "type": "event"
    },
    {
      "constant": true,
      "inputs": [
        {
          "name": "_id",
          "type": "uint256"
        }
      ],
      "name": "ETH",
      "outputs": [
        {
          "name": "",
          "type": "uint256"
        }
      ],
      "payable": false,
      "stateMutability": "view",
      "type": "function"
    },
    {
      "constant": true,
      "inputs": [
        {
          "name": "_id",
          "type": "uint256"
        }
      ],
      "name": "USD",
      "outputs": [
        {
          "name": "",
          "type": "uint256"
        }
      ],
      "payable": false,
      "stateMutability": "view",
      "type": "function"
    },
    {
      "constant": true,
      "inputs": [
        {
          "name": "_id",
          "type": "uint256"
        }
      ],
      "name": "EUR",
      "outputs": [
        {
          "name": "",
          "type": "uint256"
        }
      ],
      "payable": false,
      "stateMutability": "view",
      "type": "function"
    },
    {
      "constant": true,
      "inputs": [
        {
          "name": "_id",
          "type": "uint256"
        }
      ],
      "name": "GBP",
      "outputs": [
        {
          "name": "",
          "type": "uint256"
        }
      ],
      "payable": false,
      "stateMutability": "view",
      "type": "function"
    },
    {
      "constant": true,
      "inputs": [
        {
          "name": "_id",
          "type": "uint256"
        }
      ],
      "name": "updatedAt",
      "outputs": [
        {
          "name": "",
          "type": "uint256"
        }
      ],
      "payable": false,
      "stateMutability": "view",
      "type": "function"
    },
    {
      "constant": false,
      "inputs": [
        {
          "name": "id",
          "type": "uint256"
        },
        {
          "name": "_token",
          "type": "string"
        },
        {
          "name": "eth",
          "type": "uint256"
        },
        {
          "name": "usd",
          "type": "uint256"
        },
        {
          "name": "eur",
          "type": "uint256"
        },
        {
          "name": "gbp",
          "type": "uint256"
        }
      ],
      "name": "update",
      "outputs": [],
      "payable": false,
      "stateMutability": "nonpayable",
      "type": "function"
    },
    {
      "constant": false,
      "inputs": [
        {
          "name": "id",
          "type": "uint256"
        }
      ],
      "name": "deleteToken",
      "outputs": [],
      "payable": false,
      "stateMutability": "nonpayable",
      "type": "function"
    },
    {
      "constant": false,
      "inputs": [
        {
          "name": "_creator",
          "type": "address"
        }
      ],
      "name": "changeCreator",
      "outputs": [],
      "payable": false,
      "stateMutability": "nonpayable",
      "type": "function"
    },
    {
      "constant": false,
      "inputs": [
        {
          "name": "_sender",
          "type": "address"
        }
      ],
      "name": "changeSender",
      "outputs": [],
      "payable": false,
      "stateMutability": "nonpayable",
      "type": "function"
    },
    {
      "constant": false,
      "inputs": [
        {
          "name": "_to",
          "type": "address"
        },
        {
          "name": "_value",
          "type": "uint256"
        },
        {
          "name": "_data",
          "type": "bytes"
        }
      ],
      "name": "execute",
      "outputs": [
        {
          "name": "_r",
          "type": "bytes32"
        }
      ],
      "payable": false,
      "stateMutability": "nonpayable",
      "type": "function"
    },
    {
      "constant": false,
      "inputs": [
        {
          "name": "id",
          "type": "uint256"
        }
      ],
      "name": "requestUpdate",
      "outputs": [],
      "payable": true,
      "stateMutability": "payable",
      "type": "function"
    },
    {
      "constant": false,
      "inputs": [],
      "name": "donate",
      "outputs": [],
      "payable": true,
      "stateMutability": "payable",
      "type": "function"
    }
  ],
  "bytecode": "0x608060405234801561001057600080fd5b5033600260006101000a81548173ffffffffffffffffffffffffffffffffffffffff021916908373ffffffffffffffffffffffffffffffffffffffff16021790555033600160006101000a81548173ffffffffffffffffffffffffffffffffffffffff021916908373ffffffffffffffffffffffffffffffffffffffff160217905550610e41806100a26000396000f3006080604052600436106100db576000357c0100000000000000000000000000000000000000000000000000000000900463ffffffff16806302d05d3f146100dd5780630c560c64146101345780631833fa4c146101755780634f64b2be146101e25780635a8ef28a146102ab5780636297c16c146102ec57806367e404ce1461031957806367f01c041461037057806374580e2f146103b1578063b280a7e7146103f4578063b61d27f614610437578063c14c1ce3146104b8578063c818faec146104d8578063d67ae54d14610519578063ed88c68e1461055a575b005b3480156100e957600080fd5b506100f2610564565b604051808273ffffffffffffffffffffffffffffffffffffffff1673ffffffffffffffffffffffffffffffffffffffff16815260200191505060405180910390f35b34801561014057600080fd5b5061015f6004803603810190808035906020019092919050505061058a565b6040518082815260200191505060405180910390f35b34801561018157600080fd5b506101e060048036038101908080359060200190929190803590602001908201803590602001919091929391929390803590602001909291908035906020019092919080359060200190929190803590602001909291905050506105a9565b005b3480156101ee57600080fd5b5061020d6004803603810190808035906020019092919050505061072b565b6040518080602001878152602001868152602001858152602001848152602001838152602001828103825288818151815260200191508051906020019080838360005b8381101561026b578082015181840152602081019050610250565b50505050905090810190601f1680156102985780820380516001836020036101000a031916815260200191505b5097505050505050505060405180910390f35b3480156102b757600080fd5b506102d6600480360381019080803590602001909291905050506107ff565b6040518082815260200191505060405180910390f35b3480156102f857600080fd5b506103176004803603810190808035906020019092919050505061081e565b005b34801561032557600080fd5b5061032e610901565b604051808273ffffffffffffffffffffffffffffffffffffffff1673ffffffffffffffffffffffffffffffffffffffff16815260200191505060405180910390f35b34801561037c57600080fd5b5061039b60048036038101908080359060200190929190505050610927565b6040518082815260200191505060405180910390f35b3480156103bd57600080fd5b506103f2600480360381019080803573ffffffffffffffffffffffffffffffffffffffff169060200190929190505050610946565b005b34801561040057600080fd5b50610435600480360381019080803573ffffffffffffffffffffffffffffffffffffffff1690602001909291905050506109e6565b005b34801561044357600080fd5b5061049a600480360381019080803573ffffffffffffffffffffffffffffffffffffffff16906020019092919080359060200190929190803590602001908201803590602001919091929391929390505050610a86565b60405180826000191660001916815260200191505060405180910390f35b6104d660048036038101908080359060200190929190505050610b3c565b005b3480156104e457600080fd5b5061050360048036038101908080359060200190929190505050610c0c565b6040518082815260200191505060405180910390f35b34801561052557600080fd5b5061054460048036038101908080359060200190929190505050610c2b565b6040518082815260200191505060405180910390f35b610562610c4a565b005b600260009054906101000a900473ffffffffffffffffffffffffffffffffffffffff1681565b6000806000838152602001908152602001600020600201549050919050565b600160009054906101000a900473ffffffffffffffffffffffffffffffffffffffff1673ffffffffffffffffffffffffffffffffffffffff163373ffffffffffffffffffffffffffffffffffffffff1614151561060557600080fd5b60c06040519081016040528087878080601f0160208091040260200160405190810160405280939291908181526020018383808284378201915050505050508152602001858152602001848152602001838152602001828152602001438152506000808981526020019081526020016000206000820151816000019080519060200190610693929190610d28565b506020820151816001015560408201518160020155606082015181600301556080820151816004015560a082015181600501559050507fd766911918e4a4ff28516cc02a5ae3c2096061ee7408787974101985cf9e062887878760405180848152602001806020018281038252848482818152602001925080828437820191505094505050505060405180910390a150505050505050565b6000602052806000526040600020600091509050806000018054600181600116156101000203166002900480601f0160208091040260200160405190810160405280929190818152602001828054600181600116156101000203166002900480156107d75780601f106107ac576101008083540402835291602001916107d7565b820191906000526020600020905b8154815290600101906020018083116107ba57829003601f168201915b5050505050908060010154908060020154908060030154908060040154908060050154905086565b6000806000838152602001908152602001600020600401549050919050565b600260009054906101000a900473ffffffffffffffffffffffffffffffffffffffff1673ffffffffffffffffffffffffffffffffffffffff163373ffffffffffffffffffffffffffffffffffffffff1614151561087a57600080fd5b7f8c8f94f5f1a74ad515cd6e033cb9e9cfae911da33cb003cf67cc57b444fd3dd3816040518082815260200191505060405180910390a1600080828152602001908152602001600020600080820160006108d49190610da8565b60018201600090556002820160009055600382016000905560048201600090556005820160009055505050565b600160009054906101000a900473ffffffffffffffffffffffffffffffffffffffff1681565b6000806000838152602001908152602001600020600101549050919050565b600260009054906101000a900473ffffffffffffffffffffffffffffffffffffffff1673ffffffffffffffffffffffffffffffffffffffff163373ffffffffffffffffffffffffffffffffffffffff161415156109a257600080fd5b80600260006101000a81548173ffffffffffffffffffffffffffffffffffffffff021916908373ffffffffffffffffffffffffffffffffffffffff16021790555050565b600260009054906101000a900473ffffffffffffffffffffffffffffffffffffffff1673ffffffffffffffffffffffffffffffffffffffff163373ffffffffffffffffffffffffffffffffffffffff16141515610a4257600080fd5b80600160006101000a81548173ffffffffffffffffffffffffffffffffffffffff021916908373ffffffffffffffffffffffffffffffffffffffff16021790555050565b6000600260009054906101000a900473ffffffffffffffffffffffffffffffffffffffff1673ffffffffffffffffffffffffffffffffffffffff163373ffffffffffffffffffffffffffffffffffffffff16141515610ae457600080fd5b8473ffffffffffffffffffffffffffffffffffffffff168484846040518083838082843782019150509250505060006040518083038185875af1925050501515610b2d57600080fd5b60006001029050949350505050565b6000602360008080815260200190815260200160002060020154029050803410151515610b6857600080fd5b600160009054906101000a900473ffffffffffffffffffffffffffffffffffffffff1673ffffffffffffffffffffffffffffffffffffffff166108fc349081150290604051600060405180830381858888f19350505050158015610bd0573d6000803e3d6000fd5b507fbb23a8e369bdbb341ed2a26729ed4c9e616f51e510b78ef899f5c1791b50de9c826040518082815260200191505060405180910390a15050565b6000806000838152602001908152602001600020600501549050919050565b6000806000838152602001908152602001600020600301549050919050565b60003410151515610c5a57600080fd5b600160009054906101000a900473ffffffffffffffffffffffffffffffffffffffff1673ffffffffffffffffffffffffffffffffffffffff166108fc349081150290604051600060405180830381858888f19350505050158015610cc2573d6000803e3d6000fd5b507f187f451f92c6a4236353b5331d5fb67bdbfcc66b54367037fba41d6bcef08ce733604051808273ffffffffffffffffffffffffffffffffffffffff1673ffffffffffffffffffffffffffffffffffffffff16815260200191505060405180910390a1565b828054600181600116156101000203166002900490600052602060002090601f016020900481019282601f10610d6957805160ff1916838001178555610d97565b82800160010185558215610d97579182015b82811115610d96578251825591602001919060010190610d7b565b5b509050610da49190610df0565b5090565b50805460018160011615610100020316600290046000825580601f10610dce5750610ded565b601f016020900490600052602060002090810190610dec9190610df0565b5b50565b610e1291905b80821115610e0e576000816000905550600101610df6565b5090565b905600a165627a7a72305820b875cde579bb35608bec3837a5917f8144ac79d663b72402fc86c4179ed454b00029",
  "source": "pragma solidity ^0.4.24;\n\n/*\n\n    Crypto Market Prices via Ethereum Smart Contract\n\n    A community driven smart contract that lets your contracts use fiat\n    amounts in USD, EURO, and GBP. Need to charge $10.50 for a contract call?\n    With this contract, you can convert ETH and other crypto's.\n\n    Repo: https://github.com/hunterlong/coinmarketcontract\n\n    Examples:\n\n      FiatContract price = FiatContract(CONTRACT_ADDRESS);\n\n      uint256 ethCent = price.USD(0);        // returns $0.01 worth of ETH in USD.\n      uint256 weiAmount = ethCent * 2500     // returns $25.00 worth of ETH in USD\n      require(msg.value == weiAmount);       // require $25.00 worth of ETH as a payment\n      \n    Please look at Repo or Website to get Currency ID values.\n\n    @author Hunter Long\n*/\n\ncontract FiatContract {\n\n    mapping(uint => Token) public tokens;\n\n    address public sender;\n    address public creator;\n\n    event NewPrice(uint id, string token);\n    event DeletePrice(uint id);\n    event UpdatedPrice(uint id);\n    event RequestUpdate(uint id);\n    event Donation(address from);\n\n    struct Token {\n        string name;\n        uint256 eth;\n        uint256 usd;\n        uint256 eur;\n        uint256 gbp;\n        uint block;\n    }\n\n    // initialize function\n    function FiatContract() {\n        creator = msg.sender;\n        sender = msg.sender;\n    }\n\n    // returns the Token struct\n    function getToken(uint _id) internal constant returns (Token) {\n        return tokens[_id];\n    }\n\n    // returns rate price of coin related to ETH.\n    function ETH(uint _id) constant returns (uint256) {\n        return tokens[_id].eth;\n    }\n\n    // returns 0.01 value in United States Dollar\n    function USD(uint _id) constant returns (uint256) {\n        return tokens[_id].usd;\n    }\n\n    // returns 0.01 value in Euro\n    function EUR(uint _id) constant returns (uint256) {\n        return tokens[_id].eur;\n    }\n\n    // returns 0.01 value in British Pound\n    function GBP(uint _id) constant returns (uint256) {\n        return tokens[_id].gbp;\n    }\n\n    // returns block when price was updated last\n    function updatedAt(uint _id) constant returns (uint) {\n        return tokens[_id].block;\n    }\n\n    // update market rates in USD, EURO, and GBP for a specific coin\n    function update(uint id, string _token, uint256 eth, uint256 usd, uint256 eur, uint256 gbp) external {\n        require(msg.sender==sender);\n        tokens[id] = Token(_token, eth, usd, eur, gbp, block.number);\n        NewPrice(id, _token);\n    }\n\n    // delete a token from the contract\n    function deleteToken(uint id) {\n        require(msg.sender==creator);\n        DeletePrice(id);\n        delete tokens[id];\n    }\n\n    // change creator address\n    function changeCreator(address _creator){\n        require(msg.sender==creator);\n        creator = _creator;\n    }\n\n    // change sender address\n    function changeSender(address _sender){\n        require(msg.sender==creator);\n        sender = _sender;\n    }\n\n    // execute function for creator if ERC20's get stuck in this wallet\n    function execute(address _to, uint _value, bytes _data) external returns (bytes32 _r) {\n        require(msg.sender==creator);\n        require(_to.call.value(_value)(_data));\n        return 0;\n    }\n\n    // default function so this contract can accept ETH with low gas limits.\n    function() payable {\n\n    }\n\n    // public function for requesting an updated price from server\n    // using this function requires a payment of $0.35 USD\n    function requestUpdate(uint id) external payable {\n        uint256 weiAmount = tokens[0].usd * 35;\n        require(msg.value >= weiAmount);\n        sender.transfer(msg.value);\n        RequestUpdate(id);\n    }\n\n    // donation function that get forwarded to the contract updater\n    function donate() external payable {\n        require(msg.value >= 0);\n        sender.transfer(msg.value);\n        Donation(msg.sender);\n    }\n\n}\n",
  "sourcePath": "/Users/cliff/Documents/in-app-pro-shop/contracts/FiatContract.sol",
  "compiler": {
    "name": "solc",
    "version": "0.4.24+commit.e67f0147.Emscripten.clang"
  },
  "schemaVersion": "2.0.1",
  "updatedAt": "2019-01-17T22:10:18.051Z"
}