{
  "contractName": "ItemFactory",
  "abi": [
    {
      "constant": true,
      "inputs": [
        {
          "name": "_interfaceId",
          "type": "bytes4"
        }
      ],
      "name": "supportsInterface",
      "outputs": [
        {
          "name": "",
          "type": "bool"
        }
      ],
      "payable": false,
      "stateMutability": "view",
      "type": "function"
    },
    {
      "constant": true,
      "inputs": [],
      "name": "name",
      "outputs": [
        {
          "name": "",
          "type": "string"
        }
      ],
      "payable": false,
      "stateMutability": "view",
      "type": "function"
    },
    {
      "constant": true,
      "inputs": [
        {
          "name": "_tokenId",
          "type": "uint256"
        }
      ],
      "name": "getApproved",
      "outputs": [
        {
          "name": "",
          "type": "address"
        }
      ],
      "payable": false,
      "stateMutability": "view",
      "type": "function"
    },
    {
      "constant": false,
      "inputs": [
        {
          "name": "_to",
          "type": "address"
        },
        {
          "name": "_tokenId",
          "type": "uint256"
        }
      ],
      "name": "approve",
      "outputs": [],
      "payable": false,
      "stateMutability": "nonpayable",
      "type": "function"
    },
    {
      "constant": true,
      "inputs": [
        {
          "name": "_operator",
          "type": "address"
        },
        {
          "name": "_role",
          "type": "string"
        }
      ],
      "name": "checkRole",
      "outputs": [],
      "payable": false,
      "stateMutability": "view",
      "type": "function"
    },
    {
      "constant": true,
      "inputs": [],
      "name": "totalSupply",
      "outputs": [
        {
          "name": "",
          "type": "uint256"
        }
      ],
      "payable": false,
      "stateMutability": "view",
      "type": "function"
    },
    {
      "constant": true,
      "inputs": [],
      "name": "TOKEN_NAME",
      "outputs": [
        {
          "name": "",
          "type": "string"
        }
      ],
      "payable": false,
      "stateMutability": "view",
      "type": "function"
    },
    {
      "constant": true,
      "inputs": [],
      "name": "InterfaceId_ERC165",
      "outputs": [
        {
          "name": "",
          "type": "bytes4"
        }
      ],
      "payable": false,
      "stateMutability": "view",
      "type": "function"
    },
    {
      "constant": true,
      "inputs": [
        {
          "name": "_operator",
          "type": "address"
        },
        {
          "name": "_role",
          "type": "string"
        }
      ],
      "name": "hasRole",
      "outputs": [
        {
          "name": "",
          "type": "bool"
        }
      ],
      "payable": false,
      "stateMutability": "view",
      "type": "function"
    },
    {
      "constant": false,
      "inputs": [
        {
          "name": "_from",
          "type": "address"
        },
        {
          "name": "_to",
          "type": "address"
        },
        {
          "name": "_tokenId",
          "type": "uint256"
        }
      ],
      "name": "transferFrom",
      "outputs": [],
      "payable": false,
      "stateMutability": "nonpayable",
      "type": "function"
    },
    {
      "constant": true,
      "inputs": [
        {
          "name": "",
          "type": "uint256"
        },
        {
          "name": "",
          "type": "uint256"
        }
      ],
      "name": "skuItems",
      "outputs": [
        {
          "name": "",
          "type": "uint256"
        }
      ],
      "payable": false,
      "stateMutability": "view",
      "type": "function"
    },
    {
      "constant": true,
      "inputs": [],
      "name": "TOKEN_SYMBOL",
      "outputs": [
        {
          "name": "",
          "type": "string"
        }
      ],
      "payable": false,
      "stateMutability": "view",
      "type": "function"
    },
    {
      "constant": true,
      "inputs": [
        {
          "name": "_owner",
          "type": "address"
        },
        {
          "name": "_index",
          "type": "uint256"
        }
      ],
      "name": "tokenOfOwnerByIndex",
      "outputs": [
        {
          "name": "",
          "type": "uint256"
        }
      ],
      "payable": false,
      "stateMutability": "view",
      "type": "function"
    },
    {
      "constant": false,
      "inputs": [],
      "name": "unpause",
      "outputs": [],
      "payable": false,
      "stateMutability": "nonpayable",
      "type": "function"
    },
    {
      "constant": false,
      "inputs": [
        {
          "name": "_from",
          "type": "address"
        },
        {
          "name": "_to",
          "type": "address"
        },
        {
          "name": "_tokenId",
          "type": "uint256"
        }
      ],
      "name": "safeTransferFrom",
      "outputs": [],
      "payable": false,
      "stateMutability": "nonpayable",
      "type": "function"
    },
    {
      "constant": true,
      "inputs": [
        {
          "name": "",
          "type": "address"
        },
        {
          "name": "",
          "type": "uint256"
        }
      ],
      "name": "ownedItems",
      "outputs": [
        {
          "name": "",
          "type": "uint256"
        }
      ],
      "payable": false,
      "stateMutability": "view",
      "type": "function"
    },
    {
      "constant": true,
      "inputs": [],
      "name": "franchiseBalance",
      "outputs": [
        {
          "name": "",
          "type": "uint256"
        }
      ],
      "payable": false,
      "stateMutability": "view",
      "type": "function"
    },
    {
      "constant": true,
      "inputs": [],
      "name": "franchiseFeePercent",
      "outputs": [
        {
          "name": "",
          "type": "uint256"
        }
      ],
      "payable": false,
      "stateMutability": "view",
      "type": "function"
    },
    {
      "constant": true,
      "inputs": [
        {
          "name": "_tokenId",
          "type": "uint256"
        }
      ],
      "name": "exists",
      "outputs": [
        {
          "name": "",
          "type": "bool"
        }
      ],
      "payable": false,
      "stateMutability": "view",
      "type": "function"
    },
    {
      "constant": true,
      "inputs": [
        {
          "name": "_index",
          "type": "uint256"
        }
      ],
      "name": "tokenByIndex",
      "outputs": [
        {
          "name": "",
          "type": "uint256"
        }
      ],
      "payable": false,
      "stateMutability": "view",
      "type": "function"
    },
    {
      "constant": true,
      "inputs": [],
      "name": "ROLE_SYS_ADMIN",
      "outputs": [
        {
          "name": "",
          "type": "string"
        }
      ],
      "payable": false,
      "stateMutability": "view",
      "type": "function"
    },
    {
      "constant": true,
      "inputs": [],
      "name": "paused",
      "outputs": [
        {
          "name": "",
          "type": "bool"
        }
      ],
      "payable": false,
      "stateMutability": "view",
      "type": "function"
    },
    {
      "constant": true,
      "inputs": [
        {
          "name": "_tokenId",
          "type": "uint256"
        }
      ],
      "name": "ownerOf",
      "outputs": [
        {
          "name": "",
          "type": "address"
        }
      ],
      "payable": false,
      "stateMutability": "view",
      "type": "function"
    },
    {
      "constant": true,
      "inputs": [],
      "name": "newContractAddress",
      "outputs": [
        {
          "name": "",
          "type": "address"
        }
      ],
      "payable": false,
      "stateMutability": "view",
      "type": "function"
    },
    {
      "constant": true,
      "inputs": [
        {
          "name": "_owner",
          "type": "address"
        }
      ],
      "name": "balanceOf",
      "outputs": [
        {
          "name": "",
          "type": "uint256"
        }
      ],
      "payable": false,
      "stateMutability": "view",
      "type": "function"
    },
    {
      "constant": false,
      "inputs": [
        {
          "name": "_newAddress",
          "type": "address"
        }
      ],
      "name": "setNewAddress",
      "outputs": [],
      "payable": false,
      "stateMutability": "nonpayable",
      "type": "function"
    },
    {
      "constant": true,
      "inputs": [
        {
          "name": "",
          "type": "uint256"
        },
        {
          "name": "",
          "type": "uint256"
        }
      ],
      "name": "shopItems",
      "outputs": [
        {
          "name": "",
          "type": "uint256"
        }
      ],
      "payable": false,
      "stateMutability": "view",
      "type": "function"
    },
    {
      "constant": true,
      "inputs": [],
      "name": "ROLE_SHOP_OWNER",
      "outputs": [
        {
          "name": "",
          "type": "string"
        }
      ],
      "payable": false,
      "stateMutability": "view",
      "type": "function"
    },
    {
      "constant": false,
      "inputs": [],
      "name": "pause",
      "outputs": [],
      "payable": false,
      "stateMutability": "nonpayable",
      "type": "function"
    },
    {
      "constant": true,
      "inputs": [],
      "name": "symbol",
      "outputs": [
        {
          "name": "",
          "type": "string"
        }
      ],
      "payable": false,
      "stateMutability": "view",
      "type": "function"
    },
    {
      "constant": false,
      "inputs": [
        {
          "name": "_to",
          "type": "address"
        },
        {
          "name": "_approved",
          "type": "bool"
        }
      ],
      "name": "setApprovalForAll",
      "outputs": [],
      "payable": false,
      "stateMutability": "nonpayable",
      "type": "function"
    },
    {
      "constant": false,
      "inputs": [
        {
          "name": "_from",
          "type": "address"
        },
        {
          "name": "_to",
          "type": "address"
        },
        {
          "name": "_tokenId",
          "type": "uint256"
        },
        {
          "name": "_data",
          "type": "bytes"
        }
      ],
      "name": "safeTransferFrom",
      "outputs": [],
      "payable": false,
      "stateMutability": "nonpayable",
      "type": "function"
    },
    {
      "constant": true,
      "inputs": [
        {
          "name": "",
          "type": "uint256"
        }
      ],
      "name": "items",
      "outputs": [
        {
          "name": "owner",
          "type": "address"
        },
        {
          "name": "shopId",
          "type": "uint256"
        },
        {
          "name": "itemId",
          "type": "uint256"
        },
        {
          "name": "skuId",
          "type": "uint256"
        },
        {
          "name": "consumed",
          "type": "bool"
        }
      ],
      "payable": false,
      "stateMutability": "view",
      "type": "function"
    },
    {
      "constant": true,
      "inputs": [
        {
          "name": "_tokenId",
          "type": "uint256"
        }
      ],
      "name": "tokenURI",
      "outputs": [
        {
          "name": "",
          "type": "string"
        }
      ],
      "payable": false,
      "stateMutability": "view",
      "type": "function"
    },
    {
      "constant": true,
      "inputs": [],
      "name": "ROLE_FRANCHISE_OWNER",
      "outputs": [
        {
          "name": "",
          "type": "string"
        }
      ],
      "payable": false,
      "stateMutability": "view",
      "type": "function"
    },
    {
      "constant": true,
      "inputs": [
        {
          "name": "",
          "type": "uint256"
        }
      ],
      "name": "shopBalances",
      "outputs": [
        {
          "name": "",
          "type": "uint256"
        }
      ],
      "payable": false,
      "stateMutability": "view",
      "type": "function"
    },
    {
      "constant": true,
      "inputs": [
        {
          "name": "_owner",
          "type": "address"
        },
        {
          "name": "_operator",
          "type": "address"
        }
      ],
      "name": "isApprovedForAll",
      "outputs": [
        {
          "name": "",
          "type": "bool"
        }
      ],
      "payable": false,
      "stateMutability": "view",
      "type": "function"
    },
    {
      "anonymous": false,
      "inputs": [
        {
          "indexed": true,
          "name": "shopId",
          "type": "uint256"
        },
        {
          "indexed": true,
          "name": "skuId",
          "type": "uint256"
        },
        {
          "indexed": false,
          "name": "itemId",
          "type": "uint256"
        },
        {
          "indexed": false,
          "name": "amount",
          "type": "uint256"
        },
        {
          "indexed": false,
          "name": "fee",
          "type": "uint256"
        },
        {
          "indexed": false,
          "name": "net",
          "type": "uint256"
        }
      ],
      "name": "NewItem",
      "type": "event"
    },
    {
      "anonymous": false,
      "inputs": [
        {
          "indexed": false,
          "name": "newContract",
          "type": "address"
        }
      ],
      "name": "ContractUpgrade",
      "type": "event"
    },
    {
      "anonymous": false,
      "inputs": [],
      "name": "ContractPaused",
      "type": "event"
    },
    {
      "anonymous": false,
      "inputs": [],
      "name": "ContractUnpaused",
      "type": "event"
    },
    {
      "anonymous": false,
      "inputs": [
        {
          "indexed": true,
          "name": "operator",
          "type": "address"
        },
        {
          "indexed": false,
          "name": "role",
          "type": "string"
        }
      ],
      "name": "RoleAdded",
      "type": "event"
    },
    {
      "anonymous": false,
      "inputs": [
        {
          "indexed": true,
          "name": "operator",
          "type": "address"
        },
        {
          "indexed": false,
          "name": "role",
          "type": "string"
        }
      ],
      "name": "RoleRemoved",
      "type": "event"
    },
    {
      "anonymous": false,
      "inputs": [
        {
          "indexed": true,
          "name": "_from",
          "type": "address"
        },
        {
          "indexed": true,
          "name": "_to",
          "type": "address"
        },
        {
          "indexed": true,
          "name": "_tokenId",
          "type": "uint256"
        }
      ],
      "name": "Transfer",
      "type": "event"
    },
    {
      "anonymous": false,
      "inputs": [
        {
          "indexed": true,
          "name": "_owner",
          "type": "address"
        },
        {
          "indexed": true,
          "name": "_approved",
          "type": "address"
        },
        {
          "indexed": true,
          "name": "_tokenId",
          "type": "uint256"
        }
      ],
      "name": "Approval",
      "type": "event"
    },
    {
      "anonymous": false,
      "inputs": [
        {
          "indexed": true,
          "name": "_owner",
          "type": "address"
        },
        {
          "indexed": true,
          "name": "_operator",
          "type": "address"
        },
        {
          "indexed": false,
          "name": "_approved",
          "type": "bool"
        }
      ],
      "name": "ApprovalForAll",
      "type": "event"
    },
    {
      "constant": false,
      "inputs": [
        {
          "name": "_shopId",
          "type": "uint256"
        },
        {
          "name": "_skuId",
          "type": "uint256"
        }
      ],
      "name": "createItem",
      "outputs": [
        {
          "name": "",
          "type": "uint256"
        }
      ],
      "payable": true,
      "stateMutability": "payable",
      "type": "function"
    }
  ],
  "bytecode": "0x60806040526000600d60006101000a81548160ff0219169083151502179055506040805190810160405280601081526020017f496e41707050726f53686f704974656d000000000000000000000000000000008152506040805190810160405280600481526020017f4941505300000000000000000000000000000000000000000000000000000000815250620000c86301ffc9a77c010000000000000000000000000000000000000000000000000000000002620002b1640100000000026401000000009004565b620001056380ac58cd7c010000000000000000000000000000000000000000000000000000000002620002b1640100000000026401000000009004565b62000142634f558e797c010000000000000000000000000000000000000000000000000000000002620002b1640100000000026401000000009004565b81600590805190602001906200015a92919062000516565b5080600690805190602001906200017392919062000516565b50620001b163780e9d637c010000000000000000000000000000000000000000000000000000000002620002b1640100000000026401000000009004565b620001ee635b5e139f7c010000000000000000000000000000000000000000000000000000000002620002b1640100000000026401000000009004565b50506001600d60006101000a81548160ff0219169083151502179055506200025b336040805190810160405280601181526020017f726f6c652f73797374656d2d61646d696e0000000000000000000000000000008152506200036f640100000000026401000000009004565b620002ab336040805190810160405280601481526020017f726f6c652f6672616e63686973652d6f776e65720000000000000000000000008152506200036f640100000000026401000000009004565b620005c5565b63ffffffff7c010000000000000000000000000000000000000000000000000000000002817bffffffffffffffffffffffffffffffffffffffffffffffffffffffff1916141515156200030357600080fd5b6001600080837bffffffffffffffffffffffffffffffffffffffffffffffffffffffff19167bffffffffffffffffffffffffffffffffffffffffffffffffffffffff1916815260200190815260200160002060006101000a81548160ff02191690831515021790555050565b620003fe82600c836040518082805190602001908083835b602083101515620003ae578051825260208201915060208101905060208303925062000387565b6001836020036101000a0380198251168184511680821785525050505050509050019150509081526020016040518091039020620004b86401000000000262003072179091906401000000009004565b8173ffffffffffffffffffffffffffffffffffffffff167fbfec83d64eaa953f2708271a023ab9ee82057f8f3578d548c1a4ba0b5b700489826040518080602001828103825283818151815260200191508051906020019080838360005b83811015620004795780820151818401526020810190506200045c565b50505050905090810190601f168015620004a75780820380516001836020036101000a031916815260200191505b509250505060405180910390a25050565b60018260000160008373ffffffffffffffffffffffffffffffffffffffff1673ffffffffffffffffffffffffffffffffffffffff16815260200190815260200160002060006101000a81548160ff0219169083151502179055505050565b828054600181600116156101000203166002900490600052602060002090601f016020900481019282601f106200055957805160ff19168380011785556200058a565b828001600101855582156200058a579182015b82811115620005895782518255916020019190600101906200056c565b5b5090506200059991906200059d565b5090565b620005c291905b80821115620005be576000816000905550600101620005a4565b5090565b90565b6130fc80620005d56000396000f3006080604052600436106101d8576000357c0100000000000000000000000000000000000000000000000000000000900463ffffffff16806301ffc9a7146101dd57806306fdde0314610241578063081812fc146102d1578063095ea7b31461033e5780630988ca8c1461038b57806318160ddd14610414578063188214001461043f57806319fa8f50146104cf578063217fe6c61461053857806323b872dd146105d957806327bcfd61146106465780632a905318146106915780632f745c59146107215780633f4ba83a1461078257806342842e0e146107995780634284653414610806578063477e2b3c146108675780634b2aecdc146108925780634f558e79146108bd5780634f6ccce71461090257806356de8ccd146109435780635c975abb146109d35780636352211e14610a025780636af04a5714610a6f57806370a0823114610ac65780637158798814610b1d5780637ceab6b014610b605780637e1ae97614610bab5780638456cb5914610c3b57806395d89b4114610c52578063a22cb46514610ce2578063adae08dd14610d31578063b88d4fde14610d6f578063bfb231d214610e22578063c87b56dd14610eaf578063cb1b200114610f55578063e659ebef14610fe5578063e985e9c514611026575b600080fd5b3480156101e957600080fd5b5061022760048036038101908080357bffffffffffffffffffffffffffffffffffffffffffffffffffffffff191690602001909291905050506110a1565b604051808215151515815260200191505060405180910390f35b34801561024d57600080fd5b50610256611108565b6040518080602001828103825283818151815260200191508051906020019080838360005b8381101561029657808201518184015260208101905061027b565b50505050905090810190601f1680156102c35780820380516001836020036101000a031916815260200191505b509250505060405180910390f35b3480156102dd57600080fd5b506102fc600480360381019080803590602001909291905050506111aa565b604051808273ffffffffffffffffffffffffffffffffffffffff1673ffffffffffffffffffffffffffffffffffffffff16815260200191505060405180910390f35b34801561034a57600080fd5b50610389600480360381019080803573ffffffffffffffffffffffffffffffffffffffff169060200190929190803590602001909291905050506111e7565b005b34801561039757600080fd5b50610412600480360381019080803573ffffffffffffffffffffffffffffffffffffffff169060200190929190803590602001908201803590602001908080601f016020809104026020016040519081016040528093929190818152602001838380828437820191505050505050919291929050505061132c565b005b34801561042057600080fd5b506104296113ad565b6040518082815260200191505060405180910390f35b34801561044b57600080fd5b506104546113ba565b6040518080602001828103825283818151815260200191508051906020019080838360005b83811015610494578082015181840152602081019050610479565b50505050905090810190601f1680156104c15780820380516001836020036101000a031916815260200191505b509250505060405180910390f35b3480156104db57600080fd5b506104e46113f3565b60405180827bffffffffffffffffffffffffffffffffffffffffffffffffffffffff19167bffffffffffffffffffffffffffffffffffffffffffffffffffffffff1916815260200191505060405180910390f35b34801561054457600080fd5b506105bf600480360381019080803573ffffffffffffffffffffffffffffffffffffffff169060200190929190803590602001908201803590602001908080601f016020809104026020016040519081016040528093929190818152602001838380828437820191505050505050919291929050505061141a565b604051808215151515815260200191505060405180910390f35b3480156105e557600080fd5b50610644600480360381019080803573ffffffffffffffffffffffffffffffffffffffff169060200190929190803573ffffffffffffffffffffffffffffffffffffffff169060200190929190803590602001909291905050506114a1565b005b34801561065257600080fd5b5061067b60048036038101908080359060200190929190803590602001909291905050506115ae565b6040518082815260200191505060405180910390f35b34801561069d57600080fd5b506106a66115de565b6040518080602001828103825283818151815260200191508051906020019080838360005b838110156106e65780820151818401526020810190506106cb565b50505050905090810190601f1680156107135780820380516001836020036101000a031916815260200191505b509250505060405180910390f35b34801561072d57600080fd5b5061076c600480360381019080803573ffffffffffffffffffffffffffffffffffffffff16906020019092919080359060200190929190505050611617565b6040518082815260200191505060405180910390f35b34801561078e57600080fd5b5061079761168e565b005b3480156107a557600080fd5b50610804600480360381019080803573ffffffffffffffffffffffffffffffffffffffff169060200190929190803573ffffffffffffffffffffffffffffffffffffffff16906020019092919080359060200190929190505050611731565b005b34801561081257600080fd5b50610851600480360381019080803573ffffffffffffffffffffffffffffffffffffffff16906020019092919080359060200190929190505050611769565b6040518082815260200191505060405180910390f35b34801561087357600080fd5b5061087c611799565b6040518082815260200191505060405180910390f35b34801561089e57600080fd5b506108a761179f565b6040518082815260200191505060405180910390f35b3480156108c957600080fd5b506108e8600480360381019080803590602001909291905050506117a5565b604051808215151515815260200191505060405180910390f35b34801561090e57600080fd5b5061092d60048036038101908080359060200190929190505050611817565b6040518082815260200191505060405180910390f35b34801561094f57600080fd5b5061095861184f565b6040518080602001828103825283818151815260200191508051906020019080838360005b8381101561099857808201518184015260208101905061097d565b50505050905090810190601f1680156109c55780820380516001836020036101000a031916815260200191505b509250505060405180910390f35b3480156109df57600080fd5b506109e8611888565b604051808215151515815260200191505060405180910390f35b348015610a0e57600080fd5b50610a2d6004803603810190808035906020019092919050505061189b565b604051808273ffffffffffffffffffffffffffffffffffffffff1673ffffffffffffffffffffffffffffffffffffffff16815260200191505060405180910390f35b348015610a7b57600080fd5b50610a84611919565b604051808273ffffffffffffffffffffffffffffffffffffffff1673ffffffffffffffffffffffffffffffffffffffff16815260200191505060405180910390f35b348015610ad257600080fd5b50610b07600480360381019080803573ffffffffffffffffffffffffffffffffffffffff16906020019092919050505061193f565b6040518082815260200191505060405180910390f35b348015610b2957600080fd5b50610b5e600480360381019080803573ffffffffffffffffffffffffffffffffffffffff1690602001909291905050506119c3565b005b348015610b6c57600080fd5b50610b956004803603810190808035906020019092919080359060200190929190505050611ac4565b6040518082815260200191505060405180910390f35b348015610bb757600080fd5b50610bc0611af4565b6040518080602001828103825283818151815260200191508051906020019080838360005b83811015610c00578082015181840152602081019050610be5565b50505050905090810190601f168015610c2d5780820380516001836020036101000a031916815260200191505b509250505060405180910390f35b348015610c4757600080fd5b50610c50611b2d565b005b348015610c5e57600080fd5b50610c67611bd1565b6040518080602001828103825283818151815260200191508051906020019080838360005b83811015610ca7578082015181840152602081019050610c8c565b50505050905090810190601f168015610cd45780820380516001836020036101000a031916815260200191505b509250505060405180910390f35b348015610cee57600080fd5b50610d2f600480360381019080803573ffffffffffffffffffffffffffffffffffffffff169060200190929190803515159060200190929190505050611c73565b005b610d596004803603810190808035906020019092919080359060200190929190505050611daf565b6040518082815260200191505060405180910390f35b348015610d7b57600080fd5b50610e20600480360381019080803573ffffffffffffffffffffffffffffffffffffffff169060200190929190803573ffffffffffffffffffffffffffffffffffffffff16906020019092919080359060200190929190803590602001908201803590602001908080601f016020809104026020016040519081016040528093929190818152602001838380828437820191505050505050919291929050505061228b565b005b348015610e2e57600080fd5b50610e4d600480360381019080803590602001909291905050506122ca565b604051808673ffffffffffffffffffffffffffffffffffffffff1673ffffffffffffffffffffffffffffffffffffffff168152602001858152602001848152602001838152602001821515151581526020019550505050505060405180910390f35b348015610ebb57600080fd5b50610eda6004803603810190808035906020019092919050505061233c565b6040518080602001828103825283818151815260200191508051906020019080838360005b83811015610f1a578082015181840152602081019050610eff565b50505050905090810190601f168015610f475780820380516001836020036101000a031916815260200191505b509250505060405180910390f35b348015610f6157600080fd5b50610f6a612405565b6040518080602001828103825283818151815260200191508051906020019080838360005b83811015610faa578082015181840152602081019050610f8f565b50505050905090810190601f168015610fd75780820380516001836020036101000a031916815260200191505b509250505060405180910390f35b348015610ff157600080fd5b506110106004803603810190808035906020019092919050505061243e565b6040518082815260200191505060405180910390f35b34801561103257600080fd5b50611087600480360381019080803573ffffffffffffffffffffffffffffffffffffffff169060200190929190803573ffffffffffffffffffffffffffffffffffffffff169060200190929190505050612456565b604051808215151515815260200191505060405180910390f35b6000806000837bffffffffffffffffffffffffffffffffffffffffffffffffffffffff19167bffffffffffffffffffffffffffffffffffffffffffffffffffffffff1916815260200190815260200160002060009054906101000a900460ff169050919050565b606060058054600181600116156101000203166002900480601f0160208091040260200160405190810160405280929190818152602001828054600181600116156101000203166002900480156111a05780601f10611175576101008083540402835291602001916111a0565b820191906000526020600020905b81548152906001019060200180831161118357829003601f168201915b5050505050905090565b60006002600083815260200190815260200160002060009054906101000a900473ffffffffffffffffffffffffffffffffffffffff169050919050565b60006111f28261189b565b90508073ffffffffffffffffffffffffffffffffffffffff168373ffffffffffffffffffffffffffffffffffffffff161415151561122f57600080fd5b8073ffffffffffffffffffffffffffffffffffffffff163373ffffffffffffffffffffffffffffffffffffffff16148061126f575061126e8133612456565b5b151561127a57600080fd5b826002600084815260200190815260200160002060006101000a81548173ffffffffffffffffffffffffffffffffffffffff021916908373ffffffffffffffffffffffffffffffffffffffff160217905550818373ffffffffffffffffffffffffffffffffffffffff168273ffffffffffffffffffffffffffffffffffffffff167f8c5be1e5ebec7d5bd14f71427d1e84f3dd0314c0f7b2291e5b200ac8c7c3b92560405160405180910390a4505050565b6113a982600c836040518082805190602001908083835b6020831015156113685780518252602082019150602081019050602083039250611343565b6001836020036101000a03801982511681845116808217855250505050505090500191505090815260200160405180910390206124ea90919063ffffffff16565b5050565b6000600980549050905090565b6040805190810160405280601081526020017f496e41707050726f53686f704974656d0000000000000000000000000000000081525081565b6301ffc9a77c01000000000000000000000000000000000000000000000000000000000281565b600061149983600c846040518082805190602001908083835b6020831015156114585780518252602082019150602081019050602083039250611433565b6001836020036101000a038019825116818451168082178552505050505050905001915050908152602001604051809103902061250390919063ffffffff16565b905092915050565b806114ac338261255c565b15156114b757600080fd5b600073ffffffffffffffffffffffffffffffffffffffff168473ffffffffffffffffffffffffffffffffffffffff16141515156114f357600080fd5b600073ffffffffffffffffffffffffffffffffffffffff168373ffffffffffffffffffffffffffffffffffffffff161415151561152f57600080fd5b61153984836125f1565b61154384836126f4565b61154d838361290c565b818373ffffffffffffffffffffffffffffffffffffffff168573ffffffffffffffffffffffffffffffffffffffff167fddf252ad1be2c89b69c2b068fc378daa952ba7f163c4a11628f55a4df523b3ef60405160405180910390a450505050565b6010602052816000526040600020818154811015156115c957fe5b90600052602060002001600091509150505481565b6040805190810160405280600481526020017f494150530000000000000000000000000000000000000000000000000000000081525081565b60006116228361193f565b8210151561162f57600080fd5b600760008473ffffffffffffffffffffffffffffffffffffffff1673ffffffffffffffffffffffffffffffffffffffff1681526020019081526020016000208281548110151561167b57fe5b9060005260206000200154905092915050565b6116cd336040805190810160405280601181526020017f726f6c652f73797374656d2d61646d696e00000000000000000000000000000081525061132c565b600d60009054906101000a900460ff1615156116e857600080fd5b6000600d60006101000a81548160ff0219169083151502179055507f0e5e3b3fb504c22cf5c42fa07d521225937514c654007e1f12646f89768d6f9460405160405180910390a1565b8061173c338261255c565b151561174757600080fd5b611763848484602060405190810160405280600081525061228b565b50505050565b60126020528160005260406000208181548110151561178457fe5b90600052602060002001600091509150505481565b60145481565b60155481565b6000806001600084815260200190815260200160002060009054906101000a900473ffffffffffffffffffffffffffffffffffffffff169050600073ffffffffffffffffffffffffffffffffffffffff168173ffffffffffffffffffffffffffffffffffffffff161415915050919050565b60006118216113ad565b8210151561182e57600080fd5b60098281548110151561183d57fe5b90600052602060002001549050919050565b6040805190810160405280601181526020017f726f6c652f73797374656d2d61646d696e00000000000000000000000000000081525081565b600d60009054906101000a900460ff1681565b6000806001600084815260200190815260200160002060009054906101000a900473ffffffffffffffffffffffffffffffffffffffff169050600073ffffffffffffffffffffffffffffffffffffffff168173ffffffffffffffffffffffffffffffffffffffff161415151561191057600080fd5b80915050919050565b600d60019054906101000a900473ffffffffffffffffffffffffffffffffffffffff1681565b60008073ffffffffffffffffffffffffffffffffffffffff168273ffffffffffffffffffffffffffffffffffffffff161415151561197c57600080fd5b600360008373ffffffffffffffffffffffffffffffffffffffff1673ffffffffffffffffffffffffffffffffffffffff168152602001908152602001600020549050919050565b611a02336040805190810160405280601181526020017f726f6c652f73797374656d2d61646d696e00000000000000000000000000000081525061132c565b600d60009054906101000a900460ff161515611a1d57600080fd5b80600d60016101000a81548173ffffffffffffffffffffffffffffffffffffffff021916908373ffffffffffffffffffffffffffffffffffffffff1602179055507f450db8da6efbe9c22f2347f7c2021231df1fc58d3ae9a2fa75d39fa44619930581604051808273ffffffffffffffffffffffffffffffffffffffff1673ffffffffffffffffffffffffffffffffffffffff16815260200191505060405180910390a150565b601160205281600052604060002081815481101515611adf57fe5b90600052602060002001600091509150505481565b6040805190810160405280600f81526020017f726f6c652f73686f702d6f776e6572000000000000000000000000000000000081525081565b611b6c336040805190810160405280601181526020017f726f6c652f73797374656d2d61646d696e00000000000000000000000000000081525061132c565b600d60009054906101000a900460ff16151515611b8857600080fd5b6001600d60006101000a81548160ff0219169083151502179055507fab35696f06e428ebc5ceba8cd17f8fed287baf43440206d1943af1ee53e6d26760405160405180910390a1565b606060068054600181600116156101000203166002900480601f016020809104026020016040519081016040528092919081815260200182805460018160011615610100020316600290048015611c695780601f10611c3e57610100808354040283529160200191611c69565b820191906000526020600020905b815481529060010190602001808311611c4c57829003601f168201915b5050505050905090565b3373ffffffffffffffffffffffffffffffffffffffff168273ffffffffffffffffffffffffffffffffffffffff1614151515611cae57600080fd5b80600460003373ffffffffffffffffffffffffffffffffffffffff1673ffffffffffffffffffffffffffffffffffffffff16815260200190815260200160002060008473ffffffffffffffffffffffffffffffffffffffff1673ffffffffffffffffffffffffffffffffffffffff16815260200190815260200160002060006101000a81548160ff0219169083151502179055508173ffffffffffffffffffffffffffffffffffffffff163373ffffffffffffffffffffffffffffffffffffffff167f17307eab39ab6107e8899845ad3d59bd9653f200f220920489ca2b5937696c3183604051808215151515815260200191505060405180910390a35050565b6000806000806000600d60009054906101000a900460ff16151515611dd357600080fd5b60011515600e60009054906101000a900473ffffffffffffffffffffffffffffffffffffffff1673ffffffffffffffffffffffffffffffffffffffff1663f29d498a88601060008b8152602001908152602001600020805490506040518363ffffffff167c01000000000000000000000000000000000000000000000000000000000281526004018083815260200182815260200192505050602060405180830381600087803b158015611e8657600080fd5b505af1158015611e9a573d6000803e3d6000fd5b505050506040513d6020811015611eb057600080fd5b81019080805190602001909291905050501515141515611ecf57600080fd5b600e60009054906101000a900473ffffffffffffffffffffffffffffffffffffffff1673ffffffffffffffffffffffffffffffffffffffff1663ae539d80876040518263ffffffff167c010000000000000000000000000000000000000000000000000000000002815260040180828152602001915050602060405180830381600087803b158015611f6057600080fd5b505af1158015611f74573d6000803e3d6000fd5b505050506040513d6020811015611f8a57600080fd5b810190808051906020019092919050505034141515611fa857600080fd5b611fd0601554611fc26064346129e390919063ffffffff16565b6129f990919063ffffffff16565b9350611fe784601454612a3190919063ffffffff16565b6014819055506120008434612a4d90919063ffffffff16565b925061202883601360008a815260200190815260200160002054612a3190919063ffffffff16565b6013600089815260200190815260200160002081905550600f805490509150339050600f60a0604051908101604052808373ffffffffffffffffffffffffffffffffffffffff168152602001898152602001848152602001888152602001600015158152509080600181540180825580915050906001820390600052602060002090600502016000909192909190915060008201518160000160006101000a81548173ffffffffffffffffffffffffffffffffffffffff021916908373ffffffffffffffffffffffffffffffffffffffff16021790555060208201518160010155604082015181600201556060820151816003015560808201518160040160006101000a81548160ff021916908315150217905550505050601260008273ffffffffffffffffffffffffffffffffffffffff1673ffffffffffffffffffffffffffffffffffffffff168152602001908152602001600020829080600181540180825580915050906001820390600052602060002001600090919290919091505550601160008881526020019081526020016000208290806001815401808255809150509060018203906000526020600020016000909192909190915055506010600087815260200190815260200160002082908060018154018082558091505090600182039060005260206000200160009091929091909150555061222d8183612a66565b85877f3210ade2d42380eb21f74419d934cd7b57aea57c0ce9a7b8afe59336780a07da843488886040518085815260200184815260200183815260200182815260200194505050505060405180910390a38194505050505092915050565b81612296338261255c565b15156122a157600080fd5b6122ac8585856114a1565b6122b885858585612abd565b15156122c357600080fd5b5050505050565b600f818154811015156122d957fe5b90600052602060002090600502016000915090508060000160009054906101000a900473ffffffffffffffffffffffffffffffffffffffff16908060010154908060020154908060030154908060040160009054906101000a900460ff16905085565b6060612347826117a5565b151561235257600080fd5b600b60008381526020019081526020016000208054600181600116156101000203166002900480601f0160208091040260200160405190810160405280929190818152602001828054600181600116156101000203166002900480156123f95780601f106123ce576101008083540402835291602001916123f9565b820191906000526020600020905b8154815290600101906020018083116123dc57829003601f168201915b50505050509050919050565b6040805190810160405280601481526020017f726f6c652f6672616e63686973652d6f776e657200000000000000000000000081525081565b60136020528060005260406000206000915090505481565b6000600460008473ffffffffffffffffffffffffffffffffffffffff1673ffffffffffffffffffffffffffffffffffffffff16815260200190815260200160002060008373ffffffffffffffffffffffffffffffffffffffff1673ffffffffffffffffffffffffffffffffffffffff16815260200190815260200160002060009054906101000a900460ff16905092915050565b6124f48282612503565b15156124ff57600080fd5b5050565b60008260000160008373ffffffffffffffffffffffffffffffffffffffff1673ffffffffffffffffffffffffffffffffffffffff16815260200190815260200160002060009054906101000a900460ff16905092915050565b6000806125688361189b565b90508073ffffffffffffffffffffffffffffffffffffffff168473ffffffffffffffffffffffffffffffffffffffff1614806125d757508373ffffffffffffffffffffffffffffffffffffffff166125bf846111aa565b73ffffffffffffffffffffffffffffffffffffffff16145b806125e857506125e78185612456565b5b91505092915050565b8173ffffffffffffffffffffffffffffffffffffffff166126118261189b565b73ffffffffffffffffffffffffffffffffffffffff1614151561263357600080fd5b600073ffffffffffffffffffffffffffffffffffffffff166002600083815260200190815260200160002060009054906101000a900473ffffffffffffffffffffffffffffffffffffffff1673ffffffffffffffffffffffffffffffffffffffff161415156126f05760006002600083815260200190815260200160002060006101000a81548173ffffffffffffffffffffffffffffffffffffffff021916908373ffffffffffffffffffffffffffffffffffffffff1602179055505b5050565b60008060006127038585612cdf565b6008600085815260200190815260200160002054925061276f6001600760008873ffffffffffffffffffffffffffffffffffffffff1673ffffffffffffffffffffffffffffffffffffffff16815260200190815260200160002080549050612a4d90919063ffffffff16565b9150600760008673ffffffffffffffffffffffffffffffffffffffff1673ffffffffffffffffffffffffffffffffffffffff168152602001908152602001600020828154811015156127bd57fe5b9060005260206000200154905080600760008773ffffffffffffffffffffffffffffffffffffffff1673ffffffffffffffffffffffffffffffffffffffff1681526020019081526020016000208481548110151561281757fe5b90600052602060002001819055506000600760008773ffffffffffffffffffffffffffffffffffffffff1673ffffffffffffffffffffffffffffffffffffffff1681526020019081526020016000208381548110151561287357fe5b9060005260206000200181905550600760008673ffffffffffffffffffffffffffffffffffffffff1673ffffffffffffffffffffffffffffffffffffffff1681526020019081526020016000208054809190600190036128d39190613021565b50600060086000868152602001908152602001600020819055508260086000838152602001908152602001600020819055505050505050565b60006129188383612e0e565b600760008473ffffffffffffffffffffffffffffffffffffffff1673ffffffffffffffffffffffffffffffffffffffff168152602001908152602001600020805490509050600760008473ffffffffffffffffffffffffffffffffffffffff1673ffffffffffffffffffffffffffffffffffffffff168152602001908152602001600020829080600181540180825580915050906001820390600052602060002001600090919290919091505550806008600084815260200190815260200160002081905550505050565b600081838115156129f057fe5b04905092915050565b600080831415612a0c5760009050612a2b565b8183029050818382811515612a1d57fe5b04141515612a2757fe5b8090505b92915050565b60008183019050828110151515612a4457fe5b80905092915050565b6000828211151515612a5b57fe5b818303905092915050565b612a708282612f68565b600980549050600a60008381526020019081526020016000208190555060098190806001815401808255809150509060018203906000526020600020016000909192909190915055505050565b600080612adf8573ffffffffffffffffffffffffffffffffffffffff1661300e565b1515612aee5760019150612cd6565b8473ffffffffffffffffffffffffffffffffffffffff1663150b7a02338887876040518563ffffffff167c0100000000000000000000000000000000000000000000000000000000028152600401808573ffffffffffffffffffffffffffffffffffffffff1673ffffffffffffffffffffffffffffffffffffffff1681526020018473ffffffffffffffffffffffffffffffffffffffff1673ffffffffffffffffffffffffffffffffffffffff16815260200183815260200180602001828103825283818151815260200191508051906020019080838360005b83811015612be3578082015181840152602081019050612bc8565b50505050905090810190601f168015612c105780820380516001836020036101000a031916815260200191505b5095505050505050602060405180830381600087803b158015612c3257600080fd5b505af1158015612c46573d6000803e3d6000fd5b505050506040513d6020811015612c5c57600080fd5b8101908080519060200190929190505050905063150b7a027c0100000000000000000000000000000000000000000000000000000000027bffffffffffffffffffffffffffffffffffffffffffffffffffffffff1916817bffffffffffffffffffffffffffffffffffffffffffffffffffffffff19161491505b50949350505050565b8173ffffffffffffffffffffffffffffffffffffffff16612cff8261189b565b73ffffffffffffffffffffffffffffffffffffffff16141515612d2157600080fd5b612d746001600360008573ffffffffffffffffffffffffffffffffffffffff1673ffffffffffffffffffffffffffffffffffffffff16815260200190815260200160002054612a4d90919063ffffffff16565b600360008473ffffffffffffffffffffffffffffffffffffffff1673ffffffffffffffffffffffffffffffffffffffff1681526020019081526020016000208190555060006001600083815260200190815260200160002060006101000a81548173ffffffffffffffffffffffffffffffffffffffff021916908373ffffffffffffffffffffffffffffffffffffffff1602179055505050565b600073ffffffffffffffffffffffffffffffffffffffff166001600083815260200190815260200160002060009054906101000a900473ffffffffffffffffffffffffffffffffffffffff1673ffffffffffffffffffffffffffffffffffffffff16141515612e7c57600080fd5b816001600083815260200190815260200160002060006101000a81548173ffffffffffffffffffffffffffffffffffffffff021916908373ffffffffffffffffffffffffffffffffffffffff160217905550612f216001600360008573ffffffffffffffffffffffffffffffffffffffff1673ffffffffffffffffffffffffffffffffffffffff16815260200190815260200160002054612a3190919063ffffffff16565b600360008473ffffffffffffffffffffffffffffffffffffffff1673ffffffffffffffffffffffffffffffffffffffff168152602001908152602001600020819055505050565b600073ffffffffffffffffffffffffffffffffffffffff168273ffffffffffffffffffffffffffffffffffffffff1614151515612fa457600080fd5b612fae828261290c565b808273ffffffffffffffffffffffffffffffffffffffff16600073ffffffffffffffffffffffffffffffffffffffff167fddf252ad1be2c89b69c2b068fc378daa952ba7f163c4a11628f55a4df523b3ef60405160405180910390a45050565b600080823b905060008111915050919050565b81548183558181111561304857818360005260206000209182019101613047919061304d565b5b505050565b61306f91905b8082111561306b576000816000905550600101613053565b5090565b90565b60018260000160008373ffffffffffffffffffffffffffffffffffffffff1673ffffffffffffffffffffffffffffffffffffffff16815260200190815260200160002060006101000a81548160ff02191690831515021790555050505600a165627a7a72305820b57af60aff209cce8b0659269d58e9ee18e2a3035e798ffc092f555a19e6ac9b0029",
  "source": "pragma solidity ^0.4.24;\n\nimport \"./ProShopBase.sol\";\n\n\n/**\n * @title ItemFactory\n * @notice Defines factory and events related to saleable Items (ERC721 tokens)\n */\ncontract ItemFactory is ProShopBase {\n\n    /**\n     * @notice emitted upon the creation of an Item\n     */\n    event NewItem(\n        uint256 indexed shopId,\n        uint256 indexed skuId,\n        uint256 itemId,\n        uint256 amount,\n        uint256 fee,\n        uint256 net\n    );\n\n    /**\n     * @notice Create an Item\n     */\n    function createItem(\n        uint256 _shopId,\n        uint256 _skuId\n    )\n        public\n        payable\n        whenNotPaused\n        returns (uint256)\n    {\n        // Make sure the item can be minted\n        require(stockRoom.canMintItem(_skuId, skuItems[_skuId].length) == true);\n\n        // Make sure enough Ether has been sent\n        require(msg.value == stockRoom.getPriceInEther(_skuId));\n\n        // Calculate and store the franchise fee\n        uint256 franchiseFee = uint256(msg.value.div(100).mul(franchiseFeePercent));\n        franchiseBalance = franchiseBalance.add(franchiseFee);\n\n        // Calculate and store the Shop's net sale amount\n        uint256 shopNetSale = msg.value.sub(franchiseFee);\n        shopBalances[_shopId] = shopBalances[_shopId].add(shopNetSale);\n\n        // Get the item id\n        uint256 itemId = items.length;\n\n        // Get the owner address\n        address owner = msg.sender;\n\n        // Create and store Item\n        items.push(Item(owner, _shopId, itemId, _skuId, false));\n\n        // Add Item ID to Owner's Items list\n        ownedItems[owner].push(itemId);\n\n        // Add the item to the Shop's list of Items minted\n        shopItems[_shopId].push(itemId);\n\n        // Add the item to the SKU's list of Items minted\n        skuItems[_skuId].push(itemId);\n\n        // Mint the token\n        super._mint(owner, itemId);\n\n        // Emit event with the name of the new Item\n        emit NewItem(_shopId, _skuId, itemId, msg.value, franchiseFee, shopNetSale);\n\n        // Return the new Item ID\n        return itemId;\n    }\n\n}",
  "sourcePath": "/Users/cliff/Documents/in-app-pro-shop/contracts/ItemFactory.sol",
  "compiler": {
    "name": "solc",
    "version": "0.4.24+commit.e67f0147.Emscripten.clang"
  },
  "schemaVersion": "2.0.1",
  "updatedAt": "2019-03-13T17:36:22.988Z"
}