{
  "contractName": "ItemFactory",
  "abi": [
    {
      "constant": true,
      "inputs": [
        {
          "name": "",
          "type": "uint256"
        },
        {
          "name": "",
          "type": "uint256"
        }
      ],
      "name": "shopSKUTypes",
      "outputs": [
        {
          "name": "",
          "type": "uint256"
        }
      ],
      "payable": false,
      "stateMutability": "view",
      "type": "function"
    },
    {
      "constant": true,
      "inputs": [
        {
          "name": "_interfaceId",
          "type": "bytes4"
        }
      ],
      "name": "supportsInterface",
      "outputs": [
        {
          "name": "",
          "type": "bool"
        }
      ],
      "payable": false,
      "stateMutability": "view",
      "type": "function"
    },
    {
      "constant": true,
      "inputs": [],
      "name": "name",
      "outputs": [
        {
          "name": "",
          "type": "string"
        }
      ],
      "payable": false,
      "stateMutability": "view",
      "type": "function"
    },
    {
      "constant": true,
      "inputs": [
        {
          "name": "_tokenId",
          "type": "uint256"
        }
      ],
      "name": "getApproved",
      "outputs": [
        {
          "name": "",
          "type": "address"
        }
      ],
      "payable": false,
      "stateMutability": "view",
      "type": "function"
    },
    {
      "constant": false,
      "inputs": [
        {
          "name": "_to",
          "type": "address"
        },
        {
          "name": "_tokenId",
          "type": "uint256"
        }
      ],
      "name": "approve",
      "outputs": [],
      "payable": false,
      "stateMutability": "nonpayable",
      "type": "function"
    },
    {
      "constant": true,
      "inputs": [
        {
          "name": "_operator",
          "type": "address"
        },
        {
          "name": "_role",
          "type": "string"
        }
      ],
      "name": "checkRole",
      "outputs": [],
      "payable": false,
      "stateMutability": "view",
      "type": "function"
    },
    {
      "constant": true,
      "inputs": [],
      "name": "totalSupply",
      "outputs": [
        {
          "name": "",
          "type": "uint256"
        }
      ],
      "payable": false,
      "stateMutability": "view",
      "type": "function"
    },
    {
      "constant": true,
      "inputs": [],
      "name": "TOKEN_NAME",
      "outputs": [
        {
          "name": "",
          "type": "string"
        }
      ],
      "payable": false,
      "stateMutability": "view",
      "type": "function"
    },
    {
      "constant": true,
      "inputs": [
        {
          "name": "_owner",
          "type": "address"
        }
      ],
      "name": "getShopIds",
      "outputs": [
        {
          "name": "",
          "type": "uint256[]"
        }
      ],
      "payable": false,
      "stateMutability": "view",
      "type": "function"
    },
    {
      "constant": true,
      "inputs": [],
      "name": "InterfaceId_ERC165",
      "outputs": [
        {
          "name": "",
          "type": "bytes4"
        }
      ],
      "payable": false,
      "stateMutability": "view",
      "type": "function"
    },
    {
      "constant": true,
      "inputs": [
        {
          "name": "_operator",
          "type": "address"
        },
        {
          "name": "_role",
          "type": "string"
        }
      ],
      "name": "hasRole",
      "outputs": [
        {
          "name": "",
          "type": "bool"
        }
      ],
      "payable": false,
      "stateMutability": "view",
      "type": "function"
    },
    {
      "constant": false,
      "inputs": [
        {
          "name": "_from",
          "type": "address"
        },
        {
          "name": "_to",
          "type": "address"
        },
        {
          "name": "_tokenId",
          "type": "uint256"
        }
      ],
      "name": "transferFrom",
      "outputs": [],
      "payable": false,
      "stateMutability": "nonpayable",
      "type": "function"
    },
    {
      "constant": true,
      "inputs": [
        {
          "name": "",
          "type": "uint256"
        },
        {
          "name": "",
          "type": "uint256"
        }
      ],
      "name": "skuItems",
      "outputs": [
        {
          "name": "",
          "type": "uint256"
        }
      ],
      "payable": false,
      "stateMutability": "view",
      "type": "function"
    },
    {
      "constant": true,
      "inputs": [],
      "name": "TOKEN_SYMBOL",
      "outputs": [
        {
          "name": "",
          "type": "string"
        }
      ],
      "payable": false,
      "stateMutability": "view",
      "type": "function"
    },
    {
      "constant": true,
      "inputs": [
        {
          "name": "",
          "type": "uint256"
        }
      ],
      "name": "shopToOwner",
      "outputs": [
        {
          "name": "",
          "type": "address"
        }
      ],
      "payable": false,
      "stateMutability": "view",
      "type": "function"
    },
    {
      "constant": true,
      "inputs": [
        {
          "name": "_owner",
          "type": "address"
        },
        {
          "name": "_index",
          "type": "uint256"
        }
      ],
      "name": "tokenOfOwnerByIndex",
      "outputs": [
        {
          "name": "",
          "type": "uint256"
        }
      ],
      "payable": false,
      "stateMutability": "view",
      "type": "function"
    },
    {
      "constant": true,
      "inputs": [
        {
          "name": "",
          "type": "uint256"
        }
      ],
      "name": "skus",
      "outputs": [
        {
          "name": "shopId",
          "type": "uint256"
        },
        {
          "name": "skuId",
          "type": "uint256"
        },
        {
          "name": "skuTypeId",
          "type": "uint256"
        },
        {
          "name": "price",
          "type": "uint256"
        },
        {
          "name": "name",
          "type": "string"
        },
        {
          "name": "description",
          "type": "string"
        },
        {
          "name": "consumable",
          "type": "bool"
        },
        {
          "name": "limited",
          "type": "bool"
        },
        {
          "name": "limit",
          "type": "uint256"
        }
      ],
      "payable": false,
      "stateMutability": "view",
      "type": "function"
    },
    {
      "constant": true,
      "inputs": [
        {
          "name": "",
          "type": "uint256"
        }
      ],
      "name": "skuTypeToShop",
      "outputs": [
        {
          "name": "",
          "type": "uint256"
        }
      ],
      "payable": false,
      "stateMutability": "view",
      "type": "function"
    },
    {
      "constant": false,
      "inputs": [],
      "name": "unpause",
      "outputs": [],
      "payable": false,
      "stateMutability": "nonpayable",
      "type": "function"
    },
    {
      "constant": false,
      "inputs": [
        {
          "name": "_from",
          "type": "address"
        },
        {
          "name": "_to",
          "type": "address"
        },
        {
          "name": "_tokenId",
          "type": "uint256"
        }
      ],
      "name": "safeTransferFrom",
      "outputs": [],
      "payable": false,
      "stateMutability": "nonpayable",
      "type": "function"
    },
    {
      "constant": true,
      "inputs": [
        {
          "name": "_shopId",
          "type": "uint256"
        }
      ],
      "name": "getShop",
      "outputs": [
        {
          "name": "",
          "type": "address"
        },
        {
          "name": "",
          "type": "uint256"
        },
        {
          "name": "",
          "type": "string"
        },
        {
          "name": "",
          "type": "string"
        }
      ],
      "payable": false,
      "stateMutability": "view",
      "type": "function"
    },
    {
      "constant": true,
      "inputs": [],
      "name": "franchiseBalance",
      "outputs": [
        {
          "name": "",
          "type": "uint256"
        }
      ],
      "payable": false,
      "stateMutability": "view",
      "type": "function"
    },
    {
      "constant": false,
      "inputs": [
        {
          "name": "_shopId",
          "type": "uint256"
        },
        {
          "name": "_name",
          "type": "string"
        },
        {
          "name": "_desc",
          "type": "string"
        }
      ],
      "name": "createSKUType",
      "outputs": [
        {
          "name": "",
          "type": "uint256"
        }
      ],
      "payable": false,
      "stateMutability": "nonpayable",
      "type": "function"
    },
    {
      "constant": true,
      "inputs": [],
      "name": "franchiseFeePercent",
      "outputs": [
        {
          "name": "",
          "type": "uint256"
        }
      ],
      "payable": false,
      "stateMutability": "view",
      "type": "function"
    },
    {
      "constant": true,
      "inputs": [
        {
          "name": "_tokenId",
          "type": "uint256"
        }
      ],
      "name": "exists",
      "outputs": [
        {
          "name": "",
          "type": "bool"
        }
      ],
      "payable": false,
      "stateMutability": "view",
      "type": "function"
    },
    {
      "constant": true,
      "inputs": [
        {
          "name": "_index",
          "type": "uint256"
        }
      ],
      "name": "tokenByIndex",
      "outputs": [
        {
          "name": "",
          "type": "uint256"
        }
      ],
      "payable": false,
      "stateMutability": "view",
      "type": "function"
    },
    {
      "constant": true,
      "inputs": [
        {
          "name": "",
          "type": "address"
        },
        {
          "name": "",
          "type": "uint256"
        }
      ],
      "name": "ownedShops",
      "outputs": [
        {
          "name": "",
          "type": "uint256"
        }
      ],
      "payable": false,
      "stateMutability": "view",
      "type": "function"
    },
    {
      "constant": true,
      "inputs": [
        {
          "name": "",
          "type": "uint256"
        }
      ],
      "name": "skuTypes",
      "outputs": [
        {
          "name": "shopId",
          "type": "uint256"
        },
        {
          "name": "skuTypeId",
          "type": "uint256"
        },
        {
          "name": "name",
          "type": "string"
        },
        {
          "name": "description",
          "type": "string"
        }
      ],
      "payable": false,
      "stateMutability": "view",
      "type": "function"
    },
    {
      "constant": true,
      "inputs": [],
      "name": "ROLE_SYS_ADMIN",
      "outputs": [
        {
          "name": "",
          "type": "string"
        }
      ],
      "payable": false,
      "stateMutability": "view",
      "type": "function"
    },
    {
      "constant": true,
      "inputs": [],
      "name": "paused",
      "outputs": [
        {
          "name": "",
          "type": "bool"
        }
      ],
      "payable": false,
      "stateMutability": "view",
      "type": "function"
    },
    {
      "constant": true,
      "inputs": [
        {
          "name": "",
          "type": "uint256"
        },
        {
          "name": "",
          "type": "uint256"
        }
      ],
      "name": "skuTypeSKUs",
      "outputs": [
        {
          "name": "",
          "type": "uint256"
        }
      ],
      "payable": false,
      "stateMutability": "view",
      "type": "function"
    },
    {
      "constant": true,
      "inputs": [
        {
          "name": "_tokenId",
          "type": "uint256"
        }
      ],
      "name": "ownerOf",
      "outputs": [
        {
          "name": "",
          "type": "address"
        }
      ],
      "payable": false,
      "stateMutability": "view",
      "type": "function"
    },
    {
      "constant": true,
      "inputs": [],
      "name": "newContractAddress",
      "outputs": [
        {
          "name": "",
          "type": "address"
        }
      ],
      "payable": false,
      "stateMutability": "view",
      "type": "function"
    },
    {
      "constant": true,
      "inputs": [
        {
          "name": "_owner",
          "type": "address"
        }
      ],
      "name": "balanceOf",
      "outputs": [
        {
          "name": "",
          "type": "uint256"
        }
      ],
      "payable": false,
      "stateMutability": "view",
      "type": "function"
    },
    {
      "constant": true,
      "inputs": [
        {
          "name": "",
          "type": "uint256"
        }
      ],
      "name": "shops",
      "outputs": [
        {
          "name": "owner",
          "type": "address"
        },
        {
          "name": "shopId",
          "type": "uint256"
        },
        {
          "name": "name",
          "type": "string"
        },
        {
          "name": "description",
          "type": "string"
        }
      ],
      "payable": false,
      "stateMutability": "view",
      "type": "function"
    },
    {
      "constant": false,
      "inputs": [
        {
          "name": "_newAddress",
          "type": "address"
        }
      ],
      "name": "setNewAddress",
      "outputs": [],
      "payable": false,
      "stateMutability": "nonpayable",
      "type": "function"
    },
    {
      "constant": true,
      "inputs": [
        {
          "name": "",
          "type": "uint256"
        },
        {
          "name": "",
          "type": "uint256"
        }
      ],
      "name": "shopItems",
      "outputs": [
        {
          "name": "",
          "type": "uint256"
        }
      ],
      "payable": false,
      "stateMutability": "view",
      "type": "function"
    },
    {
      "constant": true,
      "inputs": [],
      "name": "ROLE_SHOP_OWNER",
      "outputs": [
        {
          "name": "",
          "type": "string"
        }
      ],
      "payable": false,
      "stateMutability": "view",
      "type": "function"
    },
    {
      "constant": false,
      "inputs": [],
      "name": "pause",
      "outputs": [],
      "payable": false,
      "stateMutability": "nonpayable",
      "type": "function"
    },
    {
      "constant": true,
      "inputs": [
        {
          "name": "",
          "type": "uint256"
        },
        {
          "name": "",
          "type": "uint256"
        }
      ],
      "name": "shopSKUs",
      "outputs": [
        {
          "name": "",
          "type": "uint256"
        }
      ],
      "payable": false,
      "stateMutability": "view",
      "type": "function"
    },
    {
      "constant": true,
      "inputs": [
        {
          "name": "",
          "type": "uint256"
        }
      ],
      "name": "skuToShop",
      "outputs": [
        {
          "name": "",
          "type": "uint256"
        }
      ],
      "payable": false,
      "stateMutability": "view",
      "type": "function"
    },
    {
      "constant": true,
      "inputs": [],
      "name": "symbol",
      "outputs": [
        {
          "name": "",
          "type": "string"
        }
      ],
      "payable": false,
      "stateMutability": "view",
      "type": "function"
    },
    {
      "constant": false,
      "inputs": [
        {
          "name": "_shopId",
          "type": "uint256"
        },
        {
          "name": "_skuTypeId",
          "type": "uint256"
        },
        {
          "name": "_price",
          "type": "uint256"
        },
        {
          "name": "_name",
          "type": "string"
        },
        {
          "name": "_desc",
          "type": "string"
        },
        {
          "name": "_consumable",
          "type": "bool"
        },
        {
          "name": "_limited",
          "type": "bool"
        },
        {
          "name": "_limit",
          "type": "uint256"
        }
      ],
      "name": "createSKU",
      "outputs": [
        {
          "name": "",
          "type": "uint256"
        }
      ],
      "payable": false,
      "stateMutability": "nonpayable",
      "type": "function"
    },
    {
      "constant": false,
      "inputs": [
        {
          "name": "_to",
          "type": "address"
        },
        {
          "name": "_approved",
          "type": "bool"
        }
      ],
      "name": "setApprovalForAll",
      "outputs": [],
      "payable": false,
      "stateMutability": "nonpayable",
      "type": "function"
    },
    {
      "constant": true,
      "inputs": [
        {
          "name": "",
          "type": "uint256"
        }
      ],
      "name": "itemToShop",
      "outputs": [
        {
          "name": "",
          "type": "uint256"
        }
      ],
      "payable": false,
      "stateMutability": "view",
      "type": "function"
    },
    {
      "constant": false,
      "inputs": [
        {
          "name": "_name",
          "type": "string"
        },
        {
          "name": "_desc",
          "type": "string"
        }
      ],
      "name": "createShop",
      "outputs": [
        {
          "name": "",
          "type": "uint256"
        }
      ],
      "payable": false,
      "stateMutability": "nonpayable",
      "type": "function"
    },
    {
      "constant": false,
      "inputs": [
        {
          "name": "_from",
          "type": "address"
        },
        {
          "name": "_to",
          "type": "address"
        },
        {
          "name": "_tokenId",
          "type": "uint256"
        },
        {
          "name": "_data",
          "type": "bytes"
        }
      ],
      "name": "safeTransferFrom",
      "outputs": [],
      "payable": false,
      "stateMutability": "nonpayable",
      "type": "function"
    },
    {
      "constant": true,
      "inputs": [
        {
          "name": "",
          "type": "uint256"
        }
      ],
      "name": "items",
      "outputs": [
        {
          "name": "owner",
          "type": "address"
        },
        {
          "name": "shopId",
          "type": "uint256"
        },
        {
          "name": "itemId",
          "type": "uint256"
        },
        {
          "name": "skuTypeId",
          "type": "uint256"
        },
        {
          "name": "skuId",
          "type": "uint256"
        },
        {
          "name": "consumed",
          "type": "bool"
        }
      ],
      "payable": false,
      "stateMutability": "view",
      "type": "function"
    },
    {
      "constant": true,
      "inputs": [
        {
          "name": "_tokenId",
          "type": "uint256"
        }
      ],
      "name": "tokenURI",
      "outputs": [
        {
          "name": "",
          "type": "string"
        }
      ],
      "payable": false,
      "stateMutability": "view",
      "type": "function"
    },
    {
      "constant": true,
      "inputs": [],
      "name": "ROLE_FRANCHISE_OWNER",
      "outputs": [
        {
          "name": "",
          "type": "string"
        }
      ],
      "payable": false,
      "stateMutability": "view",
      "type": "function"
    },
    {
      "constant": true,
      "inputs": [
        {
          "name": "_shopId",
          "type": "uint256"
        }
      ],
      "name": "getShopSKUCount",
      "outputs": [
        {
          "name": "",
          "type": "uint256"
        }
      ],
      "payable": false,
      "stateMutability": "view",
      "type": "function"
    },
    {
      "constant": true,
      "inputs": [
        {
          "name": "_owner",
          "type": "address"
        }
      ],
      "name": "getShopCount",
      "outputs": [
        {
          "name": "",
          "type": "uint256"
        }
      ],
      "payable": false,
      "stateMutability": "view",
      "type": "function"
    },
    {
      "constant": true,
      "inputs": [
        {
          "name": "_shopId",
          "type": "uint256"
        }
      ],
      "name": "getShopName",
      "outputs": [
        {
          "name": "",
          "type": "string"
        }
      ],
      "payable": false,
      "stateMutability": "view",
      "type": "function"
    },
    {
      "constant": true,
      "inputs": [
        {
          "name": "_skuId",
          "type": "uint256"
        }
      ],
      "name": "getSKUName",
      "outputs": [
        {
          "name": "",
          "type": "string"
        }
      ],
      "payable": false,
      "stateMutability": "view",
      "type": "function"
    },
    {
      "constant": true,
      "inputs": [
        {
          "name": "",
          "type": "uint256"
        }
      ],
      "name": "shopBalances",
      "outputs": [
        {
          "name": "",
          "type": "uint256"
        }
      ],
      "payable": false,
      "stateMutability": "view",
      "type": "function"
    },
    {
      "constant": true,
      "inputs": [
        {
          "name": "_owner",
          "type": "address"
        },
        {
          "name": "_operator",
          "type": "address"
        }
      ],
      "name": "isApprovedForAll",
      "outputs": [
        {
          "name": "",
          "type": "bool"
        }
      ],
      "payable": false,
      "stateMutability": "view",
      "type": "function"
    },
    {
      "constant": true,
      "inputs": [
        {
          "name": "_skuTypeId",
          "type": "uint256"
        }
      ],
      "name": "getSKUTypeSKUCount",
      "outputs": [
        {
          "name": "",
          "type": "uint256"
        }
      ],
      "payable": false,
      "stateMutability": "view",
      "type": "function"
    },
    {
      "constant": true,
      "inputs": [
        {
          "name": "_skuTypeId",
          "type": "uint256"
        }
      ],
      "name": "getSKUTypeName",
      "outputs": [
        {
          "name": "",
          "type": "string"
        }
      ],
      "payable": false,
      "stateMutability": "view",
      "type": "function"
    },
    {
      "constant": true,
      "inputs": [
        {
          "name": "_shopId",
          "type": "uint256"
        }
      ],
      "name": "getShopSKUTypeCount",
      "outputs": [
        {
          "name": "",
          "type": "uint256"
        }
      ],
      "payable": false,
      "stateMutability": "view",
      "type": "function"
    },
    {
      "anonymous": false,
      "inputs": [
        {
          "indexed": true,
          "name": "shopId",
          "type": "uint256"
        },
        {
          "indexed": true,
          "name": "skuId",
          "type": "uint256"
        },
        {
          "indexed": true,
          "name": "skuTypeId",
          "type": "uint256"
        },
        {
          "indexed": false,
          "name": "itemId",
          "type": "uint256"
        },
        {
          "indexed": false,
          "name": "name",
          "type": "string"
        },
        {
          "indexed": false,
          "name": "price",
          "type": "uint256"
        },
        {
          "indexed": false,
          "name": "fee",
          "type": "uint256"
        },
        {
          "indexed": false,
          "name": "net",
          "type": "uint256"
        }
      ],
      "name": "NewItem",
      "type": "event"
    },
    {
      "anonymous": false,
      "inputs": [
        {
          "indexed": true,
          "name": "shopId",
          "type": "uint256"
        },
        {
          "indexed": false,
          "name": "skuId",
          "type": "uint256"
        },
        {
          "indexed": false,
          "name": "name",
          "type": "string"
        }
      ],
      "name": "NewSKU",
      "type": "event"
    },
    {
      "anonymous": false,
      "inputs": [
        {
          "indexed": true,
          "name": "shopId",
          "type": "uint256"
        },
        {
          "indexed": false,
          "name": "skuTypeId",
          "type": "uint256"
        },
        {
          "indexed": false,
          "name": "name",
          "type": "string"
        }
      ],
      "name": "NewSKUType",
      "type": "event"
    },
    {
      "anonymous": false,
      "inputs": [
        {
          "indexed": true,
          "name": "shopId",
          "type": "uint256"
        },
        {
          "indexed": false,
          "name": "name",
          "type": "string"
        }
      ],
      "name": "NewShop",
      "type": "event"
    },
    {
      "anonymous": false,
      "inputs": [
        {
          "indexed": false,
          "name": "newContract",
          "type": "address"
        }
      ],
      "name": "ContractUpgrade",
      "type": "event"
    },
    {
      "anonymous": false,
      "inputs": [],
      "name": "ContractPaused",
      "type": "event"
    },
    {
      "anonymous": false,
      "inputs": [],
      "name": "ContractUnpaused",
      "type": "event"
    },
    {
      "anonymous": false,
      "inputs": [
        {
          "indexed": true,
          "name": "_from",
          "type": "address"
        },
        {
          "indexed": true,
          "name": "_to",
          "type": "address"
        },
        {
          "indexed": true,
          "name": "_tokenId",
          "type": "uint256"
        }
      ],
      "name": "Transfer",
      "type": "event"
    },
    {
      "anonymous": false,
      "inputs": [
        {
          "indexed": true,
          "name": "_owner",
          "type": "address"
        },
        {
          "indexed": true,
          "name": "_approved",
          "type": "address"
        },
        {
          "indexed": true,
          "name": "_tokenId",
          "type": "uint256"
        }
      ],
      "name": "Approval",
      "type": "event"
    },
    {
      "anonymous": false,
      "inputs": [
        {
          "indexed": true,
          "name": "_owner",
          "type": "address"
        },
        {
          "indexed": true,
          "name": "_operator",
          "type": "address"
        },
        {
          "indexed": false,
          "name": "_approved",
          "type": "bool"
        }
      ],
      "name": "ApprovalForAll",
      "type": "event"
    },
    {
      "anonymous": false,
      "inputs": [
        {
          "indexed": true,
          "name": "operator",
          "type": "address"
        },
        {
          "indexed": false,
          "name": "role",
          "type": "string"
        }
      ],
      "name": "RoleAdded",
      "type": "event"
    },
    {
      "anonymous": false,
      "inputs": [
        {
          "indexed": true,
          "name": "operator",
          "type": "address"
        },
        {
          "indexed": false,
          "name": "role",
          "type": "string"
        }
      ],
      "name": "RoleRemoved",
      "type": "event"
    },
    {
      "constant": false,
      "inputs": [
        {
          "name": "_shopId",
          "type": "uint256"
        },
        {
          "name": "_skuId",
          "type": "uint256"
        }
      ],
      "name": "createItem",
      "outputs": [
        {
          "name": "",
          "type": "uint256"
        }
      ],
      "payable": true,
      "stateMutability": "payable",
      "type": "function"
    },
    {
      "constant": true,
      "inputs": [
        {
          "name": "_skuId",
          "type": "uint256"
        }
      ],
      "name": "canMintItem",
      "outputs": [
        {
          "name": "",
          "type": "bool"
        }
      ],
      "payable": false,
      "stateMutability": "view",
      "type": "function"
    },
    {
      "constant": true,
      "inputs": [
        {
          "name": "_itemId",
          "type": "uint256"
        }
      ],
      "name": "getItemName",
      "outputs": [
        {
          "name": "",
          "type": "string"
        }
      ],
      "payable": false,
      "stateMutability": "view",
      "type": "function"
    },
    {
      "constant": true,
      "inputs": [
        {
          "name": "_itemId",
          "type": "uint256"
        }
      ],
      "name": "getItemType",
      "outputs": [
        {
          "name": "",
          "type": "string"
        }
      ],
      "payable": false,
      "stateMutability": "view",
      "type": "function"
    },
    {
      "constant": true,
      "inputs": [
        {
          "name": "_shopId",
          "type": "uint256"
        }
      ],
      "name": "getShopItemCount",
      "outputs": [
        {
          "name": "",
          "type": "uint256"
        }
      ],
      "payable": false,
      "stateMutability": "view",
      "type": "function"
    },
    {
      "constant": true,
      "inputs": [
        {
          "name": "_skuId",
          "type": "uint256"
        }
      ],
      "name": "getSKUItemCount",
      "outputs": [
        {
          "name": "",
          "type": "uint256"
        }
      ],
      "payable": false,
      "stateMutability": "view",
      "type": "function"
    }
  ],
  "bytecode": "0x60806040526000601e60006101000a81548160ff0219169083151502179055506040805190810160405280601081526020017f496e41707050726f53686f704974656d000000000000000000000000000000008152506040805190810160405280600481526020017f4941505300000000000000000000000000000000000000000000000000000000815250620000c86301ffc9a77c010000000000000000000000000000000000000000000000000000000002620002b1640100000000026401000000009004565b620001056380ac58cd7c010000000000000000000000000000000000000000000000000000000002620002b1640100000000026401000000009004565b62000142634f558e797c010000000000000000000000000000000000000000000000000000000002620002b1640100000000026401000000009004565b81600690805190602001906200015a92919062000516565b5080600790805190602001906200017392919062000516565b50620001b163780e9d637c010000000000000000000000000000000000000000000000000000000002620002b1640100000000026401000000009004565b620001ee635b5e139f7c010000000000000000000000000000000000000000000000000000000002620002b1640100000000026401000000009004565b50506001601e60006101000a81548160ff0219169083151502179055506200025b336040805190810160405280601181526020017f726f6c652f73797374656d2d61646d696e0000000000000000000000000000008152506200036f640100000000026401000000009004565b620002ab336040805190810160405280601481526020017f726f6c652f6672616e63686973652d6f776e65720000000000000000000000008152506200036f640100000000026401000000009004565b620005c5565b63ffffffff7c010000000000000000000000000000000000000000000000000000000002817bffffffffffffffffffffffffffffffffffffffffffffffffffffffff1916141515156200030357600080fd5b6001806000837bffffffffffffffffffffffffffffffffffffffffffffffffffffffff19167bffffffffffffffffffffffffffffffffffffffffffffffffffffffff1916815260200190815260200160002060006101000a81548160ff02191690831515021790555050565b620003fe826000836040518082805190602001908083835b602083101515620003ae578051825260208201915060208101905060208303925062000387565b6001836020036101000a0380198251168184511680821785525050505050509050019150509081526020016040518091039020620004b8640100000000026200546a179091906401000000009004565b8173ffffffffffffffffffffffffffffffffffffffff167fbfec83d64eaa953f2708271a023ab9ee82057f8f3578d548c1a4ba0b5b700489826040518080602001828103825283818151815260200191508051906020019080838360005b83811015620004795780820151818401526020810190506200045c565b50505050905090810190601f168015620004a75780820380516001836020036101000a031916815260200191505b509250505060405180910390a25050565b60018260000160008373ffffffffffffffffffffffffffffffffffffffff1673ffffffffffffffffffffffffffffffffffffffff16815260200190815260200160002060006101000a81548160ff0219169083151502179055505050565b828054600181600116156101000203166002900490600052602060002090601f016020900481019282601f106200055957805160ff19168380011785556200058a565b828001600101855582156200058a579182015b82811115620005895782518255916020019190600101906200056c565b5b5090506200059991906200059d565b5090565b620005c291905b80821115620005be576000816000905550600101620005a4565b5090565b90565b6155d880620005d56000396000f300608060405260043610610301576000357c0100000000000000000000000000000000000000000000000000000000900463ffffffff16806301ba75391461030657806301ffc9a71461035157806306fdde03146103b5578063081812fc14610445578063095ea7b3146104b25780630988ca8c146104ff57806318160ddd1461058857806318821400146105b3578063199f0b171461064357806319fa8f50146106db578063217fe6c61461074457806323b872dd146107e557806327bcfd61146108525780632a9053181461089d5780632cf0d92a1461092d5780632f745c591461099a57806335007f0e146109fb5780633632929414610b465780633f4ba83a14610b8757806342842e0e14610b9e57806345b727f314610c0b578063477e2b3c14610d57578063488d136e14610d825780634b2aecdc14610e4f5780634beaf13d14610e7a5780634f558e7914610ebb5780634f6ccce714610f0057806351b4fc7e14610f41578063531e005b14610fa257806356de8ccd146110c25780635c975abb146111525780635ded461a146111815780636352211e146111cc5780636af04a571461123957806370a0823114611290578063713aca74146112e757806371587988146114335780637ceab6b0146114765780637e1ae976146114c15780638456cb5914611551578063910339401461156857806394eccbbf146115b357806395d89b41146115f457806397fcb081146116845780639b996ad214611787578063a22cb465146117c8578063a9cb6d7314611817578063adae08dd14611858578063b4abc38114611896578063b88d4fde14611959578063b91159cd14611a0c578063bfb231d214611a51578063c19a4ef514611ae5578063c87b56dd14611b8b578063cb1b200114611c31578063d055454614611cc1578063d4026f3114611d02578063d9561a9114611d59578063dde0e93214611dff578063dffec1e914611ea5578063e659ebef14611f4b578063e985e9c514611f8c578063f6faa78b14612007578063f9fe984614612048578063fac97137146120ee575b600080fd5b34801561031257600080fd5b5061033b600480360381019080803590602001909291908035906020019092919050505061212f565b6040518082815260200191505060405180910390f35b34801561035d57600080fd5b5061039b60048036038101908080357bffffffffffffffffffffffffffffffffffffffffffffffffffffffff1916906020019092919050505061215f565b604051808215151515815260200191505060405180910390f35b3480156103c157600080fd5b506103ca6121c7565b6040518080602001828103825283818151815260200191508051906020019080838360005b8381101561040a5780820151818401526020810190506103ef565b50505050905090810190601f1680156104375780820380516001836020036101000a031916815260200191505b509250505060405180910390f35b34801561045157600080fd5b5061047060048036038101908080359060200190929190505050612269565b604051808273ffffffffffffffffffffffffffffffffffffffff1673ffffffffffffffffffffffffffffffffffffffff16815260200191505060405180910390f35b3480156104be57600080fd5b506104fd600480360381019080803573ffffffffffffffffffffffffffffffffffffffff169060200190929190803590602001909291905050506122a6565b005b34801561050b57600080fd5b50610586600480360381019080803573ffffffffffffffffffffffffffffffffffffffff169060200190929190803590602001908201803590602001908080601f01602080910402602001604051908101604052809392919081815260200183838082843782019150505050505091929192905050506123eb565b005b34801561059457600080fd5b5061059d61246c565b6040518082815260200191505060405180910390f35b3480156105bf57600080fd5b506105c8612479565b6040518080602001828103825283818151815260200191508051906020019080838360005b838110156106085780820151818401526020810190506105ed565b50505050905090810190601f1680156106355780820380516001836020036101000a031916815260200191505b509250505060405180910390f35b34801561064f57600080fd5b50610684600480360381019080803573ffffffffffffffffffffffffffffffffffffffff1690602001909291905050506124b2565b6040518080602001828103825283818151815260200191508051906020019060200280838360005b838110156106c75780820151818401526020810190506106ac565b505050509050019250505060405180910390f35b3480156106e757600080fd5b506106f0612549565b60405180827bffffffffffffffffffffffffffffffffffffffffffffffffffffffff19167bffffffffffffffffffffffffffffffffffffffffffffffffffffffff1916815260200191505060405180910390f35b34801561075057600080fd5b506107cb600480360381019080803573ffffffffffffffffffffffffffffffffffffffff169060200190929190803590602001908201803590602001908080601f0160208091040260200160405190810160405280939291908181526020018383808284378201915050505050509192919290505050612570565b604051808215151515815260200191505060405180910390f35b3480156107f157600080fd5b50610850600480360381019080803573ffffffffffffffffffffffffffffffffffffffff169060200190929190803573ffffffffffffffffffffffffffffffffffffffff169060200190929190803590602001909291905050506125f7565b005b34801561085e57600080fd5b506108876004803603810190808035906020019092919080359060200190929190505050612704565b6040518082815260200191505060405180910390f35b3480156108a957600080fd5b506108b2612734565b6040518080602001828103825283818151815260200191508051906020019080838360005b838110156108f25780820151818401526020810190506108d7565b50505050905090810190601f16801561091f5780820380516001836020036101000a031916815260200191505b509250505060405180910390f35b34801561093957600080fd5b506109586004803603810190808035906020019092919050505061276d565b604051808273ffffffffffffffffffffffffffffffffffffffff1673ffffffffffffffffffffffffffffffffffffffff16815260200191505060405180910390f35b3480156109a657600080fd5b506109e5600480360381019080803573ffffffffffffffffffffffffffffffffffffffff169060200190929190803590602001909291905050506127a0565b6040518082815260200191505060405180910390f35b348015610a0757600080fd5b50610a2660048036038101908080359060200190929190505050612817565b604051808a815260200189815260200188815260200187815260200180602001806020018615151515815260200185151515158152602001848152602001838103835288818151815260200191508051906020019080838360005b83811015610a9c578082015181840152602081019050610a81565b50505050905090810190601f168015610ac95780820380516001836020036101000a031916815260200191505b50838103825287818151815260200191508051906020019080838360005b83811015610b02578082015181840152602081019050610ae7565b50505050905090810190601f168015610b2f5780820380516001836020036101000a031916815260200191505b509b50505050505050505050505060405180910390f35b348015610b5257600080fd5b50610b71600480360381019080803590602001909291905050506129be565b6040518082815260200191505060405180910390f35b348015610b9357600080fd5b50610b9c6129d6565b005b348015610baa57600080fd5b50610c09600480360381019080803573ffffffffffffffffffffffffffffffffffffffff169060200190929190803573ffffffffffffffffffffffffffffffffffffffff16906020019092919080359060200190929190505050612a79565b005b348015610c1757600080fd5b50610c3660048036038101908080359060200190929190505050612ab1565b604051808573ffffffffffffffffffffffffffffffffffffffff1673ffffffffffffffffffffffffffffffffffffffff1681526020018481526020018060200180602001838103835285818151815260200191508051906020019080838360005b83811015610cb2578082015181840152602081019050610c97565b50505050905090810190601f168015610cdf5780820380516001836020036101000a031916815260200191505b50838103825284818151815260200191508051906020019080838360005b83811015610d18578082015181840152602081019050610cfd565b50505050905090810190601f168015610d455780820380516001836020036101000a031916815260200191505b50965050505050505060405180910390f35b348015610d6357600080fd5b50610d6c612cb4565b6040518082815260200191505060405180910390f35b348015610d8e57600080fd5b50610e3960048036038101908080359060200190929190803590602001908201803590602001908080601f0160208091040260200160405190810160405280939291908181526020018383808284378201915050505050509192919290803590602001908201803590602001908080601f0160208091040260200160405190810160405280939291908181526020018383808284378201915050505050509192919290505050612cba565b6040518082815260200191505060405180910390f35b348015610e5b57600080fd5b50610e64612edf565b6040518082815260200191505060405180910390f35b348015610e8657600080fd5b50610ea560048036038101908080359060200190929190505050612ee5565b6040518082815260200191505060405180910390f35b348015610ec757600080fd5b50610ee660048036038101908080359060200190929190505050612f05565b604051808215151515815260200191505060405180910390f35b348015610f0c57600080fd5b50610f2b60048036038101908080359060200190929190505050612f77565b6040518082815260200191505060405180910390f35b348015610f4d57600080fd5b50610f8c600480360381019080803573ffffffffffffffffffffffffffffffffffffffff16906020019092919080359060200190929190505050612faf565b6040518082815260200191505060405180910390f35b348015610fae57600080fd5b50610fcd60048036038101908080359060200190929190505050612fdf565b604051808581526020018481526020018060200180602001838103835285818151815260200191508051906020019080838360005b8381101561101d578082015181840152602081019050611002565b50505050905090810190601f16801561104a5780820380516001836020036101000a031916815260200191505b50838103825284818151815260200191508051906020019080838360005b83811015611083578082015181840152602081019050611068565b50505050905090810190601f1680156110b05780820380516001836020036101000a031916815260200191505b50965050505050505060405180910390f35b3480156110ce57600080fd5b506110d761314e565b6040518080602001828103825283818151815260200191508051906020019080838360005b838110156111175780820151818401526020810190506110fc565b50505050905090810190601f1680156111445780820380516001836020036101000a031916815260200191505b509250505060405180910390f35b34801561115e57600080fd5b50611167613187565b604051808215151515815260200191505060405180910390f35b34801561118d57600080fd5b506111b6600480360381019080803590602001909291908035906020019092919050505061319a565b6040518082815260200191505060405180910390f35b3480156111d857600080fd5b506111f7600480360381019080803590602001909291905050506131ca565b604051808273ffffffffffffffffffffffffffffffffffffffff1673ffffffffffffffffffffffffffffffffffffffff16815260200191505060405180910390f35b34801561124557600080fd5b5061124e613248565b604051808273ffffffffffffffffffffffffffffffffffffffff1673ffffffffffffffffffffffffffffffffffffffff16815260200191505060405180910390f35b34801561129c57600080fd5b506112d1600480360381019080803573ffffffffffffffffffffffffffffffffffffffff16906020019092919050505061326e565b6040518082815260200191505060405180910390f35b3480156112f357600080fd5b50611312600480360381019080803590602001909291905050506132f2565b604051808573ffffffffffffffffffffffffffffffffffffffff1673ffffffffffffffffffffffffffffffffffffffff1681526020018481526020018060200180602001838103835285818151815260200191508051906020019080838360005b8381101561138e578082015181840152602081019050611373565b50505050905090810190601f1680156113bb5780820380516001836020036101000a031916815260200191505b50838103825284818151815260200191508051906020019080838360005b838110156113f45780820151818401526020810190506113d9565b50505050905090810190601f1680156114215780820380516001836020036101000a031916815260200191505b50965050505050505060405180910390f35b34801561143f57600080fd5b50611474600480360381019080803573ffffffffffffffffffffffffffffffffffffffff169060200190929190505050613481565b005b34801561148257600080fd5b506114ab6004803603810190808035906020019092919080359060200190929190505050613582565b6040518082815260200191505060405180910390f35b3480156114cd57600080fd5b506114d66135b2565b6040518080602001828103825283818151815260200191508051906020019080838360005b838110156115165780820151818401526020810190506114fb565b50505050905090810190601f1680156115435780820380516001836020036101000a031916815260200191505b509250505060405180910390f35b34801561155d57600080fd5b506115666135eb565b005b34801561157457600080fd5b5061159d600480360381019080803590602001909291908035906020019092919050505061368f565b6040518082815260200191505060405180910390f35b3480156115bf57600080fd5b506115de600480360381019080803590602001909291905050506136bf565b6040518082815260200191505060405180910390f35b34801561160057600080fd5b506116096136d7565b6040518080602001828103825283818151815260200191508051906020019080838360005b8381101561164957808201518184015260208101905061162e565b50505050905090810190601f1680156116765780820380516001836020036101000a031916815260200191505b509250505060405180910390f35b34801561169057600080fd5b50611771600480360381019080803590602001909291908035906020019092919080359060200190929190803590602001908201803590602001908080601f0160208091040260200160405190810160405280939291908181526020018383808284378201915050505050509192919290803590602001908201803590602001908080601f016020809104026020016040519081016040528093929190818152602001838380828437820191505050505050919291929080351515906020019092919080351515906020019092919080359060200190929190505050613779565b6040518082815260200191505060405180910390f35b34801561179357600080fd5b506117b260048036038101908080359060200190929190505050613a71565b6040518082815260200191505060405180910390f35b3480156117d457600080fd5b50611815600480360381019080803573ffffffffffffffffffffffffffffffffffffffff169060200190929190803515159060200190929190505050613a91565b005b34801561182357600080fd5b5061184260048036038101908080359060200190929190505050613bcd565b6040518082815260200191505060405180910390f35b6118806004803603810190808035906020019092919080359060200190929190505050613be5565b6040518082815260200191505060405180910390f35b3480156118a257600080fd5b50611943600480360381019080803590602001908201803590602001908080601f0160208091040260200160405190810160405280939291908181526020018383808284378201915050505050509192919290803590602001908201803590602001908080601f0160208091040260200160405190810160405280939291908181526020018383808284378201915050505050509192919290505050613f80565b6040518082815260200191505060405180910390f35b34801561196557600080fd5b50611a0a600480360381019080803573ffffffffffffffffffffffffffffffffffffffff169060200190929190803573ffffffffffffffffffffffffffffffffffffffff16906020019092919080359060200190929190803590602001908201803590602001908080601f0160208091040260200160405190810160405280939291908181526020018383808284378201915050505050509192919290505050614225565b005b348015611a1857600080fd5b50611a3760048036038101908080359060200190929190505050614264565b604051808215151515815260200191505060405180910390f35b348015611a5d57600080fd5b50611a7c600480360381019080803590602001909291905050506142ce565b604051808773ffffffffffffffffffffffffffffffffffffffff1673ffffffffffffffffffffffffffffffffffffffff16815260200186815260200185815260200184815260200183815260200182151515158152602001965050505050505060405180910390f35b348015611af157600080fd5b50611b1060048036038101908080359060200190929190505050614346565b6040518080602001828103825283818151815260200191508051906020019080838360005b83811015611b50578082015181840152602081019050611b35565b50505050905090810190601f168015611b7d5780820380516001836020036101000a031916815260200191505b509250505060405180910390f35b348015611b9757600080fd5b50611bb660048036038101908080359060200190929190505050614378565b6040518080602001828103825283818151815260200191508051906020019080838360005b83811015611bf6578082015181840152602081019050611bdb565b50505050905090810190601f168015611c235780820380516001836020036101000a031916815260200191505b509250505060405180910390f35b348015611c3d57600080fd5b50611c46614441565b6040518080602001828103825283818151815260200191508051906020019080838360005b83811015611c86578082015181840152602081019050611c6b565b50505050905090810190601f168015611cb35780820380516001836020036101000a031916815260200191505b509250505060405180910390f35b348015611ccd57600080fd5b50611cec6004803603810190808035906020019092919050505061447a565b6040518082815260200191505060405180910390f35b348015611d0e57600080fd5b50611d43600480360381019080803573ffffffffffffffffffffffffffffffffffffffff16906020019092919050505061449a565b6040518082815260200191505060405180910390f35b348015611d6557600080fd5b50611d84600480360381019080803590602001909291905050506144e6565b6040518080602001828103825283818151815260200191508051906020019080838360005b83811015611dc4578082015181840152602081019050611da9565b50505050905090810190601f168015611df15780820380516001836020036101000a031916815260200191505b509250505060405180910390f35b348015611e0b57600080fd5b50611e2a60048036038101908080359060200190929190505050614518565b6040518080602001828103825283818151815260200191508051906020019080838360005b83811015611e6a578082015181840152602081019050611e4f565b50505050905090810190601f168015611e975780820380516001836020036101000a031916815260200191505b509250505060405180910390f35b348015611eb157600080fd5b50611ed0600480360381019080803590602001909291905050506145da565b6040518080602001828103825283818151815260200191508051906020019080838360005b83811015611f10578082015181840152602081019050611ef5565b50505050905090810190601f168015611f3d5780820380516001836020036101000a031916815260200191505b509250505060405180910390f35b348015611f5757600080fd5b50611f766004803603810190808035906020019092919050505061469c565b6040518082815260200191505060405180910390f35b348015611f9857600080fd5b50611fed600480360381019080803573ffffffffffffffffffffffffffffffffffffffff169060200190929190803573ffffffffffffffffffffffffffffffffffffffff1690602001909291905050506146b4565b604051808215151515815260200191505060405180910390f35b34801561201357600080fd5b5061203260048036038101908080359060200190929190505050614748565b6040518082815260200191505060405180910390f35b34801561205457600080fd5b5061207360048036038101908080359060200190929190505050614768565b6040518080602001828103825283818151815260200191508051906020019080838360005b838110156120b3578082015181840152602081019050612098565b50505050905090810190601f1680156120e05780820380516001836020036101000a031916815260200191505b509250505060405180910390f35b3480156120fa57600080fd5b506121196004803603810190808035906020019092919050505061482a565b6040518082815260200191505060405180910390f35b60166020528160005260406000208181548110151561214a57fe5b90600052602060002001600091509150505481565b600060016000837bffffffffffffffffffffffffffffffffffffffffffffffffffffffff19167bffffffffffffffffffffffffffffffffffffffffffffffffffffffff1916815260200190815260200160002060009054906101000a900460ff169050919050565b606060068054600181600116156101000203166002900480601f01602080910402602001604051908101604052809291908181526020018280546001816001161561010002031660029004801561225f5780601f106122345761010080835404028352916020019161225f565b820191906000526020600020905b81548152906001019060200180831161224257829003601f168201915b5050505050905090565b60006003600083815260200190815260200160002060009054906101000a900473ffffffffffffffffffffffffffffffffffffffff169050919050565b60006122b1826131ca565b90508073ffffffffffffffffffffffffffffffffffffffff168373ffffffffffffffffffffffffffffffffffffffff16141515156122ee57600080fd5b8073ffffffffffffffffffffffffffffffffffffffff163373ffffffffffffffffffffffffffffffffffffffff16148061232e575061232d81336146b4565b5b151561233957600080fd5b826003600084815260200190815260200160002060006101000a81548173ffffffffffffffffffffffffffffffffffffffff021916908373ffffffffffffffffffffffffffffffffffffffff160217905550818373ffffffffffffffffffffffffffffffffffffffff168273ffffffffffffffffffffffffffffffffffffffff167f8c5be1e5ebec7d5bd14f71427d1e84f3dd0314c0f7b2291e5b200ac8c7c3b92560405160405180910390a4505050565b612468826000836040518082805190602001908083835b6020831015156124275780518252602082019150602081019050602083039250612402565b6001836020036101000a038019825116818451168082178552505050505050905001915050908152602001604051809103902061484a90919063ffffffff16565b5050565b6000600a80549050905090565b6040805190810160405280601081526020017f496e41707050726f53686f704974656d0000000000000000000000000000000081525081565b6060601460008373ffffffffffffffffffffffffffffffffffffffff1673ffffffffffffffffffffffffffffffffffffffff16815260200190815260200160002080548060200260200160405190810160405280929190818152602001828054801561253d57602002820191906000526020600020905b815481526020019060010190808311612529575b50505050509050919050565b6301ffc9a77c01000000000000000000000000000000000000000000000000000000000281565b60006125ef836000846040518082805190602001908083835b6020831015156125ae5780518252602082019150602081019050602083039250612589565b6001836020036101000a038019825116818451168082178552505050505050905001915050908152602001604051809103902061486390919063ffffffff16565b905092915050565b8061260233826148bc565b151561260d57600080fd5b600073ffffffffffffffffffffffffffffffffffffffff168473ffffffffffffffffffffffffffffffffffffffff161415151561264957600080fd5b600073ffffffffffffffffffffffffffffffffffffffff168373ffffffffffffffffffffffffffffffffffffffff161415151561268557600080fd5b61268f8483614951565b6126998483614a54565b6126a38383614c6c565b818373ffffffffffffffffffffffffffffffffffffffff168573ffffffffffffffffffffffffffffffffffffffff167fddf252ad1be2c89b69c2b068fc378daa952ba7f163c4a11628f55a4df523b3ef60405160405180910390a450505050565b601a6020528160005260406000208181548110151561271f57fe5b90600052602060002001600091509150505481565b6040805190810160405280600481526020017f494150530000000000000000000000000000000000000000000000000000000081525081565b60136020528060005260406000206000915054906101000a900473ffffffffffffffffffffffffffffffffffffffff1681565b60006127ab8361326e565b821015156127b857600080fd5b600860008473ffffffffffffffffffffffffffffffffffffffff1673ffffffffffffffffffffffffffffffffffffffff1681526020019081526020016000208281548110151561280457fe5b9060005260206000200154905092915050565b600f8181548110151561282657fe5b9060005260206000209060080201600091509050806000015490806001015490806002015490806003015490806004018054600181600116156101000203166002900480601f0160208091040260200160405190810160405280929190818152602001828054600181600116156101000203166002900480156128ea5780601f106128bf576101008083540402835291602001916128ea565b820191906000526020600020905b8154815290600101906020018083116128cd57829003601f168201915b505050505090806005018054600181600116156101000203166002900480601f0160208091040260200160405190810160405280929190818152602001828054600181600116156101000203166002900480156129885780601f1061295d57610100808354040283529160200191612988565b820191906000526020600020905b81548152906001019060200180831161296b57829003601f168201915b5050505050908060060160009054906101000a900460ff16908060060160019054906101000a900460ff16908060070154905089565b60156020528060005260406000206000915090505481565b612a15336040805190810160405280601181526020017f726f6c652f73797374656d2d61646d696e0000000000000000000000000000008152506123eb565b601e60009054906101000a900460ff161515612a3057600080fd5b6000601e60006101000a81548160ff0219169083151502179055507f0e5e3b3fb504c22cf5c42fa07d521225937514c654007e1f12646f89768d6f9460405160405180910390a1565b80612a8433826148bc565b1515612a8f57600080fd5b612aab8484846020604051908101604052806000815250614225565b50505050565b600080606080600d805490508511151515612acb57600080fd5b600d85815481101515612ada57fe5b906000526020600020906004020160000160009054906101000a900473ffffffffffffffffffffffffffffffffffffffff16600d86815481101515612b1b57fe5b906000526020600020906004020160010154600d87815481101515612b3c57fe5b9060005260206000209060040201600201600d88815481101515612b5c57fe5b9060005260206000209060040201600301818054600181600116156101000203166002900480601f016020809104026020016040519081016040528092919081815260200182805460018160011615610100020316600290048015612c025780601f10612bd757610100808354040283529160200191612c02565b820191906000526020600020905b815481529060010190602001808311612be557829003601f168201915b50505050509150808054600181600116156101000203166002900480601f016020809104026020016040519081016040528092919081815260200182805460018160011615610100020316600290048015612c9e5780601f10612c7357610100808354040283529160200191612c9e565b820191906000526020600020905b815481529060010190602001808311612c8157829003601f168201915b5050505050905093509350935093509193509193565b60115481565b6000808460006013600083815260200190815260200160002060009054906101000a900473ffffffffffffffffffffffffffffffffffffffff1690508073ffffffffffffffffffffffffffffffffffffffff163373ffffffffffffffffffffffffffffffffffffffff16141515612d3057600080fd5b600e805490509250600e608060405190810160405280898152602001858152602001888152602001878152509080600181540180825580915050906001820390600052602060002090600402016000909192909190915060008201518160000155602082015181600101556040820151816002019080519060200190612db79291906154db565b506060820151816003019080519060200190612dd49291906154db565b5050505086601560008581526020019081526020016000208190555060166000888152602001908152602001600020839080600181540180825580915050906001820390600052602060002001600090919290919091505550867f984e9c57bf3c704c112a30dea33416efd7969f90a14a69b9cb3842db1fdb5c7a84886040518083815260200180602001828103825283818151815260200191508051906020019080838360005b83811015612e97578082015181840152602081019050612e7c565b50505050905090810190601f168015612ec45780820380516001836020036101000a031916815260200191505b50935050505060405180910390a28293505050509392505050565b60125481565b6000601a6000838152602001908152602001600020805490509050919050565b6000806002600084815260200190815260200160002060009054906101000a900473ffffffffffffffffffffffffffffffffffffffff169050600073ffffffffffffffffffffffffffffffffffffffff168173ffffffffffffffffffffffffffffffffffffffff161415915050919050565b6000612f8161246c565b82101515612f8e57600080fd5b600a82815481101515612f9d57fe5b90600052602060002001549050919050565b601460205281600052604060002081815481101515612fca57fe5b90600052602060002001600091509150505481565b600e81815481101515612fee57fe5b9060005260206000209060040201600091509050806000015490806001015490806002018054600181600116156101000203166002900480601f0160208091040260200160405190810160405280929190818152602001828054600181600116156101000203166002900480156130a65780601f1061307b576101008083540402835291602001916130a6565b820191906000526020600020905b81548152906001019060200180831161308957829003601f168201915b505050505090806003018054600181600116156101000203166002900480601f0160208091040260200160405190810160405280929190818152602001828054600181600116156101000203166002900480156131445780601f1061311957610100808354040283529160200191613144565b820191906000526020600020905b81548152906001019060200180831161312757829003601f168201915b5050505050905084565b6040805190810160405280601181526020017f726f6c652f73797374656d2d61646d696e00000000000000000000000000000081525081565b601e60009054906101000a900460ff1681565b6018602052816000526040600020818154811015156131b557fe5b90600052602060002001600091509150505481565b6000806002600084815260200190815260200160002060009054906101000a900473ffffffffffffffffffffffffffffffffffffffff169050600073ffffffffffffffffffffffffffffffffffffffff168173ffffffffffffffffffffffffffffffffffffffff161415151561323f57600080fd5b80915050919050565b601e60019054906101000a900473ffffffffffffffffffffffffffffffffffffffff1681565b60008073ffffffffffffffffffffffffffffffffffffffff168273ffffffffffffffffffffffffffffffffffffffff16141515156132ab57600080fd5b600460008373ffffffffffffffffffffffffffffffffffffffff1673ffffffffffffffffffffffffffffffffffffffff168152602001908152602001600020549050919050565b600d8181548110151561330157fe5b90600052602060002090600402016000915090508060000160009054906101000a900473ffffffffffffffffffffffffffffffffffffffff1690806001015490806002018054600181600116156101000203166002900480601f0160208091040260200160405190810160405280929190818152602001828054600181600116156101000203166002900480156133d95780601f106133ae576101008083540402835291602001916133d9565b820191906000526020600020905b8154815290600101906020018083116133bc57829003601f168201915b505050505090806003018054600181600116156101000203166002900480601f0160208091040260200160405190810160405280929190818152602001828054600181600116156101000203166002900480156134775780601f1061344c57610100808354040283529160200191613477565b820191906000526020600020905b81548152906001019060200180831161345a57829003601f168201915b5050505050905084565b6134c0336040805190810160405280601181526020017f726f6c652f73797374656d2d61646d696e0000000000000000000000000000008152506123eb565b601e60009054906101000a900460ff1615156134db57600080fd5b80601e60016101000a81548173ffffffffffffffffffffffffffffffffffffffff021916908373ffffffffffffffffffffffffffffffffffffffff1602179055507f450db8da6efbe9c22f2347f7c2021231df1fc58d3ae9a2fa75d39fa44619930581604051808273ffffffffffffffffffffffffffffffffffffffff1673ffffffffffffffffffffffffffffffffffffffff16815260200191505060405180910390a150565b601c6020528160005260406000208181548110151561359d57fe5b90600052602060002001600091509150505481565b6040805190810160405280600f81526020017f726f6c652f73686f702d6f776e6572000000000000000000000000000000000081525081565b61362a336040805190810160405280601181526020017f726f6c652f73797374656d2d61646d696e0000000000000000000000000000008152506123eb565b601e60009054906101000a900460ff1615151561364657600080fd5b6001601e60006101000a81548160ff0219169083151502179055507fab35696f06e428ebc5ceba8cd17f8fed287baf43440206d1943af1ee53e6d26760405160405180910390a1565b6019602052816000526040600020818154811015156136aa57fe5b90600052602060002001600091509150505481565b60176020528060005260406000206000915090505481565b606060078054600181600116156101000203166002900480601f01602080910402602001604051908101604052809291908181526020018280546001816001161561010002031660029004801561376f5780601f106137445761010080835404028352916020019161376f565b820191906000526020600020905b81548152906001019060200180831161375257829003601f168201915b5050505050905090565b6000808960006013600083815260200190815260200160002060009054906101000a900473ffffffffffffffffffffffffffffffffffffffff1690508073ffffffffffffffffffffffffffffffffffffffff163373ffffffffffffffffffffffffffffffffffffffff161415156137ef57600080fd5b60008a1115156137fe57600080fd5b600f805490509250600f610120604051908101604052808e81526020018581526020018d81526020018c81526020018b81526020018a81526020018915158152602001881515815260200187815250908060018154018082558091505090600182039060005260206000209060080201600090919290919091506000820151816000015560208201518160010155604082015181600201556060820151816003015560808201518160040190805190602001906138bc9291906154db565b5060a08201518160050190805190602001906138d99291906154db565b5060c08201518160060160006101000a81548160ff02191690831515021790555060e08201518160060160016101000a81548160ff02191690831515021790555061010082015181600701555050508b6017600085815260200190815260200160002081905550601960008d8152602001908152602001600020839080600181540180825580915050906001820390600052602060002001600090919290919091505550601860008c81526020019081526020016000208390806001815401808255809150509060018203906000526020600020016000909192909190915055508b7fd69554e5413a4863105d3af271dbb7053ecbdb96c22b4ed508331bbb4a993a63848b6040518083815260200180602001828103825283818151815260200191508051906020019080838360005b83811015613a24578082015181840152602081019050613a09565b50505050905090810190601f168015613a515780820380516001836020036101000a031916815260200191505b50935050505060405180910390a282935050505098975050505050505050565b6000601c6000838152602001908152602001600020805490509050919050565b3373ffffffffffffffffffffffffffffffffffffffff168273ffffffffffffffffffffffffffffffffffffffff1614151515613acc57600080fd5b80600560003373ffffffffffffffffffffffffffffffffffffffff1673ffffffffffffffffffffffffffffffffffffffff16815260200190815260200160002060008473ffffffffffffffffffffffffffffffffffffffff1673ffffffffffffffffffffffffffffffffffffffff16815260200190815260200160002060006101000a81548160ff0219169083151502179055508173ffffffffffffffffffffffffffffffffffffffff163373ffffffffffffffffffffffffffffffffffffffff167f17307eab39ab6107e8899845ad3d59bd9653f200f220920489ca2b5937696c3183604051808215151515815260200191505060405180910390a35050565b601b6020528060005260406000206000915090505481565b60008060008060008060011515613bfb88614264565b1515141515613c0957600080fd5b600f87815481101515613c1857fe5b90600052602060002090600802016003015434141515613c3757600080fd5b613c4c60125434614d4390919063ffffffff16565b9450613c6385601154614d5990919063ffffffff16565b601181905550613c7c8534614d7590919063ffffffff16565b9350613ca484601d60008b815260200190815260200160002054614d5990919063ffffffff16565b601d60008a8152602001908152602001600020819055506010805490509250339150600f87815481101515613cd557fe5b9060005260206000209060080201600201549050601060c0604051908101604052808473ffffffffffffffffffffffffffffffffffffffff1681526020018a8152602001858152602001838152602001898152602001600015158152509080600181540180825580915050906001820390600052602060002090600602016000909192909190915060008201518160000160006101000a81548173ffffffffffffffffffffffffffffffffffffffff021916908373ffffffffffffffffffffffffffffffffffffffff1602179055506020820151816001015560408201518160020155606082015181600301556080820151816004015560a08201518160050160006101000a81548160ff02191690831515021790555050505087601b600085815260200190815260200160002081905550601c6000898152602001908152602001600020839080600181540180825580915050906001820390600052602060002001600090919290919091505550601a6000888152602001908152602001600020839080600181540180825580915050906001820390600052602060002001600090919290919091505550613e8b8284614d8e565b8087897f190b041ba13701ff8a2faee41240d2826cdeb02bce58a59e4eb6d0b18d9aa90886613eb9886144e6565b600f8d815481101515613ec857fe5b9060005260206000209060080201600301548b8b6040518086815260200180602001858152602001848152602001838152602001828103825286818151815260200191508051906020019080838360005b83811015613f34578082015181840152602081019050613f19565b50505050905090810190601f168015613f615780820380516001836020036101000a031916815260200191505b50965050505050505060405180910390a4829550505050505092915050565b6000806000600d805490509150339050600d6080604051908101604052808373ffffffffffffffffffffffffffffffffffffffff168152602001848152602001878152602001868152509080600181540180825580915050906001820390600052602060002090600402016000909192909190915060008201518160000160006101000a81548173ffffffffffffffffffffffffffffffffffffffff021916908373ffffffffffffffffffffffffffffffffffffffff1602179055506020820151816001015560408201518160020190805190602001906140629291906154db565b50606082015181600301908051906020019061407f9291906154db565b50505050806013600084815260200190815260200160002060006101000a81548173ffffffffffffffffffffffffffffffffffffffff021916908373ffffffffffffffffffffffffffffffffffffffff160217905550601460008273ffffffffffffffffffffffffffffffffffffffff1673ffffffffffffffffffffffffffffffffffffffff16815260200190815260200160002082908060018154018082558091505090600182039060005260206000200160009091929091909150555061417d816040805190810160405280600f81526020017f726f6c652f73686f702d6f776e65720000000000000000000000000000000000815250614de5565b817f48a97f219cc030f581c3d5440f34a51531af5bda2c5fbe345ac9c4a7d4a28bdb866040518080602001828103825283818151815260200191508051906020019080838360005b838110156141e05780820151818401526020810190506141c5565b50505050905090810190601f16801561420d5780820380516001836020036101000a031916815260200191505b509250505060405180910390a2819250505092915050565b8161423033826148bc565b151561423b57600080fd5b6142468585856125f7565b61425285858585614f19565b151561425d57600080fd5b5050505050565b6000600f8281548110151561427557fe5b906000526020600020906008020160060160019054906101000a900460ff1615806142c75750600f828154811015156142aa57fe5b9060005260206000209060080201600701546142c583612ee5565b105b9050919050565b6010818154811015156142dd57fe5b90600052602060002090600602016000915090508060000160009054906101000a900473ffffffffffffffffffffffffffffffffffffffff16908060010154908060020154908060030154908060040154908060050160009054906101000a900460ff16905086565b606061437160108381548110151561435a57fe5b906000526020600020906006020160030154614768565b9050919050565b606061438382612f05565b151561438e57600080fd5b600c60008381526020019081526020016000208054600181600116156101000203166002900480601f0160208091040260200160405190810160405280929190818152602001828054600181600116156101000203166002900480156144355780601f1061440a57610100808354040283529160200191614435565b820191906000526020600020905b81548152906001019060200180831161441857829003601f168201915b50505050509050919050565b6040805190810160405280601481526020017f726f6c652f6672616e63686973652d6f776e657200000000000000000000000081525081565b600060196000838152602001908152602001600020805490509050919050565b6000601460008373ffffffffffffffffffffffffffffffffffffffff1673ffffffffffffffffffffffffffffffffffffffff168152602001908152602001600020805490509050919050565b60606145116010838154811015156144fa57fe5b9060005260206000209060060201600401546145da565b9050919050565b6060600d8281548110151561452957fe5b90600052602060002090600402016002018054600181600116156101000203166002900480601f0160208091040260200160405190810160405280929190818152602001828054600181600116156101000203166002900480156145ce5780601f106145a3576101008083540402835291602001916145ce565b820191906000526020600020905b8154815290600101906020018083116145b157829003601f168201915b50505050509050919050565b6060600f828154811015156145eb57fe5b90600052602060002090600802016004018054600181600116156101000203166002900480601f0160208091040260200160405190810160405280929190818152602001828054600181600116156101000203166002900480156146905780601f1061466557610100808354040283529160200191614690565b820191906000526020600020905b81548152906001019060200180831161467357829003601f168201915b50505050509050919050565b601d6020528060005260406000206000915090505481565b6000600560008473ffffffffffffffffffffffffffffffffffffffff1673ffffffffffffffffffffffffffffffffffffffff16815260200190815260200160002060008373ffffffffffffffffffffffffffffffffffffffff1673ffffffffffffffffffffffffffffffffffffffff16815260200190815260200160002060009054906101000a900460ff16905092915050565b600060186000838152602001908152602001600020805490509050919050565b6060600e8281548110151561477957fe5b90600052602060002090600402016002018054600181600116156101000203166002900480601f01602080910402602001604051908101604052809291908181526020018280546001816001161561010002031660029004801561481e5780601f106147f35761010080835404028352916020019161481e565b820191906000526020600020905b81548152906001019060200180831161480157829003601f168201915b50505050509050919050565b600060166000838152602001908152602001600020805490509050919050565b6148548282614863565b151561485f57600080fd5b5050565b60008260000160008373ffffffffffffffffffffffffffffffffffffffff1673ffffffffffffffffffffffffffffffffffffffff16815260200190815260200160002060009054906101000a900460ff16905092915050565b6000806148c8836131ca565b90508073ffffffffffffffffffffffffffffffffffffffff168473ffffffffffffffffffffffffffffffffffffffff16148061493757508373ffffffffffffffffffffffffffffffffffffffff1661491f84612269565b73ffffffffffffffffffffffffffffffffffffffff16145b80614948575061494781856146b4565b5b91505092915050565b8173ffffffffffffffffffffffffffffffffffffffff16614971826131ca565b73ffffffffffffffffffffffffffffffffffffffff1614151561499357600080fd5b600073ffffffffffffffffffffffffffffffffffffffff166003600083815260200190815260200160002060009054906101000a900473ffffffffffffffffffffffffffffffffffffffff1673ffffffffffffffffffffffffffffffffffffffff16141515614a505760006003600083815260200190815260200160002060006101000a81548173ffffffffffffffffffffffffffffffffffffffff021916908373ffffffffffffffffffffffffffffffffffffffff1602179055505b5050565b6000806000614a63858561513b565b60096000858152602001908152602001600020549250614acf6001600860008873ffffffffffffffffffffffffffffffffffffffff1673ffffffffffffffffffffffffffffffffffffffff16815260200190815260200160002080549050614d7590919063ffffffff16565b9150600860008673ffffffffffffffffffffffffffffffffffffffff1673ffffffffffffffffffffffffffffffffffffffff16815260200190815260200160002082815481101515614b1d57fe5b9060005260206000200154905080600860008773ffffffffffffffffffffffffffffffffffffffff1673ffffffffffffffffffffffffffffffffffffffff16815260200190815260200160002084815481101515614b7757fe5b90600052602060002001819055506000600860008773ffffffffffffffffffffffffffffffffffffffff1673ffffffffffffffffffffffffffffffffffffffff16815260200190815260200160002083815481101515614bd357fe5b9060005260206000200181905550600860008673ffffffffffffffffffffffffffffffffffffffff1673ffffffffffffffffffffffffffffffffffffffff168152602001908152602001600020805480919060019003614c33919061555b565b50600060096000868152602001908152602001600020819055508260096000838152602001908152602001600020819055505050505050565b6000614c78838361526a565b600860008473ffffffffffffffffffffffffffffffffffffffff1673ffffffffffffffffffffffffffffffffffffffff168152602001908152602001600020805490509050600860008473ffffffffffffffffffffffffffffffffffffffff1673ffffffffffffffffffffffffffffffffffffffff168152602001908152602001600020829080600181540180825580915050906001820390600052602060002001600090919290919091505550806009600084815260200190815260200160002081905550505050565b60008183811515614d5057fe5b04905092915050565b60008183019050828110151515614d6c57fe5b80905092915050565b6000828211151515614d8357fe5b818303905092915050565b614d9882826153c4565b600a80549050600b600083815260200190815260200160002081905550600a8190806001815401808255809150509060018203906000526020600020016000909192909190915055505050565b614e62826000836040518082805190602001908083835b602083101515614e215780518252602082019150602081019050602083039250614dfc565b6001836020036101000a038019825116818451168082178552505050505050905001915050908152602001604051809103902061546a90919063ffffffff16565b8173ffffffffffffffffffffffffffffffffffffffff167fbfec83d64eaa953f2708271a023ab9ee82057f8f3578d548c1a4ba0b5b700489826040518080602001828103825283818151815260200191508051906020019080838360005b83811015614edb578082015181840152602081019050614ec0565b50505050905090810190601f168015614f085780820380516001836020036101000a031916815260200191505b509250505060405180910390a25050565b600080614f3b8573ffffffffffffffffffffffffffffffffffffffff166154c8565b1515614f4a5760019150615132565b8473ffffffffffffffffffffffffffffffffffffffff1663150b7a02338887876040518563ffffffff167c0100000000000000000000000000000000000000000000000000000000028152600401808573ffffffffffffffffffffffffffffffffffffffff1673ffffffffffffffffffffffffffffffffffffffff1681526020018473ffffffffffffffffffffffffffffffffffffffff1673ffffffffffffffffffffffffffffffffffffffff16815260200183815260200180602001828103825283818151815260200191508051906020019080838360005b8381101561503f578082015181840152602081019050615024565b50505050905090810190601f16801561506c5780820380516001836020036101000a031916815260200191505b5095505050505050602060405180830381600087803b15801561508e57600080fd5b505af11580156150a2573d6000803e3d6000fd5b505050506040513d60208110156150b857600080fd5b8101908080519060200190929190505050905063150b7a027c0100000000000000000000000000000000000000000000000000000000027bffffffffffffffffffffffffffffffffffffffffffffffffffffffff1916817bffffffffffffffffffffffffffffffffffffffffffffffffffffffff19161491505b50949350505050565b8173ffffffffffffffffffffffffffffffffffffffff1661515b826131ca565b73ffffffffffffffffffffffffffffffffffffffff1614151561517d57600080fd5b6151d06001600460008573ffffffffffffffffffffffffffffffffffffffff1673ffffffffffffffffffffffffffffffffffffffff16815260200190815260200160002054614d7590919063ffffffff16565b600460008473ffffffffffffffffffffffffffffffffffffffff1673ffffffffffffffffffffffffffffffffffffffff1681526020019081526020016000208190555060006002600083815260200190815260200160002060006101000a81548173ffffffffffffffffffffffffffffffffffffffff021916908373ffffffffffffffffffffffffffffffffffffffff1602179055505050565b600073ffffffffffffffffffffffffffffffffffffffff166002600083815260200190815260200160002060009054906101000a900473ffffffffffffffffffffffffffffffffffffffff1673ffffffffffffffffffffffffffffffffffffffff161415156152d857600080fd5b816002600083815260200190815260200160002060006101000a81548173ffffffffffffffffffffffffffffffffffffffff021916908373ffffffffffffffffffffffffffffffffffffffff16021790555061537d6001600460008573ffffffffffffffffffffffffffffffffffffffff1673ffffffffffffffffffffffffffffffffffffffff16815260200190815260200160002054614d5990919063ffffffff16565b600460008473ffffffffffffffffffffffffffffffffffffffff1673ffffffffffffffffffffffffffffffffffffffff168152602001908152602001600020819055505050565b600073ffffffffffffffffffffffffffffffffffffffff168273ffffffffffffffffffffffffffffffffffffffff161415151561540057600080fd5b61540a8282614c6c565b808273ffffffffffffffffffffffffffffffffffffffff16600073ffffffffffffffffffffffffffffffffffffffff167fddf252ad1be2c89b69c2b068fc378daa952ba7f163c4a11628f55a4df523b3ef60405160405180910390a45050565b60018260000160008373ffffffffffffffffffffffffffffffffffffffff1673ffffffffffffffffffffffffffffffffffffffff16815260200190815260200160002060006101000a81548160ff0219169083151502179055505050565b600080823b905060008111915050919050565b828054600181600116156101000203166002900490600052602060002090601f016020900481019282601f1061551c57805160ff191683800117855561554a565b8280016001018555821561554a579182015b8281111561554957825182559160200191906001019061552e565b5b5090506155579190615587565b5090565b815481835581811115615582578183600052602060002091820191016155819190615587565b5b505050565b6155a991905b808211156155a557600081600090555060010161558d565b5090565b905600a165627a7a723058205af798538c47b0dfa3992b3b80bbb00e13eae91f4f8d6228cce744129bc748d80029",
  "source": "pragma solidity ^0.4.24;\n\nimport \"./SKUFactory.sol\";\n\n\n/**\n * @title ItemFactory\n * @notice Defines functions and events related to management of Items\n */\ncontract ItemFactory is SKUFactory {\n\n    /**\n     * @notice emitted upon the creation of an Item\n     */\n    event NewItem(\n        uint256 indexed shopId,\n        uint256 indexed skuId,\n        uint256 indexed skuTypeId,\n        uint256 itemId,\n        string name,\n        uint256 price,\n        uint256 fee,\n        uint256 net\n    );\n\n    /**\n     * @notice Create an Item\n     */\n    function createItem(\n        uint256 _shopId,\n        uint256 _skuId\n    )\n        public\n        payable\n        returns (uint256)\n    {\n        // Make sure the item can be minted\n        require(canMintItem(_skuId) == true);\n\n        // Make sure enough Ether has been sent\n        require(msg.value == skus[_skuId].price);\n\n        // Calculate and store the franchise fee\n        uint256 franchiseFee = msg.value.div(franchiseFeePercent);\n        franchiseBalance = franchiseBalance.add(franchiseFee);\n\n        // Calculate and store the Shop's net sale amount\n        uint256 shopNetSale = msg.value.sub(franchiseFee);\n        shopBalances[_shopId] = shopBalances[_shopId].add(shopNetSale);\n\n        // Get the item id\n        uint256 itemId = items.length;\n\n        // Get the owner address\n        address owner = msg.sender;\n\n        // Get the SKU Type\n        uint256 skuTypeId = skus[_skuId].skuTypeId;\n\n        // Create and store Item\n        items.push(Item(owner, _shopId, itemId, skuTypeId, _skuId, false));\n\n        // Map the Item ID to the Shop\n        itemToShop[itemId] = _shopId;\n\n        // Add the item to the Shop's list of Items minted\n        shopItems[_shopId].push(itemId);\n\n        // Add the item to the SKU's list of Items minted\n        skuItems[_skuId].push(itemId);\n\n        // Mint the token\n        super._mint(owner, itemId);\n\n        // Emit event with the name of the new Item\n        emit NewItem(_shopId, _skuId, skuTypeId, itemId, getItemName(itemId), skus[_skuId].price, franchiseFee, shopNetSale);\n\n        // Return the new Item ID\n        return itemId;\n    }\n\n    function canMintItem(uint256 _skuId) public view returns (bool) {\n        return (!skus[_skuId].limited || (getSKUItemCount(_skuId) < skus[_skuId].limit));\n    }\n\n    /**\n     * @notice Get the SKU name associated with a given Item id\n     */\n    function getItemName(uint256 _itemId) public view returns (string) {\n        return getSKUName(items[_itemId].skuId);\n    }\n\n    /**\n     * @notice Get the SKU type name associated with a given Item id\n     */\n    function getItemType(uint256 _itemId) public view returns (string) {\n        return getSKUTypeName(items[_itemId].skuTypeId);\n    }\n\n    /**\n     * @notice Get the count of minted Items associated with a given Shop\n     */\n    function getShopItemCount(uint256 _shopId) public view returns (uint256) {\n        return shopItems[_shopId].length;\n    }\n\n    /**\n     * @notice Get the count of minted Items associated with a given SKU\n     */\n    function getSKUItemCount(uint256 _skuId) public view returns (uint256) {\n        return skuItems[_skuId].length;\n    }\n}",
  "sourcePath": "/Users/cliff/Documents/in-app-pro-shop/contracts/ItemFactory.sol",
  "compiler": {
    "name": "solc",
    "version": "0.4.24+commit.e67f0147.Emscripten.clang"
  },
  "schemaVersion": "2.0.1",
  "updatedAt": "2018-10-23T18:30:13.433Z"
}