{
  "contractName": "ItemFactory",
  "abi": [
    {
      "anonymous": false,
      "inputs": [
        {
          "indexed": true,
          "internalType": "address",
          "name": "owner",
          "type": "address"
        },
        {
          "indexed": true,
          "internalType": "address",
          "name": "approved",
          "type": "address"
        },
        {
          "indexed": true,
          "internalType": "uint256",
          "name": "tokenId",
          "type": "uint256"
        }
      ],
      "name": "Approval",
      "type": "event"
    },
    {
      "anonymous": false,
      "inputs": [
        {
          "indexed": true,
          "internalType": "address",
          "name": "owner",
          "type": "address"
        },
        {
          "indexed": true,
          "internalType": "address",
          "name": "operator",
          "type": "address"
        },
        {
          "indexed": false,
          "internalType": "bool",
          "name": "approved",
          "type": "bool"
        }
      ],
      "name": "ApprovalForAll",
      "type": "event"
    },
    {
      "anonymous": false,
      "inputs": [],
      "name": "ContractPaused",
      "type": "event"
    },
    {
      "anonymous": false,
      "inputs": [],
      "name": "ContractUnpaused",
      "type": "event"
    },
    {
      "anonymous": false,
      "inputs": [
        {
          "indexed": false,
          "internalType": "address",
          "name": "newContract",
          "type": "address"
        }
      ],
      "name": "ContractUpgrade",
      "type": "event"
    },
    {
      "anonymous": false,
      "inputs": [
        {
          "indexed": true,
          "internalType": "uint256",
          "name": "shopId",
          "type": "uint256"
        },
        {
          "indexed": true,
          "internalType": "uint256",
          "name": "skuId",
          "type": "uint256"
        },
        {
          "indexed": false,
          "internalType": "uint256",
          "name": "itemId",
          "type": "uint256"
        },
        {
          "indexed": false,
          "internalType": "uint256",
          "name": "amount",
          "type": "uint256"
        },
        {
          "indexed": false,
          "internalType": "uint256",
          "name": "fee",
          "type": "uint256"
        },
        {
          "indexed": false,
          "internalType": "uint256",
          "name": "net",
          "type": "uint256"
        }
      ],
      "name": "NewItem",
      "type": "event"
    },
    {
      "anonymous": false,
      "inputs": [
        {
          "indexed": true,
          "internalType": "address",
          "name": "from",
          "type": "address"
        },
        {
          "indexed": true,
          "internalType": "address",
          "name": "to",
          "type": "address"
        },
        {
          "indexed": true,
          "internalType": "uint256",
          "name": "tokenId",
          "type": "uint256"
        }
      ],
      "name": "Transfer",
      "type": "event"
    },
    {
      "constant": true,
      "inputs": [],
      "name": "TOKEN_NAME",
      "outputs": [
        {
          "internalType": "string",
          "name": "",
          "type": "string"
        }
      ],
      "payable": false,
      "stateMutability": "view",
      "type": "function"
    },
    {
      "constant": true,
      "inputs": [],
      "name": "TOKEN_SYMBOL",
      "outputs": [
        {
          "internalType": "string",
          "name": "",
          "type": "string"
        }
      ],
      "payable": false,
      "stateMutability": "view",
      "type": "function"
    },
    {
      "constant": false,
      "inputs": [
        {
          "internalType": "address",
          "name": "to",
          "type": "address"
        },
        {
          "internalType": "uint256",
          "name": "tokenId",
          "type": "uint256"
        }
      ],
      "name": "approve",
      "outputs": [],
      "payable": false,
      "stateMutability": "nonpayable",
      "type": "function"
    },
    {
      "constant": true,
      "inputs": [
        {
          "internalType": "address",
          "name": "owner",
          "type": "address"
        }
      ],
      "name": "balanceOf",
      "outputs": [
        {
          "internalType": "uint256",
          "name": "",
          "type": "uint256"
        }
      ],
      "payable": false,
      "stateMutability": "view",
      "type": "function"
    },
    {
      "constant": true,
      "inputs": [],
      "name": "franchiseBalance",
      "outputs": [
        {
          "internalType": "uint256",
          "name": "",
          "type": "uint256"
        }
      ],
      "payable": false,
      "stateMutability": "view",
      "type": "function"
    },
    {
      "constant": true,
      "inputs": [],
      "name": "franchiseFeePercent",
      "outputs": [
        {
          "internalType": "uint256",
          "name": "",
          "type": "uint256"
        }
      ],
      "payable": false,
      "stateMutability": "view",
      "type": "function"
    },
    {
      "constant": true,
      "inputs": [
        {
          "internalType": "uint256",
          "name": "tokenId",
          "type": "uint256"
        }
      ],
      "name": "getApproved",
      "outputs": [
        {
          "internalType": "address",
          "name": "",
          "type": "address"
        }
      ],
      "payable": false,
      "stateMutability": "view",
      "type": "function"
    },
    {
      "constant": true,
      "inputs": [
        {
          "internalType": "address",
          "name": "owner",
          "type": "address"
        },
        {
          "internalType": "address",
          "name": "operator",
          "type": "address"
        }
      ],
      "name": "isApprovedForAll",
      "outputs": [
        {
          "internalType": "bool",
          "name": "",
          "type": "bool"
        }
      ],
      "payable": false,
      "stateMutability": "view",
      "type": "function"
    },
    {
      "constant": true,
      "inputs": [
        {
          "internalType": "uint256",
          "name": "",
          "type": "uint256"
        }
      ],
      "name": "items",
      "outputs": [
        {
          "internalType": "address",
          "name": "owner",
          "type": "address"
        },
        {
          "internalType": "uint256",
          "name": "shopId",
          "type": "uint256"
        },
        {
          "internalType": "uint256",
          "name": "itemId",
          "type": "uint256"
        },
        {
          "internalType": "uint256",
          "name": "skuId",
          "type": "uint256"
        },
        {
          "internalType": "bool",
          "name": "consumed",
          "type": "bool"
        }
      ],
      "payable": false,
      "stateMutability": "view",
      "type": "function"
    },
    {
      "constant": true,
      "inputs": [],
      "name": "name",
      "outputs": [
        {
          "internalType": "string",
          "name": "",
          "type": "string"
        }
      ],
      "payable": false,
      "stateMutability": "view",
      "type": "function"
    },
    {
      "constant": true,
      "inputs": [],
      "name": "newContractAddress",
      "outputs": [
        {
          "internalType": "address",
          "name": "",
          "type": "address"
        }
      ],
      "payable": false,
      "stateMutability": "view",
      "type": "function"
    },
    {
      "constant": true,
      "inputs": [
        {
          "internalType": "address",
          "name": "",
          "type": "address"
        },
        {
          "internalType": "uint256",
          "name": "",
          "type": "uint256"
        }
      ],
      "name": "ownedItems",
      "outputs": [
        {
          "internalType": "uint256",
          "name": "",
          "type": "uint256"
        }
      ],
      "payable": false,
      "stateMutability": "view",
      "type": "function"
    },
    {
      "constant": true,
      "inputs": [
        {
          "internalType": "uint256",
          "name": "tokenId",
          "type": "uint256"
        }
      ],
      "name": "ownerOf",
      "outputs": [
        {
          "internalType": "address",
          "name": "",
          "type": "address"
        }
      ],
      "payable": false,
      "stateMutability": "view",
      "type": "function"
    },
    {
      "constant": false,
      "inputs": [],
      "name": "pause",
      "outputs": [],
      "payable": false,
      "stateMutability": "nonpayable",
      "type": "function"
    },
    {
      "constant": true,
      "inputs": [],
      "name": "paused",
      "outputs": [
        {
          "internalType": "bool",
          "name": "",
          "type": "bool"
        }
      ],
      "payable": false,
      "stateMutability": "view",
      "type": "function"
    },
    {
      "constant": false,
      "inputs": [
        {
          "internalType": "address",
          "name": "from",
          "type": "address"
        },
        {
          "internalType": "address",
          "name": "to",
          "type": "address"
        },
        {
          "internalType": "uint256",
          "name": "tokenId",
          "type": "uint256"
        }
      ],
      "name": "safeTransferFrom",
      "outputs": [],
      "payable": false,
      "stateMutability": "nonpayable",
      "type": "function"
    },
    {
      "constant": false,
      "inputs": [
        {
          "internalType": "address",
          "name": "from",
          "type": "address"
        },
        {
          "internalType": "address",
          "name": "to",
          "type": "address"
        },
        {
          "internalType": "uint256",
          "name": "tokenId",
          "type": "uint256"
        },
        {
          "internalType": "bytes",
          "name": "_data",
          "type": "bytes"
        }
      ],
      "name": "safeTransferFrom",
      "outputs": [],
      "payable": false,
      "stateMutability": "nonpayable",
      "type": "function"
    },
    {
      "constant": false,
      "inputs": [
        {
          "internalType": "address",
          "name": "to",
          "type": "address"
        },
        {
          "internalType": "bool",
          "name": "approved",
          "type": "bool"
        }
      ],
      "name": "setApprovalForAll",
      "outputs": [],
      "payable": false,
      "stateMutability": "nonpayable",
      "type": "function"
    },
    {
      "constant": true,
      "inputs": [
        {
          "internalType": "uint256",
          "name": "",
          "type": "uint256"
        }
      ],
      "name": "shopBalances",
      "outputs": [
        {
          "internalType": "uint256",
          "name": "",
          "type": "uint256"
        }
      ],
      "payable": false,
      "stateMutability": "view",
      "type": "function"
    },
    {
      "constant": true,
      "inputs": [
        {
          "internalType": "uint256",
          "name": "",
          "type": "uint256"
        },
        {
          "internalType": "uint256",
          "name": "",
          "type": "uint256"
        }
      ],
      "name": "shopItems",
      "outputs": [
        {
          "internalType": "uint256",
          "name": "",
          "type": "uint256"
        }
      ],
      "payable": false,
      "stateMutability": "view",
      "type": "function"
    },
    {
      "constant": true,
      "inputs": [
        {
          "internalType": "uint256",
          "name": "",
          "type": "uint256"
        },
        {
          "internalType": "uint256",
          "name": "",
          "type": "uint256"
        }
      ],
      "name": "skuItems",
      "outputs": [
        {
          "internalType": "uint256",
          "name": "",
          "type": "uint256"
        }
      ],
      "payable": false,
      "stateMutability": "view",
      "type": "function"
    },
    {
      "constant": true,
      "inputs": [
        {
          "internalType": "bytes4",
          "name": "interfaceId",
          "type": "bytes4"
        }
      ],
      "name": "supportsInterface",
      "outputs": [
        {
          "internalType": "bool",
          "name": "",
          "type": "bool"
        }
      ],
      "payable": false,
      "stateMutability": "view",
      "type": "function"
    },
    {
      "constant": true,
      "inputs": [],
      "name": "symbol",
      "outputs": [
        {
          "internalType": "string",
          "name": "",
          "type": "string"
        }
      ],
      "payable": false,
      "stateMutability": "view",
      "type": "function"
    },
    {
      "constant": true,
      "inputs": [
        {
          "internalType": "uint256",
          "name": "index",
          "type": "uint256"
        }
      ],
      "name": "tokenByIndex",
      "outputs": [
        {
          "internalType": "uint256",
          "name": "",
          "type": "uint256"
        }
      ],
      "payable": false,
      "stateMutability": "view",
      "type": "function"
    },
    {
      "constant": true,
      "inputs": [
        {
          "internalType": "address",
          "name": "owner",
          "type": "address"
        },
        {
          "internalType": "uint256",
          "name": "index",
          "type": "uint256"
        }
      ],
      "name": "tokenOfOwnerByIndex",
      "outputs": [
        {
          "internalType": "uint256",
          "name": "",
          "type": "uint256"
        }
      ],
      "payable": false,
      "stateMutability": "view",
      "type": "function"
    },
    {
      "constant": true,
      "inputs": [
        {
          "internalType": "uint256",
          "name": "tokenId",
          "type": "uint256"
        }
      ],
      "name": "tokenURI",
      "outputs": [
        {
          "internalType": "string",
          "name": "",
          "type": "string"
        }
      ],
      "payable": false,
      "stateMutability": "view",
      "type": "function"
    },
    {
      "constant": true,
      "inputs": [],
      "name": "totalSupply",
      "outputs": [
        {
          "internalType": "uint256",
          "name": "",
          "type": "uint256"
        }
      ],
      "payable": false,
      "stateMutability": "view",
      "type": "function"
    },
    {
      "constant": false,
      "inputs": [
        {
          "internalType": "address",
          "name": "from",
          "type": "address"
        },
        {
          "internalType": "address",
          "name": "to",
          "type": "address"
        },
        {
          "internalType": "uint256",
          "name": "tokenId",
          "type": "uint256"
        }
      ],
      "name": "transferFrom",
      "outputs": [],
      "payable": false,
      "stateMutability": "nonpayable",
      "type": "function"
    },
    {
      "constant": false,
      "inputs": [],
      "name": "unpause",
      "outputs": [],
      "payable": false,
      "stateMutability": "nonpayable",
      "type": "function"
    },
    {
      "constant": false,
      "inputs": [
        {
          "internalType": "address",
          "name": "_newAddress",
          "type": "address"
        }
      ],
      "name": "upgradeContract",
      "outputs": [],
      "payable": false,
      "stateMutability": "nonpayable",
      "type": "function"
    },
    {
      "constant": true,
      "inputs": [],
      "name": "upgraded",
      "outputs": [
        {
          "internalType": "bool",
          "name": "",
          "type": "bool"
        }
      ],
      "payable": false,
      "stateMutability": "view",
      "type": "function"
    },
    {
      "constant": false,
      "inputs": [
        {
          "internalType": "uint256",
          "name": "_shopId",
          "type": "uint256"
        },
        {
          "internalType": "uint256",
          "name": "_skuId",
          "type": "uint256"
        }
      ],
      "name": "createItem",
      "outputs": [
        {
          "internalType": "uint256",
          "name": "",
          "type": "uint256"
        }
      ],
      "payable": true,
      "stateMutability": "payable",
      "type": "function"
    }
  ],
  "bytecode": "0x60806040526000600f60006101000a81548160ff0219169083151502179055506000600f60016101000a81548160ff0219169083151502179055506040518060400160405280601081526020017f496e41707050726f53686f704974656d000000000000000000000000000000008152506040518060400160405280600481526020017f49415053000000000000000000000000000000000000000000000000000000008152508181620000c06301ffc9a760e01b6200019560201b60201c565b620000d86380ac58cd60e01b6200019560201b60201c565b620000f063780e9d6360e01b6200019560201b60201c565b81600990805190602001906200010892919062000462565b5080600a90805190602001906200012192919062000462565b506200013a635b5e139f60e01b6200019560201b60201c565b505050506001600f60016101000a81548160ff0219169083151502179055506200017433600c6200029e60201b620033c11790919060201c565b6200018f33600d6200029e60201b620033c11790919060201c565b62000511565b63ffffffff60e01b817bffffffffffffffffffffffffffffffffffffffffffffffffffffffff1916141562000232576040517f08c379a000000000000000000000000000000000000000000000000000000000815260040180806020018281038252601c8152602001807f4552433136353a20696e76616c696420696e746572666163652069640000000081525060200191505060405180910390fd5b6001600080837bffffffffffffffffffffffffffffffffffffffffffffffffffffffff19167bffffffffffffffffffffffffffffffffffffffffffffffffffffffff1916815260200190815260200160002060006101000a81548160ff02191690831515021790555050565b620002b082826200038260201b60201c565b1562000324576040517f08c379a000000000000000000000000000000000000000000000000000000000815260040180806020018281038252601f8152602001807f526f6c65733a206163636f756e7420616c72656164792068617320726f6c650081525060200191505060405180910390fd5b60018260000160008373ffffffffffffffffffffffffffffffffffffffff1673ffffffffffffffffffffffffffffffffffffffff16815260200190815260200160002060006101000a81548160ff0219169083151502179055505050565b60008073ffffffffffffffffffffffffffffffffffffffff168273ffffffffffffffffffffffffffffffffffffffff1614156200040b576040517f08c379a000000000000000000000000000000000000000000000000000000000815260040180806020018281038252602281526020018062003c6f6022913960400191505060405180910390fd5b8260000160008373ffffffffffffffffffffffffffffffffffffffff1673ffffffffffffffffffffffffffffffffffffffff16815260200190815260200160002060009054906101000a900460ff16905092915050565b828054600181600116156101000203166002900490600052602060002090601f016020900481019282601f10620004a557805160ff1916838001178555620004d6565b82800160010185558215620004d6579182015b82811115620004d5578251825591602001919060010190620004b8565b5b509050620004e59190620004e9565b5090565b6200050e91905b808211156200050a576000816000905550600101620004f0565b5090565b90565b61374e80620005216000396000f3fe6080604052600436106101e35760003560e01c80635c975abb11610102578063adae08dd11610095578063c87b56dd11610064578063c87b56dd14610cdf578063e659ebef14610d93578063e985e9c514610de2578063eb2c022314610e6b576101e3565b8063adae08dd14610ab7578063b88d4fde14610b03578063bfb231d214610c15578063c28de2cd14610cb0576101e3565b80637ceab6b0116100d15780637ceab6b01461095a5780638456cb59146109b357806395d89b41146109ca578063a22cb46514610a5a576101e3565b80635c975abb146107f45780636352211e146108235780636af04a571461089e57806370a08231146108f5576101e3565b80632a9053181161017a578063428465341161014957806342846534146106e0578063477e2b3c1461074f5780634b2aecdc1461077a5780634f6ccce7146107a5576101e3565b80632a9053181461054f5780632f745c59146105df5780633f4ba83a1461064e57806342842e0e14610665576101e3565b806318160ddd116101b657806318160ddd146103c057806318821400146103eb57806323b872dd1461047b57806327bcfd61146104f6576101e3565b806301ffc9a7146101e857806306fdde031461025a578063081812fc146102ea578063095ea7b314610365575b600080fd5b3480156101f457600080fd5b506102406004803603602081101561020b57600080fd5b8101908080357bffffffffffffffffffffffffffffffffffffffffffffffffffffffff19169060200190929190505050610ebc565b604051808215151515815260200191505060405180910390f35b34801561026657600080fd5b5061026f610f23565b6040518080602001828103825283818151815260200191508051906020019080838360005b838110156102af578082015181840152602081019050610294565b50505050905090810190601f1680156102dc5780820380516001836020036101000a031916815260200191505b509250505060405180910390f35b3480156102f657600080fd5b506103236004803603602081101561030d57600080fd5b8101908080359060200190929190505050610fc5565b604051808273ffffffffffffffffffffffffffffffffffffffff1673ffffffffffffffffffffffffffffffffffffffff16815260200191505060405180910390f35b34801561037157600080fd5b506103be6004803603604081101561038857600080fd5b81019080803573ffffffffffffffffffffffffffffffffffffffff16906020019092919080359060200190929190505050611060565b005b3480156103cc57600080fd5b506103d5611247565b6040518082815260200191505060405180910390f35b3480156103f757600080fd5b50610400611254565b6040518080602001828103825283818151815260200191508051906020019080838360005b83811015610440578082015181840152602081019050610425565b50505050905090810190601f16801561046d5780820380516001836020036101000a031916815260200191505b509250505060405180910390f35b34801561048757600080fd5b506104f46004803603606081101561049e57600080fd5b81019080803573ffffffffffffffffffffffffffffffffffffffff169060200190929190803573ffffffffffffffffffffffffffffffffffffffff1690602001909291908035906020019092919050505061128d565b005b34801561050257600080fd5b506105396004803603604081101561051957600080fd5b810190808035906020019092919080359060200190929190505050611303565b6040518082815260200191505060405180910390f35b34801561055b57600080fd5b50610564611331565b6040518080602001828103825283818151815260200191508051906020019080838360005b838110156105a4578082015181840152602081019050610589565b50505050905090810190601f1680156105d15780820380516001836020036101000a031916815260200191505b509250505060405180910390f35b3480156105eb57600080fd5b506106386004803603604081101561060257600080fd5b81019080803573ffffffffffffffffffffffffffffffffffffffff1690602001909291908035906020019092919050505061136a565b6040518082815260200191505060405180910390f35b34801561065a57600080fd5b50610663611429565b005b34801561067157600080fd5b506106de6004803603606081101561068857600080fd5b81019080803573ffffffffffffffffffffffffffffffffffffffff169060200190929190803573ffffffffffffffffffffffffffffffffffffffff169060200190929190803590602001909291905050506114c2565b005b3480156106ec57600080fd5b506107396004803603604081101561070357600080fd5b81019080803573ffffffffffffffffffffffffffffffffffffffff169060200190929190803590602001909291905050506114e2565b6040518082815260200191505060405180910390f35b34801561075b57600080fd5b50610764611510565b6040518082815260200191505060405180910390f35b34801561078657600080fd5b5061078f611516565b6040518082815260200191505060405180910390f35b3480156107b157600080fd5b506107de600480360360208110156107c857600080fd5b810190808035906020019092919050505061151c565b6040518082815260200191505060405180910390f35b34801561080057600080fd5b5061080961159c565b604051808215151515815260200191505060405180910390f35b34801561082f57600080fd5b5061085c6004803603602081101561084657600080fd5b81019080803590602001909291905050506115af565b604051808273ffffffffffffffffffffffffffffffffffffffff1673ffffffffffffffffffffffffffffffffffffffff16815260200191505060405180910390f35b3480156108aa57600080fd5b506108b3611677565b604051808273ffffffffffffffffffffffffffffffffffffffff1673ffffffffffffffffffffffffffffffffffffffff16815260200191505060405180910390f35b34801561090157600080fd5b506109446004803603602081101561091857600080fd5b81019080803573ffffffffffffffffffffffffffffffffffffffff16906020019092919050505061169d565b6040518082815260200191505060405180910390f35b34801561096657600080fd5b5061099d6004803603604081101561097d57600080fd5b810190808035906020019092919080359060200190929190505050611772565b6040518082815260200191505060405180910390f35b3480156109bf57600080fd5b506109c86117a0565b005b3480156109d657600080fd5b506109df611820565b6040518080602001828103825283818151815260200191508051906020019080838360005b83811015610a1f578082015181840152602081019050610a04565b50505050905090810190601f168015610a4c5780820380516001836020036101000a031916815260200191505b509250505060405180910390f35b348015610a6657600080fd5b50610ab560048036036040811015610a7d57600080fd5b81019080803573ffffffffffffffffffffffffffffffffffffffff1690602001909291908035151590602001909291905050506118c2565b005b610aed60048036036040811015610acd57600080fd5b810190808035906020019092919080359060200190929190505050611a7a565b6040518082815260200191505060405180910390f35b348015610b0f57600080fd5b50610c1360048036036080811015610b2657600080fd5b81019080803573ffffffffffffffffffffffffffffffffffffffff169060200190929190803573ffffffffffffffffffffffffffffffffffffffff1690602001909291908035906020019092919080359060200190640100000000811115610b8d57600080fd5b820183602082011115610b9f57600080fd5b80359060200191846001830284011164010000000083111715610bc157600080fd5b91908080601f016020809104026020016040519081016040528093929190818152602001838380828437600081840152601f19601f820116905080830192505050505050509192919290505050611f15565b005b348015610c2157600080fd5b50610c4e60048036036020811015610c3857600080fd5b8101908080359060200190929190505050611f8d565b604051808673ffffffffffffffffffffffffffffffffffffffff1673ffffffffffffffffffffffffffffffffffffffff168152602001858152602001848152602001838152602001821515151581526020019550505050505060405180910390f35b348015610cbc57600080fd5b50610cc5611ffd565b604051808215151515815260200191505060405180910390f35b348015610ceb57600080fd5b50610d1860048036036020811015610d0257600080fd5b8101908080359060200190929190505050612010565b6040518080602001828103825283818151815260200191508051906020019080838360005b83811015610d58578082015181840152602081019050610d3d565b50505050905090810190601f168015610d855780820380516001836020036101000a031916815260200191505b509250505060405180910390f35b348015610d9f57600080fd5b50610dcc60048036036020811015610db657600080fd5b8101908080359060200190929190505050612123565b6040518082815260200191505060405180910390f35b348015610dee57600080fd5b50610e5160048036036040811015610e0557600080fd5b81019080803573ffffffffffffffffffffffffffffffffffffffff169060200190929190803573ffffffffffffffffffffffffffffffffffffffff16906020019092919050505061213b565b604051808215151515815260200191505060405180910390f35b348015610e7757600080fd5b50610eba60048036036020811015610e8e57600080fd5b81019080803573ffffffffffffffffffffffffffffffffffffffff1690602001909291905050506121cf565b005b6000806000837bffffffffffffffffffffffffffffffffffffffffffffffffffffffff19167bffffffffffffffffffffffffffffffffffffffffffffffffffffffff1916815260200190815260200160002060009054906101000a900460ff169050919050565b606060098054600181600116156101000203166002900480601f016020809104026020016040519081016040528092919081815260200182805460018160011615610100020316600290048015610fbb5780601f10610f9057610100808354040283529160200191610fbb565b820191906000526020600020905b815481529060010190602001808311610f9e57829003601f168201915b5050505050905090565b6000610fd0826122e1565b611025576040517f08c379a000000000000000000000000000000000000000000000000000000000815260040180806020018281038252602c8152602001806135f6602c913960400191505060405180910390fd5b6002600083815260200190815260200160002060009054906101000a900473ffffffffffffffffffffffffffffffffffffffff169050919050565b600061106b826115af565b90508073ffffffffffffffffffffffffffffffffffffffff168373ffffffffffffffffffffffffffffffffffffffff1614156110f2576040517f08c379a000000000000000000000000000000000000000000000000000000000815260040180806020018281038252602181526020018061369c6021913960400191505060405180910390fd5b8073ffffffffffffffffffffffffffffffffffffffff16611111612353565b73ffffffffffffffffffffffffffffffffffffffff161480611140575061113f8161113a612353565b61213b565b5b611195576040517f08c379a000000000000000000000000000000000000000000000000000000000815260040180806020018281038252603881526020018061354a6038913960400191505060405180910390fd5b826002600084815260200190815260200160002060006101000a81548173ffffffffffffffffffffffffffffffffffffffff021916908373ffffffffffffffffffffffffffffffffffffffff160217905550818373ffffffffffffffffffffffffffffffffffffffff168273ffffffffffffffffffffffffffffffffffffffff167f8c5be1e5ebec7d5bd14f71427d1e84f3dd0314c0f7b2291e5b200ac8c7c3b92560405160405180910390a4505050565b6000600780549050905090565b6040518060400160405280601081526020017f496e41707050726f53686f704974656d0000000000000000000000000000000081525081565b61129e611298612353565b8261235b565b6112f3576040517f08c379a00000000000000000000000000000000000000000000000000000000081526004018080602001828103825260318152602001806136bd6031913960400191505060405180910390fd5b6112fe83838361244f565b505050565b6012602052816000526040600020818154811061131c57fe5b90600052602060002001600091509150505481565b6040518060400160405280600481526020017f494150530000000000000000000000000000000000000000000000000000000081525081565b60006113758361169d565b82106113cc576040517f08c379a000000000000000000000000000000000000000000000000000000000815260040180806020018281038252602b81526020018061349d602b913960400191505060405180910390fd5b600560008473ffffffffffffffffffffffffffffffffffffffff1673ffffffffffffffffffffffffffffffffffffffff168152602001908152602001600020828154811061141657fe5b9060005260206000200154905092915050565b61143d33600c61247390919063ffffffff16565b61144657600080fd5b600f60019054906101000a900460ff1661145f57600080fd5b600f60009054906101000a900460ff161561147957600080fd5b6000600f60016101000a81548160ff0219169083151502179055507f0e5e3b3fb504c22cf5c42fa07d521225937514c654007e1f12646f89768d6f9460405160405180910390a1565b6114dd83838360405180602001604052806000815250611f15565b505050565b601460205281600052604060002081815481106114fb57fe5b90600052602060002001600091509150505481565b60165481565b60175481565b6000611526611247565b821061157d576040517f08c379a000000000000000000000000000000000000000000000000000000000815260040180806020018281038252602c8152602001806136ee602c913960400191505060405180910390fd5b6007828154811061158a57fe5b90600052602060002001549050919050565b600f60019054906101000a900460ff1681565b6000806001600084815260200190815260200160002060009054906101000a900473ffffffffffffffffffffffffffffffffffffffff169050600073ffffffffffffffffffffffffffffffffffffffff168173ffffffffffffffffffffffffffffffffffffffff16141561166e576040517f08c379a00000000000000000000000000000000000000000000000000000000081526004018080602001828103825260298152602001806135ac6029913960400191505060405180910390fd5b80915050919050565b600f60029054906101000a900473ffffffffffffffffffffffffffffffffffffffff1681565b60008073ffffffffffffffffffffffffffffffffffffffff168273ffffffffffffffffffffffffffffffffffffffff161415611724576040517f08c379a000000000000000000000000000000000000000000000000000000000815260040180806020018281038252602a815260200180613582602a913960400191505060405180910390fd5b61176b600360008473ffffffffffffffffffffffffffffffffffffffff1673ffffffffffffffffffffffffffffffffffffffff168152602001908152602001600020612551565b9050919050565b6013602052816000526040600020818154811061178b57fe5b90600052602060002001600091509150505481565b6117b433600c61247390919063ffffffff16565b6117bd57600080fd5b600f60019054906101000a900460ff16156117d757600080fd5b6001600f60016101000a81548160ff0219169083151502179055507fab35696f06e428ebc5ceba8cd17f8fed287baf43440206d1943af1ee53e6d26760405160405180910390a1565b6060600a8054600181600116156101000203166002900480601f0160208091040260200160405190810160405280929190818152602001828054600181600116156101000203166002900480156118b85780601f1061188d576101008083540402835291602001916118b8565b820191906000526020600020905b81548152906001019060200180831161189b57829003601f168201915b5050505050905090565b6118ca612353565b73ffffffffffffffffffffffffffffffffffffffff168273ffffffffffffffffffffffffffffffffffffffff16141561196b576040517f08c379a00000000000000000000000000000000000000000000000000000000081526004018080602001828103825260198152602001807f4552433732313a20617070726f766520746f2063616c6c65720000000000000081525060200191505060405180910390fd5b8060046000611978612353565b73ffffffffffffffffffffffffffffffffffffffff1673ffffffffffffffffffffffffffffffffffffffff16815260200190815260200160002060008473ffffffffffffffffffffffffffffffffffffffff1673ffffffffffffffffffffffffffffffffffffffff16815260200190815260200160002060006101000a81548160ff0219169083151502179055508173ffffffffffffffffffffffffffffffffffffffff16611a25612353565b73ffffffffffffffffffffffffffffffffffffffff167f17307eab39ab6107e8899845ad3d59bd9653f200f220920489ca2b5937696c3183604051808215151515815260200191505060405180910390a35050565b6000600f60019054906101000a900460ff1615611a9657600080fd5b60011515601060009054906101000a900473ffffffffffffffffffffffffffffffffffffffff1673ffffffffffffffffffffffffffffffffffffffff1663f29d498a8460126000878152602001908152602001600020805490506040518363ffffffff1660e01b8152600401808381526020018281526020019250505060206040518083038186803b158015611b2b57600080fd5b505afa158015611b3f573d6000803e3d6000fd5b505050506040513d6020811015611b5557600080fd5b8101908080519060200190929190505050151514611b7257600080fd5b601060009054906101000a900473ffffffffffffffffffffffffffffffffffffffff1673ffffffffffffffffffffffffffffffffffffffff1663ae539d80836040518263ffffffff1660e01b81526004018082815260200191505060206040518083038186803b158015611be557600080fd5b505afa158015611bf9573d6000803e3d6000fd5b505050506040513d6020811015611c0f57600080fd5b81019080805190602001909291905050503414611c2b57600080fd5b6000611c55601754611c4760643461255f90919063ffffffff16565b6125a990919063ffffffff16565b9050611c6c8160165461262f90919063ffffffff16565b6016819055506000611c8782346126b790919063ffffffff16565b9050611caf81601560008881526020019081526020016000205461262f90919063ffffffff16565b601560008781526020019081526020016000208190555060006011805490509050600033905060116040518060a001604052808373ffffffffffffffffffffffffffffffffffffffff168152602001898152602001848152602001888152602001600015158152509080600181540180825580915050906001820390600052602060002090600502016000909192909190915060008201518160000160006101000a81548173ffffffffffffffffffffffffffffffffffffffff021916908373ffffffffffffffffffffffffffffffffffffffff16021790555060208201518160010155604082015181600201556060820151816003015560808201518160040160006101000a81548160ff021916908315150217905550505050601460008273ffffffffffffffffffffffffffffffffffffffff1673ffffffffffffffffffffffffffffffffffffffff1681526020019081526020016000208290806001815401808255809150509060018203906000526020600020016000909192909190915055506013600088815260200190815260200160002082908060018154018082558091505090600182039060005260206000200160009091929091909150555060126000878152602001908152602001600020829080600181540180825580915050906001820390600052602060002001600090919290919091505550611eb78183612701565b85877f3210ade2d42380eb21f74419d934cd7b57aea57c0ce9a7b8afe59336780a07da843488886040518085815260200184815260200183815260200182815260200194505050505060405180910390a38194505050505092915050565b611f26611f20612353565b8361235b565b611f7b576040517f08c379a00000000000000000000000000000000000000000000000000000000081526004018080602001828103825260318152602001806136bd6031913960400191505060405180910390fd5b611f8784848484612722565b50505050565b60118181548110611f9a57fe5b90600052602060002090600502016000915090508060000160009054906101000a900473ffffffffffffffffffffffffffffffffffffffff16908060010154908060020154908060030154908060040160009054906101000a900460ff16905085565b600f60009054906101000a900460ff1681565b606061201b826122e1565b612070576040517f08c379a000000000000000000000000000000000000000000000000000000000815260040180806020018281038252602f81526020018061366d602f913960400191505060405180910390fd5b600b60008381526020019081526020016000208054600181600116156101000203166002900480601f0160208091040260200160405190810160405280929190818152602001828054600181600116156101000203166002900480156121175780601f106120ec57610100808354040283529160200191612117565b820191906000526020600020905b8154815290600101906020018083116120fa57829003601f168201915b50505050509050919050565b60156020528060005260406000206000915090505481565b6000600460008473ffffffffffffffffffffffffffffffffffffffff1673ffffffffffffffffffffffffffffffffffffffff16815260200190815260200160002060008373ffffffffffffffffffffffffffffffffffffffff1673ffffffffffffffffffffffffffffffffffffffff16815260200190815260200160002060009054906101000a900460ff16905092915050565b6121e333600c61247390919063ffffffff16565b6121ec57600080fd5b600f60019054906101000a900460ff1661220557600080fd5b600f60009054906101000a900460ff161561221f57600080fd5b6001600f60006101000a81548160ff02191690831515021790555080600f60026101000a81548173ffffffffffffffffffffffffffffffffffffffff021916908373ffffffffffffffffffffffffffffffffffffffff1602179055507f450db8da6efbe9c22f2347f7c2021231df1fc58d3ae9a2fa75d39fa44619930581604051808273ffffffffffffffffffffffffffffffffffffffff1673ffffffffffffffffffffffffffffffffffffffff16815260200191505060405180910390a150565b6000806001600084815260200190815260200160002060009054906101000a900473ffffffffffffffffffffffffffffffffffffffff169050600073ffffffffffffffffffffffffffffffffffffffff168173ffffffffffffffffffffffffffffffffffffffff161415915050919050565b600033905090565b6000612366826122e1565b6123bb576040517f08c379a000000000000000000000000000000000000000000000000000000000815260040180806020018281038252602c81526020018061351e602c913960400191505060405180910390fd5b60006123c6836115af565b90508073ffffffffffffffffffffffffffffffffffffffff168473ffffffffffffffffffffffffffffffffffffffff16148061243557508373ffffffffffffffffffffffffffffffffffffffff1661241d84610fc5565b73ffffffffffffffffffffffffffffffffffffffff16145b806124465750612445818561213b565b5b91505092915050565b61245a838383612794565b61246483826129ef565b61246e8282612b8d565b505050565b60008073ffffffffffffffffffffffffffffffffffffffff168273ffffffffffffffffffffffffffffffffffffffff1614156124fa576040517f08c379a00000000000000000000000000000000000000000000000000000000081526004018080602001828103825260228152602001806136226022913960400191505060405180910390fd5b8260000160008373ffffffffffffffffffffffffffffffffffffffff1673ffffffffffffffffffffffffffffffffffffffff16815260200190815260200160002060009054906101000a900460ff16905092915050565b600081600001549050919050565b60006125a183836040518060400160405280601a81526020017f536166654d6174683a206469766973696f6e206279207a65726f000000000000815250612c54565b905092915050565b6000808314156125bc5760009050612629565b60008284029050828482816125cd57fe5b0414612624576040517f08c379a00000000000000000000000000000000000000000000000000000000081526004018080602001828103825260218152602001806135d56021913960400191505060405180910390fd5b809150505b92915050565b6000808284019050838110156126ad576040517f08c379a000000000000000000000000000000000000000000000000000000000815260040180806020018281038252601b8152602001807f536166654d6174683a206164646974696f6e206f766572666c6f77000000000081525060200191505060405180910390fd5b8091505092915050565b60006126f983836040518060400160405280601e81526020017f536166654d6174683a207375627472616374696f6e206f766572666c6f770000815250612d1a565b905092915050565b61270b8282612dda565b6127158282612b8d565b61271e81612ff2565b5050565b61272d84848461244f565b6127398484848461303e565b61278e576040517f08c379a00000000000000000000000000000000000000000000000000000000081526004018080602001828103825260328152602001806134c86032913960400191505060405180910390fd5b50505050565b8273ffffffffffffffffffffffffffffffffffffffff166127b4826115af565b73ffffffffffffffffffffffffffffffffffffffff1614612820576040517f08c379a00000000000000000000000000000000000000000000000000000000081526004018080602001828103825260298152602001806136446029913960400191505060405180910390fd5b600073ffffffffffffffffffffffffffffffffffffffff168273ffffffffffffffffffffffffffffffffffffffff1614156128a6576040517f08c379a00000000000000000000000000000000000000000000000000000000081526004018080602001828103825260248152602001806134fa6024913960400191505060405180910390fd5b6128af8161322e565b6128f6600360008573ffffffffffffffffffffffffffffffffffffffff1673ffffffffffffffffffffffffffffffffffffffff1681526020019081526020016000206132ec565b61293d600360008473ffffffffffffffffffffffffffffffffffffffff1673ffffffffffffffffffffffffffffffffffffffff16815260200190815260200160002061330f565b816001600083815260200190815260200160002060006101000a81548173ffffffffffffffffffffffffffffffffffffffff021916908373ffffffffffffffffffffffffffffffffffffffff160217905550808273ffffffffffffffffffffffffffffffffffffffff168473ffffffffffffffffffffffffffffffffffffffff167fddf252ad1be2c89b69c2b068fc378daa952ba7f163c4a11628f55a4df523b3ef60405160405180910390a4505050565b6000612a476001600560008673ffffffffffffffffffffffffffffffffffffffff1673ffffffffffffffffffffffffffffffffffffffff168152602001908152602001600020805490506126b790919063ffffffff16565b9050600060066000848152602001908152602001600020549050818114612b34576000600560008673ffffffffffffffffffffffffffffffffffffffff1673ffffffffffffffffffffffffffffffffffffffff1681526020019081526020016000208381548110612ab457fe5b9060005260206000200154905080600560008773ffffffffffffffffffffffffffffffffffffffff1673ffffffffffffffffffffffffffffffffffffffff1681526020019081526020016000208381548110612b0c57fe5b9060005260206000200181905550816006600083815260200190815260200160002081905550505b600560008573ffffffffffffffffffffffffffffffffffffffff1673ffffffffffffffffffffffffffffffffffffffff168152602001908152602001600020805480919060019003612b869190613370565b5050505050565b600560008373ffffffffffffffffffffffffffffffffffffffff1673ffffffffffffffffffffffffffffffffffffffff168152602001908152602001600020805490506006600083815260200190815260200160002081905550600560008373ffffffffffffffffffffffffffffffffffffffff1673ffffffffffffffffffffffffffffffffffffffff1681526020019081526020016000208190806001815401808255809150509060018203906000526020600020016000909192909190915055505050565b60008083118290612d00576040517f08c379a00000000000000000000000000000000000000000000000000000000081526004018080602001828103825283818151815260200191508051906020019080838360005b83811015612cc5578082015181840152602081019050612caa565b50505050905090810190601f168015612cf25780820380516001836020036101000a031916815260200191505b509250505060405180910390fd5b506000838581612d0c57fe5b049050809150509392505050565b6000838311158290612dc7576040517f08c379a00000000000000000000000000000000000000000000000000000000081526004018080602001828103825283818151815260200191508051906020019080838360005b83811015612d8c578082015181840152602081019050612d71565b50505050905090810190601f168015612db95780820380516001836020036101000a031916815260200191505b509250505060405180910390fd5b5060008385039050809150509392505050565b600073ffffffffffffffffffffffffffffffffffffffff168273ffffffffffffffffffffffffffffffffffffffff161415612e7d576040517f08c379a00000000000000000000000000000000000000000000000000000000081526004018080602001828103825260208152602001807f4552433732313a206d696e7420746f20746865207a65726f206164647265737381525060200191505060405180910390fd5b612e86816122e1565b15612ef9576040517f08c379a000000000000000000000000000000000000000000000000000000000815260040180806020018281038252601c8152602001807f4552433732313a20746f6b656e20616c7265616479206d696e7465640000000081525060200191505060405180910390fd5b816001600083815260200190815260200160002060006101000a81548173ffffffffffffffffffffffffffffffffffffffff021916908373ffffffffffffffffffffffffffffffffffffffff160217905550612f92600360008473ffffffffffffffffffffffffffffffffffffffff1673ffffffffffffffffffffffffffffffffffffffff16815260200190815260200160002061330f565b808273ffffffffffffffffffffffffffffffffffffffff16600073ffffffffffffffffffffffffffffffffffffffff167fddf252ad1be2c89b69c2b068fc378daa952ba7f163c4a11628f55a4df523b3ef60405160405180910390a45050565b6007805490506008600083815260200190815260200160002081905550600781908060018154018082558091505090600182039060005260206000200160009091929091909150555050565b600061305f8473ffffffffffffffffffffffffffffffffffffffff16613325565b61306c5760019050613226565b60008473ffffffffffffffffffffffffffffffffffffffff1663150b7a02613092612353565b8887876040518563ffffffff1660e01b8152600401808573ffffffffffffffffffffffffffffffffffffffff1673ffffffffffffffffffffffffffffffffffffffff1681526020018473ffffffffffffffffffffffffffffffffffffffff1673ffffffffffffffffffffffffffffffffffffffff16815260200183815260200180602001828103825283818151815260200191508051906020019080838360005b8381101561314e578082015181840152602081019050613133565b50505050905090810190601f16801561317b5780820380516001836020036101000a031916815260200191505b5095505050505050602060405180830381600087803b15801561319d57600080fd5b505af11580156131b1573d6000803e3d6000fd5b505050506040513d60208110156131c757600080fd5b8101908080519060200190929190505050905063150b7a0260e01b7bffffffffffffffffffffffffffffffffffffffffffffffffffffffff1916817bffffffffffffffffffffffffffffffffffffffffffffffffffffffff1916149150505b949350505050565b600073ffffffffffffffffffffffffffffffffffffffff166002600083815260200190815260200160002060009054906101000a900473ffffffffffffffffffffffffffffffffffffffff1673ffffffffffffffffffffffffffffffffffffffff16146132e95760006002600083815260200190815260200160002060006101000a81548173ffffffffffffffffffffffffffffffffffffffff021916908373ffffffffffffffffffffffffffffffffffffffff1602179055505b50565b613304600182600001546126b790919063ffffffff16565b816000018190555050565b6001816000016000828254019250508190555050565b60008060007fc5d2460186f7233c927e7db2dcc703c0e500b653ca82273b7bfad8045d85a47060001b9050833f91506000801b82141580156133675750808214155b92505050919050565b81548183558181111561339757818360005260206000209182019101613396919061339c565b5b505050565b6133be91905b808211156133ba5760008160009055506001016133a2565b5090565b90565b6133cb8282612473565b1561343e576040517f08c379a000000000000000000000000000000000000000000000000000000000815260040180806020018281038252601f8152602001807f526f6c65733a206163636f756e7420616c72656164792068617320726f6c650081525060200191505060405180910390fd5b60018260000160008373ffffffffffffffffffffffffffffffffffffffff1673ffffffffffffffffffffffffffffffffffffffff16815260200190815260200160002060006101000a81548160ff021916908315150217905550505056fe455243373231456e756d657261626c653a206f776e657220696e646578206f7574206f6620626f756e64734552433732313a207472616e7366657220746f206e6f6e20455243373231526563656976657220696d706c656d656e7465724552433732313a207472616e7366657220746f20746865207a65726f20616464726573734552433732313a206f70657261746f7220717565727920666f72206e6f6e6578697374656e7420746f6b656e4552433732313a20617070726f76652063616c6c6572206973206e6f74206f776e6572206e6f7220617070726f76656420666f7220616c6c4552433732313a2062616c616e636520717565727920666f7220746865207a65726f20616464726573734552433732313a206f776e657220717565727920666f72206e6f6e6578697374656e7420746f6b656e536166654d6174683a206d756c7469706c69636174696f6e206f766572666c6f774552433732313a20617070726f76656420717565727920666f72206e6f6e6578697374656e7420746f6b656e526f6c65733a206163636f756e7420697320746865207a65726f20616464726573734552433732313a207472616e73666572206f6620746f6b656e2074686174206973206e6f74206f776e4552433732314d657461646174613a2055524920717565727920666f72206e6f6e6578697374656e7420746f6b656e4552433732313a20617070726f76616c20746f2063757272656e74206f776e65724552433732313a207472616e736665722063616c6c6572206973206e6f74206f776e6572206e6f7220617070726f766564455243373231456e756d657261626c653a20676c6f62616c20696e646578206f7574206f6620626f756e6473a265627a7a723158205c80e68dc6374e21b8886e9966a0702bdf4e046cabf41c903e0eee149e29d92464736f6c634300050f0032526f6c65733a206163636f756e7420697320746865207a65726f2061646472657373",
  "source": "pragma solidity ^0.5.12;\n\nimport \"./ProShopBase.sol\";\n\n\n/**\n * @title ItemFactory\n * @notice Defines factory and events related to saleable Items (ERC721 tokens)\n */\ncontract ItemFactory is ProShopBase {\n\n    /**\n     * @notice emitted upon the creation of an Item\n     */\n    event NewItem(\n        uint256 indexed shopId,\n        uint256 indexed skuId,\n        uint256 itemId,\n        uint256 amount,\n        uint256 fee,\n        uint256 net\n    );\n\n    /**\n     * @notice Create an Item\n     */\n    function createItem(\n        uint256 _shopId,\n        uint256 _skuId\n    )\n        public\n        payable\n        whenNotPaused\n        returns (uint256)\n    {\n        // Make sure the item can be minted\n        require(stockRoom.canMintItem(_skuId, skuItems[_skuId].length) == true);\n\n        // Make sure enough Ether has been sent\n        require(msg.value == stockRoom.getPriceInEther(_skuId));\n\n        // Calculate and store the franchise fee\n        uint256 franchiseFee = uint256(msg.value.div(100).mul(franchiseFeePercent));\n        franchiseBalance = franchiseBalance.add(franchiseFee);\n\n        // Calculate and store the Shop's net sale amount\n        uint256 shopNetSale = msg.value.sub(franchiseFee);\n        shopBalances[_shopId] = shopBalances[_shopId].add(shopNetSale);\n\n        // Get the item id\n        uint256 itemId = items.length;\n\n        // Get the owner address\n        address owner = msg.sender;\n\n        // Create and store Item\n        items.push(Item(owner, _shopId, itemId, _skuId, false));\n\n        // Add Item ID to Owner's Items list\n        ownedItems[owner].push(itemId);\n\n        // Add the item to the Shop's list of Items minted\n        shopItems[_shopId].push(itemId);\n\n        // Add the item to the SKU's list of Items minted\n        skuItems[_skuId].push(itemId);\n\n        // Mint the token\n        super._mint(owner, itemId);\n\n        // Emit event with the name of the new Item\n        emit NewItem(_shopId, _skuId, itemId, msg.value, franchiseFee, shopNetSale);\n\n        // Return the new Item ID\n        return itemId;\n    }\n\n}",
  "sourcePath": "/Users/cliff/Projects/in-app-pro-shop/contracts/ItemFactory.sol",
  "compiler": {
    "name": "solc",
    "version": "0.5.15+commit.6a57276f.Emscripten.clang"
  },
  "schemaVersion": "3.0.20",
  "updatedAt": "2019-12-28T21:35:08.684Z",
  "devdoc": {
    "methods": {
      "approve(address,uint256)": {
        "details": "Approves another address to transfer the given token ID The zero address indicates there is no approved address. There can only be one approved address per token at a given time. Can only be called by the token owner or an approved operator.",
        "params": {
          "to": "address to be approved for the given token ID",
          "tokenId": "uint256 ID of the token to be approved"
        }
      },
      "balanceOf(address)": {
        "details": "Gets the balance of the specified address.",
        "params": {
          "owner": "address to query the balance of"
        },
        "return": "uint256 representing the amount owned by the passed address"
      },
      "getApproved(uint256)": {
        "details": "Gets the approved address for a token ID, or zero if no address set Reverts if the token ID does not exist.",
        "params": {
          "tokenId": "uint256 ID of the token to query the approval of"
        },
        "return": "address currently approved for the given token ID"
      },
      "isApprovedForAll(address,address)": {
        "details": "Tells whether an operator is approved by a given owner.",
        "params": {
          "operator": "operator address which you want to query the approval of",
          "owner": "owner address which you want to query the approval of"
        },
        "return": "bool whether the given operator is approved by the given owner"
      },
      "name()": {
        "details": "Gets the token name.",
        "return": "string representing the token name"
      },
      "ownerOf(uint256)": {
        "details": "Gets the owner of the specified token ID.",
        "params": {
          "tokenId": "uint256 ID of the token to query the owner of"
        },
        "return": "address currently marked as the owner of the given token ID"
      },
      "pause()": {
        "details": "called by the system administrator to pause, triggers stopped state"
      },
      "safeTransferFrom(address,address,uint256)": {
        "details": "Safely transfers the ownership of a given token ID to another address If the target address is a contract, it must implement {IERC721Receiver-onERC721Received}, which is called upon a safe transfer, and return the magic value `bytes4(keccak256(\"onERC721Received(address,address,uint256,bytes)\"))`; otherwise, the transfer is reverted. Requires the msg.sender to be the owner, approved, or operator",
        "params": {
          "from": "current owner of the token",
          "to": "address to receive the ownership of the given token ID",
          "tokenId": "uint256 ID of the token to be transferred"
        }
      },
      "safeTransferFrom(address,address,uint256,bytes)": {
        "details": "Safely transfers the ownership of a given token ID to another address If the target address is a contract, it must implement {IERC721Receiver-onERC721Received}, which is called upon a safe transfer, and return the magic value `bytes4(keccak256(\"onERC721Received(address,address,uint256,bytes)\"))`; otherwise, the transfer is reverted. Requires the _msgSender() to be the owner, approved, or operator",
        "params": {
          "_data": "bytes data to send along with a safe transfer check",
          "from": "current owner of the token",
          "to": "address to receive the ownership of the given token ID",
          "tokenId": "uint256 ID of the token to be transferred"
        }
      },
      "setApprovalForAll(address,bool)": {
        "details": "Sets or unsets the approval of a given operator An operator is allowed to transfer all tokens of the sender on their behalf.",
        "params": {
          "approved": "representing the status of the approval to be set",
          "to": "operator address to set the approval"
        }
      },
      "supportsInterface(bytes4)": {
        "details": "See {IERC165-supportsInterface}.     * Time complexity O(1), guaranteed to always use less than 30 000 gas."
      },
      "symbol()": {
        "details": "Gets the token symbol.",
        "return": "string representing the token symbol"
      },
      "tokenByIndex(uint256)": {
        "details": "Gets the token ID at a given index of all the tokens in this contract Reverts if the index is greater or equal to the total number of tokens.",
        "params": {
          "index": "uint256 representing the index to be accessed of the tokens list"
        },
        "return": "uint256 token ID at the given index of the tokens list"
      },
      "tokenOfOwnerByIndex(address,uint256)": {
        "details": "Gets the token ID at a given index of the tokens list of the requested owner.",
        "params": {
          "index": "uint256 representing the index to be accessed of the requested tokens list",
          "owner": "address owning the tokens list to be accessed"
        },
        "return": "uint256 token ID at the given index of the tokens list owned by the requested address"
      },
      "tokenURI(uint256)": {
        "details": "Returns an URI for a given token ID. Throws if the token ID does not exist. May return an empty string.",
        "params": {
          "tokenId": "uint256 ID of the token to query"
        }
      },
      "totalSupply()": {
        "details": "Gets the total amount of tokens stored by the contract.",
        "return": "uint256 representing the total amount of tokens"
      },
      "transferFrom(address,address,uint256)": {
        "details": "Transfers the ownership of a given token ID to another address. Usage of this method is discouraged, use {safeTransferFrom} whenever possible. Requires the msg.sender to be the owner, approved, or operator.",
        "params": {
          "from": "current owner of the token",
          "to": "address to receive the ownership of the given token ID",
          "tokenId": "uint256 ID of the token to be transferred"
        }
      },
      "unpause()": {
        "details": "called by the ystem administrator to un-pause, returns to normal state"
      },
      "upgradeContract(address)": {
        "details": "called by a system administrator to  mark the smart contract as upgraded,     in case there is a serious breaking bug. This method stores the new contract     address and emits an event to that effect. Clients of the contract should     update to the new contract address upon receiving this event.     *      This contract will remain paused indefinitely after such an upgrade.",
        "params": {
          "_newAddress": "address of new contract"
        }
      }
    },
    "title": "ItemFactory"
  },
  "userdoc": {
    "methods": {
      "createItem(uint256,uint256)": {
        "notice": "Create an Item"
      }
    },
    "notice": "Defines factory and events related to saleable Items (ERC721 tokens)"
  }
}