{
  "contractName": "ItemFactory",
  "abi": [
    {
      "constant": true,
      "inputs": [
        {
          "name": "",
          "type": "uint256"
        },
        {
          "name": "",
          "type": "uint256"
        }
      ],
      "name": "shopSKUTypes",
      "outputs": [
        {
          "name": "",
          "type": "uint256"
        }
      ],
      "payable": false,
      "stateMutability": "view",
      "type": "function"
    },
    {
      "constant": true,
      "inputs": [
        {
          "name": "_interfaceId",
          "type": "bytes4"
        }
      ],
      "name": "supportsInterface",
      "outputs": [
        {
          "name": "",
          "type": "bool"
        }
      ],
      "payable": false,
      "stateMutability": "view",
      "type": "function"
    },
    {
      "constant": true,
      "inputs": [],
      "name": "name",
      "outputs": [
        {
          "name": "",
          "type": "string"
        }
      ],
      "payable": false,
      "stateMutability": "view",
      "type": "function"
    },
    {
      "constant": true,
      "inputs": [
        {
          "name": "_tokenId",
          "type": "uint256"
        }
      ],
      "name": "getApproved",
      "outputs": [
        {
          "name": "",
          "type": "address"
        }
      ],
      "payable": false,
      "stateMutability": "view",
      "type": "function"
    },
    {
      "constant": false,
      "inputs": [
        {
          "name": "_to",
          "type": "address"
        },
        {
          "name": "_tokenId",
          "type": "uint256"
        }
      ],
      "name": "approve",
      "outputs": [],
      "payable": false,
      "stateMutability": "nonpayable",
      "type": "function"
    },
    {
      "constant": true,
      "inputs": [
        {
          "name": "_operator",
          "type": "address"
        },
        {
          "name": "_role",
          "type": "string"
        }
      ],
      "name": "checkRole",
      "outputs": [],
      "payable": false,
      "stateMutability": "view",
      "type": "function"
    },
    {
      "constant": true,
      "inputs": [],
      "name": "totalSupply",
      "outputs": [
        {
          "name": "",
          "type": "uint256"
        }
      ],
      "payable": false,
      "stateMutability": "view",
      "type": "function"
    },
    {
      "constant": true,
      "inputs": [],
      "name": "TOKEN_NAME",
      "outputs": [
        {
          "name": "",
          "type": "string"
        }
      ],
      "payable": false,
      "stateMutability": "view",
      "type": "function"
    },
    {
      "constant": true,
      "inputs": [
        {
          "name": "_owner",
          "type": "address"
        }
      ],
      "name": "getShopIds",
      "outputs": [
        {
          "name": "",
          "type": "uint256[]"
        }
      ],
      "payable": false,
      "stateMutability": "view",
      "type": "function"
    },
    {
      "constant": true,
      "inputs": [],
      "name": "InterfaceId_ERC165",
      "outputs": [
        {
          "name": "",
          "type": "bytes4"
        }
      ],
      "payable": false,
      "stateMutability": "view",
      "type": "function"
    },
    {
      "constant": true,
      "inputs": [
        {
          "name": "",
          "type": "uint256"
        }
      ],
      "name": "itemToOwner",
      "outputs": [
        {
          "name": "",
          "type": "address"
        }
      ],
      "payable": false,
      "stateMutability": "view",
      "type": "function"
    },
    {
      "constant": true,
      "inputs": [
        {
          "name": "_operator",
          "type": "address"
        },
        {
          "name": "_role",
          "type": "string"
        }
      ],
      "name": "hasRole",
      "outputs": [
        {
          "name": "",
          "type": "bool"
        }
      ],
      "payable": false,
      "stateMutability": "view",
      "type": "function"
    },
    {
      "constant": false,
      "inputs": [
        {
          "name": "_from",
          "type": "address"
        },
        {
          "name": "_to",
          "type": "address"
        },
        {
          "name": "_tokenId",
          "type": "uint256"
        }
      ],
      "name": "transferFrom",
      "outputs": [],
      "payable": false,
      "stateMutability": "nonpayable",
      "type": "function"
    },
    {
      "constant": true,
      "inputs": [
        {
          "name": "",
          "type": "uint256"
        },
        {
          "name": "",
          "type": "uint256"
        }
      ],
      "name": "skuItems",
      "outputs": [
        {
          "name": "",
          "type": "uint256"
        }
      ],
      "payable": false,
      "stateMutability": "view",
      "type": "function"
    },
    {
      "constant": true,
      "inputs": [],
      "name": "TOKEN_SYMBOL",
      "outputs": [
        {
          "name": "",
          "type": "string"
        }
      ],
      "payable": false,
      "stateMutability": "view",
      "type": "function"
    },
    {
      "constant": true,
      "inputs": [
        {
          "name": "",
          "type": "uint256"
        }
      ],
      "name": "shopToOwner",
      "outputs": [
        {
          "name": "",
          "type": "address"
        }
      ],
      "payable": false,
      "stateMutability": "view",
      "type": "function"
    },
    {
      "constant": true,
      "inputs": [
        {
          "name": "_owner",
          "type": "address"
        },
        {
          "name": "_index",
          "type": "uint256"
        }
      ],
      "name": "tokenOfOwnerByIndex",
      "outputs": [
        {
          "name": "",
          "type": "uint256"
        }
      ],
      "payable": false,
      "stateMutability": "view",
      "type": "function"
    },
    {
      "constant": true,
      "inputs": [
        {
          "name": "",
          "type": "uint256"
        }
      ],
      "name": "skus",
      "outputs": [
        {
          "name": "shopId",
          "type": "uint256"
        },
        {
          "name": "skuId",
          "type": "uint256"
        },
        {
          "name": "skuTypeId",
          "type": "uint256"
        },
        {
          "name": "price",
          "type": "uint256"
        },
        {
          "name": "name",
          "type": "string"
        },
        {
          "name": "description",
          "type": "string"
        },
        {
          "name": "consumable",
          "type": "bool"
        },
        {
          "name": "limited",
          "type": "bool"
        },
        {
          "name": "limit",
          "type": "uint256"
        }
      ],
      "payable": false,
      "stateMutability": "view",
      "type": "function"
    },
    {
      "constant": true,
      "inputs": [
        {
          "name": "",
          "type": "uint256"
        }
      ],
      "name": "skuTypeToShop",
      "outputs": [
        {
          "name": "",
          "type": "uint256"
        }
      ],
      "payable": false,
      "stateMutability": "view",
      "type": "function"
    },
    {
      "constant": false,
      "inputs": [],
      "name": "unpause",
      "outputs": [],
      "payable": false,
      "stateMutability": "nonpayable",
      "type": "function"
    },
    {
      "constant": false,
      "inputs": [
        {
          "name": "_from",
          "type": "address"
        },
        {
          "name": "_to",
          "type": "address"
        },
        {
          "name": "_tokenId",
          "type": "uint256"
        }
      ],
      "name": "safeTransferFrom",
      "outputs": [],
      "payable": false,
      "stateMutability": "nonpayable",
      "type": "function"
    },
    {
      "constant": true,
      "inputs": [
        {
          "name": "",
          "type": "address"
        },
        {
          "name": "",
          "type": "uint256"
        }
      ],
      "name": "ownedItems",
      "outputs": [
        {
          "name": "",
          "type": "uint256"
        }
      ],
      "payable": false,
      "stateMutability": "view",
      "type": "function"
    },
    {
      "constant": true,
      "inputs": [
        {
          "name": "_shopId",
          "type": "uint256"
        }
      ],
      "name": "getShop",
      "outputs": [
        {
          "name": "",
          "type": "address"
        },
        {
          "name": "",
          "type": "uint256"
        },
        {
          "name": "",
          "type": "string"
        },
        {
          "name": "",
          "type": "string"
        }
      ],
      "payable": false,
      "stateMutability": "view",
      "type": "function"
    },
    {
      "constant": true,
      "inputs": [],
      "name": "franchiseBalance",
      "outputs": [
        {
          "name": "",
          "type": "uint256"
        }
      ],
      "payable": false,
      "stateMutability": "view",
      "type": "function"
    },
    {
      "constant": false,
      "inputs": [
        {
          "name": "_shopId",
          "type": "uint256"
        },
        {
          "name": "_name",
          "type": "string"
        },
        {
          "name": "_desc",
          "type": "string"
        }
      ],
      "name": "createSKUType",
      "outputs": [
        {
          "name": "",
          "type": "uint256"
        }
      ],
      "payable": false,
      "stateMutability": "nonpayable",
      "type": "function"
    },
    {
      "constant": true,
      "inputs": [],
      "name": "franchiseFeePercent",
      "outputs": [
        {
          "name": "",
          "type": "uint256"
        }
      ],
      "payable": false,
      "stateMutability": "view",
      "type": "function"
    },
    {
      "constant": true,
      "inputs": [
        {
          "name": "_tokenId",
          "type": "uint256"
        }
      ],
      "name": "exists",
      "outputs": [
        {
          "name": "",
          "type": "bool"
        }
      ],
      "payable": false,
      "stateMutability": "view",
      "type": "function"
    },
    {
      "constant": true,
      "inputs": [
        {
          "name": "_index",
          "type": "uint256"
        }
      ],
      "name": "tokenByIndex",
      "outputs": [
        {
          "name": "",
          "type": "uint256"
        }
      ],
      "payable": false,
      "stateMutability": "view",
      "type": "function"
    },
    {
      "constant": true,
      "inputs": [
        {
          "name": "",
          "type": "address"
        },
        {
          "name": "",
          "type": "uint256"
        }
      ],
      "name": "ownedShops",
      "outputs": [
        {
          "name": "",
          "type": "uint256"
        }
      ],
      "payable": false,
      "stateMutability": "view",
      "type": "function"
    },
    {
      "constant": true,
      "inputs": [
        {
          "name": "",
          "type": "uint256"
        }
      ],
      "name": "skuTypes",
      "outputs": [
        {
          "name": "shopId",
          "type": "uint256"
        },
        {
          "name": "skuTypeId",
          "type": "uint256"
        },
        {
          "name": "name",
          "type": "string"
        },
        {
          "name": "description",
          "type": "string"
        }
      ],
      "payable": false,
      "stateMutability": "view",
      "type": "function"
    },
    {
      "constant": true,
      "inputs": [],
      "name": "ROLE_SYS_ADMIN",
      "outputs": [
        {
          "name": "",
          "type": "string"
        }
      ],
      "payable": false,
      "stateMutability": "view",
      "type": "function"
    },
    {
      "constant": true,
      "inputs": [],
      "name": "paused",
      "outputs": [
        {
          "name": "",
          "type": "bool"
        }
      ],
      "payable": false,
      "stateMutability": "view",
      "type": "function"
    },
    {
      "constant": true,
      "inputs": [
        {
          "name": "",
          "type": "uint256"
        },
        {
          "name": "",
          "type": "uint256"
        }
      ],
      "name": "skuTypeSKUs",
      "outputs": [
        {
          "name": "",
          "type": "uint256"
        }
      ],
      "payable": false,
      "stateMutability": "view",
      "type": "function"
    },
    {
      "constant": true,
      "inputs": [
        {
          "name": "_tokenId",
          "type": "uint256"
        }
      ],
      "name": "ownerOf",
      "outputs": [
        {
          "name": "",
          "type": "address"
        }
      ],
      "payable": false,
      "stateMutability": "view",
      "type": "function"
    },
    {
      "constant": true,
      "inputs": [],
      "name": "newContractAddress",
      "outputs": [
        {
          "name": "",
          "type": "address"
        }
      ],
      "payable": false,
      "stateMutability": "view",
      "type": "function"
    },
    {
      "constant": true,
      "inputs": [
        {
          "name": "_owner",
          "type": "address"
        }
      ],
      "name": "balanceOf",
      "outputs": [
        {
          "name": "",
          "type": "uint256"
        }
      ],
      "payable": false,
      "stateMutability": "view",
      "type": "function"
    },
    {
      "constant": true,
      "inputs": [
        {
          "name": "",
          "type": "uint256"
        }
      ],
      "name": "shops",
      "outputs": [
        {
          "name": "owner",
          "type": "address"
        },
        {
          "name": "shopId",
          "type": "uint256"
        },
        {
          "name": "name",
          "type": "string"
        },
        {
          "name": "description",
          "type": "string"
        }
      ],
      "payable": false,
      "stateMutability": "view",
      "type": "function"
    },
    {
      "constant": false,
      "inputs": [
        {
          "name": "_newAddress",
          "type": "address"
        }
      ],
      "name": "setNewAddress",
      "outputs": [],
      "payable": false,
      "stateMutability": "nonpayable",
      "type": "function"
    },
    {
      "constant": true,
      "inputs": [
        {
          "name": "",
          "type": "uint256"
        },
        {
          "name": "",
          "type": "uint256"
        }
      ],
      "name": "shopItems",
      "outputs": [
        {
          "name": "",
          "type": "uint256"
        }
      ],
      "payable": false,
      "stateMutability": "view",
      "type": "function"
    },
    {
      "constant": true,
      "inputs": [],
      "name": "ROLE_SHOP_OWNER",
      "outputs": [
        {
          "name": "",
          "type": "string"
        }
      ],
      "payable": false,
      "stateMutability": "view",
      "type": "function"
    },
    {
      "constant": false,
      "inputs": [],
      "name": "pause",
      "outputs": [],
      "payable": false,
      "stateMutability": "nonpayable",
      "type": "function"
    },
    {
      "constant": true,
      "inputs": [
        {
          "name": "",
          "type": "uint256"
        },
        {
          "name": "",
          "type": "uint256"
        }
      ],
      "name": "shopSKUs",
      "outputs": [
        {
          "name": "",
          "type": "uint256"
        }
      ],
      "payable": false,
      "stateMutability": "view",
      "type": "function"
    },
    {
      "constant": true,
      "inputs": [
        {
          "name": "",
          "type": "uint256"
        }
      ],
      "name": "skuToShop",
      "outputs": [
        {
          "name": "",
          "type": "uint256"
        }
      ],
      "payable": false,
      "stateMutability": "view",
      "type": "function"
    },
    {
      "constant": true,
      "inputs": [],
      "name": "symbol",
      "outputs": [
        {
          "name": "",
          "type": "string"
        }
      ],
      "payable": false,
      "stateMutability": "view",
      "type": "function"
    },
    {
      "constant": false,
      "inputs": [
        {
          "name": "_shopId",
          "type": "uint256"
        },
        {
          "name": "_skuTypeId",
          "type": "uint256"
        },
        {
          "name": "_price",
          "type": "uint256"
        },
        {
          "name": "_name",
          "type": "string"
        },
        {
          "name": "_desc",
          "type": "string"
        },
        {
          "name": "_consumable",
          "type": "bool"
        },
        {
          "name": "_limited",
          "type": "bool"
        },
        {
          "name": "_limit",
          "type": "uint256"
        }
      ],
      "name": "createSKU",
      "outputs": [
        {
          "name": "",
          "type": "uint256"
        }
      ],
      "payable": false,
      "stateMutability": "nonpayable",
      "type": "function"
    },
    {
      "constant": false,
      "inputs": [
        {
          "name": "_to",
          "type": "address"
        },
        {
          "name": "_approved",
          "type": "bool"
        }
      ],
      "name": "setApprovalForAll",
      "outputs": [],
      "payable": false,
      "stateMutability": "nonpayable",
      "type": "function"
    },
    {
      "constant": true,
      "inputs": [
        {
          "name": "",
          "type": "uint256"
        }
      ],
      "name": "itemToShop",
      "outputs": [
        {
          "name": "",
          "type": "uint256"
        }
      ],
      "payable": false,
      "stateMutability": "view",
      "type": "function"
    },
    {
      "constant": false,
      "inputs": [
        {
          "name": "_name",
          "type": "string"
        },
        {
          "name": "_desc",
          "type": "string"
        }
      ],
      "name": "createShop",
      "outputs": [
        {
          "name": "",
          "type": "uint256"
        }
      ],
      "payable": false,
      "stateMutability": "nonpayable",
      "type": "function"
    },
    {
      "constant": false,
      "inputs": [
        {
          "name": "_from",
          "type": "address"
        },
        {
          "name": "_to",
          "type": "address"
        },
        {
          "name": "_tokenId",
          "type": "uint256"
        },
        {
          "name": "_data",
          "type": "bytes"
        }
      ],
      "name": "safeTransferFrom",
      "outputs": [],
      "payable": false,
      "stateMutability": "nonpayable",
      "type": "function"
    },
    {
      "constant": true,
      "inputs": [
        {
          "name": "",
          "type": "uint256"
        }
      ],
      "name": "items",
      "outputs": [
        {
          "name": "owner",
          "type": "address"
        },
        {
          "name": "shopId",
          "type": "uint256"
        },
        {
          "name": "itemId",
          "type": "uint256"
        },
        {
          "name": "skuTypeId",
          "type": "uint256"
        },
        {
          "name": "skuId",
          "type": "uint256"
        },
        {
          "name": "consumed",
          "type": "bool"
        }
      ],
      "payable": false,
      "stateMutability": "view",
      "type": "function"
    },
    {
      "constant": true,
      "inputs": [
        {
          "name": "_tokenId",
          "type": "uint256"
        }
      ],
      "name": "tokenURI",
      "outputs": [
        {
          "name": "",
          "type": "string"
        }
      ],
      "payable": false,
      "stateMutability": "view",
      "type": "function"
    },
    {
      "constant": true,
      "inputs": [],
      "name": "ROLE_FRANCHISE_OWNER",
      "outputs": [
        {
          "name": "",
          "type": "string"
        }
      ],
      "payable": false,
      "stateMutability": "view",
      "type": "function"
    },
    {
      "constant": true,
      "inputs": [
        {
          "name": "_shopId",
          "type": "uint256"
        }
      ],
      "name": "getShopSKUCount",
      "outputs": [
        {
          "name": "",
          "type": "uint256"
        }
      ],
      "payable": false,
      "stateMutability": "view",
      "type": "function"
    },
    {
      "constant": true,
      "inputs": [
        {
          "name": "_owner",
          "type": "address"
        }
      ],
      "name": "getShopCount",
      "outputs": [
        {
          "name": "",
          "type": "uint256"
        }
      ],
      "payable": false,
      "stateMutability": "view",
      "type": "function"
    },
    {
      "constant": true,
      "inputs": [
        {
          "name": "_shopId",
          "type": "uint256"
        }
      ],
      "name": "getShopName",
      "outputs": [
        {
          "name": "",
          "type": "string"
        }
      ],
      "payable": false,
      "stateMutability": "view",
      "type": "function"
    },
    {
      "constant": true,
      "inputs": [
        {
          "name": "_skuId",
          "type": "uint256"
        }
      ],
      "name": "getSKUName",
      "outputs": [
        {
          "name": "",
          "type": "string"
        }
      ],
      "payable": false,
      "stateMutability": "view",
      "type": "function"
    },
    {
      "constant": true,
      "inputs": [
        {
          "name": "",
          "type": "uint256"
        }
      ],
      "name": "shopBalances",
      "outputs": [
        {
          "name": "",
          "type": "uint256"
        }
      ],
      "payable": false,
      "stateMutability": "view",
      "type": "function"
    },
    {
      "constant": true,
      "inputs": [
        {
          "name": "_owner",
          "type": "address"
        },
        {
          "name": "_operator",
          "type": "address"
        }
      ],
      "name": "isApprovedForAll",
      "outputs": [
        {
          "name": "",
          "type": "bool"
        }
      ],
      "payable": false,
      "stateMutability": "view",
      "type": "function"
    },
    {
      "constant": true,
      "inputs": [
        {
          "name": "_skuTypeId",
          "type": "uint256"
        }
      ],
      "name": "getSKUTypeSKUCount",
      "outputs": [
        {
          "name": "",
          "type": "uint256"
        }
      ],
      "payable": false,
      "stateMutability": "view",
      "type": "function"
    },
    {
      "constant": true,
      "inputs": [
        {
          "name": "_skuTypeId",
          "type": "uint256"
        }
      ],
      "name": "getSKUTypeName",
      "outputs": [
        {
          "name": "",
          "type": "string"
        }
      ],
      "payable": false,
      "stateMutability": "view",
      "type": "function"
    },
    {
      "constant": true,
      "inputs": [
        {
          "name": "_shopId",
          "type": "uint256"
        }
      ],
      "name": "getShopSKUTypeCount",
      "outputs": [
        {
          "name": "",
          "type": "uint256"
        }
      ],
      "payable": false,
      "stateMutability": "view",
      "type": "function"
    },
    {
      "anonymous": false,
      "inputs": [
        {
          "indexed": true,
          "name": "shopId",
          "type": "uint256"
        },
        {
          "indexed": true,
          "name": "skuId",
          "type": "uint256"
        },
        {
          "indexed": true,
          "name": "skuTypeId",
          "type": "uint256"
        },
        {
          "indexed": false,
          "name": "itemId",
          "type": "uint256"
        },
        {
          "indexed": false,
          "name": "name",
          "type": "string"
        },
        {
          "indexed": false,
          "name": "price",
          "type": "uint256"
        },
        {
          "indexed": false,
          "name": "fee",
          "type": "uint256"
        },
        {
          "indexed": false,
          "name": "net",
          "type": "uint256"
        }
      ],
      "name": "NewItem",
      "type": "event"
    },
    {
      "anonymous": false,
      "inputs": [
        {
          "indexed": true,
          "name": "shopId",
          "type": "uint256"
        },
        {
          "indexed": false,
          "name": "skuId",
          "type": "uint256"
        },
        {
          "indexed": false,
          "name": "name",
          "type": "string"
        }
      ],
      "name": "NewSKU",
      "type": "event"
    },
    {
      "anonymous": false,
      "inputs": [
        {
          "indexed": true,
          "name": "shopId",
          "type": "uint256"
        },
        {
          "indexed": false,
          "name": "skuTypeId",
          "type": "uint256"
        },
        {
          "indexed": false,
          "name": "name",
          "type": "string"
        }
      ],
      "name": "NewSKUType",
      "type": "event"
    },
    {
      "anonymous": false,
      "inputs": [
        {
          "indexed": true,
          "name": "shopId",
          "type": "uint256"
        },
        {
          "indexed": false,
          "name": "name",
          "type": "string"
        }
      ],
      "name": "NewShop",
      "type": "event"
    },
    {
      "anonymous": false,
      "inputs": [
        {
          "indexed": false,
          "name": "newContract",
          "type": "address"
        }
      ],
      "name": "ContractUpgrade",
      "type": "event"
    },
    {
      "anonymous": false,
      "inputs": [],
      "name": "ContractPaused",
      "type": "event"
    },
    {
      "anonymous": false,
      "inputs": [],
      "name": "ContractUnpaused",
      "type": "event"
    },
    {
      "anonymous": false,
      "inputs": [
        {
          "indexed": true,
          "name": "_from",
          "type": "address"
        },
        {
          "indexed": true,
          "name": "_to",
          "type": "address"
        },
        {
          "indexed": true,
          "name": "_tokenId",
          "type": "uint256"
        }
      ],
      "name": "Transfer",
      "type": "event"
    },
    {
      "anonymous": false,
      "inputs": [
        {
          "indexed": true,
          "name": "_owner",
          "type": "address"
        },
        {
          "indexed": true,
          "name": "_approved",
          "type": "address"
        },
        {
          "indexed": true,
          "name": "_tokenId",
          "type": "uint256"
        }
      ],
      "name": "Approval",
      "type": "event"
    },
    {
      "anonymous": false,
      "inputs": [
        {
          "indexed": true,
          "name": "_owner",
          "type": "address"
        },
        {
          "indexed": true,
          "name": "_operator",
          "type": "address"
        },
        {
          "indexed": false,
          "name": "_approved",
          "type": "bool"
        }
      ],
      "name": "ApprovalForAll",
      "type": "event"
    },
    {
      "anonymous": false,
      "inputs": [
        {
          "indexed": true,
          "name": "operator",
          "type": "address"
        },
        {
          "indexed": false,
          "name": "role",
          "type": "string"
        }
      ],
      "name": "RoleAdded",
      "type": "event"
    },
    {
      "anonymous": false,
      "inputs": [
        {
          "indexed": true,
          "name": "operator",
          "type": "address"
        },
        {
          "indexed": false,
          "name": "role",
          "type": "string"
        }
      ],
      "name": "RoleRemoved",
      "type": "event"
    },
    {
      "constant": false,
      "inputs": [
        {
          "name": "_shopId",
          "type": "uint256"
        },
        {
          "name": "_skuId",
          "type": "uint256"
        }
      ],
      "name": "createItem",
      "outputs": [
        {
          "name": "",
          "type": "uint256"
        }
      ],
      "payable": true,
      "stateMutability": "payable",
      "type": "function"
    },
    {
      "constant": true,
      "inputs": [
        {
          "name": "_skuId",
          "type": "uint256"
        }
      ],
      "name": "canMintItem",
      "outputs": [
        {
          "name": "",
          "type": "bool"
        }
      ],
      "payable": false,
      "stateMutability": "view",
      "type": "function"
    },
    {
      "constant": true,
      "inputs": [
        {
          "name": "_itemId",
          "type": "uint256"
        }
      ],
      "name": "getItemName",
      "outputs": [
        {
          "name": "",
          "type": "string"
        }
      ],
      "payable": false,
      "stateMutability": "view",
      "type": "function"
    },
    {
      "constant": true,
      "inputs": [
        {
          "name": "_itemId",
          "type": "uint256"
        }
      ],
      "name": "getItemType",
      "outputs": [
        {
          "name": "",
          "type": "string"
        }
      ],
      "payable": false,
      "stateMutability": "view",
      "type": "function"
    },
    {
      "constant": true,
      "inputs": [
        {
          "name": "_shopId",
          "type": "uint256"
        }
      ],
      "name": "getShopItemCount",
      "outputs": [
        {
          "name": "",
          "type": "uint256"
        }
      ],
      "payable": false,
      "stateMutability": "view",
      "type": "function"
    },
    {
      "constant": true,
      "inputs": [
        {
          "name": "_skuId",
          "type": "uint256"
        }
      ],
      "name": "getSKUItemCount",
      "outputs": [
        {
          "name": "",
          "type": "uint256"
        }
      ],
      "payable": false,
      "stateMutability": "view",
      "type": "function"
    },
    {
      "constant": true,
      "inputs": [
        {
          "name": "_owner",
          "type": "address"
        }
      ],
      "name": "getItemCount",
      "outputs": [
        {
          "name": "",
          "type": "uint256"
        }
      ],
      "payable": false,
      "stateMutability": "view",
      "type": "function"
    },
    {
      "constant": true,
      "inputs": [
        {
          "name": "_owner",
          "type": "address"
        }
      ],
      "name": "getItemIds",
      "outputs": [
        {
          "name": "",
          "type": "uint256[]"
        }
      ],
      "payable": false,
      "stateMutability": "view",
      "type": "function"
    }
  ],
  "bytecode": "0x60806040526000602060006101000a81548160ff0219169083151502179055506040805190810160405280601081526020017f496e41707050726f53686f704974656d000000000000000000000000000000008152506040805190810160405280600481526020017f4941505300000000000000000000000000000000000000000000000000000000815250620000c86301ffc9a77c010000000000000000000000000000000000000000000000000000000002620002b1640100000000026401000000009004565b620001056380ac58cd7c010000000000000000000000000000000000000000000000000000000002620002b1640100000000026401000000009004565b62000142634f558e797c010000000000000000000000000000000000000000000000000000000002620002b1640100000000026401000000009004565b81600690805190602001906200015a92919062000516565b5080600790805190602001906200017392919062000516565b50620001b163780e9d637c010000000000000000000000000000000000000000000000000000000002620002b1640100000000026401000000009004565b620001ee635b5e139f7c010000000000000000000000000000000000000000000000000000000002620002b1640100000000026401000000009004565b50506001602060006101000a81548160ff0219169083151502179055506200025b336040805190810160405280601181526020017f726f6c652f73797374656d2d61646d696e0000000000000000000000000000008152506200036f640100000000026401000000009004565b620002ab336040805190810160405280601481526020017f726f6c652f6672616e63686973652d6f776e65720000000000000000000000008152506200036f640100000000026401000000009004565b620005c5565b63ffffffff7c010000000000000000000000000000000000000000000000000000000002817bffffffffffffffffffffffffffffffffffffffffffffffffffffffff1916141515156200030357600080fd5b6001806000837bffffffffffffffffffffffffffffffffffffffffffffffffffffffff19167bffffffffffffffffffffffffffffffffffffffffffffffffffffffff1916815260200190815260200160002060006101000a81548160ff02191690831515021790555050565b620003fe826000836040518082805190602001908083835b602083101515620003ae578051825260208201915060208101905060208303925062000387565b6001836020036101000a0380198251168184511680821785525050505050509050019150509081526020016040518091039020620004b86401000000000262005854179091906401000000009004565b8173ffffffffffffffffffffffffffffffffffffffff167fbfec83d64eaa953f2708271a023ab9ee82057f8f3578d548c1a4ba0b5b700489826040518080602001828103825283818151815260200191508051906020019080838360005b83811015620004795780820151818401526020810190506200045c565b50505050905090810190601f168015620004a75780820380516001836020036101000a031916815260200191505b509250505060405180910390a25050565b60018260000160008373ffffffffffffffffffffffffffffffffffffffff1673ffffffffffffffffffffffffffffffffffffffff16815260200190815260200160002060006101000a81548160ff0219169083151502179055505050565b828054600181600116156101000203166002900490600052602060002090601f016020900481019282601f106200055957805160ff19168380011785556200058a565b828001600101855582156200058a579182015b82811115620005895782518255916020019190600101906200056c565b5b5090506200059991906200059d565b5090565b620005c291905b80821115620005be576000816000905550600101620005a4565b5090565b90565b6159c280620005d56000396000f30060806040526004361061032d576000357c0100000000000000000000000000000000000000000000000000000000900463ffffffff16806301ba75391461033257806301ffc9a71461037d57806306fdde03146103e1578063081812fc14610471578063095ea7b3146104de5780630988ca8c1461052b57806318160ddd146105b457806318821400146105df578063199f0b171461066f57806319fa8f50146107075780631a4d96cd14610770578063217fe6c6146107dd57806323b872dd1461087e57806327bcfd61146108eb5780632a905318146109365780632cf0d92a146109c65780632f745c5914610a3357806335007f0e14610a945780633632929414610bdf5780633f4ba83a14610c2057806342842e0e14610c375780634284653414610ca457806345b727f314610d05578063477e2b3c14610e51578063488d136e14610e7c5780634b2aecdc14610f495780634beaf13d14610f745780634f558e7914610fb55780634f6ccce714610ffa57806351b4fc7e1461103b578063531e005b1461109c57806356de8ccd146111bc5780635c975abb1461124c5780635ded461a1461127b5780636352211e146112c65780636af04a571461133357806370a082311461138a578063713aca74146113e1578063715879881461152d5780637ceab6b0146115705780637e1ae976146115bb5780638456cb591461164b578063910339401461166257806394eccbbf146116ad57806395d89b41146116ee57806397fcb0811461177e5780639b996ad214611881578063a22cb465146118c2578063a9cb6d7314611911578063adae08dd14611952578063b4abc38114611990578063b86c7c9314611a53578063b88d4fde14611aeb578063b91159cd14611b9e578063bfb231d214611be3578063c19a4ef514611c77578063c87b56dd14611d1d578063cb1b200114611dc3578063d055454614611e53578063d4026f3114611e94578063d42f30be14611eeb578063d9561a9114611f42578063dde0e93214611fe8578063dffec1e91461208e578063e659ebef14612134578063e985e9c514612175578063f6faa78b146121f0578063f9fe984614612231578063fac97137146122d7575b600080fd5b34801561033e57600080fd5b506103676004803603810190808035906020019092919080359060200190929190505050612318565b6040518082815260200191505060405180910390f35b34801561038957600080fd5b506103c760048036038101908080357bffffffffffffffffffffffffffffffffffffffffffffffffffffffff19169060200190929190505050612348565b604051808215151515815260200191505060405180910390f35b3480156103ed57600080fd5b506103f66123b0565b6040518080602001828103825283818151815260200191508051906020019080838360005b8381101561043657808201518184015260208101905061041b565b50505050905090810190601f1680156104635780820380516001836020036101000a031916815260200191505b509250505060405180910390f35b34801561047d57600080fd5b5061049c60048036038101908080359060200190929190505050612452565b604051808273ffffffffffffffffffffffffffffffffffffffff1673ffffffffffffffffffffffffffffffffffffffff16815260200191505060405180910390f35b3480156104ea57600080fd5b50610529600480360381019080803573ffffffffffffffffffffffffffffffffffffffff1690602001909291908035906020019092919050505061248f565b005b34801561053757600080fd5b506105b2600480360381019080803573ffffffffffffffffffffffffffffffffffffffff169060200190929190803590602001908201803590602001908080601f01602080910402602001604051908101604052809392919081815260200183838082843782019150505050505091929192905050506125d4565b005b3480156105c057600080fd5b506105c9612655565b6040518082815260200191505060405180910390f35b3480156105eb57600080fd5b506105f4612662565b6040518080602001828103825283818151815260200191508051906020019080838360005b83811015610634578082015181840152602081019050610619565b50505050905090810190601f1680156106615780820380516001836020036101000a031916815260200191505b509250505060405180910390f35b34801561067b57600080fd5b506106b0600480360381019080803573ffffffffffffffffffffffffffffffffffffffff16906020019092919050505061269b565b6040518080602001828103825283818151815260200191508051906020019060200280838360005b838110156106f35780820151818401526020810190506106d8565b505050509050019250505060405180910390f35b34801561071357600080fd5b5061071c612732565b60405180827bffffffffffffffffffffffffffffffffffffffffffffffffffffffff19167bffffffffffffffffffffffffffffffffffffffffffffffffffffffff1916815260200191505060405180910390f35b34801561077c57600080fd5b5061079b60048036038101908080359060200190929190505050612759565b604051808273ffffffffffffffffffffffffffffffffffffffff1673ffffffffffffffffffffffffffffffffffffffff16815260200191505060405180910390f35b3480156107e957600080fd5b50610864600480360381019080803573ffffffffffffffffffffffffffffffffffffffff169060200190929190803590602001908201803590602001908080601f016020809104026020016040519081016040528093929190818152602001838380828437820191505050505050919291929050505061278c565b604051808215151515815260200191505060405180910390f35b34801561088a57600080fd5b506108e9600480360381019080803573ffffffffffffffffffffffffffffffffffffffff169060200190929190803573ffffffffffffffffffffffffffffffffffffffff16906020019092919080359060200190929190505050612813565b005b3480156108f757600080fd5b506109206004803603810190808035906020019092919080359060200190929190505050612920565b6040518082815260200191505060405180910390f35b34801561094257600080fd5b5061094b612950565b6040518080602001828103825283818151815260200191508051906020019080838360005b8381101561098b578082015181840152602081019050610970565b50505050905090810190601f1680156109b85780820380516001836020036101000a031916815260200191505b509250505060405180910390f35b3480156109d257600080fd5b506109f160048036038101908080359060200190929190505050612989565b604051808273ffffffffffffffffffffffffffffffffffffffff1673ffffffffffffffffffffffffffffffffffffffff16815260200191505060405180910390f35b348015610a3f57600080fd5b50610a7e600480360381019080803573ffffffffffffffffffffffffffffffffffffffff169060200190929190803590602001909291905050506129bc565b6040518082815260200191505060405180910390f35b348015610aa057600080fd5b50610abf60048036038101908080359060200190929190505050612a33565b604051808a815260200189815260200188815260200187815260200180602001806020018615151515815260200185151515158152602001848152602001838103835288818151815260200191508051906020019080838360005b83811015610b35578082015181840152602081019050610b1a565b50505050905090810190601f168015610b625780820380516001836020036101000a031916815260200191505b50838103825287818151815260200191508051906020019080838360005b83811015610b9b578082015181840152602081019050610b80565b50505050905090810190601f168015610bc85780820380516001836020036101000a031916815260200191505b509b50505050505050505050505060405180910390f35b348015610beb57600080fd5b50610c0a60048036038101908080359060200190929190505050612bda565b6040518082815260200191505060405180910390f35b348015610c2c57600080fd5b50610c35612bf2565b005b348015610c4357600080fd5b50610ca2600480360381019080803573ffffffffffffffffffffffffffffffffffffffff169060200190929190803573ffffffffffffffffffffffffffffffffffffffff16906020019092919080359060200190929190505050612c95565b005b348015610cb057600080fd5b50610cef600480360381019080803573ffffffffffffffffffffffffffffffffffffffff16906020019092919080359060200190929190505050612ccd565b6040518082815260200191505060405180910390f35b348015610d1157600080fd5b50610d3060048036038101908080359060200190929190505050612cfd565b604051808573ffffffffffffffffffffffffffffffffffffffff1673ffffffffffffffffffffffffffffffffffffffff1681526020018481526020018060200180602001838103835285818151815260200191508051906020019080838360005b83811015610dac578082015181840152602081019050610d91565b50505050905090810190601f168015610dd95780820380516001836020036101000a031916815260200191505b50838103825284818151815260200191508051906020019080838360005b83811015610e12578082015181840152602081019050610df7565b50505050905090810190601f168015610e3f5780820380516001836020036101000a031916815260200191505b50965050505050505060405180910390f35b348015610e5d57600080fd5b50610e66612f00565b6040518082815260200191505060405180910390f35b348015610e8857600080fd5b50610f3360048036038101908080359060200190929190803590602001908201803590602001908080601f0160208091040260200160405190810160405280939291908181526020018383808284378201915050505050509192919290803590602001908201803590602001908080601f0160208091040260200160405190810160405280939291908181526020018383808284378201915050505050509192919290505050612f06565b6040518082815260200191505060405180910390f35b348015610f5557600080fd5b50610f5e61312b565b6040518082815260200191505060405180910390f35b348015610f8057600080fd5b50610f9f60048036038101908080359060200190929190505050613131565b6040518082815260200191505060405180910390f35b348015610fc157600080fd5b50610fe060048036038101908080359060200190929190505050613151565b604051808215151515815260200191505060405180910390f35b34801561100657600080fd5b50611025600480360381019080803590602001909291905050506131c3565b6040518082815260200191505060405180910390f35b34801561104757600080fd5b50611086600480360381019080803573ffffffffffffffffffffffffffffffffffffffff169060200190929190803590602001909291905050506131fb565b6040518082815260200191505060405180910390f35b3480156110a857600080fd5b506110c76004803603810190808035906020019092919050505061322b565b604051808581526020018481526020018060200180602001838103835285818151815260200191508051906020019080838360005b838110156111175780820151818401526020810190506110fc565b50505050905090810190601f1680156111445780820380516001836020036101000a031916815260200191505b50838103825284818151815260200191508051906020019080838360005b8381101561117d578082015181840152602081019050611162565b50505050905090810190601f1680156111aa5780820380516001836020036101000a031916815260200191505b50965050505050505060405180910390f35b3480156111c857600080fd5b506111d161339a565b6040518080602001828103825283818151815260200191508051906020019080838360005b838110156112115780820151818401526020810190506111f6565b50505050905090810190601f16801561123e5780820380516001836020036101000a031916815260200191505b509250505060405180910390f35b34801561125857600080fd5b506112616133d3565b604051808215151515815260200191505060405180910390f35b34801561128757600080fd5b506112b060048036038101908080359060200190929190803590602001909291905050506133e6565b6040518082815260200191505060405180910390f35b3480156112d257600080fd5b506112f160048036038101908080359060200190929190505050613416565b604051808273ffffffffffffffffffffffffffffffffffffffff1673ffffffffffffffffffffffffffffffffffffffff16815260200191505060405180910390f35b34801561133f57600080fd5b50611348613494565b604051808273ffffffffffffffffffffffffffffffffffffffff1673ffffffffffffffffffffffffffffffffffffffff16815260200191505060405180910390f35b34801561139657600080fd5b506113cb600480360381019080803573ffffffffffffffffffffffffffffffffffffffff1690602001909291905050506134ba565b6040518082815260200191505060405180910390f35b3480156113ed57600080fd5b5061140c6004803603810190808035906020019092919050505061353e565b604051808573ffffffffffffffffffffffffffffffffffffffff1673ffffffffffffffffffffffffffffffffffffffff1681526020018481526020018060200180602001838103835285818151815260200191508051906020019080838360005b8381101561148857808201518184015260208101905061146d565b50505050905090810190601f1680156114b55780820380516001836020036101000a031916815260200191505b50838103825284818151815260200191508051906020019080838360005b838110156114ee5780820151818401526020810190506114d3565b50505050905090810190601f16801561151b5780820380516001836020036101000a031916815260200191505b50965050505050505060405180910390f35b34801561153957600080fd5b5061156e600480360381019080803573ffffffffffffffffffffffffffffffffffffffff1690602001909291905050506136cd565b005b34801561157c57600080fd5b506115a560048036038101908080359060200190929190803590602001909291905050506137ce565b6040518082815260200191505060405180910390f35b3480156115c757600080fd5b506115d06137fe565b6040518080602001828103825283818151815260200191508051906020019080838360005b838110156116105780820151818401526020810190506115f5565b50505050905090810190601f16801561163d5780820380516001836020036101000a031916815260200191505b509250505060405180910390f35b34801561165757600080fd5b50611660613837565b005b34801561166e57600080fd5b5061169760048036038101908080359060200190929190803590602001909291905050506138db565b6040518082815260200191505060405180910390f35b3480156116b957600080fd5b506116d86004803603810190808035906020019092919050505061390b565b6040518082815260200191505060405180910390f35b3480156116fa57600080fd5b50611703613923565b6040518080602001828103825283818151815260200191508051906020019080838360005b83811015611743578082015181840152602081019050611728565b50505050905090810190601f1680156117705780820380516001836020036101000a031916815260200191505b509250505060405180910390f35b34801561178a57600080fd5b5061186b600480360381019080803590602001909291908035906020019092919080359060200190929190803590602001908201803590602001908080601f0160208091040260200160405190810160405280939291908181526020018383808284378201915050505050509192919290803590602001908201803590602001908080601f0160208091040260200160405190810160405280939291908181526020018383808284378201915050505050509192919290803515159060200190929190803515159060200190929190803590602001909291905050506139c5565b6040518082815260200191505060405180910390f35b34801561188d57600080fd5b506118ac60048036038101908080359060200190929190505050613cbd565b6040518082815260200191505060405180910390f35b3480156118ce57600080fd5b5061190f600480360381019080803573ffffffffffffffffffffffffffffffffffffffff169060200190929190803515159060200190929190505050613cdd565b005b34801561191d57600080fd5b5061193c60048036038101908080359060200190929190505050613e19565b6040518082815260200191505060405180910390f35b61197a6004803603810190808035906020019092919080359060200190929190505050613e31565b6040518082815260200191505060405180910390f35b34801561199c57600080fd5b50611a3d600480360381019080803590602001908201803590602001908080601f0160208091040260200160405190810160405280939291908181526020018383808284378201915050505050509192919290803590602001908201803590602001908080601f0160208091040260200160405190810160405280939291908181526020018383808284378201915050505050509192919290505050614287565b6040518082815260200191505060405180910390f35b348015611a5f57600080fd5b50611a94600480360381019080803573ffffffffffffffffffffffffffffffffffffffff16906020019092919050505061452c565b6040518080602001828103825283818151815260200191508051906020019060200280838360005b83811015611ad7578082015181840152602081019050611abc565b505050509050019250505060405180910390f35b348015611af757600080fd5b50611b9c600480360381019080803573ffffffffffffffffffffffffffffffffffffffff169060200190929190803573ffffffffffffffffffffffffffffffffffffffff16906020019092919080359060200190929190803590602001908201803590602001908080601f01602080910402602001604051908101604052809392919081815260200183838082843782019150505050505091929192905050506145c3565b005b348015611baa57600080fd5b50611bc960048036038101908080359060200190929190505050614602565b604051808215151515815260200191505060405180910390f35b348015611bef57600080fd5b50611c0e6004803603810190808035906020019092919050505061466c565b604051808773ffffffffffffffffffffffffffffffffffffffff1673ffffffffffffffffffffffffffffffffffffffff16815260200186815260200185815260200184815260200183815260200182151515158152602001965050505050505060405180910390f35b348015611c8357600080fd5b50611ca2600480360381019080803590602001909291905050506146e4565b6040518080602001828103825283818151815260200191508051906020019080838360005b83811015611ce2578082015181840152602081019050611cc7565b50505050905090810190601f168015611d0f5780820380516001836020036101000a031916815260200191505b509250505060405180910390f35b348015611d2957600080fd5b50611d4860048036038101908080359060200190929190505050614716565b6040518080602001828103825283818151815260200191508051906020019080838360005b83811015611d88578082015181840152602081019050611d6d565b50505050905090810190601f168015611db55780820380516001836020036101000a031916815260200191505b509250505060405180910390f35b348015611dcf57600080fd5b50611dd86147df565b6040518080602001828103825283818151815260200191508051906020019080838360005b83811015611e18578082015181840152602081019050611dfd565b50505050905090810190601f168015611e455780820380516001836020036101000a031916815260200191505b509250505060405180910390f35b348015611e5f57600080fd5b50611e7e60048036038101908080359060200190929190505050614818565b6040518082815260200191505060405180910390f35b348015611ea057600080fd5b50611ed5600480360381019080803573ffffffffffffffffffffffffffffffffffffffff169060200190929190505050614838565b6040518082815260200191505060405180910390f35b348015611ef757600080fd5b50611f2c600480360381019080803573ffffffffffffffffffffffffffffffffffffffff169060200190929190505050614884565b6040518082815260200191505060405180910390f35b348015611f4e57600080fd5b50611f6d600480360381019080803590602001909291905050506148d0565b6040518080602001828103825283818151815260200191508051906020019080838360005b83811015611fad578082015181840152602081019050611f92565b50505050905090810190601f168015611fda5780820380516001836020036101000a031916815260200191505b509250505060405180910390f35b348015611ff457600080fd5b5061201360048036038101908080359060200190929190505050614902565b6040518080602001828103825283818151815260200191508051906020019080838360005b83811015612053578082015181840152602081019050612038565b50505050905090810190601f1680156120805780820380516001836020036101000a031916815260200191505b509250505060405180910390f35b34801561209a57600080fd5b506120b9600480360381019080803590602001909291905050506149c4565b6040518080602001828103825283818151815260200191508051906020019080838360005b838110156120f95780820151818401526020810190506120de565b50505050905090810190601f1680156121265780820380516001836020036101000a031916815260200191505b509250505060405180910390f35b34801561214057600080fd5b5061215f60048036038101908080359060200190929190505050614a86565b6040518082815260200191505060405180910390f35b34801561218157600080fd5b506121d6600480360381019080803573ffffffffffffffffffffffffffffffffffffffff169060200190929190803573ffffffffffffffffffffffffffffffffffffffff169060200190929190505050614a9e565b604051808215151515815260200191505060405180910390f35b3480156121fc57600080fd5b5061221b60048036038101908080359060200190929190505050614b32565b6040518082815260200191505060405180910390f35b34801561223d57600080fd5b5061225c60048036038101908080359060200190929190505050614b52565b6040518080602001828103825283818151815260200191508051906020019080838360005b8381101561229c578082015181840152602081019050612281565b50505050905090810190601f1680156122c95780820380516001836020036101000a031916815260200191505b509250505060405180910390f35b3480156122e357600080fd5b5061230260048036038101908080359060200190929190505050614c14565b6040518082815260200191505060405180910390f35b60166020528160005260406000208181548110151561233357fe5b90600052602060002001600091509150505481565b600060016000837bffffffffffffffffffffffffffffffffffffffffffffffffffffffff19167bffffffffffffffffffffffffffffffffffffffffffffffffffffffff1916815260200190815260200160002060009054906101000a900460ff169050919050565b606060068054600181600116156101000203166002900480601f0160208091040260200160405190810160405280929190818152602001828054600181600116156101000203166002900480156124485780601f1061241d57610100808354040283529160200191612448565b820191906000526020600020905b81548152906001019060200180831161242b57829003601f168201915b5050505050905090565b60006003600083815260200190815260200160002060009054906101000a900473ffffffffffffffffffffffffffffffffffffffff169050919050565b600061249a82613416565b90508073ffffffffffffffffffffffffffffffffffffffff168373ffffffffffffffffffffffffffffffffffffffff16141515156124d757600080fd5b8073ffffffffffffffffffffffffffffffffffffffff163373ffffffffffffffffffffffffffffffffffffffff16148061251757506125168133614a9e565b5b151561252257600080fd5b826003600084815260200190815260200160002060006101000a81548173ffffffffffffffffffffffffffffffffffffffff021916908373ffffffffffffffffffffffffffffffffffffffff160217905550818373ffffffffffffffffffffffffffffffffffffffff168273ffffffffffffffffffffffffffffffffffffffff167f8c5be1e5ebec7d5bd14f71427d1e84f3dd0314c0f7b2291e5b200ac8c7c3b92560405160405180910390a4505050565b612651826000836040518082805190602001908083835b60208310151561261057805182526020820191506020810190506020830392506125eb565b6001836020036101000a0380198251168184511680821785525050505050509050019150509081526020016040518091039020614c3490919063ffffffff16565b5050565b6000600a80549050905090565b6040805190810160405280601081526020017f496e41707050726f53686f704974656d0000000000000000000000000000000081525081565b6060601460008373ffffffffffffffffffffffffffffffffffffffff1673ffffffffffffffffffffffffffffffffffffffff16815260200190815260200160002080548060200260200160405190810160405280929190818152602001828054801561272657602002820191906000526020600020905b815481526020019060010190808311612712575b50505050509050919050565b6301ffc9a77c01000000000000000000000000000000000000000000000000000000000281565b601d6020528060005260406000206000915054906101000a900473ffffffffffffffffffffffffffffffffffffffff1681565b600061280b836000846040518082805190602001908083835b6020831015156127ca57805182526020820191506020810190506020830392506127a5565b6001836020036101000a0380198251168184511680821785525050505050509050019150509081526020016040518091039020614c4d90919063ffffffff16565b905092915050565b8061281e3382614ca6565b151561282957600080fd5b600073ffffffffffffffffffffffffffffffffffffffff168473ffffffffffffffffffffffffffffffffffffffff161415151561286557600080fd5b600073ffffffffffffffffffffffffffffffffffffffff168373ffffffffffffffffffffffffffffffffffffffff16141515156128a157600080fd5b6128ab8483614d3b565b6128b58483614e3e565b6128bf8383615056565b818373ffffffffffffffffffffffffffffffffffffffff168573ffffffffffffffffffffffffffffffffffffffff167fddf252ad1be2c89b69c2b068fc378daa952ba7f163c4a11628f55a4df523b3ef60405160405180910390a450505050565b601a6020528160005260406000208181548110151561293b57fe5b90600052602060002001600091509150505481565b6040805190810160405280600481526020017f494150530000000000000000000000000000000000000000000000000000000081525081565b60136020528060005260406000206000915054906101000a900473ffffffffffffffffffffffffffffffffffffffff1681565b60006129c7836134ba565b821015156129d457600080fd5b600860008473ffffffffffffffffffffffffffffffffffffffff1673ffffffffffffffffffffffffffffffffffffffff16815260200190815260200160002082815481101515612a2057fe5b9060005260206000200154905092915050565b600f81815481101515612a4257fe5b9060005260206000209060080201600091509050806000015490806001015490806002015490806003015490806004018054600181600116156101000203166002900480601f016020809104026020016040519081016040528092919081815260200182805460018160011615610100020316600290048015612b065780601f10612adb57610100808354040283529160200191612b06565b820191906000526020600020905b815481529060010190602001808311612ae957829003601f168201915b505050505090806005018054600181600116156101000203166002900480601f016020809104026020016040519081016040528092919081815260200182805460018160011615610100020316600290048015612ba45780601f10612b7957610100808354040283529160200191612ba4565b820191906000526020600020905b815481529060010190602001808311612b8757829003601f168201915b5050505050908060060160009054906101000a900460ff16908060060160019054906101000a900460ff16908060070154905089565b60156020528060005260406000206000915090505481565b612c31336040805190810160405280601181526020017f726f6c652f73797374656d2d61646d696e0000000000000000000000000000008152506125d4565b602060009054906101000a900460ff161515612c4c57600080fd5b6000602060006101000a81548160ff0219169083151502179055507f0e5e3b3fb504c22cf5c42fa07d521225937514c654007e1f12646f89768d6f9460405160405180910390a1565b80612ca03382614ca6565b1515612cab57600080fd5b612cc784848460206040519081016040528060008152506145c3565b50505050565b601c60205281600052604060002081815481101515612ce857fe5b90600052602060002001600091509150505481565b600080606080600d805490508511151515612d1757600080fd5b600d85815481101515612d2657fe5b906000526020600020906004020160000160009054906101000a900473ffffffffffffffffffffffffffffffffffffffff16600d86815481101515612d6757fe5b906000526020600020906004020160010154600d87815481101515612d8857fe5b9060005260206000209060040201600201600d88815481101515612da857fe5b9060005260206000209060040201600301818054600181600116156101000203166002900480601f016020809104026020016040519081016040528092919081815260200182805460018160011615610100020316600290048015612e4e5780601f10612e2357610100808354040283529160200191612e4e565b820191906000526020600020905b815481529060010190602001808311612e3157829003601f168201915b50505050509150808054600181600116156101000203166002900480601f016020809104026020016040519081016040528092919081815260200182805460018160011615610100020316600290048015612eea5780601f10612ebf57610100808354040283529160200191612eea565b820191906000526020600020905b815481529060010190602001808311612ecd57829003601f168201915b5050505050905093509350935093509193509193565b60115481565b6000808460006013600083815260200190815260200160002060009054906101000a900473ffffffffffffffffffffffffffffffffffffffff1690508073ffffffffffffffffffffffffffffffffffffffff163373ffffffffffffffffffffffffffffffffffffffff16141515612f7c57600080fd5b600e805490509250600e6080604051908101604052808981526020018581526020018881526020018781525090806001815401808255809150509060018203906000526020600020906004020160009091929091909150600082015181600001556020820151816001015560408201518160020190805190602001906130039291906158c5565b5060608201518160030190805190602001906130209291906158c5565b5050505086601560008581526020019081526020016000208190555060166000888152602001908152602001600020839080600181540180825580915050906001820390600052602060002001600090919290919091505550867f984e9c57bf3c704c112a30dea33416efd7969f90a14a69b9cb3842db1fdb5c7a84886040518083815260200180602001828103825283818151815260200191508051906020019080838360005b838110156130e35780820151818401526020810190506130c8565b50505050905090810190601f1680156131105780820380516001836020036101000a031916815260200191505b50935050505060405180910390a28293505050509392505050565b60125481565b6000601a6000838152602001908152602001600020805490509050919050565b6000806002600084815260200190815260200160002060009054906101000a900473ffffffffffffffffffffffffffffffffffffffff169050600073ffffffffffffffffffffffffffffffffffffffff168173ffffffffffffffffffffffffffffffffffffffff161415915050919050565b60006131cd612655565b821015156131da57600080fd5b600a828154811015156131e957fe5b90600052602060002001549050919050565b60146020528160005260406000208181548110151561321657fe5b90600052602060002001600091509150505481565b600e8181548110151561323a57fe5b9060005260206000209060040201600091509050806000015490806001015490806002018054600181600116156101000203166002900480601f0160208091040260200160405190810160405280929190818152602001828054600181600116156101000203166002900480156132f25780601f106132c7576101008083540402835291602001916132f2565b820191906000526020600020905b8154815290600101906020018083116132d557829003601f168201915b505050505090806003018054600181600116156101000203166002900480601f0160208091040260200160405190810160405280929190818152602001828054600181600116156101000203166002900480156133905780601f1061336557610100808354040283529160200191613390565b820191906000526020600020905b81548152906001019060200180831161337357829003601f168201915b5050505050905084565b6040805190810160405280601181526020017f726f6c652f73797374656d2d61646d696e00000000000000000000000000000081525081565b602060009054906101000a900460ff1681565b60186020528160005260406000208181548110151561340157fe5b90600052602060002001600091509150505481565b6000806002600084815260200190815260200160002060009054906101000a900473ffffffffffffffffffffffffffffffffffffffff169050600073ffffffffffffffffffffffffffffffffffffffff168173ffffffffffffffffffffffffffffffffffffffff161415151561348b57600080fd5b80915050919050565b602060019054906101000a900473ffffffffffffffffffffffffffffffffffffffff1681565b60008073ffffffffffffffffffffffffffffffffffffffff168273ffffffffffffffffffffffffffffffffffffffff16141515156134f757600080fd5b600460008373ffffffffffffffffffffffffffffffffffffffff1673ffffffffffffffffffffffffffffffffffffffff168152602001908152602001600020549050919050565b600d8181548110151561354d57fe5b90600052602060002090600402016000915090508060000160009054906101000a900473ffffffffffffffffffffffffffffffffffffffff1690806001015490806002018054600181600116156101000203166002900480601f0160208091040260200160405190810160405280929190818152602001828054600181600116156101000203166002900480156136255780601f106135fa57610100808354040283529160200191613625565b820191906000526020600020905b81548152906001019060200180831161360857829003601f168201915b505050505090806003018054600181600116156101000203166002900480601f0160208091040260200160405190810160405280929190818152602001828054600181600116156101000203166002900480156136c35780601f10613698576101008083540402835291602001916136c3565b820191906000526020600020905b8154815290600101906020018083116136a657829003601f168201915b5050505050905084565b61370c336040805190810160405280601181526020017f726f6c652f73797374656d2d61646d696e0000000000000000000000000000008152506125d4565b602060009054906101000a900460ff16151561372757600080fd5b80602060016101000a81548173ffffffffffffffffffffffffffffffffffffffff021916908373ffffffffffffffffffffffffffffffffffffffff1602179055507f450db8da6efbe9c22f2347f7c2021231df1fc58d3ae9a2fa75d39fa44619930581604051808273ffffffffffffffffffffffffffffffffffffffff1673ffffffffffffffffffffffffffffffffffffffff16815260200191505060405180910390a150565b601e602052816000526040600020818154811015156137e957fe5b90600052602060002001600091509150505481565b6040805190810160405280600f81526020017f726f6c652f73686f702d6f776e6572000000000000000000000000000000000081525081565b613876336040805190810160405280601181526020017f726f6c652f73797374656d2d61646d696e0000000000000000000000000000008152506125d4565b602060009054906101000a900460ff1615151561389257600080fd5b6001602060006101000a81548160ff0219169083151502179055507fab35696f06e428ebc5ceba8cd17f8fed287baf43440206d1943af1ee53e6d26760405160405180910390a1565b6019602052816000526040600020818154811015156138f657fe5b90600052602060002001600091509150505481565b60176020528060005260406000206000915090505481565b606060078054600181600116156101000203166002900480601f0160208091040260200160405190810160405280929190818152602001828054600181600116156101000203166002900480156139bb5780601f10613990576101008083540402835291602001916139bb565b820191906000526020600020905b81548152906001019060200180831161399e57829003601f168201915b5050505050905090565b6000808960006013600083815260200190815260200160002060009054906101000a900473ffffffffffffffffffffffffffffffffffffffff1690508073ffffffffffffffffffffffffffffffffffffffff163373ffffffffffffffffffffffffffffffffffffffff16141515613a3b57600080fd5b60008a111515613a4a57600080fd5b600f805490509250600f610120604051908101604052808e81526020018581526020018d81526020018c81526020018b81526020018a8152602001891515815260200188151581526020018781525090806001815401808255809150509060018203906000526020600020906008020160009091929091909150600082015181600001556020820151816001015560408201518160020155606082015181600301556080820151816004019080519060200190613b089291906158c5565b5060a0820151816005019080519060200190613b259291906158c5565b5060c08201518160060160006101000a81548160ff02191690831515021790555060e08201518160060160016101000a81548160ff02191690831515021790555061010082015181600701555050508b6017600085815260200190815260200160002081905550601960008d8152602001908152602001600020839080600181540180825580915050906001820390600052602060002001600090919290919091505550601860008c81526020019081526020016000208390806001815401808255809150509060018203906000526020600020016000909192909190915055508b7fd69554e5413a4863105d3af271dbb7053ecbdb96c22b4ed508331bbb4a993a63848b6040518083815260200180602001828103825283818151815260200191508051906020019080838360005b83811015613c70578082015181840152602081019050613c55565b50505050905090810190601f168015613c9d5780820380516001836020036101000a031916815260200191505b50935050505060405180910390a282935050505098975050505050505050565b6000601e6000838152602001908152602001600020805490509050919050565b3373ffffffffffffffffffffffffffffffffffffffff168273ffffffffffffffffffffffffffffffffffffffff1614151515613d1857600080fd5b80600560003373ffffffffffffffffffffffffffffffffffffffff1673ffffffffffffffffffffffffffffffffffffffff16815260200190815260200160002060008473ffffffffffffffffffffffffffffffffffffffff1673ffffffffffffffffffffffffffffffffffffffff16815260200190815260200160002060006101000a81548160ff0219169083151502179055508173ffffffffffffffffffffffffffffffffffffffff163373ffffffffffffffffffffffffffffffffffffffff167f17307eab39ab6107e8899845ad3d59bd9653f200f220920489ca2b5937696c3183604051808215151515815260200191505060405180910390a35050565b601b6020528060005260406000206000915090505481565b60008060008060008060011515613e4788614602565b1515141515613e5557600080fd5b600f87815481101515613e6457fe5b90600052602060002090600802016003015434141515613e8357600080fd5b613e986012543461512d90919063ffffffff16565b9450613eaf8560115461514390919063ffffffff16565b601181905550613ec8853461515f90919063ffffffff16565b9350613ef084601f60008b81526020019081526020016000205461514390919063ffffffff16565b601f60008a8152602001908152602001600020819055506010805490509250339150600f87815481101515613f2157fe5b9060005260206000209060080201600201549050601060c0604051908101604052808473ffffffffffffffffffffffffffffffffffffffff1681526020018a8152602001858152602001838152602001898152602001600015158152509080600181540180825580915050906001820390600052602060002090600602016000909192909190915060008201518160000160006101000a81548173ffffffffffffffffffffffffffffffffffffffff021916908373ffffffffffffffffffffffffffffffffffffffff1602179055506020820151816001015560408201518160020155606082015181600301556080820151816004015560a08201518160050160006101000a81548160ff02191690831515021790555050505087601b60008581526020019081526020016000208190555081601d600085815260200190815260200160002060006101000a81548173ffffffffffffffffffffffffffffffffffffffff021916908373ffffffffffffffffffffffffffffffffffffffff160217905550601c60008373ffffffffffffffffffffffffffffffffffffffff1673ffffffffffffffffffffffffffffffffffffffff168152602001908152602001600020839080600181540180825580915050906001820390600052602060002001600090919290919091505550601e6000898152602001908152602001600020839080600181540180825580915050906001820390600052602060002001600090919290919091505550601a60008881526020019081526020016000208390806001815401808255809150509060018203906000526020600020016000909192909190915055506141928284615178565b8087897f190b041ba13701ff8a2faee41240d2826cdeb02bce58a59e4eb6d0b18d9aa908866141c0886148d0565b600f8d8154811015156141cf57fe5b9060005260206000209060080201600301548b8b6040518086815260200180602001858152602001848152602001838152602001828103825286818151815260200191508051906020019080838360005b8381101561423b578082015181840152602081019050614220565b50505050905090810190601f1680156142685780820380516001836020036101000a031916815260200191505b50965050505050505060405180910390a4829550505050505092915050565b6000806000600d805490509150339050600d6080604051908101604052808373ffffffffffffffffffffffffffffffffffffffff168152602001848152602001878152602001868152509080600181540180825580915050906001820390600052602060002090600402016000909192909190915060008201518160000160006101000a81548173ffffffffffffffffffffffffffffffffffffffff021916908373ffffffffffffffffffffffffffffffffffffffff1602179055506020820151816001015560408201518160020190805190602001906143699291906158c5565b5060608201518160030190805190602001906143869291906158c5565b50505050806013600084815260200190815260200160002060006101000a81548173ffffffffffffffffffffffffffffffffffffffff021916908373ffffffffffffffffffffffffffffffffffffffff160217905550601460008273ffffffffffffffffffffffffffffffffffffffff1673ffffffffffffffffffffffffffffffffffffffff168152602001908152602001600020829080600181540180825580915050906001820390600052602060002001600090919290919091505550614484816040805190810160405280600f81526020017f726f6c652f73686f702d6f776e657200000000000000000000000000000000008152506151cf565b817f48a97f219cc030f581c3d5440f34a51531af5bda2c5fbe345ac9c4a7d4a28bdb866040518080602001828103825283818151815260200191508051906020019080838360005b838110156144e75780820151818401526020810190506144cc565b50505050905090810190601f1680156145145780820380516001836020036101000a031916815260200191505b509250505060405180910390a2819250505092915050565b6060601c60008373ffffffffffffffffffffffffffffffffffffffff1673ffffffffffffffffffffffffffffffffffffffff1681526020019081526020016000208054806020026020016040519081016040528092919081815260200182805480156145b757602002820191906000526020600020905b8154815260200190600101908083116145a3575b50505050509050919050565b816145ce3382614ca6565b15156145d957600080fd5b6145e4858585612813565b6145f085858585615303565b15156145fb57600080fd5b5050505050565b6000600f8281548110151561461357fe5b906000526020600020906008020160060160019054906101000a900460ff1615806146655750600f8281548110151561464857fe5b90600052602060002090600802016007015461466383613131565b105b9050919050565b60108181548110151561467b57fe5b90600052602060002090600602016000915090508060000160009054906101000a900473ffffffffffffffffffffffffffffffffffffffff16908060010154908060020154908060030154908060040154908060050160009054906101000a900460ff16905086565b606061470f6010838154811015156146f857fe5b906000526020600020906006020160030154614b52565b9050919050565b606061472182613151565b151561472c57600080fd5b600c60008381526020019081526020016000208054600181600116156101000203166002900480601f0160208091040260200160405190810160405280929190818152602001828054600181600116156101000203166002900480156147d35780601f106147a8576101008083540402835291602001916147d3565b820191906000526020600020905b8154815290600101906020018083116147b657829003601f168201915b50505050509050919050565b6040805190810160405280601481526020017f726f6c652f6672616e63686973652d6f776e657200000000000000000000000081525081565b600060196000838152602001908152602001600020805490509050919050565b6000601460008373ffffffffffffffffffffffffffffffffffffffff1673ffffffffffffffffffffffffffffffffffffffff168152602001908152602001600020805490509050919050565b6000601c60008373ffffffffffffffffffffffffffffffffffffffff1673ffffffffffffffffffffffffffffffffffffffff168152602001908152602001600020805490509050919050565b60606148fb6010838154811015156148e457fe5b9060005260206000209060060201600401546149c4565b9050919050565b6060600d8281548110151561491357fe5b90600052602060002090600402016002018054600181600116156101000203166002900480601f0160208091040260200160405190810160405280929190818152602001828054600181600116156101000203166002900480156149b85780601f1061498d576101008083540402835291602001916149b8565b820191906000526020600020905b81548152906001019060200180831161499b57829003601f168201915b50505050509050919050565b6060600f828154811015156149d557fe5b90600052602060002090600802016004018054600181600116156101000203166002900480601f016020809104026020016040519081016040528092919081815260200182805460018160011615610100020316600290048015614a7a5780601f10614a4f57610100808354040283529160200191614a7a565b820191906000526020600020905b815481529060010190602001808311614a5d57829003601f168201915b50505050509050919050565b601f6020528060005260406000206000915090505481565b6000600560008473ffffffffffffffffffffffffffffffffffffffff1673ffffffffffffffffffffffffffffffffffffffff16815260200190815260200160002060008373ffffffffffffffffffffffffffffffffffffffff1673ffffffffffffffffffffffffffffffffffffffff16815260200190815260200160002060009054906101000a900460ff16905092915050565b600060186000838152602001908152602001600020805490509050919050565b6060600e82815481101515614b6357fe5b90600052602060002090600402016002018054600181600116156101000203166002900480601f016020809104026020016040519081016040528092919081815260200182805460018160011615610100020316600290048015614c085780601f10614bdd57610100808354040283529160200191614c08565b820191906000526020600020905b815481529060010190602001808311614beb57829003601f168201915b50505050509050919050565b600060166000838152602001908152602001600020805490509050919050565b614c3e8282614c4d565b1515614c4957600080fd5b5050565b60008260000160008373ffffffffffffffffffffffffffffffffffffffff1673ffffffffffffffffffffffffffffffffffffffff16815260200190815260200160002060009054906101000a900460ff16905092915050565b600080614cb283613416565b90508073ffffffffffffffffffffffffffffffffffffffff168473ffffffffffffffffffffffffffffffffffffffff161480614d2157508373ffffffffffffffffffffffffffffffffffffffff16614d0984612452565b73ffffffffffffffffffffffffffffffffffffffff16145b80614d325750614d318185614a9e565b5b91505092915050565b8173ffffffffffffffffffffffffffffffffffffffff16614d5b82613416565b73ffffffffffffffffffffffffffffffffffffffff16141515614d7d57600080fd5b600073ffffffffffffffffffffffffffffffffffffffff166003600083815260200190815260200160002060009054906101000a900473ffffffffffffffffffffffffffffffffffffffff1673ffffffffffffffffffffffffffffffffffffffff16141515614e3a5760006003600083815260200190815260200160002060006101000a81548173ffffffffffffffffffffffffffffffffffffffff021916908373ffffffffffffffffffffffffffffffffffffffff1602179055505b5050565b6000806000614e4d8585615525565b60096000858152602001908152602001600020549250614eb96001600860008873ffffffffffffffffffffffffffffffffffffffff1673ffffffffffffffffffffffffffffffffffffffff1681526020019081526020016000208054905061515f90919063ffffffff16565b9150600860008673ffffffffffffffffffffffffffffffffffffffff1673ffffffffffffffffffffffffffffffffffffffff16815260200190815260200160002082815481101515614f0757fe5b9060005260206000200154905080600860008773ffffffffffffffffffffffffffffffffffffffff1673ffffffffffffffffffffffffffffffffffffffff16815260200190815260200160002084815481101515614f6157fe5b90600052602060002001819055506000600860008773ffffffffffffffffffffffffffffffffffffffff1673ffffffffffffffffffffffffffffffffffffffff16815260200190815260200160002083815481101515614fbd57fe5b9060005260206000200181905550600860008673ffffffffffffffffffffffffffffffffffffffff1673ffffffffffffffffffffffffffffffffffffffff16815260200190815260200160002080548091906001900361501d9190615945565b50600060096000868152602001908152602001600020819055508260096000838152602001908152602001600020819055505050505050565b60006150628383615654565b600860008473ffffffffffffffffffffffffffffffffffffffff1673ffffffffffffffffffffffffffffffffffffffff168152602001908152602001600020805490509050600860008473ffffffffffffffffffffffffffffffffffffffff1673ffffffffffffffffffffffffffffffffffffffff168152602001908152602001600020829080600181540180825580915050906001820390600052602060002001600090919290919091505550806009600084815260200190815260200160002081905550505050565b6000818381151561513a57fe5b04905092915050565b6000818301905082811015151561515657fe5b80905092915050565b600082821115151561516d57fe5b818303905092915050565b61518282826157ae565b600a80549050600b600083815260200190815260200160002081905550600a8190806001815401808255809150509060018203906000526020600020016000909192909190915055505050565b61524c826000836040518082805190602001908083835b60208310151561520b57805182526020820191506020810190506020830392506151e6565b6001836020036101000a038019825116818451168082178552505050505050905001915050908152602001604051809103902061585490919063ffffffff16565b8173ffffffffffffffffffffffffffffffffffffffff167fbfec83d64eaa953f2708271a023ab9ee82057f8f3578d548c1a4ba0b5b700489826040518080602001828103825283818151815260200191508051906020019080838360005b838110156152c55780820151818401526020810190506152aa565b50505050905090810190601f1680156152f25780820380516001836020036101000a031916815260200191505b509250505060405180910390a25050565b6000806153258573ffffffffffffffffffffffffffffffffffffffff166158b2565b1515615334576001915061551c565b8473ffffffffffffffffffffffffffffffffffffffff1663150b7a02338887876040518563ffffffff167c0100000000000000000000000000000000000000000000000000000000028152600401808573ffffffffffffffffffffffffffffffffffffffff1673ffffffffffffffffffffffffffffffffffffffff1681526020018473ffffffffffffffffffffffffffffffffffffffff1673ffffffffffffffffffffffffffffffffffffffff16815260200183815260200180602001828103825283818151815260200191508051906020019080838360005b8381101561542957808201518184015260208101905061540e565b50505050905090810190601f1680156154565780820380516001836020036101000a031916815260200191505b5095505050505050602060405180830381600087803b15801561547857600080fd5b505af115801561548c573d6000803e3d6000fd5b505050506040513d60208110156154a257600080fd5b8101908080519060200190929190505050905063150b7a027c0100000000000000000000000000000000000000000000000000000000027bffffffffffffffffffffffffffffffffffffffffffffffffffffffff1916817bffffffffffffffffffffffffffffffffffffffffffffffffffffffff19161491505b50949350505050565b8173ffffffffffffffffffffffffffffffffffffffff1661554582613416565b73ffffffffffffffffffffffffffffffffffffffff1614151561556757600080fd5b6155ba6001600460008573ffffffffffffffffffffffffffffffffffffffff1673ffffffffffffffffffffffffffffffffffffffff1681526020019081526020016000205461515f90919063ffffffff16565b600460008473ffffffffffffffffffffffffffffffffffffffff1673ffffffffffffffffffffffffffffffffffffffff1681526020019081526020016000208190555060006002600083815260200190815260200160002060006101000a81548173ffffffffffffffffffffffffffffffffffffffff021916908373ffffffffffffffffffffffffffffffffffffffff1602179055505050565b600073ffffffffffffffffffffffffffffffffffffffff166002600083815260200190815260200160002060009054906101000a900473ffffffffffffffffffffffffffffffffffffffff1673ffffffffffffffffffffffffffffffffffffffff161415156156c257600080fd5b816002600083815260200190815260200160002060006101000a81548173ffffffffffffffffffffffffffffffffffffffff021916908373ffffffffffffffffffffffffffffffffffffffff1602179055506157676001600460008573ffffffffffffffffffffffffffffffffffffffff1673ffffffffffffffffffffffffffffffffffffffff1681526020019081526020016000205461514390919063ffffffff16565b600460008473ffffffffffffffffffffffffffffffffffffffff1673ffffffffffffffffffffffffffffffffffffffff168152602001908152602001600020819055505050565b600073ffffffffffffffffffffffffffffffffffffffff168273ffffffffffffffffffffffffffffffffffffffff16141515156157ea57600080fd5b6157f48282615056565b808273ffffffffffffffffffffffffffffffffffffffff16600073ffffffffffffffffffffffffffffffffffffffff167fddf252ad1be2c89b69c2b068fc378daa952ba7f163c4a11628f55a4df523b3ef60405160405180910390a45050565b60018260000160008373ffffffffffffffffffffffffffffffffffffffff1673ffffffffffffffffffffffffffffffffffffffff16815260200190815260200160002060006101000a81548160ff0219169083151502179055505050565b600080823b905060008111915050919050565b828054600181600116156101000203166002900490600052602060002090601f016020900481019282601f1061590657805160ff1916838001178555615934565b82800160010185558215615934579182015b82811115615933578251825591602001919060010190615918565b5b5090506159419190615971565b5090565b81548183558181111561596c5781836000526020600020918201910161596b9190615971565b5b505050565b61599391905b8082111561598f576000816000905550600101615977565b5090565b905600a165627a7a72305820256da0b913ecf355c46a7286b9925f76bc5b06ddfd03c7bc86204819a1729d560029",
  "source": "pragma solidity ^0.4.24;\n\nimport \"./SKUFactory.sol\";\n\n\n/**\n * @title ItemFactory\n * @notice Defines functions and events related to management of Items\n */\ncontract ItemFactory is SKUFactory {\n\n    /**\n     * @notice emitted upon the creation of an Item\n     */\n    event NewItem(\n        uint256 indexed shopId,\n        uint256 indexed skuId,\n        uint256 indexed skuTypeId,\n        uint256 itemId,\n        string name,\n        uint256 price,\n        uint256 fee,\n        uint256 net\n    );\n\n    /**\n     * @notice Create an Item\n     */\n    function createItem(\n        uint256 _shopId,\n        uint256 _skuId\n    )\n        public\n        payable\n        returns (uint256)\n    {\n        // Make sure the item can be minted\n        require(canMintItem(_skuId) == true);\n\n        // Make sure enough Ether has been sent\n        require(msg.value == skus[_skuId].price);\n\n        // Calculate and store the franchise fee\n        uint256 franchiseFee = msg.value.div(franchiseFeePercent);\n        franchiseBalance = franchiseBalance.add(franchiseFee);\n\n        // Calculate and store the Shop's net sale amount\n        uint256 shopNetSale = msg.value.sub(franchiseFee);\n        shopBalances[_shopId] = shopBalances[_shopId].add(shopNetSale);\n\n        // Get the item id\n        uint256 itemId = items.length;\n\n        // Get the owner address\n        address owner = msg.sender;\n\n        // Get the SKU Type\n        uint256 skuTypeId = skus[_skuId].skuTypeId;\n\n        // Create and store Item\n        items.push(Item(owner, _shopId, itemId, skuTypeId, _skuId, false));\n\n        // Map the Item ID to the Shop\n        itemToShop[itemId] = _shopId;\n\n        // Map the Item ID to the Owner\n        itemToOwner[itemId] = owner;\n\n        // Add Item ID to Owner's Items list\n        ownedItems[owner].push(itemId);\n\n        // Add the item to the Shop's list of Items minted\n        shopItems[_shopId].push(itemId);\n\n        // Add the item to the SKU's list of Items minted\n        skuItems[_skuId].push(itemId);\n\n        // Mint the token\n        super._mint(owner, itemId);\n\n        // Emit event with the name of the new Item\n        emit NewItem(_shopId, _skuId, skuTypeId, itemId, getItemName(itemId), skus[_skuId].price, franchiseFee, shopNetSale);\n\n        // Return the new Item ID\n        return itemId;\n    }\n\n    function canMintItem(uint256 _skuId) public view returns (bool) {\n        return (!skus[_skuId].limited || (getSKUItemCount(_skuId) < skus[_skuId].limit));\n    }\n\n    /**\n     * @notice Get the SKU name associated with a given Item id\n     */\n    function getItemName(uint256 _itemId) public view returns (string) {\n        return getSKUName(items[_itemId].skuId);\n    }\n\n    /**\n     * @notice Get the SKU type name associated with a given Item id\n     */\n    function getItemType(uint256 _itemId) public view returns (string) {\n        return getSKUTypeName(items[_itemId].skuTypeId);\n    }\n\n    /**\n     * @notice Get the count of minted Items associated with a given Shop\n     */\n    function getShopItemCount(uint256 _shopId) public view returns (uint256) {\n        return shopItems[_shopId].length;\n    }\n\n    /**\n     * @notice Get the count of minted Items associated with a given SKU\n     */\n    function getSKUItemCount(uint256 _skuId) public view returns (uint256) {\n        return skuItems[_skuId].length;\n    }\n\n    /**\n     * @notice Get the count of Items associated with a given Owner\n     */\n    function getItemCount(address _owner) public view returns (uint256) {\n        return ownedItems[_owner].length;\n    }\n\n\n    // @notice Get the list of Item Ids associated with a given Owner\n    function getItemIds(address _owner) public view returns (uint[] memory) {\n        return ownedItems[_owner];\n    }\n\n}",
  "sourcePath": "/Users/cliff/Documents/in-app-pro-shop/contracts/ItemFactory.sol",
  "compiler": {
    "name": "solc",
    "version": "0.4.24+commit.e67f0147.Emscripten.clang"
  },
  "schemaVersion": "2.0.1",
  "updatedAt": "2018-10-23T22:01:21.734Z"
}