{
  "contractName": "ProShop",
  "abi": [
    {
      "constant": true,
      "inputs": [
        {
          "name": "_interfaceId",
          "type": "bytes4"
        }
      ],
      "name": "supportsInterface",
      "outputs": [
        {
          "name": "",
          "type": "bool"
        }
      ],
      "payable": false,
      "stateMutability": "view",
      "type": "function"
    },
    {
      "constant": true,
      "inputs": [],
      "name": "name",
      "outputs": [
        {
          "name": "",
          "type": "string"
        }
      ],
      "payable": false,
      "stateMutability": "view",
      "type": "function"
    },
    {
      "constant": true,
      "inputs": [
        {
          "name": "_tokenId",
          "type": "uint256"
        }
      ],
      "name": "getApproved",
      "outputs": [
        {
          "name": "",
          "type": "address"
        }
      ],
      "payable": false,
      "stateMutability": "view",
      "type": "function"
    },
    {
      "constant": false,
      "inputs": [
        {
          "name": "_to",
          "type": "address"
        },
        {
          "name": "_tokenId",
          "type": "uint256"
        }
      ],
      "name": "approve",
      "outputs": [],
      "payable": false,
      "stateMutability": "nonpayable",
      "type": "function"
    },
    {
      "constant": true,
      "inputs": [
        {
          "name": "_operator",
          "type": "address"
        },
        {
          "name": "_role",
          "type": "string"
        }
      ],
      "name": "checkRole",
      "outputs": [],
      "payable": false,
      "stateMutability": "view",
      "type": "function"
    },
    {
      "constant": true,
      "inputs": [],
      "name": "totalSupply",
      "outputs": [
        {
          "name": "",
          "type": "uint256"
        }
      ],
      "payable": false,
      "stateMutability": "view",
      "type": "function"
    },
    {
      "constant": true,
      "inputs": [],
      "name": "TOKEN_NAME",
      "outputs": [
        {
          "name": "",
          "type": "string"
        }
      ],
      "payable": false,
      "stateMutability": "view",
      "type": "function"
    },
    {
      "constant": true,
      "inputs": [],
      "name": "InterfaceId_ERC165",
      "outputs": [
        {
          "name": "",
          "type": "bytes4"
        }
      ],
      "payable": false,
      "stateMutability": "view",
      "type": "function"
    },
    {
      "constant": true,
      "inputs": [
        {
          "name": "_operator",
          "type": "address"
        },
        {
          "name": "_role",
          "type": "string"
        }
      ],
      "name": "hasRole",
      "outputs": [
        {
          "name": "",
          "type": "bool"
        }
      ],
      "payable": false,
      "stateMutability": "view",
      "type": "function"
    },
    {
      "constant": false,
      "inputs": [
        {
          "name": "_from",
          "type": "address"
        },
        {
          "name": "_to",
          "type": "address"
        },
        {
          "name": "_tokenId",
          "type": "uint256"
        }
      ],
      "name": "transferFrom",
      "outputs": [],
      "payable": false,
      "stateMutability": "nonpayable",
      "type": "function"
    },
    {
      "constant": true,
      "inputs": [
        {
          "name": "",
          "type": "uint256"
        },
        {
          "name": "",
          "type": "uint256"
        }
      ],
      "name": "skuItems",
      "outputs": [
        {
          "name": "",
          "type": "uint256"
        }
      ],
      "payable": false,
      "stateMutability": "view",
      "type": "function"
    },
    {
      "constant": true,
      "inputs": [],
      "name": "TOKEN_SYMBOL",
      "outputs": [
        {
          "name": "",
          "type": "string"
        }
      ],
      "payable": false,
      "stateMutability": "view",
      "type": "function"
    },
    {
      "constant": true,
      "inputs": [
        {
          "name": "_owner",
          "type": "address"
        },
        {
          "name": "_index",
          "type": "uint256"
        }
      ],
      "name": "tokenOfOwnerByIndex",
      "outputs": [
        {
          "name": "",
          "type": "uint256"
        }
      ],
      "payable": false,
      "stateMutability": "view",
      "type": "function"
    },
    {
      "constant": false,
      "inputs": [],
      "name": "unpause",
      "outputs": [],
      "payable": false,
      "stateMutability": "nonpayable",
      "type": "function"
    },
    {
      "constant": false,
      "inputs": [
        {
          "name": "_from",
          "type": "address"
        },
        {
          "name": "_to",
          "type": "address"
        },
        {
          "name": "_tokenId",
          "type": "uint256"
        }
      ],
      "name": "safeTransferFrom",
      "outputs": [],
      "payable": false,
      "stateMutability": "nonpayable",
      "type": "function"
    },
    {
      "constant": true,
      "inputs": [
        {
          "name": "",
          "type": "address"
        },
        {
          "name": "",
          "type": "uint256"
        }
      ],
      "name": "ownedItems",
      "outputs": [
        {
          "name": "",
          "type": "uint256"
        }
      ],
      "payable": false,
      "stateMutability": "view",
      "type": "function"
    },
    {
      "constant": true,
      "inputs": [],
      "name": "franchiseBalance",
      "outputs": [
        {
          "name": "",
          "type": "uint256"
        }
      ],
      "payable": false,
      "stateMutability": "view",
      "type": "function"
    },
    {
      "constant": true,
      "inputs": [],
      "name": "franchiseFeePercent",
      "outputs": [
        {
          "name": "",
          "type": "uint256"
        }
      ],
      "payable": false,
      "stateMutability": "view",
      "type": "function"
    },
    {
      "constant": true,
      "inputs": [
        {
          "name": "_tokenId",
          "type": "uint256"
        }
      ],
      "name": "exists",
      "outputs": [
        {
          "name": "",
          "type": "bool"
        }
      ],
      "payable": false,
      "stateMutability": "view",
      "type": "function"
    },
    {
      "constant": true,
      "inputs": [
        {
          "name": "_index",
          "type": "uint256"
        }
      ],
      "name": "tokenByIndex",
      "outputs": [
        {
          "name": "",
          "type": "uint256"
        }
      ],
      "payable": false,
      "stateMutability": "view",
      "type": "function"
    },
    {
      "constant": true,
      "inputs": [],
      "name": "ROLE_SYS_ADMIN",
      "outputs": [
        {
          "name": "",
          "type": "string"
        }
      ],
      "payable": false,
      "stateMutability": "view",
      "type": "function"
    },
    {
      "constant": true,
      "inputs": [],
      "name": "paused",
      "outputs": [
        {
          "name": "",
          "type": "bool"
        }
      ],
      "payable": false,
      "stateMutability": "view",
      "type": "function"
    },
    {
      "constant": true,
      "inputs": [
        {
          "name": "_tokenId",
          "type": "uint256"
        }
      ],
      "name": "ownerOf",
      "outputs": [
        {
          "name": "",
          "type": "address"
        }
      ],
      "payable": false,
      "stateMutability": "view",
      "type": "function"
    },
    {
      "constant": true,
      "inputs": [],
      "name": "newContractAddress",
      "outputs": [
        {
          "name": "",
          "type": "address"
        }
      ],
      "payable": false,
      "stateMutability": "view",
      "type": "function"
    },
    {
      "constant": true,
      "inputs": [
        {
          "name": "_owner",
          "type": "address"
        }
      ],
      "name": "balanceOf",
      "outputs": [
        {
          "name": "",
          "type": "uint256"
        }
      ],
      "payable": false,
      "stateMutability": "view",
      "type": "function"
    },
    {
      "constant": false,
      "inputs": [
        {
          "name": "_newAddress",
          "type": "address"
        }
      ],
      "name": "setNewAddress",
      "outputs": [],
      "payable": false,
      "stateMutability": "nonpayable",
      "type": "function"
    },
    {
      "constant": true,
      "inputs": [
        {
          "name": "",
          "type": "uint256"
        },
        {
          "name": "",
          "type": "uint256"
        }
      ],
      "name": "shopItems",
      "outputs": [
        {
          "name": "",
          "type": "uint256"
        }
      ],
      "payable": false,
      "stateMutability": "view",
      "type": "function"
    },
    {
      "constant": true,
      "inputs": [],
      "name": "ROLE_SHOP_OWNER",
      "outputs": [
        {
          "name": "",
          "type": "string"
        }
      ],
      "payable": false,
      "stateMutability": "view",
      "type": "function"
    },
    {
      "constant": false,
      "inputs": [],
      "name": "pause",
      "outputs": [],
      "payable": false,
      "stateMutability": "nonpayable",
      "type": "function"
    },
    {
      "constant": true,
      "inputs": [],
      "name": "symbol",
      "outputs": [
        {
          "name": "",
          "type": "string"
        }
      ],
      "payable": false,
      "stateMutability": "view",
      "type": "function"
    },
    {
      "constant": false,
      "inputs": [
        {
          "name": "_to",
          "type": "address"
        },
        {
          "name": "_approved",
          "type": "bool"
        }
      ],
      "name": "setApprovalForAll",
      "outputs": [],
      "payable": false,
      "stateMutability": "nonpayable",
      "type": "function"
    },
    {
      "constant": false,
      "inputs": [
        {
          "name": "_shopId",
          "type": "uint256"
        },
        {
          "name": "_skuId",
          "type": "uint256"
        }
      ],
      "name": "createItem",
      "outputs": [
        {
          "name": "",
          "type": "uint256"
        }
      ],
      "payable": true,
      "stateMutability": "payable",
      "type": "function"
    },
    {
      "constant": false,
      "inputs": [
        {
          "name": "_from",
          "type": "address"
        },
        {
          "name": "_to",
          "type": "address"
        },
        {
          "name": "_tokenId",
          "type": "uint256"
        },
        {
          "name": "_data",
          "type": "bytes"
        }
      ],
      "name": "safeTransferFrom",
      "outputs": [],
      "payable": false,
      "stateMutability": "nonpayable",
      "type": "function"
    },
    {
      "constant": true,
      "inputs": [
        {
          "name": "",
          "type": "uint256"
        }
      ],
      "name": "items",
      "outputs": [
        {
          "name": "owner",
          "type": "address"
        },
        {
          "name": "shopId",
          "type": "uint256"
        },
        {
          "name": "itemId",
          "type": "uint256"
        },
        {
          "name": "skuId",
          "type": "uint256"
        },
        {
          "name": "consumed",
          "type": "bool"
        }
      ],
      "payable": false,
      "stateMutability": "view",
      "type": "function"
    },
    {
      "constant": true,
      "inputs": [
        {
          "name": "_tokenId",
          "type": "uint256"
        }
      ],
      "name": "tokenURI",
      "outputs": [
        {
          "name": "",
          "type": "string"
        }
      ],
      "payable": false,
      "stateMutability": "view",
      "type": "function"
    },
    {
      "constant": true,
      "inputs": [],
      "name": "ROLE_FRANCHISE_OWNER",
      "outputs": [
        {
          "name": "",
          "type": "string"
        }
      ],
      "payable": false,
      "stateMutability": "view",
      "type": "function"
    },
    {
      "constant": true,
      "inputs": [
        {
          "name": "",
          "type": "uint256"
        }
      ],
      "name": "shopBalances",
      "outputs": [
        {
          "name": "",
          "type": "uint256"
        }
      ],
      "payable": false,
      "stateMutability": "view",
      "type": "function"
    },
    {
      "constant": true,
      "inputs": [
        {
          "name": "_owner",
          "type": "address"
        },
        {
          "name": "_operator",
          "type": "address"
        }
      ],
      "name": "isApprovedForAll",
      "outputs": [
        {
          "name": "",
          "type": "bool"
        }
      ],
      "payable": false,
      "stateMutability": "view",
      "type": "function"
    },
    {
      "inputs": [],
      "payable": false,
      "stateMutability": "nonpayable",
      "type": "constructor"
    },
    {
      "anonymous": false,
      "inputs": [
        {
          "indexed": false,
          "name": "shopId",
          "type": "uint256"
        },
        {
          "indexed": false,
          "name": "amount",
          "type": "uint256"
        }
      ],
      "name": "ShopBalanceWithdrawn",
      "type": "event"
    },
    {
      "anonymous": false,
      "inputs": [
        {
          "indexed": false,
          "name": "amount",
          "type": "uint256"
        }
      ],
      "name": "FranchiseBalanceWithdrawn",
      "type": "event"
    },
    {
      "anonymous": false,
      "inputs": [
        {
          "indexed": true,
          "name": "shopId",
          "type": "uint256"
        },
        {
          "indexed": true,
          "name": "skuId",
          "type": "uint256"
        },
        {
          "indexed": false,
          "name": "itemId",
          "type": "uint256"
        },
        {
          "indexed": false,
          "name": "amount",
          "type": "uint256"
        },
        {
          "indexed": false,
          "name": "fee",
          "type": "uint256"
        },
        {
          "indexed": false,
          "name": "net",
          "type": "uint256"
        }
      ],
      "name": "NewItem",
      "type": "event"
    },
    {
      "anonymous": false,
      "inputs": [
        {
          "indexed": false,
          "name": "newContract",
          "type": "address"
        }
      ],
      "name": "ContractUpgrade",
      "type": "event"
    },
    {
      "anonymous": false,
      "inputs": [],
      "name": "ContractPaused",
      "type": "event"
    },
    {
      "anonymous": false,
      "inputs": [],
      "name": "ContractUnpaused",
      "type": "event"
    },
    {
      "anonymous": false,
      "inputs": [
        {
          "indexed": true,
          "name": "operator",
          "type": "address"
        },
        {
          "indexed": false,
          "name": "role",
          "type": "string"
        }
      ],
      "name": "RoleAdded",
      "type": "event"
    },
    {
      "anonymous": false,
      "inputs": [
        {
          "indexed": true,
          "name": "operator",
          "type": "address"
        },
        {
          "indexed": false,
          "name": "role",
          "type": "string"
        }
      ],
      "name": "RoleRemoved",
      "type": "event"
    },
    {
      "anonymous": false,
      "inputs": [
        {
          "indexed": true,
          "name": "_from",
          "type": "address"
        },
        {
          "indexed": true,
          "name": "_to",
          "type": "address"
        },
        {
          "indexed": true,
          "name": "_tokenId",
          "type": "uint256"
        }
      ],
      "name": "Transfer",
      "type": "event"
    },
    {
      "anonymous": false,
      "inputs": [
        {
          "indexed": true,
          "name": "_owner",
          "type": "address"
        },
        {
          "indexed": true,
          "name": "_approved",
          "type": "address"
        },
        {
          "indexed": true,
          "name": "_tokenId",
          "type": "uint256"
        }
      ],
      "name": "Approval",
      "type": "event"
    },
    {
      "anonymous": false,
      "inputs": [
        {
          "indexed": true,
          "name": "_owner",
          "type": "address"
        },
        {
          "indexed": true,
          "name": "_operator",
          "type": "address"
        },
        {
          "indexed": false,
          "name": "_approved",
          "type": "bool"
        }
      ],
      "name": "ApprovalForAll",
      "type": "event"
    },
    {
      "constant": false,
      "inputs": [
        {
          "name": "_address",
          "type": "address"
        }
      ],
      "name": "setStockRoomContractAddress",
      "outputs": [],
      "payable": false,
      "stateMutability": "nonpayable",
      "type": "function"
    },
    {
      "constant": false,
      "inputs": [
        {
          "name": "_shopId",
          "type": "uint256"
        }
      ],
      "name": "withdrawShopBalance",
      "outputs": [],
      "payable": false,
      "stateMutability": "nonpayable",
      "type": "function"
    },
    {
      "constant": false,
      "inputs": [],
      "name": "withdrawFranchiseBalance",
      "outputs": [],
      "payable": false,
      "stateMutability": "nonpayable",
      "type": "function"
    },
    {
      "constant": true,
      "inputs": [
        {
          "name": "_shopId",
          "type": "uint256"
        }
      ],
      "name": "checkShopBalance",
      "outputs": [
        {
          "name": "",
          "type": "uint256"
        }
      ],
      "payable": false,
      "stateMutability": "view",
      "type": "function"
    },
    {
      "constant": true,
      "inputs": [],
      "name": "checkFranchiseBalance",
      "outputs": [
        {
          "name": "",
          "type": "uint256"
        }
      ],
      "payable": false,
      "stateMutability": "view",
      "type": "function"
    },
    {
      "constant": true,
      "inputs": [
        {
          "name": "_owner",
          "type": "address"
        }
      ],
      "name": "getItemIds",
      "outputs": [
        {
          "name": "",
          "type": "uint256[]"
        }
      ],
      "payable": false,
      "stateMutability": "view",
      "type": "function"
    },
    {
      "constant": true,
      "inputs": [
        {
          "name": "_shopId",
          "type": "uint256"
        }
      ],
      "name": "getShopItemCount",
      "outputs": [
        {
          "name": "",
          "type": "uint256"
        }
      ],
      "payable": false,
      "stateMutability": "view",
      "type": "function"
    },
    {
      "constant": true,
      "inputs": [
        {
          "name": "_skuId",
          "type": "uint256"
        }
      ],
      "name": "getSKUItemCount",
      "outputs": [
        {
          "name": "",
          "type": "uint256"
        }
      ],
      "payable": false,
      "stateMutability": "view",
      "type": "function"
    },
    {
      "constant": true,
      "inputs": [
        {
          "name": "_owner",
          "type": "address"
        }
      ],
      "name": "getOwnerItemCount",
      "outputs": [
        {
          "name": "",
          "type": "uint256"
        }
      ],
      "payable": false,
      "stateMutability": "view",
      "type": "function"
    }
  ],
  "bytecode": "0x60806040526000600d60006101000a81548160ff0219169083151502179055503480156200002c57600080fd5b506040805190810160405280601081526020017f496e41707050726f53686f704974656d000000000000000000000000000000008152506040805190810160405280600481526020017f4941505300000000000000000000000000000000000000000000000000000000815250620000d66301ffc9a77c010000000000000000000000000000000000000000000000000000000002620002c7640100000000026401000000009004565b620001136380ac58cd7c010000000000000000000000000000000000000000000000000000000002620002c7640100000000026401000000009004565b62000150634f558e797c010000000000000000000000000000000000000000000000000000000002620002c7640100000000026401000000009004565b8160059080519060200190620001689291906200052c565b508060069080519060200190620001819291906200052c565b50620001bf63780e9d637c010000000000000000000000000000000000000000000000000000000002620002c7640100000000026401000000009004565b620001fc635b5e139f7c010000000000000000000000000000000000000000000000000000000002620002c7640100000000026401000000009004565b50506001600d60006101000a81548160ff02191690831515021790555062000269336040805190810160405280601181526020017f726f6c652f73797374656d2d61646d696e00000000000000000000000000000081525062000385640100000000026401000000009004565b620002b9336040805190810160405280601481526020017f726f6c652f6672616e63686973652d6f776e657200000000000000000000000081525062000385640100000000026401000000009004565b6003601581905550620005db565b63ffffffff7c010000000000000000000000000000000000000000000000000000000002817bffffffffffffffffffffffffffffffffffffffffffffffffffffffff1916141515156200031957600080fd5b6001600080837bffffffffffffffffffffffffffffffffffffffffffffffffffffffff19167bffffffffffffffffffffffffffffffffffffffffffffffffffffffff1916815260200190815260200160002060006101000a81548160ff02191690831515021790555050565b6200041482600c836040518082805190602001908083835b602083101515620003c457805182526020820191506020810190506020830392506200039d565b6001836020036101000a0380198251168184511680821785525050505050509050019150509081526020016040518091039020620004ce6401000000000262003980179091906401000000009004565b8173ffffffffffffffffffffffffffffffffffffffff167fbfec83d64eaa953f2708271a023ab9ee82057f8f3578d548c1a4ba0b5b700489826040518080602001828103825283818151815260200191508051906020019080838360005b838110156200048f57808201518184015260208101905062000472565b50505050905090810190601f168015620004bd5780820380516001836020036101000a031916815260200191505b509250505060405180910390a25050565b60018260000160008373ffffffffffffffffffffffffffffffffffffffff1673ffffffffffffffffffffffffffffffffffffffff16815260200190815260200160002060006101000a81548160ff0219169083151502179055505050565b828054600181600116156101000203166002900490600052602060002090601f016020900481019282601f106200056f57805160ff1916838001178555620005a0565b82800160010185558215620005a0579182015b828111156200059f57825182559160200191906001019062000582565b5b509050620005af9190620005b3565b5090565b620005d891905b80821115620005d4576000816000905550600101620005ba565b5090565b90565b613a0a80620005eb6000396000f30060806040526004361061023b576000357c0100000000000000000000000000000000000000000000000000000000900463ffffffff16806301ffc9a71461024057806306fdde03146102a4578063081812fc14610334578063095ea7b3146103a15780630988ca8c146103ee57806318160ddd1461047757806318821400146104a257806319fa8f5014610532578063217fe6c61461059b57806323b872dd1461063c57806327bcfd61146106a95780632a905318146106f45780632f745c59146107845780633f4ba83a146107e557806342842e0e146107fc5780634284653414610869578063463838af146108ca578063477e2b3c1461090d5780634b2aecdc146109385780634beaf13d146109635780634f558e79146109a45780634f6ccce7146109e957806356de8ccd14610a2a5780635a76195014610aba5780635c975abb14610b115780636352211e14610b405780636af04a5714610bad5780636b3ab47f14610c0457806370a0823114610c455780637158798814610c9c5780637ceab6b014610cdf5780637e1ae97614610d2a5780638456cb5914610dba5780638b2b303c14610dd157806395d89b4114610de85780639618652c14610e785780639b996ad214610ea3578063a22cb46514610ee4578063adae08dd14610f33578063b86c7c9314610f71578063b88d4fde14611009578063bfb231d2146110bc578063c87b56dd14611149578063cb1b2001146111ef578063e659ebef1461127f578063e985e9c5146112c0578063fc4fc4de1461133b575b600080fd5b34801561024c57600080fd5b5061028a60048036038101908080357bffffffffffffffffffffffffffffffffffffffffffffffffffffffff19169060200190929190505050611368565b604051808215151515815260200191505060405180910390f35b3480156102b057600080fd5b506102b96113cf565b6040518080602001828103825283818151815260200191508051906020019080838360005b838110156102f95780820151818401526020810190506102de565b50505050905090810190601f1680156103265780820380516001836020036101000a031916815260200191505b509250505060405180910390f35b34801561034057600080fd5b5061035f60048036038101908080359060200190929190505050611471565b604051808273ffffffffffffffffffffffffffffffffffffffff1673ffffffffffffffffffffffffffffffffffffffff16815260200191505060405180910390f35b3480156103ad57600080fd5b506103ec600480360381019080803573ffffffffffffffffffffffffffffffffffffffff169060200190929190803590602001909291905050506114ae565b005b3480156103fa57600080fd5b50610475600480360381019080803573ffffffffffffffffffffffffffffffffffffffff169060200190929190803590602001908201803590602001908080601f01602080910402602001604051908101604052809392919081815260200183838082843782019150505050505091929192905050506115f3565b005b34801561048357600080fd5b5061048c611674565b6040518082815260200191505060405180910390f35b3480156104ae57600080fd5b506104b7611681565b6040518080602001828103825283818151815260200191508051906020019080838360005b838110156104f75780820151818401526020810190506104dc565b50505050905090810190601f1680156105245780820380516001836020036101000a031916815260200191505b509250505060405180910390f35b34801561053e57600080fd5b506105476116ba565b60405180827bffffffffffffffffffffffffffffffffffffffffffffffffffffffff19167bffffffffffffffffffffffffffffffffffffffffffffffffffffffff1916815260200191505060405180910390f35b3480156105a757600080fd5b50610622600480360381019080803573ffffffffffffffffffffffffffffffffffffffff169060200190929190803590602001908201803590602001908080601f01602080910402602001604051908101604052809392919081815260200183838082843782019150505050505091929192905050506116e1565b604051808215151515815260200191505060405180910390f35b34801561064857600080fd5b506106a7600480360381019080803573ffffffffffffffffffffffffffffffffffffffff169060200190929190803573ffffffffffffffffffffffffffffffffffffffff16906020019092919080359060200190929190505050611768565b005b3480156106b557600080fd5b506106de6004803603810190808035906020019092919080359060200190929190505050611875565b6040518082815260200191505060405180910390f35b34801561070057600080fd5b506107096118a5565b6040518080602001828103825283818151815260200191508051906020019080838360005b8381101561074957808201518184015260208101905061072e565b50505050905090810190601f1680156107765780820380516001836020036101000a031916815260200191505b509250505060405180910390f35b34801561079057600080fd5b506107cf600480360381019080803573ffffffffffffffffffffffffffffffffffffffff169060200190929190803590602001909291905050506118de565b6040518082815260200191505060405180910390f35b3480156107f157600080fd5b506107fa611955565b005b34801561080857600080fd5b50610867600480360381019080803573ffffffffffffffffffffffffffffffffffffffff169060200190929190803573ffffffffffffffffffffffffffffffffffffffff169060200190929190803590602001909291905050506119f8565b005b34801561087557600080fd5b506108b4600480360381019080803573ffffffffffffffffffffffffffffffffffffffff16906020019092919080359060200190929190505050611a30565b6040518082815260200191505060405180910390f35b3480156108d657600080fd5b5061090b600480360381019080803573ffffffffffffffffffffffffffffffffffffffff169060200190929190505050611a60565b005b34801561091957600080fd5b50610922611b93565b6040518082815260200191505060405180910390f35b34801561094457600080fd5b5061094d611b99565b6040518082815260200191505060405180910390f35b34801561096f57600080fd5b5061098e60048036038101908080359060200190929190505050611b9f565b6040518082815260200191505060405180910390f35b3480156109b057600080fd5b506109cf60048036038101908080359060200190929190505050611bbf565b604051808215151515815260200191505060405180910390f35b3480156109f557600080fd5b50610a1460048036038101908080359060200190929190505050611c31565b6040518082815260200191505060405180910390f35b348015610a3657600080fd5b50610a3f611c69565b6040518080602001828103825283818151815260200191508051906020019080838360005b83811015610a7f578082015181840152602081019050610a64565b50505050905090810190601f168015610aac5780820380516001836020036101000a031916815260200191505b509250505060405180910390f35b348015610ac657600080fd5b50610afb600480360381019080803573ffffffffffffffffffffffffffffffffffffffff169060200190929190505050611ca2565b6040518082815260200191505060405180910390f35b348015610b1d57600080fd5b50610b26611cee565b604051808215151515815260200191505060405180910390f35b348015610b4c57600080fd5b50610b6b60048036038101908080359060200190929190505050611d01565b604051808273ffffffffffffffffffffffffffffffffffffffff1673ffffffffffffffffffffffffffffffffffffffff16815260200191505060405180910390f35b348015610bb957600080fd5b50610bc2611d7f565b604051808273ffffffffffffffffffffffffffffffffffffffff1673ffffffffffffffffffffffffffffffffffffffff16815260200191505060405180910390f35b348015610c1057600080fd5b50610c2f60048036038101908080359060200190929190505050611da5565b6040518082815260200191505060405180910390f35b348015610c5157600080fd5b50610c86600480360381019080803573ffffffffffffffffffffffffffffffffffffffff169060200190929190505050611ecf565b6040518082815260200191505060405180910390f35b348015610ca857600080fd5b50610cdd600480360381019080803573ffffffffffffffffffffffffffffffffffffffff169060200190929190505050611f53565b005b348015610ceb57600080fd5b50610d146004803603810190808035906020019092919080359060200190929190505050612054565b6040518082815260200191505060405180910390f35b348015610d3657600080fd5b50610d3f612084565b6040518080602001828103825283818151815260200191508051906020019080838360005b83811015610d7f578082015181840152602081019050610d64565b50505050905090810190601f168015610dac5780820380516001836020036101000a031916815260200191505b509250505060405180910390f35b348015610dc657600080fd5b50610dcf6120bd565b005b348015610ddd57600080fd5b50610de6612161565b005b348015610df457600080fd5b50610dfd612258565b6040518080602001828103825283818151815260200191508051906020019080838360005b83811015610e3d578082015181840152602081019050610e22565b50505050905090810190601f168015610e6a5780820380516001836020036101000a031916815260200191505b509250505060405180910390f35b348015610e8457600080fd5b50610e8d6122fa565b6040518082815260200191505060405180910390f35b348015610eaf57600080fd5b50610ece60048036038101908080359060200190929190505050612343565b6040518082815260200191505060405180910390f35b348015610ef057600080fd5b50610f31600480360381019080803573ffffffffffffffffffffffffffffffffffffffff169060200190929190803515159060200190929190505050612363565b005b610f5b600480360381019080803590602001909291908035906020019092919050505061249f565b6040518082815260200191505060405180910390f35b348015610f7d57600080fd5b50610fb2600480360381019080803573ffffffffffffffffffffffffffffffffffffffff16906020019092919050505061294c565b6040518080602001828103825283818151815260200191508051906020019060200280838360005b83811015610ff5578082015181840152602081019050610fda565b505050509050019250505060405180910390f35b34801561101557600080fd5b506110ba600480360381019080803573ffffffffffffffffffffffffffffffffffffffff169060200190929190803573ffffffffffffffffffffffffffffffffffffffff16906020019092919080359060200190929190803590602001908201803590602001908080601f01602080910402602001604051908101604052809392919081815260200183838082843782019150505050505091929192905050506129e3565b005b3480156110c857600080fd5b506110e760048036038101908080359060200190929190505050612a22565b604051808673ffffffffffffffffffffffffffffffffffffffff1673ffffffffffffffffffffffffffffffffffffffff168152602001858152602001848152602001838152602001821515151581526020019550505050505060405180910390f35b34801561115557600080fd5b5061117460048036038101908080359060200190929190505050612a94565b6040518080602001828103825283818151815260200191508051906020019080838360005b838110156111b4578082015181840152602081019050611199565b50505050905090810190601f1680156111e15780820380516001836020036101000a031916815260200191505b509250505060405180910390f35b3480156111fb57600080fd5b50611204612b5d565b6040518080602001828103825283818151815260200191508051906020019080838360005b83811015611244578082015181840152602081019050611229565b50505050905090810190601f1680156112715780820380516001836020036101000a031916815260200191505b509250505060405180910390f35b34801561128b57600080fd5b506112aa60048036038101908080359060200190929190505050612b96565b6040518082815260200191505060405180910390f35b3480156112cc57600080fd5b50611321600480360381019080803573ffffffffffffffffffffffffffffffffffffffff169060200190929190803573ffffffffffffffffffffffffffffffffffffffff169060200190929190505050612bae565b604051808215151515815260200191505060405180910390f35b34801561134757600080fd5b5061136660048036038101908080359060200190929190505050612c42565b005b6000806000837bffffffffffffffffffffffffffffffffffffffffffffffffffffffff19167bffffffffffffffffffffffffffffffffffffffffffffffffffffffff1916815260200190815260200160002060009054906101000a900460ff169050919050565b606060058054600181600116156101000203166002900480601f0160208091040260200160405190810160405280929190818152602001828054600181600116156101000203166002900480156114675780601f1061143c57610100808354040283529160200191611467565b820191906000526020600020905b81548152906001019060200180831161144a57829003601f168201915b5050505050905090565b60006002600083815260200190815260200160002060009054906101000a900473ffffffffffffffffffffffffffffffffffffffff169050919050565b60006114b982611d01565b90508073ffffffffffffffffffffffffffffffffffffffff168373ffffffffffffffffffffffffffffffffffffffff16141515156114f657600080fd5b8073ffffffffffffffffffffffffffffffffffffffff163373ffffffffffffffffffffffffffffffffffffffff16148061153657506115358133612bae565b5b151561154157600080fd5b826002600084815260200190815260200160002060006101000a81548173ffffffffffffffffffffffffffffffffffffffff021916908373ffffffffffffffffffffffffffffffffffffffff160217905550818373ffffffffffffffffffffffffffffffffffffffff168273ffffffffffffffffffffffffffffffffffffffff167f8c5be1e5ebec7d5bd14f71427d1e84f3dd0314c0f7b2291e5b200ac8c7c3b92560405160405180910390a4505050565b61167082600c836040518082805190602001908083835b60208310151561162f578051825260208201915060208101905060208303925061160a565b6001836020036101000a0380198251168184511680821785525050505050509050019150509081526020016040518091039020612e3090919063ffffffff16565b5050565b6000600980549050905090565b6040805190810160405280601081526020017f496e41707050726f53686f704974656d0000000000000000000000000000000081525081565b6301ffc9a77c01000000000000000000000000000000000000000000000000000000000281565b600061176083600c846040518082805190602001908083835b60208310151561171f57805182526020820191506020810190506020830392506116fa565b6001836020036101000a0380198251168184511680821785525050505050509050019150509081526020016040518091039020612e4990919063ffffffff16565b905092915050565b806117733382612ea2565b151561177e57600080fd5b600073ffffffffffffffffffffffffffffffffffffffff168473ffffffffffffffffffffffffffffffffffffffff16141515156117ba57600080fd5b600073ffffffffffffffffffffffffffffffffffffffff168373ffffffffffffffffffffffffffffffffffffffff16141515156117f657600080fd5b6118008483612f37565b61180a848361303a565b6118148383613252565b818373ffffffffffffffffffffffffffffffffffffffff168573ffffffffffffffffffffffffffffffffffffffff167fddf252ad1be2c89b69c2b068fc378daa952ba7f163c4a11628f55a4df523b3ef60405160405180910390a450505050565b60106020528160005260406000208181548110151561189057fe5b90600052602060002001600091509150505481565b6040805190810160405280600481526020017f494150530000000000000000000000000000000000000000000000000000000081525081565b60006118e983611ecf565b821015156118f657600080fd5b600760008473ffffffffffffffffffffffffffffffffffffffff1673ffffffffffffffffffffffffffffffffffffffff1681526020019081526020016000208281548110151561194257fe5b9060005260206000200154905092915050565b611994336040805190810160405280601181526020017f726f6c652f73797374656d2d61646d696e0000000000000000000000000000008152506115f3565b600d60009054906101000a900460ff1615156119af57600080fd5b6000600d60006101000a81548160ff0219169083151502179055507f0e5e3b3fb504c22cf5c42fa07d521225937514c654007e1f12646f89768d6f9460405160405180910390a1565b80611a033382612ea2565b1515611a0e57600080fd5b611a2a84848460206040519081016040528060008152506129e3565b50505050565b601260205281600052604060002081815481101515611a4b57fe5b90600052602060002001600091509150505481565b6000611aa1336040805190810160405280601181526020017f726f6c652f73797374656d2d61646d696e0000000000000000000000000000008152506115f3565b8190508073ffffffffffffffffffffffffffffffffffffffff16633349bacc6040518163ffffffff167c0100000000000000000000000000000000000000000000000000000000028152600401602060405180830381600087803b158015611b0857600080fd5b505af1158015611b1c573d6000803e3d6000fd5b505050506040513d6020811015611b3257600080fd5b81019080805190602001909291905050501515611b4e57600080fd5b80600e60006101000a81548173ffffffffffffffffffffffffffffffffffffffff021916908373ffffffffffffffffffffffffffffffffffffffff1602179055505050565b60145481565b60155481565b600060106000838152602001908152602001600020805490509050919050565b6000806001600084815260200190815260200160002060009054906101000a900473ffffffffffffffffffffffffffffffffffffffff169050600073ffffffffffffffffffffffffffffffffffffffff168173ffffffffffffffffffffffffffffffffffffffff161415915050919050565b6000611c3b611674565b82101515611c4857600080fd5b600982815481101515611c5757fe5b90600052602060002001549050919050565b6040805190810160405280601181526020017f726f6c652f73797374656d2d61646d696e00000000000000000000000000000081525081565b6000601260008373ffffffffffffffffffffffffffffffffffffffff1673ffffffffffffffffffffffffffffffffffffffff168152602001908152602001600020805490509050919050565b600d60009054906101000a900460ff1681565b6000806001600084815260200190815260200160002060009054906101000a900473ffffffffffffffffffffffffffffffffffffffff169050600073ffffffffffffffffffffffffffffffffffffffff168173ffffffffffffffffffffffffffffffffffffffff1614151515611d7657600080fd5b80915050919050565b600d60019054906101000a900473ffffffffffffffffffffffffffffffffffffffff1681565b6000816000600e60009054906101000a900473ffffffffffffffffffffffffffffffffffffffff1673ffffffffffffffffffffffffffffffffffffffff1663e0456ec9836040518263ffffffff167c010000000000000000000000000000000000000000000000000000000002815260040180828152602001915050602060405180830381600087803b158015611e3b57600080fd5b505af1158015611e4f573d6000803e3d6000fd5b505050506040513d6020811015611e6557600080fd5b810190808051906020019092919050505090508073ffffffffffffffffffffffffffffffffffffffff163373ffffffffffffffffffffffffffffffffffffffff16141515611eb257600080fd5b601360008581526020019081526020016000205492505050919050565b60008073ffffffffffffffffffffffffffffffffffffffff168273ffffffffffffffffffffffffffffffffffffffff1614151515611f0c57600080fd5b600360008373ffffffffffffffffffffffffffffffffffffffff1673ffffffffffffffffffffffffffffffffffffffff168152602001908152602001600020549050919050565b611f92336040805190810160405280601181526020017f726f6c652f73797374656d2d61646d696e0000000000000000000000000000008152506115f3565b600d60009054906101000a900460ff161515611fad57600080fd5b80600d60016101000a81548173ffffffffffffffffffffffffffffffffffffffff021916908373ffffffffffffffffffffffffffffffffffffffff1602179055507f450db8da6efbe9c22f2347f7c2021231df1fc58d3ae9a2fa75d39fa44619930581604051808273ffffffffffffffffffffffffffffffffffffffff1673ffffffffffffffffffffffffffffffffffffffff16815260200191505060405180910390a150565b60116020528160005260406000208181548110151561206f57fe5b90600052602060002001600091509150505481565b6040805190810160405280600f81526020017f726f6c652f73686f702d6f776e6572000000000000000000000000000000000081525081565b6120fc336040805190810160405280601181526020017f726f6c652f73797374656d2d61646d696e0000000000000000000000000000008152506115f3565b600d60009054906101000a900460ff1615151561211857600080fd5b6001600d60006101000a81548160ff0219169083151502179055507fab35696f06e428ebc5ceba8cd17f8fed287baf43440206d1943af1ee53e6d26760405160405180910390a1565b60006121a2336040805190810160405280601481526020017f726f6c652f6672616e63686973652d6f776e65720000000000000000000000008152506115f3565b6014543073ffffffffffffffffffffffffffffffffffffffff1631101515156121ca57600080fd5b601454905060006014819055503373ffffffffffffffffffffffffffffffffffffffff166108fc829081150290604051600060405180830381858888f1935050505015801561221d573d6000803e3d6000fd5b507f6a1a85b0a91cce0ab00cf08540a801804bd573bbcfa5bbd3a081522e38440ca6816040518082815260200191505060405180910390a150565b606060068054600181600116156101000203166002900480601f0160208091040260200160405190810160405280929190818152602001828054600181600116156101000203166002900480156122f05780601f106122c5576101008083540402835291602001916122f0565b820191906000526020600020905b8154815290600101906020018083116122d357829003601f168201915b5050505050905090565b600061233b336040805190810160405280601481526020017f726f6c652f6672616e63686973652d6f776e65720000000000000000000000008152506115f3565b601454905090565b600060116000838152602001908152602001600020805490509050919050565b3373ffffffffffffffffffffffffffffffffffffffff168273ffffffffffffffffffffffffffffffffffffffff161415151561239e57600080fd5b80600460003373ffffffffffffffffffffffffffffffffffffffff1673ffffffffffffffffffffffffffffffffffffffff16815260200190815260200160002060008473ffffffffffffffffffffffffffffffffffffffff1673ffffffffffffffffffffffffffffffffffffffff16815260200190815260200160002060006101000a81548160ff0219169083151502179055508173ffffffffffffffffffffffffffffffffffffffff163373ffffffffffffffffffffffffffffffffffffffff167f17307eab39ab6107e8899845ad3d59bd9653f200f220920489ca2b5937696c3183604051808215151515815260200191505060405180910390a35050565b600080600080600060011515600e60009054906101000a900473ffffffffffffffffffffffffffffffffffffffff1673ffffffffffffffffffffffffffffffffffffffff1663f29d498a88601060008b8152602001908152602001600020805490506040518363ffffffff167c01000000000000000000000000000000000000000000000000000000000281526004018083815260200182815260200192505050602060405180830381600087803b15801561255a57600080fd5b505af115801561256e573d6000803e3d6000fd5b505050506040513d602081101561258457600080fd5b810190808051906020019092919050505015151415156125a357600080fd5b600e60009054906101000a900473ffffffffffffffffffffffffffffffffffffffff1673ffffffffffffffffffffffffffffffffffffffff1663b0407cc5876040518263ffffffff167c010000000000000000000000000000000000000000000000000000000002815260040180828152602001915050602060405180830381600087803b15801561263457600080fd5b505af1158015612648573d6000803e3d6000fd5b505050506040513d602081101561265e57600080fd5b81019080805190602001909291905050503414151561267c57600080fd5b6126916015543461332990919063ffffffff16565b93506126a88460145461333f90919063ffffffff16565b6014819055506126c1843461335b90919063ffffffff16565b92506126e983601360008a81526020019081526020016000205461333f90919063ffffffff16565b6013600089815260200190815260200160002081905550600f805490509150339050600f60a0604051908101604052808373ffffffffffffffffffffffffffffffffffffffff168152602001898152602001848152602001888152602001600015158152509080600181540180825580915050906001820390600052602060002090600502016000909192909190915060008201518160000160006101000a81548173ffffffffffffffffffffffffffffffffffffffff021916908373ffffffffffffffffffffffffffffffffffffffff16021790555060208201518160010155604082015181600201556060820151816003015560808201518160040160006101000a81548160ff021916908315150217905550505050601260008273ffffffffffffffffffffffffffffffffffffffff1673ffffffffffffffffffffffffffffffffffffffff16815260200190815260200160002082908060018154018082558091505090600182039060005260206000200160009091929091909150555060116000888152602001908152602001600020829080600181540180825580915050906001820390600052602060002001600090919290919091505550601060008781526020019081526020016000208290806001815401808255809150509060018203906000526020600020016000909192909190915055506128ee8183613374565b85877f3210ade2d42380eb21f74419d934cd7b57aea57c0ce9a7b8afe59336780a07da843488886040518085815260200184815260200183815260200182815260200194505050505060405180910390a38194505050505092915050565b6060601260008373ffffffffffffffffffffffffffffffffffffffff1673ffffffffffffffffffffffffffffffffffffffff1681526020019081526020016000208054806020026020016040519081016040528092919081815260200182805480156129d757602002820191906000526020600020905b8154815260200190600101908083116129c3575b50505050509050919050565b816129ee3382612ea2565b15156129f957600080fd5b612a04858585611768565b612a10858585856133cb565b1515612a1b57600080fd5b5050505050565b600f81815481101515612a3157fe5b90600052602060002090600502016000915090508060000160009054906101000a900473ffffffffffffffffffffffffffffffffffffffff16908060010154908060020154908060030154908060040160009054906101000a900460ff16905085565b6060612a9f82611bbf565b1515612aaa57600080fd5b600b60008381526020019081526020016000208054600181600116156101000203166002900480601f016020809104026020016040519081016040528092919081815260200182805460018160011615610100020316600290048015612b515780601f10612b2657610100808354040283529160200191612b51565b820191906000526020600020905b815481529060010190602001808311612b3457829003601f168201915b50505050509050919050565b6040805190810160405280601481526020017f726f6c652f6672616e63686973652d6f776e657200000000000000000000000081525081565b60136020528060005260406000206000915090505481565b6000600460008473ffffffffffffffffffffffffffffffffffffffff1673ffffffffffffffffffffffffffffffffffffffff16815260200190815260200160002060008373ffffffffffffffffffffffffffffffffffffffff1673ffffffffffffffffffffffffffffffffffffffff16815260200190815260200160002060009054906101000a900460ff16905092915050565b6000816000600e60009054906101000a900473ffffffffffffffffffffffffffffffffffffffff1673ffffffffffffffffffffffffffffffffffffffff1663e0456ec9836040518263ffffffff167c010000000000000000000000000000000000000000000000000000000002815260040180828152602001915050602060405180830381600087803b158015612cd857600080fd5b505af1158015612cec573d6000803e3d6000fd5b505050506040513d6020811015612d0257600080fd5b810190808051906020019092919050505090508073ffffffffffffffffffffffffffffffffffffffff163373ffffffffffffffffffffffffffffffffffffffff16141515612d4f57600080fd5b60136000858152602001908152602001600020549250823073ffffffffffffffffffffffffffffffffffffffff163110151515612d8b57600080fd5b600060136000868152602001908152602001600020819055503373ffffffffffffffffffffffffffffffffffffffff166108fc849081150290604051600060405180830381858888f19350505050158015612dea573d6000803e3d6000fd5b507f592c5dcdfb4d2a25a617213d5be7a565bbe25e31a758a8ba959f62215e4ffec18484604051808381526020018281526020019250505060405180910390a150505050565b612e3a8282612e49565b1515612e4557600080fd5b5050565b60008260000160008373ffffffffffffffffffffffffffffffffffffffff1673ffffffffffffffffffffffffffffffffffffffff16815260200190815260200160002060009054906101000a900460ff16905092915050565b600080612eae83611d01565b90508073ffffffffffffffffffffffffffffffffffffffff168473ffffffffffffffffffffffffffffffffffffffff161480612f1d57508373ffffffffffffffffffffffffffffffffffffffff16612f0584611471565b73ffffffffffffffffffffffffffffffffffffffff16145b80612f2e5750612f2d8185612bae565b5b91505092915050565b8173ffffffffffffffffffffffffffffffffffffffff16612f5782611d01565b73ffffffffffffffffffffffffffffffffffffffff16141515612f7957600080fd5b600073ffffffffffffffffffffffffffffffffffffffff166002600083815260200190815260200160002060009054906101000a900473ffffffffffffffffffffffffffffffffffffffff1673ffffffffffffffffffffffffffffffffffffffff161415156130365760006002600083815260200190815260200160002060006101000a81548173ffffffffffffffffffffffffffffffffffffffff021916908373ffffffffffffffffffffffffffffffffffffffff1602179055505b5050565b600080600061304985856135ed565b600860008581526020019081526020016000205492506130b56001600760008873ffffffffffffffffffffffffffffffffffffffff1673ffffffffffffffffffffffffffffffffffffffff1681526020019081526020016000208054905061335b90919063ffffffff16565b9150600760008673ffffffffffffffffffffffffffffffffffffffff1673ffffffffffffffffffffffffffffffffffffffff1681526020019081526020016000208281548110151561310357fe5b9060005260206000200154905080600760008773ffffffffffffffffffffffffffffffffffffffff1673ffffffffffffffffffffffffffffffffffffffff1681526020019081526020016000208481548110151561315d57fe5b90600052602060002001819055506000600760008773ffffffffffffffffffffffffffffffffffffffff1673ffffffffffffffffffffffffffffffffffffffff168152602001908152602001600020838154811015156131b957fe5b9060005260206000200181905550600760008673ffffffffffffffffffffffffffffffffffffffff1673ffffffffffffffffffffffffffffffffffffffff168152602001908152602001600020805480919060019003613219919061392f565b50600060086000868152602001908152602001600020819055508260086000838152602001908152602001600020819055505050505050565b600061325e838361371c565b600760008473ffffffffffffffffffffffffffffffffffffffff1673ffffffffffffffffffffffffffffffffffffffff168152602001908152602001600020805490509050600760008473ffffffffffffffffffffffffffffffffffffffff1673ffffffffffffffffffffffffffffffffffffffff168152602001908152602001600020829080600181540180825580915050906001820390600052602060002001600090919290919091505550806008600084815260200190815260200160002081905550505050565b6000818381151561333657fe5b04905092915050565b6000818301905082811015151561335257fe5b80905092915050565b600082821115151561336957fe5b818303905092915050565b61337e8282613876565b600980549050600a60008381526020019081526020016000208190555060098190806001815401808255809150509060018203906000526020600020016000909192909190915055505050565b6000806133ed8573ffffffffffffffffffffffffffffffffffffffff1661391c565b15156133fc57600191506135e4565b8473ffffffffffffffffffffffffffffffffffffffff1663150b7a02338887876040518563ffffffff167c0100000000000000000000000000000000000000000000000000000000028152600401808573ffffffffffffffffffffffffffffffffffffffff1673ffffffffffffffffffffffffffffffffffffffff1681526020018473ffffffffffffffffffffffffffffffffffffffff1673ffffffffffffffffffffffffffffffffffffffff16815260200183815260200180602001828103825283818151815260200191508051906020019080838360005b838110156134f15780820151818401526020810190506134d6565b50505050905090810190601f16801561351e5780820380516001836020036101000a031916815260200191505b5095505050505050602060405180830381600087803b15801561354057600080fd5b505af1158015613554573d6000803e3d6000fd5b505050506040513d602081101561356a57600080fd5b8101908080519060200190929190505050905063150b7a027c0100000000000000000000000000000000000000000000000000000000027bffffffffffffffffffffffffffffffffffffffffffffffffffffffff1916817bffffffffffffffffffffffffffffffffffffffffffffffffffffffff19161491505b50949350505050565b8173ffffffffffffffffffffffffffffffffffffffff1661360d82611d01565b73ffffffffffffffffffffffffffffffffffffffff1614151561362f57600080fd5b6136826001600360008573ffffffffffffffffffffffffffffffffffffffff1673ffffffffffffffffffffffffffffffffffffffff1681526020019081526020016000205461335b90919063ffffffff16565b600360008473ffffffffffffffffffffffffffffffffffffffff1673ffffffffffffffffffffffffffffffffffffffff1681526020019081526020016000208190555060006001600083815260200190815260200160002060006101000a81548173ffffffffffffffffffffffffffffffffffffffff021916908373ffffffffffffffffffffffffffffffffffffffff1602179055505050565b600073ffffffffffffffffffffffffffffffffffffffff166001600083815260200190815260200160002060009054906101000a900473ffffffffffffffffffffffffffffffffffffffff1673ffffffffffffffffffffffffffffffffffffffff1614151561378a57600080fd5b816001600083815260200190815260200160002060006101000a81548173ffffffffffffffffffffffffffffffffffffffff021916908373ffffffffffffffffffffffffffffffffffffffff16021790555061382f6001600360008573ffffffffffffffffffffffffffffffffffffffff1673ffffffffffffffffffffffffffffffffffffffff1681526020019081526020016000205461333f90919063ffffffff16565b600360008473ffffffffffffffffffffffffffffffffffffffff1673ffffffffffffffffffffffffffffffffffffffff168152602001908152602001600020819055505050565b600073ffffffffffffffffffffffffffffffffffffffff168273ffffffffffffffffffffffffffffffffffffffff16141515156138b257600080fd5b6138bc8282613252565b808273ffffffffffffffffffffffffffffffffffffffff16600073ffffffffffffffffffffffffffffffffffffffff167fddf252ad1be2c89b69c2b068fc378daa952ba7f163c4a11628f55a4df523b3ef60405160405180910390a45050565b600080823b905060008111915050919050565b81548183558181111561395657818360005260206000209182019101613955919061395b565b5b505050565b61397d91905b80821115613979576000816000905550600101613961565b5090565b90565b60018260000160008373ffffffffffffffffffffffffffffffffffffffff1673ffffffffffffffffffffffffffffffffffffffff16815260200190815260200160002060006101000a81548160ff02191690831515021790555050505600a165627a7a72305820e5598271420ea3d9f7dca5809f31e76ea73cca171d5606065f2b457936720a4e0029",
  "source": "pragma solidity ^0.4.24;\n\nimport \"./ItemFactory.sol\";\n\n\n/**\n * @title ProShop\n * @notice Main contract for sales side of the In-game Pro Shop System\n */\ncontract ProShop is ItemFactory {\n\n    /**\n     * @notice emitted upon the withdrawal of a Shop's balance\n     */\n    event ShopBalanceWithdrawn(uint256 shopId, uint256 amount);\n\n    /**\n     * @notice emitted upon the withdrawal of the franchise's balance\n     */\n    event FranchiseBalanceWithdrawn(uint256 amount);\n\n    constructor() public {\n        franchiseFeePercent = 3; // Percentage of each sale going to the franchise owner\n    }\n\n    /**\n     * @notice Set the address of the StockRoom contract\n     */\n    function setStockRoomContractAddress(address _address) external onlySysAdmin {\n        StockRoomInterface candidateContract = StockRoomInterface(_address);\n\n        // Verify that we have the appropriate address\n        require(candidateContract.isStockRoom());\n\n        // Set the new contract address\n        stockRoom = candidateContract;\n    }\n\n    /**\n     * @notice Allow a shop owner to withdraw the accumulated balance of their shop, if any\n     */\n    function withdrawShopBalance(uint256 _shopId) external onlyShopOwner(_shopId) {\n        uint256 amount = shopBalances[_shopId];\n        require(address(this).balance >= amount);\n        shopBalances[_shopId] = 0;\n        msg.sender.transfer(amount);\n        emit ShopBalanceWithdrawn(_shopId, amount);\n    }\n\n    /**\n     * @notice Allow the franchise owner to withdraw their accumulated balance, if any\n     */\n    function withdrawFranchiseBalance() external onlyFranchiseOwner() {\n        require(address(this).balance >= franchiseBalance);\n        uint256 amount = franchiseBalance;\n        franchiseBalance = 0;\n        msg.sender.transfer(amount);\n        emit FranchiseBalanceWithdrawn(amount);\n    }\n\n    /**\n     * @notice Allow a shop owner to check the accumulated balance of their shop\n     */\n    function checkShopBalance(uint256 _shopId) external view onlyShopOwner(_shopId) returns(uint256) {\n        return shopBalances[_shopId];\n    }\n\n    /**\n     * @notice Allow the franchise owner to check their accumulated balance\n     */\n    function checkFranchiseBalance() external view onlyFranchiseOwner() returns(uint256) {\n        return franchiseBalance;\n    }\n\n    // @notice Get the list of Item Ids associated with a given Owner\n    function getItemIds(address _owner) external view returns (uint[] memory) {\n        return ownedItems[_owner];\n    }\n\n    /**\n     * @notice Get the count of minted Items associated with a given Shop\n     */\n    function getShopItemCount(uint256 _shopId) external view returns (uint256) {\n        return shopItems[_shopId].length;\n    }\n\n    /**\n     * @notice Get the count of minted Items associated with a given SKU\n     */\n    function getSKUItemCount(uint256 _skuId) external view returns (uint256) {\n        return skuItems[_skuId].length;\n    }\n\n    /**\n     * @notice Get the count of Items associated with a given Owner\n     */\n    function getOwnerItemCount(address _owner) external view returns (uint256) {\n        return ownedItems[_owner].length;\n    }\n\n}",
  "sourcePath": "/Users/cliff/Documents/in-app-pro-shop/contracts/ProShop.sol",
  "compiler": {
    "name": "solc",
    "version": "0.4.24+commit.e67f0147.Emscripten.clang"
  },
  "schemaVersion": "2.0.1",
  "updatedAt": "2018-12-13T16:11:26.925Z"
}