{
  "contractName": "ProShop",
  "abi": [
    {
      "inputs": [],
      "payable": false,
      "stateMutability": "nonpayable",
      "type": "constructor"
    },
    {
      "anonymous": false,
      "inputs": [
        {
          "indexed": true,
          "internalType": "address",
          "name": "owner",
          "type": "address"
        },
        {
          "indexed": true,
          "internalType": "address",
          "name": "approved",
          "type": "address"
        },
        {
          "indexed": true,
          "internalType": "uint256",
          "name": "tokenId",
          "type": "uint256"
        }
      ],
      "name": "Approval",
      "type": "event"
    },
    {
      "anonymous": false,
      "inputs": [
        {
          "indexed": true,
          "internalType": "address",
          "name": "owner",
          "type": "address"
        },
        {
          "indexed": true,
          "internalType": "address",
          "name": "operator",
          "type": "address"
        },
        {
          "indexed": false,
          "internalType": "bool",
          "name": "approved",
          "type": "bool"
        }
      ],
      "name": "ApprovalForAll",
      "type": "event"
    },
    {
      "anonymous": false,
      "inputs": [],
      "name": "ContractPaused",
      "type": "event"
    },
    {
      "anonymous": false,
      "inputs": [],
      "name": "ContractUnpaused",
      "type": "event"
    },
    {
      "anonymous": false,
      "inputs": [
        {
          "indexed": false,
          "internalType": "address",
          "name": "newContract",
          "type": "address"
        }
      ],
      "name": "ContractUpgrade",
      "type": "event"
    },
    {
      "anonymous": false,
      "inputs": [
        {
          "indexed": false,
          "internalType": "uint256",
          "name": "amount",
          "type": "uint256"
        }
      ],
      "name": "FranchiseBalanceWithdrawn",
      "type": "event"
    },
    {
      "anonymous": false,
      "inputs": [
        {
          "indexed": true,
          "internalType": "uint256",
          "name": "shopId",
          "type": "uint256"
        },
        {
          "indexed": true,
          "internalType": "uint256",
          "name": "skuId",
          "type": "uint256"
        },
        {
          "indexed": false,
          "internalType": "uint256",
          "name": "itemId",
          "type": "uint256"
        },
        {
          "indexed": false,
          "internalType": "uint256",
          "name": "amount",
          "type": "uint256"
        },
        {
          "indexed": false,
          "internalType": "uint256",
          "name": "fee",
          "type": "uint256"
        },
        {
          "indexed": false,
          "internalType": "uint256",
          "name": "net",
          "type": "uint256"
        }
      ],
      "name": "NewItem",
      "type": "event"
    },
    {
      "anonymous": false,
      "inputs": [
        {
          "indexed": false,
          "internalType": "uint256",
          "name": "shopId",
          "type": "uint256"
        },
        {
          "indexed": false,
          "internalType": "uint256",
          "name": "amount",
          "type": "uint256"
        }
      ],
      "name": "ShopBalanceWithdrawn",
      "type": "event"
    },
    {
      "anonymous": false,
      "inputs": [
        {
          "indexed": true,
          "internalType": "address",
          "name": "from",
          "type": "address"
        },
        {
          "indexed": true,
          "internalType": "address",
          "name": "to",
          "type": "address"
        },
        {
          "indexed": true,
          "internalType": "uint256",
          "name": "tokenId",
          "type": "uint256"
        }
      ],
      "name": "Transfer",
      "type": "event"
    },
    {
      "constant": true,
      "inputs": [],
      "name": "TOKEN_NAME",
      "outputs": [
        {
          "internalType": "string",
          "name": "",
          "type": "string"
        }
      ],
      "payable": false,
      "stateMutability": "view",
      "type": "function"
    },
    {
      "constant": true,
      "inputs": [],
      "name": "TOKEN_SYMBOL",
      "outputs": [
        {
          "internalType": "string",
          "name": "",
          "type": "string"
        }
      ],
      "payable": false,
      "stateMutability": "view",
      "type": "function"
    },
    {
      "constant": false,
      "inputs": [
        {
          "internalType": "address",
          "name": "to",
          "type": "address"
        },
        {
          "internalType": "uint256",
          "name": "tokenId",
          "type": "uint256"
        }
      ],
      "name": "approve",
      "outputs": [],
      "payable": false,
      "stateMutability": "nonpayable",
      "type": "function"
    },
    {
      "constant": true,
      "inputs": [
        {
          "internalType": "address",
          "name": "owner",
          "type": "address"
        }
      ],
      "name": "balanceOf",
      "outputs": [
        {
          "internalType": "uint256",
          "name": "",
          "type": "uint256"
        }
      ],
      "payable": false,
      "stateMutability": "view",
      "type": "function"
    },
    {
      "constant": false,
      "inputs": [
        {
          "internalType": "uint256",
          "name": "_shopId",
          "type": "uint256"
        },
        {
          "internalType": "uint256",
          "name": "_skuId",
          "type": "uint256"
        }
      ],
      "name": "createItem",
      "outputs": [
        {
          "internalType": "uint256",
          "name": "",
          "type": "uint256"
        }
      ],
      "payable": true,
      "stateMutability": "payable",
      "type": "function"
    },
    {
      "constant": true,
      "inputs": [],
      "name": "franchiseBalance",
      "outputs": [
        {
          "internalType": "uint256",
          "name": "",
          "type": "uint256"
        }
      ],
      "payable": false,
      "stateMutability": "view",
      "type": "function"
    },
    {
      "constant": true,
      "inputs": [],
      "name": "franchiseFeePercent",
      "outputs": [
        {
          "internalType": "uint256",
          "name": "",
          "type": "uint256"
        }
      ],
      "payable": false,
      "stateMutability": "view",
      "type": "function"
    },
    {
      "constant": true,
      "inputs": [
        {
          "internalType": "uint256",
          "name": "tokenId",
          "type": "uint256"
        }
      ],
      "name": "getApproved",
      "outputs": [
        {
          "internalType": "address",
          "name": "",
          "type": "address"
        }
      ],
      "payable": false,
      "stateMutability": "view",
      "type": "function"
    },
    {
      "constant": true,
      "inputs": [
        {
          "internalType": "address",
          "name": "owner",
          "type": "address"
        },
        {
          "internalType": "address",
          "name": "operator",
          "type": "address"
        }
      ],
      "name": "isApprovedForAll",
      "outputs": [
        {
          "internalType": "bool",
          "name": "",
          "type": "bool"
        }
      ],
      "payable": false,
      "stateMutability": "view",
      "type": "function"
    },
    {
      "constant": true,
      "inputs": [
        {
          "internalType": "uint256",
          "name": "",
          "type": "uint256"
        }
      ],
      "name": "items",
      "outputs": [
        {
          "internalType": "address",
          "name": "owner",
          "type": "address"
        },
        {
          "internalType": "uint256",
          "name": "shopId",
          "type": "uint256"
        },
        {
          "internalType": "uint256",
          "name": "itemId",
          "type": "uint256"
        },
        {
          "internalType": "uint256",
          "name": "skuId",
          "type": "uint256"
        },
        {
          "internalType": "bool",
          "name": "consumed",
          "type": "bool"
        }
      ],
      "payable": false,
      "stateMutability": "view",
      "type": "function"
    },
    {
      "constant": true,
      "inputs": [],
      "name": "name",
      "outputs": [
        {
          "internalType": "string",
          "name": "",
          "type": "string"
        }
      ],
      "payable": false,
      "stateMutability": "view",
      "type": "function"
    },
    {
      "constant": true,
      "inputs": [],
      "name": "newContractAddress",
      "outputs": [
        {
          "internalType": "address",
          "name": "",
          "type": "address"
        }
      ],
      "payable": false,
      "stateMutability": "view",
      "type": "function"
    },
    {
      "constant": true,
      "inputs": [
        {
          "internalType": "address",
          "name": "",
          "type": "address"
        },
        {
          "internalType": "uint256",
          "name": "",
          "type": "uint256"
        }
      ],
      "name": "ownedItems",
      "outputs": [
        {
          "internalType": "uint256",
          "name": "",
          "type": "uint256"
        }
      ],
      "payable": false,
      "stateMutability": "view",
      "type": "function"
    },
    {
      "constant": true,
      "inputs": [
        {
          "internalType": "uint256",
          "name": "tokenId",
          "type": "uint256"
        }
      ],
      "name": "ownerOf",
      "outputs": [
        {
          "internalType": "address",
          "name": "",
          "type": "address"
        }
      ],
      "payable": false,
      "stateMutability": "view",
      "type": "function"
    },
    {
      "constant": false,
      "inputs": [],
      "name": "pause",
      "outputs": [],
      "payable": false,
      "stateMutability": "nonpayable",
      "type": "function"
    },
    {
      "constant": true,
      "inputs": [],
      "name": "paused",
      "outputs": [
        {
          "internalType": "bool",
          "name": "",
          "type": "bool"
        }
      ],
      "payable": false,
      "stateMutability": "view",
      "type": "function"
    },
    {
      "constant": false,
      "inputs": [
        {
          "internalType": "address",
          "name": "from",
          "type": "address"
        },
        {
          "internalType": "address",
          "name": "to",
          "type": "address"
        },
        {
          "internalType": "uint256",
          "name": "tokenId",
          "type": "uint256"
        }
      ],
      "name": "safeTransferFrom",
      "outputs": [],
      "payable": false,
      "stateMutability": "nonpayable",
      "type": "function"
    },
    {
      "constant": false,
      "inputs": [
        {
          "internalType": "address",
          "name": "from",
          "type": "address"
        },
        {
          "internalType": "address",
          "name": "to",
          "type": "address"
        },
        {
          "internalType": "uint256",
          "name": "tokenId",
          "type": "uint256"
        },
        {
          "internalType": "bytes",
          "name": "_data",
          "type": "bytes"
        }
      ],
      "name": "safeTransferFrom",
      "outputs": [],
      "payable": false,
      "stateMutability": "nonpayable",
      "type": "function"
    },
    {
      "constant": false,
      "inputs": [
        {
          "internalType": "address",
          "name": "to",
          "type": "address"
        },
        {
          "internalType": "bool",
          "name": "approved",
          "type": "bool"
        }
      ],
      "name": "setApprovalForAll",
      "outputs": [],
      "payable": false,
      "stateMutability": "nonpayable",
      "type": "function"
    },
    {
      "constant": true,
      "inputs": [
        {
          "internalType": "uint256",
          "name": "",
          "type": "uint256"
        }
      ],
      "name": "shopBalances",
      "outputs": [
        {
          "internalType": "uint256",
          "name": "",
          "type": "uint256"
        }
      ],
      "payable": false,
      "stateMutability": "view",
      "type": "function"
    },
    {
      "constant": true,
      "inputs": [
        {
          "internalType": "uint256",
          "name": "",
          "type": "uint256"
        },
        {
          "internalType": "uint256",
          "name": "",
          "type": "uint256"
        }
      ],
      "name": "shopItems",
      "outputs": [
        {
          "internalType": "uint256",
          "name": "",
          "type": "uint256"
        }
      ],
      "payable": false,
      "stateMutability": "view",
      "type": "function"
    },
    {
      "constant": true,
      "inputs": [
        {
          "internalType": "uint256",
          "name": "",
          "type": "uint256"
        },
        {
          "internalType": "uint256",
          "name": "",
          "type": "uint256"
        }
      ],
      "name": "skuItems",
      "outputs": [
        {
          "internalType": "uint256",
          "name": "",
          "type": "uint256"
        }
      ],
      "payable": false,
      "stateMutability": "view",
      "type": "function"
    },
    {
      "constant": true,
      "inputs": [
        {
          "internalType": "bytes4",
          "name": "interfaceId",
          "type": "bytes4"
        }
      ],
      "name": "supportsInterface",
      "outputs": [
        {
          "internalType": "bool",
          "name": "",
          "type": "bool"
        }
      ],
      "payable": false,
      "stateMutability": "view",
      "type": "function"
    },
    {
      "constant": true,
      "inputs": [],
      "name": "symbol",
      "outputs": [
        {
          "internalType": "string",
          "name": "",
          "type": "string"
        }
      ],
      "payable": false,
      "stateMutability": "view",
      "type": "function"
    },
    {
      "constant": true,
      "inputs": [
        {
          "internalType": "uint256",
          "name": "index",
          "type": "uint256"
        }
      ],
      "name": "tokenByIndex",
      "outputs": [
        {
          "internalType": "uint256",
          "name": "",
          "type": "uint256"
        }
      ],
      "payable": false,
      "stateMutability": "view",
      "type": "function"
    },
    {
      "constant": true,
      "inputs": [
        {
          "internalType": "address",
          "name": "owner",
          "type": "address"
        },
        {
          "internalType": "uint256",
          "name": "index",
          "type": "uint256"
        }
      ],
      "name": "tokenOfOwnerByIndex",
      "outputs": [
        {
          "internalType": "uint256",
          "name": "",
          "type": "uint256"
        }
      ],
      "payable": false,
      "stateMutability": "view",
      "type": "function"
    },
    {
      "constant": true,
      "inputs": [
        {
          "internalType": "uint256",
          "name": "tokenId",
          "type": "uint256"
        }
      ],
      "name": "tokenURI",
      "outputs": [
        {
          "internalType": "string",
          "name": "",
          "type": "string"
        }
      ],
      "payable": false,
      "stateMutability": "view",
      "type": "function"
    },
    {
      "constant": true,
      "inputs": [],
      "name": "totalSupply",
      "outputs": [
        {
          "internalType": "uint256",
          "name": "",
          "type": "uint256"
        }
      ],
      "payable": false,
      "stateMutability": "view",
      "type": "function"
    },
    {
      "constant": false,
      "inputs": [
        {
          "internalType": "address",
          "name": "from",
          "type": "address"
        },
        {
          "internalType": "address",
          "name": "to",
          "type": "address"
        },
        {
          "internalType": "uint256",
          "name": "tokenId",
          "type": "uint256"
        }
      ],
      "name": "transferFrom",
      "outputs": [],
      "payable": false,
      "stateMutability": "nonpayable",
      "type": "function"
    },
    {
      "constant": false,
      "inputs": [],
      "name": "unpause",
      "outputs": [],
      "payable": false,
      "stateMutability": "nonpayable",
      "type": "function"
    },
    {
      "constant": false,
      "inputs": [
        {
          "internalType": "address",
          "name": "_newAddress",
          "type": "address"
        }
      ],
      "name": "upgradeContract",
      "outputs": [],
      "payable": false,
      "stateMutability": "nonpayable",
      "type": "function"
    },
    {
      "constant": true,
      "inputs": [],
      "name": "upgraded",
      "outputs": [
        {
          "internalType": "bool",
          "name": "",
          "type": "bool"
        }
      ],
      "payable": false,
      "stateMutability": "view",
      "type": "function"
    },
    {
      "constant": false,
      "inputs": [
        {
          "internalType": "address",
          "name": "_address",
          "type": "address"
        }
      ],
      "name": "setStockRoomContractAddress",
      "outputs": [],
      "payable": false,
      "stateMutability": "nonpayable",
      "type": "function"
    },
    {
      "constant": false,
      "inputs": [
        {
          "internalType": "uint256",
          "name": "_shopId",
          "type": "uint256"
        }
      ],
      "name": "withdrawShopBalance",
      "outputs": [],
      "payable": false,
      "stateMutability": "nonpayable",
      "type": "function"
    },
    {
      "constant": false,
      "inputs": [],
      "name": "withdrawFranchiseBalance",
      "outputs": [],
      "payable": false,
      "stateMutability": "nonpayable",
      "type": "function"
    },
    {
      "constant": true,
      "inputs": [
        {
          "internalType": "uint256",
          "name": "_shopId",
          "type": "uint256"
        },
        {
          "internalType": "bool",
          "name": "_inFiat",
          "type": "bool"
        }
      ],
      "name": "checkShopBalance",
      "outputs": [
        {
          "internalType": "uint256",
          "name": "",
          "type": "uint256"
        }
      ],
      "payable": false,
      "stateMutability": "view",
      "type": "function"
    },
    {
      "constant": true,
      "inputs": [
        {
          "internalType": "bool",
          "name": "_inFiat",
          "type": "bool"
        }
      ],
      "name": "checkFranchiseBalance",
      "outputs": [
        {
          "internalType": "uint256",
          "name": "",
          "type": "uint256"
        }
      ],
      "payable": false,
      "stateMutability": "view",
      "type": "function"
    },
    {
      "constant": true,
      "inputs": [
        {
          "internalType": "address",
          "name": "_owner",
          "type": "address"
        }
      ],
      "name": "getItemIds",
      "outputs": [
        {
          "internalType": "uint256[]",
          "name": "",
          "type": "uint256[]"
        }
      ],
      "payable": false,
      "stateMutability": "view",
      "type": "function"
    },
    {
      "constant": true,
      "inputs": [
        {
          "internalType": "uint256",
          "name": "_shopId",
          "type": "uint256"
        }
      ],
      "name": "getShopItemCount",
      "outputs": [
        {
          "internalType": "uint256",
          "name": "",
          "type": "uint256"
        }
      ],
      "payable": false,
      "stateMutability": "view",
      "type": "function"
    },
    {
      "constant": true,
      "inputs": [
        {
          "internalType": "uint256",
          "name": "_skuId",
          "type": "uint256"
        }
      ],
      "name": "getSKUItemCount",
      "outputs": [
        {
          "internalType": "uint256",
          "name": "",
          "type": "uint256"
        }
      ],
      "payable": false,
      "stateMutability": "view",
      "type": "function"
    },
    {
      "constant": true,
      "inputs": [
        {
          "internalType": "address",
          "name": "_owner",
          "type": "address"
        }
      ],
      "name": "getOwnerItemCount",
      "outputs": [
        {
          "internalType": "uint256",
          "name": "",
          "type": "uint256"
        }
      ],
      "payable": false,
      "stateMutability": "view",
      "type": "function"
    }
  ],
  "bytecode": "0x60806040526000600f60006101000a81548160ff0219169083151502179055506000600f60016101000a81548160ff0219169083151502179055503480156200004757600080fd5b506040518060400160405280601081526020017f496e41707050726f53686f704974656d000000000000000000000000000000008152506040518060400160405280600481526020017f49415053000000000000000000000000000000000000000000000000000000008152508181620000ce6301ffc9a760e01b620001ab60201b60201c565b620000e66380ac58cd60e01b620001ab60201b60201c565b620000fe63780e9d6360e01b620001ab60201b60201c565b81600990805190602001906200011692919062000478565b5080600a90805190602001906200012f92919062000478565b5062000148635b5e139f60e01b620001ab60201b60201c565b505050506001600f60016101000a81548160ff0219169083151502179055506200018233600c620002b460201b62003f751790919060201c565b6200019d33600d620002b460201b62003f751790919060201c565b600360178190555062000527565b63ffffffff60e01b817bffffffffffffffffffffffffffffffffffffffffffffffffffffffff1916141562000248576040517f08c379a000000000000000000000000000000000000000000000000000000000815260040180806020018281038252601c8152602001807f4552433136353a20696e76616c696420696e746572666163652069640000000081525060200191505060405180910390fd5b6001600080837bffffffffffffffffffffffffffffffffffffffffffffffffffffffff19167bffffffffffffffffffffffffffffffffffffffffffffffffffffffff1916815260200190815260200160002060006101000a81548160ff02191690831515021790555050565b620002c682826200039860201b60201c565b156200033a576040517f08c379a000000000000000000000000000000000000000000000000000000000815260040180806020018281038252601f8152602001807f526f6c65733a206163636f756e7420616c72656164792068617320726f6c650081525060200191505060405180910390fd5b60018260000160008373ffffffffffffffffffffffffffffffffffffffff1673ffffffffffffffffffffffffffffffffffffffff16815260200190815260200160002060006101000a81548160ff0219169083151502179055505050565b60008073ffffffffffffffffffffffffffffffffffffffff168273ffffffffffffffffffffffffffffffffffffffff16141562000421576040517f08c379a0000000000000000000000000000000000000000000000000000000008152600401808060200182810382526022815260200180620048396022913960400191505060405180910390fd5b8260000160008373ffffffffffffffffffffffffffffffffffffffff1673ffffffffffffffffffffffffffffffffffffffff16815260200190815260200160002060009054906101000a900460ff16905092915050565b828054600181600116156101000203166002900490600052602060002090601f016020900481019282601f10620004bb57805160ff1916838001178555620004ec565b82800160010185558215620004ec579182015b82811115620004eb578251825591602001919060010190620004ce565b5b509050620004fb9190620004ff565b5090565b6200052491905b808211156200052057600081600090555060010162000506565b5090565b90565b61430280620005376000396000f3fe6080604052600436106102465760003560e01c80636352211e11610139578063adae08dd116100b6578063c28de2cd1161007a578063c28de2cd14610fd0578063c87b56dd14610fff578063e659ebef146110b3578063e985e9c514611102578063eb2c02231461118b578063fc4fc4de146111dc57610246565b8063adae08dd14610cd6578063b86c7c9314610d22578063b88d4fde14610dc8578063bfb231d214610eda578063c10f41a314610f7557610246565b80638b2b303c116100fd5780638b2b303c14610b3257806395d89b4114610b495780639b996ad214610bd95780639e27016f14610c28578063a22cb46514610c7957610246565b80636352211e1461098b5780636af04a5714610a0657806370a0823114610a5d5780637ceab6b014610ac25780638456cb5914610b1b57610246565b80633f4ba83a116101c75780634b2aecdc1161018b5780634b2aecdc1461082e5780634beaf13d146108595780634f6ccce7146108a85780635a761950146108f75780635c975abb1461095c57610246565b80633f4ba83a146106b157806342842e0e146106c85780634284653414610743578063463838af146107b2578063477e2b3c1461080357610246565b8063188214001161020e578063188214001461044e57806323b872dd146104de57806327bcfd61146105595780632a905318146105b25780632f745c591461064257610246565b806301ffc9a71461024b57806306fdde03146102bd578063081812fc1461034d578063095ea7b3146103c857806318160ddd14610423575b600080fd5b34801561025757600080fd5b506102a36004803603602081101561026e57600080fd5b8101908080357bffffffffffffffffffffffffffffffffffffffffffffffffffffffff19169060200190929190505050611217565b604051808215151515815260200191505060405180910390f35b3480156102c957600080fd5b506102d261127e565b6040518080602001828103825283818151815260200191508051906020019080838360005b838110156103125780820151818401526020810190506102f7565b50505050905090810190601f16801561033f5780820380516001836020036101000a031916815260200191505b509250505060405180910390f35b34801561035957600080fd5b506103866004803603602081101561037057600080fd5b8101908080359060200190929190505050611320565b604051808273ffffffffffffffffffffffffffffffffffffffff1673ffffffffffffffffffffffffffffffffffffffff16815260200191505060405180910390f35b3480156103d457600080fd5b50610421600480360360408110156103eb57600080fd5b81019080803573ffffffffffffffffffffffffffffffffffffffff169060200190929190803590602001909291905050506113bb565b005b34801561042f57600080fd5b506104386115a2565b6040518082815260200191505060405180910390f35b34801561045a57600080fd5b506104636115af565b6040518080602001828103825283818151815260200191508051906020019080838360005b838110156104a3578082015181840152602081019050610488565b50505050905090810190601f1680156104d05780820380516001836020036101000a031916815260200191505b509250505060405180910390f35b3480156104ea57600080fd5b506105576004803603606081101561050157600080fd5b81019080803573ffffffffffffffffffffffffffffffffffffffff169060200190929190803573ffffffffffffffffffffffffffffffffffffffff169060200190929190803590602001909291905050506115e8565b005b34801561056557600080fd5b5061059c6004803603604081101561057c57600080fd5b81019080803590602001909291908035906020019092919050505061165e565b6040518082815260200191505060405180910390f35b3480156105be57600080fd5b506105c761168c565b6040518080602001828103825283818151815260200191508051906020019080838360005b838110156106075780820151818401526020810190506105ec565b50505050905090810190601f1680156106345780820380516001836020036101000a031916815260200191505b509250505060405180910390f35b34801561064e57600080fd5b5061069b6004803603604081101561066557600080fd5b81019080803573ffffffffffffffffffffffffffffffffffffffff169060200190929190803590602001909291905050506116c5565b6040518082815260200191505060405180910390f35b3480156106bd57600080fd5b506106c6611784565b005b3480156106d457600080fd5b50610741600480360360608110156106eb57600080fd5b81019080803573ffffffffffffffffffffffffffffffffffffffff169060200190929190803573ffffffffffffffffffffffffffffffffffffffff1690602001909291908035906020019092919050505061181d565b005b34801561074f57600080fd5b5061079c6004803603604081101561076657600080fd5b81019080803573ffffffffffffffffffffffffffffffffffffffff1690602001909291908035906020019092919050505061183d565b6040518082815260200191505060405180910390f35b3480156107be57600080fd5b50610801600480360360208110156107d557600080fd5b81019080803573ffffffffffffffffffffffffffffffffffffffff16906020019092919050505061186b565b005b34801561080f57600080fd5b5061081861195c565b6040518082815260200191505060405180910390f35b34801561083a57600080fd5b50610843611962565b6040518082815260200191505060405180910390f35b34801561086557600080fd5b506108926004803603602081101561087c57600080fd5b8101908080359060200190929190505050611968565b6040518082815260200191505060405180910390f35b3480156108b457600080fd5b506108e1600480360360208110156108cb57600080fd5b8101908080359060200190929190505050611988565b6040518082815260200191505060405180910390f35b34801561090357600080fd5b506109466004803603602081101561091a57600080fd5b81019080803573ffffffffffffffffffffffffffffffffffffffff169060200190929190505050611a08565b6040518082815260200191505060405180910390f35b34801561096857600080fd5b50610971611a54565b604051808215151515815260200191505060405180910390f35b34801561099757600080fd5b506109c4600480360360208110156109ae57600080fd5b8101908080359060200190929190505050611a67565b604051808273ffffffffffffffffffffffffffffffffffffffff1673ffffffffffffffffffffffffffffffffffffffff16815260200191505060405180910390f35b348015610a1257600080fd5b50610a1b611b2f565b604051808273ffffffffffffffffffffffffffffffffffffffff1673ffffffffffffffffffffffffffffffffffffffff16815260200191505060405180910390f35b348015610a6957600080fd5b50610aac60048036036020811015610a8057600080fd5b81019080803573ffffffffffffffffffffffffffffffffffffffff169060200190929190505050611b55565b6040518082815260200191505060405180910390f35b348015610ace57600080fd5b50610b0560048036036040811015610ae557600080fd5b810190808035906020019092919080359060200190929190505050611c2a565b6040518082815260200191505060405180910390f35b348015610b2757600080fd5b50610b30611c58565b005b348015610b3e57600080fd5b50610b47611cd8565b005b348015610b5557600080fd5b50610b5e611e15565b6040518080602001828103825283818151815260200191508051906020019080838360005b83811015610b9e578082015181840152602081019050610b83565b50505050905090810190601f168015610bcb5780820380516001836020036101000a031916815260200191505b509250505060405180910390f35b348015610be557600080fd5b50610c1260048036036020811015610bfc57600080fd5b8101908080359060200190929190505050611eb7565b6040518082815260200191505060405180910390f35b348015610c3457600080fd5b50610c6360048036036020811015610c4b57600080fd5b81019080803515159060200190929190505050611ed7565b6040518082815260200191505060405180910390f35b348015610c8557600080fd5b50610cd460048036036040811015610c9c57600080fd5b81019080803573ffffffffffffffffffffffffffffffffffffffff169060200190929190803515159060200190929190505050611fc9565b005b610d0c60048036036040811015610cec57600080fd5b810190808035906020019092919080359060200190929190505050612181565b6040518082815260200191505060405180910390f35b348015610d2e57600080fd5b50610d7160048036036020811015610d4557600080fd5b81019080803573ffffffffffffffffffffffffffffffffffffffff16906020019092919050505061261c565b6040518080602001828103825283818151815260200191508051906020019060200280838360005b83811015610db4578082015181840152602081019050610d99565b505050509050019250505060405180910390f35b348015610dd457600080fd5b50610ed860048036036080811015610deb57600080fd5b81019080803573ffffffffffffffffffffffffffffffffffffffff169060200190929190803573ffffffffffffffffffffffffffffffffffffffff1690602001909291908035906020019092919080359060200190640100000000811115610e5257600080fd5b820183602082011115610e6457600080fd5b80359060200191846001830284011164010000000083111715610e8657600080fd5b91908080601f016020809104026020016040519081016040528093929190818152602001838380828437600081840152601f19601f8201169050808301925050505050505091929192905050506126b3565b005b348015610ee657600080fd5b50610f1360048036036020811015610efd57600080fd5b810190808035906020019092919050505061272b565b604051808673ffffffffffffffffffffffffffffffffffffffff1673ffffffffffffffffffffffffffffffffffffffff168152602001858152602001848152602001838152602001821515151581526020019550505050505060405180910390f35b348015610f8157600080fd5b50610fba60048036036040811015610f9857600080fd5b810190808035906020019092919080351515906020019092919050505061279b565b6040518082815260200191505060405180910390f35b348015610fdc57600080fd5b50610fe5612979565b604051808215151515815260200191505060405180910390f35b34801561100b57600080fd5b506110386004803603602081101561102257600080fd5b810190808035906020019092919050505061298c565b6040518080602001828103825283818151815260200191508051906020019080838360005b8381101561107857808201518184015260208101905061105d565b50505050905090810190601f1680156110a55780820380516001836020036101000a031916815260200191505b509250505060405180910390f35b3480156110bf57600080fd5b506110ec600480360360208110156110d657600080fd5b8101908080359060200190929190505050612a9f565b6040518082815260200191505060405180910390f35b34801561110e57600080fd5b506111716004803603604081101561112557600080fd5b81019080803573ffffffffffffffffffffffffffffffffffffffff169060200190929190803573ffffffffffffffffffffffffffffffffffffffff169060200190929190505050612ab7565b604051808215151515815260200191505060405180910390f35b34801561119757600080fd5b506111da600480360360208110156111ae57600080fd5b81019080803573ffffffffffffffffffffffffffffffffffffffff169060200190929190505050612b4b565b005b3480156111e857600080fd5b50611215600480360360208110156111ff57600080fd5b8101908080359060200190929190505050612c5d565b005b6000806000837bffffffffffffffffffffffffffffffffffffffffffffffffffffffff19167bffffffffffffffffffffffffffffffffffffffffffffffffffffffff1916815260200190815260200160002060009054906101000a900460ff169050919050565b606060098054600181600116156101000203166002900480601f0160208091040260200160405190810160405280929190818152602001828054600181600116156101000203166002900480156113165780601f106112eb57610100808354040283529160200191611316565b820191906000526020600020905b8154815290600101906020018083116112f957829003601f168201915b5050505050905090565b600061132b82612e95565b611380576040517f08c379a000000000000000000000000000000000000000000000000000000000815260040180806020018281038252602c8152602001806141aa602c913960400191505060405180910390fd5b6002600083815260200190815260200160002060009054906101000a900473ffffffffffffffffffffffffffffffffffffffff169050919050565b60006113c682611a67565b90508073ffffffffffffffffffffffffffffffffffffffff168373ffffffffffffffffffffffffffffffffffffffff16141561144d576040517f08c379a00000000000000000000000000000000000000000000000000000000081526004018080602001828103825260218152602001806142506021913960400191505060405180910390fd5b8073ffffffffffffffffffffffffffffffffffffffff1661146c612f07565b73ffffffffffffffffffffffffffffffffffffffff16148061149b575061149a81611495612f07565b612ab7565b5b6114f0576040517f08c379a00000000000000000000000000000000000000000000000000000000081526004018080602001828103825260388152602001806140fe6038913960400191505060405180910390fd5b826002600084815260200190815260200160002060006101000a81548173ffffffffffffffffffffffffffffffffffffffff021916908373ffffffffffffffffffffffffffffffffffffffff160217905550818373ffffffffffffffffffffffffffffffffffffffff168273ffffffffffffffffffffffffffffffffffffffff167f8c5be1e5ebec7d5bd14f71427d1e84f3dd0314c0f7b2291e5b200ac8c7c3b92560405160405180910390a4505050565b6000600780549050905090565b6040518060400160405280601081526020017f496e41707050726f53686f704974656d0000000000000000000000000000000081525081565b6115f96115f3612f07565b82612f0f565b61164e576040517f08c379a00000000000000000000000000000000000000000000000000000000081526004018080602001828103825260318152602001806142716031913960400191505060405180910390fd5b611659838383613003565b505050565b6012602052816000526040600020818154811061167757fe5b90600052602060002001600091509150505481565b6040518060400160405280600481526020017f494150530000000000000000000000000000000000000000000000000000000081525081565b60006116d083611b55565b8210611727576040517f08c379a000000000000000000000000000000000000000000000000000000000815260040180806020018281038252602b815260200180614051602b913960400191505060405180910390fd5b600560008473ffffffffffffffffffffffffffffffffffffffff1673ffffffffffffffffffffffffffffffffffffffff168152602001908152602001600020828154811061177157fe5b9060005260206000200154905092915050565b61179833600c61302790919063ffffffff16565b6117a157600080fd5b600f60019054906101000a900460ff166117ba57600080fd5b600f60009054906101000a900460ff16156117d457600080fd5b6000600f60016101000a81548160ff0219169083151502179055507f0e5e3b3fb504c22cf5c42fa07d521225937514c654007e1f12646f89768d6f9460405160405180910390a1565b611838838383604051806020016040528060008152506126b3565b505050565b6014602052816000526040600020818154811061185657fe5b90600052602060002001600091509150505481565b61187f33600c61302790919063ffffffff16565b61188857600080fd5b60008190508073ffffffffffffffffffffffffffffffffffffffff16633349bacc6040518163ffffffff1660e01b815260040160206040518083038186803b1580156118d357600080fd5b505afa1580156118e7573d6000803e3d6000fd5b505050506040513d60208110156118fd57600080fd5b810190808051906020019092919050505061191757600080fd5b80601060006101000a81548173ffffffffffffffffffffffffffffffffffffffff021916908373ffffffffffffffffffffffffffffffffffffffff1602179055505050565b60165481565b60175481565b600060126000838152602001908152602001600020805490509050919050565b60006119926115a2565b82106119e9576040517f08c379a000000000000000000000000000000000000000000000000000000000815260040180806020018281038252602c8152602001806142a2602c913960400191505060405180910390fd5b600782815481106119f657fe5b90600052602060002001549050919050565b6000601460008373ffffffffffffffffffffffffffffffffffffffff1673ffffffffffffffffffffffffffffffffffffffff168152602001908152602001600020805490509050919050565b600f60019054906101000a900460ff1681565b6000806001600084815260200190815260200160002060009054906101000a900473ffffffffffffffffffffffffffffffffffffffff169050600073ffffffffffffffffffffffffffffffffffffffff168173ffffffffffffffffffffffffffffffffffffffff161415611b26576040517f08c379a00000000000000000000000000000000000000000000000000000000081526004018080602001828103825260298152602001806141606029913960400191505060405180910390fd5b80915050919050565b600f60029054906101000a900473ffffffffffffffffffffffffffffffffffffffff1681565b60008073ffffffffffffffffffffffffffffffffffffffff168273ffffffffffffffffffffffffffffffffffffffff161415611bdc576040517f08c379a000000000000000000000000000000000000000000000000000000000815260040180806020018281038252602a815260200180614136602a913960400191505060405180910390fd5b611c23600360008473ffffffffffffffffffffffffffffffffffffffff1673ffffffffffffffffffffffffffffffffffffffff168152602001908152602001600020613105565b9050919050565b60136020528160005260406000208181548110611c4357fe5b90600052602060002001600091509150505481565b611c6c33600c61302790919063ffffffff16565b611c7557600080fd5b600f60019054906101000a900460ff1615611c8f57600080fd5b6001600f60016101000a81548160ff0219169083151502179055507fab35696f06e428ebc5ceba8cd17f8fed287baf43440206d1943af1ee53e6d26760405160405180910390a1565b600f60019054906101000a900460ff1615611cf257600080fd5b611d0633600d61302790919063ffffffff16565b611d0f57600080fd5b6000601654905060008111611d8c576040517f08c379a00000000000000000000000000000000000000000000000000000000081526004018080602001828103825260158152602001807f496e73756666696369656e742062616c616e63652e000000000000000000000081525060200191505060405180910390fd5b60006016819055503373ffffffffffffffffffffffffffffffffffffffff166108fc829081150290604051600060405180830381858888f19350505050158015611dda573d6000803e3d6000fd5b507f6a1a85b0a91cce0ab00cf08540a801804bd573bbcfa5bbd3a081522e38440ca6816040518082815260200191505060405180910390a150565b6060600a8054600181600116156101000203166002900480601f016020809104026020016040519081016040528092919081815260200182805460018160011615610100020316600290048015611ead5780601f10611e8257610100808354040283529160200191611ead565b820191906000526020600020905b815481529060010190602001808311611e9057829003601f168201915b5050505050905090565b600060136000838152602001908152602001600020805490509050919050565b6000611eed33600d61302790919063ffffffff16565b611ef657600080fd5b6000601654118015611f055750815b611f1157601654611fc2565b601060009054906101000a900473ffffffffffffffffffffffffffffffffffffffff1673ffffffffffffffffffffffffffffffffffffffff1663bd8f03d76016546040518263ffffffff1660e01b81526004018082815260200191505060206040518083038186803b158015611f8657600080fd5b505afa158015611f9a573d6000803e3d6000fd5b505050506040513d6020811015611fb057600080fd5b81019080805190602001909291905050505b9050919050565b611fd1612f07565b73ffffffffffffffffffffffffffffffffffffffff168273ffffffffffffffffffffffffffffffffffffffff161415612072576040517f08c379a00000000000000000000000000000000000000000000000000000000081526004018080602001828103825260198152602001807f4552433732313a20617070726f766520746f2063616c6c65720000000000000081525060200191505060405180910390fd5b806004600061207f612f07565b73ffffffffffffffffffffffffffffffffffffffff1673ffffffffffffffffffffffffffffffffffffffff16815260200190815260200160002060008473ffffffffffffffffffffffffffffffffffffffff1673ffffffffffffffffffffffffffffffffffffffff16815260200190815260200160002060006101000a81548160ff0219169083151502179055508173ffffffffffffffffffffffffffffffffffffffff1661212c612f07565b73ffffffffffffffffffffffffffffffffffffffff167f17307eab39ab6107e8899845ad3d59bd9653f200f220920489ca2b5937696c3183604051808215151515815260200191505060405180910390a35050565b6000600f60019054906101000a900460ff161561219d57600080fd5b60011515601060009054906101000a900473ffffffffffffffffffffffffffffffffffffffff1673ffffffffffffffffffffffffffffffffffffffff1663f29d498a8460126000878152602001908152602001600020805490506040518363ffffffff1660e01b8152600401808381526020018281526020019250505060206040518083038186803b15801561223257600080fd5b505afa158015612246573d6000803e3d6000fd5b505050506040513d602081101561225c57600080fd5b810190808051906020019092919050505015151461227957600080fd5b601060009054906101000a900473ffffffffffffffffffffffffffffffffffffffff1673ffffffffffffffffffffffffffffffffffffffff1663ae539d80836040518263ffffffff1660e01b81526004018082815260200191505060206040518083038186803b1580156122ec57600080fd5b505afa158015612300573d6000803e3d6000fd5b505050506040513d602081101561231657600080fd5b8101908080519060200190929190505050341461233257600080fd5b600061235c60175461234e60643461311390919063ffffffff16565b61315d90919063ffffffff16565b9050612373816016546131e390919063ffffffff16565b601681905550600061238e823461326b90919063ffffffff16565b90506123b68160156000888152602001908152602001600020546131e390919063ffffffff16565b601560008781526020019081526020016000208190555060006011805490509050600033905060116040518060a001604052808373ffffffffffffffffffffffffffffffffffffffff168152602001898152602001848152602001888152602001600015158152509080600181540180825580915050906001820390600052602060002090600502016000909192909190915060008201518160000160006101000a81548173ffffffffffffffffffffffffffffffffffffffff021916908373ffffffffffffffffffffffffffffffffffffffff16021790555060208201518160010155604082015181600201556060820151816003015560808201518160040160006101000a81548160ff021916908315150217905550505050601460008273ffffffffffffffffffffffffffffffffffffffff1673ffffffffffffffffffffffffffffffffffffffff16815260200190815260200160002082908060018154018082558091505090600182039060005260206000200160009091929091909150555060136000888152602001908152602001600020829080600181540180825580915050906001820390600052602060002001600090919290919091505550601260008781526020019081526020016000208290806001815401808255809150509060018203906000526020600020016000909192909190915055506125be81836132b5565b85877f3210ade2d42380eb21f74419d934cd7b57aea57c0ce9a7b8afe59336780a07da843488886040518085815260200184815260200183815260200182815260200194505050505060405180910390a38194505050505092915050565b6060601460008373ffffffffffffffffffffffffffffffffffffffff1673ffffffffffffffffffffffffffffffffffffffff1681526020019081526020016000208054806020026020016040519081016040528092919081815260200182805480156126a757602002820191906000526020600020905b815481526020019060010190808311612693575b50505050509050919050565b6126c46126be612f07565b83612f0f565b612719576040517f08c379a00000000000000000000000000000000000000000000000000000000081526004018080602001828103825260318152602001806142716031913960400191505060405180910390fd5b612725848484846132d6565b50505050565b6011818154811061273857fe5b90600052602060002090600502016000915090508060000160009054906101000a900473ffffffffffffffffffffffffffffffffffffffff16908060010154908060020154908060030154908060040160009054906101000a900460ff16905085565b6000826000601060009054906101000a900473ffffffffffffffffffffffffffffffffffffffff1673ffffffffffffffffffffffffffffffffffffffff1663e0456ec9836040518263ffffffff1660e01b81526004018082815260200191505060206040518083038186803b15801561281357600080fd5b505afa158015612827573d6000803e3d6000fd5b505050506040513d602081101561283d57600080fd5b810190808051906020019092919050505090508073ffffffffffffffffffffffffffffffffffffffff163373ffffffffffffffffffffffffffffffffffffffff161461288857600080fd5b6000601560008781526020019081526020016000205490506000811180156128ad5750845b6128b7578061296e565b601060009054906101000a900473ffffffffffffffffffffffffffffffffffffffff1673ffffffffffffffffffffffffffffffffffffffff1663104f759e87836040518363ffffffff1660e01b8152600401808381526020018281526020019250505060206040518083038186803b15801561293257600080fd5b505afa158015612946573d6000803e3d6000fd5b505050506040513d602081101561295c57600080fd5b81019080805190602001909291905050505b935050505092915050565b600f60009054906101000a900460ff1681565b606061299782612e95565b6129ec576040517f08c379a000000000000000000000000000000000000000000000000000000000815260040180806020018281038252602f815260200180614221602f913960400191505060405180910390fd5b600b60008381526020019081526020016000208054600181600116156101000203166002900480601f016020809104026020016040519081016040528092919081815260200182805460018160011615610100020316600290048015612a935780601f10612a6857610100808354040283529160200191612a93565b820191906000526020600020905b815481529060010190602001808311612a7657829003601f168201915b50505050509050919050565b60156020528060005260406000206000915090505481565b6000600460008473ffffffffffffffffffffffffffffffffffffffff1673ffffffffffffffffffffffffffffffffffffffff16815260200190815260200160002060008373ffffffffffffffffffffffffffffffffffffffff1673ffffffffffffffffffffffffffffffffffffffff16815260200190815260200160002060009054906101000a900460ff16905092915050565b612b5f33600c61302790919063ffffffff16565b612b6857600080fd5b600f60019054906101000a900460ff16612b8157600080fd5b600f60009054906101000a900460ff1615612b9b57600080fd5b6001600f60006101000a81548160ff02191690831515021790555080600f60026101000a81548173ffffffffffffffffffffffffffffffffffffffff021916908373ffffffffffffffffffffffffffffffffffffffff1602179055507f450db8da6efbe9c22f2347f7c2021231df1fc58d3ae9a2fa75d39fa44619930581604051808273ffffffffffffffffffffffffffffffffffffffff1673ffffffffffffffffffffffffffffffffffffffff16815260200191505060405180910390a150565b600f60019054906101000a900460ff1615612c7757600080fd5b806000601060009054906101000a900473ffffffffffffffffffffffffffffffffffffffff1673ffffffffffffffffffffffffffffffffffffffff1663e0456ec9836040518263ffffffff1660e01b81526004018082815260200191505060206040518083038186803b158015612ced57600080fd5b505afa158015612d01573d6000803e3d6000fd5b505050506040513d6020811015612d1757600080fd5b810190808051906020019092919050505090508073ffffffffffffffffffffffffffffffffffffffff163373ffffffffffffffffffffffffffffffffffffffff1614612d6257600080fd5b60006015600085815260200190815260200160002054905060008111612df0576040517f08c379a00000000000000000000000000000000000000000000000000000000081526004018080602001828103825260158152602001807f496e73756666696369656e742062616c616e63652e000000000000000000000081525060200191505060405180910390fd5b600060156000868152602001908152602001600020819055503373ffffffffffffffffffffffffffffffffffffffff166108fc829081150290604051600060405180830381858888f19350505050158015612e4f573d6000803e3d6000fd5b507f592c5dcdfb4d2a25a617213d5be7a565bbe25e31a758a8ba959f62215e4ffec18482604051808381526020018281526020019250505060405180910390a150505050565b6000806001600084815260200190815260200160002060009054906101000a900473ffffffffffffffffffffffffffffffffffffffff169050600073ffffffffffffffffffffffffffffffffffffffff168173ffffffffffffffffffffffffffffffffffffffff161415915050919050565b600033905090565b6000612f1a82612e95565b612f6f576040517f08c379a000000000000000000000000000000000000000000000000000000000815260040180806020018281038252602c8152602001806140d2602c913960400191505060405180910390fd5b6000612f7a83611a67565b90508073ffffffffffffffffffffffffffffffffffffffff168473ffffffffffffffffffffffffffffffffffffffff161480612fe957508373ffffffffffffffffffffffffffffffffffffffff16612fd184611320565b73ffffffffffffffffffffffffffffffffffffffff16145b80612ffa5750612ff98185612ab7565b5b91505092915050565b61300e838383613348565b61301883826135a3565b6130228282613741565b505050565b60008073ffffffffffffffffffffffffffffffffffffffff168273ffffffffffffffffffffffffffffffffffffffff1614156130ae576040517f08c379a00000000000000000000000000000000000000000000000000000000081526004018080602001828103825260228152602001806141d66022913960400191505060405180910390fd5b8260000160008373ffffffffffffffffffffffffffffffffffffffff1673ffffffffffffffffffffffffffffffffffffffff16815260200190815260200160002060009054906101000a900460ff16905092915050565b600081600001549050919050565b600061315583836040518060400160405280601a81526020017f536166654d6174683a206469766973696f6e206279207a65726f000000000000815250613808565b905092915050565b60008083141561317057600090506131dd565b600082840290508284828161318157fe5b04146131d8576040517f08c379a00000000000000000000000000000000000000000000000000000000081526004018080602001828103825260218152602001806141896021913960400191505060405180910390fd5b809150505b92915050565b600080828401905083811015613261576040517f08c379a000000000000000000000000000000000000000000000000000000000815260040180806020018281038252601b8152602001807f536166654d6174683a206164646974696f6e206f766572666c6f77000000000081525060200191505060405180910390fd5b8091505092915050565b60006132ad83836040518060400160405280601e81526020017f536166654d6174683a207375627472616374696f6e206f766572666c6f7700008152506138ce565b905092915050565b6132bf828261398e565b6132c98282613741565b6132d281613ba6565b5050565b6132e1848484613003565b6132ed84848484613bf2565b613342576040517f08c379a000000000000000000000000000000000000000000000000000000000815260040180806020018281038252603281526020018061407c6032913960400191505060405180910390fd5b50505050565b8273ffffffffffffffffffffffffffffffffffffffff1661336882611a67565b73ffffffffffffffffffffffffffffffffffffffff16146133d4576040517f08c379a00000000000000000000000000000000000000000000000000000000081526004018080602001828103825260298152602001806141f86029913960400191505060405180910390fd5b600073ffffffffffffffffffffffffffffffffffffffff168273ffffffffffffffffffffffffffffffffffffffff16141561345a576040517f08c379a00000000000000000000000000000000000000000000000000000000081526004018080602001828103825260248152602001806140ae6024913960400191505060405180910390fd5b61346381613de2565b6134aa600360008573ffffffffffffffffffffffffffffffffffffffff1673ffffffffffffffffffffffffffffffffffffffff168152602001908152602001600020613ea0565b6134f1600360008473ffffffffffffffffffffffffffffffffffffffff1673ffffffffffffffffffffffffffffffffffffffff168152602001908152602001600020613ec3565b816001600083815260200190815260200160002060006101000a81548173ffffffffffffffffffffffffffffffffffffffff021916908373ffffffffffffffffffffffffffffffffffffffff160217905550808273ffffffffffffffffffffffffffffffffffffffff168473ffffffffffffffffffffffffffffffffffffffff167fddf252ad1be2c89b69c2b068fc378daa952ba7f163c4a11628f55a4df523b3ef60405160405180910390a4505050565b60006135fb6001600560008673ffffffffffffffffffffffffffffffffffffffff1673ffffffffffffffffffffffffffffffffffffffff1681526020019081526020016000208054905061326b90919063ffffffff16565b90506000600660008481526020019081526020016000205490508181146136e8576000600560008673ffffffffffffffffffffffffffffffffffffffff1673ffffffffffffffffffffffffffffffffffffffff168152602001908152602001600020838154811061366857fe5b9060005260206000200154905080600560008773ffffffffffffffffffffffffffffffffffffffff1673ffffffffffffffffffffffffffffffffffffffff16815260200190815260200160002083815481106136c057fe5b9060005260206000200181905550816006600083815260200190815260200160002081905550505b600560008573ffffffffffffffffffffffffffffffffffffffff1673ffffffffffffffffffffffffffffffffffffffff16815260200190815260200160002080548091906001900361373a9190613f24565b5050505050565b600560008373ffffffffffffffffffffffffffffffffffffffff1673ffffffffffffffffffffffffffffffffffffffff168152602001908152602001600020805490506006600083815260200190815260200160002081905550600560008373ffffffffffffffffffffffffffffffffffffffff1673ffffffffffffffffffffffffffffffffffffffff1681526020019081526020016000208190806001815401808255809150509060018203906000526020600020016000909192909190915055505050565b600080831182906138b4576040517f08c379a00000000000000000000000000000000000000000000000000000000081526004018080602001828103825283818151815260200191508051906020019080838360005b8381101561387957808201518184015260208101905061385e565b50505050905090810190601f1680156138a65780820380516001836020036101000a031916815260200191505b509250505060405180910390fd5b5060008385816138c057fe5b049050809150509392505050565b600083831115829061397b576040517f08c379a00000000000000000000000000000000000000000000000000000000081526004018080602001828103825283818151815260200191508051906020019080838360005b83811015613940578082015181840152602081019050613925565b50505050905090810190601f16801561396d5780820380516001836020036101000a031916815260200191505b509250505060405180910390fd5b5060008385039050809150509392505050565b600073ffffffffffffffffffffffffffffffffffffffff168273ffffffffffffffffffffffffffffffffffffffff161415613a31576040517f08c379a00000000000000000000000000000000000000000000000000000000081526004018080602001828103825260208152602001807f4552433732313a206d696e7420746f20746865207a65726f206164647265737381525060200191505060405180910390fd5b613a3a81612e95565b15613aad576040517f08c379a000000000000000000000000000000000000000000000000000000000815260040180806020018281038252601c8152602001807f4552433732313a20746f6b656e20616c7265616479206d696e7465640000000081525060200191505060405180910390fd5b816001600083815260200190815260200160002060006101000a81548173ffffffffffffffffffffffffffffffffffffffff021916908373ffffffffffffffffffffffffffffffffffffffff160217905550613b46600360008473ffffffffffffffffffffffffffffffffffffffff1673ffffffffffffffffffffffffffffffffffffffff168152602001908152602001600020613ec3565b808273ffffffffffffffffffffffffffffffffffffffff16600073ffffffffffffffffffffffffffffffffffffffff167fddf252ad1be2c89b69c2b068fc378daa952ba7f163c4a11628f55a4df523b3ef60405160405180910390a45050565b6007805490506008600083815260200190815260200160002081905550600781908060018154018082558091505090600182039060005260206000200160009091929091909150555050565b6000613c138473ffffffffffffffffffffffffffffffffffffffff16613ed9565b613c205760019050613dda565b60008473ffffffffffffffffffffffffffffffffffffffff1663150b7a02613c46612f07565b8887876040518563ffffffff1660e01b8152600401808573ffffffffffffffffffffffffffffffffffffffff1673ffffffffffffffffffffffffffffffffffffffff1681526020018473ffffffffffffffffffffffffffffffffffffffff1673ffffffffffffffffffffffffffffffffffffffff16815260200183815260200180602001828103825283818151815260200191508051906020019080838360005b83811015613d02578082015181840152602081019050613ce7565b50505050905090810190601f168015613d2f5780820380516001836020036101000a031916815260200191505b5095505050505050602060405180830381600087803b158015613d5157600080fd5b505af1158015613d65573d6000803e3d6000fd5b505050506040513d6020811015613d7b57600080fd5b8101908080519060200190929190505050905063150b7a0260e01b7bffffffffffffffffffffffffffffffffffffffffffffffffffffffff1916817bffffffffffffffffffffffffffffffffffffffffffffffffffffffff1916149150505b949350505050565b600073ffffffffffffffffffffffffffffffffffffffff166002600083815260200190815260200160002060009054906101000a900473ffffffffffffffffffffffffffffffffffffffff1673ffffffffffffffffffffffffffffffffffffffff1614613e9d5760006002600083815260200190815260200160002060006101000a81548173ffffffffffffffffffffffffffffffffffffffff021916908373ffffffffffffffffffffffffffffffffffffffff1602179055505b50565b613eb86001826000015461326b90919063ffffffff16565b816000018190555050565b6001816000016000828254019250508190555050565b60008060007fc5d2460186f7233c927e7db2dcc703c0e500b653ca82273b7bfad8045d85a47060001b9050833f91506000801b8214158015613f1b5750808214155b92505050919050565b815481835581811115613f4b57818360005260206000209182019101613f4a9190613f50565b5b505050565b613f7291905b80821115613f6e576000816000905550600101613f56565b5090565b90565b613f7f8282613027565b15613ff2576040517f08c379a000000000000000000000000000000000000000000000000000000000815260040180806020018281038252601f8152602001807f526f6c65733a206163636f756e7420616c72656164792068617320726f6c650081525060200191505060405180910390fd5b60018260000160008373ffffffffffffffffffffffffffffffffffffffff1673ffffffffffffffffffffffffffffffffffffffff16815260200190815260200160002060006101000a81548160ff021916908315150217905550505056fe455243373231456e756d657261626c653a206f776e657220696e646578206f7574206f6620626f756e64734552433732313a207472616e7366657220746f206e6f6e20455243373231526563656976657220696d706c656d656e7465724552433732313a207472616e7366657220746f20746865207a65726f20616464726573734552433732313a206f70657261746f7220717565727920666f72206e6f6e6578697374656e7420746f6b656e4552433732313a20617070726f76652063616c6c6572206973206e6f74206f776e6572206e6f7220617070726f76656420666f7220616c6c4552433732313a2062616c616e636520717565727920666f7220746865207a65726f20616464726573734552433732313a206f776e657220717565727920666f72206e6f6e6578697374656e7420746f6b656e536166654d6174683a206d756c7469706c69636174696f6e206f766572666c6f774552433732313a20617070726f76656420717565727920666f72206e6f6e6578697374656e7420746f6b656e526f6c65733a206163636f756e7420697320746865207a65726f20616464726573734552433732313a207472616e73666572206f6620746f6b656e2074686174206973206e6f74206f776e4552433732314d657461646174613a2055524920717565727920666f72206e6f6e6578697374656e7420746f6b656e4552433732313a20617070726f76616c20746f2063757272656e74206f776e65724552433732313a207472616e736665722063616c6c6572206973206e6f74206f776e6572206e6f7220617070726f766564455243373231456e756d657261626c653a20676c6f62616c20696e646578206f7574206f6620626f756e6473a265627a7a723158204b146751f256fc4ad8951335b21c9feb45e68f9a2c98c971d16032dfe53aed7564736f6c634300050f0032526f6c65733a206163636f756e7420697320746865207a65726f2061646472657373",
  "source": "pragma solidity ^0.5.12;\n\nimport \"./ItemFactory.sol\";\n\n\n/**\n * @title ProShop\n * @notice Main contract for sales side of the In-game Pro Shop System\n */\ncontract ProShop is ItemFactory {\n\n    /**\n     * @notice emitted upon the withdrawal of a Shop's balance\n     */\n    event ShopBalanceWithdrawn(uint256 shopId, uint256 amount);\n\n    /**\n     * @notice emitted upon the withdrawal of the franchise's balance\n     */\n    event FranchiseBalanceWithdrawn(uint256 amount);\n\n    constructor() public {\n        franchiseFeePercent = 3; // Percentage of each sale going to the franchise owner\n    }\n\n    /**\n     * @notice Set the address of the StockRoom contract\n     */\n    function setStockRoomContractAddress(address _address) external onlySysAdmin {\n        StockRoomInterface candidateContract = StockRoomInterface(_address);\n\n        // Verify that we have the appropriate address\n        require(candidateContract.isStockRoom());\n\n        // Set the new contract address\n        stockRoom = candidateContract;\n    }\n\n    /**\n     * @notice Allow a shop owner to withdraw the accumulated balance of their shop, if any\n     */\n    function withdrawShopBalance(uint256 _shopId)\n        external\n        whenNotPaused\n        onlyShopOwner(_shopId)\n    {\n        uint amount = shopBalances[_shopId];\n        require(amount > 0, \"Insufficient balance.\");\n        // Bizarre error currently being thrown when accessing address(this.balance)\n        //require(amount <= address(this).balance, \"Insufficient balance.\");\n        shopBalances[_shopId] = 0;\n        msg.sender.transfer(amount);\n        emit ShopBalanceWithdrawn(_shopId, amount);\n    }\n\n    /**\n     * @notice Allow the franchise owner to withdraw their accumulated balance, if any\n     */\n    function withdrawFranchiseBalance()\n        external\n        whenNotPaused\n        onlyFranchiseOwner\n    {\n        uint amount = franchiseBalance;\n        require(amount > 0, \"Insufficient balance.\");\n        // Bizarre error currently being thrown when accessing address(this.balance)\n        //require(amount <= address(this).balance, \"Insufficient balance.\");\n        franchiseBalance = 0;\n        msg.sender.transfer(amount);\n        emit FranchiseBalanceWithdrawn(amount);\n    }\n\n    /**\n     * @notice Allow a shop owner to check the accumulated balance of their shop in Ether or Shop fiat\n     */\n    function checkShopBalance(uint256 _shopId, bool _inFiat) external view onlyShopOwner(_shopId) returns(uint256) {\n        uint256 balance = shopBalances[_shopId];\n        return (balance > 0 && _inFiat) ? stockRoom.convertEtherToShopFiat(_shopId, balance) : balance;\n    }\n\n    /**\n     * @notice Allow the franchise owner to check their accumulated balance in Ether or franchise fiat\n     */\n    function checkFranchiseBalance(bool _inFiat) external view onlyFranchiseOwner() returns(uint256) {\n        return (franchiseBalance > 0 && _inFiat) ? stockRoom.convertEtherToFranchiseFiat(franchiseBalance) : franchiseBalance;\n    }\n\n    // @notice Get the list of Item Ids associated with a given Owner\n    function getItemIds(address _owner) external view returns (uint[] memory) {\n        return ownedItems[_owner];\n    }\n\n    /**\n     * @notice Get the count of minted Items associated with a given Shop\n     */\n    function getShopItemCount(uint256 _shopId) external view returns (uint256) {\n        return shopItems[_shopId].length;\n    }\n\n    /**\n     * @notice Get the count of minted Items associated with a given SKU\n     */\n    function getSKUItemCount(uint256 _skuId) external view returns (uint256) {\n        return skuItems[_skuId].length;\n    }\n\n    /**\n     * @notice Get the count of Items associated with a given Owner\n     */\n    function getOwnerItemCount(address _owner) external view returns (uint256) {\n        return ownedItems[_owner].length;\n    }\n\n}",
  "sourcePath": "/Users/cliff/Projects/in-app-pro-shop/contracts/ProShop.sol",
  "compiler": {
    "name": "solc",
    "version": "0.5.15+commit.6a57276f.Emscripten.clang"
  },
  "schemaVersion": "3.0.20",
  "updatedAt": "2019-12-28T21:52:54.110Z",
  "networkType": "ethereum",
  "devdoc": {
    "methods": {
      "approve(address,uint256)": {
        "details": "Approves another address to transfer the given token ID The zero address indicates there is no approved address. There can only be one approved address per token at a given time. Can only be called by the token owner or an approved operator.",
        "params": {
          "to": "address to be approved for the given token ID",
          "tokenId": "uint256 ID of the token to be approved"
        }
      },
      "balanceOf(address)": {
        "details": "Gets the balance of the specified address.",
        "params": {
          "owner": "address to query the balance of"
        },
        "return": "uint256 representing the amount owned by the passed address"
      },
      "getApproved(uint256)": {
        "details": "Gets the approved address for a token ID, or zero if no address set Reverts if the token ID does not exist.",
        "params": {
          "tokenId": "uint256 ID of the token to query the approval of"
        },
        "return": "address currently approved for the given token ID"
      },
      "isApprovedForAll(address,address)": {
        "details": "Tells whether an operator is approved by a given owner.",
        "params": {
          "operator": "operator address which you want to query the approval of",
          "owner": "owner address which you want to query the approval of"
        },
        "return": "bool whether the given operator is approved by the given owner"
      },
      "name()": {
        "details": "Gets the token name.",
        "return": "string representing the token name"
      },
      "ownerOf(uint256)": {
        "details": "Gets the owner of the specified token ID.",
        "params": {
          "tokenId": "uint256 ID of the token to query the owner of"
        },
        "return": "address currently marked as the owner of the given token ID"
      },
      "pause()": {
        "details": "called by the system administrator to pause, triggers stopped state"
      },
      "safeTransferFrom(address,address,uint256)": {
        "details": "Safely transfers the ownership of a given token ID to another address If the target address is a contract, it must implement {IERC721Receiver-onERC721Received}, which is called upon a safe transfer, and return the magic value `bytes4(keccak256(\"onERC721Received(address,address,uint256,bytes)\"))`; otherwise, the transfer is reverted. Requires the msg.sender to be the owner, approved, or operator",
        "params": {
          "from": "current owner of the token",
          "to": "address to receive the ownership of the given token ID",
          "tokenId": "uint256 ID of the token to be transferred"
        }
      },
      "safeTransferFrom(address,address,uint256,bytes)": {
        "details": "Safely transfers the ownership of a given token ID to another address If the target address is a contract, it must implement {IERC721Receiver-onERC721Received}, which is called upon a safe transfer, and return the magic value `bytes4(keccak256(\"onERC721Received(address,address,uint256,bytes)\"))`; otherwise, the transfer is reverted. Requires the _msgSender() to be the owner, approved, or operator",
        "params": {
          "_data": "bytes data to send along with a safe transfer check",
          "from": "current owner of the token",
          "to": "address to receive the ownership of the given token ID",
          "tokenId": "uint256 ID of the token to be transferred"
        }
      },
      "setApprovalForAll(address,bool)": {
        "details": "Sets or unsets the approval of a given operator An operator is allowed to transfer all tokens of the sender on their behalf.",
        "params": {
          "approved": "representing the status of the approval to be set",
          "to": "operator address to set the approval"
        }
      },
      "supportsInterface(bytes4)": {
        "details": "See {IERC165-supportsInterface}.     * Time complexity O(1), guaranteed to always use less than 30 000 gas."
      },
      "symbol()": {
        "details": "Gets the token symbol.",
        "return": "string representing the token symbol"
      },
      "tokenByIndex(uint256)": {
        "details": "Gets the token ID at a given index of all the tokens in this contract Reverts if the index is greater or equal to the total number of tokens.",
        "params": {
          "index": "uint256 representing the index to be accessed of the tokens list"
        },
        "return": "uint256 token ID at the given index of the tokens list"
      },
      "tokenOfOwnerByIndex(address,uint256)": {
        "details": "Gets the token ID at a given index of the tokens list of the requested owner.",
        "params": {
          "index": "uint256 representing the index to be accessed of the requested tokens list",
          "owner": "address owning the tokens list to be accessed"
        },
        "return": "uint256 token ID at the given index of the tokens list owned by the requested address"
      },
      "tokenURI(uint256)": {
        "details": "Returns an URI for a given token ID. Throws if the token ID does not exist. May return an empty string.",
        "params": {
          "tokenId": "uint256 ID of the token to query"
        }
      },
      "totalSupply()": {
        "details": "Gets the total amount of tokens stored by the contract.",
        "return": "uint256 representing the total amount of tokens"
      },
      "transferFrom(address,address,uint256)": {
        "details": "Transfers the ownership of a given token ID to another address. Usage of this method is discouraged, use {safeTransferFrom} whenever possible. Requires the msg.sender to be the owner, approved, or operator.",
        "params": {
          "from": "current owner of the token",
          "to": "address to receive the ownership of the given token ID",
          "tokenId": "uint256 ID of the token to be transferred"
        }
      },
      "unpause()": {
        "details": "called by the ystem administrator to un-pause, returns to normal state"
      },
      "upgradeContract(address)": {
        "details": "called by a system administrator to  mark the smart contract as upgraded,     in case there is a serious breaking bug. This method stores the new contract     address and emits an event to that effect. Clients of the contract should     update to the new contract address upon receiving this event.     *      This contract will remain paused indefinitely after such an upgrade.",
        "params": {
          "_newAddress": "address of new contract"
        }
      }
    },
    "title": "ProShop"
  },
  "userdoc": {
    "methods": {
      "checkFranchiseBalance(bool)": {
        "notice": "Allow the franchise owner to check their accumulated balance in Ether or franchise fiat"
      },
      "checkShopBalance(uint256,bool)": {
        "notice": "Allow a shop owner to check the accumulated balance of their shop in Ether or Shop fiat"
      },
      "createItem(uint256,uint256)": {
        "notice": "Create an Item"
      },
      "getOwnerItemCount(address)": {
        "notice": "Get the count of Items associated with a given Owner"
      },
      "getSKUItemCount(uint256)": {
        "notice": "Get the count of minted Items associated with a given SKU"
      },
      "getShopItemCount(uint256)": {
        "notice": "Get the count of minted Items associated with a given Shop"
      },
      "setStockRoomContractAddress(address)": {
        "notice": "Set the address of the StockRoom contract"
      },
      "withdrawFranchiseBalance()": {
        "notice": "Allow the franchise owner to withdraw their accumulated balance, if any"
      },
      "withdrawShopBalance(uint256)": {
        "notice": "Allow a shop owner to withdraw the accumulated balance of their shop, if any"
      }
    },
    "notice": "Main contract for sales side of the In-game Pro Shop System"
  }
}