{
  "contractName": "SKUFactory",
  "abi": [
    {
      "constant": true,
      "inputs": [
        {
          "name": "",
          "type": "uint256"
        },
        {
          "name": "",
          "type": "uint256"
        }
      ],
      "name": "shopSKUTypes",
      "outputs": [
        {
          "name": "",
          "type": "uint256"
        }
      ],
      "payable": false,
      "stateMutability": "view",
      "type": "function"
    },
    {
      "constant": true,
      "inputs": [
        {
          "name": "_interfaceId",
          "type": "bytes4"
        }
      ],
      "name": "supportsInterface",
      "outputs": [
        {
          "name": "",
          "type": "bool"
        }
      ],
      "payable": false,
      "stateMutability": "view",
      "type": "function"
    },
    {
      "constant": true,
      "inputs": [],
      "name": "name",
      "outputs": [
        {
          "name": "",
          "type": "string"
        }
      ],
      "payable": false,
      "stateMutability": "view",
      "type": "function"
    },
    {
      "constant": true,
      "inputs": [
        {
          "name": "_tokenId",
          "type": "uint256"
        }
      ],
      "name": "getApproved",
      "outputs": [
        {
          "name": "",
          "type": "address"
        }
      ],
      "payable": false,
      "stateMutability": "view",
      "type": "function"
    },
    {
      "constant": false,
      "inputs": [
        {
          "name": "_to",
          "type": "address"
        },
        {
          "name": "_tokenId",
          "type": "uint256"
        }
      ],
      "name": "approve",
      "outputs": [],
      "payable": false,
      "stateMutability": "nonpayable",
      "type": "function"
    },
    {
      "constant": true,
      "inputs": [
        {
          "name": "_operator",
          "type": "address"
        },
        {
          "name": "_role",
          "type": "string"
        }
      ],
      "name": "checkRole",
      "outputs": [],
      "payable": false,
      "stateMutability": "view",
      "type": "function"
    },
    {
      "constant": true,
      "inputs": [],
      "name": "totalSupply",
      "outputs": [
        {
          "name": "",
          "type": "uint256"
        }
      ],
      "payable": false,
      "stateMutability": "view",
      "type": "function"
    },
    {
      "constant": true,
      "inputs": [],
      "name": "TOKEN_NAME",
      "outputs": [
        {
          "name": "",
          "type": "string"
        }
      ],
      "payable": false,
      "stateMutability": "view",
      "type": "function"
    },
    {
      "constant": true,
      "inputs": [
        {
          "name": "_owner",
          "type": "address"
        }
      ],
      "name": "getShopIds",
      "outputs": [
        {
          "name": "",
          "type": "uint256[]"
        }
      ],
      "payable": false,
      "stateMutability": "view",
      "type": "function"
    },
    {
      "constant": true,
      "inputs": [],
      "name": "InterfaceId_ERC165",
      "outputs": [
        {
          "name": "",
          "type": "bytes4"
        }
      ],
      "payable": false,
      "stateMutability": "view",
      "type": "function"
    },
    {
      "constant": true,
      "inputs": [
        {
          "name": "_operator",
          "type": "address"
        },
        {
          "name": "_role",
          "type": "string"
        }
      ],
      "name": "hasRole",
      "outputs": [
        {
          "name": "",
          "type": "bool"
        }
      ],
      "payable": false,
      "stateMutability": "view",
      "type": "function"
    },
    {
      "constant": false,
      "inputs": [
        {
          "name": "_from",
          "type": "address"
        },
        {
          "name": "_to",
          "type": "address"
        },
        {
          "name": "_tokenId",
          "type": "uint256"
        }
      ],
      "name": "transferFrom",
      "outputs": [],
      "payable": false,
      "stateMutability": "nonpayable",
      "type": "function"
    },
    {
      "constant": true,
      "inputs": [
        {
          "name": "",
          "type": "uint256"
        },
        {
          "name": "",
          "type": "uint256"
        }
      ],
      "name": "skuItems",
      "outputs": [
        {
          "name": "",
          "type": "uint256"
        }
      ],
      "payable": false,
      "stateMutability": "view",
      "type": "function"
    },
    {
      "constant": true,
      "inputs": [],
      "name": "TOKEN_SYMBOL",
      "outputs": [
        {
          "name": "",
          "type": "string"
        }
      ],
      "payable": false,
      "stateMutability": "view",
      "type": "function"
    },
    {
      "constant": true,
      "inputs": [
        {
          "name": "",
          "type": "uint256"
        }
      ],
      "name": "shopToOwner",
      "outputs": [
        {
          "name": "",
          "type": "address"
        }
      ],
      "payable": false,
      "stateMutability": "view",
      "type": "function"
    },
    {
      "constant": true,
      "inputs": [
        {
          "name": "_owner",
          "type": "address"
        },
        {
          "name": "_index",
          "type": "uint256"
        }
      ],
      "name": "tokenOfOwnerByIndex",
      "outputs": [
        {
          "name": "",
          "type": "uint256"
        }
      ],
      "payable": false,
      "stateMutability": "view",
      "type": "function"
    },
    {
      "constant": true,
      "inputs": [
        {
          "name": "",
          "type": "uint256"
        }
      ],
      "name": "skus",
      "outputs": [
        {
          "name": "shopId",
          "type": "uint256"
        },
        {
          "name": "skuId",
          "type": "uint256"
        },
        {
          "name": "skuTypeId",
          "type": "uint256"
        },
        {
          "name": "price",
          "type": "uint256"
        },
        {
          "name": "name",
          "type": "string"
        },
        {
          "name": "description",
          "type": "string"
        },
        {
          "name": "consumable",
          "type": "bool"
        },
        {
          "name": "limited",
          "type": "bool"
        },
        {
          "name": "limit",
          "type": "uint256"
        }
      ],
      "payable": false,
      "stateMutability": "view",
      "type": "function"
    },
    {
      "constant": false,
      "inputs": [],
      "name": "unpause",
      "outputs": [],
      "payable": false,
      "stateMutability": "nonpayable",
      "type": "function"
    },
    {
      "constant": true,
      "inputs": [
        {
          "name": "_shopId",
          "type": "uint256"
        }
      ],
      "name": "getSKUTypeIds",
      "outputs": [
        {
          "name": "",
          "type": "uint256[]"
        }
      ],
      "payable": false,
      "stateMutability": "view",
      "type": "function"
    },
    {
      "constant": false,
      "inputs": [
        {
          "name": "_from",
          "type": "address"
        },
        {
          "name": "_to",
          "type": "address"
        },
        {
          "name": "_tokenId",
          "type": "uint256"
        }
      ],
      "name": "safeTransferFrom",
      "outputs": [],
      "payable": false,
      "stateMutability": "nonpayable",
      "type": "function"
    },
    {
      "constant": true,
      "inputs": [
        {
          "name": "",
          "type": "address"
        },
        {
          "name": "",
          "type": "uint256"
        }
      ],
      "name": "ownedItems",
      "outputs": [
        {
          "name": "",
          "type": "uint256"
        }
      ],
      "payable": false,
      "stateMutability": "view",
      "type": "function"
    },
    {
      "constant": true,
      "inputs": [
        {
          "name": "_shopId",
          "type": "uint256"
        }
      ],
      "name": "getShop",
      "outputs": [
        {
          "name": "",
          "type": "address"
        },
        {
          "name": "",
          "type": "uint256"
        },
        {
          "name": "",
          "type": "string"
        },
        {
          "name": "",
          "type": "string"
        },
        {
          "name": "",
          "type": "string"
        }
      ],
      "payable": false,
      "stateMutability": "view",
      "type": "function"
    },
    {
      "constant": true,
      "inputs": [],
      "name": "franchiseBalance",
      "outputs": [
        {
          "name": "",
          "type": "uint256"
        }
      ],
      "payable": false,
      "stateMutability": "view",
      "type": "function"
    },
    {
      "constant": false,
      "inputs": [
        {
          "name": "_shopId",
          "type": "uint256"
        },
        {
          "name": "_name",
          "type": "string"
        },
        {
          "name": "_desc",
          "type": "string"
        }
      ],
      "name": "createSKUType",
      "outputs": [
        {
          "name": "",
          "type": "uint256"
        }
      ],
      "payable": false,
      "stateMutability": "nonpayable",
      "type": "function"
    },
    {
      "constant": true,
      "inputs": [],
      "name": "franchiseFeePercent",
      "outputs": [
        {
          "name": "",
          "type": "uint256"
        }
      ],
      "payable": false,
      "stateMutability": "view",
      "type": "function"
    },
    {
      "constant": true,
      "inputs": [
        {
          "name": "_tokenId",
          "type": "uint256"
        }
      ],
      "name": "exists",
      "outputs": [
        {
          "name": "",
          "type": "bool"
        }
      ],
      "payable": false,
      "stateMutability": "view",
      "type": "function"
    },
    {
      "constant": true,
      "inputs": [
        {
          "name": "_index",
          "type": "uint256"
        }
      ],
      "name": "tokenByIndex",
      "outputs": [
        {
          "name": "",
          "type": "uint256"
        }
      ],
      "payable": false,
      "stateMutability": "view",
      "type": "function"
    },
    {
      "constant": true,
      "inputs": [
        {
          "name": "",
          "type": "address"
        },
        {
          "name": "",
          "type": "uint256"
        }
      ],
      "name": "ownedShops",
      "outputs": [
        {
          "name": "",
          "type": "uint256"
        }
      ],
      "payable": false,
      "stateMutability": "view",
      "type": "function"
    },
    {
      "constant": true,
      "inputs": [
        {
          "name": "",
          "type": "uint256"
        }
      ],
      "name": "skuTypes",
      "outputs": [
        {
          "name": "shopId",
          "type": "uint256"
        },
        {
          "name": "skuTypeId",
          "type": "uint256"
        },
        {
          "name": "name",
          "type": "string"
        },
        {
          "name": "description",
          "type": "string"
        }
      ],
      "payable": false,
      "stateMutability": "view",
      "type": "function"
    },
    {
      "constant": true,
      "inputs": [],
      "name": "ROLE_SYS_ADMIN",
      "outputs": [
        {
          "name": "",
          "type": "string"
        }
      ],
      "payable": false,
      "stateMutability": "view",
      "type": "function"
    },
    {
      "constant": true,
      "inputs": [],
      "name": "paused",
      "outputs": [
        {
          "name": "",
          "type": "bool"
        }
      ],
      "payable": false,
      "stateMutability": "view",
      "type": "function"
    },
    {
      "constant": true,
      "inputs": [
        {
          "name": "",
          "type": "uint256"
        },
        {
          "name": "",
          "type": "uint256"
        }
      ],
      "name": "skuTypeSKUs",
      "outputs": [
        {
          "name": "",
          "type": "uint256"
        }
      ],
      "payable": false,
      "stateMutability": "view",
      "type": "function"
    },
    {
      "constant": true,
      "inputs": [
        {
          "name": "_tokenId",
          "type": "uint256"
        }
      ],
      "name": "ownerOf",
      "outputs": [
        {
          "name": "",
          "type": "address"
        }
      ],
      "payable": false,
      "stateMutability": "view",
      "type": "function"
    },
    {
      "constant": true,
      "inputs": [],
      "name": "newContractAddress",
      "outputs": [
        {
          "name": "",
          "type": "address"
        }
      ],
      "payable": false,
      "stateMutability": "view",
      "type": "function"
    },
    {
      "constant": true,
      "inputs": [
        {
          "name": "_owner",
          "type": "address"
        }
      ],
      "name": "balanceOf",
      "outputs": [
        {
          "name": "",
          "type": "uint256"
        }
      ],
      "payable": false,
      "stateMutability": "view",
      "type": "function"
    },
    {
      "constant": true,
      "inputs": [
        {
          "name": "",
          "type": "uint256"
        }
      ],
      "name": "shops",
      "outputs": [
        {
          "name": "owner",
          "type": "address"
        },
        {
          "name": "shopId",
          "type": "uint256"
        },
        {
          "name": "name",
          "type": "string"
        },
        {
          "name": "description",
          "type": "string"
        },
        {
          "name": "fiat",
          "type": "string"
        }
      ],
      "payable": false,
      "stateMutability": "view",
      "type": "function"
    },
    {
      "constant": false,
      "inputs": [
        {
          "name": "_newAddress",
          "type": "address"
        }
      ],
      "name": "setNewAddress",
      "outputs": [],
      "payable": false,
      "stateMutability": "nonpayable",
      "type": "function"
    },
    {
      "constant": true,
      "inputs": [
        {
          "name": "",
          "type": "uint256"
        },
        {
          "name": "",
          "type": "uint256"
        }
      ],
      "name": "shopItems",
      "outputs": [
        {
          "name": "",
          "type": "uint256"
        }
      ],
      "payable": false,
      "stateMutability": "view",
      "type": "function"
    },
    {
      "constant": true,
      "inputs": [],
      "name": "ROLE_SHOP_OWNER",
      "outputs": [
        {
          "name": "",
          "type": "string"
        }
      ],
      "payable": false,
      "stateMutability": "view",
      "type": "function"
    },
    {
      "constant": false,
      "inputs": [],
      "name": "pause",
      "outputs": [],
      "payable": false,
      "stateMutability": "nonpayable",
      "type": "function"
    },
    {
      "constant": true,
      "inputs": [
        {
          "name": "_skuTypeId",
          "type": "uint256"
        }
      ],
      "name": "getSKUType",
      "outputs": [
        {
          "name": "",
          "type": "uint256"
        },
        {
          "name": "",
          "type": "uint256"
        },
        {
          "name": "",
          "type": "string"
        },
        {
          "name": "",
          "type": "string"
        }
      ],
      "payable": false,
      "stateMutability": "view",
      "type": "function"
    },
    {
      "constant": true,
      "inputs": [
        {
          "name": "",
          "type": "uint256"
        },
        {
          "name": "",
          "type": "uint256"
        }
      ],
      "name": "shopSKUs",
      "outputs": [
        {
          "name": "",
          "type": "uint256"
        }
      ],
      "payable": false,
      "stateMutability": "view",
      "type": "function"
    },
    {
      "constant": false,
      "inputs": [
        {
          "name": "_name",
          "type": "string"
        },
        {
          "name": "_desc",
          "type": "string"
        },
        {
          "name": "_fiat",
          "type": "string"
        }
      ],
      "name": "createShop",
      "outputs": [
        {
          "name": "",
          "type": "uint256"
        }
      ],
      "payable": false,
      "stateMutability": "nonpayable",
      "type": "function"
    },
    {
      "constant": true,
      "inputs": [],
      "name": "symbol",
      "outputs": [
        {
          "name": "",
          "type": "string"
        }
      ],
      "payable": false,
      "stateMutability": "view",
      "type": "function"
    },
    {
      "constant": false,
      "inputs": [
        {
          "name": "_to",
          "type": "address"
        },
        {
          "name": "_approved",
          "type": "bool"
        }
      ],
      "name": "setApprovalForAll",
      "outputs": [],
      "payable": false,
      "stateMutability": "nonpayable",
      "type": "function"
    },
    {
      "constant": false,
      "inputs": [
        {
          "name": "_from",
          "type": "address"
        },
        {
          "name": "_to",
          "type": "address"
        },
        {
          "name": "_tokenId",
          "type": "uint256"
        },
        {
          "name": "_data",
          "type": "bytes"
        }
      ],
      "name": "safeTransferFrom",
      "outputs": [],
      "payable": false,
      "stateMutability": "nonpayable",
      "type": "function"
    },
    {
      "constant": true,
      "inputs": [
        {
          "name": "",
          "type": "uint256"
        }
      ],
      "name": "items",
      "outputs": [
        {
          "name": "owner",
          "type": "address"
        },
        {
          "name": "shopId",
          "type": "uint256"
        },
        {
          "name": "itemId",
          "type": "uint256"
        },
        {
          "name": "skuTypeId",
          "type": "uint256"
        },
        {
          "name": "skuId",
          "type": "uint256"
        },
        {
          "name": "consumed",
          "type": "bool"
        }
      ],
      "payable": false,
      "stateMutability": "view",
      "type": "function"
    },
    {
      "constant": true,
      "inputs": [
        {
          "name": "_tokenId",
          "type": "uint256"
        }
      ],
      "name": "tokenURI",
      "outputs": [
        {
          "name": "",
          "type": "string"
        }
      ],
      "payable": false,
      "stateMutability": "view",
      "type": "function"
    },
    {
      "constant": true,
      "inputs": [],
      "name": "ROLE_FRANCHISE_OWNER",
      "outputs": [
        {
          "name": "",
          "type": "string"
        }
      ],
      "payable": false,
      "stateMutability": "view",
      "type": "function"
    },
    {
      "constant": true,
      "inputs": [
        {
          "name": "",
          "type": "uint256"
        }
      ],
      "name": "shopBalances",
      "outputs": [
        {
          "name": "",
          "type": "uint256"
        }
      ],
      "payable": false,
      "stateMutability": "view",
      "type": "function"
    },
    {
      "constant": true,
      "inputs": [
        {
          "name": "_owner",
          "type": "address"
        },
        {
          "name": "_operator",
          "type": "address"
        }
      ],
      "name": "isApprovedForAll",
      "outputs": [
        {
          "name": "",
          "type": "bool"
        }
      ],
      "payable": false,
      "stateMutability": "view",
      "type": "function"
    },
    {
      "constant": true,
      "inputs": [
        {
          "name": "_skuTypeId",
          "type": "uint256"
        }
      ],
      "name": "getSKUTypeSKUCount",
      "outputs": [
        {
          "name": "",
          "type": "uint256"
        }
      ],
      "payable": false,
      "stateMutability": "view",
      "type": "function"
    },
    {
      "anonymous": false,
      "inputs": [
        {
          "indexed": true,
          "name": "shopId",
          "type": "uint256"
        },
        {
          "indexed": false,
          "name": "skuId",
          "type": "uint256"
        },
        {
          "indexed": false,
          "name": "name",
          "type": "string"
        }
      ],
      "name": "NewSKU",
      "type": "event"
    },
    {
      "anonymous": false,
      "inputs": [
        {
          "indexed": true,
          "name": "shopId",
          "type": "uint256"
        },
        {
          "indexed": false,
          "name": "skuTypeId",
          "type": "uint256"
        },
        {
          "indexed": false,
          "name": "name",
          "type": "string"
        }
      ],
      "name": "NewSKUType",
      "type": "event"
    },
    {
      "anonymous": false,
      "inputs": [
        {
          "indexed": true,
          "name": "owner",
          "type": "address"
        },
        {
          "indexed": false,
          "name": "shopId",
          "type": "uint256"
        },
        {
          "indexed": false,
          "name": "name",
          "type": "string"
        }
      ],
      "name": "NewShop",
      "type": "event"
    },
    {
      "anonymous": false,
      "inputs": [
        {
          "indexed": false,
          "name": "newContract",
          "type": "address"
        }
      ],
      "name": "ContractUpgrade",
      "type": "event"
    },
    {
      "anonymous": false,
      "inputs": [],
      "name": "ContractPaused",
      "type": "event"
    },
    {
      "anonymous": false,
      "inputs": [],
      "name": "ContractUnpaused",
      "type": "event"
    },
    {
      "anonymous": false,
      "inputs": [
        {
          "indexed": true,
          "name": "_from",
          "type": "address"
        },
        {
          "indexed": true,
          "name": "_to",
          "type": "address"
        },
        {
          "indexed": true,
          "name": "_tokenId",
          "type": "uint256"
        }
      ],
      "name": "Transfer",
      "type": "event"
    },
    {
      "anonymous": false,
      "inputs": [
        {
          "indexed": true,
          "name": "_owner",
          "type": "address"
        },
        {
          "indexed": true,
          "name": "_approved",
          "type": "address"
        },
        {
          "indexed": true,
          "name": "_tokenId",
          "type": "uint256"
        }
      ],
      "name": "Approval",
      "type": "event"
    },
    {
      "anonymous": false,
      "inputs": [
        {
          "indexed": true,
          "name": "_owner",
          "type": "address"
        },
        {
          "indexed": true,
          "name": "_operator",
          "type": "address"
        },
        {
          "indexed": false,
          "name": "_approved",
          "type": "bool"
        }
      ],
      "name": "ApprovalForAll",
      "type": "event"
    },
    {
      "anonymous": false,
      "inputs": [
        {
          "indexed": true,
          "name": "operator",
          "type": "address"
        },
        {
          "indexed": false,
          "name": "role",
          "type": "string"
        }
      ],
      "name": "RoleAdded",
      "type": "event"
    },
    {
      "anonymous": false,
      "inputs": [
        {
          "indexed": true,
          "name": "operator",
          "type": "address"
        },
        {
          "indexed": false,
          "name": "role",
          "type": "string"
        }
      ],
      "name": "RoleRemoved",
      "type": "event"
    },
    {
      "constant": false,
      "inputs": [
        {
          "name": "_shopId",
          "type": "uint256"
        },
        {
          "name": "_skuTypeId",
          "type": "uint256"
        },
        {
          "name": "_price",
          "type": "uint256"
        },
        {
          "name": "_name",
          "type": "string"
        },
        {
          "name": "_desc",
          "type": "string"
        },
        {
          "name": "_consumable",
          "type": "bool"
        },
        {
          "name": "_limited",
          "type": "bool"
        },
        {
          "name": "_limit",
          "type": "uint256"
        }
      ],
      "name": "createSKU",
      "outputs": [
        {
          "name": "",
          "type": "uint256"
        }
      ],
      "payable": false,
      "stateMutability": "nonpayable",
      "type": "function"
    },
    {
      "constant": true,
      "inputs": [
        {
          "name": "_shopId",
          "type": "uint256"
        }
      ],
      "name": "getSKUIds",
      "outputs": [
        {
          "name": "",
          "type": "uint256[]"
        }
      ],
      "payable": false,
      "stateMutability": "view",
      "type": "function"
    },
    {
      "constant": true,
      "inputs": [
        {
          "name": "_skuId",
          "type": "uint256"
        }
      ],
      "name": "getSKU",
      "outputs": [
        {
          "name": "",
          "type": "uint256"
        },
        {
          "name": "",
          "type": "uint256"
        },
        {
          "name": "",
          "type": "uint256"
        },
        {
          "name": "",
          "type": "uint256"
        },
        {
          "name": "",
          "type": "string"
        },
        {
          "name": "",
          "type": "string"
        },
        {
          "name": "",
          "type": "bool"
        },
        {
          "name": "",
          "type": "bool"
        },
        {
          "name": "",
          "type": "uint256"
        }
      ],
      "payable": false,
      "stateMutability": "view",
      "type": "function"
    }
  ],
  "bytecode": "0x60806040526000601c60006101000a81548160ff0219169083151502179055506040805190810160405280601081526020017f496e41707050726f53686f704974656d000000000000000000000000000000008152506040805190810160405280600481526020017f4941505300000000000000000000000000000000000000000000000000000000815250620000c86301ffc9a77c010000000000000000000000000000000000000000000000000000000002620002b1640100000000026401000000009004565b620001056380ac58cd7c010000000000000000000000000000000000000000000000000000000002620002b1640100000000026401000000009004565b62000142634f558e797c010000000000000000000000000000000000000000000000000000000002620002b1640100000000026401000000009004565b81600690805190602001906200015a92919062000516565b5080600790805190602001906200017392919062000516565b50620001b163780e9d637c010000000000000000000000000000000000000000000000000000000002620002b1640100000000026401000000009004565b620001ee635b5e139f7c010000000000000000000000000000000000000000000000000000000002620002b1640100000000026401000000009004565b50506001601c60006101000a81548160ff0219169083151502179055506200025b336040805190810160405280601181526020017f726f6c652f73797374656d2d61646d696e0000000000000000000000000000008152506200036f640100000000026401000000009004565b620002ab336040805190810160405280601481526020017f726f6c652f6672616e63686973652d6f776e65720000000000000000000000008152506200036f640100000000026401000000009004565b620005c5565b63ffffffff7c010000000000000000000000000000000000000000000000000000000002817bffffffffffffffffffffffffffffffffffffffffffffffffffffffff1916141515156200030357600080fd5b6001806000837bffffffffffffffffffffffffffffffffffffffffffffffffffffffff19167bffffffffffffffffffffffffffffffffffffffffffffffffffffffff1916815260200190815260200160002060006101000a81548160ff02191690831515021790555050565b620003fe826000836040518082805190602001908083835b602083101515620003ae578051825260208201915060208101905060208303925062000387565b6001836020036101000a0380198251168184511680821785525050505050509050019150509081526020016040518091039020620004b864010000000002620050b6179091906401000000009004565b8173ffffffffffffffffffffffffffffffffffffffff167fbfec83d64eaa953f2708271a023ab9ee82057f8f3578d548c1a4ba0b5b700489826040518080602001828103825283818151815260200191508051906020019080838360005b83811015620004795780820151818401526020810190506200045c565b50505050905090810190601f168015620004a75780820380516001836020036101000a031916815260200191505b509250505060405180910390a25050565b60018260000160008373ffffffffffffffffffffffffffffffffffffffff1673ffffffffffffffffffffffffffffffffffffffff16815260200190815260200160002060006101000a81548160ff0219169083151502179055505050565b828054600181600116156101000203166002900490600052602060002090601f016020900481019282601f106200055957805160ff19168380011785556200058a565b828001600101855582156200058a579182015b82811115620005895782518255916020019190600101906200056c565b5b5090506200059991906200059d565b5090565b620005c291905b80821115620005be576000816000905550600101620005a4565b5090565b90565b6152ba80620005d56000396000f300608060405260043610610293576000357c0100000000000000000000000000000000000000000000000000000000900463ffffffff16806301ba75391461029857806301ffc9a7146102e357806306fdde0314610347578063081812fc146103d7578063095ea7b3146104445780630988ca8c1461049157806318160ddd1461051a5780631882140014610545578063199f0b17146105d557806319fa8f501461066d578063217fe6c6146106d657806323b872dd1461077757806327bcfd61146107e45780632a9053181461082f5780632cf0d92a146108bf5780632f745c591461092c57806335007f0e1461098d5780633f4ba83a14610ad85780633fbe2c5514610aef57806342842e0e14610b715780634284653414610bde57806345b727f314610c3f578063477e2b3c14610df7578063488d136e14610e225780634b2aecdc14610eef5780634f558e7914610f1a5780634f6ccce714610f5f57806351b4fc7e14610fa0578063531e005b1461100157806356de8ccd146111215780635c975abb146111b15780635ded461a146111e05780636352211e1461122b5780636af04a571461129857806370a08231146112ef578063713aca741461134657806371587988146114fe5780637ceab6b0146115415780637e1ae9761461158c5780638456cb591461161c5780638ae7f10514611633578063910339401461175357806392bec5ee1461179e57806395d89b41146118a757806397fcb08114611937578063a22cb46514611a3a578063acb123a614611a89578063ae27eda814611bd4578063b88d4fde14611c56578063bfb231d214611d09578063c87b56dd14611d9d578063cb1b200114611e43578063e659ebef14611ed3578063e985e9c514611f14578063f6faa78b14611f8f575b600080fd5b3480156102a457600080fd5b506102cd6004803603810190808035906020019092919080359060200190929190505050611fd0565b6040518082815260200191505060405180910390f35b3480156102ef57600080fd5b5061032d60048036038101908080357bffffffffffffffffffffffffffffffffffffffffffffffffffffffff19169060200190929190505050612000565b604051808215151515815260200191505060405180910390f35b34801561035357600080fd5b5061035c612068565b6040518080602001828103825283818151815260200191508051906020019080838360005b8381101561039c578082015181840152602081019050610381565b50505050905090810190601f1680156103c95780820380516001836020036101000a031916815260200191505b509250505060405180910390f35b3480156103e357600080fd5b506104026004803603810190808035906020019092919050505061210a565b604051808273ffffffffffffffffffffffffffffffffffffffff1673ffffffffffffffffffffffffffffffffffffffff16815260200191505060405180910390f35b34801561045057600080fd5b5061048f600480360381019080803573ffffffffffffffffffffffffffffffffffffffff16906020019092919080359060200190929190505050612147565b005b34801561049d57600080fd5b50610518600480360381019080803573ffffffffffffffffffffffffffffffffffffffff169060200190929190803590602001908201803590602001908080601f016020809104026020016040519081016040528093929190818152602001838380828437820191505050505050919291929050505061228c565b005b34801561052657600080fd5b5061052f61230d565b6040518082815260200191505060405180910390f35b34801561055157600080fd5b5061055a61231a565b6040518080602001828103825283818151815260200191508051906020019080838360005b8381101561059a57808201518184015260208101905061057f565b50505050905090810190601f1680156105c75780820380516001836020036101000a031916815260200191505b509250505060405180910390f35b3480156105e157600080fd5b50610616600480360381019080803573ffffffffffffffffffffffffffffffffffffffff169060200190929190505050612353565b6040518080602001828103825283818151815260200191508051906020019060200280838360005b8381101561065957808201518184015260208101905061063e565b505050509050019250505060405180910390f35b34801561067957600080fd5b506106826123ea565b60405180827bffffffffffffffffffffffffffffffffffffffffffffffffffffffff19167bffffffffffffffffffffffffffffffffffffffffffffffffffffffff1916815260200191505060405180910390f35b3480156106e257600080fd5b5061075d600480360381019080803573ffffffffffffffffffffffffffffffffffffffff169060200190929190803590602001908201803590602001908080601f0160208091040260200160405190810160405280939291908181526020018383808284378201915050505050509192919290505050612411565b604051808215151515815260200191505060405180910390f35b34801561078357600080fd5b506107e2600480360381019080803573ffffffffffffffffffffffffffffffffffffffff169060200190929190803573ffffffffffffffffffffffffffffffffffffffff16906020019092919080359060200190929190505050612498565b005b3480156107f057600080fd5b5061081960048036038101908080359060200190929190803590602001909291905050506125a5565b6040518082815260200191505060405180910390f35b34801561083b57600080fd5b506108446125d5565b6040518080602001828103825283818151815260200191508051906020019080838360005b83811015610884578082015181840152602081019050610869565b50505050905090810190601f1680156108b15780820380516001836020036101000a031916815260200191505b509250505060405180910390f35b3480156108cb57600080fd5b506108ea6004803603810190808035906020019092919050505061260e565b604051808273ffffffffffffffffffffffffffffffffffffffff1673ffffffffffffffffffffffffffffffffffffffff16815260200191505060405180910390f35b34801561093857600080fd5b50610977600480360381019080803573ffffffffffffffffffffffffffffffffffffffff16906020019092919080359060200190929190505050612641565b6040518082815260200191505060405180910390f35b34801561099957600080fd5b506109b8600480360381019080803590602001909291905050506126b8565b604051808a815260200189815260200188815260200187815260200180602001806020018615151515815260200185151515158152602001848152602001838103835288818151815260200191508051906020019080838360005b83811015610a2e578082015181840152602081019050610a13565b50505050905090810190601f168015610a5b5780820380516001836020036101000a031916815260200191505b50838103825287818151815260200191508051906020019080838360005b83811015610a94578082015181840152602081019050610a79565b50505050905090810190601f168015610ac15780820380516001836020036101000a031916815260200191505b509b50505050505050505050505060405180910390f35b348015610ae457600080fd5b50610aed61285f565b005b348015610afb57600080fd5b50610b1a60048036038101908080359060200190929190505050612902565b6040518080602001828103825283818151815260200191508051906020019060200280838360005b83811015610b5d578082015181840152602081019050610b42565b505050509050019250505060405180910390f35b348015610b7d57600080fd5b50610bdc600480360381019080803573ffffffffffffffffffffffffffffffffffffffff169060200190929190803573ffffffffffffffffffffffffffffffffffffffff1690602001909291908035906020019092919050505061296d565b005b348015610bea57600080fd5b50610c29600480360381019080803573ffffffffffffffffffffffffffffffffffffffff169060200190929190803590602001909291905050506129a5565b6040518082815260200191505060405180910390f35b348015610c4b57600080fd5b50610c6a600480360381019080803590602001909291905050506129d5565b604051808673ffffffffffffffffffffffffffffffffffffffff1673ffffffffffffffffffffffffffffffffffffffff168152602001858152602001806020018060200180602001848103845287818151815260200191508051906020019080838360005b83811015610cea578082015181840152602081019050610ccf565b50505050905090810190601f168015610d175780820380516001836020036101000a031916815260200191505b50848103835286818151815260200191508051906020019080838360005b83811015610d50578082015181840152602081019050610d35565b50505050905090810190601f168015610d7d5780820380516001836020036101000a031916815260200191505b50848103825285818151815260200191508051906020019080838360005b83811015610db6578082015181840152602081019050610d9b565b50505050905090810190601f168015610de35780820380516001836020036101000a031916815260200191505b509850505050505050505060405180910390f35b348015610e0357600080fd5b50610e0c612c9a565b6040518082815260200191505060405180910390f35b348015610e2e57600080fd5b50610ed960048036038101908080359060200190929190803590602001908201803590602001908080601f0160208091040260200160405190810160405280939291908181526020018383808284378201915050505050509192919290803590602001908201803590602001908080601f0160208091040260200160405190810160405280939291908181526020018383808284378201915050505050509192919290505050612ca0565b6040518082815260200191505060405180910390f35b348015610efb57600080fd5b50610f04612ead565b6040518082815260200191505060405180910390f35b348015610f2657600080fd5b50610f4560048036038101908080359060200190929190505050612eb3565b604051808215151515815260200191505060405180910390f35b348015610f6b57600080fd5b50610f8a60048036038101908080359060200190929190505050612f25565b6040518082815260200191505060405180910390f35b348015610fac57600080fd5b50610feb600480360381019080803573ffffffffffffffffffffffffffffffffffffffff16906020019092919080359060200190929190505050612f5d565b6040518082815260200191505060405180910390f35b34801561100d57600080fd5b5061102c60048036038101908080359060200190929190505050612f8d565b604051808581526020018481526020018060200180602001838103835285818151815260200191508051906020019080838360005b8381101561107c578082015181840152602081019050611061565b50505050905090810190601f1680156110a95780820380516001836020036101000a031916815260200191505b50838103825284818151815260200191508051906020019080838360005b838110156110e25780820151818401526020810190506110c7565b50505050905090810190601f16801561110f5780820380516001836020036101000a031916815260200191505b50965050505050505060405180910390f35b34801561112d57600080fd5b506111366130fc565b6040518080602001828103825283818151815260200191508051906020019080838360005b8381101561117657808201518184015260208101905061115b565b50505050905090810190601f1680156111a35780820380516001836020036101000a031916815260200191505b509250505060405180910390f35b3480156111bd57600080fd5b506111c6613135565b604051808215151515815260200191505060405180910390f35b3480156111ec57600080fd5b506112156004803603810190808035906020019092919080359060200190929190505050613148565b6040518082815260200191505060405180910390f35b34801561123757600080fd5b5061125660048036038101908080359060200190929190505050613178565b604051808273ffffffffffffffffffffffffffffffffffffffff1673ffffffffffffffffffffffffffffffffffffffff16815260200191505060405180910390f35b3480156112a457600080fd5b506112ad6131f6565b604051808273ffffffffffffffffffffffffffffffffffffffff1673ffffffffffffffffffffffffffffffffffffffff16815260200191505060405180910390f35b3480156112fb57600080fd5b50611330600480360381019080803573ffffffffffffffffffffffffffffffffffffffff16906020019092919050505061321c565b6040518082815260200191505060405180910390f35b34801561135257600080fd5b50611371600480360381019080803590602001909291905050506132a0565b604051808673ffffffffffffffffffffffffffffffffffffffff1673ffffffffffffffffffffffffffffffffffffffff168152602001858152602001806020018060200180602001848103845287818151815260200191508051906020019080838360005b838110156113f15780820151818401526020810190506113d6565b50505050905090810190601f16801561141e5780820380516001836020036101000a031916815260200191505b50848103835286818151815260200191508051906020019080838360005b8381101561145757808201518184015260208101905061143c565b50505050905090810190601f1680156114845780820380516001836020036101000a031916815260200191505b50848103825285818151815260200191508051906020019080838360005b838110156114bd5780820151818401526020810190506114a2565b50505050905090810190601f1680156114ea5780820380516001836020036101000a031916815260200191505b509850505050505050505060405180910390f35b34801561150a57600080fd5b5061153f600480360381019080803573ffffffffffffffffffffffffffffffffffffffff1690602001909291905050506134cd565b005b34801561154d57600080fd5b5061157660048036038101908080359060200190929190803590602001909291905050506135ce565b6040518082815260200191505060405180910390f35b34801561159857600080fd5b506115a16135fe565b6040518080602001828103825283818151815260200191508051906020019080838360005b838110156115e15780820151818401526020810190506115c6565b50505050905090810190601f16801561160e5780820380516001836020036101000a031916815260200191505b509250505060405180910390f35b34801561162857600080fd5b50611631613637565b005b34801561163f57600080fd5b5061165e600480360381019080803590602001909291905050506136db565b604051808581526020018481526020018060200180602001838103835285818151815260200191508051906020019080838360005b838110156116ae578082015181840152602081019050611693565b50505050905090810190601f1680156116db5780820380516001836020036101000a031916815260200191505b50838103825284818151815260200191508051906020019080838360005b838110156117145780820151818401526020810190506116f9565b50505050905090810190601f1680156117415780820380516001836020036101000a031916815260200191505b50965050505050505060405180910390f35b34801561175f57600080fd5b5061178860048036038101908080359060200190929190803590602001909291905050506138aa565b6040518082815260200191505060405180910390f35b3480156117aa57600080fd5b50611891600480360381019080803590602001908201803590602001908080601f0160208091040260200160405190810160405280939291908181526020018383808284378201915050505050509192919290803590602001908201803590602001908080601f0160208091040260200160405190810160405280939291908181526020018383808284378201915050505050509192919290803590602001908201803590602001908080601f01602080910402602001604051908101604052809392919081815260200183838082843782019150505050505091929192905050506138da565b6040518082815260200191505060405180910390f35b3480156118b357600080fd5b506118bc613bc1565b6040518080602001828103825283818151815260200191508051906020019080838360005b838110156118fc5780820151818401526020810190506118e1565b50505050905090810190601f1680156119295780820380516001836020036101000a031916815260200191505b509250505060405180910390f35b34801561194357600080fd5b50611a24600480360381019080803590602001909291908035906020019092919080359060200190929190803590602001908201803590602001908080601f0160208091040260200160405190810160405280939291908181526020018383808284378201915050505050509192919290803590602001908201803590602001908080601f016020809104026020016040519081016040528093929190818152602001838380828437820191505050505050919291929080351515906020019092919080351515906020019092919080359060200190929190505050613c63565b6040518082815260200191505060405180910390f35b348015611a4657600080fd5b50611a87600480360381019080803573ffffffffffffffffffffffffffffffffffffffff169060200190929190803515159060200190929190505050613f43565b005b348015611a9557600080fd5b50611ab46004803603810190808035906020019092919050505061407f565b604051808a815260200189815260200188815260200187815260200180602001806020018615151515815260200185151515158152602001848152602001838103835288818151815260200191508051906020019080838360005b83811015611b2a578082015181840152602081019050611b0f565b50505050905090810190601f168015611b575780820380516001836020036101000a031916815260200191505b50838103825287818151815260200191508051906020019080838360005b83811015611b90578082015181840152602081019050611b75565b50505050905090810190601f168015611bbd5780820380516001836020036101000a031916815260200191505b509b50505050505050505050505060405180910390f35b348015611be057600080fd5b50611bff600480360381019080803590602001909291905050506142d5565b6040518080602001828103825283818151815260200191508051906020019060200280838360005b83811015611c42578082015181840152602081019050611c27565b505050509050019250505060405180910390f35b348015611c6257600080fd5b50611d07600480360381019080803573ffffffffffffffffffffffffffffffffffffffff169060200190929190803573ffffffffffffffffffffffffffffffffffffffff16906020019092919080359060200190929190803590602001908201803590602001908080601f0160208091040260200160405190810160405280939291908181526020018383808284378201915050505050509192919290505050614340565b005b348015611d1557600080fd5b50611d346004803603810190808035906020019092919050505061437f565b604051808773ffffffffffffffffffffffffffffffffffffffff1673ffffffffffffffffffffffffffffffffffffffff16815260200186815260200185815260200184815260200183815260200182151515158152602001965050505050505060405180910390f35b348015611da957600080fd5b50611dc8600480360381019080803590602001909291905050506143f7565b6040518080602001828103825283818151815260200191508051906020019080838360005b83811015611e08578082015181840152602081019050611ded565b50505050905090810190601f168015611e355780820380516001836020036101000a031916815260200191505b509250505060405180910390f35b348015611e4f57600080fd5b50611e586144c0565b6040518080602001828103825283818151815260200191508051906020019080838360005b83811015611e98578082015181840152602081019050611e7d565b50505050905090810190601f168015611ec55780820380516001836020036101000a031916815260200191505b509250505060405180910390f35b348015611edf57600080fd5b50611efe600480360381019080803590602001909291905050506144f9565b6040518082815260200191505060405180910390f35b348015611f2057600080fd5b50611f75600480360381019080803573ffffffffffffffffffffffffffffffffffffffff169060200190929190803573ffffffffffffffffffffffffffffffffffffffff169060200190929190505050614511565b604051808215151515815260200191505060405180910390f35b348015611f9b57600080fd5b50611fba600480360381019080803590602001909291905050506145a5565b6040518082815260200191505060405180910390f35b601560205281600052604060002081815481101515611feb57fe5b90600052602060002001600091509150505481565b600060016000837bffffffffffffffffffffffffffffffffffffffffffffffffffffffff19167bffffffffffffffffffffffffffffffffffffffffffffffffffffffff1916815260200190815260200160002060009054906101000a900460ff169050919050565b606060068054600181600116156101000203166002900480601f0160208091040260200160405190810160405280929190818152602001828054600181600116156101000203166002900480156121005780601f106120d557610100808354040283529160200191612100565b820191906000526020600020905b8154815290600101906020018083116120e357829003601f168201915b5050505050905090565b60006003600083815260200190815260200160002060009054906101000a900473ffffffffffffffffffffffffffffffffffffffff169050919050565b600061215282613178565b90508073ffffffffffffffffffffffffffffffffffffffff168373ffffffffffffffffffffffffffffffffffffffff161415151561218f57600080fd5b8073ffffffffffffffffffffffffffffffffffffffff163373ffffffffffffffffffffffffffffffffffffffff1614806121cf57506121ce8133614511565b5b15156121da57600080fd5b826003600084815260200190815260200160002060006101000a81548173ffffffffffffffffffffffffffffffffffffffff021916908373ffffffffffffffffffffffffffffffffffffffff160217905550818373ffffffffffffffffffffffffffffffffffffffff168273ffffffffffffffffffffffffffffffffffffffff167f8c5be1e5ebec7d5bd14f71427d1e84f3dd0314c0f7b2291e5b200ac8c7c3b92560405160405180910390a4505050565b612309826000836040518082805190602001908083835b6020831015156122c857805182526020820191506020810190506020830392506122a3565b6001836020036101000a03801982511681845116808217855250505050505090500191505090815260200160405180910390206145c590919063ffffffff16565b5050565b6000600a80549050905090565b6040805190810160405280601081526020017f496e41707050726f53686f704974656d0000000000000000000000000000000081525081565b6060601460008373ffffffffffffffffffffffffffffffffffffffff1673ffffffffffffffffffffffffffffffffffffffff1681526020019081526020016000208054806020026020016040519081016040528092919081815260200182805480156123de57602002820191906000526020600020905b8154815260200190600101908083116123ca575b50505050509050919050565b6301ffc9a77c01000000000000000000000000000000000000000000000000000000000281565b6000612490836000846040518082805190602001908083835b60208310151561244f578051825260208201915060208101905060208303925061242a565b6001836020036101000a03801982511681845116808217855250505050505090500191505090815260200160405180910390206145de90919063ffffffff16565b905092915050565b806124a33382614637565b15156124ae57600080fd5b600073ffffffffffffffffffffffffffffffffffffffff168473ffffffffffffffffffffffffffffffffffffffff16141515156124ea57600080fd5b600073ffffffffffffffffffffffffffffffffffffffff168373ffffffffffffffffffffffffffffffffffffffff161415151561252657600080fd5b61253084836146cc565b61253a84836147cf565b61254483836149e7565b818373ffffffffffffffffffffffffffffffffffffffff168573ffffffffffffffffffffffffffffffffffffffff167fddf252ad1be2c89b69c2b068fc378daa952ba7f163c4a11628f55a4df523b3ef60405160405180910390a450505050565b6018602052816000526040600020818154811015156125c057fe5b90600052602060002001600091509150505481565b6040805190810160405280600481526020017f494150530000000000000000000000000000000000000000000000000000000081525081565b60136020528060005260406000206000915054906101000a900473ffffffffffffffffffffffffffffffffffffffff1681565b600061264c8361321c565b8210151561265957600080fd5b600860008473ffffffffffffffffffffffffffffffffffffffff1673ffffffffffffffffffffffffffffffffffffffff168152602001908152602001600020828154811015156126a557fe5b9060005260206000200154905092915050565b600f818154811015156126c757fe5b9060005260206000209060080201600091509050806000015490806001015490806002015490806003015490806004018054600181600116156101000203166002900480601f01602080910402602001604051908101604052809291908181526020018280546001816001161561010002031660029004801561278b5780601f106127605761010080835404028352916020019161278b565b820191906000526020600020905b81548152906001019060200180831161276e57829003601f168201915b505050505090806005018054600181600116156101000203166002900480601f0160208091040260200160405190810160405280929190818152602001828054600181600116156101000203166002900480156128295780601f106127fe57610100808354040283529160200191612829565b820191906000526020600020905b81548152906001019060200180831161280c57829003601f168201915b5050505050908060060160009054906101000a900460ff16908060060160019054906101000a900460ff16908060070154905089565b61289e336040805190810160405280601181526020017f726f6c652f73797374656d2d61646d696e00000000000000000000000000000081525061228c565b601c60009054906101000a900460ff1615156128b957600080fd5b6000601c60006101000a81548160ff0219169083151502179055507f0e5e3b3fb504c22cf5c42fa07d521225937514c654007e1f12646f89768d6f9460405160405180910390a1565b60606015600083815260200190815260200160002080548060200260200160405190810160405280929190818152602001828054801561296157602002820191906000526020600020905b81548152602001906001019080831161294d575b50505050509050919050565b806129783382614637565b151561298357600080fd5b61299f8484846020604051908101604052806000815250614340565b50505050565b6019602052816000526040600020818154811015156129c057fe5b90600052602060002001600091509150505481565b6000806060806060600d8054905086111515156129f157600080fd5b600d86815481101515612a0057fe5b906000526020600020906005020160000160009054906101000a900473ffffffffffffffffffffffffffffffffffffffff16600d87815481101515612a4157fe5b906000526020600020906005020160010154600d88815481101515612a6257fe5b9060005260206000209060050201600201600d89815481101515612a8257fe5b9060005260206000209060050201600301600d8a815481101515612aa257fe5b9060005260206000209060050201600401828054600181600116156101000203166002900480601f016020809104026020016040519081016040528092919081815260200182805460018160011615610100020316600290048015612b485780601f10612b1d57610100808354040283529160200191612b48565b820191906000526020600020905b815481529060010190602001808311612b2b57829003601f168201915b50505050509250818054600181600116156101000203166002900480601f016020809104026020016040519081016040528092919081815260200182805460018160011615610100020316600290048015612be45780601f10612bb957610100808354040283529160200191612be4565b820191906000526020600020905b815481529060010190602001808311612bc757829003601f168201915b50505050509150808054600181600116156101000203166002900480601f016020809104026020016040519081016040528092919081815260200182805460018160011615610100020316600290048015612c805780601f10612c5557610100808354040283529160200191612c80565b820191906000526020600020905b815481529060010190602001808311612c6357829003601f168201915b505050505090509450945094509450945091939590929450565b60115481565b6000808460006013600083815260200190815260200160002060009054906101000a900473ffffffffffffffffffffffffffffffffffffffff1690508073ffffffffffffffffffffffffffffffffffffffff163373ffffffffffffffffffffffffffffffffffffffff16141515612d1657600080fd5b600e805490509250600e608060405190810160405280898152602001858152602001888152602001878152509080600181540180825580915050906001820390600052602060002090600402016000909192909190915060008201518160000155602082015181600101556040820151816002019080519060200190612d9d929190615143565b506060820151816003019080519060200190612dba929190615143565b5050505060156000888152602001908152602001600020839080600181540180825580915050906001820390600052602060002001600090919290919091505550867f984e9c57bf3c704c112a30dea33416efd7969f90a14a69b9cb3842db1fdb5c7a84886040518083815260200180602001828103825283818151815260200191508051906020019080838360005b83811015612e65578082015181840152602081019050612e4a565b50505050905090810190601f168015612e925780820380516001836020036101000a031916815260200191505b50935050505060405180910390a28293505050509392505050565b60125481565b6000806002600084815260200190815260200160002060009054906101000a900473ffffffffffffffffffffffffffffffffffffffff169050600073ffffffffffffffffffffffffffffffffffffffff168173ffffffffffffffffffffffffffffffffffffffff161415915050919050565b6000612f2f61230d565b82101515612f3c57600080fd5b600a82815481101515612f4b57fe5b90600052602060002001549050919050565b601460205281600052604060002081815481101515612f7857fe5b90600052602060002001600091509150505481565b600e81815481101515612f9c57fe5b9060005260206000209060040201600091509050806000015490806001015490806002018054600181600116156101000203166002900480601f0160208091040260200160405190810160405280929190818152602001828054600181600116156101000203166002900480156130545780601f1061302957610100808354040283529160200191613054565b820191906000526020600020905b81548152906001019060200180831161303757829003601f168201915b505050505090806003018054600181600116156101000203166002900480601f0160208091040260200160405190810160405280929190818152602001828054600181600116156101000203166002900480156130f25780601f106130c7576101008083540402835291602001916130f2565b820191906000526020600020905b8154815290600101906020018083116130d557829003601f168201915b5050505050905084565b6040805190810160405280601181526020017f726f6c652f73797374656d2d61646d696e00000000000000000000000000000081525081565b601c60009054906101000a900460ff1681565b60166020528160005260406000208181548110151561316357fe5b90600052602060002001600091509150505481565b6000806002600084815260200190815260200160002060009054906101000a900473ffffffffffffffffffffffffffffffffffffffff169050600073ffffffffffffffffffffffffffffffffffffffff168173ffffffffffffffffffffffffffffffffffffffff16141515156131ed57600080fd5b80915050919050565b601c60019054906101000a900473ffffffffffffffffffffffffffffffffffffffff1681565b60008073ffffffffffffffffffffffffffffffffffffffff168273ffffffffffffffffffffffffffffffffffffffff161415151561325957600080fd5b600460008373ffffffffffffffffffffffffffffffffffffffff1673ffffffffffffffffffffffffffffffffffffffff168152602001908152602001600020549050919050565b600d818154811015156132af57fe5b90600052602060002090600502016000915090508060000160009054906101000a900473ffffffffffffffffffffffffffffffffffffffff1690806001015490806002018054600181600116156101000203166002900480601f0160208091040260200160405190810160405280929190818152602001828054600181600116156101000203166002900480156133875780601f1061335c57610100808354040283529160200191613387565b820191906000526020600020905b81548152906001019060200180831161336a57829003601f168201915b505050505090806003018054600181600116156101000203166002900480601f0160208091040260200160405190810160405280929190818152602001828054600181600116156101000203166002900480156134255780601f106133fa57610100808354040283529160200191613425565b820191906000526020600020905b81548152906001019060200180831161340857829003601f168201915b505050505090806004018054600181600116156101000203166002900480601f0160208091040260200160405190810160405280929190818152602001828054600181600116156101000203166002900480156134c35780601f10613498576101008083540402835291602001916134c3565b820191906000526020600020905b8154815290600101906020018083116134a657829003601f168201915b5050505050905085565b61350c336040805190810160405280601181526020017f726f6c652f73797374656d2d61646d696e00000000000000000000000000000081525061228c565b601c60009054906101000a900460ff16151561352757600080fd5b80601c60016101000a81548173ffffffffffffffffffffffffffffffffffffffff021916908373ffffffffffffffffffffffffffffffffffffffff1602179055507f450db8da6efbe9c22f2347f7c2021231df1fc58d3ae9a2fa75d39fa44619930581604051808273ffffffffffffffffffffffffffffffffffffffff1673ffffffffffffffffffffffffffffffffffffffff16815260200191505060405180910390a150565b601a602052816000526040600020818154811015156135e957fe5b90600052602060002001600091509150505481565b6040805190810160405280600f81526020017f726f6c652f73686f702d6f776e6572000000000000000000000000000000000081525081565b613676336040805190810160405280601181526020017f726f6c652f73797374656d2d61646d696e00000000000000000000000000000081525061228c565b601c60009054906101000a900460ff1615151561369257600080fd5b6001601c60006101000a81548160ff0219169083151502179055507fab35696f06e428ebc5ceba8cd17f8fed287baf43440206d1943af1ee53e6d26760405160405180910390a1565b6000806060806136e96151c3565b600e8054905086111515156136fd57600080fd5b600e8681548110151561370c57fe5b9060005260206000209060040201608060405190810160405290816000820154815260200160018201548152602001600282018054600181600116156101000203166002900480601f0160208091040260200160405190810160405280929190818152602001828054600181600116156101000203166002900480156137d35780601f106137a8576101008083540402835291602001916137d3565b820191906000526020600020905b8154815290600101906020018083116137b657829003601f168201915b50505050508152602001600382018054600181600116156101000203166002900480601f0160208091040260200160405190810160405280929190818152602001828054600181600116156101000203166002900480156138755780601f1061384a57610100808354040283529160200191613875565b820191906000526020600020905b81548152906001019060200180831161385857829003601f168201915b505050505081525050905080600001518160200151826040015183606001518191508090509450945094509450509193509193565b6017602052816000526040600020818154811015156138c557fe5b90600052602060002001600091509150505481565b6000806000600d805490509150339050600d60a0604051908101604052808373ffffffffffffffffffffffffffffffffffffffff168152602001848152602001888152602001878152602001868152509080600181540180825580915050906001820390600052602060002090600502016000909192909190915060008201518160000160006101000a81548173ffffffffffffffffffffffffffffffffffffffff021916908373ffffffffffffffffffffffffffffffffffffffff1602179055506020820151816001015560408201518160020190805190602001906139c2929190615143565b5060608201518160030190805190602001906139df929190615143565b5060808201518160040190805190602001906139fc929190615143565b50505050806013600084815260200190815260200160002060006101000a81548173ffffffffffffffffffffffffffffffffffffffff021916908373ffffffffffffffffffffffffffffffffffffffff160217905550601460008273ffffffffffffffffffffffffffffffffffffffff1673ffffffffffffffffffffffffffffffffffffffff168152602001908152602001600020829080600181540180825580915050906001820390600052602060002001600090919290919091505550613afa816040805190810160405280600f81526020017f726f6c652f73686f702d6f776e65720000000000000000000000000000000000815250614abe565b8073ffffffffffffffffffffffffffffffffffffffff167f6483fc0067ba37ac182934414561e6a0483fe2c28473508471330bc69afee81783886040518083815260200180602001828103825283818151815260200191508051906020019080838360005b83811015613b7a578082015181840152602081019050613b5f565b50505050905090810190601f168015613ba75780820380516001836020036101000a031916815260200191505b50935050505060405180910390a281925050509392505050565b606060078054600181600116156101000203166002900480601f016020809104026020016040519081016040528092919081815260200182805460018160011615610100020316600290048015613c595780601f10613c2e57610100808354040283529160200191613c59565b820191906000526020600020905b815481529060010190602001808311613c3c57829003601f168201915b5050505050905090565b6000808960006013600083815260200190815260200160002060009054906101000a900473ffffffffffffffffffffffffffffffffffffffff1690508073ffffffffffffffffffffffffffffffffffffffff163373ffffffffffffffffffffffffffffffffffffffff16141515613cd957600080fd5b60008a111515613ce857600080fd5b600f805490509250600f610120604051908101604052808e81526020018581526020018d81526020018c81526020018b81526020018a8152602001891515815260200188151581526020018781525090806001815401808255809150509060018203906000526020600020906008020160009091929091909150600082015181600001556020820151816001015560408201518160020155606082015181600301556080820151816004019080519060200190613da6929190615143565b5060a0820151816005019080519060200190613dc3929190615143565b5060c08201518160060160006101000a81548160ff02191690831515021790555060e08201518160060160016101000a81548160ff0219169083151502179055506101008201518160070155505050601760008d8152602001908152602001600020839080600181540180825580915050906001820390600052602060002001600090919290919091505550601660008c81526020019081526020016000208390806001815401808255809150509060018203906000526020600020016000909192909190915055508b7fd69554e5413a4863105d3af271dbb7053ecbdb96c22b4ed508331bbb4a993a63848b6040518083815260200180602001828103825283818151815260200191508051906020019080838360005b83811015613ef6578082015181840152602081019050613edb565b50505050905090810190601f168015613f235780820380516001836020036101000a031916815260200191505b50935050505060405180910390a282935050505098975050505050505050565b3373ffffffffffffffffffffffffffffffffffffffff168273ffffffffffffffffffffffffffffffffffffffff1614151515613f7e57600080fd5b80600560003373ffffffffffffffffffffffffffffffffffffffff1673ffffffffffffffffffffffffffffffffffffffff16815260200190815260200160002060008473ffffffffffffffffffffffffffffffffffffffff1673ffffffffffffffffffffffffffffffffffffffff16815260200190815260200160002060006101000a81548160ff0219169083151502179055508173ffffffffffffffffffffffffffffffffffffffff163373ffffffffffffffffffffffffffffffffffffffff167f17307eab39ab6107e8899845ad3d59bd9653f200f220920489ca2b5937696c3183604051808215151515815260200191505060405180910390a35050565b60008060008060608060008060006140956151ec565b600f805490508b111515156140a957600080fd5b600f8b8154811015156140b857fe5b9060005260206000209060080201610120604051908101604052908160008201548152602001600182015481526020016002820154815260200160038201548152602001600482018054600181600116156101000203166002900480601f0160208091040260200160405190810160405280929190818152602001828054600181600116156101000203166002900480156141945780601f1061416957610100808354040283529160200191614194565b820191906000526020600020905b81548152906001019060200180831161417757829003601f168201915b50505050508152602001600582018054600181600116156101000203166002900480601f0160208091040260200160405190810160405280929190818152602001828054600181600116156101000203166002900480156142365780601f1061420b57610100808354040283529160200191614236565b820191906000526020600020905b81548152906001019060200180831161421957829003601f168201915b505050505081526020016006820160009054906101000a900460ff161515151581526020016006820160019054906101000a900460ff161515151581526020016007820154815250509050806000015181602001518260400151836060015184608001518560a001518660c001518760e00151886101000151849450839350995099509950995099509950995099509950509193959799909294969850565b60606017600083815260200190815260200160002080548060200260200160405190810160405280929190818152602001828054801561433457602002820191906000526020600020905b815481526020019060010190808311614320575b50505050509050919050565b8161434b3382614637565b151561435657600080fd5b614361858585612498565b61436d85858585614bf2565b151561437857600080fd5b5050505050565b60108181548110151561438e57fe5b90600052602060002090600602016000915090508060000160009054906101000a900473ffffffffffffffffffffffffffffffffffffffff16908060010154908060020154908060030154908060040154908060050160009054906101000a900460ff16905086565b606061440282612eb3565b151561440d57600080fd5b600c60008381526020019081526020016000208054600181600116156101000203166002900480601f0160208091040260200160405190810160405280929190818152602001828054600181600116156101000203166002900480156144b45780601f10614489576101008083540402835291602001916144b4565b820191906000526020600020905b81548152906001019060200180831161449757829003601f168201915b50505050509050919050565b6040805190810160405280601481526020017f726f6c652f6672616e63686973652d6f776e657200000000000000000000000081525081565b601b6020528060005260406000206000915090505481565b6000600560008473ffffffffffffffffffffffffffffffffffffffff1673ffffffffffffffffffffffffffffffffffffffff16815260200190815260200160002060008373ffffffffffffffffffffffffffffffffffffffff1673ffffffffffffffffffffffffffffffffffffffff16815260200190815260200160002060009054906101000a900460ff16905092915050565b600060166000838152602001908152602001600020805490509050919050565b6145cf82826145de565b15156145da57600080fd5b5050565b60008260000160008373ffffffffffffffffffffffffffffffffffffffff1673ffffffffffffffffffffffffffffffffffffffff16815260200190815260200160002060009054906101000a900460ff16905092915050565b60008061464383613178565b90508073ffffffffffffffffffffffffffffffffffffffff168473ffffffffffffffffffffffffffffffffffffffff1614806146b257508373ffffffffffffffffffffffffffffffffffffffff1661469a8461210a565b73ffffffffffffffffffffffffffffffffffffffff16145b806146c357506146c28185614511565b5b91505092915050565b8173ffffffffffffffffffffffffffffffffffffffff166146ec82613178565b73ffffffffffffffffffffffffffffffffffffffff1614151561470e57600080fd5b600073ffffffffffffffffffffffffffffffffffffffff166003600083815260200190815260200160002060009054906101000a900473ffffffffffffffffffffffffffffffffffffffff1673ffffffffffffffffffffffffffffffffffffffff161415156147cb5760006003600083815260200190815260200160002060006101000a81548173ffffffffffffffffffffffffffffffffffffffff021916908373ffffffffffffffffffffffffffffffffffffffff1602179055505b5050565b60008060006147de8585614e14565b6009600085815260200190815260200160002054925061484a6001600860008873ffffffffffffffffffffffffffffffffffffffff1673ffffffffffffffffffffffffffffffffffffffff16815260200190815260200160002080549050614f4390919063ffffffff16565b9150600860008673ffffffffffffffffffffffffffffffffffffffff1673ffffffffffffffffffffffffffffffffffffffff1681526020019081526020016000208281548110151561489857fe5b9060005260206000200154905080600860008773ffffffffffffffffffffffffffffffffffffffff1673ffffffffffffffffffffffffffffffffffffffff168152602001908152602001600020848154811015156148f257fe5b90600052602060002001819055506000600860008773ffffffffffffffffffffffffffffffffffffffff1673ffffffffffffffffffffffffffffffffffffffff1681526020019081526020016000208381548110151561494e57fe5b9060005260206000200181905550600860008673ffffffffffffffffffffffffffffffffffffffff1673ffffffffffffffffffffffffffffffffffffffff1681526020019081526020016000208054809190600190036149ae919061523d565b50600060096000868152602001908152602001600020819055508260096000838152602001908152602001600020819055505050505050565b60006149f38383614f5c565b600860008473ffffffffffffffffffffffffffffffffffffffff1673ffffffffffffffffffffffffffffffffffffffff168152602001908152602001600020805490509050600860008473ffffffffffffffffffffffffffffffffffffffff1673ffffffffffffffffffffffffffffffffffffffff168152602001908152602001600020829080600181540180825580915050906001820390600052602060002001600090919290919091505550806009600084815260200190815260200160002081905550505050565b614b3b826000836040518082805190602001908083835b602083101515614afa5780518252602082019150602081019050602083039250614ad5565b6001836020036101000a03801982511681845116808217855250505050505090500191505090815260200160405180910390206150b690919063ffffffff16565b8173ffffffffffffffffffffffffffffffffffffffff167fbfec83d64eaa953f2708271a023ab9ee82057f8f3578d548c1a4ba0b5b700489826040518080602001828103825283818151815260200191508051906020019080838360005b83811015614bb4578082015181840152602081019050614b99565b50505050905090810190601f168015614be15780820380516001836020036101000a031916815260200191505b509250505060405180910390a25050565b600080614c148573ffffffffffffffffffffffffffffffffffffffff16615114565b1515614c235760019150614e0b565b8473ffffffffffffffffffffffffffffffffffffffff1663150b7a02338887876040518563ffffffff167c0100000000000000000000000000000000000000000000000000000000028152600401808573ffffffffffffffffffffffffffffffffffffffff1673ffffffffffffffffffffffffffffffffffffffff1681526020018473ffffffffffffffffffffffffffffffffffffffff1673ffffffffffffffffffffffffffffffffffffffff16815260200183815260200180602001828103825283818151815260200191508051906020019080838360005b83811015614d18578082015181840152602081019050614cfd565b50505050905090810190601f168015614d455780820380516001836020036101000a031916815260200191505b5095505050505050602060405180830381600087803b158015614d6757600080fd5b505af1158015614d7b573d6000803e3d6000fd5b505050506040513d6020811015614d9157600080fd5b8101908080519060200190929190505050905063150b7a027c0100000000000000000000000000000000000000000000000000000000027bffffffffffffffffffffffffffffffffffffffffffffffffffffffff1916817bffffffffffffffffffffffffffffffffffffffffffffffffffffffff19161491505b50949350505050565b8173ffffffffffffffffffffffffffffffffffffffff16614e3482613178565b73ffffffffffffffffffffffffffffffffffffffff16141515614e5657600080fd5b614ea96001600460008573ffffffffffffffffffffffffffffffffffffffff1673ffffffffffffffffffffffffffffffffffffffff16815260200190815260200160002054614f4390919063ffffffff16565b600460008473ffffffffffffffffffffffffffffffffffffffff1673ffffffffffffffffffffffffffffffffffffffff1681526020019081526020016000208190555060006002600083815260200190815260200160002060006101000a81548173ffffffffffffffffffffffffffffffffffffffff021916908373ffffffffffffffffffffffffffffffffffffffff1602179055505050565b6000828211151515614f5157fe5b818303905092915050565b600073ffffffffffffffffffffffffffffffffffffffff166002600083815260200190815260200160002060009054906101000a900473ffffffffffffffffffffffffffffffffffffffff1673ffffffffffffffffffffffffffffffffffffffff16141515614fca57600080fd5b816002600083815260200190815260200160002060006101000a81548173ffffffffffffffffffffffffffffffffffffffff021916908373ffffffffffffffffffffffffffffffffffffffff16021790555061506f6001600460008573ffffffffffffffffffffffffffffffffffffffff1673ffffffffffffffffffffffffffffffffffffffff1681526020019081526020016000205461512790919063ffffffff16565b600460008473ffffffffffffffffffffffffffffffffffffffff1673ffffffffffffffffffffffffffffffffffffffff168152602001908152602001600020819055505050565b60018260000160008373ffffffffffffffffffffffffffffffffffffffff1673ffffffffffffffffffffffffffffffffffffffff16815260200190815260200160002060006101000a81548160ff0219169083151502179055505050565b600080823b905060008111915050919050565b6000818301905082811015151561513a57fe5b80905092915050565b828054600181600116156101000203166002900490600052602060002090601f016020900481019282601f1061518457805160ff19168380011785556151b2565b828001600101855582156151b2579182015b828111156151b1578251825591602001919060010190615196565b5b5090506151bf9190615269565b5090565b608060405190810160405280600081526020016000815260200160608152602001606081525090565b61012060405190810160405280600081526020016000815260200160008152602001600081526020016060815260200160608152602001600015158152602001600015158152602001600081525090565b815481835581811115615264578183600052602060002091820191016152639190615269565b5b505050565b61528b91905b8082111561528757600081600090555060010161526f565b5090565b905600a165627a7a72305820d1b0eac2be0261bcdc35e06c4baf70f969c4a68a53953332548cc1bb4c51b36b0029",
  "source": "pragma solidity ^0.4.24;\n\nimport \"./SKUTypeFactory.sol\";\n\n\n/**\n * @title SKUFactory\n * @notice Defines functions and events related to management of SKUs\n */\ncontract SKUFactory is SKUTypeFactory {\n\n    /**\n     * @notice emitted upon the creation of a SKU\n     */\n    event NewSKU(uint256 indexed shopId, uint256 skuId, string name);\n\n    /**\n     * @notice Create an SKU (Shopkeeping Unit) for a Shop\n     * @dev Can only be run by shop owner\n     */\n    function createSKU(\n        uint256 _shopId,\n        uint256 _skuTypeId,\n        uint256 _price,\n        string _name,\n        string _desc,\n        bool _consumable,\n        bool _limited,\n        uint256 _limit\n    )\n        public\n        onlyShopOwner(_shopId)\n        returns(uint256)\n    {\n        // SKUs must have a non-zero price\n        require(_price > 0);\n\n        // Get SKU ID\n        uint256 skuId = skus.length;\n\n        // Create and store SKU Type\n        skus.push(SKU(_shopId, skuId, _skuTypeId, _price, _name, _desc, _consumable, _limited, _limit));\n\n        // Add SKU to Shop's SKU list\n        shopSKUs[_shopId].push(skuId);\n\n        // Add SKU ID to SKU Type's SKU list\n        skuTypeSKUs[_skuTypeId].push(skuId);\n\n        // Emit Event with name of the new SKU\n        emit NewSKU(_shopId, skuId, _name);\n\n        // Return the new SKU ID\n        return skuId;\n    }\n\n    // @notice Get the list of SKU Ids associated with a given Shop\n    function getSKUIds(uint256 _shopId) public view returns (uint[] memory) {\n        return shopSKUs[_shopId];\n    }\n\n    // @notice Get a SKU's properties by ID\n    function getSKU(uint256 _skuId) public view returns (\n        uint256, uint256, uint256,  uint256, string, string, bool, bool, uint256)\n    {\n        require(_skuId <= skus.length);\n        SKU memory sku = skus[_skuId];\n        return (\n            sku.shopId,\n            sku.skuId,\n            sku.skuTypeId,\n            sku.price,\n            sku.name,\n            sku.description,\n            sku.consumable,\n            sku.limited,\n            sku.limit\n        );\n    }\n}",
  "sourcePath": "/Users/cliff/Documents/in-app-pro-shop/contracts/SKUFactory.sol",
  "compiler": {
    "name": "solc",
    "version": "0.4.24+commit.e67f0147.Emscripten.clang"
  },
  "schemaVersion": "2.0.1",
  "updatedAt": "2018-12-04T17:27:38.557Z"
}