{
  "contractName": "SKUTypeFactory",
  "abi": [
    {
      "constant": true,
      "inputs": [
        {
          "name": "",
          "type": "uint256"
        },
        {
          "name": "",
          "type": "uint256"
        }
      ],
      "name": "shopSKUTypes",
      "outputs": [
        {
          "name": "",
          "type": "uint256"
        }
      ],
      "payable": false,
      "stateMutability": "view",
      "type": "function"
    },
    {
      "constant": true,
      "inputs": [
        {
          "name": "_operator",
          "type": "address"
        },
        {
          "name": "_role",
          "type": "string"
        }
      ],
      "name": "checkRole",
      "outputs": [],
      "payable": false,
      "stateMutability": "view",
      "type": "function"
    },
    {
      "constant": true,
      "inputs": [
        {
          "name": "_operator",
          "type": "address"
        },
        {
          "name": "_role",
          "type": "string"
        }
      ],
      "name": "hasRole",
      "outputs": [
        {
          "name": "",
          "type": "bool"
        }
      ],
      "payable": false,
      "stateMutability": "view",
      "type": "function"
    },
    {
      "constant": true,
      "inputs": [
        {
          "name": "",
          "type": "uint256"
        }
      ],
      "name": "shopToOwner",
      "outputs": [
        {
          "name": "",
          "type": "address"
        }
      ],
      "payable": false,
      "stateMutability": "view",
      "type": "function"
    },
    {
      "constant": true,
      "inputs": [
        {
          "name": "",
          "type": "uint256"
        }
      ],
      "name": "skus",
      "outputs": [
        {
          "name": "shopId",
          "type": "uint256"
        },
        {
          "name": "skuId",
          "type": "uint256"
        },
        {
          "name": "skuTypeId",
          "type": "uint256"
        },
        {
          "name": "price",
          "type": "uint256"
        },
        {
          "name": "name",
          "type": "string"
        },
        {
          "name": "description",
          "type": "string"
        },
        {
          "name": "consumable",
          "type": "bool"
        },
        {
          "name": "limited",
          "type": "bool"
        },
        {
          "name": "limit",
          "type": "uint256"
        }
      ],
      "payable": false,
      "stateMutability": "view",
      "type": "function"
    },
    {
      "constant": false,
      "inputs": [],
      "name": "unpause",
      "outputs": [],
      "payable": false,
      "stateMutability": "nonpayable",
      "type": "function"
    },
    {
      "constant": true,
      "inputs": [
        {
          "name": "",
          "type": "address"
        },
        {
          "name": "",
          "type": "uint256"
        }
      ],
      "name": "ownedShops",
      "outputs": [
        {
          "name": "",
          "type": "uint256"
        }
      ],
      "payable": false,
      "stateMutability": "view",
      "type": "function"
    },
    {
      "constant": true,
      "inputs": [
        {
          "name": "",
          "type": "uint256"
        }
      ],
      "name": "skuTypes",
      "outputs": [
        {
          "name": "shopId",
          "type": "uint256"
        },
        {
          "name": "skuTypeId",
          "type": "uint256"
        },
        {
          "name": "name",
          "type": "string"
        },
        {
          "name": "description",
          "type": "string"
        }
      ],
      "payable": false,
      "stateMutability": "view",
      "type": "function"
    },
    {
      "constant": true,
      "inputs": [],
      "name": "ROLE_SYS_ADMIN",
      "outputs": [
        {
          "name": "",
          "type": "string"
        }
      ],
      "payable": false,
      "stateMutability": "view",
      "type": "function"
    },
    {
      "constant": true,
      "inputs": [],
      "name": "paused",
      "outputs": [
        {
          "name": "",
          "type": "bool"
        }
      ],
      "payable": false,
      "stateMutability": "view",
      "type": "function"
    },
    {
      "constant": true,
      "inputs": [
        {
          "name": "",
          "type": "uint256"
        },
        {
          "name": "",
          "type": "uint256"
        }
      ],
      "name": "skuTypeSKUs",
      "outputs": [
        {
          "name": "",
          "type": "uint256"
        }
      ],
      "payable": false,
      "stateMutability": "view",
      "type": "function"
    },
    {
      "constant": true,
      "inputs": [],
      "name": "newContractAddress",
      "outputs": [
        {
          "name": "",
          "type": "address"
        }
      ],
      "payable": false,
      "stateMutability": "view",
      "type": "function"
    },
    {
      "constant": true,
      "inputs": [
        {
          "name": "",
          "type": "uint256"
        }
      ],
      "name": "shops",
      "outputs": [
        {
          "name": "owner",
          "type": "address"
        },
        {
          "name": "shopId",
          "type": "uint256"
        },
        {
          "name": "name",
          "type": "string"
        },
        {
          "name": "description",
          "type": "string"
        },
        {
          "name": "fiat",
          "type": "string"
        }
      ],
      "payable": false,
      "stateMutability": "view",
      "type": "function"
    },
    {
      "constant": false,
      "inputs": [
        {
          "name": "_newAddress",
          "type": "address"
        }
      ],
      "name": "setNewAddress",
      "outputs": [],
      "payable": false,
      "stateMutability": "nonpayable",
      "type": "function"
    },
    {
      "constant": true,
      "inputs": [],
      "name": "ROLE_SHOP_OWNER",
      "outputs": [
        {
          "name": "",
          "type": "string"
        }
      ],
      "payable": false,
      "stateMutability": "view",
      "type": "function"
    },
    {
      "constant": false,
      "inputs": [],
      "name": "pause",
      "outputs": [],
      "payable": false,
      "stateMutability": "nonpayable",
      "type": "function"
    },
    {
      "constant": true,
      "inputs": [
        {
          "name": "",
          "type": "uint256"
        },
        {
          "name": "",
          "type": "uint256"
        }
      ],
      "name": "shopSKUs",
      "outputs": [
        {
          "name": "",
          "type": "uint256"
        }
      ],
      "payable": false,
      "stateMutability": "view",
      "type": "function"
    },
    {
      "constant": false,
      "inputs": [
        {
          "name": "_name",
          "type": "string"
        },
        {
          "name": "_desc",
          "type": "string"
        },
        {
          "name": "_fiat",
          "type": "string"
        }
      ],
      "name": "createShop",
      "outputs": [
        {
          "name": "",
          "type": "uint256"
        }
      ],
      "payable": false,
      "stateMutability": "nonpayable",
      "type": "function"
    },
    {
      "constant": true,
      "inputs": [],
      "name": "ROLE_FRANCHISE_OWNER",
      "outputs": [
        {
          "name": "",
          "type": "string"
        }
      ],
      "payable": false,
      "stateMutability": "view",
      "type": "function"
    },
    {
      "anonymous": false,
      "inputs": [
        {
          "indexed": true,
          "name": "shopId",
          "type": "uint256"
        },
        {
          "indexed": false,
          "name": "skuTypeId",
          "type": "uint256"
        },
        {
          "indexed": false,
          "name": "name",
          "type": "string"
        }
      ],
      "name": "NewSKUType",
      "type": "event"
    },
    {
      "anonymous": false,
      "inputs": [
        {
          "indexed": true,
          "name": "owner",
          "type": "address"
        },
        {
          "indexed": false,
          "name": "shopId",
          "type": "uint256"
        },
        {
          "indexed": false,
          "name": "name",
          "type": "string"
        }
      ],
      "name": "NewShop",
      "type": "event"
    },
    {
      "anonymous": false,
      "inputs": [
        {
          "indexed": false,
          "name": "newContract",
          "type": "address"
        }
      ],
      "name": "ContractUpgrade",
      "type": "event"
    },
    {
      "anonymous": false,
      "inputs": [],
      "name": "ContractPaused",
      "type": "event"
    },
    {
      "anonymous": false,
      "inputs": [],
      "name": "ContractUnpaused",
      "type": "event"
    },
    {
      "anonymous": false,
      "inputs": [
        {
          "indexed": true,
          "name": "operator",
          "type": "address"
        },
        {
          "indexed": false,
          "name": "role",
          "type": "string"
        }
      ],
      "name": "RoleAdded",
      "type": "event"
    },
    {
      "anonymous": false,
      "inputs": [
        {
          "indexed": true,
          "name": "operator",
          "type": "address"
        },
        {
          "indexed": false,
          "name": "role",
          "type": "string"
        }
      ],
      "name": "RoleRemoved",
      "type": "event"
    },
    {
      "constant": false,
      "inputs": [
        {
          "name": "_shopId",
          "type": "uint256"
        },
        {
          "name": "_name",
          "type": "string"
        },
        {
          "name": "_desc",
          "type": "string"
        }
      ],
      "name": "createSKUType",
      "outputs": [
        {
          "name": "",
          "type": "uint256"
        }
      ],
      "payable": false,
      "stateMutability": "nonpayable",
      "type": "function"
    }
  ],
  "bytecode": "0x60806040526000600160006101000a81548160ff02191690831515021790555060018060006101000a81548160ff02191690831515021790555062000089336040805190810160405280601181526020017f726f6c652f73797374656d2d61646d696e0000000000000000000000000000008152506200012f640100000000026401000000009004565b620000d9336040805190810160405280600f81526020017f726f6c652f73686f702d6f776e657200000000000000000000000000000000008152506200012f640100000000026401000000009004565b62000129336040805190810160405280601481526020017f726f6c652f6672616e63686973652d6f776e65720000000000000000000000008152506200012f640100000000026401000000009004565b620002d6565b620001be826000836040518082805190602001908083835b6020831015156200016e578051825260208201915060208101905060208303925062000147565b6001836020036101000a0380198251168184511680821785525050505050509050019150509081526020016040518091039020620002786401000000000262001d4c179091906401000000009004565b8173ffffffffffffffffffffffffffffffffffffffff167fbfec83d64eaa953f2708271a023ab9ee82057f8f3578d548c1a4ba0b5b700489826040518080602001828103825283818151815260200191508051906020019080838360005b83811015620002395780820151818401526020810190506200021c565b50505050905090810190601f168015620002675780820380516001836020036101000a031916815260200191505b509250505060405180910390a25050565b60018260000160008373ffffffffffffffffffffffffffffffffffffffff1673ffffffffffffffffffffffffffffffffffffffff16815260200190815260200160002060006101000a81548160ff0219169083151502179055505050565b611e7b80620002e66000396000f300608060405260043610610112576000357c0100000000000000000000000000000000000000000000000000000000900463ffffffff16806301ba7539146101175780630988ca8c14610162578063217fe6c6146101eb5780632cf0d92a1461028c57806335007f0e146102f95780633f4ba83a14610444578063488d136e1461045b57806351b4fc7e146104cc578063531e005b1461052d57806356de8ccd1461064d5780635c975abb146106dd5780635ded461a1461070c5780636af04a5714610757578063713aca74146107ae57806371587988146109665780637e1ae976146109a95780638456cb5914610a395780639103394014610a5057806392bec5ee14610a9b578063cb1b200114610b1a575b600080fd5b34801561012357600080fd5b5061014c6004803603810190808035906020019092919080359060200190929190505050610baa565b6040518082815260200191505060405180910390f35b34801561016e57600080fd5b506101e9600480360381019080803573ffffffffffffffffffffffffffffffffffffffff169060200190929190803590602001908201803590602001908080601f0160208091040260200160405190810160405280939291908181526020018383808284378201915050505050509192919290505050610bda565b005b3480156101f757600080fd5b50610272600480360381019080803573ffffffffffffffffffffffffffffffffffffffff169060200190929190803590602001908201803590602001908080601f0160208091040260200160405190810160405280939291908181526020018383808284378201915050505050509192919290505050610c5b565b604051808215151515815260200191505060405180910390f35b34801561029857600080fd5b506102b760048036038101908080359060200190929190505050610ce2565b604051808273ffffffffffffffffffffffffffffffffffffffff1673ffffffffffffffffffffffffffffffffffffffff16815260200191505060405180910390f35b34801561030557600080fd5b5061032460048036038101908080359060200190929190505050610d15565b604051808a815260200189815260200188815260200187815260200180602001806020018615151515815260200185151515158152602001848152602001838103835288818151815260200191508051906020019080838360005b8381101561039a57808201518184015260208101905061037f565b50505050905090810190601f1680156103c75780820380516001836020036101000a031916815260200191505b50838103825287818151815260200191508051906020019080838360005b838110156104005780820151818401526020810190506103e5565b50505050905090810190601f16801561042d5780820380516001836020036101000a031916815260200191505b509b50505050505050505050505060405180910390f35b34801561045057600080fd5b50610459610ebc565b005b34801561046757600080fd5b506104b660048036038101908080359060200190929190803590602001908201803590602001919091929391929390803590602001908201803590602001919091929391929390505050610f5f565b6040518082815260200191505060405180910390f35b3480156104d857600080fd5b50610517600480360381019080803573ffffffffffffffffffffffffffffffffffffffff169060200190929190803590602001909291905050506111a3565b6040518082815260200191505060405180910390f35b34801561053957600080fd5b50610558600480360381019080803590602001909291905050506111d3565b604051808581526020018481526020018060200180602001838103835285818151815260200191508051906020019080838360005b838110156105a857808201518184015260208101905061058d565b50505050905090810190601f1680156105d55780820380516001836020036101000a031916815260200191505b50838103825284818151815260200191508051906020019080838360005b8381101561060e5780820151818401526020810190506105f3565b50505050905090810190601f16801561063b5780820380516001836020036101000a031916815260200191505b50965050505050505060405180910390f35b34801561065957600080fd5b50610662611342565b6040518080602001828103825283818151815260200191508051906020019080838360005b838110156106a2578082015181840152602081019050610687565b50505050905090810190601f1680156106cf5780820380516001836020036101000a031916815260200191505b509250505060405180910390f35b3480156106e957600080fd5b506106f261137b565b604051808215151515815260200191505060405180910390f35b34801561071857600080fd5b50610741600480360381019080803590602001909291908035906020019092919050505061138e565b6040518082815260200191505060405180910390f35b34801561076357600080fd5b5061076c6113be565b604051808273ffffffffffffffffffffffffffffffffffffffff1673ffffffffffffffffffffffffffffffffffffffff16815260200191505060405180910390f35b3480156107ba57600080fd5b506107d9600480360381019080803590602001909291905050506113e3565b604051808673ffffffffffffffffffffffffffffffffffffffff1673ffffffffffffffffffffffffffffffffffffffff168152602001858152602001806020018060200180602001848103845287818151815260200191508051906020019080838360005b8381101561085957808201518184015260208101905061083e565b50505050905090810190601f1680156108865780820380516001836020036101000a031916815260200191505b50848103835286818151815260200191508051906020019080838360005b838110156108bf5780820151818401526020810190506108a4565b50505050905090810190601f1680156108ec5780820380516001836020036101000a031916815260200191505b50848103825285818151815260200191508051906020019080838360005b8381101561092557808201518184015260208101905061090a565b50505050905090810190601f1680156109525780820380516001836020036101000a031916815260200191505b509850505050505050505060405180910390f35b34801561097257600080fd5b506109a7600480360381019080803573ffffffffffffffffffffffffffffffffffffffff169060200190929190505050611610565b005b3480156109b557600080fd5b506109be611710565b6040518080602001828103825283818151815260200191508051906020019080838360005b838110156109fe5780820151818401526020810190506109e3565b50505050905090810190601f168015610a2b5780820380516001836020036101000a031916815260200191505b509250505060405180910390f35b348015610a4557600080fd5b50610a4e611749565b005b348015610a5c57600080fd5b50610a8560048036038101908080359060200190929190803590602001909291905050506117ec565b6040518082815260200191505060405180910390f35b348015610aa757600080fd5b50610b0460048036038101908080359060200190820180359060200191909192939192939080359060200190820180359060200191909192939192939080359060200190820180359060200191909192939192939050505061181c565b6040518082815260200191505060405180910390f35b348015610b2657600080fd5b50610b2f611b6d565b6040518080602001828103825283818151815260200191508051906020019080838360005b83811015610b6f578082015181840152602081019050610b54565b50505050905090810190601f168015610b9c5780820380516001836020036101000a031916815260200191505b509250505060405180910390f35b600860205281600052604060002081815481101515610bc557fe5b90600052602060002001600091509150505481565b610c57826000836040518082805190602001908083835b602083101515610c165780518252602082019150602081019050602083039250610bf1565b6001836020036101000a0380198251168184511680821785525050505050509050019150509081526020016040518091039020611ba690919063ffffffff16565b5050565b6000610cda836000846040518082805190602001908083835b602083101515610c995780518252602082019150602081019050602083039250610c74565b6001836020036101000a0380198251168184511680821785525050505050509050019150509081526020016040518091039020611bbf90919063ffffffff16565b905092915050565b60066020528060005260406000206000915054906101000a900473ffffffffffffffffffffffffffffffffffffffff1681565b600581815481101515610d2457fe5b9060005260206000209060080201600091509050806000015490806001015490806002015490806003015490806004018054600181600116156101000203166002900480601f016020809104026020016040519081016040528092919081815260200182805460018160011615610100020316600290048015610de85780601f10610dbd57610100808354040283529160200191610de8565b820191906000526020600020905b815481529060010190602001808311610dcb57829003601f168201915b505050505090806005018054600181600116156101000203166002900480601f016020809104026020016040519081016040528092919081815260200182805460018160011615610100020316600290048015610e865780601f10610e5b57610100808354040283529160200191610e86565b820191906000526020600020905b815481529060010190602001808311610e6957829003601f168201915b5050505050908060060160009054906101000a900460ff16908060060160019054906101000a900460ff16908060070154905089565b610efb336040805190810160405280601181526020017f726f6c652f73797374656d2d61646d696e000000000000000000000000000000815250610bda565b600160009054906101000a900460ff161515610f1657600080fd5b6000600160006101000a81548160ff0219169083151502179055507f0e5e3b3fb504c22cf5c42fa07d521225937514c654007e1f12646f89768d6f9460405160405180910390a1565b600080600160009054906101000a900460ff16151515610f7e57600080fd5b8660006006600083815260200190815260200160002060009054906101000a900473ffffffffffffffffffffffffffffffffffffffff1690508073ffffffffffffffffffffffffffffffffffffffff163373ffffffffffffffffffffffffffffffffffffffff16141515610ff157600080fd5b600480549050925060046080604051908101604052808b81526020018581526020018a8a8080601f016020809104026020016040519081016040528093929190818152602001838380828437820191505050505050815260200188888080601f01602080910402602001604051908101604052809392919081815260200183838082843782019150505050505081525090806001815401808255809150509060018203906000526020600020906004020160009091929091909150600082015181600001556020820151816001015560408201518160020190805190602001906110dc929190611daa565b5060608201518160030190805190602001906110f9929190611daa565b50505050600860008a8152602001908152602001600020839080600181540180825580915050906001820390600052602060002001600090919290919091505550887f984e9c57bf3c704c112a30dea33416efd7969f90a14a69b9cb3842db1fdb5c7a848a8a60405180848152602001806020018281038252848482818152602001925080828437820191505094505050505060405180910390a282935050505095945050505050565b6007602052816000526040600020818154811015156111be57fe5b90600052602060002001600091509150505481565b6004818154811015156111e257fe5b9060005260206000209060040201600091509050806000015490806001015490806002018054600181600116156101000203166002900480601f01602080910402602001604051908101604052809291908181526020018280546001816001161561010002031660029004801561129a5780601f1061126f5761010080835404028352916020019161129a565b820191906000526020600020905b81548152906001019060200180831161127d57829003601f168201915b505050505090806003018054600181600116156101000203166002900480601f0160208091040260200160405190810160405280929190818152602001828054600181600116156101000203166002900480156113385780601f1061130d57610100808354040283529160200191611338565b820191906000526020600020905b81548152906001019060200180831161131b57829003601f168201915b5050505050905084565b6040805190810160405280601181526020017f726f6c652f73797374656d2d61646d696e00000000000000000000000000000081525081565b600160009054906101000a900460ff1681565b6009602052816000526040600020818154811015156113a957fe5b90600052602060002001600091509150505481565b6001809054906101000a900473ffffffffffffffffffffffffffffffffffffffff1681565b6003818154811015156113f257fe5b90600052602060002090600502016000915090508060000160009054906101000a900473ffffffffffffffffffffffffffffffffffffffff1690806001015490806002018054600181600116156101000203166002900480601f0160208091040260200160405190810160405280929190818152602001828054600181600116156101000203166002900480156114ca5780601f1061149f576101008083540402835291602001916114ca565b820191906000526020600020905b8154815290600101906020018083116114ad57829003601f168201915b505050505090806003018054600181600116156101000203166002900480601f0160208091040260200160405190810160405280929190818152602001828054600181600116156101000203166002900480156115685780601f1061153d57610100808354040283529160200191611568565b820191906000526020600020905b81548152906001019060200180831161154b57829003601f168201915b505050505090806004018054600181600116156101000203166002900480601f0160208091040260200160405190810160405280929190818152602001828054600181600116156101000203166002900480156116065780601f106115db57610100808354040283529160200191611606565b820191906000526020600020905b8154815290600101906020018083116115e957829003601f168201915b5050505050905085565b61164f336040805190810160405280601181526020017f726f6c652f73797374656d2d61646d696e000000000000000000000000000000815250610bda565b600160009054906101000a900460ff16151561166a57600080fd5b806001806101000a81548173ffffffffffffffffffffffffffffffffffffffff021916908373ffffffffffffffffffffffffffffffffffffffff1602179055507f450db8da6efbe9c22f2347f7c2021231df1fc58d3ae9a2fa75d39fa44619930581604051808273ffffffffffffffffffffffffffffffffffffffff1673ffffffffffffffffffffffffffffffffffffffff16815260200191505060405180910390a150565b6040805190810160405280600f81526020017f726f6c652f73686f702d6f776e6572000000000000000000000000000000000081525081565b611788336040805190810160405280601181526020017f726f6c652f73797374656d2d61646d696e000000000000000000000000000000815250610bda565b600160009054906101000a900460ff161515156117a457600080fd5b60018060006101000a81548160ff0219169083151502179055507fab35696f06e428ebc5ceba8cd17f8fed287baf43440206d1943af1ee53e6d26760405160405180910390a1565b600a6020528160005260406000208181548110151561180757fe5b90600052602060002001600091509150505481565b6000806000600160009054906101000a900460ff1615151561183d57600080fd5b6003805490509150339050600360a0604051908101604052808373ffffffffffffffffffffffffffffffffffffffff1681526020018481526020018b8b8080601f016020809104026020016040519081016040528093929190818152602001838380828437820191505050505050815260200189898080601f016020809104026020016040519081016040528093929190818152602001838380828437820191505050505050815260200187878080601f0160208091040260200160405190810160405280939291908181526020018383808284378201915050505050508152509080600181540180825580915050906001820390600052602060002090600502016000909192909190915060008201518160000160006101000a81548173ffffffffffffffffffffffffffffffffffffffff021916908373ffffffffffffffffffffffffffffffffffffffff1602179055506020820151816001015560408201518160020190805190602001906119b6929190611daa565b5060608201518160030190805190602001906119d3929190611daa565b5060808201518160040190805190602001906119f0929190611daa565b50505050806006600084815260200190815260200160002060006101000a81548173ffffffffffffffffffffffffffffffffffffffff021916908373ffffffffffffffffffffffffffffffffffffffff160217905550600760008273ffffffffffffffffffffffffffffffffffffffff1673ffffffffffffffffffffffffffffffffffffffff168152602001908152602001600020829080600181540180825580915050906001820390600052602060002001600090919290919091505550611aee816040805190810160405280600f81526020017f726f6c652f73686f702d6f776e65720000000000000000000000000000000000815250611c18565b8073ffffffffffffffffffffffffffffffffffffffff167f6483fc0067ba37ac182934414561e6a0483fe2c28473508471330bc69afee817838b8b60405180848152602001806020018281038252848482818152602001925080828437820191505094505050505060405180910390a281925050509695505050505050565b6040805190810160405280601481526020017f726f6c652f6672616e63686973652d6f776e657200000000000000000000000081525081565b611bb08282611bbf565b1515611bbb57600080fd5b5050565b60008260000160008373ffffffffffffffffffffffffffffffffffffffff1673ffffffffffffffffffffffffffffffffffffffff16815260200190815260200160002060009054906101000a900460ff16905092915050565b611c95826000836040518082805190602001908083835b602083101515611c545780518252602082019150602081019050602083039250611c2f565b6001836020036101000a0380198251168184511680821785525050505050509050019150509081526020016040518091039020611d4c90919063ffffffff16565b8173ffffffffffffffffffffffffffffffffffffffff167fbfec83d64eaa953f2708271a023ab9ee82057f8f3578d548c1a4ba0b5b700489826040518080602001828103825283818151815260200191508051906020019080838360005b83811015611d0e578082015181840152602081019050611cf3565b50505050905090810190601f168015611d3b5780820380516001836020036101000a031916815260200191505b509250505060405180910390a25050565b60018260000160008373ffffffffffffffffffffffffffffffffffffffff1673ffffffffffffffffffffffffffffffffffffffff16815260200190815260200160002060006101000a81548160ff0219169083151502179055505050565b828054600181600116156101000203166002900490600052602060002090601f016020900481019282601f10611deb57805160ff1916838001178555611e19565b82800160010185558215611e19579182015b82811115611e18578251825591602001919060010190611dfd565b5b509050611e269190611e2a565b5090565b611e4c91905b80821115611e48576000816000905550600101611e30565b5090565b905600a165627a7a72305820107dcb1cb9162091fb4c371ea61eefdbbb764e2ac76a296a279a435617272b300029",
  "source": "pragma solidity ^0.4.24;\n\nimport \"./ShopFactory.sol\";\n\n\n/**\n * @title SKUTypeFactory\n * @notice Defines functions and events related to management of SKU Types\n */\ncontract SKUTypeFactory is ShopFactory {\n\n    /**\n     * @notice emitted upon the creation of a SKU Type\n     */\n    event NewSKUType(uint256 indexed shopId, uint256 skuTypeId, string name);\n\n    /**\n     * @notice Create an SKU (Shopkeeping Unit) Type for a Shop\n     * @dev Can only be run by the shop owner\n     */\n    function createSKUType(\n        uint256 _shopId,\n        string _name,\n        string _desc\n    )\n        external\n        whenNotPaused\n        onlyShopOwner(_shopId)\n        returns(uint256)\n    {\n        // Get SKU Type ID\n        uint256 skuTypeId = skuTypes.length;\n\n        // Create and store SKU Type\n        skuTypes.push(SKUType(_shopId, skuTypeId, _name, _desc));\n\n        // Add SKU Type to Shop's SKU Type list\n        shopSKUTypes[_shopId].push(skuTypeId);\n\n        // Emit Event with name of the new SKU Type\n        emit NewSKUType(_shopId, skuTypeId, _name);\n\n        // Return the new SKU Type ID\n        return skuTypeId;\n    }\n\n}",
  "sourcePath": "/Users/cliff/Documents/in-app-pro-shop/contracts/SKUTypeFactory.sol",
  "compiler": {
    "name": "solc",
    "version": "0.4.24+commit.e67f0147.Emscripten.clang"
  },
  "schemaVersion": "2.0.1",
  "updatedAt": "2019-03-12T20:15:42.146Z"
}