{
  "contractName": "SKUTypeFactory",
  "abi": [
    {
      "constant": true,
      "inputs": [
        {
          "name": "",
          "type": "uint256"
        },
        {
          "name": "",
          "type": "uint256"
        }
      ],
      "name": "shopSKUTypes",
      "outputs": [
        {
          "name": "",
          "type": "uint256"
        }
      ],
      "payable": false,
      "stateMutability": "view",
      "type": "function"
    },
    {
      "constant": true,
      "inputs": [
        {
          "name": "_interfaceId",
          "type": "bytes4"
        }
      ],
      "name": "supportsInterface",
      "outputs": [
        {
          "name": "",
          "type": "bool"
        }
      ],
      "payable": false,
      "stateMutability": "view",
      "type": "function"
    },
    {
      "constant": true,
      "inputs": [],
      "name": "name",
      "outputs": [
        {
          "name": "",
          "type": "string"
        }
      ],
      "payable": false,
      "stateMutability": "view",
      "type": "function"
    },
    {
      "constant": true,
      "inputs": [
        {
          "name": "_tokenId",
          "type": "uint256"
        }
      ],
      "name": "getApproved",
      "outputs": [
        {
          "name": "",
          "type": "address"
        }
      ],
      "payable": false,
      "stateMutability": "view",
      "type": "function"
    },
    {
      "constant": false,
      "inputs": [
        {
          "name": "_to",
          "type": "address"
        },
        {
          "name": "_tokenId",
          "type": "uint256"
        }
      ],
      "name": "approve",
      "outputs": [],
      "payable": false,
      "stateMutability": "nonpayable",
      "type": "function"
    },
    {
      "constant": true,
      "inputs": [
        {
          "name": "_operator",
          "type": "address"
        },
        {
          "name": "_role",
          "type": "string"
        }
      ],
      "name": "checkRole",
      "outputs": [],
      "payable": false,
      "stateMutability": "view",
      "type": "function"
    },
    {
      "constant": true,
      "inputs": [],
      "name": "totalSupply",
      "outputs": [
        {
          "name": "",
          "type": "uint256"
        }
      ],
      "payable": false,
      "stateMutability": "view",
      "type": "function"
    },
    {
      "constant": true,
      "inputs": [],
      "name": "TOKEN_NAME",
      "outputs": [
        {
          "name": "",
          "type": "string"
        }
      ],
      "payable": false,
      "stateMutability": "view",
      "type": "function"
    },
    {
      "constant": true,
      "inputs": [
        {
          "name": "_owner",
          "type": "address"
        }
      ],
      "name": "getShopIds",
      "outputs": [
        {
          "name": "",
          "type": "uint256[]"
        }
      ],
      "payable": false,
      "stateMutability": "view",
      "type": "function"
    },
    {
      "constant": true,
      "inputs": [],
      "name": "InterfaceId_ERC165",
      "outputs": [
        {
          "name": "",
          "type": "bytes4"
        }
      ],
      "payable": false,
      "stateMutability": "view",
      "type": "function"
    },
    {
      "constant": true,
      "inputs": [
        {
          "name": "",
          "type": "uint256"
        }
      ],
      "name": "itemToOwner",
      "outputs": [
        {
          "name": "",
          "type": "address"
        }
      ],
      "payable": false,
      "stateMutability": "view",
      "type": "function"
    },
    {
      "constant": true,
      "inputs": [
        {
          "name": "_operator",
          "type": "address"
        },
        {
          "name": "_role",
          "type": "string"
        }
      ],
      "name": "hasRole",
      "outputs": [
        {
          "name": "",
          "type": "bool"
        }
      ],
      "payable": false,
      "stateMutability": "view",
      "type": "function"
    },
    {
      "constant": false,
      "inputs": [
        {
          "name": "_from",
          "type": "address"
        },
        {
          "name": "_to",
          "type": "address"
        },
        {
          "name": "_tokenId",
          "type": "uint256"
        }
      ],
      "name": "transferFrom",
      "outputs": [],
      "payable": false,
      "stateMutability": "nonpayable",
      "type": "function"
    },
    {
      "constant": true,
      "inputs": [
        {
          "name": "",
          "type": "uint256"
        },
        {
          "name": "",
          "type": "uint256"
        }
      ],
      "name": "skuItems",
      "outputs": [
        {
          "name": "",
          "type": "uint256"
        }
      ],
      "payable": false,
      "stateMutability": "view",
      "type": "function"
    },
    {
      "constant": true,
      "inputs": [],
      "name": "TOKEN_SYMBOL",
      "outputs": [
        {
          "name": "",
          "type": "string"
        }
      ],
      "payable": false,
      "stateMutability": "view",
      "type": "function"
    },
    {
      "constant": true,
      "inputs": [
        {
          "name": "",
          "type": "uint256"
        }
      ],
      "name": "shopToOwner",
      "outputs": [
        {
          "name": "",
          "type": "address"
        }
      ],
      "payable": false,
      "stateMutability": "view",
      "type": "function"
    },
    {
      "constant": true,
      "inputs": [
        {
          "name": "_owner",
          "type": "address"
        },
        {
          "name": "_index",
          "type": "uint256"
        }
      ],
      "name": "tokenOfOwnerByIndex",
      "outputs": [
        {
          "name": "",
          "type": "uint256"
        }
      ],
      "payable": false,
      "stateMutability": "view",
      "type": "function"
    },
    {
      "constant": true,
      "inputs": [
        {
          "name": "",
          "type": "uint256"
        }
      ],
      "name": "skus",
      "outputs": [
        {
          "name": "shopId",
          "type": "uint256"
        },
        {
          "name": "skuId",
          "type": "uint256"
        },
        {
          "name": "skuTypeId",
          "type": "uint256"
        },
        {
          "name": "price",
          "type": "uint256"
        },
        {
          "name": "name",
          "type": "string"
        },
        {
          "name": "description",
          "type": "string"
        },
        {
          "name": "consumable",
          "type": "bool"
        },
        {
          "name": "limited",
          "type": "bool"
        },
        {
          "name": "limit",
          "type": "uint256"
        }
      ],
      "payable": false,
      "stateMutability": "view",
      "type": "function"
    },
    {
      "constant": true,
      "inputs": [
        {
          "name": "",
          "type": "uint256"
        }
      ],
      "name": "skuTypeToShop",
      "outputs": [
        {
          "name": "",
          "type": "uint256"
        }
      ],
      "payable": false,
      "stateMutability": "view",
      "type": "function"
    },
    {
      "constant": false,
      "inputs": [],
      "name": "unpause",
      "outputs": [],
      "payable": false,
      "stateMutability": "nonpayable",
      "type": "function"
    },
    {
      "constant": false,
      "inputs": [
        {
          "name": "_from",
          "type": "address"
        },
        {
          "name": "_to",
          "type": "address"
        },
        {
          "name": "_tokenId",
          "type": "uint256"
        }
      ],
      "name": "safeTransferFrom",
      "outputs": [],
      "payable": false,
      "stateMutability": "nonpayable",
      "type": "function"
    },
    {
      "constant": true,
      "inputs": [
        {
          "name": "",
          "type": "address"
        },
        {
          "name": "",
          "type": "uint256"
        }
      ],
      "name": "ownedItems",
      "outputs": [
        {
          "name": "",
          "type": "uint256"
        }
      ],
      "payable": false,
      "stateMutability": "view",
      "type": "function"
    },
    {
      "constant": true,
      "inputs": [
        {
          "name": "_shopId",
          "type": "uint256"
        }
      ],
      "name": "getShop",
      "outputs": [
        {
          "name": "",
          "type": "address"
        },
        {
          "name": "",
          "type": "uint256"
        },
        {
          "name": "",
          "type": "string"
        },
        {
          "name": "",
          "type": "string"
        }
      ],
      "payable": false,
      "stateMutability": "view",
      "type": "function"
    },
    {
      "constant": true,
      "inputs": [],
      "name": "franchiseBalance",
      "outputs": [
        {
          "name": "",
          "type": "uint256"
        }
      ],
      "payable": false,
      "stateMutability": "view",
      "type": "function"
    },
    {
      "constant": true,
      "inputs": [],
      "name": "franchiseFeePercent",
      "outputs": [
        {
          "name": "",
          "type": "uint256"
        }
      ],
      "payable": false,
      "stateMutability": "view",
      "type": "function"
    },
    {
      "constant": true,
      "inputs": [
        {
          "name": "_tokenId",
          "type": "uint256"
        }
      ],
      "name": "exists",
      "outputs": [
        {
          "name": "",
          "type": "bool"
        }
      ],
      "payable": false,
      "stateMutability": "view",
      "type": "function"
    },
    {
      "constant": true,
      "inputs": [
        {
          "name": "_index",
          "type": "uint256"
        }
      ],
      "name": "tokenByIndex",
      "outputs": [
        {
          "name": "",
          "type": "uint256"
        }
      ],
      "payable": false,
      "stateMutability": "view",
      "type": "function"
    },
    {
      "constant": true,
      "inputs": [
        {
          "name": "",
          "type": "address"
        },
        {
          "name": "",
          "type": "uint256"
        }
      ],
      "name": "ownedShops",
      "outputs": [
        {
          "name": "",
          "type": "uint256"
        }
      ],
      "payable": false,
      "stateMutability": "view",
      "type": "function"
    },
    {
      "constant": true,
      "inputs": [
        {
          "name": "",
          "type": "uint256"
        }
      ],
      "name": "skuTypes",
      "outputs": [
        {
          "name": "shopId",
          "type": "uint256"
        },
        {
          "name": "skuTypeId",
          "type": "uint256"
        },
        {
          "name": "name",
          "type": "string"
        },
        {
          "name": "description",
          "type": "string"
        }
      ],
      "payable": false,
      "stateMutability": "view",
      "type": "function"
    },
    {
      "constant": true,
      "inputs": [],
      "name": "ROLE_SYS_ADMIN",
      "outputs": [
        {
          "name": "",
          "type": "string"
        }
      ],
      "payable": false,
      "stateMutability": "view",
      "type": "function"
    },
    {
      "constant": true,
      "inputs": [],
      "name": "paused",
      "outputs": [
        {
          "name": "",
          "type": "bool"
        }
      ],
      "payable": false,
      "stateMutability": "view",
      "type": "function"
    },
    {
      "constant": true,
      "inputs": [
        {
          "name": "",
          "type": "uint256"
        },
        {
          "name": "",
          "type": "uint256"
        }
      ],
      "name": "skuTypeSKUs",
      "outputs": [
        {
          "name": "",
          "type": "uint256"
        }
      ],
      "payable": false,
      "stateMutability": "view",
      "type": "function"
    },
    {
      "constant": true,
      "inputs": [
        {
          "name": "_tokenId",
          "type": "uint256"
        }
      ],
      "name": "ownerOf",
      "outputs": [
        {
          "name": "",
          "type": "address"
        }
      ],
      "payable": false,
      "stateMutability": "view",
      "type": "function"
    },
    {
      "constant": true,
      "inputs": [],
      "name": "newContractAddress",
      "outputs": [
        {
          "name": "",
          "type": "address"
        }
      ],
      "payable": false,
      "stateMutability": "view",
      "type": "function"
    },
    {
      "constant": true,
      "inputs": [
        {
          "name": "_owner",
          "type": "address"
        }
      ],
      "name": "balanceOf",
      "outputs": [
        {
          "name": "",
          "type": "uint256"
        }
      ],
      "payable": false,
      "stateMutability": "view",
      "type": "function"
    },
    {
      "constant": true,
      "inputs": [
        {
          "name": "",
          "type": "uint256"
        }
      ],
      "name": "shops",
      "outputs": [
        {
          "name": "owner",
          "type": "address"
        },
        {
          "name": "shopId",
          "type": "uint256"
        },
        {
          "name": "name",
          "type": "string"
        },
        {
          "name": "description",
          "type": "string"
        }
      ],
      "payable": false,
      "stateMutability": "view",
      "type": "function"
    },
    {
      "constant": false,
      "inputs": [
        {
          "name": "_newAddress",
          "type": "address"
        }
      ],
      "name": "setNewAddress",
      "outputs": [],
      "payable": false,
      "stateMutability": "nonpayable",
      "type": "function"
    },
    {
      "constant": true,
      "inputs": [
        {
          "name": "",
          "type": "uint256"
        },
        {
          "name": "",
          "type": "uint256"
        }
      ],
      "name": "shopItems",
      "outputs": [
        {
          "name": "",
          "type": "uint256"
        }
      ],
      "payable": false,
      "stateMutability": "view",
      "type": "function"
    },
    {
      "constant": true,
      "inputs": [],
      "name": "ROLE_SHOP_OWNER",
      "outputs": [
        {
          "name": "",
          "type": "string"
        }
      ],
      "payable": false,
      "stateMutability": "view",
      "type": "function"
    },
    {
      "constant": false,
      "inputs": [],
      "name": "pause",
      "outputs": [],
      "payable": false,
      "stateMutability": "nonpayable",
      "type": "function"
    },
    {
      "constant": true,
      "inputs": [
        {
          "name": "",
          "type": "uint256"
        },
        {
          "name": "",
          "type": "uint256"
        }
      ],
      "name": "shopSKUs",
      "outputs": [
        {
          "name": "",
          "type": "uint256"
        }
      ],
      "payable": false,
      "stateMutability": "view",
      "type": "function"
    },
    {
      "constant": true,
      "inputs": [
        {
          "name": "",
          "type": "uint256"
        }
      ],
      "name": "skuToShop",
      "outputs": [
        {
          "name": "",
          "type": "uint256"
        }
      ],
      "payable": false,
      "stateMutability": "view",
      "type": "function"
    },
    {
      "constant": true,
      "inputs": [],
      "name": "symbol",
      "outputs": [
        {
          "name": "",
          "type": "string"
        }
      ],
      "payable": false,
      "stateMutability": "view",
      "type": "function"
    },
    {
      "constant": false,
      "inputs": [
        {
          "name": "_to",
          "type": "address"
        },
        {
          "name": "_approved",
          "type": "bool"
        }
      ],
      "name": "setApprovalForAll",
      "outputs": [],
      "payable": false,
      "stateMutability": "nonpayable",
      "type": "function"
    },
    {
      "constant": true,
      "inputs": [
        {
          "name": "",
          "type": "uint256"
        }
      ],
      "name": "itemToShop",
      "outputs": [
        {
          "name": "",
          "type": "uint256"
        }
      ],
      "payable": false,
      "stateMutability": "view",
      "type": "function"
    },
    {
      "constant": false,
      "inputs": [
        {
          "name": "_name",
          "type": "string"
        },
        {
          "name": "_desc",
          "type": "string"
        }
      ],
      "name": "createShop",
      "outputs": [
        {
          "name": "",
          "type": "uint256"
        }
      ],
      "payable": false,
      "stateMutability": "nonpayable",
      "type": "function"
    },
    {
      "constant": false,
      "inputs": [
        {
          "name": "_from",
          "type": "address"
        },
        {
          "name": "_to",
          "type": "address"
        },
        {
          "name": "_tokenId",
          "type": "uint256"
        },
        {
          "name": "_data",
          "type": "bytes"
        }
      ],
      "name": "safeTransferFrom",
      "outputs": [],
      "payable": false,
      "stateMutability": "nonpayable",
      "type": "function"
    },
    {
      "constant": true,
      "inputs": [
        {
          "name": "",
          "type": "uint256"
        }
      ],
      "name": "items",
      "outputs": [
        {
          "name": "owner",
          "type": "address"
        },
        {
          "name": "shopId",
          "type": "uint256"
        },
        {
          "name": "itemId",
          "type": "uint256"
        },
        {
          "name": "skuTypeId",
          "type": "uint256"
        },
        {
          "name": "skuId",
          "type": "uint256"
        },
        {
          "name": "consumed",
          "type": "bool"
        }
      ],
      "payable": false,
      "stateMutability": "view",
      "type": "function"
    },
    {
      "constant": true,
      "inputs": [
        {
          "name": "_tokenId",
          "type": "uint256"
        }
      ],
      "name": "tokenURI",
      "outputs": [
        {
          "name": "",
          "type": "string"
        }
      ],
      "payable": false,
      "stateMutability": "view",
      "type": "function"
    },
    {
      "constant": true,
      "inputs": [],
      "name": "ROLE_FRANCHISE_OWNER",
      "outputs": [
        {
          "name": "",
          "type": "string"
        }
      ],
      "payable": false,
      "stateMutability": "view",
      "type": "function"
    },
    {
      "constant": true,
      "inputs": [
        {
          "name": "",
          "type": "uint256"
        }
      ],
      "name": "shopBalances",
      "outputs": [
        {
          "name": "",
          "type": "uint256"
        }
      ],
      "payable": false,
      "stateMutability": "view",
      "type": "function"
    },
    {
      "constant": true,
      "inputs": [
        {
          "name": "_owner",
          "type": "address"
        },
        {
          "name": "_operator",
          "type": "address"
        }
      ],
      "name": "isApprovedForAll",
      "outputs": [
        {
          "name": "",
          "type": "bool"
        }
      ],
      "payable": false,
      "stateMutability": "view",
      "type": "function"
    },
    {
      "anonymous": false,
      "inputs": [
        {
          "indexed": true,
          "name": "shopId",
          "type": "uint256"
        },
        {
          "indexed": false,
          "name": "skuTypeId",
          "type": "uint256"
        },
        {
          "indexed": false,
          "name": "name",
          "type": "string"
        }
      ],
      "name": "NewSKUType",
      "type": "event"
    },
    {
      "anonymous": false,
      "inputs": [
        {
          "indexed": true,
          "name": "owner",
          "type": "address"
        },
        {
          "indexed": false,
          "name": "shopId",
          "type": "uint256"
        },
        {
          "indexed": false,
          "name": "name",
          "type": "string"
        }
      ],
      "name": "NewShop",
      "type": "event"
    },
    {
      "anonymous": false,
      "inputs": [
        {
          "indexed": false,
          "name": "newContract",
          "type": "address"
        }
      ],
      "name": "ContractUpgrade",
      "type": "event"
    },
    {
      "anonymous": false,
      "inputs": [],
      "name": "ContractPaused",
      "type": "event"
    },
    {
      "anonymous": false,
      "inputs": [],
      "name": "ContractUnpaused",
      "type": "event"
    },
    {
      "anonymous": false,
      "inputs": [
        {
          "indexed": true,
          "name": "_from",
          "type": "address"
        },
        {
          "indexed": true,
          "name": "_to",
          "type": "address"
        },
        {
          "indexed": true,
          "name": "_tokenId",
          "type": "uint256"
        }
      ],
      "name": "Transfer",
      "type": "event"
    },
    {
      "anonymous": false,
      "inputs": [
        {
          "indexed": true,
          "name": "_owner",
          "type": "address"
        },
        {
          "indexed": true,
          "name": "_approved",
          "type": "address"
        },
        {
          "indexed": true,
          "name": "_tokenId",
          "type": "uint256"
        }
      ],
      "name": "Approval",
      "type": "event"
    },
    {
      "anonymous": false,
      "inputs": [
        {
          "indexed": true,
          "name": "_owner",
          "type": "address"
        },
        {
          "indexed": true,
          "name": "_operator",
          "type": "address"
        },
        {
          "indexed": false,
          "name": "_approved",
          "type": "bool"
        }
      ],
      "name": "ApprovalForAll",
      "type": "event"
    },
    {
      "anonymous": false,
      "inputs": [
        {
          "indexed": true,
          "name": "operator",
          "type": "address"
        },
        {
          "indexed": false,
          "name": "role",
          "type": "string"
        }
      ],
      "name": "RoleAdded",
      "type": "event"
    },
    {
      "anonymous": false,
      "inputs": [
        {
          "indexed": true,
          "name": "operator",
          "type": "address"
        },
        {
          "indexed": false,
          "name": "role",
          "type": "string"
        }
      ],
      "name": "RoleRemoved",
      "type": "event"
    },
    {
      "constant": false,
      "inputs": [
        {
          "name": "_shopId",
          "type": "uint256"
        },
        {
          "name": "_name",
          "type": "string"
        },
        {
          "name": "_desc",
          "type": "string"
        }
      ],
      "name": "createSKUType",
      "outputs": [
        {
          "name": "",
          "type": "uint256"
        }
      ],
      "payable": false,
      "stateMutability": "nonpayable",
      "type": "function"
    },
    {
      "constant": true,
      "inputs": [
        {
          "name": "_skuTypeId",
          "type": "uint256"
        }
      ],
      "name": "getSKUTypeSKUCount",
      "outputs": [
        {
          "name": "",
          "type": "uint256"
        }
      ],
      "payable": false,
      "stateMutability": "view",
      "type": "function"
    },
    {
      "constant": true,
      "inputs": [
        {
          "name": "_shopId",
          "type": "uint256"
        }
      ],
      "name": "getSKUTypeIds",
      "outputs": [
        {
          "name": "",
          "type": "uint256[]"
        }
      ],
      "payable": false,
      "stateMutability": "view",
      "type": "function"
    },
    {
      "constant": true,
      "inputs": [
        {
          "name": "_skuTypeId",
          "type": "uint256"
        }
      ],
      "name": "getSKUType",
      "outputs": [
        {
          "name": "",
          "type": "uint256"
        },
        {
          "name": "",
          "type": "uint256"
        },
        {
          "name": "",
          "type": "string"
        },
        {
          "name": "",
          "type": "string"
        }
      ],
      "payable": false,
      "stateMutability": "view",
      "type": "function"
    }
  ],
  "bytecode": "0x60806040526000602060006101000a81548160ff0219169083151502179055506040805190810160405280601081526020017f496e41707050726f53686f704974656d000000000000000000000000000000008152506040805190810160405280600481526020017f4941505300000000000000000000000000000000000000000000000000000000815250620000c86301ffc9a77c010000000000000000000000000000000000000000000000000000000002620002b1640100000000026401000000009004565b620001056380ac58cd7c010000000000000000000000000000000000000000000000000000000002620002b1640100000000026401000000009004565b62000142634f558e797c010000000000000000000000000000000000000000000000000000000002620002b1640100000000026401000000009004565b81600690805190602001906200015a92919062000516565b5080600790805190602001906200017392919062000516565b50620001b163780e9d637c010000000000000000000000000000000000000000000000000000000002620002b1640100000000026401000000009004565b620001ee635b5e139f7c010000000000000000000000000000000000000000000000000000000002620002b1640100000000026401000000009004565b50506001602060006101000a81548160ff0219169083151502179055506200025b336040805190810160405280601181526020017f726f6c652f73797374656d2d61646d696e0000000000000000000000000000008152506200036f640100000000026401000000009004565b620002ab336040805190810160405280601481526020017f726f6c652f6672616e63686973652d6f776e65720000000000000000000000008152506200036f640100000000026401000000009004565b620005c5565b63ffffffff7c010000000000000000000000000000000000000000000000000000000002817bffffffffffffffffffffffffffffffffffffffffffffffffffffffff1916141515156200030357600080fd5b6001806000837bffffffffffffffffffffffffffffffffffffffffffffffffffffffff19167bffffffffffffffffffffffffffffffffffffffffffffffffffffffff1916815260200190815260200160002060006101000a81548160ff02191690831515021790555050565b620003fe826000836040518082805190602001908083835b602083101515620003ae578051825260208201915060208101905060208303925062000387565b6001836020036101000a0380198251168184511680821785525050505050509050019150509081526020016040518091039020620004b86401000000000262004771179091906401000000009004565b8173ffffffffffffffffffffffffffffffffffffffff167fbfec83d64eaa953f2708271a023ab9ee82057f8f3578d548c1a4ba0b5b700489826040518080602001828103825283818151815260200191508051906020019080838360005b83811015620004795780820151818401526020810190506200045c565b50505050905090810190601f168015620004a75780820380516001836020036101000a031916815260200191505b509250505060405180910390a25050565b60018260000160008373ffffffffffffffffffffffffffffffffffffffff1673ffffffffffffffffffffffffffffffffffffffff16815260200190815260200160002060006101000a81548160ff0219169083151502179055505050565b828054600181600116156101000203166002900490600052602060002090601f016020900481019282601f106200055957805160ff19168380011785556200058a565b828001600101855582156200058a579182015b82811115620005895782518255916020019190600101906200056c565b5b5090506200059991906200059d565b5090565b620005c291905b80821115620005be576000816000905550600101620005a4565b5090565b90565b61492480620005d56000396000f30060806040526004361061029e576000357c0100000000000000000000000000000000000000000000000000000000900463ffffffff16806301ba7539146102a357806301ffc9a7146102ee57806306fdde0314610352578063081812fc146103e2578063095ea7b31461044f5780630988ca8c1461049c57806318160ddd146105255780631882140014610550578063199f0b17146105e057806319fa8f50146106785780631a4d96cd146106e1578063217fe6c61461074e57806323b872dd146107ef57806327bcfd611461085c5780632a905318146108a75780632cf0d92a146109375780632f745c59146109a457806335007f0e14610a055780633632929414610b505780633f4ba83a14610b915780633fbe2c5514610ba857806342842e0e14610c2a5780634284653414610c9757806345b727f314610cf8578063477e2b3c14610e44578063488d136e14610e6f5780634b2aecdc14610f3c5780634f558e7914610f675780634f6ccce714610fac57806351b4fc7e14610fed578063531e005b1461104e57806356de8ccd1461116e5780635c975abb146111fe5780635ded461a1461122d5780636352211e146112785780636af04a57146112e557806370a082311461133c578063713aca741461139357806371587988146114df5780637ceab6b0146115225780637e1ae9761461156d5780638456cb59146115fd5780638ae7f10514611614578063910339401461173457806394eccbbf1461177f57806395d89b41146117c0578063a22cb46514611850578063a9cb6d731461189f578063b4abc381146118e0578063b88d4fde146119a3578063bfb231d214611a56578063c87b56dd14611aea578063cb1b200114611b90578063e659ebef14611c20578063e985e9c514611c61578063f6faa78b14611cdc575b600080fd5b3480156102af57600080fd5b506102d86004803603810190808035906020019092919080359060200190929190505050611d1d565b6040518082815260200191505060405180910390f35b3480156102fa57600080fd5b5061033860048036038101908080357bffffffffffffffffffffffffffffffffffffffffffffffffffffffff19169060200190929190505050611d4d565b604051808215151515815260200191505060405180910390f35b34801561035e57600080fd5b50610367611db5565b6040518080602001828103825283818151815260200191508051906020019080838360005b838110156103a757808201518184015260208101905061038c565b50505050905090810190601f1680156103d45780820380516001836020036101000a031916815260200191505b509250505060405180910390f35b3480156103ee57600080fd5b5061040d60048036038101908080359060200190929190505050611e57565b604051808273ffffffffffffffffffffffffffffffffffffffff1673ffffffffffffffffffffffffffffffffffffffff16815260200191505060405180910390f35b34801561045b57600080fd5b5061049a600480360381019080803573ffffffffffffffffffffffffffffffffffffffff16906020019092919080359060200190929190505050611e94565b005b3480156104a857600080fd5b50610523600480360381019080803573ffffffffffffffffffffffffffffffffffffffff169060200190929190803590602001908201803590602001908080601f0160208091040260200160405190810160405280939291908181526020018383808284378201915050505050509192919290505050611fd9565b005b34801561053157600080fd5b5061053a61205a565b6040518082815260200191505060405180910390f35b34801561055c57600080fd5b50610565612067565b6040518080602001828103825283818151815260200191508051906020019080838360005b838110156105a557808201518184015260208101905061058a565b50505050905090810190601f1680156105d25780820380516001836020036101000a031916815260200191505b509250505060405180910390f35b3480156105ec57600080fd5b50610621600480360381019080803573ffffffffffffffffffffffffffffffffffffffff1690602001909291905050506120a0565b6040518080602001828103825283818151815260200191508051906020019060200280838360005b83811015610664578082015181840152602081019050610649565b505050509050019250505060405180910390f35b34801561068457600080fd5b5061068d612137565b60405180827bffffffffffffffffffffffffffffffffffffffffffffffffffffffff19167bffffffffffffffffffffffffffffffffffffffffffffffffffffffff1916815260200191505060405180910390f35b3480156106ed57600080fd5b5061070c6004803603810190808035906020019092919050505061215e565b604051808273ffffffffffffffffffffffffffffffffffffffff1673ffffffffffffffffffffffffffffffffffffffff16815260200191505060405180910390f35b34801561075a57600080fd5b506107d5600480360381019080803573ffffffffffffffffffffffffffffffffffffffff169060200190929190803590602001908201803590602001908080601f0160208091040260200160405190810160405280939291908181526020018383808284378201915050505050509192919290505050612191565b604051808215151515815260200191505060405180910390f35b3480156107fb57600080fd5b5061085a600480360381019080803573ffffffffffffffffffffffffffffffffffffffff169060200190929190803573ffffffffffffffffffffffffffffffffffffffff16906020019092919080359060200190929190505050612218565b005b34801561086857600080fd5b506108916004803603810190808035906020019092919080359060200190929190505050612325565b6040518082815260200191505060405180910390f35b3480156108b357600080fd5b506108bc612355565b6040518080602001828103825283818151815260200191508051906020019080838360005b838110156108fc5780820151818401526020810190506108e1565b50505050905090810190601f1680156109295780820380516001836020036101000a031916815260200191505b509250505060405180910390f35b34801561094357600080fd5b506109626004803603810190808035906020019092919050505061238e565b604051808273ffffffffffffffffffffffffffffffffffffffff1673ffffffffffffffffffffffffffffffffffffffff16815260200191505060405180910390f35b3480156109b057600080fd5b506109ef600480360381019080803573ffffffffffffffffffffffffffffffffffffffff169060200190929190803590602001909291905050506123c1565b6040518082815260200191505060405180910390f35b348015610a1157600080fd5b50610a3060048036038101908080359060200190929190505050612438565b604051808a815260200189815260200188815260200187815260200180602001806020018615151515815260200185151515158152602001848152602001838103835288818151815260200191508051906020019080838360005b83811015610aa6578082015181840152602081019050610a8b565b50505050905090810190601f168015610ad35780820380516001836020036101000a031916815260200191505b50838103825287818151815260200191508051906020019080838360005b83811015610b0c578082015181840152602081019050610af1565b50505050905090810190601f168015610b395780820380516001836020036101000a031916815260200191505b509b50505050505050505050505060405180910390f35b348015610b5c57600080fd5b50610b7b600480360381019080803590602001909291905050506125df565b6040518082815260200191505060405180910390f35b348015610b9d57600080fd5b50610ba66125f7565b005b348015610bb457600080fd5b50610bd36004803603810190808035906020019092919050505061269a565b6040518080602001828103825283818151815260200191508051906020019060200280838360005b83811015610c16578082015181840152602081019050610bfb565b505050509050019250505060405180910390f35b348015610c3657600080fd5b50610c95600480360381019080803573ffffffffffffffffffffffffffffffffffffffff169060200190929190803573ffffffffffffffffffffffffffffffffffffffff16906020019092919080359060200190929190505050612705565b005b348015610ca357600080fd5b50610ce2600480360381019080803573ffffffffffffffffffffffffffffffffffffffff1690602001909291908035906020019092919050505061273d565b6040518082815260200191505060405180910390f35b348015610d0457600080fd5b50610d236004803603810190808035906020019092919050505061276d565b604051808573ffffffffffffffffffffffffffffffffffffffff1673ffffffffffffffffffffffffffffffffffffffff1681526020018481526020018060200180602001838103835285818151815260200191508051906020019080838360005b83811015610d9f578082015181840152602081019050610d84565b50505050905090810190601f168015610dcc5780820380516001836020036101000a031916815260200191505b50838103825284818151815260200191508051906020019080838360005b83811015610e05578082015181840152602081019050610dea565b50505050905090810190601f168015610e325780820380516001836020036101000a031916815260200191505b50965050505050505060405180910390f35b348015610e5057600080fd5b50610e59612970565b6040518082815260200191505060405180910390f35b348015610e7b57600080fd5b50610f2660048036038101908080359060200190929190803590602001908201803590602001908080601f0160208091040260200160405190810160405280939291908181526020018383808284378201915050505050509192919290803590602001908201803590602001908080601f0160208091040260200160405190810160405280939291908181526020018383808284378201915050505050509192919290505050612976565b6040518082815260200191505060405180910390f35b348015610f4857600080fd5b50610f51612b9b565b6040518082815260200191505060405180910390f35b348015610f7357600080fd5b50610f9260048036038101908080359060200190929190505050612ba1565b604051808215151515815260200191505060405180910390f35b348015610fb857600080fd5b50610fd760048036038101908080359060200190929190505050612c13565b6040518082815260200191505060405180910390f35b348015610ff957600080fd5b50611038600480360381019080803573ffffffffffffffffffffffffffffffffffffffff16906020019092919080359060200190929190505050612c4b565b6040518082815260200191505060405180910390f35b34801561105a57600080fd5b5061107960048036038101908080359060200190929190505050612c7b565b604051808581526020018481526020018060200180602001838103835285818151815260200191508051906020019080838360005b838110156110c95780820151818401526020810190506110ae565b50505050905090810190601f1680156110f65780820380516001836020036101000a031916815260200191505b50838103825284818151815260200191508051906020019080838360005b8381101561112f578082015181840152602081019050611114565b50505050905090810190601f16801561115c5780820380516001836020036101000a031916815260200191505b50965050505050505060405180910390f35b34801561117a57600080fd5b50611183612dea565b6040518080602001828103825283818151815260200191508051906020019080838360005b838110156111c35780820151818401526020810190506111a8565b50505050905090810190601f1680156111f05780820380516001836020036101000a031916815260200191505b509250505060405180910390f35b34801561120a57600080fd5b50611213612e23565b604051808215151515815260200191505060405180910390f35b34801561123957600080fd5b506112626004803603810190808035906020019092919080359060200190929190505050612e36565b6040518082815260200191505060405180910390f35b34801561128457600080fd5b506112a360048036038101908080359060200190929190505050612e66565b604051808273ffffffffffffffffffffffffffffffffffffffff1673ffffffffffffffffffffffffffffffffffffffff16815260200191505060405180910390f35b3480156112f157600080fd5b506112fa612ee4565b604051808273ffffffffffffffffffffffffffffffffffffffff1673ffffffffffffffffffffffffffffffffffffffff16815260200191505060405180910390f35b34801561134857600080fd5b5061137d600480360381019080803573ffffffffffffffffffffffffffffffffffffffff169060200190929190505050612f0a565b6040518082815260200191505060405180910390f35b34801561139f57600080fd5b506113be60048036038101908080359060200190929190505050612f8e565b604051808573ffffffffffffffffffffffffffffffffffffffff1673ffffffffffffffffffffffffffffffffffffffff1681526020018481526020018060200180602001838103835285818151815260200191508051906020019080838360005b8381101561143a57808201518184015260208101905061141f565b50505050905090810190601f1680156114675780820380516001836020036101000a031916815260200191505b50838103825284818151815260200191508051906020019080838360005b838110156114a0578082015181840152602081019050611485565b50505050905090810190601f1680156114cd5780820380516001836020036101000a031916815260200191505b50965050505050505060405180910390f35b3480156114eb57600080fd5b50611520600480360381019080803573ffffffffffffffffffffffffffffffffffffffff16906020019092919050505061311d565b005b34801561152e57600080fd5b50611557600480360381019080803590602001909291908035906020019092919050505061321e565b6040518082815260200191505060405180910390f35b34801561157957600080fd5b5061158261324e565b6040518080602001828103825283818151815260200191508051906020019080838360005b838110156115c25780820151818401526020810190506115a7565b50505050905090810190601f1680156115ef5780820380516001836020036101000a031916815260200191505b509250505060405180910390f35b34801561160957600080fd5b50611612613287565b005b34801561162057600080fd5b5061163f6004803603810190808035906020019092919050505061332b565b604051808581526020018481526020018060200180602001838103835285818151815260200191508051906020019080838360005b8381101561168f578082015181840152602081019050611674565b50505050905090810190601f1680156116bc5780820380516001836020036101000a031916815260200191505b50838103825284818151815260200191508051906020019080838360005b838110156116f55780820151818401526020810190506116da565b50505050905090810190601f1680156117225780820380516001836020036101000a031916815260200191505b50965050505050505060405180910390f35b34801561174057600080fd5b5061176960048036038101908080359060200190929190803590602001909291905050506134fa565b6040518082815260200191505060405180910390f35b34801561178b57600080fd5b506117aa6004803603810190808035906020019092919050505061352a565b6040518082815260200191505060405180910390f35b3480156117cc57600080fd5b506117d5613542565b6040518080602001828103825283818151815260200191508051906020019080838360005b838110156118155780820151818401526020810190506117fa565b50505050905090810190601f1680156118425780820380516001836020036101000a031916815260200191505b509250505060405180910390f35b34801561185c57600080fd5b5061189d600480360381019080803573ffffffffffffffffffffffffffffffffffffffff1690602001909291908035151590602001909291905050506135e4565b005b3480156118ab57600080fd5b506118ca60048036038101908080359060200190929190505050613720565b6040518082815260200191505060405180910390f35b3480156118ec57600080fd5b5061198d600480360381019080803590602001908201803590602001908080601f0160208091040260200160405190810160405280939291908181526020018383808284378201915050505050509192919290803590602001908201803590602001908080601f0160208091040260200160405190810160405280939291908181526020018383808284378201915050505050509192919290505050613738565b6040518082815260200191505060405180910390f35b3480156119af57600080fd5b50611a54600480360381019080803573ffffffffffffffffffffffffffffffffffffffff169060200190929190803573ffffffffffffffffffffffffffffffffffffffff16906020019092919080359060200190929190803590602001908201803590602001908080601f01602080910402602001604051908101604052809392919081815260200183838082843782019150505050505091929192905050506139fb565b005b348015611a6257600080fd5b50611a8160048036038101908080359060200190929190505050613a3a565b604051808773ffffffffffffffffffffffffffffffffffffffff1673ffffffffffffffffffffffffffffffffffffffff16815260200186815260200185815260200184815260200183815260200182151515158152602001965050505050505060405180910390f35b348015611af657600080fd5b50611b1560048036038101908080359060200190929190505050613ab2565b6040518080602001828103825283818151815260200191508051906020019080838360005b83811015611b55578082015181840152602081019050611b3a565b50505050905090810190601f168015611b825780820380516001836020036101000a031916815260200191505b509250505060405180910390f35b348015611b9c57600080fd5b50611ba5613b7b565b6040518080602001828103825283818151815260200191508051906020019080838360005b83811015611be5578082015181840152602081019050611bca565b50505050905090810190601f168015611c125780820380516001836020036101000a031916815260200191505b509250505060405180910390f35b348015611c2c57600080fd5b50611c4b60048036038101908080359060200190929190505050613bb4565b6040518082815260200191505060405180910390f35b348015611c6d57600080fd5b50611cc2600480360381019080803573ffffffffffffffffffffffffffffffffffffffff169060200190929190803573ffffffffffffffffffffffffffffffffffffffff169060200190929190505050613bcc565b604051808215151515815260200191505060405180910390f35b348015611ce857600080fd5b50611d0760048036038101908080359060200190929190505050613c60565b6040518082815260200191505060405180910390f35b601660205281600052604060002081815481101515611d3857fe5b90600052602060002001600091509150505481565b600060016000837bffffffffffffffffffffffffffffffffffffffffffffffffffffffff19167bffffffffffffffffffffffffffffffffffffffffffffffffffffffff1916815260200190815260200160002060009054906101000a900460ff169050919050565b606060068054600181600116156101000203166002900480601f016020809104026020016040519081016040528092919081815260200182805460018160011615610100020316600290048015611e4d5780601f10611e2257610100808354040283529160200191611e4d565b820191906000526020600020905b815481529060010190602001808311611e3057829003601f168201915b5050505050905090565b60006003600083815260200190815260200160002060009054906101000a900473ffffffffffffffffffffffffffffffffffffffff169050919050565b6000611e9f82612e66565b90508073ffffffffffffffffffffffffffffffffffffffff168373ffffffffffffffffffffffffffffffffffffffff1614151515611edc57600080fd5b8073ffffffffffffffffffffffffffffffffffffffff163373ffffffffffffffffffffffffffffffffffffffff161480611f1c5750611f1b8133613bcc565b5b1515611f2757600080fd5b826003600084815260200190815260200160002060006101000a81548173ffffffffffffffffffffffffffffffffffffffff021916908373ffffffffffffffffffffffffffffffffffffffff160217905550818373ffffffffffffffffffffffffffffffffffffffff168273ffffffffffffffffffffffffffffffffffffffff167f8c5be1e5ebec7d5bd14f71427d1e84f3dd0314c0f7b2291e5b200ac8c7c3b92560405160405180910390a4505050565b612056826000836040518082805190602001908083835b6020831015156120155780518252602082019150602081019050602083039250611ff0565b6001836020036101000a0380198251168184511680821785525050505050509050019150509081526020016040518091039020613c8090919063ffffffff16565b5050565b6000600a80549050905090565b6040805190810160405280601081526020017f496e41707050726f53686f704974656d0000000000000000000000000000000081525081565b6060601460008373ffffffffffffffffffffffffffffffffffffffff1673ffffffffffffffffffffffffffffffffffffffff16815260200190815260200160002080548060200260200160405190810160405280929190818152602001828054801561212b57602002820191906000526020600020905b815481526020019060010190808311612117575b50505050509050919050565b6301ffc9a77c01000000000000000000000000000000000000000000000000000000000281565b601d6020528060005260406000206000915054906101000a900473ffffffffffffffffffffffffffffffffffffffff1681565b6000612210836000846040518082805190602001908083835b6020831015156121cf57805182526020820191506020810190506020830392506121aa565b6001836020036101000a0380198251168184511680821785525050505050509050019150509081526020016040518091039020613c9990919063ffffffff16565b905092915050565b806122233382613cf2565b151561222e57600080fd5b600073ffffffffffffffffffffffffffffffffffffffff168473ffffffffffffffffffffffffffffffffffffffff161415151561226a57600080fd5b600073ffffffffffffffffffffffffffffffffffffffff168373ffffffffffffffffffffffffffffffffffffffff16141515156122a657600080fd5b6122b08483613d87565b6122ba8483613e8a565b6122c483836140a2565b818373ffffffffffffffffffffffffffffffffffffffff168573ffffffffffffffffffffffffffffffffffffffff167fddf252ad1be2c89b69c2b068fc378daa952ba7f163c4a11628f55a4df523b3ef60405160405180910390a450505050565b601a6020528160005260406000208181548110151561234057fe5b90600052602060002001600091509150505481565b6040805190810160405280600481526020017f494150530000000000000000000000000000000000000000000000000000000081525081565b60136020528060005260406000206000915054906101000a900473ffffffffffffffffffffffffffffffffffffffff1681565b60006123cc83612f0a565b821015156123d957600080fd5b600860008473ffffffffffffffffffffffffffffffffffffffff1673ffffffffffffffffffffffffffffffffffffffff1681526020019081526020016000208281548110151561242557fe5b9060005260206000200154905092915050565b600f8181548110151561244757fe5b9060005260206000209060080201600091509050806000015490806001015490806002015490806003015490806004018054600181600116156101000203166002900480601f01602080910402602001604051908101604052809291908181526020018280546001816001161561010002031660029004801561250b5780601f106124e05761010080835404028352916020019161250b565b820191906000526020600020905b8154815290600101906020018083116124ee57829003601f168201915b505050505090806005018054600181600116156101000203166002900480601f0160208091040260200160405190810160405280929190818152602001828054600181600116156101000203166002900480156125a95780601f1061257e576101008083540402835291602001916125a9565b820191906000526020600020905b81548152906001019060200180831161258c57829003601f168201915b5050505050908060060160009054906101000a900460ff16908060060160019054906101000a900460ff16908060070154905089565b60156020528060005260406000206000915090505481565b612636336040805190810160405280601181526020017f726f6c652f73797374656d2d61646d696e000000000000000000000000000000815250611fd9565b602060009054906101000a900460ff16151561265157600080fd5b6000602060006101000a81548160ff0219169083151502179055507f0e5e3b3fb504c22cf5c42fa07d521225937514c654007e1f12646f89768d6f9460405160405180910390a1565b6060601660008381526020019081526020016000208054806020026020016040519081016040528092919081815260200182805480156126f957602002820191906000526020600020905b8154815260200190600101908083116126e5575b50505050509050919050565b806127103382613cf2565b151561271b57600080fd5b61273784848460206040519081016040528060008152506139fb565b50505050565b601c6020528160005260406000208181548110151561275857fe5b90600052602060002001600091509150505481565b600080606080600d80549050851115151561278757600080fd5b600d8581548110151561279657fe5b906000526020600020906004020160000160009054906101000a900473ffffffffffffffffffffffffffffffffffffffff16600d868154811015156127d757fe5b906000526020600020906004020160010154600d878154811015156127f857fe5b9060005260206000209060040201600201600d8881548110151561281857fe5b9060005260206000209060040201600301818054600181600116156101000203166002900480601f0160208091040260200160405190810160405280929190818152602001828054600181600116156101000203166002900480156128be5780601f10612893576101008083540402835291602001916128be565b820191906000526020600020905b8154815290600101906020018083116128a157829003601f168201915b50505050509150808054600181600116156101000203166002900480601f01602080910402602001604051908101604052809291908181526020018280546001816001161561010002031660029004801561295a5780601f1061292f5761010080835404028352916020019161295a565b820191906000526020600020905b81548152906001019060200180831161293d57829003601f168201915b5050505050905093509350935093509193509193565b60115481565b6000808460006013600083815260200190815260200160002060009054906101000a900473ffffffffffffffffffffffffffffffffffffffff1690508073ffffffffffffffffffffffffffffffffffffffff163373ffffffffffffffffffffffffffffffffffffffff161415156129ec57600080fd5b600e805490509250600e608060405190810160405280898152602001858152602001888152602001878152509080600181540180825580915050906001820390600052602060002090600402016000909192909190915060008201518160000155602082015181600101556040820151816002019080519060200190612a739291906147fe565b506060820151816003019080519060200190612a909291906147fe565b5050505086601560008581526020019081526020016000208190555060166000888152602001908152602001600020839080600181540180825580915050906001820390600052602060002001600090919290919091505550867f984e9c57bf3c704c112a30dea33416efd7969f90a14a69b9cb3842db1fdb5c7a84886040518083815260200180602001828103825283818151815260200191508051906020019080838360005b83811015612b53578082015181840152602081019050612b38565b50505050905090810190601f168015612b805780820380516001836020036101000a031916815260200191505b50935050505060405180910390a28293505050509392505050565b60125481565b6000806002600084815260200190815260200160002060009054906101000a900473ffffffffffffffffffffffffffffffffffffffff169050600073ffffffffffffffffffffffffffffffffffffffff168173ffffffffffffffffffffffffffffffffffffffff161415915050919050565b6000612c1d61205a565b82101515612c2a57600080fd5b600a82815481101515612c3957fe5b90600052602060002001549050919050565b601460205281600052604060002081815481101515612c6657fe5b90600052602060002001600091509150505481565b600e81815481101515612c8a57fe5b9060005260206000209060040201600091509050806000015490806001015490806002018054600181600116156101000203166002900480601f016020809104026020016040519081016040528092919081815260200182805460018160011615610100020316600290048015612d425780601f10612d1757610100808354040283529160200191612d42565b820191906000526020600020905b815481529060010190602001808311612d2557829003601f168201915b505050505090806003018054600181600116156101000203166002900480601f016020809104026020016040519081016040528092919081815260200182805460018160011615610100020316600290048015612de05780601f10612db557610100808354040283529160200191612de0565b820191906000526020600020905b815481529060010190602001808311612dc357829003601f168201915b5050505050905084565b6040805190810160405280601181526020017f726f6c652f73797374656d2d61646d696e00000000000000000000000000000081525081565b602060009054906101000a900460ff1681565b601860205281600052604060002081815481101515612e5157fe5b90600052602060002001600091509150505481565b6000806002600084815260200190815260200160002060009054906101000a900473ffffffffffffffffffffffffffffffffffffffff169050600073ffffffffffffffffffffffffffffffffffffffff168173ffffffffffffffffffffffffffffffffffffffff1614151515612edb57600080fd5b80915050919050565b602060019054906101000a900473ffffffffffffffffffffffffffffffffffffffff1681565b60008073ffffffffffffffffffffffffffffffffffffffff168273ffffffffffffffffffffffffffffffffffffffff1614151515612f4757600080fd5b600460008373ffffffffffffffffffffffffffffffffffffffff1673ffffffffffffffffffffffffffffffffffffffff168152602001908152602001600020549050919050565b600d81815481101515612f9d57fe5b90600052602060002090600402016000915090508060000160009054906101000a900473ffffffffffffffffffffffffffffffffffffffff1690806001015490806002018054600181600116156101000203166002900480601f0160208091040260200160405190810160405280929190818152602001828054600181600116156101000203166002900480156130755780601f1061304a57610100808354040283529160200191613075565b820191906000526020600020905b81548152906001019060200180831161305857829003601f168201915b505050505090806003018054600181600116156101000203166002900480601f0160208091040260200160405190810160405280929190818152602001828054600181600116156101000203166002900480156131135780601f106130e857610100808354040283529160200191613113565b820191906000526020600020905b8154815290600101906020018083116130f657829003601f168201915b5050505050905084565b61315c336040805190810160405280601181526020017f726f6c652f73797374656d2d61646d696e000000000000000000000000000000815250611fd9565b602060009054906101000a900460ff16151561317757600080fd5b80602060016101000a81548173ffffffffffffffffffffffffffffffffffffffff021916908373ffffffffffffffffffffffffffffffffffffffff1602179055507f450db8da6efbe9c22f2347f7c2021231df1fc58d3ae9a2fa75d39fa44619930581604051808273ffffffffffffffffffffffffffffffffffffffff1673ffffffffffffffffffffffffffffffffffffffff16815260200191505060405180910390a150565b601e6020528160005260406000208181548110151561323957fe5b90600052602060002001600091509150505481565b6040805190810160405280600f81526020017f726f6c652f73686f702d6f776e6572000000000000000000000000000000000081525081565b6132c6336040805190810160405280601181526020017f726f6c652f73797374656d2d61646d696e000000000000000000000000000000815250611fd9565b602060009054906101000a900460ff161515156132e257600080fd5b6001602060006101000a81548160ff0219169083151502179055507fab35696f06e428ebc5ceba8cd17f8fed287baf43440206d1943af1ee53e6d26760405160405180910390a1565b60008060608061333961487e565b600e80549050861115151561334d57600080fd5b600e8681548110151561335c57fe5b9060005260206000209060040201608060405190810160405290816000820154815260200160018201548152602001600282018054600181600116156101000203166002900480601f0160208091040260200160405190810160405280929190818152602001828054600181600116156101000203166002900480156134235780601f106133f857610100808354040283529160200191613423565b820191906000526020600020905b81548152906001019060200180831161340657829003601f168201915b50505050508152602001600382018054600181600116156101000203166002900480601f0160208091040260200160405190810160405280929190818152602001828054600181600116156101000203166002900480156134c55780601f1061349a576101008083540402835291602001916134c5565b820191906000526020600020905b8154815290600101906020018083116134a857829003601f168201915b505050505081525050905080600001518160200151826040015183606001518191508090509450945094509450509193509193565b60196020528160005260406000208181548110151561351557fe5b90600052602060002001600091509150505481565b60176020528060005260406000206000915090505481565b606060078054600181600116156101000203166002900480601f0160208091040260200160405190810160405280929190818152602001828054600181600116156101000203166002900480156135da5780601f106135af576101008083540402835291602001916135da565b820191906000526020600020905b8154815290600101906020018083116135bd57829003601f168201915b5050505050905090565b3373ffffffffffffffffffffffffffffffffffffffff168273ffffffffffffffffffffffffffffffffffffffff161415151561361f57600080fd5b80600560003373ffffffffffffffffffffffffffffffffffffffff1673ffffffffffffffffffffffffffffffffffffffff16815260200190815260200160002060008473ffffffffffffffffffffffffffffffffffffffff1673ffffffffffffffffffffffffffffffffffffffff16815260200190815260200160002060006101000a81548160ff0219169083151502179055508173ffffffffffffffffffffffffffffffffffffffff163373ffffffffffffffffffffffffffffffffffffffff167f17307eab39ab6107e8899845ad3d59bd9653f200f220920489ca2b5937696c3183604051808215151515815260200191505060405180910390a35050565b601b6020528060005260406000206000915090505481565b6000806000600d805490509150339050600d6080604051908101604052808373ffffffffffffffffffffffffffffffffffffffff168152602001848152602001878152602001868152509080600181540180825580915050906001820390600052602060002090600402016000909192909190915060008201518160000160006101000a81548173ffffffffffffffffffffffffffffffffffffffff021916908373ffffffffffffffffffffffffffffffffffffffff16021790555060208201518160010155604082015181600201908051906020019061381a9291906147fe565b5060608201518160030190805190602001906138379291906147fe565b50505050806013600084815260200190815260200160002060006101000a81548173ffffffffffffffffffffffffffffffffffffffff021916908373ffffffffffffffffffffffffffffffffffffffff160217905550601460008273ffffffffffffffffffffffffffffffffffffffff1673ffffffffffffffffffffffffffffffffffffffff168152602001908152602001600020829080600181540180825580915050906001820390600052602060002001600090919290919091505550613935816040805190810160405280600f81526020017f726f6c652f73686f702d6f776e65720000000000000000000000000000000000815250614179565b8073ffffffffffffffffffffffffffffffffffffffff167f6483fc0067ba37ac182934414561e6a0483fe2c28473508471330bc69afee81783876040518083815260200180602001828103825283818151815260200191508051906020019080838360005b838110156139b557808201518184015260208101905061399a565b50505050905090810190601f1680156139e25780820380516001836020036101000a031916815260200191505b50935050505060405180910390a2819250505092915050565b81613a063382613cf2565b1515613a1157600080fd5b613a1c858585612218565b613a28858585856142ad565b1515613a3357600080fd5b5050505050565b601081815481101515613a4957fe5b90600052602060002090600602016000915090508060000160009054906101000a900473ffffffffffffffffffffffffffffffffffffffff16908060010154908060020154908060030154908060040154908060050160009054906101000a900460ff16905086565b6060613abd82612ba1565b1515613ac857600080fd5b600c60008381526020019081526020016000208054600181600116156101000203166002900480601f016020809104026020016040519081016040528092919081815260200182805460018160011615610100020316600290048015613b6f5780601f10613b4457610100808354040283529160200191613b6f565b820191906000526020600020905b815481529060010190602001808311613b5257829003601f168201915b50505050509050919050565b6040805190810160405280601481526020017f726f6c652f6672616e63686973652d6f776e657200000000000000000000000081525081565b601f6020528060005260406000206000915090505481565b6000600560008473ffffffffffffffffffffffffffffffffffffffff1673ffffffffffffffffffffffffffffffffffffffff16815260200190815260200160002060008373ffffffffffffffffffffffffffffffffffffffff1673ffffffffffffffffffffffffffffffffffffffff16815260200190815260200160002060009054906101000a900460ff16905092915050565b600060186000838152602001908152602001600020805490509050919050565b613c8a8282613c99565b1515613c9557600080fd5b5050565b60008260000160008373ffffffffffffffffffffffffffffffffffffffff1673ffffffffffffffffffffffffffffffffffffffff16815260200190815260200160002060009054906101000a900460ff16905092915050565b600080613cfe83612e66565b90508073ffffffffffffffffffffffffffffffffffffffff168473ffffffffffffffffffffffffffffffffffffffff161480613d6d57508373ffffffffffffffffffffffffffffffffffffffff16613d5584611e57565b73ffffffffffffffffffffffffffffffffffffffff16145b80613d7e5750613d7d8185613bcc565b5b91505092915050565b8173ffffffffffffffffffffffffffffffffffffffff16613da782612e66565b73ffffffffffffffffffffffffffffffffffffffff16141515613dc957600080fd5b600073ffffffffffffffffffffffffffffffffffffffff166003600083815260200190815260200160002060009054906101000a900473ffffffffffffffffffffffffffffffffffffffff1673ffffffffffffffffffffffffffffffffffffffff16141515613e865760006003600083815260200190815260200160002060006101000a81548173ffffffffffffffffffffffffffffffffffffffff021916908373ffffffffffffffffffffffffffffffffffffffff1602179055505b5050565b6000806000613e9985856144cf565b60096000858152602001908152602001600020549250613f056001600860008873ffffffffffffffffffffffffffffffffffffffff1673ffffffffffffffffffffffffffffffffffffffff168152602001908152602001600020805490506145fe90919063ffffffff16565b9150600860008673ffffffffffffffffffffffffffffffffffffffff1673ffffffffffffffffffffffffffffffffffffffff16815260200190815260200160002082815481101515613f5357fe5b9060005260206000200154905080600860008773ffffffffffffffffffffffffffffffffffffffff1673ffffffffffffffffffffffffffffffffffffffff16815260200190815260200160002084815481101515613fad57fe5b90600052602060002001819055506000600860008773ffffffffffffffffffffffffffffffffffffffff1673ffffffffffffffffffffffffffffffffffffffff1681526020019081526020016000208381548110151561400957fe5b9060005260206000200181905550600860008673ffffffffffffffffffffffffffffffffffffffff1673ffffffffffffffffffffffffffffffffffffffff16815260200190815260200160002080548091906001900361406991906148a7565b50600060096000868152602001908152602001600020819055508260096000838152602001908152602001600020819055505050505050565b60006140ae8383614617565b600860008473ffffffffffffffffffffffffffffffffffffffff1673ffffffffffffffffffffffffffffffffffffffff168152602001908152602001600020805490509050600860008473ffffffffffffffffffffffffffffffffffffffff1673ffffffffffffffffffffffffffffffffffffffff168152602001908152602001600020829080600181540180825580915050906001820390600052602060002001600090919290919091505550806009600084815260200190815260200160002081905550505050565b6141f6826000836040518082805190602001908083835b6020831015156141b55780518252602082019150602081019050602083039250614190565b6001836020036101000a038019825116818451168082178552505050505050905001915050908152602001604051809103902061477190919063ffffffff16565b8173ffffffffffffffffffffffffffffffffffffffff167fbfec83d64eaa953f2708271a023ab9ee82057f8f3578d548c1a4ba0b5b700489826040518080602001828103825283818151815260200191508051906020019080838360005b8381101561426f578082015181840152602081019050614254565b50505050905090810190601f16801561429c5780820380516001836020036101000a031916815260200191505b509250505060405180910390a25050565b6000806142cf8573ffffffffffffffffffffffffffffffffffffffff166147cf565b15156142de57600191506144c6565b8473ffffffffffffffffffffffffffffffffffffffff1663150b7a02338887876040518563ffffffff167c0100000000000000000000000000000000000000000000000000000000028152600401808573ffffffffffffffffffffffffffffffffffffffff1673ffffffffffffffffffffffffffffffffffffffff1681526020018473ffffffffffffffffffffffffffffffffffffffff1673ffffffffffffffffffffffffffffffffffffffff16815260200183815260200180602001828103825283818151815260200191508051906020019080838360005b838110156143d35780820151818401526020810190506143b8565b50505050905090810190601f1680156144005780820380516001836020036101000a031916815260200191505b5095505050505050602060405180830381600087803b15801561442257600080fd5b505af1158015614436573d6000803e3d6000fd5b505050506040513d602081101561444c57600080fd5b8101908080519060200190929190505050905063150b7a027c0100000000000000000000000000000000000000000000000000000000027bffffffffffffffffffffffffffffffffffffffffffffffffffffffff1916817bffffffffffffffffffffffffffffffffffffffffffffffffffffffff19161491505b50949350505050565b8173ffffffffffffffffffffffffffffffffffffffff166144ef82612e66565b73ffffffffffffffffffffffffffffffffffffffff1614151561451157600080fd5b6145646001600460008573ffffffffffffffffffffffffffffffffffffffff1673ffffffffffffffffffffffffffffffffffffffff168152602001908152602001600020546145fe90919063ffffffff16565b600460008473ffffffffffffffffffffffffffffffffffffffff1673ffffffffffffffffffffffffffffffffffffffff1681526020019081526020016000208190555060006002600083815260200190815260200160002060006101000a81548173ffffffffffffffffffffffffffffffffffffffff021916908373ffffffffffffffffffffffffffffffffffffffff1602179055505050565b600082821115151561460c57fe5b818303905092915050565b600073ffffffffffffffffffffffffffffffffffffffff166002600083815260200190815260200160002060009054906101000a900473ffffffffffffffffffffffffffffffffffffffff1673ffffffffffffffffffffffffffffffffffffffff1614151561468557600080fd5b816002600083815260200190815260200160002060006101000a81548173ffffffffffffffffffffffffffffffffffffffff021916908373ffffffffffffffffffffffffffffffffffffffff16021790555061472a6001600460008573ffffffffffffffffffffffffffffffffffffffff1673ffffffffffffffffffffffffffffffffffffffff168152602001908152602001600020546147e290919063ffffffff16565b600460008473ffffffffffffffffffffffffffffffffffffffff1673ffffffffffffffffffffffffffffffffffffffff168152602001908152602001600020819055505050565b60018260000160008373ffffffffffffffffffffffffffffffffffffffff1673ffffffffffffffffffffffffffffffffffffffff16815260200190815260200160002060006101000a81548160ff0219169083151502179055505050565b600080823b905060008111915050919050565b600081830190508281101515156147f557fe5b80905092915050565b828054600181600116156101000203166002900490600052602060002090601f016020900481019282601f1061483f57805160ff191683800117855561486d565b8280016001018555821561486d579182015b8281111561486c578251825591602001919060010190614851565b5b50905061487a91906148d3565b5090565b608060405190810160405280600081526020016000815260200160608152602001606081525090565b8154818355818111156148ce578183600052602060002091820191016148cd91906148d3565b5b505050565b6148f591905b808211156148f15760008160009055506001016148d9565b5090565b905600a165627a7a72305820a088b40345509218174c776d163bfeea3b43e1b5ed7fd984e0f121b4b1e64b040029",
  "source": "pragma solidity ^0.4.24;\n\nimport \"./ShopFactory.sol\";\n\n\n/**\n * @title SKUTypeFactory\n * @notice Defines functions and events related to management of SKU Types\n */\ncontract SKUTypeFactory is ShopFactory {\n\n    /**\n     * @notice emitted upon the creation of a SKU Type\n     */\n    event NewSKUType(uint256 indexed shopId, uint256 skuTypeId, string name);\n\n    /**\n     * @notice Create an SKU (Shopkeeping Unit) Type for a Shop\n     * @dev Can only be run by the shop owner\n     */\n    function createSKUType(\n        uint256 _shopId,\n        string _name,\n        string _desc\n    )\n        public\n        onlyShopOwner(_shopId)\n        returns(uint256)\n    {\n        // Get SKU Type ID\n        uint256 skuTypeId = skuTypes.length;\n\n        // Create and store SKU Type\n        skuTypes.push(SKUType(_shopId, skuTypeId, _name, _desc));\n\n        // Map SKU Type to Shop ID\n        skuTypeToShop[skuTypeId] = _shopId;\n\n        // Add SKU Type to Shop's SKU Type list\n        shopSKUTypes[_shopId].push(skuTypeId);\n\n        // Emit Event with name of the new SKU Type\n        emit NewSKUType(_shopId, skuTypeId, _name);\n\n        // Return the new SKU Type ID\n        return skuTypeId;\n    }\n\n    /**\n     * @notice Get the count of SKUs associated with a given SKU Type\n     */\n    function getSKUTypeSKUCount(uint256 _skuTypeId) public view returns (uint256) {\n        return skuTypeSKUs[_skuTypeId].length;\n    }\n\n    // @notice Get the list of SKU Type Ids associated with a given Shop\n    function getSKUTypeIds(uint256 _shopId) public view returns (uint[] memory) {\n        return shopSKUTypes[_shopId];\n    }\n\n    // @notice Get a SKUTypes properties by ID\n    function getSKUType(uint256 _skuTypeId) public view returns (uint256, uint256, string, string) {\n        require(_skuTypeId <= skuTypes.length);\n        SKUType memory skuType = skuTypes[_skuTypeId];\n        return (\n            skuType.shopId,\n            skuType.skuTypeId,\n            skuType.name,\n            skuType.description\n        );\n    }\n}",
  "sourcePath": "/Users/cliff/Documents/in-app-pro-shop/contracts/SKUTypeFactory.sol",
  "compiler": {
    "name": "solc",
    "version": "0.4.24+commit.e67f0147.Emscripten.clang"
  },
  "schemaVersion": "2.0.1",
  "updatedAt": "2018-11-26T22:52:42.522Z"
}