{
  "contractName": "SKUTypeFactory",
  "abi": [
    {
      "anonymous": false,
      "inputs": [],
      "name": "ContractPaused",
      "type": "event"
    },
    {
      "anonymous": false,
      "inputs": [],
      "name": "ContractUnpaused",
      "type": "event"
    },
    {
      "anonymous": false,
      "inputs": [
        {
          "indexed": false,
          "internalType": "address",
          "name": "newContract",
          "type": "address"
        }
      ],
      "name": "ContractUpgrade",
      "type": "event"
    },
    {
      "anonymous": false,
      "inputs": [
        {
          "indexed": true,
          "internalType": "uint256",
          "name": "shopId",
          "type": "uint256"
        },
        {
          "indexed": false,
          "internalType": "uint256",
          "name": "skuTypeId",
          "type": "uint256"
        },
        {
          "indexed": false,
          "internalType": "string",
          "name": "name",
          "type": "string"
        }
      ],
      "name": "NewSKUType",
      "type": "event"
    },
    {
      "anonymous": false,
      "inputs": [
        {
          "indexed": true,
          "internalType": "address",
          "name": "owner",
          "type": "address"
        },
        {
          "indexed": false,
          "internalType": "uint256",
          "name": "shopId",
          "type": "uint256"
        },
        {
          "indexed": false,
          "internalType": "string",
          "name": "name",
          "type": "string"
        }
      ],
      "name": "NewShop",
      "type": "event"
    },
    {
      "constant": false,
      "inputs": [
        {
          "internalType": "string",
          "name": "_name",
          "type": "string"
        },
        {
          "internalType": "string",
          "name": "_desc",
          "type": "string"
        },
        {
          "internalType": "string",
          "name": "_fiat",
          "type": "string"
        }
      ],
      "name": "createShop",
      "outputs": [
        {
          "internalType": "uint256",
          "name": "",
          "type": "uint256"
        }
      ],
      "payable": false,
      "stateMutability": "nonpayable",
      "type": "function"
    },
    {
      "constant": true,
      "inputs": [],
      "name": "newContractAddress",
      "outputs": [
        {
          "internalType": "address",
          "name": "",
          "type": "address"
        }
      ],
      "payable": false,
      "stateMutability": "view",
      "type": "function"
    },
    {
      "constant": true,
      "inputs": [
        {
          "internalType": "address",
          "name": "",
          "type": "address"
        },
        {
          "internalType": "uint256",
          "name": "",
          "type": "uint256"
        }
      ],
      "name": "ownedShops",
      "outputs": [
        {
          "internalType": "uint256",
          "name": "",
          "type": "uint256"
        }
      ],
      "payable": false,
      "stateMutability": "view",
      "type": "function"
    },
    {
      "constant": false,
      "inputs": [],
      "name": "pause",
      "outputs": [],
      "payable": false,
      "stateMutability": "nonpayable",
      "type": "function"
    },
    {
      "constant": true,
      "inputs": [],
      "name": "paused",
      "outputs": [
        {
          "internalType": "bool",
          "name": "",
          "type": "bool"
        }
      ],
      "payable": false,
      "stateMutability": "view",
      "type": "function"
    },
    {
      "constant": true,
      "inputs": [
        {
          "internalType": "uint256",
          "name": "",
          "type": "uint256"
        },
        {
          "internalType": "uint256",
          "name": "",
          "type": "uint256"
        }
      ],
      "name": "shopSKUTypes",
      "outputs": [
        {
          "internalType": "uint256",
          "name": "",
          "type": "uint256"
        }
      ],
      "payable": false,
      "stateMutability": "view",
      "type": "function"
    },
    {
      "constant": true,
      "inputs": [
        {
          "internalType": "uint256",
          "name": "",
          "type": "uint256"
        },
        {
          "internalType": "uint256",
          "name": "",
          "type": "uint256"
        }
      ],
      "name": "shopSKUs",
      "outputs": [
        {
          "internalType": "uint256",
          "name": "",
          "type": "uint256"
        }
      ],
      "payable": false,
      "stateMutability": "view",
      "type": "function"
    },
    {
      "constant": true,
      "inputs": [
        {
          "internalType": "uint256",
          "name": "",
          "type": "uint256"
        }
      ],
      "name": "shopToOwner",
      "outputs": [
        {
          "internalType": "address",
          "name": "",
          "type": "address"
        }
      ],
      "payable": false,
      "stateMutability": "view",
      "type": "function"
    },
    {
      "constant": true,
      "inputs": [
        {
          "internalType": "uint256",
          "name": "",
          "type": "uint256"
        }
      ],
      "name": "shops",
      "outputs": [
        {
          "internalType": "address",
          "name": "owner",
          "type": "address"
        },
        {
          "internalType": "uint256",
          "name": "shopId",
          "type": "uint256"
        },
        {
          "internalType": "string",
          "name": "name",
          "type": "string"
        },
        {
          "internalType": "string",
          "name": "description",
          "type": "string"
        },
        {
          "internalType": "string",
          "name": "fiat",
          "type": "string"
        }
      ],
      "payable": false,
      "stateMutability": "view",
      "type": "function"
    },
    {
      "constant": true,
      "inputs": [
        {
          "internalType": "uint256",
          "name": "",
          "type": "uint256"
        },
        {
          "internalType": "uint256",
          "name": "",
          "type": "uint256"
        }
      ],
      "name": "skuTypeSKUs",
      "outputs": [
        {
          "internalType": "uint256",
          "name": "",
          "type": "uint256"
        }
      ],
      "payable": false,
      "stateMutability": "view",
      "type": "function"
    },
    {
      "constant": true,
      "inputs": [
        {
          "internalType": "uint256",
          "name": "",
          "type": "uint256"
        }
      ],
      "name": "skuTypes",
      "outputs": [
        {
          "internalType": "uint256",
          "name": "shopId",
          "type": "uint256"
        },
        {
          "internalType": "uint256",
          "name": "skuTypeId",
          "type": "uint256"
        },
        {
          "internalType": "string",
          "name": "name",
          "type": "string"
        },
        {
          "internalType": "string",
          "name": "description",
          "type": "string"
        }
      ],
      "payable": false,
      "stateMutability": "view",
      "type": "function"
    },
    {
      "constant": true,
      "inputs": [
        {
          "internalType": "uint256",
          "name": "",
          "type": "uint256"
        }
      ],
      "name": "skus",
      "outputs": [
        {
          "internalType": "uint256",
          "name": "shopId",
          "type": "uint256"
        },
        {
          "internalType": "uint256",
          "name": "skuId",
          "type": "uint256"
        },
        {
          "internalType": "uint256",
          "name": "skuTypeId",
          "type": "uint256"
        },
        {
          "internalType": "uint256",
          "name": "price",
          "type": "uint256"
        },
        {
          "internalType": "string",
          "name": "name",
          "type": "string"
        },
        {
          "internalType": "string",
          "name": "description",
          "type": "string"
        },
        {
          "internalType": "bool",
          "name": "consumable",
          "type": "bool"
        },
        {
          "internalType": "bool",
          "name": "limited",
          "type": "bool"
        },
        {
          "internalType": "uint256",
          "name": "limit",
          "type": "uint256"
        }
      ],
      "payable": false,
      "stateMutability": "view",
      "type": "function"
    },
    {
      "constant": false,
      "inputs": [],
      "name": "unpause",
      "outputs": [],
      "payable": false,
      "stateMutability": "nonpayable",
      "type": "function"
    },
    {
      "constant": false,
      "inputs": [
        {
          "internalType": "address",
          "name": "_newAddress",
          "type": "address"
        }
      ],
      "name": "upgradeContract",
      "outputs": [],
      "payable": false,
      "stateMutability": "nonpayable",
      "type": "function"
    },
    {
      "constant": true,
      "inputs": [],
      "name": "upgraded",
      "outputs": [
        {
          "internalType": "bool",
          "name": "",
          "type": "bool"
        }
      ],
      "payable": false,
      "stateMutability": "view",
      "type": "function"
    },
    {
      "constant": false,
      "inputs": [
        {
          "internalType": "uint256",
          "name": "_shopId",
          "type": "uint256"
        },
        {
          "internalType": "string",
          "name": "_name",
          "type": "string"
        },
        {
          "internalType": "string",
          "name": "_desc",
          "type": "string"
        }
      ],
      "name": "createSKUType",
      "outputs": [
        {
          "internalType": "uint256",
          "name": "",
          "type": "uint256"
        }
      ],
      "payable": false,
      "stateMutability": "nonpayable",
      "type": "function"
    }
  ],
  "bytecode": "0x60806040526000600360006101000a81548160ff0219169083151502179055506000600360016101000a81548160ff0219169083151502179055506001600360016101000a81548160ff021916908315150217905550620000703360006200009160201b620019601790919060201c565b6200008b3360016200009160201b620019601790919060201c565b62000255565b620000a382826200017560201b60201c565b1562000117576040517f08c379a000000000000000000000000000000000000000000000000000000000815260040180806020018281038252601f8152602001807f526f6c65733a206163636f756e7420616c72656164792068617320726f6c650081525060200191505060405180910390fd5b60018260000160008373ffffffffffffffffffffffffffffffffffffffff1673ffffffffffffffffffffffffffffffffffffffff16815260200190815260200160002060006101000a81548160ff0219169083151502179055505050565b60008073ffffffffffffffffffffffffffffffffffffffff168273ffffffffffffffffffffffffffffffffffffffff161415620001fe576040517f08c379a000000000000000000000000000000000000000000000000000000000815260040180806020018281038252602281526020018062001d9c6022913960400191505060405180910390fd5b8260000160008373ffffffffffffffffffffffffffffffffffffffff1673ffffffffffffffffffffffffffffffffffffffff16815260200190815260200160002060009054906101000a900460ff16905092915050565b611b3780620002656000396000f3fe608060405234801561001057600080fd5b50600436106101005760003560e01c80635ded461a11610097578063910339401161006657806391033940146107ff57806392bec5ee1461084b578063c28de2cd14610982578063eb2c0223146109a457610100565b80635ded461a146105a65780636af04a57146105f2578063713aca741461063c5780638456cb59146107f557610100565b8063488d136e116100d3578063488d136e1461031557806351b4fc7e14610401578063531e005b146104635780635c975abb1461058457610100565b806301ba7539146101055780632cf0d92a1461015157806335007f0e146101bf5780633f4ba83a1461030b575b600080fd5b61013b6004803603604081101561011b57600080fd5b8101908080359060200190929190803590602001909291905050506109e8565b6040518082815260200191505060405180910390f35b61017d6004803603602081101561016757600080fd5b8101908080359060200190929190505050610a16565b604051808273ffffffffffffffffffffffffffffffffffffffff1673ffffffffffffffffffffffffffffffffffffffff16815260200191505060405180910390f35b6101eb600480360360208110156101d557600080fd5b8101908080359060200190929190505050610a49565b604051808a815260200189815260200188815260200187815260200180602001806020018615151515815260200185151515158152602001848152602001838103835288818151815260200191508051906020019080838360005b83811015610261578082015181840152602081019050610246565b50505050905090810190601f16801561028e5780820380516001836020036101000a031916815260200191505b50838103825287818151815260200191508051906020019080838360005b838110156102c75780820151818401526020810190506102ac565b50505050905090810190601f1680156102f45780820380516001836020036101000a031916815260200191505b509b50505050505050505050505060405180910390f35b610313610bee565b005b6103eb6004803603606081101561032b57600080fd5b81019080803590602001909291908035906020019064010000000081111561035257600080fd5b82018360208201111561036457600080fd5b8035906020019184600183028401116401000000008311171561038657600080fd5b9091929391929390803590602001906401000000008111156103a757600080fd5b8201836020820111156103b957600080fd5b803590602001918460018302840111640100000000831117156103db57600080fd5b9091929391929390505050610c87565b6040518082815260200191505060405180910390f35b61044d6004803603604081101561041757600080fd5b81019080803573ffffffffffffffffffffffffffffffffffffffff16906020019092919080359060200190929190505050610efd565b6040518082815260200191505060405180910390f35b61048f6004803603602081101561047957600080fd5b8101908080359060200190929190505050610f2b565b604051808581526020018481526020018060200180602001838103835285818151815260200191508051906020019080838360005b838110156104df5780820151818401526020810190506104c4565b50505050905090810190601f16801561050c5780820380516001836020036101000a031916815260200191505b50838103825284818151815260200191508051906020019080838360005b8381101561054557808201518184015260208101905061052a565b50505050905090810190601f1680156105725780820380516001836020036101000a031916815260200191505b50965050505050505060405180910390f35b61058c611098565b604051808215151515815260200191505060405180910390f35b6105dc600480360360408110156105bc57600080fd5b8101908080359060200190929190803590602001909291905050506110ab565b6040518082815260200191505060405180910390f35b6105fa6110d9565b604051808273ffffffffffffffffffffffffffffffffffffffff1673ffffffffffffffffffffffffffffffffffffffff16815260200191505060405180910390f35b6106686004803603602081101561065257600080fd5b81019080803590602001909291905050506110ff565b604051808673ffffffffffffffffffffffffffffffffffffffff1673ffffffffffffffffffffffffffffffffffffffff168152602001858152602001806020018060200180602001848103845287818151815260200191508051906020019080838360005b838110156106e85780820151818401526020810190506106cd565b50505050905090810190601f1680156107155780820380516001836020036101000a031916815260200191505b50848103835286818151815260200191508051906020019080838360005b8381101561074e578082015181840152602081019050610733565b50505050905090810190601f16801561077b5780820380516001836020036101000a031916815260200191505b50848103825285818151815260200191508051906020019080838360005b838110156107b4578082015181840152602081019050610799565b50505050905090810190601f1680156107e15780820380516001836020036101000a031916815260200191505b509850505050505050505060405180910390f35b6107fd61132a565b005b6108356004803603604081101561081557600080fd5b8101908080359060200190929190803590602001909291905050506113aa565b6040518082815260200191505060405180910390f35b61096c6004803603606081101561086157600080fd5b810190808035906020019064010000000081111561087e57600080fd5b82018360208201111561089057600080fd5b803590602001918460018302840111640100000000831117156108b257600080fd5b9091929391929390803590602001906401000000008111156108d357600080fd5b8201836020820111156108e557600080fd5b8035906020019184600183028401116401000000008311171561090757600080fd5b90919293919293908035906020019064010000000081111561092857600080fd5b82018360208201111561093a57600080fd5b8035906020019184600183028401116401000000008311171561095c57600080fd5b90919293919293905050506113d8565b6040518082815260200191505060405180910390f35b61098a61175d565b604051808215151515815260200191505060405180910390f35b6109e6600480360360208110156109ba57600080fd5b81019080803573ffffffffffffffffffffffffffffffffffffffff169060200190929190505050611770565b005b600a6020528160005260406000208181548110610a0157fe5b90600052602060002001600091509150505481565b60086020528060005260406000206000915054906101000a900473ffffffffffffffffffffffffffffffffffffffff1681565b60078181548110610a5657fe5b9060005260206000209060080201600091509050806000015490806001015490806002015490806003015490806004018054600181600116156101000203166002900480601f016020809104026020016040519081016040528092919081815260200182805460018160011615610100020316600290048015610b1a5780601f10610aef57610100808354040283529160200191610b1a565b820191906000526020600020905b815481529060010190602001808311610afd57829003601f168201915b505050505090806005018054600181600116156101000203166002900480601f016020809104026020016040519081016040528092919081815260200182805460018160011615610100020316600290048015610bb85780601f10610b8d57610100808354040283529160200191610bb8565b820191906000526020600020905b815481529060010190602001808311610b9b57829003601f168201915b5050505050908060060160009054906101000a900460ff16908060060160019054906101000a900460ff16908060070154905089565b610c0233600061188290919063ffffffff16565b610c0b57600080fd5b600360019054906101000a900460ff16610c2457600080fd5b600360009054906101000a900460ff1615610c3e57600080fd5b6000600360016101000a81548160ff0219169083151502179055507f0e5e3b3fb504c22cf5c42fa07d521225937514c654007e1f12646f89768d6f9460405160405180910390a1565b6000600360019054906101000a900460ff1615610ca357600080fd5b8560006008600083815260200190815260200160002060009054906101000a900473ffffffffffffffffffffffffffffffffffffffff1690508073ffffffffffffffffffffffffffffffffffffffff163373ffffffffffffffffffffffffffffffffffffffff1614610d1457600080fd5b60006006805490509050600660405180608001604052808b81526020018381526020018a8a8080601f016020809104026020016040519081016040528093929190818152602001838380828437600081840152601f19601f82011690508083019250505050505050815260200188888080601f016020809104026020016040519081016040528093929190818152602001838380828437600081840152601f19601f820116905080830192505050505050508152509080600181540180825580915050906001820390600052602060002090600402016000909192909190915060008201518160000155602082015181600101556040820151816002019080519060200190610e24929190611a3b565b506060820151816003019080519060200190610e41929190611a3b565b50505050600a60008a8152602001908152602001600020819080600181540180825580915050906001820390600052602060002001600090919290919091505550887f984e9c57bf3c704c112a30dea33416efd7969f90a14a69b9cb3842db1fdb5c7a828a8a60405180848152602001806020018281038252848482818152602001925080828437600081840152601f19601f82011690508083019250505094505050505060405180910390a280935050505095945050505050565b60096020528160005260406000208181548110610f1657fe5b90600052602060002001600091509150505481565b60068181548110610f3857fe5b9060005260206000209060040201600091509050806000015490806001015490806002018054600181600116156101000203166002900480601f016020809104026020016040519081016040528092919081815260200182805460018160011615610100020316600290048015610ff05780601f10610fc557610100808354040283529160200191610ff0565b820191906000526020600020905b815481529060010190602001808311610fd357829003601f168201915b505050505090806003018054600181600116156101000203166002900480601f01602080910402602001604051908101604052809291908181526020018280546001816001161561010002031660029004801561108e5780601f106110635761010080835404028352916020019161108e565b820191906000526020600020905b81548152906001019060200180831161107157829003601f168201915b5050505050905084565b600360019054906101000a900460ff1681565b600b60205281600052604060002081815481106110c457fe5b90600052602060002001600091509150505481565b600360029054906101000a900473ffffffffffffffffffffffffffffffffffffffff1681565b6005818154811061110c57fe5b90600052602060002090600502016000915090508060000160009054906101000a900473ffffffffffffffffffffffffffffffffffffffff1690806001015490806002018054600181600116156101000203166002900480601f0160208091040260200160405190810160405280929190818152602001828054600181600116156101000203166002900480156111e45780601f106111b9576101008083540402835291602001916111e4565b820191906000526020600020905b8154815290600101906020018083116111c757829003601f168201915b505050505090806003018054600181600116156101000203166002900480601f0160208091040260200160405190810160405280929190818152602001828054600181600116156101000203166002900480156112825780601f1061125757610100808354040283529160200191611282565b820191906000526020600020905b81548152906001019060200180831161126557829003601f168201915b505050505090806004018054600181600116156101000203166002900480601f0160208091040260200160405190810160405280929190818152602001828054600181600116156101000203166002900480156113205780601f106112f557610100808354040283529160200191611320565b820191906000526020600020905b81548152906001019060200180831161130357829003601f168201915b5050505050905085565b61133e33600061188290919063ffffffff16565b61134757600080fd5b600360019054906101000a900460ff161561136157600080fd5b6001600360016101000a81548160ff0219169083151502179055507fab35696f06e428ebc5ceba8cd17f8fed287baf43440206d1943af1ee53e6d26760405160405180910390a1565b600c60205281600052604060002081815481106113c357fe5b90600052602060002001600091509150505481565b6000600360019054906101000a900460ff16156113f457600080fd5b60006005805490509050600033905060056040518060a001604052808373ffffffffffffffffffffffffffffffffffffffff1681526020018481526020018b8b8080601f016020809104026020016040519081016040528093929190818152602001838380828437600081840152601f19601f82011690508083019250505050505050815260200189898080601f016020809104026020016040519081016040528093929190818152602001838380828437600081840152601f19601f82011690508083019250505050505050815260200187878080601f016020809104026020016040519081016040528093929190818152602001838380828437600081840152601f19601f820116905080830192505050505050508152509080600181540180825580915050906001820390600052602060002090600502016000909192909190915060008201518160000160006101000a81548173ffffffffffffffffffffffffffffffffffffffff021916908373ffffffffffffffffffffffffffffffffffffffff1602179055506020820151816001015560408201518160020190805190602001906115a6929190611a3b565b5060608201518160030190805190602001906115c3929190611a3b565b5060808201518160040190805190602001906115e0929190611a3b565b50505050806008600084815260200190815260200160002060006101000a81548173ffffffffffffffffffffffffffffffffffffffff021916908373ffffffffffffffffffffffffffffffffffffffff160217905550600960008273ffffffffffffffffffffffffffffffffffffffff1673ffffffffffffffffffffffffffffffffffffffff1681526020019081526020016000208290806001815401808255809150509060018203906000526020600020016000909192909190915055506116b381600261188290919063ffffffff16565b6116cc576116cb81600261196090919063ffffffff16565b5b8073ffffffffffffffffffffffffffffffffffffffff167f6483fc0067ba37ac182934414561e6a0483fe2c28473508471330bc69afee817838b8b60405180848152602001806020018281038252848482818152602001925080828437600081840152601f19601f82011690508083019250505094505050505060405180910390a281925050509695505050505050565b600360009054906101000a900460ff1681565b61178433600061188290919063ffffffff16565b61178d57600080fd5b600360019054906101000a900460ff166117a657600080fd5b600360009054906101000a900460ff16156117c057600080fd5b6001600360006101000a81548160ff02191690831515021790555080600360026101000a81548173ffffffffffffffffffffffffffffffffffffffff021916908373ffffffffffffffffffffffffffffffffffffffff1602179055507f450db8da6efbe9c22f2347f7c2021231df1fc58d3ae9a2fa75d39fa44619930581604051808273ffffffffffffffffffffffffffffffffffffffff1673ffffffffffffffffffffffffffffffffffffffff16815260200191505060405180910390a150565b60008073ffffffffffffffffffffffffffffffffffffffff168273ffffffffffffffffffffffffffffffffffffffff161415611909576040517f08c379a0000000000000000000000000000000000000000000000000000000008152600401808060200182810382526022815260200180611ae16022913960400191505060405180910390fd5b8260000160008373ffffffffffffffffffffffffffffffffffffffff1673ffffffffffffffffffffffffffffffffffffffff16815260200190815260200160002060009054906101000a900460ff16905092915050565b61196a8282611882565b156119dd576040517f08c379a000000000000000000000000000000000000000000000000000000000815260040180806020018281038252601f8152602001807f526f6c65733a206163636f756e7420616c72656164792068617320726f6c650081525060200191505060405180910390fd5b60018260000160008373ffffffffffffffffffffffffffffffffffffffff1673ffffffffffffffffffffffffffffffffffffffff16815260200190815260200160002060006101000a81548160ff0219169083151502179055505050565b828054600181600116156101000203166002900490600052602060002090601f016020900481019282601f10611a7c57805160ff1916838001178555611aaa565b82800160010185558215611aaa579182015b82811115611aa9578251825591602001919060010190611a8e565b5b509050611ab79190611abb565b5090565b611add91905b80821115611ad9576000816000905550600101611ac1565b5090565b9056fe526f6c65733a206163636f756e7420697320746865207a65726f2061646472657373a265627a7a72315820cba84fe8ea7e953e6d8e88f8fdea0e64cc8b8f02e4590b8342e04f660a41b00164736f6c634300050c0032526f6c65733a206163636f756e7420697320746865207a65726f2061646472657373",
  "source": "pragma solidity ^0.5.0;\n\nimport \"./ShopFactory.sol\";\n\n\n/**\n * @title SKUTypeFactory\n * @notice Defines functions and events related to management of SKU Types\n */\ncontract SKUTypeFactory is ShopFactory {\n\n    /**\n     * @notice emitted upon the creation of a SKU Type\n     */\n    event NewSKUType(uint256 indexed shopId, uint256 skuTypeId, string name);\n\n    /**\n     * @notice Create an SKU (Shopkeeping Unit) Type for a Shop\n     * @dev Can only be run by the shop owner\n     */\n    function createSKUType(\n        uint256 _shopId,\n        string calldata _name,\n        string calldata _desc\n    )\n        external\n        whenNotPaused\n        onlyShopOwner(_shopId)\n        returns(uint256)\n    {\n        // Get SKU Type ID\n        uint256 skuTypeId = skuTypes.length;\n\n        // Create and store SKU Type\n        skuTypes.push(SKUType(_shopId, skuTypeId, _name, _desc));\n\n        // Add SKU Type to Shop's SKU Type list\n        shopSKUTypes[_shopId].push(skuTypeId);\n\n        // Emit Event with name of the new SKU Type\n        emit NewSKUType(_shopId, skuTypeId, _name);\n\n        // Return the new SKU Type ID\n        return skuTypeId;\n    }\n\n}",
  "sourcePath": "/Users/cliffhall/Projects/in-app-pro-shop/contracts/SKUTypeFactory.sol",
  "compiler": {
    "name": "solc",
    "version": "0.5.12+commit.7709ece9.Emscripten.clang"
  },
  "schemaVersion": "3.0.16",
  "updatedAt": "2019-10-20T22:37:53.914Z",
  "devdoc": {
    "methods": {
      "createSKUType(uint256,string,string)": {
        "details": "Can only be run by the shop owner"
      },
      "pause()": {
        "details": "called by the system administrator to pause, triggers stopped state"
      },
      "unpause()": {
        "details": "called by the ystem administrator to un-pause, returns to normal state"
      },
      "upgradeContract(address)": {
        "details": "called by a system administrator to  mark the smart contract as upgraded,     in case there is a serious breaking bug. This method stores the new contract     address and emits an event to that effect. Clients of the contract should     update to the new contract address upon receiving this event.     *      This contract will remain paused indefinitely after such an upgrade.",
        "params": {
          "_newAddress": "address of new contract"
        }
      }
    },
    "title": "SKUTypeFactory"
  },
  "userdoc": {
    "methods": {
      "createSKUType(uint256,string,string)": {
        "notice": "Create an SKU (Shopkeeping Unit) Type for a Shop"
      },
      "createShop(string,string,string)": {
        "notice": "Create a Shop"
      }
    },
    "notice": "Defines functions and events related to management of SKU Types"
  }
}