{
  "contractName": "StockRoom",
  "abi": [
    {
      "constant": true,
      "inputs": [
        {
          "name": "",
          "type": "uint256"
        },
        {
          "name": "",
          "type": "uint256"
        }
      ],
      "name": "shopSKUTypes",
      "outputs": [
        {
          "name": "",
          "type": "uint256"
        }
      ],
      "payable": false,
      "stateMutability": "view",
      "type": "function"
    },
    {
      "constant": true,
      "inputs": [
        {
          "name": "_operator",
          "type": "address"
        },
        {
          "name": "_role",
          "type": "string"
        }
      ],
      "name": "checkRole",
      "outputs": [],
      "payable": false,
      "stateMutability": "view",
      "type": "function"
    },
    {
      "constant": true,
      "inputs": [
        {
          "name": "_operator",
          "type": "address"
        },
        {
          "name": "_role",
          "type": "string"
        }
      ],
      "name": "hasRole",
      "outputs": [
        {
          "name": "",
          "type": "bool"
        }
      ],
      "payable": false,
      "stateMutability": "view",
      "type": "function"
    },
    {
      "constant": true,
      "inputs": [
        {
          "name": "",
          "type": "uint256"
        }
      ],
      "name": "shopToOwner",
      "outputs": [
        {
          "name": "",
          "type": "address"
        }
      ],
      "payable": false,
      "stateMutability": "view",
      "type": "function"
    },
    {
      "constant": true,
      "inputs": [
        {
          "name": "",
          "type": "uint256"
        }
      ],
      "name": "skus",
      "outputs": [
        {
          "name": "shopId",
          "type": "uint256"
        },
        {
          "name": "skuId",
          "type": "uint256"
        },
        {
          "name": "skuTypeId",
          "type": "uint256"
        },
        {
          "name": "price",
          "type": "uint256"
        },
        {
          "name": "name",
          "type": "string"
        },
        {
          "name": "description",
          "type": "string"
        },
        {
          "name": "consumable",
          "type": "bool"
        },
        {
          "name": "limited",
          "type": "bool"
        },
        {
          "name": "limit",
          "type": "uint256"
        }
      ],
      "payable": false,
      "stateMutability": "view",
      "type": "function"
    },
    {
      "constant": false,
      "inputs": [],
      "name": "unpause",
      "outputs": [],
      "payable": false,
      "stateMutability": "nonpayable",
      "type": "function"
    },
    {
      "constant": false,
      "inputs": [
        {
          "name": "_shopId",
          "type": "uint256"
        },
        {
          "name": "_name",
          "type": "string"
        },
        {
          "name": "_desc",
          "type": "string"
        }
      ],
      "name": "createSKUType",
      "outputs": [
        {
          "name": "",
          "type": "uint256"
        }
      ],
      "payable": false,
      "stateMutability": "nonpayable",
      "type": "function"
    },
    {
      "constant": true,
      "inputs": [
        {
          "name": "",
          "type": "address"
        },
        {
          "name": "",
          "type": "uint256"
        }
      ],
      "name": "ownedShops",
      "outputs": [
        {
          "name": "",
          "type": "uint256"
        }
      ],
      "payable": false,
      "stateMutability": "view",
      "type": "function"
    },
    {
      "constant": true,
      "inputs": [
        {
          "name": "",
          "type": "uint256"
        }
      ],
      "name": "skuTypes",
      "outputs": [
        {
          "name": "shopId",
          "type": "uint256"
        },
        {
          "name": "skuTypeId",
          "type": "uint256"
        },
        {
          "name": "name",
          "type": "string"
        },
        {
          "name": "description",
          "type": "string"
        }
      ],
      "payable": false,
      "stateMutability": "view",
      "type": "function"
    },
    {
      "constant": true,
      "inputs": [],
      "name": "ROLE_SYS_ADMIN",
      "outputs": [
        {
          "name": "",
          "type": "string"
        }
      ],
      "payable": false,
      "stateMutability": "view",
      "type": "function"
    },
    {
      "constant": true,
      "inputs": [],
      "name": "paused",
      "outputs": [
        {
          "name": "",
          "type": "bool"
        }
      ],
      "payable": false,
      "stateMutability": "view",
      "type": "function"
    },
    {
      "constant": true,
      "inputs": [
        {
          "name": "",
          "type": "uint256"
        },
        {
          "name": "",
          "type": "uint256"
        }
      ],
      "name": "skuTypeSKUs",
      "outputs": [
        {
          "name": "",
          "type": "uint256"
        }
      ],
      "payable": false,
      "stateMutability": "view",
      "type": "function"
    },
    {
      "constant": true,
      "inputs": [],
      "name": "newContractAddress",
      "outputs": [
        {
          "name": "",
          "type": "address"
        }
      ],
      "payable": false,
      "stateMutability": "view",
      "type": "function"
    },
    {
      "constant": true,
      "inputs": [
        {
          "name": "",
          "type": "uint256"
        }
      ],
      "name": "shops",
      "outputs": [
        {
          "name": "owner",
          "type": "address"
        },
        {
          "name": "shopId",
          "type": "uint256"
        },
        {
          "name": "name",
          "type": "string"
        },
        {
          "name": "description",
          "type": "string"
        },
        {
          "name": "fiat",
          "type": "string"
        }
      ],
      "payable": false,
      "stateMutability": "view",
      "type": "function"
    },
    {
      "constant": false,
      "inputs": [
        {
          "name": "_newAddress",
          "type": "address"
        }
      ],
      "name": "setNewAddress",
      "outputs": [],
      "payable": false,
      "stateMutability": "nonpayable",
      "type": "function"
    },
    {
      "constant": true,
      "inputs": [],
      "name": "ROLE_SHOP_OWNER",
      "outputs": [
        {
          "name": "",
          "type": "string"
        }
      ],
      "payable": false,
      "stateMutability": "view",
      "type": "function"
    },
    {
      "constant": false,
      "inputs": [],
      "name": "pause",
      "outputs": [],
      "payable": false,
      "stateMutability": "nonpayable",
      "type": "function"
    },
    {
      "constant": true,
      "inputs": [
        {
          "name": "",
          "type": "uint256"
        },
        {
          "name": "",
          "type": "uint256"
        }
      ],
      "name": "shopSKUs",
      "outputs": [
        {
          "name": "",
          "type": "uint256"
        }
      ],
      "payable": false,
      "stateMutability": "view",
      "type": "function"
    },
    {
      "constant": false,
      "inputs": [
        {
          "name": "_name",
          "type": "string"
        },
        {
          "name": "_desc",
          "type": "string"
        },
        {
          "name": "_fiat",
          "type": "string"
        }
      ],
      "name": "createShop",
      "outputs": [
        {
          "name": "",
          "type": "uint256"
        }
      ],
      "payable": false,
      "stateMutability": "nonpayable",
      "type": "function"
    },
    {
      "constant": false,
      "inputs": [
        {
          "name": "_shopId",
          "type": "uint256"
        },
        {
          "name": "_skuTypeId",
          "type": "uint256"
        },
        {
          "name": "_price",
          "type": "uint256"
        },
        {
          "name": "_name",
          "type": "string"
        },
        {
          "name": "_desc",
          "type": "string"
        },
        {
          "name": "_consumable",
          "type": "bool"
        },
        {
          "name": "_limited",
          "type": "bool"
        },
        {
          "name": "_limit",
          "type": "uint256"
        }
      ],
      "name": "createSKU",
      "outputs": [
        {
          "name": "",
          "type": "uint256"
        }
      ],
      "payable": false,
      "stateMutability": "nonpayable",
      "type": "function"
    },
    {
      "constant": true,
      "inputs": [],
      "name": "ROLE_FRANCHISE_OWNER",
      "outputs": [
        {
          "name": "",
          "type": "string"
        }
      ],
      "payable": false,
      "stateMutability": "view",
      "type": "function"
    },
    {
      "anonymous": false,
      "inputs": [
        {
          "indexed": true,
          "name": "shopId",
          "type": "uint256"
        },
        {
          "indexed": false,
          "name": "skuId",
          "type": "uint256"
        },
        {
          "indexed": false,
          "name": "name",
          "type": "string"
        }
      ],
      "name": "NewSKU",
      "type": "event"
    },
    {
      "anonymous": false,
      "inputs": [
        {
          "indexed": true,
          "name": "shopId",
          "type": "uint256"
        },
        {
          "indexed": false,
          "name": "skuTypeId",
          "type": "uint256"
        },
        {
          "indexed": false,
          "name": "name",
          "type": "string"
        }
      ],
      "name": "NewSKUType",
      "type": "event"
    },
    {
      "anonymous": false,
      "inputs": [
        {
          "indexed": true,
          "name": "owner",
          "type": "address"
        },
        {
          "indexed": false,
          "name": "shopId",
          "type": "uint256"
        },
        {
          "indexed": false,
          "name": "name",
          "type": "string"
        }
      ],
      "name": "NewShop",
      "type": "event"
    },
    {
      "anonymous": false,
      "inputs": [
        {
          "indexed": false,
          "name": "newContract",
          "type": "address"
        }
      ],
      "name": "ContractUpgrade",
      "type": "event"
    },
    {
      "anonymous": false,
      "inputs": [],
      "name": "ContractPaused",
      "type": "event"
    },
    {
      "anonymous": false,
      "inputs": [],
      "name": "ContractUnpaused",
      "type": "event"
    },
    {
      "anonymous": false,
      "inputs": [
        {
          "indexed": true,
          "name": "operator",
          "type": "address"
        },
        {
          "indexed": false,
          "name": "role",
          "type": "string"
        }
      ],
      "name": "RoleAdded",
      "type": "event"
    },
    {
      "anonymous": false,
      "inputs": [
        {
          "indexed": true,
          "name": "operator",
          "type": "address"
        },
        {
          "indexed": false,
          "name": "role",
          "type": "string"
        }
      ],
      "name": "RoleRemoved",
      "type": "event"
    },
    {
      "constant": false,
      "inputs": [
        {
          "name": "_address",
          "type": "address"
        }
      ],
      "name": "setFiatContractAddress",
      "outputs": [],
      "payable": false,
      "stateMutability": "nonpayable",
      "type": "function"
    },
    {
      "constant": true,
      "inputs": [],
      "name": "isStockRoom",
      "outputs": [
        {
          "name": "",
          "type": "bool"
        }
      ],
      "payable": false,
      "stateMutability": "pure",
      "type": "function"
    },
    {
      "constant": true,
      "inputs": [
        {
          "name": "_skuId",
          "type": "uint256"
        }
      ],
      "name": "getPriceInEther",
      "outputs": [
        {
          "name": "",
          "type": "uint256"
        }
      ],
      "payable": false,
      "stateMutability": "view",
      "type": "function"
    },
    {
      "constant": true,
      "inputs": [
        {
          "name": "_shopId",
          "type": "uint256"
        },
        {
          "name": "_balance",
          "type": "uint256"
        }
      ],
      "name": "convertEtherToFiat",
      "outputs": [
        {
          "name": "",
          "type": "uint256"
        }
      ],
      "payable": false,
      "stateMutability": "view",
      "type": "function"
    },
    {
      "constant": true,
      "inputs": [
        {
          "name": "_skuId",
          "type": "uint256"
        },
        {
          "name": "_itemCount",
          "type": "uint256"
        }
      ],
      "name": "canMintItem",
      "outputs": [
        {
          "name": "",
          "type": "bool"
        }
      ],
      "payable": false,
      "stateMutability": "view",
      "type": "function"
    },
    {
      "constant": true,
      "inputs": [
        {
          "name": "_skuTypeId",
          "type": "uint256"
        }
      ],
      "name": "getSKUTypeSKUIds",
      "outputs": [
        {
          "name": "",
          "type": "uint256[]"
        }
      ],
      "payable": false,
      "stateMutability": "view",
      "type": "function"
    },
    {
      "constant": true,
      "inputs": [
        {
          "name": "_shopId",
          "type": "uint256"
        }
      ],
      "name": "getSKUIds",
      "outputs": [
        {
          "name": "",
          "type": "uint256[]"
        }
      ],
      "payable": false,
      "stateMutability": "view",
      "type": "function"
    },
    {
      "constant": true,
      "inputs": [
        {
          "name": "_skuId",
          "type": "uint256"
        }
      ],
      "name": "getSKU",
      "outputs": [
        {
          "name": "",
          "type": "uint256"
        },
        {
          "name": "",
          "type": "uint256"
        },
        {
          "name": "",
          "type": "uint256"
        },
        {
          "name": "",
          "type": "uint256"
        },
        {
          "name": "",
          "type": "string"
        },
        {
          "name": "",
          "type": "string"
        },
        {
          "name": "",
          "type": "bool"
        },
        {
          "name": "",
          "type": "bool"
        },
        {
          "name": "",
          "type": "uint256"
        }
      ],
      "payable": false,
      "stateMutability": "view",
      "type": "function"
    },
    {
      "constant": true,
      "inputs": [
        {
          "name": "_shopId",
          "type": "uint256"
        }
      ],
      "name": "getSKUTypeIds",
      "outputs": [
        {
          "name": "",
          "type": "uint256[]"
        }
      ],
      "payable": false,
      "stateMutability": "view",
      "type": "function"
    },
    {
      "constant": true,
      "inputs": [
        {
          "name": "_skuTypeId",
          "type": "uint256"
        }
      ],
      "name": "getSKUType",
      "outputs": [
        {
          "name": "",
          "type": "uint256"
        },
        {
          "name": "",
          "type": "uint256"
        },
        {
          "name": "",
          "type": "string"
        },
        {
          "name": "",
          "type": "string"
        }
      ],
      "payable": false,
      "stateMutability": "view",
      "type": "function"
    },
    {
      "constant": true,
      "inputs": [
        {
          "name": "_owner",
          "type": "address"
        }
      ],
      "name": "getShopIds",
      "outputs": [
        {
          "name": "",
          "type": "uint256[]"
        }
      ],
      "payable": false,
      "stateMutability": "view",
      "type": "function"
    },
    {
      "constant": true,
      "inputs": [
        {
          "name": "_shopId",
          "type": "uint256"
        }
      ],
      "name": "getShop",
      "outputs": [
        {
          "name": "",
          "type": "address"
        },
        {
          "name": "",
          "type": "uint256"
        },
        {
          "name": "",
          "type": "string"
        },
        {
          "name": "",
          "type": "string"
        },
        {
          "name": "",
          "type": "string"
        }
      ],
      "payable": false,
      "stateMutability": "view",
      "type": "function"
    },
    {
      "constant": true,
      "inputs": [
        {
          "name": "_shopId",
          "type": "uint256"
        }
      ],
      "name": "getShopOwner",
      "outputs": [
        {
          "name": "",
          "type": "address"
        }
      ],
      "payable": false,
      "stateMutability": "view",
      "type": "function"
    }
  ],
  "bytecode": "0x60806040526000600160006101000a81548160ff02191690831515021790555060018060006101000a81548160ff02191690831515021790555062000089336040805190810160405280601181526020017f726f6c652f73797374656d2d61646d696e000000000000000000000000000000815250620000df640100000000026401000000009004565b620000d9336040805190810160405280601481526020017f726f6c652f6672616e63686973652d6f776e6572000000000000000000000000815250620000df640100000000026401000000009004565b62000286565b6200016e826000836040518082805190602001908083835b6020831015156200011e5780518252602082019150602081019050602083039250620000f7565b6001836020036101000a0380198251168184511680821785525050505050509050019150509081526020016040518091039020620002286401000000000262003fef179091906401000000009004565b8173ffffffffffffffffffffffffffffffffffffffff167fbfec83d64eaa953f2708271a023ab9ee82057f8f3578d548c1a4ba0b5b700489826040518080602001828103825283818151815260200191508051906020019080838360005b83811015620001e9578082015181840152602081019050620001cc565b50505050905090810190601f168015620002175780820380516001836020036101000a031916815260200191505b509250505060405180910390a25050565b60018260000160008373ffffffffffffffffffffffffffffffffffffffff1673ffffffffffffffffffffffffffffffffffffffff16815260200190815260200160002060006101000a81548160ff0219169083151502179055505050565b6141de80620002966000396000f3006080604052600436106101ac576000357c0100000000000000000000000000000000000000000000000000000000900463ffffffff16806301ba7539146101b15780630988ca8c146101fc578063199f0b1714610285578063217fe6c61461031d5780632cf0d92a146103be5780633349bacc1461042b57806335007f0e1461045a578063377946f2146105a55780633f4ba83a146106275780633fbe2c551461063e57806345243120146106c057806345b727f314610703578063488d136e146108bb57806351b4fc7e1461092c578063531e005b1461098d57806356de8ccd14610aad5780635c975abb14610b3d5780635ded461a14610b6c5780636af04a5714610bb7578063713aca7414610c0e5780637158798814610dc65780637ce6469914610e095780637e1ae97614610e545780638456cb5914610ee45780638ae7f10514610efb578063910339401461101b57806392bec5ee1461106657806397fcb081146110e5578063acb123a6146111e8578063ae27eda814611333578063ae539d80146113b5578063cb1b2001146113f6578063e0456ec914611486578063f29d498a146114f3575b600080fd5b3480156101bd57600080fd5b506101e66004803603810190808035906020019092919080359060200190929190505050611542565b6040518082815260200191505060405180910390f35b34801561020857600080fd5b50610283600480360381019080803573ffffffffffffffffffffffffffffffffffffffff169060200190929190803590602001908201803590602001908080601f0160208091040260200160405190810160405280939291908181526020018383808284378201915050505050509192919290505050611572565b005b34801561029157600080fd5b506102c6600480360381019080803573ffffffffffffffffffffffffffffffffffffffff1690602001909291905050506115f3565b6040518080602001828103825283818151815260200191508051906020019060200280838360005b838110156103095780820151818401526020810190506102ee565b505050509050019250505060405180910390f35b34801561032957600080fd5b506103a4600480360381019080803573ffffffffffffffffffffffffffffffffffffffff169060200190929190803590602001908201803590602001908080601f016020809104026020016040519081016040528093929190818152602001838380828437820191505050505050919291929050505061168a565b604051808215151515815260200191505060405180910390f35b3480156103ca57600080fd5b506103e960048036038101908080359060200190929190505050611711565b604051808273ffffffffffffffffffffffffffffffffffffffff1673ffffffffffffffffffffffffffffffffffffffff16815260200191505060405180910390f35b34801561043757600080fd5b50610440611744565b604051808215151515815260200191505060405180910390f35b34801561046657600080fd5b506104856004803603810190808035906020019092919050505061174d565b604051808a815260200189815260200188815260200187815260200180602001806020018615151515815260200185151515158152602001848152602001838103835288818151815260200191508051906020019080838360005b838110156104fb5780820151818401526020810190506104e0565b50505050905090810190601f1680156105285780820380516001836020036101000a031916815260200191505b50838103825287818151815260200191508051906020019080838360005b83811015610561578082015181840152602081019050610546565b50505050905090810190601f16801561058e5780820380516001836020036101000a031916815260200191505b509b50505050505050505050505060405180910390f35b3480156105b157600080fd5b506105d0600480360381019080803590602001909291905050506118f4565b6040518080602001828103825283818151815260200191508051906020019060200280838360005b838110156106135780820151818401526020810190506105f8565b505050509050019250505060405180910390f35b34801561063357600080fd5b5061063c61195f565b005b34801561064a57600080fd5b5061066960048036038101908080359060200190929190505050611a02565b6040518080602001828103825283818151815260200191508051906020019060200280838360005b838110156106ac578082015181840152602081019050610691565b505050509050019250505060405180910390f35b3480156106cc57600080fd5b50610701600480360381019080803573ffffffffffffffffffffffffffffffffffffffff169060200190929190505050611a6d565b005b34801561070f57600080fd5b5061072e60048036038101908080359060200190929190505050611bb0565b604051808673ffffffffffffffffffffffffffffffffffffffff1673ffffffffffffffffffffffffffffffffffffffff168152602001858152602001806020018060200180602001848103845287818151815260200191508051906020019080838360005b838110156107ae578082015181840152602081019050610793565b50505050905090810190601f1680156107db5780820380516001836020036101000a031916815260200191505b50848103835286818151815260200191508051906020019080838360005b838110156108145780820151818401526020810190506107f9565b50505050905090810190601f1680156108415780820380516001836020036101000a031916815260200191505b50848103825285818151815260200191508051906020019080838360005b8381101561087a57808201518184015260208101905061085f565b50505050905090810190601f1680156108a75780820380516001836020036101000a031916815260200191505b509850505050505050505060405180910390f35b3480156108c757600080fd5b5061091660048036038101908080359060200190929190803590602001908201803590602001919091929391929390803590602001908201803590602001919091929391929390505050611e7b565b6040518082815260200191505060405180910390f35b34801561093857600080fd5b50610977600480360381019080803573ffffffffffffffffffffffffffffffffffffffff169060200190929190803590602001909291905050506120a3565b6040518082815260200191505060405180910390f35b34801561099957600080fd5b506109b8600480360381019080803590602001909291905050506120d3565b604051808581526020018481526020018060200180602001838103835285818151815260200191508051906020019080838360005b83811015610a085780820151818401526020810190506109ed565b50505050905090810190601f168015610a355780820380516001836020036101000a031916815260200191505b50838103825284818151815260200191508051906020019080838360005b83811015610a6e578082015181840152602081019050610a53565b50505050905090810190601f168015610a9b5780820380516001836020036101000a031916815260200191505b50965050505050505060405180910390f35b348015610ab957600080fd5b50610ac2612242565b6040518080602001828103825283818151815260200191508051906020019080838360005b83811015610b02578082015181840152602081019050610ae7565b50505050905090810190601f168015610b2f5780820380516001836020036101000a031916815260200191505b509250505060405180910390f35b348015610b4957600080fd5b50610b5261227b565b604051808215151515815260200191505060405180910390f35b348015610b7857600080fd5b50610ba1600480360381019080803590602001909291908035906020019092919050505061228e565b6040518082815260200191505060405180910390f35b348015610bc357600080fd5b50610bcc6122be565b604051808273ffffffffffffffffffffffffffffffffffffffff1673ffffffffffffffffffffffffffffffffffffffff16815260200191505060405180910390f35b348015610c1a57600080fd5b50610c39600480360381019080803590602001909291905050506122e3565b604051808673ffffffffffffffffffffffffffffffffffffffff1673ffffffffffffffffffffffffffffffffffffffff168152602001858152602001806020018060200180602001848103845287818151815260200191508051906020019080838360005b83811015610cb9578082015181840152602081019050610c9e565b50505050905090810190601f168015610ce65780820380516001836020036101000a031916815260200191505b50848103835286818151815260200191508051906020019080838360005b83811015610d1f578082015181840152602081019050610d04565b50505050905090810190601f168015610d4c5780820380516001836020036101000a031916815260200191505b50848103825285818151815260200191508051906020019080838360005b83811015610d85578082015181840152602081019050610d6a565b50505050905090810190601f168015610db25780820380516001836020036101000a031916815260200191505b509850505050505050505060405180910390f35b348015610dd257600080fd5b50610e07600480360381019080803573ffffffffffffffffffffffffffffffffffffffff169060200190929190505050612510565b005b348015610e1557600080fd5b50610e3e6004803603810190808035906020019092919080359060200190929190505050612610565b6040518082815260200191505060405180910390f35b348015610e6057600080fd5b50610e69612b4f565b6040518080602001828103825283818151815260200191508051906020019080838360005b83811015610ea9578082015181840152602081019050610e8e565b50505050905090810190601f168015610ed65780820380516001836020036101000a031916815260200191505b509250505060405180910390f35b348015610ef057600080fd5b50610ef9612b88565b005b348015610f0757600080fd5b50610f2660048036038101908080359060200190929190505050612c2b565b604051808581526020018481526020018060200180602001838103835285818151815260200191508051906020019080838360005b83811015610f76578082015181840152602081019050610f5b565b50505050905090810190601f168015610fa35780820380516001836020036101000a031916815260200191505b50838103825284818151815260200191508051906020019080838360005b83811015610fdc578082015181840152602081019050610fc1565b50505050905090810190601f1680156110095780820380516001836020036101000a031916815260200191505b50965050505050505060405180910390f35b34801561102757600080fd5b506110506004803603810190808035906020019092919080359060200190929190505050612dfa565b6040518082815260200191505060405180910390f35b34801561107257600080fd5b506110cf600480360381019080803590602001908201803590602001919091929391929390803590602001908201803590602001919091929391929390803590602001908201803590602001919091929391929390505050612e2a565b6040518082815260200191505060405180910390f35b3480156110f157600080fd5b506111d2600480360381019080803590602001909291908035906020019092919080359060200190929190803590602001908201803590602001908080601f0160208091040260200160405190810160405280939291908181526020018383808284378201915050505050509192919290803590602001908201803590602001908080601f01602080910402602001604051908101604052809392919081815260200183838082843782019150505050505091929192908035151590602001909291908035151590602001909291908035906020019092919050505061315f565b6040518082815260200191505060405180910390f35b3480156111f457600080fd5b506112136004803603810190808035906020019092919050505061343f565b604051808a815260200189815260200188815260200187815260200180602001806020018615151515815260200185151515158152602001848152602001838103835288818151815260200191508051906020019080838360005b8381101561128957808201518184015260208101905061126e565b50505050905090810190601f1680156112b65780820380516001836020036101000a031916815260200191505b50838103825287818151815260200191508051906020019080838360005b838110156112ef5780820151818401526020810190506112d4565b50505050905090810190601f16801561131c5780820380516001836020036101000a031916815260200191505b509b50505050505050505050505060405180910390f35b34801561133f57600080fd5b5061135e60048036038101908080359060200190929190505050613695565b6040518080602001828103825283818151815260200191508051906020019060200280838360005b838110156113a1578082015181840152602081019050611386565b505050509050019250505060405180910390f35b3480156113c157600080fd5b506113e060048036038101908080359060200190929190505050613700565b6040518082815260200191505060405180910390f35b34801561140257600080fd5b5061140b613d39565b6040518080602001828103825283818151815260200191508051906020019080838360005b8381101561144b578082015181840152602081019050611430565b50505050905090810190601f1680156114785780820380516001836020036101000a031916815260200191505b509250505060405180910390f35b34801561149257600080fd5b506114b160048036038101908080359060200190929190505050613d72565b604051808273ffffffffffffffffffffffffffffffffffffffff1673ffffffffffffffffffffffffffffffffffffffff16815260200191505060405180910390f35b3480156114ff57600080fd5b506115286004803603810190808035906020019092919080359060200190929190505050613dd0565b604051808215151515815260200191505060405180910390f35b60086020528160005260406000208181548110151561155d57fe5b90600052602060002001600091509150505481565b6115ef826000836040518082805190602001908083835b6020831015156115ae5780518252602082019150602081019050602083039250611589565b6001836020036101000a0380198251168184511680821785525050505050509050019150509081526020016040518091039020613e3390919063ffffffff16565b5050565b6060600760008373ffffffffffffffffffffffffffffffffffffffff1673ffffffffffffffffffffffffffffffffffffffff16815260200190815260200160002080548060200260200160405190810160405280929190818152602001828054801561167e57602002820191906000526020600020905b81548152602001906001019080831161166a575b50505050509050919050565b6000611709836000846040518082805190602001908083835b6020831015156116c857805182526020820191506020810190506020830392506116a3565b6001836020036101000a0380198251168184511680821785525050505050509050019150509081526020016040518091039020613e4c90919063ffffffff16565b905092915050565b60066020528060005260406000206000915054906101000a900473ffffffffffffffffffffffffffffffffffffffff1681565b60006001905090565b60058181548110151561175c57fe5b9060005260206000209060080201600091509050806000015490806001015490806002015490806003015490806004018054600181600116156101000203166002900480601f0160208091040260200160405190810160405280929190818152602001828054600181600116156101000203166002900480156118205780601f106117f557610100808354040283529160200191611820565b820191906000526020600020905b81548152906001019060200180831161180357829003601f168201915b505050505090806005018054600181600116156101000203166002900480601f0160208091040260200160405190810160405280929190818152602001828054600181600116156101000203166002900480156118be5780601f10611893576101008083540402835291602001916118be565b820191906000526020600020905b8154815290600101906020018083116118a157829003601f168201915b5050505050908060060160009054906101000a900460ff16908060060160019054906101000a900460ff16908060070154905089565b60606009600083815260200190815260200160002080548060200260200160405190810160405280929190818152602001828054801561195357602002820191906000526020600020905b81548152602001906001019080831161193f575b50505050509050919050565b61199e336040805190810160405280601181526020017f726f6c652f73797374656d2d61646d696e000000000000000000000000000000815250611572565b600160009054906101000a900460ff1615156119b957600080fd5b6000600160006101000a81548160ff0219169083151502179055507f0e5e3b3fb504c22cf5c42fa07d521225937514c654007e1f12646f89768d6f9460405160405180910390a1565b606060086000838152602001908152602001600020805480602002602001604051908101604052809291908181526020018280548015611a6157602002820191906000526020600020905b815481526020019060010190808311611a4d575b50505050509050919050565b6000611aae336040805190810160405280601181526020017f726f6c652f73797374656d2d61646d696e000000000000000000000000000000815250611572565b81905060008173ffffffffffffffffffffffffffffffffffffffff1663c818faec60006040518263ffffffff167c010000000000000000000000000000000000000000000000000000000002815260040180828152602001915050602060405180830381600087803b158015611b2357600080fd5b505af1158015611b37573d6000803e3d6000fd5b505050506040513d6020811015611b4d57600080fd5b810190808051906020019092919050505010151515611b6b57600080fd5b80600260006101000a81548173ffffffffffffffffffffffffffffffffffffffff021916908373ffffffffffffffffffffffffffffffffffffffff1602179055505050565b6000806060806060611bc061404d565b6003805490508711151515611bd457600080fd5b600387815481101515611be357fe5b906000526020600020906005020160a060405190810160405290816000820160009054906101000a900473ffffffffffffffffffffffffffffffffffffffff1673ffffffffffffffffffffffffffffffffffffffff1673ffffffffffffffffffffffffffffffffffffffff16815260200160018201548152602001600282018054600181600116156101000203166002900480601f016020809104026020016040519081016040528092919081815260200182805460018160011615610100020316600290048015611cf65780601f10611ccb57610100808354040283529160200191611cf6565b820191906000526020600020905b815481529060010190602001808311611cd957829003601f168201915b50505050508152602001600382018054600181600116156101000203166002900480601f016020809104026020016040519081016040528092919081815260200182805460018160011615610100020316600290048015611d985780601f10611d6d57610100808354040283529160200191611d98565b820191906000526020600020905b815481529060010190602001808311611d7b57829003601f168201915b50505050508152602001600482018054600181600116156101000203166002900480601f016020809104026020016040519081016040528092919081815260200182805460018160011615610100020316600290048015611e3a5780601f10611e0f57610100808354040283529160200191611e3a565b820191906000526020600020905b815481529060010190602001808311611e1d57829003601f168201915b505050505081525050905080600001518160200151826040015183606001518460800151829250819150809050955095509550955095505091939590929450565b6000808660006006600083815260200190815260200160002060009054906101000a900473ffffffffffffffffffffffffffffffffffffffff1690508073ffffffffffffffffffffffffffffffffffffffff163373ffffffffffffffffffffffffffffffffffffffff16141515611ef157600080fd5b600480549050925060046080604051908101604052808b81526020018581526020018a8a8080601f016020809104026020016040519081016040528093929190818152602001838380828437820191505050505050815260200188888080601f0160208091040260200160405190810160405280939291908181526020018383808284378201915050505050508152509080600181540180825580915050906001820390600052602060002090600402016000909192909190915060008201518160000155602082015181600101556040820151816002019080519060200190611fdc929190614093565b506060820151816003019080519060200190611ff9929190614093565b50505050600860008a8152602001908152602001600020839080600181540180825580915050906001820390600052602060002001600090919290919091505550887f984e9c57bf3c704c112a30dea33416efd7969f90a14a69b9cb3842db1fdb5c7a848a8a60405180848152602001806020018281038252848482818152602001925080828437820191505094505050505060405180910390a282935050505095945050505050565b6007602052816000526040600020818154811015156120be57fe5b90600052602060002001600091509150505481565b6004818154811015156120e257fe5b9060005260206000209060040201600091509050806000015490806001015490806002018054600181600116156101000203166002900480601f01602080910402602001604051908101604052809291908181526020018280546001816001161561010002031660029004801561219a5780601f1061216f5761010080835404028352916020019161219a565b820191906000526020600020905b81548152906001019060200180831161217d57829003601f168201915b505050505090806003018054600181600116156101000203166002900480601f0160208091040260200160405190810160405280929190818152602001828054600181600116156101000203166002900480156122385780601f1061220d57610100808354040283529160200191612238565b820191906000526020600020905b81548152906001019060200180831161221b57829003601f168201915b5050505050905084565b6040805190810160405280601181526020017f726f6c652f73797374656d2d61646d696e00000000000000000000000000000081525081565b600160009054906101000a900460ff1681565b6009602052816000526040600020818154811015156122a957fe5b90600052602060002001600091509150505481565b6001809054906101000a900473ffffffffffffffffffffffffffffffffffffffff1681565b6003818154811015156122f257fe5b90600052602060002090600502016000915090508060000160009054906101000a900473ffffffffffffffffffffffffffffffffffffffff1690806001015490806002018054600181600116156101000203166002900480601f0160208091040260200160405190810160405280929190818152602001828054600181600116156101000203166002900480156123ca5780601f1061239f576101008083540402835291602001916123ca565b820191906000526020600020905b8154815290600101906020018083116123ad57829003601f168201915b505050505090806003018054600181600116156101000203166002900480601f0160208091040260200160405190810160405280929190818152602001828054600181600116156101000203166002900480156124685780601f1061243d57610100808354040283529160200191612468565b820191906000526020600020905b81548152906001019060200180831161244b57829003601f168201915b505050505090806004018054600181600116156101000203166002900480601f0160208091040260200160405190810160405280929190818152602001828054600181600116156101000203166002900480156125065780601f106124db57610100808354040283529160200191612506565b820191906000526020600020905b8154815290600101906020018083116124e957829003601f168201915b5050505050905085565b61254f336040805190810160405280601181526020017f726f6c652f73797374656d2d61646d696e000000000000000000000000000000815250611572565b600160009054906101000a900460ff16151561256a57600080fd5b806001806101000a81548173ffffffffffffffffffffffffffffffffffffffff021916908373ffffffffffffffffffffffffffffffffffffffff1602179055507f450db8da6efbe9c22f2347f7c2021231df1fc58d3ae9a2fa75d39fa44619930581604051808273ffffffffffffffffffffffffffffffffffffffff1673ffffffffffffffffffffffffffffffffffffffff16815260200191505060405180910390a150565b600080600080851015156127155760038581548110151561262d57fe5b9060005260206000209060050201600401604051602001808280546001816001161561010002031660029004801561269c5780601f1061267a57610100808354040283529182019161269c565b820191906000526020600020905b815481529060010190602001808311612688575b50509150506040516020818303038152906040526040518082805190602001908083835b6020831015156126e557805182526020820191506020810190506020830392506126c0565b6001836020036101000a038019825116818451168082178552505050505050905001915050604051809103902091505b60405180807f555344000000000000000000000000000000000000000000000000000000000081525060030190506040518091039020600019168260001916141561282e57600260009054906101000a900473ffffffffffffffffffffffffffffffffffffffff1673ffffffffffffffffffffffffffffffffffffffff16630c560c6460006040518263ffffffff167c010000000000000000000000000000000000000000000000000000000002815260040180828152602001915050602060405180830381600087803b1580156127ec57600080fd5b505af1158015612800573d6000803e3d6000fd5b505050506040513d602081101561281657600080fd5b81019080805190602001909291905050509050612b32565b60405180807f455552000000000000000000000000000000000000000000000000000000000081525060030190506040518091039020600019168260001916141561294757600260009054906101000a900473ffffffffffffffffffffffffffffffffffffffff1673ffffffffffffffffffffffffffffffffffffffff1663d67ae54d60006040518263ffffffff167c010000000000000000000000000000000000000000000000000000000002815260040180828152602001915050602060405180830381600087803b15801561290557600080fd5b505af1158015612919573d6000803e3d6000fd5b505050506040513d602081101561292f57600080fd5b81019080805190602001909291905050509050612b31565b60405180807f4742500000000000000000000000000000000000000000000000000000000000815250600301905060405180910390206000191682600019161415612a6057600260009054906101000a900473ffffffffffffffffffffffffffffffffffffffff1673ffffffffffffffffffffffffffffffffffffffff16635a8ef28a60006040518263ffffffff167c010000000000000000000000000000000000000000000000000000000002815260040180828152602001915050602060405180830381600087803b158015612a1e57600080fd5b505af1158015612a32573d6000803e3d6000fd5b505050506040513d6020811015612a4857600080fd5b81019080805190602001909291905050509050612b30565b600260009054906101000a900473ffffffffffffffffffffffffffffffffffffffff1673ffffffffffffffffffffffffffffffffffffffff16630c560c6460006040518263ffffffff167c010000000000000000000000000000000000000000000000000000000002815260040180828152602001915050602060405180830381600087803b158015612af257600080fd5b505af1158015612b06573d6000803e3d6000fd5b505050506040513d6020811015612b1c57600080fd5b810190808051906020019092919050505090505b5b5b612b458185613ea590919063ffffffff16565b9250505092915050565b6040805190810160405280600f81526020017f726f6c652f73686f702d6f776e6572000000000000000000000000000000000081525081565b612bc7336040805190810160405280601181526020017f726f6c652f73797374656d2d61646d696e000000000000000000000000000000815250611572565b600160009054906101000a900460ff16151515612be357600080fd5b60018060006101000a81548160ff0219169083151502179055507fab35696f06e428ebc5ceba8cd17f8fed287baf43440206d1943af1ee53e6d26760405160405180910390a1565b600080606080612c39614113565b6004805490508611151515612c4d57600080fd5b600486815481101515612c5c57fe5b9060005260206000209060040201608060405190810160405290816000820154815260200160018201548152602001600282018054600181600116156101000203166002900480601f016020809104026020016040519081016040528092919081815260200182805460018160011615610100020316600290048015612d235780601f10612cf857610100808354040283529160200191612d23565b820191906000526020600020905b815481529060010190602001808311612d0657829003601f168201915b50505050508152602001600382018054600181600116156101000203166002900480601f016020809104026020016040519081016040528092919081815260200182805460018160011615610100020316600290048015612dc55780601f10612d9a57610100808354040283529160200191612dc5565b820191906000526020600020905b815481529060010190602001808311612da857829003601f168201915b505050505081525050905080600001518160200151826040015183606001518191508090509450945094509450509193509193565b600a60205281600052604060002081815481101515612e1557fe5b90600052602060002001600091509150505481565b60008060006003805490509150339050600360a0604051908101604052808373ffffffffffffffffffffffffffffffffffffffff1681526020018481526020018b8b8080601f016020809104026020016040519081016040528093929190818152602001838380828437820191505050505050815260200189898080601f016020809104026020016040519081016040528093929190818152602001838380828437820191505050505050815260200187878080601f0160208091040260200160405190810160405280939291908181526020018383808284378201915050505050508152509080600181540180825580915050906001820390600052602060002090600502016000909192909190915060008201518160000160006101000a81548173ffffffffffffffffffffffffffffffffffffffff021916908373ffffffffffffffffffffffffffffffffffffffff160217905550602082015181600101556040820151816002019080519060200190612fa8929190614093565b506060820151816003019080519060200190612fc5929190614093565b506080820151816004019080519060200190612fe2929190614093565b50505050806006600084815260200190815260200160002060006101000a81548173ffffffffffffffffffffffffffffffffffffffff021916908373ffffffffffffffffffffffffffffffffffffffff160217905550600760008273ffffffffffffffffffffffffffffffffffffffff1673ffffffffffffffffffffffffffffffffffffffff1681526020019081526020016000208290806001815401808255809150509060018203906000526020600020016000909192909190915055506130e0816040805190810160405280600f81526020017f726f6c652f73686f702d6f776e65720000000000000000000000000000000000815250613ebb565b8073ffffffffffffffffffffffffffffffffffffffff167f6483fc0067ba37ac182934414561e6a0483fe2c28473508471330bc69afee817838b8b60405180848152602001806020018281038252848482818152602001925080828437820191505094505050505060405180910390a281925050509695505050505050565b6000808960006006600083815260200190815260200160002060009054906101000a900473ffffffffffffffffffffffffffffffffffffffff1690508073ffffffffffffffffffffffffffffffffffffffff163373ffffffffffffffffffffffffffffffffffffffff161415156131d557600080fd5b60008a1115156131e457600080fd5b60058054905092506005610120604051908101604052808e81526020018581526020018d81526020018c81526020018b81526020018a81526020018915158152602001881515815260200187815250908060018154018082558091505090600182039060005260206000209060080201600090919290919091506000820151816000015560208201518160010155604082015181600201556060820151816003015560808201518160040190805190602001906132a2929190614093565b5060a08201518160050190805190602001906132bf929190614093565b5060c08201518160060160006101000a81548160ff02191690831515021790555060e08201518160060160016101000a81548160ff0219169083151502179055506101008201518160070155505050600a60008d8152602001908152602001600020839080600181540180825580915050906001820390600052602060002001600090919290919091505550600960008c81526020019081526020016000208390806001815401808255809150509060018203906000526020600020016000909192909190915055508b7fd69554e5413a4863105d3af271dbb7053ecbdb96c22b4ed508331bbb4a993a63848b6040518083815260200180602001828103825283818151815260200191508051906020019080838360005b838110156133f25780820151818401526020810190506133d7565b50505050905090810190601f16801561341f5780820380516001836020036101000a031916815260200191505b50935050505060405180910390a282935050505098975050505050505050565b600080600080606080600080600061345561413c565b6005805490508b1115151561346957600080fd5b60058b81548110151561347857fe5b9060005260206000209060080201610120604051908101604052908160008201548152602001600182015481526020016002820154815260200160038201548152602001600482018054600181600116156101000203166002900480601f0160208091040260200160405190810160405280929190818152602001828054600181600116156101000203166002900480156135545780601f1061352957610100808354040283529160200191613554565b820191906000526020600020905b81548152906001019060200180831161353757829003601f168201915b50505050508152602001600582018054600181600116156101000203166002900480601f0160208091040260200160405190810160405280929190818152602001828054600181600116156101000203166002900480156135f65780601f106135cb576101008083540402835291602001916135f6565b820191906000526020600020905b8154815290600101906020018083116135d957829003601f168201915b505050505081526020016006820160009054906101000a900460ff161515151581526020016006820160019054906101000a900460ff161515151581526020016007820154815250509050806000015181602001518260400151836060015184608001518560a001518660c001518760e00151886101000151849450839350995099509950995099509950995099509950509193959799909294969850565b6060600a60008381526020019081526020016000208054806020026020016040519081016040528092919081815260200182805480156136f457602002820191906000526020600020905b8154815260200190600101908083116136e0575b50505050509050919050565b600061370a61413c565b60008060058581548110151561371c57fe5b9060005260206000209060080201610120604051908101604052908160008201548152602001600182015481526020016002820154815260200160038201548152602001600482018054600181600116156101000203166002900480601f0160208091040260200160405190810160405280929190818152602001828054600181600116156101000203166002900480156137f85780601f106137cd576101008083540402835291602001916137f8565b820191906000526020600020905b8154815290600101906020018083116137db57829003601f168201915b50505050508152602001600582018054600181600116156101000203166002900480601f01602080910402602001604051908101604052809291908181526020018280546001816001161561010002031660029004801561389a5780601f1061386f5761010080835404028352916020019161389a565b820191906000526020600020905b81548152906001019060200180831161387d57829003601f168201915b505050505081526020016006820160009054906101000a900460ff161515151581526020016006820160019054906101000a900460ff161515151581526020016007820154815250509250600383600001518154811015156138f857fe5b906000526020600020906005020160040160405160200180828054600181600116156101000203166002900480156139675780601f10613945576101008083540402835291820191613967565b820191906000526020600020905b815481529060010190602001808311613953575b50509150506040516020818303038152906040526040518082805190602001908083835b6020831015156139b0578051825260208201915060208101905060208303925061398b565b6001836020036101000a0380198251168184511680821785525050505050509050019150506040518091039020915060405180807f5553440000000000000000000000000000000000000000000000000000000000815250600301905060405180910390206000191682600019161415613af857600260009054906101000a900473ffffffffffffffffffffffffffffffffffffffff1673ffffffffffffffffffffffffffffffffffffffff16630c560c6460006040518263ffffffff167c010000000000000000000000000000000000000000000000000000000002815260040180828152602001915050602060405180830381600087803b158015613ab657600080fd5b505af1158015613aca573d6000803e3d6000fd5b505050506040513d6020811015613ae057600080fd5b81019080805190602001909291905050509050613d28565b60405180807f4555520000000000000000000000000000000000000000000000000000000000815250600301905060405180910390206000191682600019161415613c1157600260009054906101000a900473ffffffffffffffffffffffffffffffffffffffff1673ffffffffffffffffffffffffffffffffffffffff1663d67ae54d60006040518263ffffffff167c010000000000000000000000000000000000000000000000000000000002815260040180828152602001915050602060405180830381600087803b158015613bcf57600080fd5b505af1158015613be3573d6000803e3d6000fd5b505050506040513d6020811015613bf957600080fd5b81019080805190602001909291905050509050613d27565b60405180807f4742500000000000000000000000000000000000000000000000000000000000815250600301905060405180910390206000191682600019161415613d2657600260009054906101000a900473ffffffffffffffffffffffffffffffffffffffff1673ffffffffffffffffffffffffffffffffffffffff16635a8ef28a60006040518263ffffffff167c010000000000000000000000000000000000000000000000000000000002815260040180828152602001915050602060405180830381600087803b158015613ce857600080fd5b505af1158015613cfc573d6000803e3d6000fd5b505050506040513d6020811015613d1257600080fd5b810190808051906020019092919050505090505b5b5b826060015181029350505050919050565b6040805190810160405280601481526020017f726f6c652f6672616e63686973652d6f776e657200000000000000000000000081525081565b60006003805490508211151515613d8857600080fd5b600382815481101515613d9757fe5b906000526020600020906005020160000160009054906101000a900473ffffffffffffffffffffffffffffffffffffffff169050919050565b6000600583815481101515613de157fe5b906000526020600020906008020160060160019054906101000a900460ff161580613e2b5750600583815481101515613e1657fe5b90600052602060002090600802016007015482105b905092915050565b613e3d8282613e4c565b1515613e4857600080fd5b5050565b60008260000160008373ffffffffffffffffffffffffffffffffffffffff1673ffffffffffffffffffffffffffffffffffffffff16815260200190815260200160002060009054906101000a900460ff16905092915050565b60008183811515613eb257fe5b04905092915050565b613f38826000836040518082805190602001908083835b602083101515613ef75780518252602082019150602081019050602083039250613ed2565b6001836020036101000a0380198251168184511680821785525050505050509050019150509081526020016040518091039020613fef90919063ffffffff16565b8173ffffffffffffffffffffffffffffffffffffffff167fbfec83d64eaa953f2708271a023ab9ee82057f8f3578d548c1a4ba0b5b700489826040518080602001828103825283818151815260200191508051906020019080838360005b83811015613fb1578082015181840152602081019050613f96565b50505050905090810190601f168015613fde5780820380516001836020036101000a031916815260200191505b509250505060405180910390a25050565b60018260000160008373ffffffffffffffffffffffffffffffffffffffff1673ffffffffffffffffffffffffffffffffffffffff16815260200190815260200160002060006101000a81548160ff0219169083151502179055505050565b60a060405190810160405280600073ffffffffffffffffffffffffffffffffffffffff168152602001600081526020016060815260200160608152602001606081525090565b828054600181600116156101000203166002900490600052602060002090601f016020900481019282601f106140d457805160ff1916838001178555614102565b82800160010185558215614102579182015b828111156141015782518255916020019190600101906140e6565b5b50905061410f919061418d565b5090565b608060405190810160405280600081526020016000815260200160608152602001606081525090565b61012060405190810160405280600081526020016000815260200160008152602001600081526020016060815260200160608152602001600015158152602001600015158152602001600081525090565b6141af91905b808211156141ab576000816000905550600101614193565b5090565b905600a165627a7a72305820608d1b4ccd1e823475bc3b996cc06291b2dda0a2d8656d035c0e8cc5ddd349ad0029",
  "source": "pragma solidity ^0.4.24;\n\nimport \"./SKUFactory.sol\";\n\n\n/**\n * @title StockRoom\n * @notice Main contract for reference data side of the In-game Pro Shop System\n */\ncontract StockRoom is SKUFactory {\n\n    /**\n     * @notice Set the address of the FiatContract contract\n     */\n    function setFiatContractAddress(address _address) external onlySysAdmin {\n        FiatContractInterface candidateContract = FiatContractInterface(_address);\n\n        // Verify that we have the appropriate address\n        require(candidateContract.updatedAt(0) >= 0);\n\n        // Set the new contract address\n        fiatContract = candidateContract;\n    }\n\n    // @notice confirm this is a StockRoom contract\n    function isStockRoom() external pure returns (bool) {\n        return true;\n    }\n\n    // @notice get an item's price in Ether\n    function getPriceInEther(uint256 _skuId) external view returns (uint256) {\n        SKU memory sku = skus[_skuId];\n        bytes32 fiat = keccak256(abi.encodePacked(shops[sku.shopId].fiat));\n        uint256 ethQuote;\n        if (fiat == keccak256(\"USD\")) {\n            ethQuote = fiatContract.USD(0);\n        } else if (fiat == keccak256(\"EUR\")) {\n            ethQuote = fiatContract.EUR(0);\n        } else if (fiat == keccak256(\"GBP\")) {\n            ethQuote = fiatContract.GBP(0);\n        }\n        return ethQuote * sku.price;\n    }\n\n    // @notice convert an Ether amount to a Shop's fiat (e.g, for USD, balance in cents)\n    function convertEtherToFiat(uint256 _shopId, uint256 _balance) external view returns (uint256) {\n        bytes32 fiat;\n        if (_shopId >= 0) fiat = keccak256(abi.encodePacked(shops[_shopId].fiat));\n        uint256 ethQuote;\n        if (fiat == keccak256(\"USD\")) {\n            ethQuote = fiatContract.USD(0);\n        } else if (fiat == keccak256(\"EUR\")) {\n            ethQuote = fiatContract.EUR(0);\n        } else if (fiat == keccak256(\"GBP\")) {\n            ethQuote = fiatContract.GBP(0);\n        } else {\n            ethQuote = fiatContract.USD(0); // franchise\n        }\n        return _balance.div(ethQuote);\n    }\n\n    // @notice confirm whether an item can be minted based on limit and current item count\n    function canMintItem(uint256 _skuId, uint256 _itemCount) external view returns (bool) {\n        return (!skus[_skuId].limited || (_itemCount < skus[_skuId].limit));\n    }\n\n    // @notice Get the list of SKU Ids associated with a given SKUType\n    function getSKUTypeSKUIds(uint256 _skuTypeId) external view returns (uint[] memory) {\n        return skuTypeSKUs[_skuTypeId];\n    }\n\n    // @notice Get the list of SKU Ids associated with a given Shop\n    function getSKUIds(uint256 _shopId) external view returns (uint[] memory) {\n        return shopSKUs[_shopId];\n    }\n\n    // @notice Get a SKU's properties by ID\n    function getSKU(uint256 _skuId) external view returns (uint256, uint256, uint256, uint256, string, string, bool, bool, uint256)\n    {\n        require(_skuId <= skus.length);\n        SKU memory sku = skus[_skuId];\n        return (\n            sku.shopId,\n            sku.skuId,\n            sku.skuTypeId,\n            sku.price,\n            sku.name,\n            sku.description,\n            sku.consumable,\n            sku.limited,\n            sku.limit\n        );\n    }\n\n    // @notice Get the list of SKU Type Ids associated with a given Shop\n    function getSKUTypeIds(uint256 _shopId) external view returns (uint[] memory) {\n        return shopSKUTypes[_shopId];\n    }\n\n    // @notice Get a SKUTypes properties by ID\n    function getSKUType(uint256 _skuTypeId) external view returns (uint256, uint256, string, string) {\n        require(_skuTypeId <= skuTypes.length);\n        SKUType memory skuType = skuTypes[_skuTypeId];\n        return (\n            skuType.shopId,\n            skuType.skuTypeId,\n            skuType.name,\n            skuType.description\n        );\n    }\n\n    // @notice Get the list of Shop Ids associated with a given Owner\n    function getShopIds(address _owner) external view returns (uint[] memory) {\n        return ownedShops[_owner];\n    }\n\n    // @notice Get a Shop's properties by ID\n    function getShop(uint256 _shopId) external view returns (address, uint256, string, string, string) {\n        require(_shopId <= shops.length);\n        Shop memory shop = shops[_shopId];\n        return (\n            shop.owner,\n            shop.shopId,\n            shop.name,\n            shop.description,\n            shop.fiat\n        );\n    }\n\n    // @notice Get a Shop's owner\n    function getShopOwner(uint256 _shopId) external view returns (address) {\n        require(_shopId <= shops.length);\n        return shops[_shopId].owner;\n    }\n\n}",
  "sourcePath": "/Users/cliff/Documents/in-app-pro-shop/contracts/StockRoom.sol",
  "compiler": {
    "name": "solc",
    "version": "0.4.24+commit.e67f0147.Emscripten.clang"
  },
  "schemaVersion": "2.0.1",
  "updatedAt": "2019-01-03T17:49:31.615Z"
}