{
  "contractName": "StockRoom",
  "abi": [
    {
      "anonymous": false,
      "inputs": [],
      "name": "ContractPaused",
      "type": "event"
    },
    {
      "anonymous": false,
      "inputs": [],
      "name": "ContractUnpaused",
      "type": "event"
    },
    {
      "anonymous": false,
      "inputs": [
        {
          "indexed": false,
          "internalType": "address",
          "name": "newContract",
          "type": "address"
        }
      ],
      "name": "ContractUpgrade",
      "type": "event"
    },
    {
      "anonymous": false,
      "inputs": [
        {
          "indexed": true,
          "internalType": "uint256",
          "name": "shopId",
          "type": "uint256"
        },
        {
          "indexed": false,
          "internalType": "uint256",
          "name": "skuId",
          "type": "uint256"
        },
        {
          "indexed": false,
          "internalType": "string",
          "name": "name",
          "type": "string"
        }
      ],
      "name": "NewSKU",
      "type": "event"
    },
    {
      "anonymous": false,
      "inputs": [
        {
          "indexed": true,
          "internalType": "uint256",
          "name": "shopId",
          "type": "uint256"
        },
        {
          "indexed": false,
          "internalType": "uint256",
          "name": "skuTypeId",
          "type": "uint256"
        },
        {
          "indexed": false,
          "internalType": "string",
          "name": "name",
          "type": "string"
        }
      ],
      "name": "NewSKUType",
      "type": "event"
    },
    {
      "anonymous": false,
      "inputs": [
        {
          "indexed": true,
          "internalType": "address",
          "name": "owner",
          "type": "address"
        },
        {
          "indexed": false,
          "internalType": "uint256",
          "name": "shopId",
          "type": "uint256"
        },
        {
          "indexed": false,
          "internalType": "string",
          "name": "name",
          "type": "string"
        }
      ],
      "name": "NewShop",
      "type": "event"
    },
    {
      "constant": false,
      "inputs": [
        {
          "internalType": "uint256",
          "name": "_shopId",
          "type": "uint256"
        },
        {
          "internalType": "uint256",
          "name": "_skuTypeId",
          "type": "uint256"
        },
        {
          "internalType": "uint256",
          "name": "_price",
          "type": "uint256"
        },
        {
          "internalType": "string",
          "name": "_name",
          "type": "string"
        },
        {
          "internalType": "string",
          "name": "_desc",
          "type": "string"
        },
        {
          "internalType": "bool",
          "name": "_consumable",
          "type": "bool"
        },
        {
          "internalType": "bool",
          "name": "_limited",
          "type": "bool"
        },
        {
          "internalType": "uint256",
          "name": "_limit",
          "type": "uint256"
        }
      ],
      "name": "createSKU",
      "outputs": [
        {
          "internalType": "uint256",
          "name": "",
          "type": "uint256"
        }
      ],
      "payable": false,
      "stateMutability": "nonpayable",
      "type": "function"
    },
    {
      "constant": false,
      "inputs": [
        {
          "internalType": "uint256",
          "name": "_shopId",
          "type": "uint256"
        },
        {
          "internalType": "string",
          "name": "_name",
          "type": "string"
        },
        {
          "internalType": "string",
          "name": "_desc",
          "type": "string"
        }
      ],
      "name": "createSKUType",
      "outputs": [
        {
          "internalType": "uint256",
          "name": "",
          "type": "uint256"
        }
      ],
      "payable": false,
      "stateMutability": "nonpayable",
      "type": "function"
    },
    {
      "constant": false,
      "inputs": [
        {
          "internalType": "string",
          "name": "_name",
          "type": "string"
        },
        {
          "internalType": "string",
          "name": "_desc",
          "type": "string"
        },
        {
          "internalType": "string",
          "name": "_fiat",
          "type": "string"
        }
      ],
      "name": "createShop",
      "outputs": [
        {
          "internalType": "uint256",
          "name": "",
          "type": "uint256"
        }
      ],
      "payable": false,
      "stateMutability": "nonpayable",
      "type": "function"
    },
    {
      "constant": true,
      "inputs": [],
      "name": "newContractAddress",
      "outputs": [
        {
          "internalType": "address",
          "name": "",
          "type": "address"
        }
      ],
      "payable": false,
      "stateMutability": "view",
      "type": "function"
    },
    {
      "constant": true,
      "inputs": [
        {
          "internalType": "address",
          "name": "",
          "type": "address"
        },
        {
          "internalType": "uint256",
          "name": "",
          "type": "uint256"
        }
      ],
      "name": "ownedShops",
      "outputs": [
        {
          "internalType": "uint256",
          "name": "",
          "type": "uint256"
        }
      ],
      "payable": false,
      "stateMutability": "view",
      "type": "function"
    },
    {
      "constant": false,
      "inputs": [],
      "name": "pause",
      "outputs": [],
      "payable": false,
      "stateMutability": "nonpayable",
      "type": "function"
    },
    {
      "constant": true,
      "inputs": [],
      "name": "paused",
      "outputs": [
        {
          "internalType": "bool",
          "name": "",
          "type": "bool"
        }
      ],
      "payable": false,
      "stateMutability": "view",
      "type": "function"
    },
    {
      "constant": true,
      "inputs": [
        {
          "internalType": "uint256",
          "name": "",
          "type": "uint256"
        },
        {
          "internalType": "uint256",
          "name": "",
          "type": "uint256"
        }
      ],
      "name": "shopSKUTypes",
      "outputs": [
        {
          "internalType": "uint256",
          "name": "",
          "type": "uint256"
        }
      ],
      "payable": false,
      "stateMutability": "view",
      "type": "function"
    },
    {
      "constant": true,
      "inputs": [
        {
          "internalType": "uint256",
          "name": "",
          "type": "uint256"
        },
        {
          "internalType": "uint256",
          "name": "",
          "type": "uint256"
        }
      ],
      "name": "shopSKUs",
      "outputs": [
        {
          "internalType": "uint256",
          "name": "",
          "type": "uint256"
        }
      ],
      "payable": false,
      "stateMutability": "view",
      "type": "function"
    },
    {
      "constant": true,
      "inputs": [
        {
          "internalType": "uint256",
          "name": "",
          "type": "uint256"
        }
      ],
      "name": "shopToOwner",
      "outputs": [
        {
          "internalType": "address",
          "name": "",
          "type": "address"
        }
      ],
      "payable": false,
      "stateMutability": "view",
      "type": "function"
    },
    {
      "constant": true,
      "inputs": [
        {
          "internalType": "uint256",
          "name": "",
          "type": "uint256"
        }
      ],
      "name": "shops",
      "outputs": [
        {
          "internalType": "address",
          "name": "owner",
          "type": "address"
        },
        {
          "internalType": "uint256",
          "name": "shopId",
          "type": "uint256"
        },
        {
          "internalType": "string",
          "name": "name",
          "type": "string"
        },
        {
          "internalType": "string",
          "name": "description",
          "type": "string"
        },
        {
          "internalType": "string",
          "name": "fiat",
          "type": "string"
        }
      ],
      "payable": false,
      "stateMutability": "view",
      "type": "function"
    },
    {
      "constant": true,
      "inputs": [
        {
          "internalType": "uint256",
          "name": "",
          "type": "uint256"
        },
        {
          "internalType": "uint256",
          "name": "",
          "type": "uint256"
        }
      ],
      "name": "skuTypeSKUs",
      "outputs": [
        {
          "internalType": "uint256",
          "name": "",
          "type": "uint256"
        }
      ],
      "payable": false,
      "stateMutability": "view",
      "type": "function"
    },
    {
      "constant": true,
      "inputs": [
        {
          "internalType": "uint256",
          "name": "",
          "type": "uint256"
        }
      ],
      "name": "skuTypes",
      "outputs": [
        {
          "internalType": "uint256",
          "name": "shopId",
          "type": "uint256"
        },
        {
          "internalType": "uint256",
          "name": "skuTypeId",
          "type": "uint256"
        },
        {
          "internalType": "string",
          "name": "name",
          "type": "string"
        },
        {
          "internalType": "string",
          "name": "description",
          "type": "string"
        }
      ],
      "payable": false,
      "stateMutability": "view",
      "type": "function"
    },
    {
      "constant": true,
      "inputs": [
        {
          "internalType": "uint256",
          "name": "",
          "type": "uint256"
        }
      ],
      "name": "skus",
      "outputs": [
        {
          "internalType": "uint256",
          "name": "shopId",
          "type": "uint256"
        },
        {
          "internalType": "uint256",
          "name": "skuId",
          "type": "uint256"
        },
        {
          "internalType": "uint256",
          "name": "skuTypeId",
          "type": "uint256"
        },
        {
          "internalType": "uint256",
          "name": "price",
          "type": "uint256"
        },
        {
          "internalType": "string",
          "name": "name",
          "type": "string"
        },
        {
          "internalType": "string",
          "name": "description",
          "type": "string"
        },
        {
          "internalType": "bool",
          "name": "consumable",
          "type": "bool"
        },
        {
          "internalType": "bool",
          "name": "limited",
          "type": "bool"
        },
        {
          "internalType": "uint256",
          "name": "limit",
          "type": "uint256"
        }
      ],
      "payable": false,
      "stateMutability": "view",
      "type": "function"
    },
    {
      "constant": false,
      "inputs": [],
      "name": "unpause",
      "outputs": [],
      "payable": false,
      "stateMutability": "nonpayable",
      "type": "function"
    },
    {
      "constant": false,
      "inputs": [
        {
          "internalType": "address",
          "name": "_newAddress",
          "type": "address"
        }
      ],
      "name": "upgradeContract",
      "outputs": [],
      "payable": false,
      "stateMutability": "nonpayable",
      "type": "function"
    },
    {
      "constant": true,
      "inputs": [],
      "name": "upgraded",
      "outputs": [
        {
          "internalType": "bool",
          "name": "",
          "type": "bool"
        }
      ],
      "payable": false,
      "stateMutability": "view",
      "type": "function"
    },
    {
      "constant": false,
      "inputs": [
        {
          "internalType": "address",
          "name": "_address",
          "type": "address"
        }
      ],
      "name": "setFiatContractAddress",
      "outputs": [],
      "payable": false,
      "stateMutability": "nonpayable",
      "type": "function"
    },
    {
      "constant": true,
      "inputs": [],
      "name": "isStockRoom",
      "outputs": [
        {
          "internalType": "bool",
          "name": "",
          "type": "bool"
        }
      ],
      "payable": false,
      "stateMutability": "pure",
      "type": "function"
    },
    {
      "constant": true,
      "inputs": [
        {
          "internalType": "uint256",
          "name": "_skuId",
          "type": "uint256"
        }
      ],
      "name": "getPriceInEther",
      "outputs": [
        {
          "internalType": "uint256",
          "name": "",
          "type": "uint256"
        }
      ],
      "payable": false,
      "stateMutability": "view",
      "type": "function"
    },
    {
      "constant": true,
      "inputs": [
        {
          "internalType": "uint256",
          "name": "_shopId",
          "type": "uint256"
        },
        {
          "internalType": "uint256",
          "name": "_amount",
          "type": "uint256"
        }
      ],
      "name": "convertEtherToShopFiat",
      "outputs": [
        {
          "internalType": "uint256",
          "name": "",
          "type": "uint256"
        }
      ],
      "payable": false,
      "stateMutability": "view",
      "type": "function"
    },
    {
      "constant": true,
      "inputs": [
        {
          "internalType": "uint256",
          "name": "_amount",
          "type": "uint256"
        }
      ],
      "name": "convertEtherToFranchiseFiat",
      "outputs": [
        {
          "internalType": "uint256",
          "name": "",
          "type": "uint256"
        }
      ],
      "payable": false,
      "stateMutability": "view",
      "type": "function"
    },
    {
      "constant": true,
      "inputs": [
        {
          "internalType": "uint256",
          "name": "_skuId",
          "type": "uint256"
        },
        {
          "internalType": "uint256",
          "name": "_itemCount",
          "type": "uint256"
        }
      ],
      "name": "canMintItem",
      "outputs": [
        {
          "internalType": "bool",
          "name": "",
          "type": "bool"
        }
      ],
      "payable": false,
      "stateMutability": "view",
      "type": "function"
    },
    {
      "constant": true,
      "inputs": [
        {
          "internalType": "uint256",
          "name": "_skuTypeId",
          "type": "uint256"
        }
      ],
      "name": "getSKUTypeSKUIds",
      "outputs": [
        {
          "internalType": "uint256[]",
          "name": "",
          "type": "uint256[]"
        }
      ],
      "payable": false,
      "stateMutability": "view",
      "type": "function"
    },
    {
      "constant": true,
      "inputs": [
        {
          "internalType": "uint256",
          "name": "_shopId",
          "type": "uint256"
        }
      ],
      "name": "getSKUIds",
      "outputs": [
        {
          "internalType": "uint256[]",
          "name": "",
          "type": "uint256[]"
        }
      ],
      "payable": false,
      "stateMutability": "view",
      "type": "function"
    },
    {
      "constant": true,
      "inputs": [
        {
          "internalType": "uint256",
          "name": "_skuId",
          "type": "uint256"
        }
      ],
      "name": "getSKU",
      "outputs": [
        {
          "internalType": "uint256",
          "name": "",
          "type": "uint256"
        },
        {
          "internalType": "uint256",
          "name": "",
          "type": "uint256"
        },
        {
          "internalType": "uint256",
          "name": "",
          "type": "uint256"
        },
        {
          "internalType": "uint256",
          "name": "",
          "type": "uint256"
        },
        {
          "internalType": "string",
          "name": "",
          "type": "string"
        },
        {
          "internalType": "string",
          "name": "",
          "type": "string"
        },
        {
          "internalType": "bool",
          "name": "",
          "type": "bool"
        },
        {
          "internalType": "bool",
          "name": "",
          "type": "bool"
        },
        {
          "internalType": "uint256",
          "name": "",
          "type": "uint256"
        }
      ],
      "payable": false,
      "stateMutability": "view",
      "type": "function"
    },
    {
      "constant": true,
      "inputs": [
        {
          "internalType": "uint256",
          "name": "_shopId",
          "type": "uint256"
        }
      ],
      "name": "getSKUTypeIds",
      "outputs": [
        {
          "internalType": "uint256[]",
          "name": "",
          "type": "uint256[]"
        }
      ],
      "payable": false,
      "stateMutability": "view",
      "type": "function"
    },
    {
      "constant": true,
      "inputs": [
        {
          "internalType": "uint256",
          "name": "_skuTypeId",
          "type": "uint256"
        }
      ],
      "name": "getSKUType",
      "outputs": [
        {
          "internalType": "uint256",
          "name": "",
          "type": "uint256"
        },
        {
          "internalType": "uint256",
          "name": "",
          "type": "uint256"
        },
        {
          "internalType": "string",
          "name": "",
          "type": "string"
        },
        {
          "internalType": "string",
          "name": "",
          "type": "string"
        }
      ],
      "payable": false,
      "stateMutability": "view",
      "type": "function"
    },
    {
      "constant": true,
      "inputs": [
        {
          "internalType": "address",
          "name": "_owner",
          "type": "address"
        }
      ],
      "name": "getShopIds",
      "outputs": [
        {
          "internalType": "uint256[]",
          "name": "",
          "type": "uint256[]"
        }
      ],
      "payable": false,
      "stateMutability": "view",
      "type": "function"
    },
    {
      "constant": true,
      "inputs": [
        {
          "internalType": "uint256",
          "name": "_shopId",
          "type": "uint256"
        }
      ],
      "name": "getShop",
      "outputs": [
        {
          "internalType": "address",
          "name": "",
          "type": "address"
        },
        {
          "internalType": "uint256",
          "name": "",
          "type": "uint256"
        },
        {
          "internalType": "string",
          "name": "",
          "type": "string"
        },
        {
          "internalType": "string",
          "name": "",
          "type": "string"
        },
        {
          "internalType": "string",
          "name": "",
          "type": "string"
        }
      ],
      "payable": false,
      "stateMutability": "view",
      "type": "function"
    },
    {
      "constant": true,
      "inputs": [
        {
          "internalType": "uint256",
          "name": "_shopId",
          "type": "uint256"
        }
      ],
      "name": "getShopOwner",
      "outputs": [
        {
          "internalType": "address",
          "name": "",
          "type": "address"
        }
      ],
      "payable": false,
      "stateMutability": "view",
      "type": "function"
    }
  ],
  "bytecode": "0x60806040526000600360006101000a81548160ff0219169083151502179055506000600360016101000a81548160ff0219169083151502179055506001600360016101000a81548160ff021916908315150217905550620000703360006200009160201b62003a421790919060201c565b6200008b3360016200009160201b62003a421790919060201c565b62000255565b620000a382826200017560201b60201c565b1562000117576040517f08c379a000000000000000000000000000000000000000000000000000000000815260040180806020018281038252601f8152602001807f526f6c65733a206163636f756e7420616c72656164792068617320726f6c650081525060200191505060405180910390fd5b60018260000160008373ffffffffffffffffffffffffffffffffffffffff1673ffffffffffffffffffffffffffffffffffffffff16815260200190815260200160002060006101000a81548160ff0219169083151502179055505050565b60008073ffffffffffffffffffffffffffffffffffffffff168273ffffffffffffffffffffffffffffffffffffffff161415620001fe576040517f08c379a000000000000000000000000000000000000000000000000000000000815260040180806020018281038252602281526020018062003f3b6022913960400191505060405180910390fd5b8260000160008373ffffffffffffffffffffffffffffffffffffffff1673ffffffffffffffffffffffffffffffffffffffff16815260200190815260200160002060009054906101000a900460ff16905092915050565b613cd680620002656000396000f3fe608060405234801561001057600080fd5b50600436106101e55760003560e01c80635ded461a1161010f578063acb123a6116100a2578063c28de2cd11610071578063c28de2cd1461138c578063e0456ec9146113ae578063eb2c02231461141c578063f29d498a14611460576101e5565b8063acb123a614611139578063ae27eda814611285578063ae539d8014611308578063bd8f03d71461134a576101e5565b80638ae7f105116100de5780638ae7f10514610cee5780639103394014610e0f57806392bec5ee14610e5b57806397fcb08114610f92576101e5565b80635ded461a14610a955780636af04a5714610ae1578063713aca7414610b2b5780638456cb5914610ce4576101e5565b80633f4ba83a11610187578063488d136e11610156578063488d136e1461080457806351b4fc7e146108f0578063531e005b146109525780635c975abb14610a73576101e5565b80633f4ba83a1461057a5780633fbe2c5514610584578063452431201461060757806345b727f31461064b576101e5565b80632cf0d92a116101c35780632cf0d92a1461031b5780633349bacc1461038957806335007f0e146103ab578063377946f2146104f7576101e5565b806301ba7539146101ea578063104f759e14610236578063199f0b1714610282575b600080fd5b6102206004803603604081101561020057600080fd5b8101908080359060200190929190803590602001909291905050506114b0565b6040518082815260200191505060405180910390f35b61026c6004803603604081101561024c57600080fd5b8101908080359060200190929190803590602001909291905050506114de565b6040518082815260200191505060405180910390f35b6102c46004803603602081101561029857600080fd5b81019080803573ffffffffffffffffffffffffffffffffffffffff1690602001909291905050506115be565b6040518080602001828103825283818151815260200191508051906020019060200280838360005b838110156103075780820151818401526020810190506102ec565b505050509050019250505060405180910390f35b6103476004803603602081101561033157600080fd5b8101908080359060200190929190505050611655565b604051808273ffffffffffffffffffffffffffffffffffffffff1673ffffffffffffffffffffffffffffffffffffffff16815260200191505060405180910390f35b610391611688565b604051808215151515815260200191505060405180910390f35b6103d7600480360360208110156103c157600080fd5b8101908080359060200190929190505050611691565b604051808a815260200189815260200188815260200187815260200180602001806020018615151515815260200185151515158152602001848152602001838103835288818151815260200191508051906020019080838360005b8381101561044d578082015181840152602081019050610432565b50505050905090810190601f16801561047a5780820380516001836020036101000a031916815260200191505b50838103825287818151815260200191508051906020019080838360005b838110156104b3578082015181840152602081019050610498565b50505050905090810190601f1680156104e05780820380516001836020036101000a031916815260200191505b509b50505050505050505050505060405180910390f35b6105236004803603602081101561050d57600080fd5b8101908080359060200190929190505050611836565b6040518080602001828103825283818151815260200191508051906020019060200280838360005b8381101561056657808201518184015260208101905061054b565b505050509050019250505060405180910390f35b6105826118a1565b005b6105b06004803603602081101561059a57600080fd5b810190808035906020019092919050505061193a565b6040518080602001828103825283818151815260200191508051906020019060200280838360005b838110156105f35780820151818401526020810190506105d8565b505050509050019250505060405180910390f35b6106496004803603602081101561061d57600080fd5b81019080803573ffffffffffffffffffffffffffffffffffffffff1690602001909291905050506119a5565b005b6106776004803603602081101561066157600080fd5b8101908080359060200190929190505050611abf565b604051808673ffffffffffffffffffffffffffffffffffffffff1673ffffffffffffffffffffffffffffffffffffffff168152602001858152602001806020018060200180602001848103845287818151815260200191508051906020019080838360005b838110156106f75780820151818401526020810190506106dc565b50505050905090810190601f1680156107245780820380516001836020036101000a031916815260200191505b50848103835286818151815260200191508051906020019080838360005b8381101561075d578082015181840152602081019050610742565b50505050905090810190601f16801561078a5780820380516001836020036101000a031916815260200191505b50848103825285818151815260200191508051906020019080838360005b838110156107c35780820151818401526020810190506107a8565b50505050905090810190601f1680156107f05780820380516001836020036101000a031916815260200191505b509850505050505050505060405180910390f35b6108da6004803603606081101561081a57600080fd5b81019080803590602001909291908035906020019064010000000081111561084157600080fd5b82018360208201111561085357600080fd5b8035906020019184600183028401116401000000008311171561087557600080fd5b90919293919293908035906020019064010000000081111561089657600080fd5b8201836020820111156108a857600080fd5b803590602001918460018302840111640100000000831117156108ca57600080fd5b9091929391929390505050611d84565b6040518082815260200191505060405180910390f35b61093c6004803603604081101561090657600080fd5b81019080803573ffffffffffffffffffffffffffffffffffffffff16906020019092919080359060200190929190505050611ffa565b6040518082815260200191505060405180910390f35b61097e6004803603602081101561096857600080fd5b8101908080359060200190929190505050612028565b604051808581526020018481526020018060200180602001838103835285818151815260200191508051906020019080838360005b838110156109ce5780820151818401526020810190506109b3565b50505050905090810190601f1680156109fb5780820380516001836020036101000a031916815260200191505b50838103825284818151815260200191508051906020019080838360005b83811015610a34578082015181840152602081019050610a19565b50505050905090810190601f168015610a615780820380516001836020036101000a031916815260200191505b50965050505050505060405180910390f35b610a7b612195565b604051808215151515815260200191505060405180910390f35b610acb60048036036040811015610aab57600080fd5b8101908080359060200190929190803590602001909291905050506121a8565b6040518082815260200191505060405180910390f35b610ae96121d6565b604051808273ffffffffffffffffffffffffffffffffffffffff1673ffffffffffffffffffffffffffffffffffffffff16815260200191505060405180910390f35b610b5760048036036020811015610b4157600080fd5b81019080803590602001909291905050506121fc565b604051808673ffffffffffffffffffffffffffffffffffffffff1673ffffffffffffffffffffffffffffffffffffffff168152602001858152602001806020018060200180602001848103845287818151815260200191508051906020019080838360005b83811015610bd7578082015181840152602081019050610bbc565b50505050905090810190601f168015610c045780820380516001836020036101000a031916815260200191505b50848103835286818151815260200191508051906020019080838360005b83811015610c3d578082015181840152602081019050610c22565b50505050905090810190601f168015610c6a5780820380516001836020036101000a031916815260200191505b50848103825285818151815260200191508051906020019080838360005b83811015610ca3578082015181840152602081019050610c88565b50505050905090810190601f168015610cd05780820380516001836020036101000a031916815260200191505b509850505050505050505060405180910390f35b610cec612427565b005b610d1a60048036036020811015610d0457600080fd5b81019080803590602001909291905050506124a7565b604051808581526020018481526020018060200180602001838103835285818151815260200191508051906020019080838360005b83811015610d6a578082015181840152602081019050610d4f565b50505050905090810190601f168015610d975780820380516001836020036101000a031916815260200191505b50838103825284818151815260200191508051906020019080838360005b83811015610dd0578082015181840152602081019050610db5565b50505050905090810190601f168015610dfd5780820380516001836020036101000a031916815260200191505b50965050505050505060405180910390f35b610e4560048036036040811015610e2557600080fd5b810190808035906020019092919080359060200190929190505050612670565b6040518082815260200191505060405180910390f35b610f7c60048036036060811015610e7157600080fd5b8101908080359060200190640100000000811115610e8e57600080fd5b820183602082011115610ea057600080fd5b80359060200191846001830284011164010000000083111715610ec257600080fd5b909192939192939080359060200190640100000000811115610ee357600080fd5b820183602082011115610ef557600080fd5b80359060200191846001830284011164010000000083111715610f1757600080fd5b909192939192939080359060200190640100000000811115610f3857600080fd5b820183602082011115610f4a57600080fd5b80359060200191846001830284011164010000000083111715610f6c57600080fd5b909192939192939050505061269e565b6040518082815260200191505060405180910390f35b6111236004803603610100811015610fa957600080fd5b8101908080359060200190929190803590602001909291908035906020019092919080359060200190640100000000811115610fe457600080fd5b820183602082011115610ff657600080fd5b8035906020019184600183028401116401000000008311171561101857600080fd5b91908080601f016020809104026020016040519081016040528093929190818152602001838380828437600081840152601f19601f8201169050808301925050505050505091929192908035906020019064010000000081111561107b57600080fd5b82018360208201111561108d57600080fd5b803590602001918460018302840111640100000000831117156110af57600080fd5b91908080601f016020809104026020016040519081016040528093929190818152602001838380828437600081840152601f19601f82011690508083019250505050505050919291929080351515906020019092919080351515906020019092919080359060200190929190505050612a23565b6040518082815260200191505060405180910390f35b6111656004803603602081101561114f57600080fd5b8101908080359060200190929190505050612d19565b604051808a815260200189815260200188815260200187815260200180602001806020018615151515815260200185151515158152602001848152602001838103835288818151815260200191508051906020019080838360005b838110156111db5780820151818401526020810190506111c0565b50505050905090810190601f1680156112085780820380516001836020036101000a031916815260200191505b50838103825287818151815260200191508051906020019080838360005b83811015611241578082015181840152602081019050611226565b50505050905090810190601f16801561126e5780820380516001836020036101000a031916815260200191505b509b50505050505050505050505060405180910390f35b6112b16004803603602081101561129b57600080fd5b8101908080359060200190929190505050612f69565b6040518080602001828103825283818151815260200191508051906020019060200280838360005b838110156112f45780820151818401526020810190506112d9565b505050509050019250505060405180910390f35b6113346004803603602081101561131e57600080fd5b8101908080359060200190929190505050612fd4565b6040518082815260200191505060405180910390f35b6113766004803603602081101561136057600080fd5b810190808035906020019092919050505061328a565b6040518082815260200191505060405180910390f35b6113946132e8565b604051808215151515815260200191505060405180910390f35b6113da600480360360208110156113c457600080fd5b81019080803590602001909291905050506132fb565b604051808273ffffffffffffffffffffffffffffffffffffffff1673ffffffffffffffffffffffffffffffffffffffff16815260200191505060405180910390f35b61145e6004803603602081101561143257600080fd5b81019080803573ffffffffffffffffffffffffffffffffffffffff169060200190929190505050613354565b005b6114966004803603604081101561147657600080fd5b810190808035906020019092919080359060200190929190505050613466565b604051808215151515815260200191505060405180910390f35b600a60205281600052604060002081815481106114c957fe5b90600052602060002001600091509150505481565b6000806115a0600585815481106114f157fe5b90600052602060002090600502016004018054600181600116156101000203166002900480601f0160208091040260200160405190810160405280929190818152602001828054600181600116156101000203166002900480156115965780601f1061156b57610100808354040283529160200191611596565b820191906000526020600020905b81548152906001019060200180831161157957829003601f168201915b50505050506134c5565b90506115b581846138d590919063ffffffff16565b91505092915050565b6060600960008373ffffffffffffffffffffffffffffffffffffffff1673ffffffffffffffffffffffffffffffffffffffff16815260200190815260200160002080548060200260200160405190810160405280929190818152602001828054801561164957602002820191906000526020600020905b815481526020019060010190808311611635575b50505050509050919050565b60086020528060005260406000206000915054906101000a900473ffffffffffffffffffffffffffffffffffffffff1681565b60006001905090565b6007818154811061169e57fe5b9060005260206000209060080201600091509050806000015490806001015490806002015490806003015490806004018054600181600116156101000203166002900480601f0160208091040260200160405190810160405280929190818152602001828054600181600116156101000203166002900480156117625780601f1061173757610100808354040283529160200191611762565b820191906000526020600020905b81548152906001019060200180831161174557829003601f168201915b505050505090806005018054600181600116156101000203166002900480601f0160208091040260200160405190810160405280929190818152602001828054600181600116156101000203166002900480156118005780601f106117d557610100808354040283529160200191611800565b820191906000526020600020905b8154815290600101906020018083116117e357829003601f168201915b5050505050908060060160009054906101000a900460ff16908060060160019054906101000a900460ff16908060070154905089565b6060600b600083815260200190815260200160002080548060200260200160405190810160405280929190818152602001828054801561189557602002820191906000526020600020905b815481526020019060010190808311611881575b50505050509050919050565b6118b533600061396490919063ffffffff16565b6118be57600080fd5b600360019054906101000a900460ff166118d757600080fd5b600360009054906101000a900460ff16156118f157600080fd5b6000600360016101000a81548160ff0219169083151502179055507f0e5e3b3fb504c22cf5c42fa07d521225937514c654007e1f12646f89768d6f9460405160405180910390a1565b6060600a600083815260200190815260200160002080548060200260200160405190810160405280929190818152602001828054801561199957602002820191906000526020600020905b815481526020019060010190808311611985575b50505050509050919050565b600360019054906101000a900460ff166119be57600080fd5b6119d233600061396490919063ffffffff16565b6119db57600080fd5b600081905060008173ffffffffffffffffffffffffffffffffffffffff1663c818faec60006040518263ffffffff1660e01b81526004018082815260200191505060206040518083038186803b158015611a3457600080fd5b505afa158015611a48573d6000803e3d6000fd5b505050506040513d6020811015611a5e57600080fd5b81019080805190602001909291905050501015611a7a57600080fd5b80600460006101000a81548173ffffffffffffffffffffffffffffffffffffffff021916908373ffffffffffffffffffffffffffffffffffffffff1602179055505050565b60008060608060606005805490508610611ad857600080fd5b611ae0613b1d565b60058781548110611aed57fe5b90600052602060002090600502016040518060a00160405290816000820160009054906101000a900473ffffffffffffffffffffffffffffffffffffffff1673ffffffffffffffffffffffffffffffffffffffff1673ffffffffffffffffffffffffffffffffffffffff16815260200160018201548152602001600282018054600181600116156101000203166002900480601f016020809104026020016040519081016040528092919081815260200182805460018160011615610100020316600290048015611bff5780601f10611bd457610100808354040283529160200191611bff565b820191906000526020600020905b815481529060010190602001808311611be257829003601f168201915b50505050508152602001600382018054600181600116156101000203166002900480601f016020809104026020016040519081016040528092919081815260200182805460018160011615610100020316600290048015611ca15780601f10611c7657610100808354040283529160200191611ca1565b820191906000526020600020905b815481529060010190602001808311611c8457829003601f168201915b50505050508152602001600482018054600181600116156101000203166002900480601f016020809104026020016040519081016040528092919081815260200182805460018160011615610100020316600290048015611d435780601f10611d1857610100808354040283529160200191611d43565b820191906000526020600020905b815481529060010190602001808311611d2657829003601f168201915b505050505081525050905080600001518160200151826040015183606001518460800151829250819150809050955095509550955095505091939590929450565b6000600360019054906101000a900460ff1615611da057600080fd5b8560006008600083815260200190815260200160002060009054906101000a900473ffffffffffffffffffffffffffffffffffffffff1690508073ffffffffffffffffffffffffffffffffffffffff163373ffffffffffffffffffffffffffffffffffffffff1614611e1157600080fd5b60006006805490509050600660405180608001604052808b81526020018381526020018a8a8080601f016020809104026020016040519081016040528093929190818152602001838380828437600081840152601f19601f82011690508083019250505050505050815260200188888080601f016020809104026020016040519081016040528093929190818152602001838380828437600081840152601f19601f820116905080830192505050505050508152509080600181540180825580915050906001820390600052602060002090600402016000909192909190915060008201518160000155602082015181600101556040820151816002019080519060200190611f21929190613b62565b506060820151816003019080519060200190611f3e929190613b62565b50505050600a60008a8152602001908152602001600020819080600181540180825580915050906001820390600052602060002001600090919290919091505550887f984e9c57bf3c704c112a30dea33416efd7969f90a14a69b9cb3842db1fdb5c7a828a8a60405180848152602001806020018281038252848482818152602001925080828437600081840152601f19601f82011690508083019250505094505050505060405180910390a280935050505095945050505050565b6009602052816000526040600020818154811061201357fe5b90600052602060002001600091509150505481565b6006818154811061203557fe5b9060005260206000209060040201600091509050806000015490806001015490806002018054600181600116156101000203166002900480601f0160208091040260200160405190810160405280929190818152602001828054600181600116156101000203166002900480156120ed5780601f106120c2576101008083540402835291602001916120ed565b820191906000526020600020905b8154815290600101906020018083116120d057829003601f168201915b505050505090806003018054600181600116156101000203166002900480601f01602080910402602001604051908101604052809291908181526020018280546001816001161561010002031660029004801561218b5780601f106121605761010080835404028352916020019161218b565b820191906000526020600020905b81548152906001019060200180831161216e57829003601f168201915b5050505050905084565b600360019054906101000a900460ff1681565b600b60205281600052604060002081815481106121c157fe5b90600052602060002001600091509150505481565b600360029054906101000a900473ffffffffffffffffffffffffffffffffffffffff1681565b6005818154811061220957fe5b90600052602060002090600502016000915090508060000160009054906101000a900473ffffffffffffffffffffffffffffffffffffffff1690806001015490806002018054600181600116156101000203166002900480601f0160208091040260200160405190810160405280929190818152602001828054600181600116156101000203166002900480156122e15780601f106122b6576101008083540402835291602001916122e1565b820191906000526020600020905b8154815290600101906020018083116122c457829003601f168201915b505050505090806003018054600181600116156101000203166002900480601f01602080910402602001604051908101604052809291908181526020018280546001816001161561010002031660029004801561237f5780601f106123545761010080835404028352916020019161237f565b820191906000526020600020905b81548152906001019060200180831161236257829003601f168201915b505050505090806004018054600181600116156101000203166002900480601f01602080910402602001604051908101604052809291908181526020018280546001816001161561010002031660029004801561241d5780601f106123f25761010080835404028352916020019161241d565b820191906000526020600020905b81548152906001019060200180831161240057829003601f168201915b5050505050905085565b61243b33600061396490919063ffffffff16565b61244457600080fd5b600360019054906101000a900460ff161561245e57600080fd5b6001600360016101000a81548160ff0219169083151502179055507fab35696f06e428ebc5ceba8cd17f8fed287baf43440206d1943af1ee53e6d26760405160405180910390a1565b60008060608060068054905085106124be57600080fd5b6124c6613be2565b600686815481106124d357fe5b90600052602060002090600402016040518060800160405290816000820154815260200160018201548152602001600282018054600181600116156101000203166002900480601f0160208091040260200160405190810160405280929190818152602001828054600181600116156101000203166002900480156125995780601f1061256e57610100808354040283529160200191612599565b820191906000526020600020905b81548152906001019060200180831161257c57829003601f168201915b50505050508152602001600382018054600181600116156101000203166002900480601f01602080910402602001604051908101604052809291908181526020018280546001816001161561010002031660029004801561263b5780601f106126105761010080835404028352916020019161263b565b820191906000526020600020905b81548152906001019060200180831161261e57829003601f168201915b505050505081525050905080600001518160200151826040015183606001518191508090509450945094509450509193509193565b600c602052816000526040600020818154811061268957fe5b90600052602060002001600091509150505481565b6000600360019054906101000a900460ff16156126ba57600080fd5b60006005805490509050600033905060056040518060a001604052808373ffffffffffffffffffffffffffffffffffffffff1681526020018481526020018b8b8080601f016020809104026020016040519081016040528093929190818152602001838380828437600081840152601f19601f82011690508083019250505050505050815260200189898080601f016020809104026020016040519081016040528093929190818152602001838380828437600081840152601f19601f82011690508083019250505050505050815260200187878080601f016020809104026020016040519081016040528093929190818152602001838380828437600081840152601f19601f820116905080830192505050505050508152509080600181540180825580915050906001820390600052602060002090600502016000909192909190915060008201518160000160006101000a81548173ffffffffffffffffffffffffffffffffffffffff021916908373ffffffffffffffffffffffffffffffffffffffff16021790555060208201518160010155604082015181600201908051906020019061286c929190613b62565b506060820151816003019080519060200190612889929190613b62565b5060808201518160040190805190602001906128a6929190613b62565b50505050806008600084815260200190815260200160002060006101000a81548173ffffffffffffffffffffffffffffffffffffffff021916908373ffffffffffffffffffffffffffffffffffffffff160217905550600960008273ffffffffffffffffffffffffffffffffffffffff1673ffffffffffffffffffffffffffffffffffffffff16815260200190815260200160002082908060018154018082558091505090600182039060005260206000200160009091929091909150555061297981600261396490919063ffffffff16565b61299257612991816002613a4290919063ffffffff16565b5b8073ffffffffffffffffffffffffffffffffffffffff167f6483fc0067ba37ac182934414561e6a0483fe2c28473508471330bc69afee817838b8b60405180848152602001806020018281038252848482818152602001925080828437600081840152601f19601f82011690508083019250505094505050505060405180910390a281925050509695505050505050565b6000600360019054906101000a900460ff1615612a3f57600080fd5b8860006008600083815260200190815260200160002060009054906101000a900473ffffffffffffffffffffffffffffffffffffffff1690508073ffffffffffffffffffffffffffffffffffffffff163373ffffffffffffffffffffffffffffffffffffffff1614612ab057600080fd5b60008911612abd57600080fd5b6000600780549050905060076040518061012001604052808e81526020018381526020018d81526020018c81526020018b81526020018a8152602001891515815260200188151581526020018781525090806001815401808255809150509060018203906000526020600020906008020160009091929091909150600082015181600001556020820151816001015560408201518160020155606082015181600301556080820151816004019080519060200190612b7c929190613b62565b5060a0820151816005019080519060200190612b99929190613b62565b5060c08201518160060160006101000a81548160ff02191690831515021790555060e08201518160060160016101000a81548160ff0219169083151502179055506101008201518160070155505050600c60008d8152602001908152602001600020819080600181540180825580915050906001820390600052602060002001600090919290919091505550600b60008c81526020019081526020016000208190806001815401808255809150509060018203906000526020600020016000909192909190915055508b7fd69554e5413a4863105d3af271dbb7053ecbdb96c22b4ed508331bbb4a993a63828b6040518083815260200180602001828103825283818151815260200191508051906020019080838360005b83811015612ccc578082015181840152602081019050612cb1565b50505050905090810190601f168015612cf95780820380516001836020036101000a031916815260200191505b50935050505060405180910390a280935050505098975050505050505050565b60008060008060608060008060006007805490508a10612d3857600080fd5b612d40613c0a565b60078b81548110612d4d57fe5b90600052602060002090600802016040518061012001604052908160008201548152602001600182015481526020016002820154815260200160038201548152602001600482018054600181600116156101000203166002900480601f016020809104026020016040519081016040528092919081815260200182805460018160011615610100020316600290048015612e285780601f10612dfd57610100808354040283529160200191612e28565b820191906000526020600020905b815481529060010190602001808311612e0b57829003601f168201915b50505050508152602001600582018054600181600116156101000203166002900480601f016020809104026020016040519081016040528092919081815260200182805460018160011615610100020316600290048015612eca5780601f10612e9f57610100808354040283529160200191612eca565b820191906000526020600020905b815481529060010190602001808311612ead57829003601f168201915b505050505081526020016006820160009054906101000a900460ff161515151581526020016006820160019054906101000a900460ff161515151581526020016007820154815250509050806000015181602001518260400151836060015184608001518560a001518660c001518760e00151886101000151849450839350995099509950995099509950995099509950509193959799909294969850565b6060600c6000838152602001908152602001600020805480602002602001604051908101604052809291908181526020018280548015612fc857602002820191906000526020600020905b815481526020019060010190808311612fb4575b50505050509050919050565b6000612fde613c0a565b60078381548110612feb57fe5b90600052602060002090600802016040518061012001604052908160008201548152602001600182015481526020016002820154815260200160038201548152602001600482018054600181600116156101000203166002900480601f0160208091040260200160405190810160405280929190818152602001828054600181600116156101000203166002900480156130c65780601f1061309b576101008083540402835291602001916130c6565b820191906000526020600020905b8154815290600101906020018083116130a957829003601f168201915b50505050508152602001600582018054600181600116156101000203166002900480601f0160208091040260200160405190810160405280929190818152602001828054600181600116156101000203166002900480156131685780601f1061313d57610100808354040283529160200191613168565b820191906000526020600020905b81548152906001019060200180831161314b57829003601f168201915b505050505081526020016006820160009054906101000a900460ff161515151581526020016006820160019054906101000a900460ff161515151581526020016007820154815250509050600061327860058360000151815481106131c957fe5b90600052602060002090600502016004018054600181600116156101000203166002900480601f01602080910402602001604051908101604052809291908181526020018280546001816001161561010002031660029004801561326e5780601f106132435761010080835404028352916020019161326e565b820191906000526020600020905b81548152906001019060200180831161325157829003601f168201915b50505050506134c5565b90508160600151810292505050919050565b6000806132cb6040518060400160405280600381526020017f55534400000000000000000000000000000000000000000000000000000000008152506134c5565b90506132e081846138d590919063ffffffff16565b915050919050565b600360009054906101000a900460ff1681565b6000600580549050821061330e57600080fd5b6005828154811061331b57fe5b906000526020600020906005020160000160009054906101000a900473ffffffffffffffffffffffffffffffffffffffff169050919050565b61336833600061396490919063ffffffff16565b61337157600080fd5b600360019054906101000a900460ff1661338a57600080fd5b600360009054906101000a900460ff16156133a457600080fd5b6001600360006101000a81548160ff02191690831515021790555080600360026101000a81548173ffffffffffffffffffffffffffffffffffffffff021916908373ffffffffffffffffffffffffffffffffffffffff1602179055507f450db8da6efbe9c22f2347f7c2021231df1fc58d3ae9a2fa75d39fa44619930581604051808273ffffffffffffffffffffffffffffffffffffffff1673ffffffffffffffffffffffffffffffffffffffff16815260200191505060405180910390a150565b60006007838154811061347557fe5b906000526020600020906008020160060160019054906101000a900460ff1615806134bd5750600783815481106134a857fe5b90600052602060002090600802016007015482105b905092915050565b600080826040516020018082805190602001908083835b602083106134ff57805182526020820191506020810190506020830392506134dc565b6001836020036101000a038019825116818451168082178552505050505050905001915050604051602081830303815290604052805190602001209050600060405180807f55534400000000000000000000000000000000000000000000000000000000008152506003019050604051809103902082141561363157600460009054906101000a900473ffffffffffffffffffffffffffffffffffffffff1673ffffffffffffffffffffffffffffffffffffffff16630c560c6460006040518263ffffffff1660e01b81526004018082815260200191505060206040518083038186803b1580156135ef57600080fd5b505afa158015613603573d6000803e3d6000fd5b505050506040513d602081101561361957600080fd5b810190808051906020019092919050505090506138cb565b60405180807f45555200000000000000000000000000000000000000000000000000000000008152506003019050604051809103902082141561372457600460009054906101000a900473ffffffffffffffffffffffffffffffffffffffff1673ffffffffffffffffffffffffffffffffffffffff1663d67ae54d60006040518263ffffffff1660e01b81526004018082815260200191505060206040518083038186803b1580156136e257600080fd5b505afa1580156136f6573d6000803e3d6000fd5b505050506040513d602081101561370c57600080fd5b810190808051906020019092919050505090506138ca565b60405180807f47425000000000000000000000000000000000000000000000000000000000008152506003019050604051809103902082141561381757600460009054906101000a900473ffffffffffffffffffffffffffffffffffffffff1673ffffffffffffffffffffffffffffffffffffffff16635a8ef28a60006040518263ffffffff1660e01b81526004018082815260200191505060206040518083038186803b1580156137d557600080fd5b505afa1580156137e9573d6000803e3d6000fd5b505050506040513d60208110156137ff57600080fd5b810190808051906020019092919050505090506138c9565b600460009054906101000a900473ffffffffffffffffffffffffffffffffffffffff1673ffffffffffffffffffffffffffffffffffffffff16630c560c6460006040518263ffffffff1660e01b81526004018082815260200191505060206040518083038186803b15801561388b57600080fd5b505afa15801561389f573d6000803e3d6000fd5b505050506040513d60208110156138b557600080fd5b810190808051906020019092919050505090505b5b5b8092505050919050565b600080821161394c576040517f08c379a000000000000000000000000000000000000000000000000000000000815260040180806020018281038252601a8152602001807f536166654d6174683a206469766973696f6e206279207a65726f00000000000081525060200191505060405180910390fd5b600082848161395757fe5b0490508091505092915050565b60008073ffffffffffffffffffffffffffffffffffffffff168273ffffffffffffffffffffffffffffffffffffffff1614156139eb576040517f08c379a0000000000000000000000000000000000000000000000000000000008152600401808060200182810382526022815260200180613c806022913960400191505060405180910390fd5b8260000160008373ffffffffffffffffffffffffffffffffffffffff1673ffffffffffffffffffffffffffffffffffffffff16815260200190815260200160002060009054906101000a900460ff16905092915050565b613a4c8282613964565b15613abf576040517f08c379a000000000000000000000000000000000000000000000000000000000815260040180806020018281038252601f8152602001807f526f6c65733a206163636f756e7420616c72656164792068617320726f6c650081525060200191505060405180910390fd5b60018260000160008373ffffffffffffffffffffffffffffffffffffffff1673ffffffffffffffffffffffffffffffffffffffff16815260200190815260200160002060006101000a81548160ff0219169083151502179055505050565b6040518060a00160405280600073ffffffffffffffffffffffffffffffffffffffff168152602001600081526020016060815260200160608152602001606081525090565b828054600181600116156101000203166002900490600052602060002090601f016020900481019282601f10613ba357805160ff1916838001178555613bd1565b82800160010185558215613bd1579182015b82811115613bd0578251825591602001919060010190613bb5565b5b509050613bde9190613c5a565b5090565b6040518060800160405280600081526020016000815260200160608152602001606081525090565b604051806101200160405280600081526020016000815260200160008152602001600081526020016060815260200160608152602001600015158152602001600015158152602001600081525090565b613c7c91905b80821115613c78576000816000905550600101613c60565b5090565b9056fe526f6c65733a206163636f756e7420697320746865207a65726f2061646472657373a265627a7a723158200bb5781e36d3942fa47cbd33e4d2d163df0546c4291d2008ee8bb5ccd77a744264736f6c634300050c0032526f6c65733a206163636f756e7420697320746865207a65726f2061646472657373",
  "source": "pragma solidity ^0.5.0;\n\nimport \"./SKUFactory.sol\";\n\n\n/**\n * @title StockRoom\n * @notice Main contract for reference data side of the In-game Pro Shop System\n */\ncontract StockRoom is SKUFactory {\n\n    /**\n     * @notice Set the address of the FiatContract contract\n     */\n    function setFiatContractAddress(address _address) external whenPaused onlySysAdmin {\n        FiatContractInterface candidateContract = FiatContractInterface(_address);\n\n        // Verify that we have the appropriate address\n        require(candidateContract.updatedAt(0) >= 0);\n\n        // Set the new contract address\n        fiatContract = candidateContract;\n    }\n\n    // @notice confirm this is a StockRoom contract\n    function isStockRoom() external pure returns (bool) {\n        return true;\n    }\n\n    // @notice get an item's price in Ether\n    function getPriceInEther(uint256 _skuId) external view returns (uint256) {\n        SKU memory sku = skus[_skuId];\n        uint256 quote = getQuote(shops[sku.shopId].fiat);\n        return quote * sku.price;\n    }\n\n    // @notice convert an Ether amount to a Shop's fiat currency\n    function convertEtherToShopFiat(uint256 _shopId, uint256 _amount) external view returns (uint256) {\n        uint256 quote = getQuote(shops[_shopId].fiat);\n        return _amount.div(quote);\n    }\n\n    // @notice convert an Ether amount to the Franchise's fiat currency\n    function convertEtherToFranchiseFiat(uint256 _amount) external view returns (uint256) {\n        uint256 quote = getQuote(\"USD\");\n        return _amount.div(quote);\n    }\n\n    // @notice get a quote for Ether in the given fiat currency\n    function getQuote(string memory _fiat) private view returns (uint256) {\n        bytes32 fiat = keccak256(abi.encodePacked(_fiat));\n        uint256 quote;\n        if (fiat == keccak256(\"USD\")) {\n            quote = fiatContract.USD(0);\n        } else if (fiat == keccak256(\"EUR\")) {\n            quote = fiatContract.EUR(0);\n        } else if (fiat == keccak256(\"GBP\")) {\n            quote = fiatContract.GBP(0);\n        } else {\n            quote = fiatContract.USD(0); // franchise\n        }\n        return quote;\n    }\n\n    // @notice confirm whether an item can be minted based on limit and current item count\n    function canMintItem(uint256 _skuId, uint256 _itemCount) external view returns (bool) {\n        return (!skus[_skuId].limited || (_itemCount < skus[_skuId].limit));\n    }\n\n    // @notice Get the list of SKU Ids associated with a given SKUType\n    function getSKUTypeSKUIds(uint256 _skuTypeId) external view returns (uint[] memory) {\n        return skuTypeSKUs[_skuTypeId];\n    }\n\n    // @notice Get the list of SKU Ids associated with a given Shop\n    function getSKUIds(uint256 _shopId) external view returns (uint[] memory) {\n        return shopSKUs[_shopId];\n    }\n\n    // @notice Get a SKU's properties by ID\n    function getSKU(uint256 _skuId) external view returns (uint256, uint256, uint256, uint256, string memory, string memory, bool, bool, uint256)\n    {\n        require(_skuId < skus.length);\n        SKU memory sku = skus[_skuId];\n        return (\n            sku.shopId,\n            sku.skuId,\n            sku.skuTypeId,\n            sku.price,\n            sku.name,\n            sku.description,\n            sku.consumable,\n            sku.limited,\n            sku.limit\n        );\n    }\n\n    // @notice Get the list of SKU Type Ids associated with a given Shop\n    function getSKUTypeIds(uint256 _shopId) external view returns (uint[] memory) {\n        return shopSKUTypes[_shopId];\n    }\n\n    // @notice Get a SKUTypes properties by ID\n    function getSKUType(uint256 _skuTypeId) external view returns (uint256, uint256, string memory, string memory) {\n        require(_skuTypeId < skuTypes.length);\n        SKUType memory skuType = skuTypes[_skuTypeId];\n        return (\n            skuType.shopId,\n            skuType.skuTypeId,\n            skuType.name,\n            skuType.description\n        );\n    }\n\n    // @notice Get the list of Shop Ids associated with a given Owner\n    function getShopIds(address _owner) external view returns (uint[] memory) {\n        return ownedShops[_owner];\n    }\n\n    // @notice Get a Shop's properties by ID\n    function getShop(uint256 _shopId) external view returns (address, uint256, string memory, string memory, string memory) {\n        require(_shopId < shops.length);\n        Shop memory shop = shops[_shopId];\n        return (\n            shop.owner,\n            shop.shopId,\n            shop.name,\n            shop.description,\n            shop.fiat\n        );\n    }\n\n    // @notice Get a Shop's owner\n    function getShopOwner(uint256 _shopId) external view returns (address) {\n        require(_shopId < shops.length);\n        return shops[_shopId].owner;\n    }\n\n}",
  "sourcePath": "/Users/cliffhall/Projects/in-app-pro-shop/contracts/StockRoom.sol",
  "compiler": {
    "name": "solc",
    "version": "0.5.12+commit.7709ece9.Emscripten.clang"
  },
  "schemaVersion": "3.0.16",
  "updatedAt": "2019-10-20T22:41:55.556Z",
  "devdoc": {
    "methods": {
      "createSKU(uint256,uint256,uint256,string,string,bool,bool,uint256)": {
        "details": "Can only be run by shop owner"
      },
      "createSKUType(uint256,string,string)": {
        "details": "Can only be run by the shop owner"
      },
      "pause()": {
        "details": "called by the system administrator to pause, triggers stopped state"
      },
      "unpause()": {
        "details": "called by the ystem administrator to un-pause, returns to normal state"
      },
      "upgradeContract(address)": {
        "details": "called by a system administrator to  mark the smart contract as upgraded,     in case there is a serious breaking bug. This method stores the new contract     address and emits an event to that effect. Clients of the contract should     update to the new contract address upon receiving this event.     *      This contract will remain paused indefinitely after such an upgrade.",
        "params": {
          "_newAddress": "address of new contract"
        }
      }
    },
    "title": "StockRoom"
  },
  "userdoc": {
    "methods": {
      "createSKU(uint256,uint256,uint256,string,string,bool,bool,uint256)": {
        "notice": "Create an SKU (Shopkeeping Unit) for a Shop"
      },
      "createSKUType(uint256,string,string)": {
        "notice": "Create an SKU (Shopkeeping Unit) Type for a Shop"
      },
      "createShop(string,string,string)": {
        "notice": "Create a Shop"
      },
      "setFiatContractAddress(address)": {
        "notice": "Set the address of the FiatContract contract"
      }
    },
    "notice": "Main contract for reference data side of the In-game Pro Shop System"
  }
}