{
  "contractName": "StockRoomBase",
  "abi": [
    {
      "constant": true,
      "inputs": [
        {
          "name": "",
          "type": "uint256"
        },
        {
          "name": "",
          "type": "uint256"
        }
      ],
      "name": "shopSKUTypes",
      "outputs": [
        {
          "name": "",
          "type": "uint256"
        }
      ],
      "payable": false,
      "stateMutability": "view",
      "type": "function"
    },
    {
      "constant": true,
      "inputs": [
        {
          "name": "_operator",
          "type": "address"
        },
        {
          "name": "_role",
          "type": "string"
        }
      ],
      "name": "checkRole",
      "outputs": [],
      "payable": false,
      "stateMutability": "view",
      "type": "function"
    },
    {
      "constant": true,
      "inputs": [
        {
          "name": "_operator",
          "type": "address"
        },
        {
          "name": "_role",
          "type": "string"
        }
      ],
      "name": "hasRole",
      "outputs": [
        {
          "name": "",
          "type": "bool"
        }
      ],
      "payable": false,
      "stateMutability": "view",
      "type": "function"
    },
    {
      "constant": true,
      "inputs": [
        {
          "name": "",
          "type": "uint256"
        }
      ],
      "name": "shopToOwner",
      "outputs": [
        {
          "name": "",
          "type": "address"
        }
      ],
      "payable": false,
      "stateMutability": "view",
      "type": "function"
    },
    {
      "constant": true,
      "inputs": [
        {
          "name": "",
          "type": "uint256"
        }
      ],
      "name": "skus",
      "outputs": [
        {
          "name": "shopId",
          "type": "uint256"
        },
        {
          "name": "skuId",
          "type": "uint256"
        },
        {
          "name": "skuTypeId",
          "type": "uint256"
        },
        {
          "name": "price",
          "type": "uint256"
        },
        {
          "name": "name",
          "type": "string"
        },
        {
          "name": "description",
          "type": "string"
        },
        {
          "name": "consumable",
          "type": "bool"
        },
        {
          "name": "limited",
          "type": "bool"
        },
        {
          "name": "limit",
          "type": "uint256"
        }
      ],
      "payable": false,
      "stateMutability": "view",
      "type": "function"
    },
    {
      "constant": false,
      "inputs": [],
      "name": "unpause",
      "outputs": [],
      "payable": false,
      "stateMutability": "nonpayable",
      "type": "function"
    },
    {
      "constant": true,
      "inputs": [
        {
          "name": "",
          "type": "address"
        },
        {
          "name": "",
          "type": "uint256"
        }
      ],
      "name": "ownedShops",
      "outputs": [
        {
          "name": "",
          "type": "uint256"
        }
      ],
      "payable": false,
      "stateMutability": "view",
      "type": "function"
    },
    {
      "constant": true,
      "inputs": [
        {
          "name": "",
          "type": "uint256"
        }
      ],
      "name": "skuTypes",
      "outputs": [
        {
          "name": "shopId",
          "type": "uint256"
        },
        {
          "name": "skuTypeId",
          "type": "uint256"
        },
        {
          "name": "name",
          "type": "string"
        },
        {
          "name": "description",
          "type": "string"
        }
      ],
      "payable": false,
      "stateMutability": "view",
      "type": "function"
    },
    {
      "constant": true,
      "inputs": [],
      "name": "ROLE_SYS_ADMIN",
      "outputs": [
        {
          "name": "",
          "type": "string"
        }
      ],
      "payable": false,
      "stateMutability": "view",
      "type": "function"
    },
    {
      "constant": true,
      "inputs": [],
      "name": "paused",
      "outputs": [
        {
          "name": "",
          "type": "bool"
        }
      ],
      "payable": false,
      "stateMutability": "view",
      "type": "function"
    },
    {
      "constant": true,
      "inputs": [
        {
          "name": "",
          "type": "uint256"
        },
        {
          "name": "",
          "type": "uint256"
        }
      ],
      "name": "skuTypeSKUs",
      "outputs": [
        {
          "name": "",
          "type": "uint256"
        }
      ],
      "payable": false,
      "stateMutability": "view",
      "type": "function"
    },
    {
      "constant": true,
      "inputs": [],
      "name": "newContractAddress",
      "outputs": [
        {
          "name": "",
          "type": "address"
        }
      ],
      "payable": false,
      "stateMutability": "view",
      "type": "function"
    },
    {
      "constant": true,
      "inputs": [
        {
          "name": "",
          "type": "uint256"
        }
      ],
      "name": "shops",
      "outputs": [
        {
          "name": "owner",
          "type": "address"
        },
        {
          "name": "shopId",
          "type": "uint256"
        },
        {
          "name": "name",
          "type": "string"
        },
        {
          "name": "description",
          "type": "string"
        },
        {
          "name": "fiat",
          "type": "string"
        }
      ],
      "payable": false,
      "stateMutability": "view",
      "type": "function"
    },
    {
      "constant": false,
      "inputs": [
        {
          "name": "_newAddress",
          "type": "address"
        }
      ],
      "name": "setNewAddress",
      "outputs": [],
      "payable": false,
      "stateMutability": "nonpayable",
      "type": "function"
    },
    {
      "constant": true,
      "inputs": [],
      "name": "ROLE_SHOP_OWNER",
      "outputs": [
        {
          "name": "",
          "type": "string"
        }
      ],
      "payable": false,
      "stateMutability": "view",
      "type": "function"
    },
    {
      "constant": false,
      "inputs": [],
      "name": "pause",
      "outputs": [],
      "payable": false,
      "stateMutability": "nonpayable",
      "type": "function"
    },
    {
      "constant": true,
      "inputs": [
        {
          "name": "",
          "type": "uint256"
        },
        {
          "name": "",
          "type": "uint256"
        }
      ],
      "name": "shopSKUs",
      "outputs": [
        {
          "name": "",
          "type": "uint256"
        }
      ],
      "payable": false,
      "stateMutability": "view",
      "type": "function"
    },
    {
      "constant": true,
      "inputs": [],
      "name": "ROLE_FRANCHISE_OWNER",
      "outputs": [
        {
          "name": "",
          "type": "string"
        }
      ],
      "payable": false,
      "stateMutability": "view",
      "type": "function"
    },
    {
      "anonymous": false,
      "inputs": [
        {
          "indexed": false,
          "name": "newContract",
          "type": "address"
        }
      ],
      "name": "ContractUpgrade",
      "type": "event"
    },
    {
      "anonymous": false,
      "inputs": [],
      "name": "ContractPaused",
      "type": "event"
    },
    {
      "anonymous": false,
      "inputs": [],
      "name": "ContractUnpaused",
      "type": "event"
    },
    {
      "anonymous": false,
      "inputs": [
        {
          "indexed": true,
          "name": "operator",
          "type": "address"
        },
        {
          "indexed": false,
          "name": "role",
          "type": "string"
        }
      ],
      "name": "RoleAdded",
      "type": "event"
    },
    {
      "anonymous": false,
      "inputs": [
        {
          "indexed": true,
          "name": "operator",
          "type": "address"
        },
        {
          "indexed": false,
          "name": "role",
          "type": "string"
        }
      ],
      "name": "RoleRemoved",
      "type": "event"
    }
  ],
  "bytecode": "0x60806040526000600160006101000a81548160ff02191690831515021790555060018060006101000a81548160ff02191690831515021790555062000089336040805190810160405280601181526020017f726f6c652f73797374656d2d61646d696e000000000000000000000000000000815250620000df640100000000026401000000009004565b620000d9336040805190810160405280601481526020017f726f6c652f6672616e63686973652d6f776e6572000000000000000000000000815250620000df640100000000026401000000009004565b62000286565b6200016e826000836040518082805190602001908083835b6020831015156200011e5780518252602082019150602081019050602083039250620000f7565b6001836020036101000a038019825116818451168082178552505050505050905001915050908152602001604051809103902062000228640100000000026200157d179091906401000000009004565b8173ffffffffffffffffffffffffffffffffffffffff167fbfec83d64eaa953f2708271a023ab9ee82057f8f3578d548c1a4ba0b5b700489826040518080602001828103825283818151815260200191508051906020019080838360005b83811015620001e9578082015181840152602081019050620001cc565b50505050905090810190601f168015620002175780820380516001836020036101000a031916815260200191505b509250505060405180910390a25050565b60018260000160008373ffffffffffffffffffffffffffffffffffffffff1673ffffffffffffffffffffffffffffffffffffffff16815260200190815260200160002060006101000a81548160ff0219169083151502179055505050565b61160780620002966000396000f3006080604052600436106100fc576000357c0100000000000000000000000000000000000000000000000000000000900463ffffffff16806301ba7539146101015780630988ca8c1461014c578063217fe6c6146101d55780632cf0d92a1461027657806335007f0e146102e35780633f4ba83a1461042e57806351b4fc7e14610445578063531e005b146104a657806356de8ccd146105c65780635c975abb146106565780635ded461a146106855780636af04a57146106d0578063713aca741461072757806371587988146108df5780637e1ae976146109225780638456cb59146109b257806391033940146109c9578063cb1b200114610a14575b600080fd5b34801561010d57600080fd5b506101366004803603810190808035906020019092919080359060200190929190505050610aa4565b6040518082815260200191505060405180910390f35b34801561015857600080fd5b506101d3600480360381019080803573ffffffffffffffffffffffffffffffffffffffff169060200190929190803590602001908201803590602001908080601f0160208091040260200160405190810160405280939291908181526020018383808284378201915050505050509192919290505050610ad4565b005b3480156101e157600080fd5b5061025c600480360381019080803573ffffffffffffffffffffffffffffffffffffffff169060200190929190803590602001908201803590602001908080601f0160208091040260200160405190810160405280939291908181526020018383808284378201915050505050509192919290505050610b55565b604051808215151515815260200191505060405180910390f35b34801561028257600080fd5b506102a160048036038101908080359060200190929190505050610bdc565b604051808273ffffffffffffffffffffffffffffffffffffffff1673ffffffffffffffffffffffffffffffffffffffff16815260200191505060405180910390f35b3480156102ef57600080fd5b5061030e60048036038101908080359060200190929190505050610c0f565b604051808a815260200189815260200188815260200187815260200180602001806020018615151515815260200185151515158152602001848152602001838103835288818151815260200191508051906020019080838360005b83811015610384578082015181840152602081019050610369565b50505050905090810190601f1680156103b15780820380516001836020036101000a031916815260200191505b50838103825287818151815260200191508051906020019080838360005b838110156103ea5780820151818401526020810190506103cf565b50505050905090810190601f1680156104175780820380516001836020036101000a031916815260200191505b509b50505050505050505050505060405180910390f35b34801561043a57600080fd5b50610443610db6565b005b34801561045157600080fd5b50610490600480360381019080803573ffffffffffffffffffffffffffffffffffffffff16906020019092919080359060200190929190505050610e59565b6040518082815260200191505060405180910390f35b3480156104b257600080fd5b506104d160048036038101908080359060200190929190505050610e89565b604051808581526020018481526020018060200180602001838103835285818151815260200191508051906020019080838360005b83811015610521578082015181840152602081019050610506565b50505050905090810190601f16801561054e5780820380516001836020036101000a031916815260200191505b50838103825284818151815260200191508051906020019080838360005b8381101561058757808201518184015260208101905061056c565b50505050905090810190601f1680156105b45780820380516001836020036101000a031916815260200191505b50965050505050505060405180910390f35b3480156105d257600080fd5b506105db610ff8565b6040518080602001828103825283818151815260200191508051906020019080838360005b8381101561061b578082015181840152602081019050610600565b50505050905090810190601f1680156106485780820380516001836020036101000a031916815260200191505b509250505060405180910390f35b34801561066257600080fd5b5061066b611031565b604051808215151515815260200191505060405180910390f35b34801561069157600080fd5b506106ba6004803603810190808035906020019092919080359060200190929190505050611044565b6040518082815260200191505060405180910390f35b3480156106dc57600080fd5b506106e5611074565b604051808273ffffffffffffffffffffffffffffffffffffffff1673ffffffffffffffffffffffffffffffffffffffff16815260200191505060405180910390f35b34801561073357600080fd5b5061075260048036038101908080359060200190929190505050611099565b604051808673ffffffffffffffffffffffffffffffffffffffff1673ffffffffffffffffffffffffffffffffffffffff168152602001858152602001806020018060200180602001848103845287818151815260200191508051906020019080838360005b838110156107d25780820151818401526020810190506107b7565b50505050905090810190601f1680156107ff5780820380516001836020036101000a031916815260200191505b50848103835286818151815260200191508051906020019080838360005b8381101561083857808201518184015260208101905061081d565b50505050905090810190601f1680156108655780820380516001836020036101000a031916815260200191505b50848103825285818151815260200191508051906020019080838360005b8381101561089e578082015181840152602081019050610883565b50505050905090810190601f1680156108cb5780820380516001836020036101000a031916815260200191505b509850505050505050505060405180910390f35b3480156108eb57600080fd5b50610920600480360381019080803573ffffffffffffffffffffffffffffffffffffffff1690602001909291905050506112c6565b005b34801561092e57600080fd5b506109376113c6565b6040518080602001828103825283818151815260200191508051906020019080838360005b8381101561097757808201518184015260208101905061095c565b50505050905090810190601f1680156109a45780820380516001836020036101000a031916815260200191505b509250505060405180910390f35b3480156109be57600080fd5b506109c76113ff565b005b3480156109d557600080fd5b506109fe60048036038101908080359060200190929190803590602001909291905050506114a2565b6040518082815260200191505060405180910390f35b348015610a2057600080fd5b50610a296114d2565b6040518080602001828103825283818151815260200191508051906020019080838360005b83811015610a69578082015181840152602081019050610a4e565b50505050905090810190601f168015610a965780820380516001836020036101000a031916815260200191505b509250505060405180910390f35b600860205281600052604060002081815481101515610abf57fe5b90600052602060002001600091509150505481565b610b51826000836040518082805190602001908083835b602083101515610b105780518252602082019150602081019050602083039250610aeb565b6001836020036101000a038019825116818451168082178552505050505050905001915050908152602001604051809103902061150b90919063ffffffff16565b5050565b6000610bd4836000846040518082805190602001908083835b602083101515610b935780518252602082019150602081019050602083039250610b6e565b6001836020036101000a038019825116818451168082178552505050505050905001915050908152602001604051809103902061152490919063ffffffff16565b905092915050565b60066020528060005260406000206000915054906101000a900473ffffffffffffffffffffffffffffffffffffffff1681565b600581815481101515610c1e57fe5b9060005260206000209060080201600091509050806000015490806001015490806002015490806003015490806004018054600181600116156101000203166002900480601f016020809104026020016040519081016040528092919081815260200182805460018160011615610100020316600290048015610ce25780601f10610cb757610100808354040283529160200191610ce2565b820191906000526020600020905b815481529060010190602001808311610cc557829003601f168201915b505050505090806005018054600181600116156101000203166002900480601f016020809104026020016040519081016040528092919081815260200182805460018160011615610100020316600290048015610d805780601f10610d5557610100808354040283529160200191610d80565b820191906000526020600020905b815481529060010190602001808311610d6357829003601f168201915b5050505050908060060160009054906101000a900460ff16908060060160019054906101000a900460ff16908060070154905089565b610df5336040805190810160405280601181526020017f726f6c652f73797374656d2d61646d696e000000000000000000000000000000815250610ad4565b600160009054906101000a900460ff161515610e1057600080fd5b6000600160006101000a81548160ff0219169083151502179055507f0e5e3b3fb504c22cf5c42fa07d521225937514c654007e1f12646f89768d6f9460405160405180910390a1565b600760205281600052604060002081815481101515610e7457fe5b90600052602060002001600091509150505481565b600481815481101515610e9857fe5b9060005260206000209060040201600091509050806000015490806001015490806002018054600181600116156101000203166002900480601f016020809104026020016040519081016040528092919081815260200182805460018160011615610100020316600290048015610f505780601f10610f2557610100808354040283529160200191610f50565b820191906000526020600020905b815481529060010190602001808311610f3357829003601f168201915b505050505090806003018054600181600116156101000203166002900480601f016020809104026020016040519081016040528092919081815260200182805460018160011615610100020316600290048015610fee5780601f10610fc357610100808354040283529160200191610fee565b820191906000526020600020905b815481529060010190602001808311610fd157829003601f168201915b5050505050905084565b6040805190810160405280601181526020017f726f6c652f73797374656d2d61646d696e00000000000000000000000000000081525081565b600160009054906101000a900460ff1681565b60096020528160005260406000208181548110151561105f57fe5b90600052602060002001600091509150505481565b6001809054906101000a900473ffffffffffffffffffffffffffffffffffffffff1681565b6003818154811015156110a857fe5b90600052602060002090600502016000915090508060000160009054906101000a900473ffffffffffffffffffffffffffffffffffffffff1690806001015490806002018054600181600116156101000203166002900480601f0160208091040260200160405190810160405280929190818152602001828054600181600116156101000203166002900480156111805780601f1061115557610100808354040283529160200191611180565b820191906000526020600020905b81548152906001019060200180831161116357829003601f168201915b505050505090806003018054600181600116156101000203166002900480601f01602080910402602001604051908101604052809291908181526020018280546001816001161561010002031660029004801561121e5780601f106111f35761010080835404028352916020019161121e565b820191906000526020600020905b81548152906001019060200180831161120157829003601f168201915b505050505090806004018054600181600116156101000203166002900480601f0160208091040260200160405190810160405280929190818152602001828054600181600116156101000203166002900480156112bc5780601f10611291576101008083540402835291602001916112bc565b820191906000526020600020905b81548152906001019060200180831161129f57829003601f168201915b5050505050905085565b611305336040805190810160405280601181526020017f726f6c652f73797374656d2d61646d696e000000000000000000000000000000815250610ad4565b600160009054906101000a900460ff16151561132057600080fd5b806001806101000a81548173ffffffffffffffffffffffffffffffffffffffff021916908373ffffffffffffffffffffffffffffffffffffffff1602179055507f450db8da6efbe9c22f2347f7c2021231df1fc58d3ae9a2fa75d39fa44619930581604051808273ffffffffffffffffffffffffffffffffffffffff1673ffffffffffffffffffffffffffffffffffffffff16815260200191505060405180910390a150565b6040805190810160405280600f81526020017f726f6c652f73686f702d6f776e6572000000000000000000000000000000000081525081565b61143e336040805190810160405280601181526020017f726f6c652f73797374656d2d61646d696e000000000000000000000000000000815250610ad4565b600160009054906101000a900460ff1615151561145a57600080fd5b60018060006101000a81548160ff0219169083151502179055507fab35696f06e428ebc5ceba8cd17f8fed287baf43440206d1943af1ee53e6d26760405160405180910390a1565b600a602052816000526040600020818154811015156114bd57fe5b90600052602060002001600091509150505481565b6040805190810160405280601481526020017f726f6c652f6672616e63686973652d6f776e657200000000000000000000000081525081565b6115158282611524565b151561152057600080fd5b5050565b60008260000160008373ffffffffffffffffffffffffffffffffffffffff1673ffffffffffffffffffffffffffffffffffffffff16815260200190815260200160002060009054906101000a900460ff16905092915050565b60018260000160008373ffffffffffffffffffffffffffffffffffffffff1673ffffffffffffffffffffffffffffffffffffffff16815260200190815260200160002060006101000a81548160ff02191690831515021790555050505600a165627a7a72305820302b492048299aa482fea4b6a5528fc4c24e577f6d72514024679211f642bbd30029",
  "source": "pragma solidity ^0.4.24;\n\nimport \"openzeppelin-solidity/contracts/math/SafeMath.sol\";\nimport \"./AccessControl.sol\";\nimport \"./FiatContractInterface.sol\";\n\n\n/**\n * @title StockRoomBase\n * @notice Defines collections, mappings, and structs for the StockRoom side of the In-game Pro Shop System\n */\ncontract StockRoomBase is AccessControl {\n\n    using SafeMath for uint256;\n\n    FiatContractInterface internal fiatContract;\n\n    /**\n     * @dev modifier to scope access to owner of given shop\n     */\n    modifier onlyShopOwner(uint256 _shopId) {\n        address owner = shopToOwner[_shopId];\n        require(msg.sender == owner);\n        _;\n    }\n\n    /**\n     * @notice All of the Shops\n     */\n    Shop[] public shops;\n\n    /**\n     * @notice All of the SKU Types\n     */\n    SKUType[] public skuTypes;\n\n    /**\n     * @notice All of the SKUs\n     */\n    SKU[] public skus;\n\n    /**\n     * @dev Mapping of Shop ID to Owner Address\n     */\n    mapping (uint256 => address) public shopToOwner;\n\n    /**\n     * @dev Mapping of Owner Address to list of owned Shops\n     */\n    mapping (address => uint256[]) public ownedShops;\n\n    /**\n     * @dev Mapping of Shop ID to SKU Type list\n     */\n    mapping (uint256 => uint256[]) public shopSKUTypes;\n\n    /**\n     * @dev Mapping of SKU Type ID to SKU list\n     */\n    mapping (uint256 => uint256[]) public skuTypeSKUs;\n\n    /**\n     * @dev Mapping of Shop ID to SKU list\n     */\n    mapping (uint256 => uint256[]) public shopSKUs;\n\n    /**\n     * @notice Structure of a Pro Shop\n     */\n    struct Shop {\n\n        // Owner of the item\n        address owner;\n\n        // The id of this shop\n        uint256 shopId;\n\n        // Name of the item\n        string name;\n\n        // Description of the shop\n        string description;\n\n        // Fiat currency for prices\n        string fiat;\n    }\n\n    /**\n     * @notice the attributes of an item\n     */\n    struct SKUType {\n\n        // ID of the Shop this SKU Type belongs to\n        uint256 shopId;\n\n        // ID of the SKU Type\n        uint256 skuTypeId;\n\n        // Name of the SKU Type\n        string name;\n\n        // Description of the SKU Type (optional)\n        string description;\n    }\n\n    /**\n     * @notice Structure of a Pro Shop SKU (Shopkeeping Unit)\n     */\n    struct SKU {\n\n        // The shop this SKU belongs to\n        uint256 shopId;\n\n        // The id of this SKU\n        uint256 skuId;\n\n        // Type of the SKU\n        uint256 skuTypeId;\n\n        // Price of the SKU\n        uint256 price;\n\n        // Name of the item\n        string name;\n\n        // Description of the SKU\n        string description;\n\n        // Can it be consumed (used up)\n        bool consumable;\n\n        // Is there a limit to the number of Items that can\n        // be minted from this SKU?\n        bool limited;\n\n        // If limited, what is the maximum number that\n        // can be created?\n        uint256 limit;\n\n    }\n\n}\n",
  "sourcePath": "/Users/cliff/Documents/in-app-pro-shop/contracts/StockRoomBase.sol",
  "compiler": {
    "name": "solc",
    "version": "0.4.24+commit.e67f0147.Emscripten.clang"
  },
  "schemaVersion": "2.0.1",
  "updatedAt": "2019-01-03T21:03:40.319Z"
}