{
  "contractName": "StockRoom",
  "abi": [
    {
      "constant": true,
      "inputs": [
        {
          "name": "",
          "type": "uint256"
        },
        {
          "name": "",
          "type": "uint256"
        }
      ],
      "name": "shopSKUTypes",
      "outputs": [
        {
          "name": "",
          "type": "uint256"
        }
      ],
      "payable": false,
      "stateMutability": "view",
      "type": "function"
    },
    {
      "constant": true,
      "inputs": [
        {
          "name": "_operator",
          "type": "address"
        },
        {
          "name": "_role",
          "type": "string"
        }
      ],
      "name": "checkRole",
      "outputs": [],
      "payable": false,
      "stateMutability": "view",
      "type": "function"
    },
    {
      "constant": true,
      "inputs": [
        {
          "name": "_operator",
          "type": "address"
        },
        {
          "name": "_role",
          "type": "string"
        }
      ],
      "name": "hasRole",
      "outputs": [
        {
          "name": "",
          "type": "bool"
        }
      ],
      "payable": false,
      "stateMutability": "view",
      "type": "function"
    },
    {
      "constant": true,
      "inputs": [
        {
          "name": "",
          "type": "uint256"
        }
      ],
      "name": "shopToOwner",
      "outputs": [
        {
          "name": "",
          "type": "address"
        }
      ],
      "payable": false,
      "stateMutability": "view",
      "type": "function"
    },
    {
      "constant": true,
      "inputs": [
        {
          "name": "",
          "type": "uint256"
        }
      ],
      "name": "skus",
      "outputs": [
        {
          "name": "shopId",
          "type": "uint256"
        },
        {
          "name": "skuId",
          "type": "uint256"
        },
        {
          "name": "skuTypeId",
          "type": "uint256"
        },
        {
          "name": "price",
          "type": "uint256"
        },
        {
          "name": "name",
          "type": "string"
        },
        {
          "name": "description",
          "type": "string"
        },
        {
          "name": "consumable",
          "type": "bool"
        },
        {
          "name": "limited",
          "type": "bool"
        },
        {
          "name": "limit",
          "type": "uint256"
        }
      ],
      "payable": false,
      "stateMutability": "view",
      "type": "function"
    },
    {
      "constant": false,
      "inputs": [],
      "name": "unpause",
      "outputs": [],
      "payable": false,
      "stateMutability": "nonpayable",
      "type": "function"
    },
    {
      "constant": false,
      "inputs": [
        {
          "name": "_shopId",
          "type": "uint256"
        },
        {
          "name": "_name",
          "type": "string"
        },
        {
          "name": "_desc",
          "type": "string"
        }
      ],
      "name": "createSKUType",
      "outputs": [
        {
          "name": "",
          "type": "uint256"
        }
      ],
      "payable": false,
      "stateMutability": "nonpayable",
      "type": "function"
    },
    {
      "constant": true,
      "inputs": [
        {
          "name": "",
          "type": "address"
        },
        {
          "name": "",
          "type": "uint256"
        }
      ],
      "name": "ownedShops",
      "outputs": [
        {
          "name": "",
          "type": "uint256"
        }
      ],
      "payable": false,
      "stateMutability": "view",
      "type": "function"
    },
    {
      "constant": true,
      "inputs": [
        {
          "name": "",
          "type": "uint256"
        }
      ],
      "name": "skuTypes",
      "outputs": [
        {
          "name": "shopId",
          "type": "uint256"
        },
        {
          "name": "skuTypeId",
          "type": "uint256"
        },
        {
          "name": "name",
          "type": "string"
        },
        {
          "name": "description",
          "type": "string"
        }
      ],
      "payable": false,
      "stateMutability": "view",
      "type": "function"
    },
    {
      "constant": true,
      "inputs": [],
      "name": "ROLE_SYS_ADMIN",
      "outputs": [
        {
          "name": "",
          "type": "string"
        }
      ],
      "payable": false,
      "stateMutability": "view",
      "type": "function"
    },
    {
      "constant": true,
      "inputs": [],
      "name": "paused",
      "outputs": [
        {
          "name": "",
          "type": "bool"
        }
      ],
      "payable": false,
      "stateMutability": "view",
      "type": "function"
    },
    {
      "constant": true,
      "inputs": [
        {
          "name": "",
          "type": "uint256"
        },
        {
          "name": "",
          "type": "uint256"
        }
      ],
      "name": "skuTypeSKUs",
      "outputs": [
        {
          "name": "",
          "type": "uint256"
        }
      ],
      "payable": false,
      "stateMutability": "view",
      "type": "function"
    },
    {
      "constant": true,
      "inputs": [],
      "name": "newContractAddress",
      "outputs": [
        {
          "name": "",
          "type": "address"
        }
      ],
      "payable": false,
      "stateMutability": "view",
      "type": "function"
    },
    {
      "constant": true,
      "inputs": [
        {
          "name": "",
          "type": "uint256"
        }
      ],
      "name": "shops",
      "outputs": [
        {
          "name": "owner",
          "type": "address"
        },
        {
          "name": "shopId",
          "type": "uint256"
        },
        {
          "name": "name",
          "type": "string"
        },
        {
          "name": "description",
          "type": "string"
        },
        {
          "name": "fiat",
          "type": "string"
        }
      ],
      "payable": false,
      "stateMutability": "view",
      "type": "function"
    },
    {
      "constant": false,
      "inputs": [
        {
          "name": "_newAddress",
          "type": "address"
        }
      ],
      "name": "setNewAddress",
      "outputs": [],
      "payable": false,
      "stateMutability": "nonpayable",
      "type": "function"
    },
    {
      "constant": true,
      "inputs": [],
      "name": "ROLE_SHOP_OWNER",
      "outputs": [
        {
          "name": "",
          "type": "string"
        }
      ],
      "payable": false,
      "stateMutability": "view",
      "type": "function"
    },
    {
      "constant": false,
      "inputs": [],
      "name": "pause",
      "outputs": [],
      "payable": false,
      "stateMutability": "nonpayable",
      "type": "function"
    },
    {
      "constant": true,
      "inputs": [
        {
          "name": "",
          "type": "uint256"
        },
        {
          "name": "",
          "type": "uint256"
        }
      ],
      "name": "shopSKUs",
      "outputs": [
        {
          "name": "",
          "type": "uint256"
        }
      ],
      "payable": false,
      "stateMutability": "view",
      "type": "function"
    },
    {
      "constant": false,
      "inputs": [
        {
          "name": "_name",
          "type": "string"
        },
        {
          "name": "_desc",
          "type": "string"
        },
        {
          "name": "_fiat",
          "type": "string"
        }
      ],
      "name": "createShop",
      "outputs": [
        {
          "name": "",
          "type": "uint256"
        }
      ],
      "payable": false,
      "stateMutability": "nonpayable",
      "type": "function"
    },
    {
      "constant": false,
      "inputs": [
        {
          "name": "_shopId",
          "type": "uint256"
        },
        {
          "name": "_skuTypeId",
          "type": "uint256"
        },
        {
          "name": "_price",
          "type": "uint256"
        },
        {
          "name": "_name",
          "type": "string"
        },
        {
          "name": "_desc",
          "type": "string"
        },
        {
          "name": "_consumable",
          "type": "bool"
        },
        {
          "name": "_limited",
          "type": "bool"
        },
        {
          "name": "_limit",
          "type": "uint256"
        }
      ],
      "name": "createSKU",
      "outputs": [
        {
          "name": "",
          "type": "uint256"
        }
      ],
      "payable": false,
      "stateMutability": "nonpayable",
      "type": "function"
    },
    {
      "constant": true,
      "inputs": [],
      "name": "ROLE_FRANCHISE_OWNER",
      "outputs": [
        {
          "name": "",
          "type": "string"
        }
      ],
      "payable": false,
      "stateMutability": "view",
      "type": "function"
    },
    {
      "anonymous": false,
      "inputs": [
        {
          "indexed": true,
          "name": "shopId",
          "type": "uint256"
        },
        {
          "indexed": false,
          "name": "skuId",
          "type": "uint256"
        },
        {
          "indexed": false,
          "name": "name",
          "type": "string"
        }
      ],
      "name": "NewSKU",
      "type": "event"
    },
    {
      "anonymous": false,
      "inputs": [
        {
          "indexed": true,
          "name": "shopId",
          "type": "uint256"
        },
        {
          "indexed": false,
          "name": "skuTypeId",
          "type": "uint256"
        },
        {
          "indexed": false,
          "name": "name",
          "type": "string"
        }
      ],
      "name": "NewSKUType",
      "type": "event"
    },
    {
      "anonymous": false,
      "inputs": [
        {
          "indexed": true,
          "name": "owner",
          "type": "address"
        },
        {
          "indexed": false,
          "name": "shopId",
          "type": "uint256"
        },
        {
          "indexed": false,
          "name": "name",
          "type": "string"
        }
      ],
      "name": "NewShop",
      "type": "event"
    },
    {
      "anonymous": false,
      "inputs": [
        {
          "indexed": false,
          "name": "newContract",
          "type": "address"
        }
      ],
      "name": "ContractUpgrade",
      "type": "event"
    },
    {
      "anonymous": false,
      "inputs": [],
      "name": "ContractPaused",
      "type": "event"
    },
    {
      "anonymous": false,
      "inputs": [],
      "name": "ContractUnpaused",
      "type": "event"
    },
    {
      "anonymous": false,
      "inputs": [
        {
          "indexed": true,
          "name": "operator",
          "type": "address"
        },
        {
          "indexed": false,
          "name": "role",
          "type": "string"
        }
      ],
      "name": "RoleAdded",
      "type": "event"
    },
    {
      "anonymous": false,
      "inputs": [
        {
          "indexed": true,
          "name": "operator",
          "type": "address"
        },
        {
          "indexed": false,
          "name": "role",
          "type": "string"
        }
      ],
      "name": "RoleRemoved",
      "type": "event"
    },
    {
      "constant": false,
      "inputs": [
        {
          "name": "_address",
          "type": "address"
        }
      ],
      "name": "setFiatContractAddress",
      "outputs": [],
      "payable": false,
      "stateMutability": "nonpayable",
      "type": "function"
    },
    {
      "constant": true,
      "inputs": [],
      "name": "isStockRoom",
      "outputs": [
        {
          "name": "",
          "type": "bool"
        }
      ],
      "payable": false,
      "stateMutability": "pure",
      "type": "function"
    },
    {
      "constant": true,
      "inputs": [
        {
          "name": "_skuId",
          "type": "uint256"
        }
      ],
      "name": "getPriceInEther",
      "outputs": [
        {
          "name": "",
          "type": "uint256"
        }
      ],
      "payable": false,
      "stateMutability": "view",
      "type": "function"
    },
    {
      "constant": true,
      "inputs": [
        {
          "name": "_shopId",
          "type": "uint256"
        },
        {
          "name": "_amount",
          "type": "uint256"
        }
      ],
      "name": "convertEtherToShopFiat",
      "outputs": [
        {
          "name": "",
          "type": "uint256"
        }
      ],
      "payable": false,
      "stateMutability": "view",
      "type": "function"
    },
    {
      "constant": true,
      "inputs": [
        {
          "name": "_amount",
          "type": "uint256"
        }
      ],
      "name": "convertEtherToFranchiseFiat",
      "outputs": [
        {
          "name": "",
          "type": "uint256"
        }
      ],
      "payable": false,
      "stateMutability": "view",
      "type": "function"
    },
    {
      "constant": true,
      "inputs": [
        {
          "name": "_skuId",
          "type": "uint256"
        },
        {
          "name": "_itemCount",
          "type": "uint256"
        }
      ],
      "name": "canMintItem",
      "outputs": [
        {
          "name": "",
          "type": "bool"
        }
      ],
      "payable": false,
      "stateMutability": "view",
      "type": "function"
    },
    {
      "constant": true,
      "inputs": [
        {
          "name": "_skuTypeId",
          "type": "uint256"
        }
      ],
      "name": "getSKUTypeSKUIds",
      "outputs": [
        {
          "name": "",
          "type": "uint256[]"
        }
      ],
      "payable": false,
      "stateMutability": "view",
      "type": "function"
    },
    {
      "constant": true,
      "inputs": [
        {
          "name": "_shopId",
          "type": "uint256"
        }
      ],
      "name": "getSKUIds",
      "outputs": [
        {
          "name": "",
          "type": "uint256[]"
        }
      ],
      "payable": false,
      "stateMutability": "view",
      "type": "function"
    },
    {
      "constant": true,
      "inputs": [
        {
          "name": "_skuId",
          "type": "uint256"
        }
      ],
      "name": "getSKU",
      "outputs": [
        {
          "name": "",
          "type": "uint256"
        },
        {
          "name": "",
          "type": "uint256"
        },
        {
          "name": "",
          "type": "uint256"
        },
        {
          "name": "",
          "type": "uint256"
        },
        {
          "name": "",
          "type": "string"
        },
        {
          "name": "",
          "type": "string"
        },
        {
          "name": "",
          "type": "bool"
        },
        {
          "name": "",
          "type": "bool"
        },
        {
          "name": "",
          "type": "uint256"
        }
      ],
      "payable": false,
      "stateMutability": "view",
      "type": "function"
    },
    {
      "constant": true,
      "inputs": [
        {
          "name": "_shopId",
          "type": "uint256"
        }
      ],
      "name": "getSKUTypeIds",
      "outputs": [
        {
          "name": "",
          "type": "uint256[]"
        }
      ],
      "payable": false,
      "stateMutability": "view",
      "type": "function"
    },
    {
      "constant": true,
      "inputs": [
        {
          "name": "_skuTypeId",
          "type": "uint256"
        }
      ],
      "name": "getSKUType",
      "outputs": [
        {
          "name": "",
          "type": "uint256"
        },
        {
          "name": "",
          "type": "uint256"
        },
        {
          "name": "",
          "type": "string"
        },
        {
          "name": "",
          "type": "string"
        }
      ],
      "payable": false,
      "stateMutability": "view",
      "type": "function"
    },
    {
      "constant": true,
      "inputs": [
        {
          "name": "_owner",
          "type": "address"
        }
      ],
      "name": "getShopIds",
      "outputs": [
        {
          "name": "",
          "type": "uint256[]"
        }
      ],
      "payable": false,
      "stateMutability": "view",
      "type": "function"
    },
    {
      "constant": true,
      "inputs": [
        {
          "name": "_shopId",
          "type": "uint256"
        }
      ],
      "name": "getShop",
      "outputs": [
        {
          "name": "",
          "type": "address"
        },
        {
          "name": "",
          "type": "uint256"
        },
        {
          "name": "",
          "type": "string"
        },
        {
          "name": "",
          "type": "string"
        },
        {
          "name": "",
          "type": "string"
        }
      ],
      "payable": false,
      "stateMutability": "view",
      "type": "function"
    },
    {
      "constant": true,
      "inputs": [
        {
          "name": "_shopId",
          "type": "uint256"
        }
      ],
      "name": "getShopOwner",
      "outputs": [
        {
          "name": "",
          "type": "address"
        }
      ],
      "payable": false,
      "stateMutability": "view",
      "type": "function"
    }
  ],
  "bytecode": "0x60806040526000600160006101000a81548160ff02191690831515021790555060018060006101000a81548160ff02191690831515021790555062000089336040805190810160405280601181526020017f726f6c652f73797374656d2d61646d696e000000000000000000000000000000815250620000df640100000000026401000000009004565b620000d9336040805190810160405280601481526020017f726f6c652f6672616e63686973652d6f776e6572000000000000000000000000815250620000df640100000000026401000000009004565b62000286565b6200016e826000836040518082805190602001908083835b6020831015156200011e5780518252602082019150602081019050602083039250620000f7565b6001836020036101000a0380198251168184511680821785525050505050509050019150509081526020016040518091039020620002286401000000000262003dbb179091906401000000009004565b8173ffffffffffffffffffffffffffffffffffffffff167fbfec83d64eaa953f2708271a023ab9ee82057f8f3578d548c1a4ba0b5b700489826040518080602001828103825283818151815260200191508051906020019080838360005b83811015620001e9578082015181840152602081019050620001cc565b50505050905090810190601f168015620002175780820380516001836020036101000a031916815260200191505b509250505060405180910390a25050565b60018260000160008373ffffffffffffffffffffffffffffffffffffffff1673ffffffffffffffffffffffffffffffffffffffff16815260200190815260200160002060006101000a81548160ff0219169083151502179055505050565b613faa80620002966000396000f3006080604052600436106101b7576000357c0100000000000000000000000000000000000000000000000000000000900463ffffffff16806301ba7539146101bc5780630988ca8c14610207578063104f759e14610290578063199f0b17146102db578063217fe6c6146103735780632cf0d92a146104145780633349bacc1461048157806335007f0e146104b0578063377946f2146105fb5780633f4ba83a1461067d5780633fbe2c5514610694578063452431201461071657806345b727f314610759578063488d136e1461091157806351b4fc7e14610982578063531e005b146109e357806356de8ccd14610b035780635c975abb14610b935780635ded461a14610bc25780636af04a5714610c0d578063713aca7414610c645780637158798814610e1c5780637e1ae97614610e5f5780638456cb5914610eef5780638ae7f10514610f06578063910339401461102657806392bec5ee1461107157806397fcb081146110f0578063acb123a6146111f3578063ae27eda81461133e578063ae539d80146113c0578063bd8f03d714611401578063cb1b200114611442578063e0456ec9146114d2578063f29d498a1461153f575b600080fd5b3480156101c857600080fd5b506101f1600480360381019080803590602001909291908035906020019092919050505061158e565b6040518082815260200191505060405180910390f35b34801561021357600080fd5b5061028e600480360381019080803573ffffffffffffffffffffffffffffffffffffffff169060200190929190803590602001908201803590602001908080601f01602080910402602001604051908101604052809392919081815260200183838082843782019150505050505091929192905050506115be565b005b34801561029c57600080fd5b506102c5600480360381019080803590602001909291908035906020019092919050505061163f565b6040518082815260200191505060405180910390f35b3480156102e757600080fd5b5061031c600480360381019080803573ffffffffffffffffffffffffffffffffffffffff169060200190929190505050611721565b6040518080602001828103825283818151815260200191508051906020019060200280838360005b8381101561035f578082015181840152602081019050610344565b505050509050019250505060405180910390f35b34801561037f57600080fd5b506103fa600480360381019080803573ffffffffffffffffffffffffffffffffffffffff169060200190929190803590602001908201803590602001908080601f01602080910402602001604051908101604052809392919081815260200183838082843782019150505050505091929192905050506117b8565b604051808215151515815260200191505060405180910390f35b34801561042057600080fd5b5061043f6004803603810190808035906020019092919050505061183f565b604051808273ffffffffffffffffffffffffffffffffffffffff1673ffffffffffffffffffffffffffffffffffffffff16815260200191505060405180910390f35b34801561048d57600080fd5b50610496611872565b604051808215151515815260200191505060405180910390f35b3480156104bc57600080fd5b506104db6004803603810190808035906020019092919050505061187b565b604051808a815260200189815260200188815260200187815260200180602001806020018615151515815260200185151515158152602001848152602001838103835288818151815260200191508051906020019080838360005b83811015610551578082015181840152602081019050610536565b50505050905090810190601f16801561057e5780820380516001836020036101000a031916815260200191505b50838103825287818151815260200191508051906020019080838360005b838110156105b757808201518184015260208101905061059c565b50505050905090810190601f1680156105e45780820380516001836020036101000a031916815260200191505b509b50505050505050505050505060405180910390f35b34801561060757600080fd5b5061062660048036038101908080359060200190929190505050611a22565b6040518080602001828103825283818151815260200191508051906020019060200280838360005b8381101561066957808201518184015260208101905061064e565b505050509050019250505060405180910390f35b34801561068957600080fd5b50610692611a8d565b005b3480156106a057600080fd5b506106bf60048036038101908080359060200190929190505050611b30565b6040518080602001828103825283818151815260200191508051906020019060200280838360005b838110156107025780820151818401526020810190506106e7565b505050509050019250505060405180910390f35b34801561072257600080fd5b50610757600480360381019080803573ffffffffffffffffffffffffffffffffffffffff169060200190929190505050611b9b565b005b34801561076557600080fd5b5061078460048036038101908080359060200190929190505050611cde565b604051808673ffffffffffffffffffffffffffffffffffffffff1673ffffffffffffffffffffffffffffffffffffffff168152602001858152602001806020018060200180602001848103845287818151815260200191508051906020019080838360005b838110156108045780820151818401526020810190506107e9565b50505050905090810190601f1680156108315780820380516001836020036101000a031916815260200191505b50848103835286818151815260200191508051906020019080838360005b8381101561086a57808201518184015260208101905061084f565b50505050905090810190601f1680156108975780820380516001836020036101000a031916815260200191505b50848103825285818151815260200191508051906020019080838360005b838110156108d05780820151818401526020810190506108b5565b50505050905090810190601f1680156108fd5780820380516001836020036101000a031916815260200191505b509850505050505050505060405180910390f35b34801561091d57600080fd5b5061096c60048036038101908080359060200190929190803590602001908201803590602001919091929391929390803590602001908201803590602001919091929391929390505050611fa9565b6040518082815260200191505060405180910390f35b34801561098e57600080fd5b506109cd600480360381019080803573ffffffffffffffffffffffffffffffffffffffff169060200190929190803590602001909291905050506121d1565b6040518082815260200191505060405180910390f35b3480156109ef57600080fd5b50610a0e60048036038101908080359060200190929190505050612201565b604051808581526020018481526020018060200180602001838103835285818151815260200191508051906020019080838360005b83811015610a5e578082015181840152602081019050610a43565b50505050905090810190601f168015610a8b5780820380516001836020036101000a031916815260200191505b50838103825284818151815260200191508051906020019080838360005b83811015610ac4578082015181840152602081019050610aa9565b50505050905090810190601f168015610af15780820380516001836020036101000a031916815260200191505b50965050505050505060405180910390f35b348015610b0f57600080fd5b50610b18612370565b6040518080602001828103825283818151815260200191508051906020019080838360005b83811015610b58578082015181840152602081019050610b3d565b50505050905090810190601f168015610b855780820380516001836020036101000a031916815260200191505b509250505060405180910390f35b348015610b9f57600080fd5b50610ba86123a9565b604051808215151515815260200191505060405180910390f35b348015610bce57600080fd5b50610bf760048036038101908080359060200190929190803590602001909291905050506123bc565b6040518082815260200191505060405180910390f35b348015610c1957600080fd5b50610c226123ec565b604051808273ffffffffffffffffffffffffffffffffffffffff1673ffffffffffffffffffffffffffffffffffffffff16815260200191505060405180910390f35b348015610c7057600080fd5b50610c8f60048036038101908080359060200190929190505050612411565b604051808673ffffffffffffffffffffffffffffffffffffffff1673ffffffffffffffffffffffffffffffffffffffff168152602001858152602001806020018060200180602001848103845287818151815260200191508051906020019080838360005b83811015610d0f578082015181840152602081019050610cf4565b50505050905090810190601f168015610d3c5780820380516001836020036101000a031916815260200191505b50848103835286818151815260200191508051906020019080838360005b83811015610d75578082015181840152602081019050610d5a565b50505050905090810190601f168015610da25780820380516001836020036101000a031916815260200191505b50848103825285818151815260200191508051906020019080838360005b83811015610ddb578082015181840152602081019050610dc0565b50505050905090810190601f168015610e085780820380516001836020036101000a031916815260200191505b509850505050505050505060405180910390f35b348015610e2857600080fd5b50610e5d600480360381019080803573ffffffffffffffffffffffffffffffffffffffff16906020019092919050505061263e565b005b348015610e6b57600080fd5b50610e7461273e565b6040518080602001828103825283818151815260200191508051906020019080838360005b83811015610eb4578082015181840152602081019050610e99565b50505050905090810190601f168015610ee15780820380516001836020036101000a031916815260200191505b509250505060405180910390f35b348015610efb57600080fd5b50610f04612777565b005b348015610f1257600080fd5b50610f316004803603810190808035906020019092919050505061281a565b604051808581526020018481526020018060200180602001838103835285818151815260200191508051906020019080838360005b83811015610f81578082015181840152602081019050610f66565b50505050905090810190601f168015610fae5780820380516001836020036101000a031916815260200191505b50838103825284818151815260200191508051906020019080838360005b83811015610fe7578082015181840152602081019050610fcc565b50505050905090810190601f1680156110145780820380516001836020036101000a031916815260200191505b50965050505050505060405180910390f35b34801561103257600080fd5b5061105b60048036038101908080359060200190929190803590602001909291905050506129e9565b6040518082815260200191505060405180910390f35b34801561107d57600080fd5b506110da600480360381019080803590602001908201803590602001919091929391929390803590602001908201803590602001919091929391929390803590602001908201803590602001919091929391929390505050612a19565b6040518082815260200191505060405180910390f35b3480156110fc57600080fd5b506111dd600480360381019080803590602001909291908035906020019092919080359060200190929190803590602001908201803590602001908080601f0160208091040260200160405190810160405280939291908181526020018383808284378201915050505050509192919290803590602001908201803590602001908080601f016020809104026020016040519081016040528093929190818152602001838380828437820191505050505050919291929080351515906020019092919080351515906020019092919080359060200190929190505050612d4e565b6040518082815260200191505060405180910390f35b3480156111ff57600080fd5b5061121e6004803603810190808035906020019092919050505061302e565b604051808a815260200189815260200188815260200187815260200180602001806020018615151515815260200185151515158152602001848152602001838103835288818151815260200191508051906020019080838360005b83811015611294578082015181840152602081019050611279565b50505050905090810190601f1680156112c15780820380516001836020036101000a031916815260200191505b50838103825287818151815260200191508051906020019080838360005b838110156112fa5780820151818401526020810190506112df565b50505050905090810190601f1680156113275780820380516001836020036101000a031916815260200191505b509b50505050505050505050505060405180910390f35b34801561134a57600080fd5b5061136960048036038101908080359060200190929190505050613284565b6040518080602001828103825283818151815260200191508051906020019060200280838360005b838110156113ac578082015181840152602081019050611391565b505050509050019250505060405180910390f35b3480156113cc57600080fd5b506113eb600480360381019080803590602001909291905050506132ef565b6040518082815260200191505060405180910390f35b34801561140d57600080fd5b5061142c600480360381019080803590602001909291905050506135aa565b6040518082815260200191505060405180910390f35b34801561144e57600080fd5b50611457613608565b6040518080602001828103825283818151815260200191508051906020019080838360005b8381101561149757808201518184015260208101905061147c565b50505050905090810190601f1680156114c45780820380516001836020036101000a031916815260200191505b509250505060405180910390f35b3480156114de57600080fd5b506114fd60048036038101908080359060200190929190505050613641565b604051808273ffffffffffffffffffffffffffffffffffffffff1673ffffffffffffffffffffffffffffffffffffffff16815260200191505060405180910390f35b34801561154b57600080fd5b50611574600480360381019080803590602001909291908035906020019092919050505061369f565b604051808215151515815260200191505060405180910390f35b6008602052816000526040600020818154811015156115a957fe5b90600052602060002001600091509150505481565b61163b826000836040518082805190602001908083835b6020831015156115fa57805182526020820191506020810190506020830392506115d5565b6001836020036101000a038019825116818451168082178552505050505050905001915050908152602001604051809103902061370290919063ffffffff16565b5050565b60008061170360038581548110151561165457fe5b90600052602060002090600502016004018054600181600116156101000203166002900480601f0160208091040260200160405190810160405280929190818152602001828054600181600116156101000203166002900480156116f95780601f106116ce576101008083540402835291602001916116f9565b820191906000526020600020905b8154815290600101906020018083116116dc57829003601f168201915b505050505061371b565b90506117188184613c1890919063ffffffff16565b91505092915050565b6060600760008373ffffffffffffffffffffffffffffffffffffffff1673ffffffffffffffffffffffffffffffffffffffff1681526020019081526020016000208054806020026020016040519081016040528092919081815260200182805480156117ac57602002820191906000526020600020905b815481526020019060010190808311611798575b50505050509050919050565b6000611837836000846040518082805190602001908083835b6020831015156117f657805182526020820191506020810190506020830392506117d1565b6001836020036101000a0380198251168184511680821785525050505050509050019150509081526020016040518091039020613c2e90919063ffffffff16565b905092915050565b60066020528060005260406000206000915054906101000a900473ffffffffffffffffffffffffffffffffffffffff1681565b60006001905090565b60058181548110151561188a57fe5b9060005260206000209060080201600091509050806000015490806001015490806002015490806003015490806004018054600181600116156101000203166002900480601f01602080910402602001604051908101604052809291908181526020018280546001816001161561010002031660029004801561194e5780601f106119235761010080835404028352916020019161194e565b820191906000526020600020905b81548152906001019060200180831161193157829003601f168201915b505050505090806005018054600181600116156101000203166002900480601f0160208091040260200160405190810160405280929190818152602001828054600181600116156101000203166002900480156119ec5780601f106119c1576101008083540402835291602001916119ec565b820191906000526020600020905b8154815290600101906020018083116119cf57829003601f168201915b5050505050908060060160009054906101000a900460ff16908060060160019054906101000a900460ff16908060070154905089565b606060096000838152602001908152602001600020805480602002602001604051908101604052809291908181526020018280548015611a8157602002820191906000526020600020905b815481526020019060010190808311611a6d575b50505050509050919050565b611acc336040805190810160405280601181526020017f726f6c652f73797374656d2d61646d696e0000000000000000000000000000008152506115be565b600160009054906101000a900460ff161515611ae757600080fd5b6000600160006101000a81548160ff0219169083151502179055507f0e5e3b3fb504c22cf5c42fa07d521225937514c654007e1f12646f89768d6f9460405160405180910390a1565b606060086000838152602001908152602001600020805480602002602001604051908101604052809291908181526020018280548015611b8f57602002820191906000526020600020905b815481526020019060010190808311611b7b575b50505050509050919050565b6000611bdc336040805190810160405280601181526020017f726f6c652f73797374656d2d61646d696e0000000000000000000000000000008152506115be565b81905060008173ffffffffffffffffffffffffffffffffffffffff1663c818faec60006040518263ffffffff167c010000000000000000000000000000000000000000000000000000000002815260040180828152602001915050602060405180830381600087803b158015611c5157600080fd5b505af1158015611c65573d6000803e3d6000fd5b505050506040513d6020811015611c7b57600080fd5b810190808051906020019092919050505010151515611c9957600080fd5b80600260006101000a81548173ffffffffffffffffffffffffffffffffffffffff021916908373ffffffffffffffffffffffffffffffffffffffff1602179055505050565b6000806060806060611cee613e19565b6003805490508711151515611d0257600080fd5b600387815481101515611d1157fe5b906000526020600020906005020160a060405190810160405290816000820160009054906101000a900473ffffffffffffffffffffffffffffffffffffffff1673ffffffffffffffffffffffffffffffffffffffff1673ffffffffffffffffffffffffffffffffffffffff16815260200160018201548152602001600282018054600181600116156101000203166002900480601f016020809104026020016040519081016040528092919081815260200182805460018160011615610100020316600290048015611e245780601f10611df957610100808354040283529160200191611e24565b820191906000526020600020905b815481529060010190602001808311611e0757829003601f168201915b50505050508152602001600382018054600181600116156101000203166002900480601f016020809104026020016040519081016040528092919081815260200182805460018160011615610100020316600290048015611ec65780601f10611e9b57610100808354040283529160200191611ec6565b820191906000526020600020905b815481529060010190602001808311611ea957829003601f168201915b50505050508152602001600482018054600181600116156101000203166002900480601f016020809104026020016040519081016040528092919081815260200182805460018160011615610100020316600290048015611f685780601f10611f3d57610100808354040283529160200191611f68565b820191906000526020600020905b815481529060010190602001808311611f4b57829003601f168201915b505050505081525050905080600001518160200151826040015183606001518460800151829250819150809050955095509550955095505091939590929450565b6000808660006006600083815260200190815260200160002060009054906101000a900473ffffffffffffffffffffffffffffffffffffffff1690508073ffffffffffffffffffffffffffffffffffffffff163373ffffffffffffffffffffffffffffffffffffffff1614151561201f57600080fd5b600480549050925060046080604051908101604052808b81526020018581526020018a8a8080601f016020809104026020016040519081016040528093929190818152602001838380828437820191505050505050815260200188888080601f016020809104026020016040519081016040528093929190818152602001838380828437820191505050505050815250908060018154018082558091505090600182039060005260206000209060040201600090919290919091506000820151816000015560208201518160010155604082015181600201908051906020019061210a929190613e5f565b506060820151816003019080519060200190612127929190613e5f565b50505050600860008a8152602001908152602001600020839080600181540180825580915050906001820390600052602060002001600090919290919091505550887f984e9c57bf3c704c112a30dea33416efd7969f90a14a69b9cb3842db1fdb5c7a848a8a60405180848152602001806020018281038252848482818152602001925080828437820191505094505050505060405180910390a282935050505095945050505050565b6007602052816000526040600020818154811015156121ec57fe5b90600052602060002001600091509150505481565b60048181548110151561221057fe5b9060005260206000209060040201600091509050806000015490806001015490806002018054600181600116156101000203166002900480601f0160208091040260200160405190810160405280929190818152602001828054600181600116156101000203166002900480156122c85780601f1061229d576101008083540402835291602001916122c8565b820191906000526020600020905b8154815290600101906020018083116122ab57829003601f168201915b505050505090806003018054600181600116156101000203166002900480601f0160208091040260200160405190810160405280929190818152602001828054600181600116156101000203166002900480156123665780601f1061233b57610100808354040283529160200191612366565b820191906000526020600020905b81548152906001019060200180831161234957829003601f168201915b5050505050905084565b6040805190810160405280601181526020017f726f6c652f73797374656d2d61646d696e00000000000000000000000000000081525081565b600160009054906101000a900460ff1681565b6009602052816000526040600020818154811015156123d757fe5b90600052602060002001600091509150505481565b6001809054906101000a900473ffffffffffffffffffffffffffffffffffffffff1681565b60038181548110151561242057fe5b90600052602060002090600502016000915090508060000160009054906101000a900473ffffffffffffffffffffffffffffffffffffffff1690806001015490806002018054600181600116156101000203166002900480601f0160208091040260200160405190810160405280929190818152602001828054600181600116156101000203166002900480156124f85780601f106124cd576101008083540402835291602001916124f8565b820191906000526020600020905b8154815290600101906020018083116124db57829003601f168201915b505050505090806003018054600181600116156101000203166002900480601f0160208091040260200160405190810160405280929190818152602001828054600181600116156101000203166002900480156125965780601f1061256b57610100808354040283529160200191612596565b820191906000526020600020905b81548152906001019060200180831161257957829003601f168201915b505050505090806004018054600181600116156101000203166002900480601f0160208091040260200160405190810160405280929190818152602001828054600181600116156101000203166002900480156126345780601f1061260957610100808354040283529160200191612634565b820191906000526020600020905b81548152906001019060200180831161261757829003601f168201915b5050505050905085565b61267d336040805190810160405280601181526020017f726f6c652f73797374656d2d61646d696e0000000000000000000000000000008152506115be565b600160009054906101000a900460ff16151561269857600080fd5b806001806101000a81548173ffffffffffffffffffffffffffffffffffffffff021916908373ffffffffffffffffffffffffffffffffffffffff1602179055507f450db8da6efbe9c22f2347f7c2021231df1fc58d3ae9a2fa75d39fa44619930581604051808273ffffffffffffffffffffffffffffffffffffffff1673ffffffffffffffffffffffffffffffffffffffff16815260200191505060405180910390a150565b6040805190810160405280600f81526020017f726f6c652f73686f702d6f776e6572000000000000000000000000000000000081525081565b6127b6336040805190810160405280601181526020017f726f6c652f73797374656d2d61646d696e0000000000000000000000000000008152506115be565b600160009054906101000a900460ff161515156127d257600080fd5b60018060006101000a81548160ff0219169083151502179055507fab35696f06e428ebc5ceba8cd17f8fed287baf43440206d1943af1ee53e6d26760405160405180910390a1565b600080606080612828613edf565b600480549050861115151561283c57600080fd5b60048681548110151561284b57fe5b9060005260206000209060040201608060405190810160405290816000820154815260200160018201548152602001600282018054600181600116156101000203166002900480601f0160208091040260200160405190810160405280929190818152602001828054600181600116156101000203166002900480156129125780601f106128e757610100808354040283529160200191612912565b820191906000526020600020905b8154815290600101906020018083116128f557829003601f168201915b50505050508152602001600382018054600181600116156101000203166002900480601f0160208091040260200160405190810160405280929190818152602001828054600181600116156101000203166002900480156129b45780601f10612989576101008083540402835291602001916129b4565b820191906000526020600020905b81548152906001019060200180831161299757829003601f168201915b505050505081525050905080600001518160200151826040015183606001518191508090509450945094509450509193509193565b600a60205281600052604060002081815481101515612a0457fe5b90600052602060002001600091509150505481565b60008060006003805490509150339050600360a0604051908101604052808373ffffffffffffffffffffffffffffffffffffffff1681526020018481526020018b8b8080601f016020809104026020016040519081016040528093929190818152602001838380828437820191505050505050815260200189898080601f016020809104026020016040519081016040528093929190818152602001838380828437820191505050505050815260200187878080601f0160208091040260200160405190810160405280939291908181526020018383808284378201915050505050508152509080600181540180825580915050906001820390600052602060002090600502016000909192909190915060008201518160000160006101000a81548173ffffffffffffffffffffffffffffffffffffffff021916908373ffffffffffffffffffffffffffffffffffffffff160217905550602082015181600101556040820151816002019080519060200190612b97929190613e5f565b506060820151816003019080519060200190612bb4929190613e5f565b506080820151816004019080519060200190612bd1929190613e5f565b50505050806006600084815260200190815260200160002060006101000a81548173ffffffffffffffffffffffffffffffffffffffff021916908373ffffffffffffffffffffffffffffffffffffffff160217905550600760008273ffffffffffffffffffffffffffffffffffffffff1673ffffffffffffffffffffffffffffffffffffffff168152602001908152602001600020829080600181540180825580915050906001820390600052602060002001600090919290919091505550612ccf816040805190810160405280600f81526020017f726f6c652f73686f702d6f776e65720000000000000000000000000000000000815250613c87565b8073ffffffffffffffffffffffffffffffffffffffff167f6483fc0067ba37ac182934414561e6a0483fe2c28473508471330bc69afee817838b8b60405180848152602001806020018281038252848482818152602001925080828437820191505094505050505060405180910390a281925050509695505050505050565b6000808960006006600083815260200190815260200160002060009054906101000a900473ffffffffffffffffffffffffffffffffffffffff1690508073ffffffffffffffffffffffffffffffffffffffff163373ffffffffffffffffffffffffffffffffffffffff16141515612dc457600080fd5b60008a111515612dd357600080fd5b60058054905092506005610120604051908101604052808e81526020018581526020018d81526020018c81526020018b81526020018a8152602001891515815260200188151581526020018781525090806001815401808255809150509060018203906000526020600020906008020160009091929091909150600082015181600001556020820151816001015560408201518160020155606082015181600301556080820151816004019080519060200190612e91929190613e5f565b5060a0820151816005019080519060200190612eae929190613e5f565b5060c08201518160060160006101000a81548160ff02191690831515021790555060e08201518160060160016101000a81548160ff0219169083151502179055506101008201518160070155505050600a60008d8152602001908152602001600020839080600181540180825580915050906001820390600052602060002001600090919290919091505550600960008c81526020019081526020016000208390806001815401808255809150509060018203906000526020600020016000909192909190915055508b7fd69554e5413a4863105d3af271dbb7053ecbdb96c22b4ed508331bbb4a993a63848b6040518083815260200180602001828103825283818151815260200191508051906020019080838360005b83811015612fe1578082015181840152602081019050612fc6565b50505050905090810190601f16801561300e5780820380516001836020036101000a031916815260200191505b50935050505060405180910390a282935050505098975050505050505050565b6000806000806060806000806000613044613f08565b6005805490508b1115151561305857600080fd5b60058b81548110151561306757fe5b9060005260206000209060080201610120604051908101604052908160008201548152602001600182015481526020016002820154815260200160038201548152602001600482018054600181600116156101000203166002900480601f0160208091040260200160405190810160405280929190818152602001828054600181600116156101000203166002900480156131435780601f1061311857610100808354040283529160200191613143565b820191906000526020600020905b81548152906001019060200180831161312657829003601f168201915b50505050508152602001600582018054600181600116156101000203166002900480601f0160208091040260200160405190810160405280929190818152602001828054600181600116156101000203166002900480156131e55780601f106131ba576101008083540402835291602001916131e5565b820191906000526020600020905b8154815290600101906020018083116131c857829003601f168201915b505050505081526020016006820160009054906101000a900460ff161515151581526020016006820160019054906101000a900460ff161515151581526020016007820154815250509050806000015181602001518260400151836060015184608001518560a001518660c001518760e00151886101000151849450839350995099509950995099509950995099509950509193959799909294969850565b6060600a60008381526020019081526020016000208054806020026020016040519081016040528092919081815260200182805480156132e357602002820191906000526020600020905b8154815260200190600101908083116132cf575b50505050509050919050565b60006132f9613f08565b600060058481548110151561330a57fe5b9060005260206000209060080201610120604051908101604052908160008201548152602001600182015481526020016002820154815260200160038201548152602001600482018054600181600116156101000203166002900480601f0160208091040260200160405190810160405280929190818152602001828054600181600116156101000203166002900480156133e65780601f106133bb576101008083540402835291602001916133e6565b820191906000526020600020905b8154815290600101906020018083116133c957829003601f168201915b50505050508152602001600582018054600181600116156101000203166002900480601f0160208091040260200160405190810160405280929190818152602001828054600181600116156101000203166002900480156134885780601f1061345d57610100808354040283529160200191613488565b820191906000526020600020905b81548152906001019060200180831161346b57829003601f168201915b505050505081526020016006820160009054906101000a900460ff161515151581526020016006820160019054906101000a900460ff161515151581526020016007820154815250509150613598600383600001518154811015156134e957fe5b90600052602060002090600502016004018054600181600116156101000203166002900480601f01602080910402602001604051908101604052809291908181526020018280546001816001161561010002031660029004801561358e5780601f106135635761010080835404028352916020019161358e565b820191906000526020600020905b81548152906001019060200180831161357157829003601f168201915b505050505061371b565b90508160600151810292505050919050565b6000806135eb6040805190810160405280600381526020017f555344000000000000000000000000000000000000000000000000000000000081525061371b565b90506136008184613c1890919063ffffffff16565b915050919050565b6040805190810160405280601481526020017f726f6c652f6672616e63686973652d6f776e657200000000000000000000000081525081565b6000600380549050821115151561365757600080fd5b60038281548110151561366657fe5b906000526020600020906005020160000160009054906101000a900473ffffffffffffffffffffffffffffffffffffffff169050919050565b60006005838154811015156136b057fe5b906000526020600020906008020160060160019054906101000a900460ff1615806136fa57506005838154811015156136e557fe5b90600052602060002090600802016007015482105b905092915050565b61370c8282613c2e565b151561371757600080fd5b5050565b6000806000836040516020018082805190602001908083835b6020831015156137595780518252602082019150602081019050602083039250613734565b6001836020036101000a0380198251168184511680821785525050505050509050019150506040516020818303038152906040526040518082805190602001908083835b6020831015156137c2578051825260208201915060208101905060208303925061379d565b6001836020036101000a0380198251168184511680821785525050505050509050019150506040518091039020915060405180807f555344000000000000000000000000000000000000000000000000000000000081525060030190506040518091039020600019168260001916141561390a57600260009054906101000a900473ffffffffffffffffffffffffffffffffffffffff1673ffffffffffffffffffffffffffffffffffffffff16630c560c6460006040518263ffffffff167c010000000000000000000000000000000000000000000000000000000002815260040180828152602001915050602060405180830381600087803b1580156138c857600080fd5b505af11580156138dc573d6000803e3d6000fd5b505050506040513d60208110156138f257600080fd5b81019080805190602001909291905050509050613c0e565b60405180807f4555520000000000000000000000000000000000000000000000000000000000815250600301905060405180910390206000191682600019161415613a2357600260009054906101000a900473ffffffffffffffffffffffffffffffffffffffff1673ffffffffffffffffffffffffffffffffffffffff1663d67ae54d60006040518263ffffffff167c010000000000000000000000000000000000000000000000000000000002815260040180828152602001915050602060405180830381600087803b1580156139e157600080fd5b505af11580156139f5573d6000803e3d6000fd5b505050506040513d6020811015613a0b57600080fd5b81019080805190602001909291905050509050613c0d565b60405180807f4742500000000000000000000000000000000000000000000000000000000000815250600301905060405180910390206000191682600019161415613b3c57600260009054906101000a900473ffffffffffffffffffffffffffffffffffffffff1673ffffffffffffffffffffffffffffffffffffffff16635a8ef28a60006040518263ffffffff167c010000000000000000000000000000000000000000000000000000000002815260040180828152602001915050602060405180830381600087803b158015613afa57600080fd5b505af1158015613b0e573d6000803e3d6000fd5b505050506040513d6020811015613b2457600080fd5b81019080805190602001909291905050509050613c0c565b600260009054906101000a900473ffffffffffffffffffffffffffffffffffffffff1673ffffffffffffffffffffffffffffffffffffffff16630c560c6460006040518263ffffffff167c010000000000000000000000000000000000000000000000000000000002815260040180828152602001915050602060405180830381600087803b158015613bce57600080fd5b505af1158015613be2573d6000803e3d6000fd5b505050506040513d6020811015613bf857600080fd5b810190808051906020019092919050505090505b5b5b8092505050919050565b60008183811515613c2557fe5b04905092915050565b60008260000160008373ffffffffffffffffffffffffffffffffffffffff1673ffffffffffffffffffffffffffffffffffffffff16815260200190815260200160002060009054906101000a900460ff16905092915050565b613d04826000836040518082805190602001908083835b602083101515613cc35780518252602082019150602081019050602083039250613c9e565b6001836020036101000a0380198251168184511680821785525050505050509050019150509081526020016040518091039020613dbb90919063ffffffff16565b8173ffffffffffffffffffffffffffffffffffffffff167fbfec83d64eaa953f2708271a023ab9ee82057f8f3578d548c1a4ba0b5b700489826040518080602001828103825283818151815260200191508051906020019080838360005b83811015613d7d578082015181840152602081019050613d62565b50505050905090810190601f168015613daa5780820380516001836020036101000a031916815260200191505b509250505060405180910390a25050565b60018260000160008373ffffffffffffffffffffffffffffffffffffffff1673ffffffffffffffffffffffffffffffffffffffff16815260200190815260200160002060006101000a81548160ff0219169083151502179055505050565b60a060405190810160405280600073ffffffffffffffffffffffffffffffffffffffff168152602001600081526020016060815260200160608152602001606081525090565b828054600181600116156101000203166002900490600052602060002090601f016020900481019282601f10613ea057805160ff1916838001178555613ece565b82800160010185558215613ece579182015b82811115613ecd578251825591602001919060010190613eb2565b5b509050613edb9190613f59565b5090565b608060405190810160405280600081526020016000815260200160608152602001606081525090565b61012060405190810160405280600081526020016000815260200160008152602001600081526020016060815260200160608152602001600015158152602001600015158152602001600081525090565b613f7b91905b80821115613f77576000816000905550600101613f5f565b5090565b905600a165627a7a7230582078126709bb33d8d691b66fb47b5dd507ada139832e33943f02b7c13d2b98c5660029",
  "source": "pragma solidity ^0.4.24;\n\nimport \"./SKUFactory.sol\";\n\n\n/**\n * @title StockRoom\n * @notice Main contract for reference data side of the In-game Pro Shop System\n */\ncontract StockRoom is SKUFactory {\n\n    /**\n     * @notice Set the address of the FiatContract contract\n     */\n    function setFiatContractAddress(address _address) external onlySysAdmin {\n        FiatContractInterface candidateContract = FiatContractInterface(_address);\n\n        // Verify that we have the appropriate address\n        require(candidateContract.updatedAt(0) >= 0);\n\n        // Set the new contract address\n        fiatContract = candidateContract;\n    }\n\n    // @notice confirm this is a StockRoom contract\n    function isStockRoom() external pure returns (bool) {\n        return true;\n    }\n\n    // @notice get an item's price in Ether\n    function getPriceInEther(uint256 _skuId) external view returns (uint256) {\n        SKU memory sku = skus[_skuId];\n        uint256 quote = getQuote(shops[sku.shopId].fiat);\n        return quote * sku.price;\n    }\n\n    // @notice convert an Ether amount to a Shop's fiat currency\n    function convertEtherToShopFiat(uint256 _shopId, uint256 _amount) external view returns (uint256) {\n        uint256 quote = getQuote(shops[_shopId].fiat);\n        return _amount.div(quote);\n    }\n\n    // @notice convert an Ether amount to the Franchise's fiat currency\n    function convertEtherToFranchiseFiat(uint256 _amount) external view returns (uint256) {\n        uint256 quote = getQuote(\"USD\");\n        return _amount.div(quote);\n    }\n\n    // @notice get a quote for Ether in the given fiat currency\n    function getQuote(string _fiat) private view returns (uint256) {\n        bytes32 fiat = keccak256(abi.encodePacked(_fiat));\n        uint256 quote;\n        if (fiat == keccak256(\"USD\")) {\n            quote = fiatContract.USD(0);\n        } else if (fiat == keccak256(\"EUR\")) {\n            quote = fiatContract.EUR(0);\n        } else if (fiat == keccak256(\"GBP\")) {\n            quote = fiatContract.GBP(0);\n        } else {\n            quote = fiatContract.USD(0); // franchise\n        }\n        return quote;\n    }\n\n    // @notice confirm whether an item can be minted based on limit and current item count\n    function canMintItem(uint256 _skuId, uint256 _itemCount) external view returns (bool) {\n        return (!skus[_skuId].limited || (_itemCount < skus[_skuId].limit));\n    }\n\n    // @notice Get the list of SKU Ids associated with a given SKUType\n    function getSKUTypeSKUIds(uint256 _skuTypeId) external view returns (uint[] memory) {\n        return skuTypeSKUs[_skuTypeId];\n    }\n\n    // @notice Get the list of SKU Ids associated with a given Shop\n    function getSKUIds(uint256 _shopId) external view returns (uint[] memory) {\n        return shopSKUs[_shopId];\n    }\n\n    // @notice Get a SKU's properties by ID\n    function getSKU(uint256 _skuId) external view returns (uint256, uint256, uint256, uint256, string, string, bool, bool, uint256)\n    {\n        require(_skuId <= skus.length);\n        SKU memory sku = skus[_skuId];\n        return (\n            sku.shopId,\n            sku.skuId,\n            sku.skuTypeId,\n            sku.price,\n            sku.name,\n            sku.description,\n            sku.consumable,\n            sku.limited,\n            sku.limit\n        );\n    }\n\n    // @notice Get the list of SKU Type Ids associated with a given Shop\n    function getSKUTypeIds(uint256 _shopId) external view returns (uint[] memory) {\n        return shopSKUTypes[_shopId];\n    }\n\n    // @notice Get a SKUTypes properties by ID\n    function getSKUType(uint256 _skuTypeId) external view returns (uint256, uint256, string, string) {\n        require(_skuTypeId <= skuTypes.length);\n        SKUType memory skuType = skuTypes[_skuTypeId];\n        return (\n            skuType.shopId,\n            skuType.skuTypeId,\n            skuType.name,\n            skuType.description\n        );\n    }\n\n    // @notice Get the list of Shop Ids associated with a given Owner\n    function getShopIds(address _owner) external view returns (uint[] memory) {\n        return ownedShops[_owner];\n    }\n\n    // @notice Get a Shop's properties by ID\n    function getShop(uint256 _shopId) external view returns (address, uint256, string, string, string) {\n        require(_shopId <= shops.length);\n        Shop memory shop = shops[_shopId];\n        return (\n            shop.owner,\n            shop.shopId,\n            shop.name,\n            shop.description,\n            shop.fiat\n        );\n    }\n\n    // @notice Get a Shop's owner\n    function getShopOwner(uint256 _shopId) external view returns (address) {\n        require(_shopId <= shops.length);\n        return shops[_shopId].owner;\n    }\n\n}",
  "sourcePath": "/Users/cliff/Documents/in-app-pro-shop/contracts/StockRoom.sol",
  "compiler": {
    "name": "solc",
    "version": "0.4.24+commit.e67f0147.Emscripten.clang"
  },
  "schemaVersion": "2.0.1",
  "updatedAt": "2019-02-18T15:54:23.109Z"
}