{
  "contractName": "StockRoomBase",
  "abi": [
    {
      "anonymous": false,
      "inputs": [],
      "name": "ContractPaused",
      "type": "event"
    },
    {
      "anonymous": false,
      "inputs": [],
      "name": "ContractUnpaused",
      "type": "event"
    },
    {
      "anonymous": false,
      "inputs": [
        {
          "indexed": false,
          "internalType": "address",
          "name": "newContract",
          "type": "address"
        }
      ],
      "name": "ContractUpgrade",
      "type": "event"
    },
    {
      "constant": true,
      "inputs": [],
      "name": "newContractAddress",
      "outputs": [
        {
          "internalType": "address",
          "name": "",
          "type": "address"
        }
      ],
      "payable": false,
      "stateMutability": "view",
      "type": "function"
    },
    {
      "constant": true,
      "inputs": [
        {
          "internalType": "address",
          "name": "",
          "type": "address"
        },
        {
          "internalType": "uint256",
          "name": "",
          "type": "uint256"
        }
      ],
      "name": "ownedShops",
      "outputs": [
        {
          "internalType": "uint256",
          "name": "",
          "type": "uint256"
        }
      ],
      "payable": false,
      "stateMutability": "view",
      "type": "function"
    },
    {
      "constant": false,
      "inputs": [],
      "name": "pause",
      "outputs": [],
      "payable": false,
      "stateMutability": "nonpayable",
      "type": "function"
    },
    {
      "constant": true,
      "inputs": [],
      "name": "paused",
      "outputs": [
        {
          "internalType": "bool",
          "name": "",
          "type": "bool"
        }
      ],
      "payable": false,
      "stateMutability": "view",
      "type": "function"
    },
    {
      "constant": true,
      "inputs": [
        {
          "internalType": "uint256",
          "name": "",
          "type": "uint256"
        },
        {
          "internalType": "uint256",
          "name": "",
          "type": "uint256"
        }
      ],
      "name": "shopSKUTypes",
      "outputs": [
        {
          "internalType": "uint256",
          "name": "",
          "type": "uint256"
        }
      ],
      "payable": false,
      "stateMutability": "view",
      "type": "function"
    },
    {
      "constant": true,
      "inputs": [
        {
          "internalType": "uint256",
          "name": "",
          "type": "uint256"
        },
        {
          "internalType": "uint256",
          "name": "",
          "type": "uint256"
        }
      ],
      "name": "shopSKUs",
      "outputs": [
        {
          "internalType": "uint256",
          "name": "",
          "type": "uint256"
        }
      ],
      "payable": false,
      "stateMutability": "view",
      "type": "function"
    },
    {
      "constant": true,
      "inputs": [
        {
          "internalType": "uint256",
          "name": "",
          "type": "uint256"
        }
      ],
      "name": "shopToOwner",
      "outputs": [
        {
          "internalType": "address",
          "name": "",
          "type": "address"
        }
      ],
      "payable": false,
      "stateMutability": "view",
      "type": "function"
    },
    {
      "constant": true,
      "inputs": [
        {
          "internalType": "uint256",
          "name": "",
          "type": "uint256"
        }
      ],
      "name": "shops",
      "outputs": [
        {
          "internalType": "address",
          "name": "owner",
          "type": "address"
        },
        {
          "internalType": "uint256",
          "name": "shopId",
          "type": "uint256"
        },
        {
          "internalType": "string",
          "name": "name",
          "type": "string"
        },
        {
          "internalType": "string",
          "name": "description",
          "type": "string"
        },
        {
          "internalType": "string",
          "name": "fiat",
          "type": "string"
        }
      ],
      "payable": false,
      "stateMutability": "view",
      "type": "function"
    },
    {
      "constant": true,
      "inputs": [
        {
          "internalType": "uint256",
          "name": "",
          "type": "uint256"
        },
        {
          "internalType": "uint256",
          "name": "",
          "type": "uint256"
        }
      ],
      "name": "skuTypeSKUs",
      "outputs": [
        {
          "internalType": "uint256",
          "name": "",
          "type": "uint256"
        }
      ],
      "payable": false,
      "stateMutability": "view",
      "type": "function"
    },
    {
      "constant": true,
      "inputs": [
        {
          "internalType": "uint256",
          "name": "",
          "type": "uint256"
        }
      ],
      "name": "skuTypes",
      "outputs": [
        {
          "internalType": "uint256",
          "name": "shopId",
          "type": "uint256"
        },
        {
          "internalType": "uint256",
          "name": "skuTypeId",
          "type": "uint256"
        },
        {
          "internalType": "string",
          "name": "name",
          "type": "string"
        },
        {
          "internalType": "string",
          "name": "description",
          "type": "string"
        }
      ],
      "payable": false,
      "stateMutability": "view",
      "type": "function"
    },
    {
      "constant": true,
      "inputs": [
        {
          "internalType": "uint256",
          "name": "",
          "type": "uint256"
        }
      ],
      "name": "skus",
      "outputs": [
        {
          "internalType": "uint256",
          "name": "shopId",
          "type": "uint256"
        },
        {
          "internalType": "uint256",
          "name": "skuId",
          "type": "uint256"
        },
        {
          "internalType": "uint256",
          "name": "skuTypeId",
          "type": "uint256"
        },
        {
          "internalType": "uint256",
          "name": "price",
          "type": "uint256"
        },
        {
          "internalType": "string",
          "name": "name",
          "type": "string"
        },
        {
          "internalType": "string",
          "name": "description",
          "type": "string"
        },
        {
          "internalType": "bool",
          "name": "consumable",
          "type": "bool"
        },
        {
          "internalType": "bool",
          "name": "limited",
          "type": "bool"
        },
        {
          "internalType": "uint256",
          "name": "limit",
          "type": "uint256"
        }
      ],
      "payable": false,
      "stateMutability": "view",
      "type": "function"
    },
    {
      "constant": false,
      "inputs": [],
      "name": "unpause",
      "outputs": [],
      "payable": false,
      "stateMutability": "nonpayable",
      "type": "function"
    },
    {
      "constant": false,
      "inputs": [
        {
          "internalType": "address",
          "name": "_newAddress",
          "type": "address"
        }
      ],
      "name": "upgradeContract",
      "outputs": [],
      "payable": false,
      "stateMutability": "nonpayable",
      "type": "function"
    },
    {
      "constant": true,
      "inputs": [],
      "name": "upgraded",
      "outputs": [
        {
          "internalType": "bool",
          "name": "",
          "type": "bool"
        }
      ],
      "payable": false,
      "stateMutability": "view",
      "type": "function"
    }
  ],
  "bytecode": "0x60806040526000600360006101000a81548160ff0219169083151502179055506000600360016101000a81548160ff0219169083151502179055506001600360016101000a81548160ff02191690831515021790555061006d33600061008a60201b61112c1790919060201c565b61008533600161008a60201b61112c1790919060201c565b610249565b61009a828261016b60201b60201c565b1561010d576040517f08c379a000000000000000000000000000000000000000000000000000000000815260040180806020018281038252601f8152602001807f526f6c65733a206163636f756e7420616c72656164792068617320726f6c650081525060200191505060405180910390fd5b60018260000160008373ffffffffffffffffffffffffffffffffffffffff1673ffffffffffffffffffffffffffffffffffffffff16815260200190815260200160002060006101000a81548160ff0219169083151502179055505050565b60008073ffffffffffffffffffffffffffffffffffffffff168273ffffffffffffffffffffffffffffffffffffffff1614156101f2576040517f08c379a00000000000000000000000000000000000000000000000000000000081526004018080602001828103825260228152602001806114b66022913960400191505060405180910390fd5b8260000160008373ffffffffffffffffffffffffffffffffffffffff1673ffffffffffffffffffffffffffffffffffffffff16815260200190815260200160002060009054906101000a900460ff16905092915050565b61125e806102586000396000f3fe608060405234801561001057600080fd5b50600436106100ea5760003560e01c80635ded461a1161008c5780638456cb59116100665780638456cb59146106f357806391033940146106fd578063c28de2cd14610749578063eb2c02231461076b576100ea565b80635ded461a146104a45780636af04a57146104f0578063713aca741461053a576100ea565b80633f4ba83a116100c85780633f4ba83a146102f557806351b4fc7e146102ff578063531e005b146103615780635c975abb14610482576100ea565b806301ba7539146100ef5780632cf0d92a1461013b57806335007f0e146101a9575b600080fd5b6101256004803603604081101561010557600080fd5b8101908080359060200190929190803590602001909291905050506107af565b6040518082815260200191505060405180910390f35b6101676004803603602081101561015157600080fd5b81019080803590602001909291905050506107dd565b604051808273ffffffffffffffffffffffffffffffffffffffff1673ffffffffffffffffffffffffffffffffffffffff16815260200191505060405180910390f35b6101d5600480360360208110156101bf57600080fd5b8101908080359060200190929190505050610810565b604051808a815260200189815260200188815260200187815260200180602001806020018615151515815260200185151515158152602001848152602001838103835288818151815260200191508051906020019080838360005b8381101561024b578082015181840152602081019050610230565b50505050905090810190601f1680156102785780820380516001836020036101000a031916815260200191505b50838103825287818151815260200191508051906020019080838360005b838110156102b1578082015181840152602081019050610296565b50505050905090810190601f1680156102de5780820380516001836020036101000a031916815260200191505b509b50505050505050505050505060405180910390f35b6102fd6109b5565b005b61034b6004803603604081101561031557600080fd5b81019080803573ffffffffffffffffffffffffffffffffffffffff16906020019092919080359060200190929190505050610a4e565b6040518082815260200191505060405180910390f35b61038d6004803603602081101561037757600080fd5b8101908080359060200190929190505050610a7c565b604051808581526020018481526020018060200180602001838103835285818151815260200191508051906020019080838360005b838110156103dd5780820151818401526020810190506103c2565b50505050905090810190601f16801561040a5780820380516001836020036101000a031916815260200191505b50838103825284818151815260200191508051906020019080838360005b83811015610443578082015181840152602081019050610428565b50505050905090810190601f1680156104705780820380516001836020036101000a031916815260200191505b50965050505050505060405180910390f35b61048a610be9565b604051808215151515815260200191505060405180910390f35b6104da600480360360408110156104ba57600080fd5b810190808035906020019092919080359060200190929190505050610bfc565b6040518082815260200191505060405180910390f35b6104f8610c2a565b604051808273ffffffffffffffffffffffffffffffffffffffff1673ffffffffffffffffffffffffffffffffffffffff16815260200191505060405180910390f35b6105666004803603602081101561055057600080fd5b8101908080359060200190929190505050610c50565b604051808673ffffffffffffffffffffffffffffffffffffffff1673ffffffffffffffffffffffffffffffffffffffff168152602001858152602001806020018060200180602001848103845287818151815260200191508051906020019080838360005b838110156105e65780820151818401526020810190506105cb565b50505050905090810190601f1680156106135780820380516001836020036101000a031916815260200191505b50848103835286818151815260200191508051906020019080838360005b8381101561064c578082015181840152602081019050610631565b50505050905090810190601f1680156106795780820380516001836020036101000a031916815260200191505b50848103825285818151815260200191508051906020019080838360005b838110156106b2578082015181840152602081019050610697565b50505050905090810190601f1680156106df5780820380516001836020036101000a031916815260200191505b509850505050505050505060405180910390f35b6106fb610e7b565b005b6107336004803603604081101561071357600080fd5b810190808035906020019092919080359060200190929190505050610efb565b6040518082815260200191505060405180910390f35b610751610f29565b604051808215151515815260200191505060405180910390f35b6107ad6004803603602081101561078157600080fd5b81019080803573ffffffffffffffffffffffffffffffffffffffff169060200190929190505050610f3c565b005b600a60205281600052604060002081815481106107c857fe5b90600052602060002001600091509150505481565b60086020528060005260406000206000915054906101000a900473ffffffffffffffffffffffffffffffffffffffff1681565b6007818154811061081d57fe5b9060005260206000209060080201600091509050806000015490806001015490806002015490806003015490806004018054600181600116156101000203166002900480601f0160208091040260200160405190810160405280929190818152602001828054600181600116156101000203166002900480156108e15780601f106108b6576101008083540402835291602001916108e1565b820191906000526020600020905b8154815290600101906020018083116108c457829003601f168201915b505050505090806005018054600181600116156101000203166002900480601f01602080910402602001604051908101604052809291908181526020018280546001816001161561010002031660029004801561097f5780601f106109545761010080835404028352916020019161097f565b820191906000526020600020905b81548152906001019060200180831161096257829003601f168201915b5050505050908060060160009054906101000a900460ff16908060060160019054906101000a900460ff16908060070154905089565b6109c933600061104e90919063ffffffff16565b6109d257600080fd5b600360019054906101000a900460ff166109eb57600080fd5b600360009054906101000a900460ff1615610a0557600080fd5b6000600360016101000a81548160ff0219169083151502179055507f0e5e3b3fb504c22cf5c42fa07d521225937514c654007e1f12646f89768d6f9460405160405180910390a1565b60096020528160005260406000208181548110610a6757fe5b90600052602060002001600091509150505481565b60068181548110610a8957fe5b9060005260206000209060040201600091509050806000015490806001015490806002018054600181600116156101000203166002900480601f016020809104026020016040519081016040528092919081815260200182805460018160011615610100020316600290048015610b415780601f10610b1657610100808354040283529160200191610b41565b820191906000526020600020905b815481529060010190602001808311610b2457829003601f168201915b505050505090806003018054600181600116156101000203166002900480601f016020809104026020016040519081016040528092919081815260200182805460018160011615610100020316600290048015610bdf5780601f10610bb457610100808354040283529160200191610bdf565b820191906000526020600020905b815481529060010190602001808311610bc257829003601f168201915b5050505050905084565b600360019054906101000a900460ff1681565b600b6020528160005260406000208181548110610c1557fe5b90600052602060002001600091509150505481565b600360029054906101000a900473ffffffffffffffffffffffffffffffffffffffff1681565b60058181548110610c5d57fe5b90600052602060002090600502016000915090508060000160009054906101000a900473ffffffffffffffffffffffffffffffffffffffff1690806001015490806002018054600181600116156101000203166002900480601f016020809104026020016040519081016040528092919081815260200182805460018160011615610100020316600290048015610d355780601f10610d0a57610100808354040283529160200191610d35565b820191906000526020600020905b815481529060010190602001808311610d1857829003601f168201915b505050505090806003018054600181600116156101000203166002900480601f016020809104026020016040519081016040528092919081815260200182805460018160011615610100020316600290048015610dd35780601f10610da857610100808354040283529160200191610dd3565b820191906000526020600020905b815481529060010190602001808311610db657829003601f168201915b505050505090806004018054600181600116156101000203166002900480601f016020809104026020016040519081016040528092919081815260200182805460018160011615610100020316600290048015610e715780601f10610e4657610100808354040283529160200191610e71565b820191906000526020600020905b815481529060010190602001808311610e5457829003601f168201915b5050505050905085565b610e8f33600061104e90919063ffffffff16565b610e9857600080fd5b600360019054906101000a900460ff1615610eb257600080fd5b6001600360016101000a81548160ff0219169083151502179055507fab35696f06e428ebc5ceba8cd17f8fed287baf43440206d1943af1ee53e6d26760405160405180910390a1565b600c6020528160005260406000208181548110610f1457fe5b90600052602060002001600091509150505481565b600360009054906101000a900460ff1681565b610f5033600061104e90919063ffffffff16565b610f5957600080fd5b600360019054906101000a900460ff16610f7257600080fd5b600360009054906101000a900460ff1615610f8c57600080fd5b6001600360006101000a81548160ff02191690831515021790555080600360026101000a81548173ffffffffffffffffffffffffffffffffffffffff021916908373ffffffffffffffffffffffffffffffffffffffff1602179055507f450db8da6efbe9c22f2347f7c2021231df1fc58d3ae9a2fa75d39fa44619930581604051808273ffffffffffffffffffffffffffffffffffffffff1673ffffffffffffffffffffffffffffffffffffffff16815260200191505060405180910390a150565b60008073ffffffffffffffffffffffffffffffffffffffff168273ffffffffffffffffffffffffffffffffffffffff1614156110d5576040517f08c379a00000000000000000000000000000000000000000000000000000000081526004018080602001828103825260228152602001806112086022913960400191505060405180910390fd5b8260000160008373ffffffffffffffffffffffffffffffffffffffff1673ffffffffffffffffffffffffffffffffffffffff16815260200190815260200160002060009054906101000a900460ff16905092915050565b611136828261104e565b156111a9576040517f08c379a000000000000000000000000000000000000000000000000000000000815260040180806020018281038252601f8152602001807f526f6c65733a206163636f756e7420616c72656164792068617320726f6c650081525060200191505060405180910390fd5b60018260000160008373ffffffffffffffffffffffffffffffffffffffff1673ffffffffffffffffffffffffffffffffffffffff16815260200190815260200160002060006101000a81548160ff021916908315150217905550505056fe526f6c65733a206163636f756e7420697320746865207a65726f2061646472657373a265627a7a72315820eeb64c9d0fcad46340f7a725290821928a76f4d6d0b2442805211be8816816ea64736f6c634300050f0032526f6c65733a206163636f756e7420697320746865207a65726f2061646472657373",
  "source": "pragma solidity ^0.5.12;\n\nimport \"./AccessControl.sol\";\nimport \"./FiatContractInterface.sol\";\n\n\n/**\n * @title StockRoomBase\n * @notice Defines collections, mappings, and structs for the StockRoom side of the In-game Pro Shop System\n */\ncontract StockRoomBase is AccessControl {\n\n    FiatContractInterface internal fiatContract;\n\n    /**\n     * @dev modifier to scope access to owner of given shop\n     */\n    modifier onlyShopOwner(uint256 _shopId) {\n        address owner = shopToOwner[_shopId];\n        require(msg.sender == owner);\n        _;\n    }\n\n    /**\n     * @notice All of the Shops\n     */\n    Shop[] public shops;\n\n    /**\n     * @notice All of the SKU Types\n     */\n    SKUType[] public skuTypes;\n\n    /**\n     * @notice All of the SKUs\n     */\n    SKU[] public skus;\n\n    /**\n     * @dev Mapping of Shop ID to Owner Address\n     */\n    mapping (uint256 => address) public shopToOwner;\n\n    /**\n     * @dev Mapping of Owner Address to list of owned Shops\n     */\n    mapping (address => uint256[]) public ownedShops;\n\n    /**\n     * @dev Mapping of Shop ID to SKU Type list\n     */\n    mapping (uint256 => uint256[]) public shopSKUTypes;\n\n    /**\n     * @dev Mapping of SKU Type ID to SKU list\n     */\n    mapping (uint256 => uint256[]) public skuTypeSKUs;\n\n    /**\n     * @dev Mapping of Shop ID to SKU list\n     */\n    mapping (uint256 => uint256[]) public shopSKUs;\n\n    /**\n     * @notice Structure of a Pro Shop\n     */\n    struct Shop {\n\n        // Owner of the item\n        address owner;\n\n        // The id of this shop\n        uint256 shopId;\n\n        // Name of the item\n        string name;\n\n        // Description of the shop\n        string description;\n\n        // Fiat currency for prices\n        string fiat;\n    }\n\n    /**\n     * @notice the attributes of an item\n     */\n    struct SKUType {\n\n        // ID of the Shop this SKU Type belongs to\n        uint256 shopId;\n\n        // ID of the SKU Type\n        uint256 skuTypeId;\n\n        // Name of the SKU Type\n        string name;\n\n        // Description of the SKU Type (optional)\n        string description;\n    }\n\n    /**\n     * @notice Structure of a Pro Shop SKU (Shopkeeping Unit)\n     */\n    struct SKU {\n\n        // The shop this SKU belongs to\n        uint256 shopId;\n\n        // The id of this SKU\n        uint256 skuId;\n\n        // Type of the SKU\n        uint256 skuTypeId;\n\n        // Price of the SKU\n        uint256 price;\n\n        // Name of the item\n        string name;\n\n        // Description of the SKU\n        string description;\n\n        // Can it be consumed (used up)\n        bool consumable;\n\n        // Is there a limit to the number of Items that can\n        // be minted from this SKU?\n        bool limited;\n\n        // If limited, what is the maximum number that\n        // can be created?\n        uint256 limit;\n\n    }\n\n}\n",
  "sourcePath": "/Users/cliff/Projects/in-app-pro-shop/contracts/StockRoomBase.sol",
  "compiler": {
    "name": "solc",
    "version": "0.5.15+commit.6a57276f.Emscripten.clang"
  },
  "schemaVersion": "3.0.20",
  "updatedAt": "2019-12-28T21:35:08.859Z",
  "devdoc": {
    "methods": {
      "pause()": {
        "details": "called by the system administrator to pause, triggers stopped state"
      },
      "unpause()": {
        "details": "called by the ystem administrator to un-pause, returns to normal state"
      },
      "upgradeContract(address)": {
        "details": "called by a system administrator to  mark the smart contract as upgraded,     in case there is a serious breaking bug. This method stores the new contract     address and emits an event to that effect. Clients of the contract should     update to the new contract address upon receiving this event.     *      This contract will remain paused indefinitely after such an upgrade.",
        "params": {
          "_newAddress": "address of new contract"
        }
      }
    },
    "title": "StockRoomBase"
  },
  "userdoc": {
    "methods": {},
    "notice": "Defines collections, mappings, and structs for the StockRoom side of the In-game Pro Shop System"
  }
}