{
  "contractName": "StockRoom",
  "abi": [
    {
      "constant": true,
      "inputs": [
        {
          "name": "",
          "type": "uint256"
        },
        {
          "name": "",
          "type": "uint256"
        }
      ],
      "name": "shopSKUTypes",
      "outputs": [
        {
          "name": "",
          "type": "uint256"
        }
      ],
      "payable": false,
      "stateMutability": "view",
      "type": "function"
    },
    {
      "constant": true,
      "inputs": [
        {
          "name": "_operator",
          "type": "address"
        },
        {
          "name": "_role",
          "type": "string"
        }
      ],
      "name": "checkRole",
      "outputs": [],
      "payable": false,
      "stateMutability": "view",
      "type": "function"
    },
    {
      "constant": true,
      "inputs": [
        {
          "name": "_operator",
          "type": "address"
        },
        {
          "name": "_role",
          "type": "string"
        }
      ],
      "name": "hasRole",
      "outputs": [
        {
          "name": "",
          "type": "bool"
        }
      ],
      "payable": false,
      "stateMutability": "view",
      "type": "function"
    },
    {
      "constant": true,
      "inputs": [
        {
          "name": "",
          "type": "uint256"
        }
      ],
      "name": "shopToOwner",
      "outputs": [
        {
          "name": "",
          "type": "address"
        }
      ],
      "payable": false,
      "stateMutability": "view",
      "type": "function"
    },
    {
      "constant": true,
      "inputs": [
        {
          "name": "",
          "type": "uint256"
        }
      ],
      "name": "skus",
      "outputs": [
        {
          "name": "shopId",
          "type": "uint256"
        },
        {
          "name": "skuId",
          "type": "uint256"
        },
        {
          "name": "skuTypeId",
          "type": "uint256"
        },
        {
          "name": "price",
          "type": "uint256"
        },
        {
          "name": "name",
          "type": "string"
        },
        {
          "name": "description",
          "type": "string"
        },
        {
          "name": "consumable",
          "type": "bool"
        },
        {
          "name": "limited",
          "type": "bool"
        },
        {
          "name": "limit",
          "type": "uint256"
        }
      ],
      "payable": false,
      "stateMutability": "view",
      "type": "function"
    },
    {
      "constant": false,
      "inputs": [],
      "name": "unpause",
      "outputs": [],
      "payable": false,
      "stateMutability": "nonpayable",
      "type": "function"
    },
    {
      "constant": false,
      "inputs": [
        {
          "name": "_shopId",
          "type": "uint256"
        },
        {
          "name": "_name",
          "type": "string"
        },
        {
          "name": "_desc",
          "type": "string"
        }
      ],
      "name": "createSKUType",
      "outputs": [
        {
          "name": "",
          "type": "uint256"
        }
      ],
      "payable": false,
      "stateMutability": "nonpayable",
      "type": "function"
    },
    {
      "constant": true,
      "inputs": [
        {
          "name": "",
          "type": "address"
        },
        {
          "name": "",
          "type": "uint256"
        }
      ],
      "name": "ownedShops",
      "outputs": [
        {
          "name": "",
          "type": "uint256"
        }
      ],
      "payable": false,
      "stateMutability": "view",
      "type": "function"
    },
    {
      "constant": true,
      "inputs": [
        {
          "name": "",
          "type": "uint256"
        }
      ],
      "name": "skuTypes",
      "outputs": [
        {
          "name": "shopId",
          "type": "uint256"
        },
        {
          "name": "skuTypeId",
          "type": "uint256"
        },
        {
          "name": "name",
          "type": "string"
        },
        {
          "name": "description",
          "type": "string"
        }
      ],
      "payable": false,
      "stateMutability": "view",
      "type": "function"
    },
    {
      "constant": true,
      "inputs": [],
      "name": "ROLE_SYS_ADMIN",
      "outputs": [
        {
          "name": "",
          "type": "string"
        }
      ],
      "payable": false,
      "stateMutability": "view",
      "type": "function"
    },
    {
      "constant": true,
      "inputs": [],
      "name": "paused",
      "outputs": [
        {
          "name": "",
          "type": "bool"
        }
      ],
      "payable": false,
      "stateMutability": "view",
      "type": "function"
    },
    {
      "constant": true,
      "inputs": [
        {
          "name": "",
          "type": "uint256"
        },
        {
          "name": "",
          "type": "uint256"
        }
      ],
      "name": "skuTypeSKUs",
      "outputs": [
        {
          "name": "",
          "type": "uint256"
        }
      ],
      "payable": false,
      "stateMutability": "view",
      "type": "function"
    },
    {
      "constant": true,
      "inputs": [],
      "name": "newContractAddress",
      "outputs": [
        {
          "name": "",
          "type": "address"
        }
      ],
      "payable": false,
      "stateMutability": "view",
      "type": "function"
    },
    {
      "constant": true,
      "inputs": [
        {
          "name": "",
          "type": "uint256"
        }
      ],
      "name": "shops",
      "outputs": [
        {
          "name": "owner",
          "type": "address"
        },
        {
          "name": "shopId",
          "type": "uint256"
        },
        {
          "name": "name",
          "type": "string"
        },
        {
          "name": "description",
          "type": "string"
        },
        {
          "name": "fiat",
          "type": "string"
        }
      ],
      "payable": false,
      "stateMutability": "view",
      "type": "function"
    },
    {
      "constant": false,
      "inputs": [
        {
          "name": "_newAddress",
          "type": "address"
        }
      ],
      "name": "setNewAddress",
      "outputs": [],
      "payable": false,
      "stateMutability": "nonpayable",
      "type": "function"
    },
    {
      "constant": true,
      "inputs": [],
      "name": "ROLE_SHOP_OWNER",
      "outputs": [
        {
          "name": "",
          "type": "string"
        }
      ],
      "payable": false,
      "stateMutability": "view",
      "type": "function"
    },
    {
      "constant": false,
      "inputs": [],
      "name": "pause",
      "outputs": [],
      "payable": false,
      "stateMutability": "nonpayable",
      "type": "function"
    },
    {
      "constant": true,
      "inputs": [
        {
          "name": "",
          "type": "uint256"
        },
        {
          "name": "",
          "type": "uint256"
        }
      ],
      "name": "shopSKUs",
      "outputs": [
        {
          "name": "",
          "type": "uint256"
        }
      ],
      "payable": false,
      "stateMutability": "view",
      "type": "function"
    },
    {
      "constant": false,
      "inputs": [
        {
          "name": "_name",
          "type": "string"
        },
        {
          "name": "_desc",
          "type": "string"
        },
        {
          "name": "_fiat",
          "type": "string"
        }
      ],
      "name": "createShop",
      "outputs": [
        {
          "name": "",
          "type": "uint256"
        }
      ],
      "payable": false,
      "stateMutability": "nonpayable",
      "type": "function"
    },
    {
      "constant": false,
      "inputs": [
        {
          "name": "_shopId",
          "type": "uint256"
        },
        {
          "name": "_skuTypeId",
          "type": "uint256"
        },
        {
          "name": "_price",
          "type": "uint256"
        },
        {
          "name": "_name",
          "type": "string"
        },
        {
          "name": "_desc",
          "type": "string"
        },
        {
          "name": "_consumable",
          "type": "bool"
        },
        {
          "name": "_limited",
          "type": "bool"
        },
        {
          "name": "_limit",
          "type": "uint256"
        }
      ],
      "name": "createSKU",
      "outputs": [
        {
          "name": "",
          "type": "uint256"
        }
      ],
      "payable": false,
      "stateMutability": "nonpayable",
      "type": "function"
    },
    {
      "constant": true,
      "inputs": [],
      "name": "ROLE_FRANCHISE_OWNER",
      "outputs": [
        {
          "name": "",
          "type": "string"
        }
      ],
      "payable": false,
      "stateMutability": "view",
      "type": "function"
    },
    {
      "anonymous": false,
      "inputs": [
        {
          "indexed": true,
          "name": "shopId",
          "type": "uint256"
        },
        {
          "indexed": false,
          "name": "skuId",
          "type": "uint256"
        },
        {
          "indexed": false,
          "name": "name",
          "type": "string"
        }
      ],
      "name": "NewSKU",
      "type": "event"
    },
    {
      "anonymous": false,
      "inputs": [
        {
          "indexed": true,
          "name": "shopId",
          "type": "uint256"
        },
        {
          "indexed": false,
          "name": "skuTypeId",
          "type": "uint256"
        },
        {
          "indexed": false,
          "name": "name",
          "type": "string"
        }
      ],
      "name": "NewSKUType",
      "type": "event"
    },
    {
      "anonymous": false,
      "inputs": [
        {
          "indexed": true,
          "name": "owner",
          "type": "address"
        },
        {
          "indexed": false,
          "name": "shopId",
          "type": "uint256"
        },
        {
          "indexed": false,
          "name": "name",
          "type": "string"
        }
      ],
      "name": "NewShop",
      "type": "event"
    },
    {
      "anonymous": false,
      "inputs": [
        {
          "indexed": false,
          "name": "newContract",
          "type": "address"
        }
      ],
      "name": "ContractUpgrade",
      "type": "event"
    },
    {
      "anonymous": false,
      "inputs": [],
      "name": "ContractPaused",
      "type": "event"
    },
    {
      "anonymous": false,
      "inputs": [],
      "name": "ContractUnpaused",
      "type": "event"
    },
    {
      "anonymous": false,
      "inputs": [
        {
          "indexed": true,
          "name": "operator",
          "type": "address"
        },
        {
          "indexed": false,
          "name": "role",
          "type": "string"
        }
      ],
      "name": "RoleAdded",
      "type": "event"
    },
    {
      "anonymous": false,
      "inputs": [
        {
          "indexed": true,
          "name": "operator",
          "type": "address"
        },
        {
          "indexed": false,
          "name": "role",
          "type": "string"
        }
      ],
      "name": "RoleRemoved",
      "type": "event"
    },
    {
      "constant": false,
      "inputs": [
        {
          "name": "_address",
          "type": "address"
        }
      ],
      "name": "setFiatContractAddress",
      "outputs": [],
      "payable": false,
      "stateMutability": "nonpayable",
      "type": "function"
    },
    {
      "constant": true,
      "inputs": [],
      "name": "isStockRoom",
      "outputs": [
        {
          "name": "",
          "type": "bool"
        }
      ],
      "payable": false,
      "stateMutability": "pure",
      "type": "function"
    },
    {
      "constant": true,
      "inputs": [
        {
          "name": "_skuId",
          "type": "uint256"
        }
      ],
      "name": "getItemPriceInEther",
      "outputs": [
        {
          "name": "",
          "type": "uint256"
        }
      ],
      "payable": false,
      "stateMutability": "view",
      "type": "function"
    },
    {
      "constant": true,
      "inputs": [
        {
          "name": "_skuId",
          "type": "uint256"
        },
        {
          "name": "_itemCount",
          "type": "uint256"
        }
      ],
      "name": "canMintItem",
      "outputs": [
        {
          "name": "",
          "type": "bool"
        }
      ],
      "payable": false,
      "stateMutability": "view",
      "type": "function"
    },
    {
      "constant": true,
      "inputs": [
        {
          "name": "_skuTypeId",
          "type": "uint256"
        }
      ],
      "name": "getSKUTypeSKUIds",
      "outputs": [
        {
          "name": "",
          "type": "uint256[]"
        }
      ],
      "payable": false,
      "stateMutability": "view",
      "type": "function"
    },
    {
      "constant": true,
      "inputs": [
        {
          "name": "_shopId",
          "type": "uint256"
        }
      ],
      "name": "getSKUIds",
      "outputs": [
        {
          "name": "",
          "type": "uint256[]"
        }
      ],
      "payable": false,
      "stateMutability": "view",
      "type": "function"
    },
    {
      "constant": true,
      "inputs": [
        {
          "name": "_skuId",
          "type": "uint256"
        }
      ],
      "name": "getSKU",
      "outputs": [
        {
          "name": "",
          "type": "uint256"
        },
        {
          "name": "",
          "type": "uint256"
        },
        {
          "name": "",
          "type": "uint256"
        },
        {
          "name": "",
          "type": "uint256"
        },
        {
          "name": "",
          "type": "string"
        },
        {
          "name": "",
          "type": "string"
        },
        {
          "name": "",
          "type": "bool"
        },
        {
          "name": "",
          "type": "bool"
        },
        {
          "name": "",
          "type": "uint256"
        }
      ],
      "payable": false,
      "stateMutability": "view",
      "type": "function"
    },
    {
      "constant": true,
      "inputs": [
        {
          "name": "_shopId",
          "type": "uint256"
        }
      ],
      "name": "getSKUTypeIds",
      "outputs": [
        {
          "name": "",
          "type": "uint256[]"
        }
      ],
      "payable": false,
      "stateMutability": "view",
      "type": "function"
    },
    {
      "constant": true,
      "inputs": [
        {
          "name": "_skuTypeId",
          "type": "uint256"
        }
      ],
      "name": "getSKUType",
      "outputs": [
        {
          "name": "",
          "type": "uint256"
        },
        {
          "name": "",
          "type": "uint256"
        },
        {
          "name": "",
          "type": "string"
        },
        {
          "name": "",
          "type": "string"
        }
      ],
      "payable": false,
      "stateMutability": "view",
      "type": "function"
    },
    {
      "constant": true,
      "inputs": [
        {
          "name": "_owner",
          "type": "address"
        }
      ],
      "name": "getShopIds",
      "outputs": [
        {
          "name": "",
          "type": "uint256[]"
        }
      ],
      "payable": false,
      "stateMutability": "view",
      "type": "function"
    },
    {
      "constant": true,
      "inputs": [
        {
          "name": "_shopId",
          "type": "uint256"
        }
      ],
      "name": "getShop",
      "outputs": [
        {
          "name": "",
          "type": "address"
        },
        {
          "name": "",
          "type": "uint256"
        },
        {
          "name": "",
          "type": "string"
        },
        {
          "name": "",
          "type": "string"
        },
        {
          "name": "",
          "type": "string"
        }
      ],
      "payable": false,
      "stateMutability": "view",
      "type": "function"
    },
    {
      "constant": true,
      "inputs": [
        {
          "name": "_shopId",
          "type": "uint256"
        }
      ],
      "name": "getShopOwner",
      "outputs": [
        {
          "name": "",
          "type": "address"
        }
      ],
      "payable": false,
      "stateMutability": "view",
      "type": "function"
    }
  ],
  "bytecode": "0x60806040526000600160006101000a81548160ff02191690831515021790555060018060006101000a81548160ff02191690831515021790555062000089336040805190810160405280601181526020017f726f6c652f73797374656d2d61646d696e000000000000000000000000000000815250620000df640100000000026401000000009004565b620000d9336040805190810160405280601481526020017f726f6c652f6672616e63686973652d6f776e6572000000000000000000000000815250620000df640100000000026401000000009004565b62000286565b6200016e826000836040518082805190602001908083835b6020831015156200011e5780518252602082019150602081019050602083039250620000f7565b6001836020036101000a0380198251168184511680821785525050505050509050019150509081526020016040518091039020620002286401000000000262003ac1179091906401000000009004565b8173ffffffffffffffffffffffffffffffffffffffff167fbfec83d64eaa953f2708271a023ab9ee82057f8f3578d548c1a4ba0b5b700489826040518080602001828103825283818151815260200191508051906020019080838360005b83811015620001e9578082015181840152602081019050620001cc565b50505050905090810190601f168015620002175780820380516001836020036101000a031916815260200191505b509250505060405180910390a25050565b60018260000160008373ffffffffffffffffffffffffffffffffffffffff1673ffffffffffffffffffffffffffffffffffffffff16815260200190815260200160002060006101000a81548160ff0219169083151502179055505050565b613cb080620002966000396000f3006080604052600436106101a1576000357c0100000000000000000000000000000000000000000000000000000000900463ffffffff16806301ba7539146101a65780630988ca8c146101f1578063199f0b171461027a578063217fe6c6146103125780632cf0d92a146103b35780633349bacc1461042057806335007f0e1461044f578063377946f21461059a5780633f4ba83a1461061c5780633fbe2c551461063357806345243120146106b557806345b727f3146106f8578063488d136e146108b057806351b4fc7e1461097d578063531e005b146109de57806356de8ccd14610afe5780635c975abb14610b8e5780635ded461a14610bbd5780636af04a5714610c08578063713aca7414610c5f5780637158798814610e175780637e1ae97614610e5a5780638456cb5914610eea5780638ae7f10514610f01578063910339401461102157806392bec5ee1461106c57806397fcb08114611175578063acb123a614611278578063ae27eda8146113c3578063b0407cc514611445578063cb1b200114611486578063e0456ec914611516578063f29d498a14611583575b600080fd5b3480156101b257600080fd5b506101db60048036038101908080359060200190929190803590602001909291905050506115d2565b6040518082815260200191505060405180910390f35b3480156101fd57600080fd5b50610278600480360381019080803573ffffffffffffffffffffffffffffffffffffffff169060200190929190803590602001908201803590602001908080601f0160208091040260200160405190810160405280939291908181526020018383808284378201915050505050509192919290505050611602565b005b34801561028657600080fd5b506102bb600480360381019080803573ffffffffffffffffffffffffffffffffffffffff169060200190929190505050611683565b6040518080602001828103825283818151815260200191508051906020019060200280838360005b838110156102fe5780820151818401526020810190506102e3565b505050509050019250505060405180910390f35b34801561031e57600080fd5b50610399600480360381019080803573ffffffffffffffffffffffffffffffffffffffff169060200190929190803590602001908201803590602001908080601f016020809104026020016040519081016040528093929190818152602001838380828437820191505050505050919291929050505061171a565b604051808215151515815260200191505060405180910390f35b3480156103bf57600080fd5b506103de600480360381019080803590602001909291905050506117a1565b604051808273ffffffffffffffffffffffffffffffffffffffff1673ffffffffffffffffffffffffffffffffffffffff16815260200191505060405180910390f35b34801561042c57600080fd5b506104356117d4565b604051808215151515815260200191505060405180910390f35b34801561045b57600080fd5b5061047a600480360381019080803590602001909291905050506117dd565b604051808a815260200189815260200188815260200187815260200180602001806020018615151515815260200185151515158152602001848152602001838103835288818151815260200191508051906020019080838360005b838110156104f05780820151818401526020810190506104d5565b50505050905090810190601f16801561051d5780820380516001836020036101000a031916815260200191505b50838103825287818151815260200191508051906020019080838360005b8381101561055657808201518184015260208101905061053b565b50505050905090810190601f1680156105835780820380516001836020036101000a031916815260200191505b509b50505050505050505050505060405180910390f35b3480156105a657600080fd5b506105c560048036038101908080359060200190929190505050611984565b6040518080602001828103825283818151815260200191508051906020019060200280838360005b838110156106085780820151818401526020810190506105ed565b505050509050019250505060405180910390f35b34801561062857600080fd5b506106316119ef565b005b34801561063f57600080fd5b5061065e60048036038101908080359060200190929190505050611a92565b6040518080602001828103825283818151815260200191508051906020019060200280838360005b838110156106a1578082015181840152602081019050610686565b505050509050019250505060405180910390f35b3480156106c157600080fd5b506106f6600480360381019080803573ffffffffffffffffffffffffffffffffffffffff169060200190929190505050611afd565b005b34801561070457600080fd5b5061072360048036038101908080359060200190929190505050611c40565b604051808673ffffffffffffffffffffffffffffffffffffffff1673ffffffffffffffffffffffffffffffffffffffff168152602001858152602001806020018060200180602001848103845287818151815260200191508051906020019080838360005b838110156107a3578082015181840152602081019050610788565b50505050905090810190601f1680156107d05780820380516001836020036101000a031916815260200191505b50848103835286818151815260200191508051906020019080838360005b838110156108095780820151818401526020810190506107ee565b50505050905090810190601f1680156108365780820380516001836020036101000a031916815260200191505b50848103825285818151815260200191508051906020019080838360005b8381101561086f578082015181840152602081019050610854565b50505050905090810190601f16801561089c5780820380516001836020036101000a031916815260200191505b509850505050505050505060405180910390f35b3480156108bc57600080fd5b5061096760048036038101908080359060200190929190803590602001908201803590602001908080601f0160208091040260200160405190810160405280939291908181526020018383808284378201915050505050509192919290803590602001908201803590602001908080601f0160208091040260200160405190810160405280939291908181526020018383808284378201915050505050509192919290505050611f0b565b6040518082815260200191505060405180910390f35b34801561098957600080fd5b506109c8600480360381019080803573ffffffffffffffffffffffffffffffffffffffff16906020019092919080359060200190929190505050612118565b6040518082815260200191505060405180910390f35b3480156109ea57600080fd5b50610a0960048036038101908080359060200190929190505050612148565b604051808581526020018481526020018060200180602001838103835285818151815260200191508051906020019080838360005b83811015610a59578082015181840152602081019050610a3e565b50505050905090810190601f168015610a865780820380516001836020036101000a031916815260200191505b50838103825284818151815260200191508051906020019080838360005b83811015610abf578082015181840152602081019050610aa4565b50505050905090810190601f168015610aec5780820380516001836020036101000a031916815260200191505b50965050505050505060405180910390f35b348015610b0a57600080fd5b50610b136122b7565b6040518080602001828103825283818151815260200191508051906020019080838360005b83811015610b53578082015181840152602081019050610b38565b50505050905090810190601f168015610b805780820380516001836020036101000a031916815260200191505b509250505060405180910390f35b348015610b9a57600080fd5b50610ba36122f0565b604051808215151515815260200191505060405180910390f35b348015610bc957600080fd5b50610bf26004803603810190808035906020019092919080359060200190929190505050612303565b6040518082815260200191505060405180910390f35b348015610c1457600080fd5b50610c1d612333565b604051808273ffffffffffffffffffffffffffffffffffffffff1673ffffffffffffffffffffffffffffffffffffffff16815260200191505060405180910390f35b348015610c6b57600080fd5b50610c8a60048036038101908080359060200190929190505050612358565b604051808673ffffffffffffffffffffffffffffffffffffffff1673ffffffffffffffffffffffffffffffffffffffff168152602001858152602001806020018060200180602001848103845287818151815260200191508051906020019080838360005b83811015610d0a578082015181840152602081019050610cef565b50505050905090810190601f168015610d375780820380516001836020036101000a031916815260200191505b50848103835286818151815260200191508051906020019080838360005b83811015610d70578082015181840152602081019050610d55565b50505050905090810190601f168015610d9d5780820380516001836020036101000a031916815260200191505b50848103825285818151815260200191508051906020019080838360005b83811015610dd6578082015181840152602081019050610dbb565b50505050905090810190601f168015610e035780820380516001836020036101000a031916815260200191505b509850505050505050505060405180910390f35b348015610e2357600080fd5b50610e58600480360381019080803573ffffffffffffffffffffffffffffffffffffffff169060200190929190505050612585565b005b348015610e6657600080fd5b50610e6f612685565b6040518080602001828103825283818151815260200191508051906020019080838360005b83811015610eaf578082015181840152602081019050610e94565b50505050905090810190601f168015610edc5780820380516001836020036101000a031916815260200191505b509250505060405180910390f35b348015610ef657600080fd5b50610eff6126be565b005b348015610f0d57600080fd5b50610f2c60048036038101908080359060200190929190505050612761565b604051808581526020018481526020018060200180602001838103835285818151815260200191508051906020019080838360005b83811015610f7c578082015181840152602081019050610f61565b50505050905090810190601f168015610fa95780820380516001836020036101000a031916815260200191505b50838103825284818151815260200191508051906020019080838360005b83811015610fe2578082015181840152602081019050610fc7565b50505050905090810190601f16801561100f5780820380516001836020036101000a031916815260200191505b50965050505050505060405180910390f35b34801561102d57600080fd5b506110566004803603810190808035906020019092919080359060200190929190505050612930565b6040518082815260200191505060405180910390f35b34801561107857600080fd5b5061115f600480360381019080803590602001908201803590602001908080601f0160208091040260200160405190810160405280939291908181526020018383808284378201915050505050509192919290803590602001908201803590602001908080601f0160208091040260200160405190810160405280939291908181526020018383808284378201915050505050509192919290803590602001908201803590602001908080601f0160208091040260200160405190810160405280939291908181526020018383808284378201915050505050509192919290505050612960565b6040518082815260200191505060405180910390f35b34801561118157600080fd5b50611262600480360381019080803590602001909291908035906020019092919080359060200190929190803590602001908201803590602001908080601f0160208091040260200160405190810160405280939291908181526020018383808284378201915050505050509192919290803590602001908201803590602001908080601f016020809104026020016040519081016040528093929190818152602001838380828437820191505050505050919291929080351515906020019092919080351515906020019092919080359060200190929190505050612c47565b6040518082815260200191505060405180910390f35b34801561128457600080fd5b506112a360048036038101908080359060200190929190505050612f27565b604051808a815260200189815260200188815260200187815260200180602001806020018615151515815260200185151515158152602001848152602001838103835288818151815260200191508051906020019080838360005b838110156113195780820151818401526020810190506112fe565b50505050905090810190601f1680156113465780820380516001836020036101000a031916815260200191505b50838103825287818151815260200191508051906020019080838360005b8381101561137f578082015181840152602081019050611364565b50505050905090810190601f1680156113ac5780820380516001836020036101000a031916815260200191505b509b50505050505050505050505060405180910390f35b3480156113cf57600080fd5b506113ee6004803603810190808035906020019092919050505061317d565b6040518080602001828103825283818151815260200191508051906020019060200280838360005b83811015611431578082015181840152602081019050611416565b505050509050019250505060405180910390f35b34801561145157600080fd5b50611470600480360381019080803590602001909291905050506131e8565b6040518082815260200191505060405180910390f35b34801561149257600080fd5b5061149b613821565b6040518080602001828103825283818151815260200191508051906020019080838360005b838110156114db5780820151818401526020810190506114c0565b50505050905090810190601f1680156115085780820380516001836020036101000a031916815260200191505b509250505060405180910390f35b34801561152257600080fd5b506115416004803603810190808035906020019092919050505061385a565b604051808273ffffffffffffffffffffffffffffffffffffffff1673ffffffffffffffffffffffffffffffffffffffff16815260200191505060405180910390f35b34801561158f57600080fd5b506115b860048036038101908080359060200190929190803590602001909291905050506138b8565b604051808215151515815260200191505060405180910390f35b6008602052816000526040600020818154811015156115ed57fe5b90600052602060002001600091509150505481565b61167f826000836040518082805190602001908083835b60208310151561163e5780518252602082019150602081019050602083039250611619565b6001836020036101000a038019825116818451168082178552505050505050905001915050908152602001604051809103902061391b90919063ffffffff16565b5050565b6060600760008373ffffffffffffffffffffffffffffffffffffffff1673ffffffffffffffffffffffffffffffffffffffff16815260200190815260200160002080548060200260200160405190810160405280929190818152602001828054801561170e57602002820191906000526020600020905b8154815260200190600101908083116116fa575b50505050509050919050565b6000611799836000846040518082805190602001908083835b6020831015156117585780518252602082019150602081019050602083039250611733565b6001836020036101000a038019825116818451168082178552505050505050905001915050908152602001604051809103902061393490919063ffffffff16565b905092915050565b60066020528060005260406000206000915054906101000a900473ffffffffffffffffffffffffffffffffffffffff1681565b60006001905090565b6005818154811015156117ec57fe5b9060005260206000209060080201600091509050806000015490806001015490806002015490806003015490806004018054600181600116156101000203166002900480601f0160208091040260200160405190810160405280929190818152602001828054600181600116156101000203166002900480156118b05780601f10611885576101008083540402835291602001916118b0565b820191906000526020600020905b81548152906001019060200180831161189357829003601f168201915b505050505090806005018054600181600116156101000203166002900480601f01602080910402602001604051908101604052809291908181526020018280546001816001161561010002031660029004801561194e5780601f106119235761010080835404028352916020019161194e565b820191906000526020600020905b81548152906001019060200180831161193157829003601f168201915b5050505050908060060160009054906101000a900460ff16908060060160019054906101000a900460ff16908060070154905089565b6060600960008381526020019081526020016000208054806020026020016040519081016040528092919081815260200182805480156119e357602002820191906000526020600020905b8154815260200190600101908083116119cf575b50505050509050919050565b611a2e336040805190810160405280601181526020017f726f6c652f73797374656d2d61646d696e000000000000000000000000000000815250611602565b600160009054906101000a900460ff161515611a4957600080fd5b6000600160006101000a81548160ff0219169083151502179055507f0e5e3b3fb504c22cf5c42fa07d521225937514c654007e1f12646f89768d6f9460405160405180910390a1565b606060086000838152602001908152602001600020805480602002602001604051908101604052809291908181526020018280548015611af157602002820191906000526020600020905b815481526020019060010190808311611add575b50505050509050919050565b6000611b3e336040805190810160405280601181526020017f726f6c652f73797374656d2d61646d696e000000000000000000000000000000815250611602565b81905060008173ffffffffffffffffffffffffffffffffffffffff1663c818faec60006040518263ffffffff167c010000000000000000000000000000000000000000000000000000000002815260040180828152602001915050602060405180830381600087803b158015611bb357600080fd5b505af1158015611bc7573d6000803e3d6000fd5b505050506040513d6020811015611bdd57600080fd5b810190808051906020019092919050505010151515611bfb57600080fd5b80600260006101000a81548173ffffffffffffffffffffffffffffffffffffffff021916908373ffffffffffffffffffffffffffffffffffffffff1602179055505050565b6000806060806060611c50613b1f565b6003805490508711151515611c6457600080fd5b600387815481101515611c7357fe5b906000526020600020906005020160a060405190810160405290816000820160009054906101000a900473ffffffffffffffffffffffffffffffffffffffff1673ffffffffffffffffffffffffffffffffffffffff1673ffffffffffffffffffffffffffffffffffffffff16815260200160018201548152602001600282018054600181600116156101000203166002900480601f016020809104026020016040519081016040528092919081815260200182805460018160011615610100020316600290048015611d865780601f10611d5b57610100808354040283529160200191611d86565b820191906000526020600020905b815481529060010190602001808311611d6957829003601f168201915b50505050508152602001600382018054600181600116156101000203166002900480601f016020809104026020016040519081016040528092919081815260200182805460018160011615610100020316600290048015611e285780601f10611dfd57610100808354040283529160200191611e28565b820191906000526020600020905b815481529060010190602001808311611e0b57829003601f168201915b50505050508152602001600482018054600181600116156101000203166002900480601f016020809104026020016040519081016040528092919081815260200182805460018160011615610100020316600290048015611eca5780601f10611e9f57610100808354040283529160200191611eca565b820191906000526020600020905b815481529060010190602001808311611ead57829003601f168201915b505050505081525050905080600001518160200151826040015183606001518460800151829250819150809050955095509550955095505091939590929450565b6000808460006006600083815260200190815260200160002060009054906101000a900473ffffffffffffffffffffffffffffffffffffffff1690508073ffffffffffffffffffffffffffffffffffffffff163373ffffffffffffffffffffffffffffffffffffffff16141515611f8157600080fd5b60048054905092506004608060405190810160405280898152602001858152602001888152602001878152509080600181540180825580915050906001820390600052602060002090600402016000909192909190915060008201518160000155602082015181600101556040820151816002019080519060200190612008929190613b65565b506060820151816003019080519060200190612025929190613b65565b5050505060086000888152602001908152602001600020839080600181540180825580915050906001820390600052602060002001600090919290919091505550867f984e9c57bf3c704c112a30dea33416efd7969f90a14a69b9cb3842db1fdb5c7a84886040518083815260200180602001828103825283818151815260200191508051906020019080838360005b838110156120d05780820151818401526020810190506120b5565b50505050905090810190601f1680156120fd5780820380516001836020036101000a031916815260200191505b50935050505060405180910390a28293505050509392505050565b60076020528160005260406000208181548110151561213357fe5b90600052602060002001600091509150505481565b60048181548110151561215757fe5b9060005260206000209060040201600091509050806000015490806001015490806002018054600181600116156101000203166002900480601f01602080910402602001604051908101604052809291908181526020018280546001816001161561010002031660029004801561220f5780601f106121e45761010080835404028352916020019161220f565b820191906000526020600020905b8154815290600101906020018083116121f257829003601f168201915b505050505090806003018054600181600116156101000203166002900480601f0160208091040260200160405190810160405280929190818152602001828054600181600116156101000203166002900480156122ad5780601f10612282576101008083540402835291602001916122ad565b820191906000526020600020905b81548152906001019060200180831161229057829003601f168201915b5050505050905084565b6040805190810160405280601181526020017f726f6c652f73797374656d2d61646d696e00000000000000000000000000000081525081565b600160009054906101000a900460ff1681565b60096020528160005260406000208181548110151561231e57fe5b90600052602060002001600091509150505481565b6001809054906101000a900473ffffffffffffffffffffffffffffffffffffffff1681565b60038181548110151561236757fe5b90600052602060002090600502016000915090508060000160009054906101000a900473ffffffffffffffffffffffffffffffffffffffff1690806001015490806002018054600181600116156101000203166002900480601f01602080910402602001604051908101604052809291908181526020018280546001816001161561010002031660029004801561243f5780601f106124145761010080835404028352916020019161243f565b820191906000526020600020905b81548152906001019060200180831161242257829003601f168201915b505050505090806003018054600181600116156101000203166002900480601f0160208091040260200160405190810160405280929190818152602001828054600181600116156101000203166002900480156124dd5780601f106124b2576101008083540402835291602001916124dd565b820191906000526020600020905b8154815290600101906020018083116124c057829003601f168201915b505050505090806004018054600181600116156101000203166002900480601f01602080910402602001604051908101604052809291908181526020018280546001816001161561010002031660029004801561257b5780601f106125505761010080835404028352916020019161257b565b820191906000526020600020905b81548152906001019060200180831161255e57829003601f168201915b5050505050905085565b6125c4336040805190810160405280601181526020017f726f6c652f73797374656d2d61646d696e000000000000000000000000000000815250611602565b600160009054906101000a900460ff1615156125df57600080fd5b806001806101000a81548173ffffffffffffffffffffffffffffffffffffffff021916908373ffffffffffffffffffffffffffffffffffffffff1602179055507f450db8da6efbe9c22f2347f7c2021231df1fc58d3ae9a2fa75d39fa44619930581604051808273ffffffffffffffffffffffffffffffffffffffff1673ffffffffffffffffffffffffffffffffffffffff16815260200191505060405180910390a150565b6040805190810160405280600f81526020017f726f6c652f73686f702d6f776e6572000000000000000000000000000000000081525081565b6126fd336040805190810160405280601181526020017f726f6c652f73797374656d2d61646d696e000000000000000000000000000000815250611602565b600160009054906101000a900460ff1615151561271957600080fd5b60018060006101000a81548160ff0219169083151502179055507fab35696f06e428ebc5ceba8cd17f8fed287baf43440206d1943af1ee53e6d26760405160405180910390a1565b60008060608061276f613be5565b600480549050861115151561278357600080fd5b60048681548110151561279257fe5b9060005260206000209060040201608060405190810160405290816000820154815260200160018201548152602001600282018054600181600116156101000203166002900480601f0160208091040260200160405190810160405280929190818152602001828054600181600116156101000203166002900480156128595780601f1061282e57610100808354040283529160200191612859565b820191906000526020600020905b81548152906001019060200180831161283c57829003601f168201915b50505050508152602001600382018054600181600116156101000203166002900480601f0160208091040260200160405190810160405280929190818152602001828054600181600116156101000203166002900480156128fb5780601f106128d0576101008083540402835291602001916128fb565b820191906000526020600020905b8154815290600101906020018083116128de57829003601f168201915b505050505081525050905080600001518160200151826040015183606001518191508090509450945094509450509193509193565b600a6020528160005260406000208181548110151561294b57fe5b90600052602060002001600091509150505481565b60008060006003805490509150339050600360a0604051908101604052808373ffffffffffffffffffffffffffffffffffffffff168152602001848152602001888152602001878152602001868152509080600181540180825580915050906001820390600052602060002090600502016000909192909190915060008201518160000160006101000a81548173ffffffffffffffffffffffffffffffffffffffff021916908373ffffffffffffffffffffffffffffffffffffffff160217905550602082015181600101556040820151816002019080519060200190612a48929190613b65565b506060820151816003019080519060200190612a65929190613b65565b506080820151816004019080519060200190612a82929190613b65565b50505050806006600084815260200190815260200160002060006101000a81548173ffffffffffffffffffffffffffffffffffffffff021916908373ffffffffffffffffffffffffffffffffffffffff160217905550600760008273ffffffffffffffffffffffffffffffffffffffff1673ffffffffffffffffffffffffffffffffffffffff168152602001908152602001600020829080600181540180825580915050906001820390600052602060002001600090919290919091505550612b80816040805190810160405280600f81526020017f726f6c652f73686f702d6f776e6572000000000000000000000000000000000081525061398d565b8073ffffffffffffffffffffffffffffffffffffffff167f6483fc0067ba37ac182934414561e6a0483fe2c28473508471330bc69afee81783886040518083815260200180602001828103825283818151815260200191508051906020019080838360005b83811015612c00578082015181840152602081019050612be5565b50505050905090810190601f168015612c2d5780820380516001836020036101000a031916815260200191505b50935050505060405180910390a281925050509392505050565b6000808960006006600083815260200190815260200160002060009054906101000a900473ffffffffffffffffffffffffffffffffffffffff1690508073ffffffffffffffffffffffffffffffffffffffff163373ffffffffffffffffffffffffffffffffffffffff16141515612cbd57600080fd5b60008a111515612ccc57600080fd5b60058054905092506005610120604051908101604052808e81526020018581526020018d81526020018c81526020018b81526020018a8152602001891515815260200188151581526020018781525090806001815401808255809150509060018203906000526020600020906008020160009091929091909150600082015181600001556020820151816001015560408201518160020155606082015181600301556080820151816004019080519060200190612d8a929190613b65565b5060a0820151816005019080519060200190612da7929190613b65565b5060c08201518160060160006101000a81548160ff02191690831515021790555060e08201518160060160016101000a81548160ff0219169083151502179055506101008201518160070155505050600a60008d8152602001908152602001600020839080600181540180825580915050906001820390600052602060002001600090919290919091505550600960008c81526020019081526020016000208390806001815401808255809150509060018203906000526020600020016000909192909190915055508b7fd69554e5413a4863105d3af271dbb7053ecbdb96c22b4ed508331bbb4a993a63848b6040518083815260200180602001828103825283818151815260200191508051906020019080838360005b83811015612eda578082015181840152602081019050612ebf565b50505050905090810190601f168015612f075780820380516001836020036101000a031916815260200191505b50935050505060405180910390a282935050505098975050505050505050565b6000806000806060806000806000612f3d613c0e565b6005805490508b11151515612f5157600080fd5b60058b815481101515612f6057fe5b9060005260206000209060080201610120604051908101604052908160008201548152602001600182015481526020016002820154815260200160038201548152602001600482018054600181600116156101000203166002900480601f01602080910402602001604051908101604052809291908181526020018280546001816001161561010002031660029004801561303c5780601f106130115761010080835404028352916020019161303c565b820191906000526020600020905b81548152906001019060200180831161301f57829003601f168201915b50505050508152602001600582018054600181600116156101000203166002900480601f0160208091040260200160405190810160405280929190818152602001828054600181600116156101000203166002900480156130de5780601f106130b3576101008083540402835291602001916130de565b820191906000526020600020905b8154815290600101906020018083116130c157829003601f168201915b505050505081526020016006820160009054906101000a900460ff161515151581526020016006820160019054906101000a900460ff161515151581526020016007820154815250509050806000015181602001518260400151836060015184608001518560a001518660c001518760e00151886101000151849450839350995099509950995099509950995099509950509193959799909294969850565b6060600a60008381526020019081526020016000208054806020026020016040519081016040528092919081815260200182805480156131dc57602002820191906000526020600020905b8154815260200190600101908083116131c8575b50505050509050919050565b60006131f2613c0e565b60008060058581548110151561320457fe5b9060005260206000209060080201610120604051908101604052908160008201548152602001600182015481526020016002820154815260200160038201548152602001600482018054600181600116156101000203166002900480601f0160208091040260200160405190810160405280929190818152602001828054600181600116156101000203166002900480156132e05780601f106132b5576101008083540402835291602001916132e0565b820191906000526020600020905b8154815290600101906020018083116132c357829003601f168201915b50505050508152602001600582018054600181600116156101000203166002900480601f0160208091040260200160405190810160405280929190818152602001828054600181600116156101000203166002900480156133825780601f1061335757610100808354040283529160200191613382565b820191906000526020600020905b81548152906001019060200180831161336557829003601f168201915b505050505081526020016006820160009054906101000a900460ff161515151581526020016006820160019054906101000a900460ff161515151581526020016007820154815250509250600383600001518154811015156133e057fe5b9060005260206000209060050201600401604051602001808280546001816001161561010002031660029004801561344f5780601f1061342d57610100808354040283529182019161344f565b820191906000526020600020905b81548152906001019060200180831161343b575b50509150506040516020818303038152906040526040518082805190602001908083835b6020831015156134985780518252602082019150602081019050602083039250613473565b6001836020036101000a0380198251168184511680821785525050505050509050019150506040518091039020915060405180807f55534400000000000000000000000000000000000000000000000000000000008152506003019050604051809103902060001916826000191614156135e057600260009054906101000a900473ffffffffffffffffffffffffffffffffffffffff1673ffffffffffffffffffffffffffffffffffffffff16630c560c6460006040518263ffffffff167c010000000000000000000000000000000000000000000000000000000002815260040180828152602001915050602060405180830381600087803b15801561359e57600080fd5b505af11580156135b2573d6000803e3d6000fd5b505050506040513d60208110156135c857600080fd5b81019080805190602001909291905050509050613810565b60405180807f45555200000000000000000000000000000000000000000000000000000000008152506003019050604051809103902060001916826000191614156136f957600260009054906101000a900473ffffffffffffffffffffffffffffffffffffffff1673ffffffffffffffffffffffffffffffffffffffff1663d67ae54d60006040518263ffffffff167c010000000000000000000000000000000000000000000000000000000002815260040180828152602001915050602060405180830381600087803b1580156136b757600080fd5b505af11580156136cb573d6000803e3d6000fd5b505050506040513d60208110156136e157600080fd5b8101908080519060200190929190505050905061380f565b60405180807f474250000000000000000000000000000000000000000000000000000000000081525060030190506040518091039020600019168260001916141561380e57600260009054906101000a900473ffffffffffffffffffffffffffffffffffffffff1673ffffffffffffffffffffffffffffffffffffffff16635a8ef28a60006040518263ffffffff167c010000000000000000000000000000000000000000000000000000000002815260040180828152602001915050602060405180830381600087803b1580156137d057600080fd5b505af11580156137e4573d6000803e3d6000fd5b505050506040513d60208110156137fa57600080fd5b810190808051906020019092919050505090505b5b5b826060015181029350505050919050565b6040805190810160405280601481526020017f726f6c652f6672616e63686973652d6f776e657200000000000000000000000081525081565b6000600380549050821115151561387057600080fd5b60038281548110151561387f57fe5b906000526020600020906005020160000160009054906101000a900473ffffffffffffffffffffffffffffffffffffffff169050919050565b60006005838154811015156138c957fe5b906000526020600020906008020160060160019054906101000a900460ff16158061391357506005838154811015156138fe57fe5b90600052602060002090600802016007015482105b905092915050565b6139258282613934565b151561393057600080fd5b5050565b60008260000160008373ffffffffffffffffffffffffffffffffffffffff1673ffffffffffffffffffffffffffffffffffffffff16815260200190815260200160002060009054906101000a900460ff16905092915050565b613a0a826000836040518082805190602001908083835b6020831015156139c957805182526020820191506020810190506020830392506139a4565b6001836020036101000a0380198251168184511680821785525050505050509050019150509081526020016040518091039020613ac190919063ffffffff16565b8173ffffffffffffffffffffffffffffffffffffffff167fbfec83d64eaa953f2708271a023ab9ee82057f8f3578d548c1a4ba0b5b700489826040518080602001828103825283818151815260200191508051906020019080838360005b83811015613a83578082015181840152602081019050613a68565b50505050905090810190601f168015613ab05780820380516001836020036101000a031916815260200191505b509250505060405180910390a25050565b60018260000160008373ffffffffffffffffffffffffffffffffffffffff1673ffffffffffffffffffffffffffffffffffffffff16815260200190815260200160002060006101000a81548160ff0219169083151502179055505050565b60a060405190810160405280600073ffffffffffffffffffffffffffffffffffffffff168152602001600081526020016060815260200160608152602001606081525090565b828054600181600116156101000203166002900490600052602060002090601f016020900481019282601f10613ba657805160ff1916838001178555613bd4565b82800160010185558215613bd4579182015b82811115613bd3578251825591602001919060010190613bb8565b5b509050613be19190613c5f565b5090565b608060405190810160405280600081526020016000815260200160608152602001606081525090565b61012060405190810160405280600081526020016000815260200160008152602001600081526020016060815260200160608152602001600015158152602001600015158152602001600081525090565b613c8191905b80821115613c7d576000816000905550600101613c65565b5090565b905600a165627a7a72305820e07d2be1592e07563b0aa46664a3ec0b8947438bc647d3751a7dca760cb29fc50029",
  "source": "pragma solidity ^0.4.24;\n\nimport \"./SKUFactory.sol\";\n\n\n/**\n * @title StockRoom\n * @notice Main contract for reference data side of the In-game Pro Shop System\n */\ncontract StockRoom is SKUFactory {\n\n    /**\n     * @notice Set the address of the FiatContract contract\n     */\n    function setFiatContractAddress(address _address) external onlySysAdmin {\n        FiatContractInterface candidateContract = FiatContractInterface(_address);\n\n        // Verify that we have the appropriate address\n        require(candidateContract.updatedAt(0) >= 0);\n\n        // Set the new contract address\n        fiatContract = candidateContract;\n    }\n\n    // @notice confirm this is a StockRoom contract\n    function isStockRoom() external pure returns (bool) {\n        return true;\n    }\n\n    // @notice get an item's price in Ether\n    function getItemPriceInEther(uint256 _skuId) external view returns (uint256){\n        SKU memory sku = skus[_skuId];\n        bytes32 fiat = keccak256(abi.encodePacked(shops[sku.shopId].fiat));\n        uint256 ethQuote;\n        if (fiat == keccak256(\"USD\")) {\n            ethQuote = fiatContract.USD(0);\n        } else if (fiat == keccak256(\"EUR\")) {\n            ethQuote = fiatContract.EUR(0);\n        } else if (fiat == keccak256(\"GBP\")) {\n            ethQuote = fiatContract.GBP(0);\n        }\n        return ethQuote * sku.price;\n    }\n\n    // @notice confirm whether an item can be minted based on limit and current item count\n    function canMintItem(uint256 _skuId, uint256 _itemCount) external view returns (bool) {\n        return (!skus[_skuId].limited || (_itemCount < skus[_skuId].limit));\n    }\n\n    // @notice Get the list of SKU Ids associated with a given SKUType\n    function getSKUTypeSKUIds(uint256 _skuTypeId) external view returns (uint[] memory) {\n        return skuTypeSKUs[_skuTypeId];\n    }\n\n    // @notice Get the list of SKU Ids associated with a given Shop\n    function getSKUIds(uint256 _shopId) external view returns (uint[] memory) {\n        return shopSKUs[_shopId];\n    }\n\n    // @notice Get a SKU's properties by ID\n    function getSKU(uint256 _skuId) external view returns (uint256, uint256, uint256, uint256, string, string, bool, bool, uint256)\n    {\n        require(_skuId <= skus.length);\n        SKU memory sku = skus[_skuId];\n        return (\n            sku.shopId,\n            sku.skuId,\n            sku.skuTypeId,\n            sku.price,\n            sku.name,\n            sku.description,\n            sku.consumable,\n            sku.limited,\n            sku.limit\n        );\n    }\n\n    // @notice Get the list of SKU Type Ids associated with a given Shop\n    function getSKUTypeIds(uint256 _shopId) external view returns (uint[] memory) {\n        return shopSKUTypes[_shopId];\n    }\n\n    // @notice Get a SKUTypes properties by ID\n    function getSKUType(uint256 _skuTypeId) external view returns (uint256, uint256, string, string) {\n        require(_skuTypeId <= skuTypes.length);\n        SKUType memory skuType = skuTypes[_skuTypeId];\n        return (\n            skuType.shopId,\n            skuType.skuTypeId,\n            skuType.name,\n            skuType.description\n        );\n    }\n\n    // @notice Get the list of Shop Ids associated with a given Owner\n    function getShopIds(address _owner) external view returns (uint[] memory) {\n        return ownedShops[_owner];\n    }\n\n    // @notice Get a Shop's properties by ID\n    function getShop(uint256 _shopId) external view returns (address, uint256, string, string, string) {\n        require(_shopId <= shops.length);\n        Shop memory shop = shops[_shopId];\n        return (\n            shop.owner,\n            shop.shopId,\n            shop.name,\n            shop.description,\n            shop.fiat\n        );\n    }\n\n    // @notice Get a Shop's owner\n    function getShopOwner(uint256 _shopId) external view returns (address) {\n        require(_shopId <= shops.length);\n        return shops[_shopId].owner;\n    }\n\n}",
  "sourcePath": "/Users/cliff/Documents/in-app-pro-shop/contracts/StockRoom.sol",
  "compiler": {
    "name": "solc",
    "version": "0.4.24+commit.e67f0147.Emscripten.clang"
  },
  "schemaVersion": "2.0.1",
  "updatedAt": "2018-12-13T16:11:26.954Z"
}