{
  "contractName": "ItemFactory",
  "abi": [
    {
      "constant": true,
      "inputs": [
        {
          "name": "_interfaceId",
          "type": "bytes4"
        }
      ],
      "name": "supportsInterface",
      "outputs": [
        {
          "name": "",
          "type": "bool"
        }
      ],
      "payable": false,
      "stateMutability": "view",
      "type": "function"
    },
    {
      "constant": true,
      "inputs": [],
      "name": "name",
      "outputs": [
        {
          "name": "",
          "type": "string"
        }
      ],
      "payable": false,
      "stateMutability": "view",
      "type": "function"
    },
    {
      "constant": true,
      "inputs": [
        {
          "name": "_tokenId",
          "type": "uint256"
        }
      ],
      "name": "getApproved",
      "outputs": [
        {
          "name": "",
          "type": "address"
        }
      ],
      "payable": false,
      "stateMutability": "view",
      "type": "function"
    },
    {
      "constant": false,
      "inputs": [
        {
          "name": "_to",
          "type": "address"
        },
        {
          "name": "_tokenId",
          "type": "uint256"
        }
      ],
      "name": "approve",
      "outputs": [],
      "payable": false,
      "stateMutability": "nonpayable",
      "type": "function"
    },
    {
      "constant": true,
      "inputs": [
        {
          "name": "_operator",
          "type": "address"
        },
        {
          "name": "_role",
          "type": "string"
        }
      ],
      "name": "checkRole",
      "outputs": [],
      "payable": false,
      "stateMutability": "view",
      "type": "function"
    },
    {
      "constant": true,
      "inputs": [],
      "name": "totalSupply",
      "outputs": [
        {
          "name": "",
          "type": "uint256"
        }
      ],
      "payable": false,
      "stateMutability": "view",
      "type": "function"
    },
    {
      "constant": true,
      "inputs": [],
      "name": "TOKEN_NAME",
      "outputs": [
        {
          "name": "",
          "type": "string"
        }
      ],
      "payable": false,
      "stateMutability": "view",
      "type": "function"
    },
    {
      "constant": true,
      "inputs": [],
      "name": "InterfaceId_ERC165",
      "outputs": [
        {
          "name": "",
          "type": "bytes4"
        }
      ],
      "payable": false,
      "stateMutability": "view",
      "type": "function"
    },
    {
      "constant": true,
      "inputs": [
        {
          "name": "",
          "type": "uint256"
        }
      ],
      "name": "itemToOwner",
      "outputs": [
        {
          "name": "",
          "type": "address"
        }
      ],
      "payable": false,
      "stateMutability": "view",
      "type": "function"
    },
    {
      "constant": true,
      "inputs": [
        {
          "name": "_operator",
          "type": "address"
        },
        {
          "name": "_role",
          "type": "string"
        }
      ],
      "name": "hasRole",
      "outputs": [
        {
          "name": "",
          "type": "bool"
        }
      ],
      "payable": false,
      "stateMutability": "view",
      "type": "function"
    },
    {
      "constant": false,
      "inputs": [
        {
          "name": "_from",
          "type": "address"
        },
        {
          "name": "_to",
          "type": "address"
        },
        {
          "name": "_tokenId",
          "type": "uint256"
        }
      ],
      "name": "transferFrom",
      "outputs": [],
      "payable": false,
      "stateMutability": "nonpayable",
      "type": "function"
    },
    {
      "constant": true,
      "inputs": [],
      "name": "TOKEN_SYMBOL",
      "outputs": [
        {
          "name": "",
          "type": "string"
        }
      ],
      "payable": false,
      "stateMutability": "view",
      "type": "function"
    },
    {
      "constant": true,
      "inputs": [
        {
          "name": "_owner",
          "type": "address"
        },
        {
          "name": "_index",
          "type": "uint256"
        }
      ],
      "name": "tokenOfOwnerByIndex",
      "outputs": [
        {
          "name": "",
          "type": "uint256"
        }
      ],
      "payable": false,
      "stateMutability": "view",
      "type": "function"
    },
    {
      "constant": false,
      "inputs": [],
      "name": "unpause",
      "outputs": [],
      "payable": false,
      "stateMutability": "nonpayable",
      "type": "function"
    },
    {
      "constant": false,
      "inputs": [
        {
          "name": "_from",
          "type": "address"
        },
        {
          "name": "_to",
          "type": "address"
        },
        {
          "name": "_tokenId",
          "type": "uint256"
        }
      ],
      "name": "safeTransferFrom",
      "outputs": [],
      "payable": false,
      "stateMutability": "nonpayable",
      "type": "function"
    },
    {
      "constant": true,
      "inputs": [
        {
          "name": "",
          "type": "address"
        }
      ],
      "name": "ownerItemCount",
      "outputs": [
        {
          "name": "",
          "type": "uint256"
        }
      ],
      "payable": false,
      "stateMutability": "view",
      "type": "function"
    },
    {
      "constant": true,
      "inputs": [
        {
          "name": "_tokenId",
          "type": "uint256"
        }
      ],
      "name": "exists",
      "outputs": [
        {
          "name": "",
          "type": "bool"
        }
      ],
      "payable": false,
      "stateMutability": "view",
      "type": "function"
    },
    {
      "constant": true,
      "inputs": [
        {
          "name": "_index",
          "type": "uint256"
        }
      ],
      "name": "tokenByIndex",
      "outputs": [
        {
          "name": "",
          "type": "uint256"
        }
      ],
      "payable": false,
      "stateMutability": "view",
      "type": "function"
    },
    {
      "constant": true,
      "inputs": [],
      "name": "ROLE_SYS_ADMIN",
      "outputs": [
        {
          "name": "",
          "type": "string"
        }
      ],
      "payable": false,
      "stateMutability": "view",
      "type": "function"
    },
    {
      "constant": true,
      "inputs": [],
      "name": "paused",
      "outputs": [
        {
          "name": "",
          "type": "bool"
        }
      ],
      "payable": false,
      "stateMutability": "view",
      "type": "function"
    },
    {
      "constant": true,
      "inputs": [
        {
          "name": "_tokenId",
          "type": "uint256"
        }
      ],
      "name": "ownerOf",
      "outputs": [
        {
          "name": "",
          "type": "address"
        }
      ],
      "payable": false,
      "stateMutability": "view",
      "type": "function"
    },
    {
      "constant": true,
      "inputs": [],
      "name": "newContractAddress",
      "outputs": [
        {
          "name": "",
          "type": "address"
        }
      ],
      "payable": false,
      "stateMutability": "view",
      "type": "function"
    },
    {
      "constant": true,
      "inputs": [
        {
          "name": "_owner",
          "type": "address"
        }
      ],
      "name": "balanceOf",
      "outputs": [
        {
          "name": "",
          "type": "uint256"
        }
      ],
      "payable": false,
      "stateMutability": "view",
      "type": "function"
    },
    {
      "constant": false,
      "inputs": [
        {
          "name": "_newAddress",
          "type": "address"
        }
      ],
      "name": "setNewAddress",
      "outputs": [],
      "payable": false,
      "stateMutability": "nonpayable",
      "type": "function"
    },
    {
      "constant": true,
      "inputs": [],
      "name": "ROLE_SHOP_OWNER",
      "outputs": [
        {
          "name": "",
          "type": "string"
        }
      ],
      "payable": false,
      "stateMutability": "view",
      "type": "function"
    },
    {
      "constant": false,
      "inputs": [],
      "name": "pause",
      "outputs": [],
      "payable": false,
      "stateMutability": "nonpayable",
      "type": "function"
    },
    {
      "constant": true,
      "inputs": [],
      "name": "symbol",
      "outputs": [
        {
          "name": "",
          "type": "string"
        }
      ],
      "payable": false,
      "stateMutability": "view",
      "type": "function"
    },
    {
      "constant": false,
      "inputs": [
        {
          "name": "_to",
          "type": "address"
        },
        {
          "name": "_approved",
          "type": "bool"
        }
      ],
      "name": "setApprovalForAll",
      "outputs": [],
      "payable": false,
      "stateMutability": "nonpayable",
      "type": "function"
    },
    {
      "constant": false,
      "inputs": [
        {
          "name": "_from",
          "type": "address"
        },
        {
          "name": "_to",
          "type": "address"
        },
        {
          "name": "_tokenId",
          "type": "uint256"
        },
        {
          "name": "_data",
          "type": "bytes"
        }
      ],
      "name": "safeTransferFrom",
      "outputs": [],
      "payable": false,
      "stateMutability": "nonpayable",
      "type": "function"
    },
    {
      "constant": true,
      "inputs": [
        {
          "name": "",
          "type": "uint256"
        }
      ],
      "name": "items",
      "outputs": [
        {
          "name": "owner",
          "type": "address"
        },
        {
          "name": "shopId",
          "type": "uint256"
        },
        {
          "name": "itemId",
          "type": "uint256"
        },
        {
          "name": "itemType",
          "type": "string"
        },
        {
          "name": "name",
          "type": "string"
        },
        {
          "name": "description",
          "type": "string"
        },
        {
          "name": "consumable",
          "type": "bool"
        },
        {
          "name": "consumed",
          "type": "bool"
        }
      ],
      "payable": false,
      "stateMutability": "view",
      "type": "function"
    },
    {
      "constant": true,
      "inputs": [
        {
          "name": "_tokenId",
          "type": "uint256"
        }
      ],
      "name": "tokenURI",
      "outputs": [
        {
          "name": "",
          "type": "string"
        }
      ],
      "payable": false,
      "stateMutability": "view",
      "type": "function"
    },
    {
      "constant": true,
      "inputs": [
        {
          "name": "_owner",
          "type": "address"
        },
        {
          "name": "_operator",
          "type": "address"
        }
      ],
      "name": "isApprovedForAll",
      "outputs": [
        {
          "name": "",
          "type": "bool"
        }
      ],
      "payable": false,
      "stateMutability": "view",
      "type": "function"
    },
    {
      "anonymous": false,
      "inputs": [
        {
          "indexed": false,
          "name": "shopId",
          "type": "uint256"
        },
        {
          "indexed": false,
          "name": "itemId",
          "type": "uint256"
        },
        {
          "indexed": false,
          "name": "name",
          "type": "string"
        }
      ],
      "name": "NewItem",
      "type": "event"
    },
    {
      "anonymous": false,
      "inputs": [
        {
          "indexed": true,
          "name": "_from",
          "type": "address"
        },
        {
          "indexed": true,
          "name": "_to",
          "type": "address"
        },
        {
          "indexed": true,
          "name": "_tokenId",
          "type": "uint256"
        }
      ],
      "name": "Transfer",
      "type": "event"
    },
    {
      "anonymous": false,
      "inputs": [
        {
          "indexed": true,
          "name": "_owner",
          "type": "address"
        },
        {
          "indexed": true,
          "name": "_approved",
          "type": "address"
        },
        {
          "indexed": true,
          "name": "_tokenId",
          "type": "uint256"
        }
      ],
      "name": "Approval",
      "type": "event"
    },
    {
      "anonymous": false,
      "inputs": [
        {
          "indexed": true,
          "name": "_owner",
          "type": "address"
        },
        {
          "indexed": true,
          "name": "_operator",
          "type": "address"
        },
        {
          "indexed": false,
          "name": "_approved",
          "type": "bool"
        }
      ],
      "name": "ApprovalForAll",
      "type": "event"
    },
    {
      "anonymous": false,
      "inputs": [
        {
          "indexed": false,
          "name": "newContract",
          "type": "address"
        }
      ],
      "name": "ContractUpgrade",
      "type": "event"
    },
    {
      "anonymous": false,
      "inputs": [],
      "name": "ContractPaused",
      "type": "event"
    },
    {
      "anonymous": false,
      "inputs": [],
      "name": "ContractUnpaused",
      "type": "event"
    },
    {
      "anonymous": false,
      "inputs": [
        {
          "indexed": true,
          "name": "operator",
          "type": "address"
        },
        {
          "indexed": false,
          "name": "role",
          "type": "string"
        }
      ],
      "name": "RoleAdded",
      "type": "event"
    },
    {
      "anonymous": false,
      "inputs": [
        {
          "indexed": true,
          "name": "operator",
          "type": "address"
        },
        {
          "indexed": false,
          "name": "role",
          "type": "string"
        }
      ],
      "name": "RoleRemoved",
      "type": "event"
    },
    {
      "constant": false,
      "inputs": [
        {
          "name": "_owner",
          "type": "address"
        },
        {
          "name": "_shopId",
          "type": "uint256"
        },
        {
          "name": "_itemType",
          "type": "string"
        },
        {
          "name": "_name",
          "type": "string"
        },
        {
          "name": "_desc",
          "type": "string"
        },
        {
          "name": "_consumable",
          "type": "bool"
        }
      ],
      "name": "createItem",
      "outputs": [],
      "payable": false,
      "stateMutability": "nonpayable",
      "type": "function"
    },
    {
      "constant": true,
      "inputs": [
        {
          "name": "_itemId",
          "type": "uint256"
        }
      ],
      "name": "getItemName",
      "outputs": [
        {
          "name": "",
          "type": "string"
        }
      ],
      "payable": false,
      "stateMutability": "view",
      "type": "function"
    }
  ],
  "bytecode": "0x60806040526000600160006101000a81548160ff0219169083151502179055506040805190810160405280601181526020017f496e47616d6550726f53686f704974656d0000000000000000000000000000008152506040805190810160405280600581526020017f494750534900000000000000000000000000000000000000000000000000000081525060018060006101000a81548160ff021916908315150217905550620000f5336040805190810160405280601181526020017f726f6c652f73797374656d2d61646d696e00000000000000000000000000000081525062000260640100000000026401000000009004565b620001326301ffc9a77c010000000000000000000000000000000000000000000000000000000002620003a9640100000000026401000000009004565b6200016f6380ac58cd7c010000000000000000000000000000000000000000000000000000000002620003a9640100000000026401000000009004565b620001ac634f558e797c010000000000000000000000000000000000000000000000000000000002620003a9640100000000026401000000009004565b8160079080519060200190620001c4929190620004c6565b508060089080519060200190620001dd929190620004c6565b506200021b63780e9d637c010000000000000000000000000000000000000000000000000000000002620003a9640100000000026401000000009004565b62000258635b5e139f7c010000000000000000000000000000000000000000000000000000000002620003a9640100000000026401000000009004565b505062000575565b620002ef826000836040518082805190602001908083835b6020831015156200029f578051825260208201915060208101905060208303925062000278565b6001836020036101000a0380198251168184511680821785525050505050509050019150509081526020016040518091039020620004686401000000000262003173179091906401000000009004565b8173ffffffffffffffffffffffffffffffffffffffff167fbfec83d64eaa953f2708271a023ab9ee82057f8f3578d548c1a4ba0b5b700489826040518080602001828103825283818151815260200191508051906020019080838360005b838110156200036a5780820151818401526020810190506200034d565b50505050905090810190601f168015620003985780820380516001836020036101000a031916815260200191505b509250505060405180910390a25050565b63ffffffff7c010000000000000000000000000000000000000000000000000000000002817bffffffffffffffffffffffffffffffffffffffffffffffffffffffff191614151515620003fb57600080fd5b600160026000837bffffffffffffffffffffffffffffffffffffffffffffffffffffffff19167bffffffffffffffffffffffffffffffffffffffffffffffffffffffff1916815260200190815260200160002060006101000a81548160ff02191690831515021790555050565b60018260000160008373ffffffffffffffffffffffffffffffffffffffff1673ffffffffffffffffffffffffffffffffffffffff16815260200190815260200160002060006101000a81548160ff0219169083151502179055505050565b828054600181600116156101000203166002900490600052602060002090601f016020900481019282601f106200050957805160ff19168380011785556200053a565b828001600101855582156200053a579182015b82811115620005395782518255916020019190600101906200051c565b5b5090506200054991906200054d565b5090565b6200057291905b808211156200056e57600081600090555060010162000554565b5090565b90565b6131fd80620005856000396000f3006080604052600436106101ac576000357c0100000000000000000000000000000000000000000000000000000000900463ffffffff16806301ffc9a7146101b157806306fdde0314610215578063081812fc146102a5578063095ea7b3146103125780630988ca8c1461035f57806318160ddd146103e8578063188214001461041357806319fa8f50146104a35780631a4d96cd1461050c578063217fe6c61461057957806323b872dd1461061a5780632a905318146106875780632f745c59146107175780633f4ba83a1461077857806342842e0e1461078f5780634c798473146107fc5780634f558e79146108535780634f6ccce71461089857806356de8ccd146108d95780635c975abb146109695780636352211e146109985780636af04a5714610a0557806370a0823114610a5c5780637158798814610ab35780637e1ae97614610af65780638456cb5914610b8657806395d89b4114610b9d578063a22cb46514610c2d578063a300c0ea14610c7c578063b88d4fde14610da7578063bfb231d214610e5a578063c87b56dd1461102f578063d9561a91146110d5578063e985e9c51461117b575b600080fd5b3480156101bd57600080fd5b506101fb60048036038101908080357bffffffffffffffffffffffffffffffffffffffffffffffffffffffff191690602001909291905050506111f6565b604051808215151515815260200191505060405180910390f35b34801561022157600080fd5b5061022a61125e565b6040518080602001828103825283818151815260200191508051906020019080838360005b8381101561026a57808201518184015260208101905061024f565b50505050905090810190601f1680156102975780820380516001836020036101000a031916815260200191505b509250505060405180910390f35b3480156102b157600080fd5b506102d060048036038101908080359060200190929190505050611300565b604051808273ffffffffffffffffffffffffffffffffffffffff1673ffffffffffffffffffffffffffffffffffffffff16815260200191505060405180910390f35b34801561031e57600080fd5b5061035d600480360381019080803573ffffffffffffffffffffffffffffffffffffffff1690602001909291908035906020019092919050505061133d565b005b34801561036b57600080fd5b506103e6600480360381019080803573ffffffffffffffffffffffffffffffffffffffff169060200190929190803590602001908201803590602001908080601f0160208091040260200160405190810160405280939291908181526020018383808284378201915050505050509192919290505050611482565b005b3480156103f457600080fd5b506103fd611503565b6040518082815260200191505060405180910390f35b34801561041f57600080fd5b50610428611510565b6040518080602001828103825283818151815260200191508051906020019080838360005b8381101561046857808201518184015260208101905061044d565b50505050905090810190601f1680156104955780820380516001836020036101000a031916815260200191505b509250505060405180910390f35b3480156104af57600080fd5b506104b8611549565b60405180827bffffffffffffffffffffffffffffffffffffffffffffffffffffffff19167bffffffffffffffffffffffffffffffffffffffffffffffffffffffff1916815260200191505060405180910390f35b34801561051857600080fd5b5061053760048036038101908080359060200190929190505050611570565b604051808273ffffffffffffffffffffffffffffffffffffffff1673ffffffffffffffffffffffffffffffffffffffff16815260200191505060405180910390f35b34801561058557600080fd5b50610600600480360381019080803573ffffffffffffffffffffffffffffffffffffffff169060200190929190803590602001908201803590602001908080601f01602080910402602001604051908101604052809392919081815260200183838082843782019150505050505091929192905050506115a3565b604051808215151515815260200191505060405180910390f35b34801561062657600080fd5b50610685600480360381019080803573ffffffffffffffffffffffffffffffffffffffff169060200190929190803573ffffffffffffffffffffffffffffffffffffffff1690602001909291908035906020019092919050505061162a565b005b34801561069357600080fd5b5061069c611737565b6040518080602001828103825283818151815260200191508051906020019080838360005b838110156106dc5780820151818401526020810190506106c1565b50505050905090810190601f1680156107095780820380516001836020036101000a031916815260200191505b509250505060405180910390f35b34801561072357600080fd5b50610762600480360381019080803573ffffffffffffffffffffffffffffffffffffffff16906020019092919080359060200190929190505050611770565b6040518082815260200191505060405180910390f35b34801561078457600080fd5b5061078d6117e7565b005b34801561079b57600080fd5b506107fa600480360381019080803573ffffffffffffffffffffffffffffffffffffffff169060200190929190803573ffffffffffffffffffffffffffffffffffffffff1690602001909291908035906020019092919050505061188a565b005b34801561080857600080fd5b5061083d600480360381019080803573ffffffffffffffffffffffffffffffffffffffff1690602001909291905050506118c2565b6040518082815260200191505060405180910390f35b34801561085f57600080fd5b5061087e600480360381019080803590602001909291905050506118da565b604051808215151515815260200191505060405180910390f35b3480156108a457600080fd5b506108c36004803603810190808035906020019092919050505061194c565b6040518082815260200191505060405180910390f35b3480156108e557600080fd5b506108ee611984565b6040518080602001828103825283818151815260200191508051906020019080838360005b8381101561092e578082015181840152602081019050610913565b50505050905090810190601f16801561095b5780820380516001836020036101000a031916815260200191505b509250505060405180910390f35b34801561097557600080fd5b5061097e6119bd565b604051808215151515815260200191505060405180910390f35b3480156109a457600080fd5b506109c3600480360381019080803590602001909291905050506119d0565b604051808273ffffffffffffffffffffffffffffffffffffffff1673ffffffffffffffffffffffffffffffffffffffff16815260200191505060405180910390f35b348015610a1157600080fd5b50610a1a611a4e565b604051808273ffffffffffffffffffffffffffffffffffffffff1673ffffffffffffffffffffffffffffffffffffffff16815260200191505060405180910390f35b348015610a6857600080fd5b50610a9d600480360381019080803573ffffffffffffffffffffffffffffffffffffffff169060200190929190505050611a73565b6040518082815260200191505060405180910390f35b348015610abf57600080fd5b50610af4600480360381019080803573ffffffffffffffffffffffffffffffffffffffff169060200190929190505050611af7565b005b348015610b0257600080fd5b50610b0b611bf7565b6040518080602001828103825283818151815260200191508051906020019080838360005b83811015610b4b578082015181840152602081019050610b30565b50505050905090810190601f168015610b785780820380516001836020036101000a031916815260200191505b509250505060405180910390f35b348015610b9257600080fd5b50610b9b611c30565b005b348015610ba957600080fd5b50610bb2611cd3565b6040518080602001828103825283818151815260200191508051906020019080838360005b83811015610bf2578082015181840152602081019050610bd7565b50505050905090810190601f168015610c1f5780820380516001836020036101000a031916815260200191505b509250505060405180910390f35b348015610c3957600080fd5b50610c7a600480360381019080803573ffffffffffffffffffffffffffffffffffffffff169060200190929190803515159060200190929190505050611d75565b005b348015610c8857600080fd5b50610da5600480360381019080803573ffffffffffffffffffffffffffffffffffffffff16906020019092919080359060200190929190803590602001908201803590602001908080601f0160208091040260200160405190810160405280939291908181526020018383808284378201915050505050509192919290803590602001908201803590602001908080601f0160208091040260200160405190810160405280939291908181526020018383808284378201915050505050509192919290803590602001908201803590602001908080601f0160208091040260200160405190810160405280939291908181526020018383808284378201915050505050509192919290803515159060200190929190505050611eb1565b005b348015610db357600080fd5b50610e58600480360381019080803573ffffffffffffffffffffffffffffffffffffffff169060200190929190803573ffffffffffffffffffffffffffffffffffffffff16906020019092919080359060200190929190803590602001908201803590602001908080601f016020809104026020016040519081016040528093929190818152602001838380828437820191505050505050919291929050505061219f565b005b348015610e6657600080fd5b50610e85600480360381019080803590602001909291905050506121de565b604051808973ffffffffffffffffffffffffffffffffffffffff1673ffffffffffffffffffffffffffffffffffffffff1681526020018881526020018781526020018060200180602001806020018615151515815260200185151515158152602001848103845289818151815260200191508051906020019080838360005b83811015610f1f578082015181840152602081019050610f04565b50505050905090810190601f168015610f4c5780820380516001836020036101000a031916815260200191505b50848103835288818151815260200191508051906020019080838360005b83811015610f85578082015181840152602081019050610f6a565b50505050905090810190601f168015610fb25780820380516001836020036101000a031916815260200191505b50848103825287818151815260200191508051906020019080838360005b83811015610feb578082015181840152602081019050610fd0565b50505050905090810190601f1680156110185780820380516001836020036101000a031916815260200191505b509b50505050505050505050505060405180910390f35b34801561103b57600080fd5b5061105a60048036038101908080359060200190929190505050612437565b6040518080602001828103825283818151815260200191508051906020019080838360005b8381101561109a57808201518184015260208101905061107f565b50505050905090810190601f1680156110c75780820380516001836020036101000a031916815260200191505b509250505060405180910390f35b3480156110e157600080fd5b5061110060048036038101908080359060200190929190505050612500565b6040518080602001828103825283818151815260200191508051906020019080838360005b83811015611140578082015181840152602081019050611125565b50505050905090810190601f16801561116d5780820380516001836020036101000a031916815260200191505b509250505060405180910390f35b34801561118757600080fd5b506111dc600480360381019080803573ffffffffffffffffffffffffffffffffffffffff169060200190929190803573ffffffffffffffffffffffffffffffffffffffff1690602001909291905050506125c2565b604051808215151515815260200191505060405180910390f35b600060026000837bffffffffffffffffffffffffffffffffffffffffffffffffffffffff19167bffffffffffffffffffffffffffffffffffffffffffffffffffffffff1916815260200190815260200160002060009054906101000a900460ff169050919050565b606060078054600181600116156101000203166002900480601f0160208091040260200160405190810160405280929190818152602001828054600181600116156101000203166002900480156112f65780601f106112cb576101008083540402835291602001916112f6565b820191906000526020600020905b8154815290600101906020018083116112d957829003601f168201915b5050505050905090565b60006004600083815260200190815260200160002060009054906101000a900473ffffffffffffffffffffffffffffffffffffffff169050919050565b6000611348826119d0565b90508073ffffffffffffffffffffffffffffffffffffffff168373ffffffffffffffffffffffffffffffffffffffff161415151561138557600080fd5b8073ffffffffffffffffffffffffffffffffffffffff163373ffffffffffffffffffffffffffffffffffffffff1614806113c557506113c481336125c2565b5b15156113d057600080fd5b826004600084815260200190815260200160002060006101000a81548173ffffffffffffffffffffffffffffffffffffffff021916908373ffffffffffffffffffffffffffffffffffffffff160217905550818373ffffffffffffffffffffffffffffffffffffffff168273ffffffffffffffffffffffffffffffffffffffff167f8c5be1e5ebec7d5bd14f71427d1e84f3dd0314c0f7b2291e5b200ac8c7c3b92560405160405180910390a4505050565b6114ff826000836040518082805190602001908083835b6020831015156114be5780518252602082019150602081019050602083039250611499565b6001836020036101000a038019825116818451168082178552505050505050905001915050908152602001604051809103902061265690919063ffffffff16565b5050565b6000600b80549050905090565b6040805190810160405280601181526020017f496e47616d6550726f53686f704974656d00000000000000000000000000000081525081565b6301ffc9a77c01000000000000000000000000000000000000000000000000000000000281565b600f6020528060005260406000206000915054906101000a900473ffffffffffffffffffffffffffffffffffffffff1681565b6000611622836000846040518082805190602001908083835b6020831015156115e157805182526020820191506020810190506020830392506115bc565b6001836020036101000a038019825116818451168082178552505050505050905001915050908152602001604051809103902061266f90919063ffffffff16565b905092915050565b8061163533826126c8565b151561164057600080fd5b600073ffffffffffffffffffffffffffffffffffffffff168473ffffffffffffffffffffffffffffffffffffffff161415151561167c57600080fd5b600073ffffffffffffffffffffffffffffffffffffffff168373ffffffffffffffffffffffffffffffffffffffff16141515156116b857600080fd5b6116c2848361275d565b6116cc8483612860565b6116d68383612a78565b818373ffffffffffffffffffffffffffffffffffffffff168573ffffffffffffffffffffffffffffffffffffffff167fddf252ad1be2c89b69c2b068fc378daa952ba7f163c4a11628f55a4df523b3ef60405160405180910390a450505050565b6040805190810160405280600581526020017f494750534900000000000000000000000000000000000000000000000000000081525081565b600061177b83611a73565b8210151561178857600080fd5b600960008473ffffffffffffffffffffffffffffffffffffffff1673ffffffffffffffffffffffffffffffffffffffff168152602001908152602001600020828154811015156117d457fe5b9060005260206000200154905092915050565b611826336040805190810160405280601181526020017f726f6c652f73797374656d2d61646d696e000000000000000000000000000000815250611482565b600160009054906101000a900460ff16151561184157600080fd5b6000600160006101000a81548160ff0219169083151502179055507f0e5e3b3fb504c22cf5c42fa07d521225937514c654007e1f12646f89768d6f9460405160405180910390a1565b8061189533826126c8565b15156118a057600080fd5b6118bc848484602060405190810160405280600081525061219f565b50505050565b60106020528060005260406000206000915090505481565b6000806003600084815260200190815260200160002060009054906101000a900473ffffffffffffffffffffffffffffffffffffffff169050600073ffffffffffffffffffffffffffffffffffffffff168173ffffffffffffffffffffffffffffffffffffffff161415915050919050565b6000611956611503565b8210151561196357600080fd5b600b8281548110151561197257fe5b90600052602060002001549050919050565b6040805190810160405280601181526020017f726f6c652f73797374656d2d61646d696e00000000000000000000000000000081525081565b600160009054906101000a900460ff1681565b6000806003600084815260200190815260200160002060009054906101000a900473ffffffffffffffffffffffffffffffffffffffff169050600073ffffffffffffffffffffffffffffffffffffffff168173ffffffffffffffffffffffffffffffffffffffff1614151515611a4557600080fd5b80915050919050565b6001809054906101000a900473ffffffffffffffffffffffffffffffffffffffff1681565b60008073ffffffffffffffffffffffffffffffffffffffff168273ffffffffffffffffffffffffffffffffffffffff1614151515611ab057600080fd5b600560008373ffffffffffffffffffffffffffffffffffffffff1673ffffffffffffffffffffffffffffffffffffffff168152602001908152602001600020549050919050565b611b36336040805190810160405280601181526020017f726f6c652f73797374656d2d61646d696e000000000000000000000000000000815250611482565b600160009054906101000a900460ff161515611b5157600080fd5b806001806101000a81548173ffffffffffffffffffffffffffffffffffffffff021916908373ffffffffffffffffffffffffffffffffffffffff1602179055507f450db8da6efbe9c22f2347f7c2021231df1fc58d3ae9a2fa75d39fa44619930581604051808273ffffffffffffffffffffffffffffffffffffffff1673ffffffffffffffffffffffffffffffffffffffff16815260200191505060405180910390a150565b6040805190810160405280600f81526020017f726f6c652f73686f702d6f776e6572000000000000000000000000000000000081525081565b611c6f336040805190810160405280601181526020017f726f6c652f73797374656d2d61646d696e000000000000000000000000000000815250611482565b600160009054906101000a900460ff16151515611c8b57600080fd5b60018060006101000a81548160ff0219169083151502179055507fab35696f06e428ebc5ceba8cd17f8fed287baf43440206d1943af1ee53e6d26760405160405180910390a1565b606060088054600181600116156101000203166002900480601f016020809104026020016040519081016040528092919081815260200182805460018160011615610100020316600290048015611d6b5780601f10611d4057610100808354040283529160200191611d6b565b820191906000526020600020905b815481529060010190602001808311611d4e57829003601f168201915b5050505050905090565b3373ffffffffffffffffffffffffffffffffffffffff168273ffffffffffffffffffffffffffffffffffffffff1614151515611db057600080fd5b80600660003373ffffffffffffffffffffffffffffffffffffffff1673ffffffffffffffffffffffffffffffffffffffff16815260200190815260200160002060008473ffffffffffffffffffffffffffffffffffffffff1673ffffffffffffffffffffffffffffffffffffffff16815260200190815260200160002060006101000a81548160ff0219169083151502179055508173ffffffffffffffffffffffffffffffffffffffff163373ffffffffffffffffffffffffffffffffffffffff167f17307eab39ab6107e8899845ad3d59bd9653f200f220920489ca2b5937696c3183604051808215151515815260200191505060405180910390a35050565b6000611ebb613042565b600e805490509150610100604051908101604052808973ffffffffffffffffffffffffffffffffffffffff1681526020018881526020018381526020018781526020018681526020018581526020018415158152602001600015158152509050600e819080600181540180825580915050906001820390600052602060002090600802016000909192909190915060008201518160000160006101000a81548173ffffffffffffffffffffffffffffffffffffffff021916908373ffffffffffffffffffffffffffffffffffffffff16021790555060208201518160010155604082015181600201556060820151816003019080519060200190611fc09291906130a2565b506080820151816004019080519060200190611fdd9291906130a2565b5060a0820151816005019080519060200190611ffa9291906130a2565b5060c08201518160060160006101000a81548160ff02191690831515021790555060e08201518160060160016101000a81548160ff0219169083151502179055505050506120483383612a78565b33600f600084815260200190815260200160002060006101000a81548173ffffffffffffffffffffffffffffffffffffffff021916908373ffffffffffffffffffffffffffffffffffffffff160217905550601060003373ffffffffffffffffffffffffffffffffffffffff1673ffffffffffffffffffffffffffffffffffffffff168152602001908152602001600020600081548092919060010191905055507f75a81991482b891a1467e94da48f1d18706641bc35728876c780236d8a5226c28783876040518084815260200183815260200180602001828103825283818151815260200191508051906020019080838360005b8381101561215957808201518184015260208101905061213e565b50505050905090810190601f1680156121865780820380516001836020036101000a031916815260200191505b5094505050505060405180910390a15050505050505050565b816121aa33826126c8565b15156121b557600080fd5b6121c085858561162a565b6121cc85858585612b4f565b15156121d757600080fd5b5050505050565b600e818154811015156121ed57fe5b90600052602060002090600802016000915090508060000160009054906101000a900473ffffffffffffffffffffffffffffffffffffffff1690806001015490806002015490806003018054600181600116156101000203166002900480601f0160208091040260200160405190810160405280929190818152602001828054600181600116156101000203166002900480156122cb5780601f106122a0576101008083540402835291602001916122cb565b820191906000526020600020905b8154815290600101906020018083116122ae57829003601f168201915b505050505090806004018054600181600116156101000203166002900480601f0160208091040260200160405190810160405280929190818152602001828054600181600116156101000203166002900480156123695780601f1061233e57610100808354040283529160200191612369565b820191906000526020600020905b81548152906001019060200180831161234c57829003601f168201915b505050505090806005018054600181600116156101000203166002900480601f0160208091040260200160405190810160405280929190818152602001828054600181600116156101000203166002900480156124075780601f106123dc57610100808354040283529160200191612407565b820191906000526020600020905b8154815290600101906020018083116123ea57829003601f168201915b5050505050908060060160009054906101000a900460ff16908060060160019054906101000a900460ff16905088565b6060612442826118da565b151561244d57600080fd5b600d60008381526020019081526020016000208054600181600116156101000203166002900480601f0160208091040260200160405190810160405280929190818152602001828054600181600116156101000203166002900480156124f45780601f106124c9576101008083540402835291602001916124f4565b820191906000526020600020905b8154815290600101906020018083116124d757829003601f168201915b50505050509050919050565b6060600e8281548110151561251157fe5b90600052602060002090600802016004018054600181600116156101000203166002900480601f0160208091040260200160405190810160405280929190818152602001828054600181600116156101000203166002900480156125b65780601f1061258b576101008083540402835291602001916125b6565b820191906000526020600020905b81548152906001019060200180831161259957829003601f168201915b50505050509050919050565b6000600660008473ffffffffffffffffffffffffffffffffffffffff1673ffffffffffffffffffffffffffffffffffffffff16815260200190815260200160002060008373ffffffffffffffffffffffffffffffffffffffff1673ffffffffffffffffffffffffffffffffffffffff16815260200190815260200160002060009054906101000a900460ff16905092915050565b612660828261266f565b151561266b57600080fd5b5050565b60008260000160008373ffffffffffffffffffffffffffffffffffffffff1673ffffffffffffffffffffffffffffffffffffffff16815260200190815260200160002060009054906101000a900460ff16905092915050565b6000806126d4836119d0565b90508073ffffffffffffffffffffffffffffffffffffffff168473ffffffffffffffffffffffffffffffffffffffff16148061274357508373ffffffffffffffffffffffffffffffffffffffff1661272b84611300565b73ffffffffffffffffffffffffffffffffffffffff16145b80612754575061275381856125c2565b5b91505092915050565b8173ffffffffffffffffffffffffffffffffffffffff1661277d826119d0565b73ffffffffffffffffffffffffffffffffffffffff1614151561279f57600080fd5b600073ffffffffffffffffffffffffffffffffffffffff166004600083815260200190815260200160002060009054906101000a900473ffffffffffffffffffffffffffffffffffffffff1673ffffffffffffffffffffffffffffffffffffffff1614151561285c5760006004600083815260200190815260200160002060006101000a81548173ffffffffffffffffffffffffffffffffffffffff021916908373ffffffffffffffffffffffffffffffffffffffff1602179055505b5050565b600080600061286f8585612d71565b600a60008581526020019081526020016000205492506128db6001600960008873ffffffffffffffffffffffffffffffffffffffff1673ffffffffffffffffffffffffffffffffffffffff16815260200190815260200160002080549050612ea090919063ffffffff16565b9150600960008673ffffffffffffffffffffffffffffffffffffffff1673ffffffffffffffffffffffffffffffffffffffff1681526020019081526020016000208281548110151561292957fe5b9060005260206000200154905080600960008773ffffffffffffffffffffffffffffffffffffffff1673ffffffffffffffffffffffffffffffffffffffff1681526020019081526020016000208481548110151561298357fe5b90600052602060002001819055506000600960008773ffffffffffffffffffffffffffffffffffffffff1673ffffffffffffffffffffffffffffffffffffffff168152602001908152602001600020838154811015156129df57fe5b9060005260206000200181905550600960008673ffffffffffffffffffffffffffffffffffffffff1673ffffffffffffffffffffffffffffffffffffffff168152602001908152602001600020805480919060019003612a3f9190613122565b506000600a60008681526020019081526020016000208190555082600a6000838152602001908152602001600020819055505050505050565b6000612a848383612eb9565b600960008473ffffffffffffffffffffffffffffffffffffffff1673ffffffffffffffffffffffffffffffffffffffff168152602001908152602001600020805490509050600960008473ffffffffffffffffffffffffffffffffffffffff1673ffffffffffffffffffffffffffffffffffffffff16815260200190815260200160002082908060018154018082558091505090600182039060005260206000200160009091929091909150555080600a600084815260200190815260200160002081905550505050565b600080612b718573ffffffffffffffffffffffffffffffffffffffff16613013565b1515612b805760019150612d68565b8473ffffffffffffffffffffffffffffffffffffffff1663150b7a02338887876040518563ffffffff167c0100000000000000000000000000000000000000000000000000000000028152600401808573ffffffffffffffffffffffffffffffffffffffff1673ffffffffffffffffffffffffffffffffffffffff1681526020018473ffffffffffffffffffffffffffffffffffffffff1673ffffffffffffffffffffffffffffffffffffffff16815260200183815260200180602001828103825283818151815260200191508051906020019080838360005b83811015612c75578082015181840152602081019050612c5a565b50505050905090810190601f168015612ca25780820380516001836020036101000a031916815260200191505b5095505050505050602060405180830381600087803b158015612cc457600080fd5b505af1158015612cd8573d6000803e3d6000fd5b505050506040513d6020811015612cee57600080fd5b8101908080519060200190929190505050905063150b7a027c0100000000000000000000000000000000000000000000000000000000027bffffffffffffffffffffffffffffffffffffffffffffffffffffffff1916817bffffffffffffffffffffffffffffffffffffffffffffffffffffffff19161491505b50949350505050565b8173ffffffffffffffffffffffffffffffffffffffff16612d91826119d0565b73ffffffffffffffffffffffffffffffffffffffff16141515612db357600080fd5b612e066001600560008573ffffffffffffffffffffffffffffffffffffffff1673ffffffffffffffffffffffffffffffffffffffff16815260200190815260200160002054612ea090919063ffffffff16565b600560008473ffffffffffffffffffffffffffffffffffffffff1673ffffffffffffffffffffffffffffffffffffffff1681526020019081526020016000208190555060006003600083815260200190815260200160002060006101000a81548173ffffffffffffffffffffffffffffffffffffffff021916908373ffffffffffffffffffffffffffffffffffffffff1602179055505050565b6000828211151515612eae57fe5b818303905092915050565b600073ffffffffffffffffffffffffffffffffffffffff166003600083815260200190815260200160002060009054906101000a900473ffffffffffffffffffffffffffffffffffffffff1673ffffffffffffffffffffffffffffffffffffffff16141515612f2757600080fd5b816003600083815260200190815260200160002060006101000a81548173ffffffffffffffffffffffffffffffffffffffff021916908373ffffffffffffffffffffffffffffffffffffffff160217905550612fcc6001600560008573ffffffffffffffffffffffffffffffffffffffff1673ffffffffffffffffffffffffffffffffffffffff1681526020019081526020016000205461302690919063ffffffff16565b600560008473ffffffffffffffffffffffffffffffffffffffff1673ffffffffffffffffffffffffffffffffffffffff168152602001908152602001600020819055505050565b600080823b905060008111915050919050565b6000818301905082811015151561303957fe5b80905092915050565b61010060405190810160405280600073ffffffffffffffffffffffffffffffffffffffff16815260200160008152602001600081526020016060815260200160608152602001606081526020016000151581526020016000151581525090565b828054600181600116156101000203166002900490600052602060002090601f016020900481019282601f106130e357805160ff1916838001178555613111565b82800160010185558215613111579182015b828111156131105782518255916020019190600101906130f5565b5b50905061311e919061314e565b5090565b81548183558181111561314957818360005260206000209182019101613148919061314e565b5b505050565b61317091905b8082111561316c576000816000905550600101613154565b5090565b90565b60018260000160008373ffffffffffffffffffffffffffffffffffffffff1673ffffffffffffffffffffffffffffffffffffffff16815260200190815260200160002060006101000a81548160ff02191690831515021790555050505600a165627a7a72305820b0beb07267da221a734239f9b98814a30075a3221162346c8b4881ee0b61f7dc0029",
  "source": "pragma solidity ^0.4.24;\n\nimport \"./ProShopBase.sol\";\n\n\ncontract ItemFactory is ProShopBase {\n\n    event NewItem(uint shopId, uint itemId, string name);\n\n    Item[] public items;\n    mapping (uint => address) public itemToOwner;\n    mapping (address => uint) public ownerItemCount;\n\n    function createItem(address _owner,\n                        uint _shopId,\n                        string _itemType,\n                        string _name,\n                        string _desc,\n                        bool _consumable ) public {\n        uint itemId = items.length;\n        Item memory item = Item(_owner, _shopId, itemId, _itemType, _name, _desc, _consumable, false);\n        items.push(item);\n        addTokenTo(msg.sender, itemId);\n        itemToOwner[itemId] = msg.sender;\n        ownerItemCount[msg.sender]++;\n        emit NewItem(_shopId, itemId, _name);\n    }\n\n    function getItemName(uint _itemId) public view returns (string) {\n        return items[_itemId].name;\n    }\n\n}",
  "sourcePath": "/Users/cliff/Documents/in-game-pro-shop/contracts/ItemFactory.sol",
  "compiler": {
    "name": "solc",
    "version": "0.4.24+commit.e67f0147.Emscripten.clang"
  },
  "schemaVersion": "2.0.1",
  "updatedAt": "2018-08-06T14:47:15.460Z"
}