{
  "contractName": "ShopFactory",
  "abi": [
    {
      "constant": true,
      "inputs": [
        {
          "name": "",
          "type": "bytes32"
        }
      ],
      "name": "shopToOwner",
      "outputs": [
        {
          "name": "",
          "type": "address"
        }
      ],
      "payable": false,
      "stateMutability": "view",
      "type": "function"
    },
    {
      "constant": true,
      "inputs": [
        {
          "name": "",
          "type": "uint256"
        }
      ],
      "name": "shops",
      "outputs": [
        {
          "name": "shopId",
          "type": "bytes32"
        },
        {
          "name": "name",
          "type": "string"
        }
      ],
      "payable": false,
      "stateMutability": "view",
      "type": "function"
    },
    {
      "constant": false,
      "inputs": [],
      "name": "renounceOwnership",
      "outputs": [],
      "payable": false,
      "stateMutability": "nonpayable",
      "type": "function"
    },
    {
      "constant": true,
      "inputs": [],
      "name": "owner",
      "outputs": [
        {
          "name": "",
          "type": "address"
        }
      ],
      "payable": false,
      "stateMutability": "view",
      "type": "function"
    },
    {
      "constant": false,
      "inputs": [
        {
          "name": "_newOwner",
          "type": "address"
        }
      ],
      "name": "transferOwnership",
      "outputs": [],
      "payable": false,
      "stateMutability": "nonpayable",
      "type": "function"
    },
    {
      "anonymous": false,
      "inputs": [
        {
          "indexed": false,
          "name": "shopId",
          "type": "bytes32"
        },
        {
          "indexed": false,
          "name": "name",
          "type": "string"
        }
      ],
      "name": "NewShop",
      "type": "event"
    },
    {
      "anonymous": false,
      "inputs": [
        {
          "indexed": true,
          "name": "previousOwner",
          "type": "address"
        }
      ],
      "name": "OwnershipRenounced",
      "type": "event"
    },
    {
      "anonymous": false,
      "inputs": [
        {
          "indexed": true,
          "name": "previousOwner",
          "type": "address"
        },
        {
          "indexed": true,
          "name": "newOwner",
          "type": "address"
        }
      ],
      "name": "OwnershipTransferred",
      "type": "event"
    },
    {
      "constant": false,
      "inputs": [
        {
          "name": "_name",
          "type": "string"
        }
      ],
      "name": "createShop",
      "outputs": [],
      "payable": false,
      "stateMutability": "nonpayable",
      "type": "function"
    }
  ],
  "bytecode": "0x6080604052336000806101000a81548173ffffffffffffffffffffffffffffffffffffffff021916908373ffffffffffffffffffffffffffffffffffffffff16021790555061096f806100536000396000f300608060405260043610610078576000357c0100000000000000000000000000000000000000000000000000000000900463ffffffff168063184392e81461007d578063713aca74146100ee578063715018a6146101a35780638da5cb5b146101ba578063e674d1f614610211578063f2fde38b1461027a575b600080fd5b34801561008957600080fd5b506100ac60048036038101908080356000191690602001909291905050506102bd565b604051808273ffffffffffffffffffffffffffffffffffffffff1673ffffffffffffffffffffffffffffffffffffffff16815260200191505060405180910390f35b3480156100fa57600080fd5b50610119600480360381019080803590602001909291905050506102f0565b60405180836000191660001916815260200180602001828103825283818151815260200191508051906020019080838360005b8381101561016757808201518184015260208101905061014c565b50505050905090810190601f1680156101945780820380516001836020036101000a031916815260200191505b50935050505060405180910390f35b3480156101af57600080fd5b506101b86103bb565b005b3480156101c657600080fd5b506101cf6104bd565b604051808273ffffffffffffffffffffffffffffffffffffffff1673ffffffffffffffffffffffffffffffffffffffff16815260200191505060405180910390f35b34801561021d57600080fd5b50610278600480360381019080803590602001908201803590602001908080601f01602080910402602001604051908101604052809392919081815260200183838082843782019150505050505091929192905050506104e2565b005b34801561028657600080fd5b506102bb600480360381019080803573ffffffffffffffffffffffffffffffffffffffff16906020019092919050505061073d565b005b60026020528060005260406000206000915054906101000a900473ffffffffffffffffffffffffffffffffffffffff1681565b6001818154811015156102ff57fe5b9060005260206000209060020201600091509050806000015490806001018054600181600116156101000203166002900480601f0160208091040260200160405190810160405280929190818152602001828054600181600116156101000203166002900480156103b15780601f10610386576101008083540402835291602001916103b1565b820191906000526020600020905b81548152906001019060200180831161039457829003601f168201915b5050505050905082565b6000809054906101000a900473ffffffffffffffffffffffffffffffffffffffff1673ffffffffffffffffffffffffffffffffffffffff163373ffffffffffffffffffffffffffffffffffffffff1614151561041657600080fd5b6000809054906101000a900473ffffffffffffffffffffffffffffffffffffffff1673ffffffffffffffffffffffffffffffffffffffff167ff8df31144d9c2f0f6b59d69b8b98abd5459d07f2742c4df920b25aae33c6482060405160405180910390a260008060006101000a81548173ffffffffffffffffffffffffffffffffffffffff021916908373ffffffffffffffffffffffffffffffffffffffff160217905550565b6000809054906101000a900473ffffffffffffffffffffffffffffffffffffffff1681565b600081426040516020018083805190602001908083835b60208310151561051e57805182526020820191506020810190506020830392506104f9565b6001836020036101000a038019825116818451168082178552505050505050905001828152602001925050506040516020818303038152906040526040518082805190602001908083835b60208310151561058e5780518252602082019150602081019050602083039250610569565b6001836020036101000a038019825116818451168082178552505050505050905001915050604051809103902090506001604080519081016040528083600019168152602001848152509080600181540180825580915050906001820390600052602060002090600202016000909192909190915060008201518160000190600019169055602082015181600101908051906020019061062f92919061089e565b505050503360026000836000191660001916815260200190815260200160002060006101000a81548173ffffffffffffffffffffffffffffffffffffffff021916908373ffffffffffffffffffffffffffffffffffffffff1602179055507f6313bf4c16ed0f7dfc973b6d1402585b4a3222667028027be75d7c44d23c51c5818360405180836000191660001916815260200180602001828103825283818151815260200191508051906020019080838360005b838110156106fe5780820151818401526020810190506106e3565b50505050905090810190601f16801561072b5780820380516001836020036101000a031916815260200191505b50935050505060405180910390a15050565b6000809054906101000a900473ffffffffffffffffffffffffffffffffffffffff1673ffffffffffffffffffffffffffffffffffffffff163373ffffffffffffffffffffffffffffffffffffffff1614151561079857600080fd5b6107a1816107a4565b50565b600073ffffffffffffffffffffffffffffffffffffffff168173ffffffffffffffffffffffffffffffffffffffff16141515156107e057600080fd5b8073ffffffffffffffffffffffffffffffffffffffff166000809054906101000a900473ffffffffffffffffffffffffffffffffffffffff1673ffffffffffffffffffffffffffffffffffffffff167f8be0079c531659141344cd1fd0a4f28419497f9722a3daafe3b4186f6b6457e060405160405180910390a3806000806101000a81548173ffffffffffffffffffffffffffffffffffffffff021916908373ffffffffffffffffffffffffffffffffffffffff16021790555050565b828054600181600116156101000203166002900490600052602060002090601f016020900481019282601f106108df57805160ff191683800117855561090d565b8280016001018555821561090d579182015b8281111561090c5782518255916020019190600101906108f1565b5b50905061091a919061091e565b5090565b61094091905b8082111561093c576000816000905550600101610924565b5090565b905600a165627a7a7230582034a70a7b438378b2033c1832660ec26eed57d13bdb2296837bf627bddd7981570029",
  "source": "pragma solidity ^0.4.24;\n\nimport 'openzeppelin-solidity/contracts/ownership/Ownable.sol';\n\ncontract ShopFactory is Ownable {\n\n    event NewShop(bytes32 shopId, string name);\n\n    struct Shop {\n        bytes32 shopId;\n        string name;\n    }\n\n    Shop[] public shops;\n    mapping (bytes32 => address) public shopToOwner;\n\n    function createShop(string _name) public {\n        bytes32 id = keccak256(abi.encodePacked(_name, now));\n        shops.push(Shop(id, _name));\n        shopToOwner[id] = msg.sender;\n        emit NewShop(id, _name);\n    }\n}",
  "sourcePath": "/Users/cliff/Documents/in-game-pro-shop/contracts/ShopFactory.sol",
  "compiler": {
    "name": "solc",
    "version": "0.4.24+commit.e67f0147.Emscripten.clang"
  },
  "schemaVersion": "2.0.1",
  "updatedAt": "2018-08-04T19:42:25.468Z"
}