{
  "contractName": "ShopFactory",
  "abi": [
    {
      "constant": true,
      "inputs": [
        {
          "name": "_interfaceId",
          "type": "bytes4"
        }
      ],
      "name": "supportsInterface",
      "outputs": [
        {
          "name": "",
          "type": "bool"
        }
      ],
      "payable": false,
      "stateMutability": "view",
      "type": "function"
    },
    {
      "constant": true,
      "inputs": [],
      "name": "name",
      "outputs": [
        {
          "name": "",
          "type": "string"
        }
      ],
      "payable": false,
      "stateMutability": "view",
      "type": "function"
    },
    {
      "constant": true,
      "inputs": [
        {
          "name": "_tokenId",
          "type": "uint256"
        }
      ],
      "name": "getApproved",
      "outputs": [
        {
          "name": "",
          "type": "address"
        }
      ],
      "payable": false,
      "stateMutability": "view",
      "type": "function"
    },
    {
      "constant": false,
      "inputs": [
        {
          "name": "_to",
          "type": "address"
        },
        {
          "name": "_tokenId",
          "type": "uint256"
        }
      ],
      "name": "approve",
      "outputs": [],
      "payable": false,
      "stateMutability": "nonpayable",
      "type": "function"
    },
    {
      "constant": true,
      "inputs": [
        {
          "name": "_operator",
          "type": "address"
        },
        {
          "name": "_role",
          "type": "string"
        }
      ],
      "name": "checkRole",
      "outputs": [],
      "payable": false,
      "stateMutability": "view",
      "type": "function"
    },
    {
      "constant": false,
      "inputs": [
        {
          "name": "_shopId",
          "type": "uint256"
        },
        {
          "name": "_itemType",
          "type": "string"
        },
        {
          "name": "_name",
          "type": "string"
        },
        {
          "name": "_desc",
          "type": "string"
        },
        {
          "name": "_consumable",
          "type": "bool"
        }
      ],
      "name": "createItem",
      "outputs": [],
      "payable": false,
      "stateMutability": "nonpayable",
      "type": "function"
    },
    {
      "constant": true,
      "inputs": [],
      "name": "totalSupply",
      "outputs": [
        {
          "name": "",
          "type": "uint256"
        }
      ],
      "payable": false,
      "stateMutability": "view",
      "type": "function"
    },
    {
      "constant": true,
      "inputs": [],
      "name": "TOKEN_NAME",
      "outputs": [
        {
          "name": "",
          "type": "string"
        }
      ],
      "payable": false,
      "stateMutability": "view",
      "type": "function"
    },
    {
      "constant": true,
      "inputs": [],
      "name": "InterfaceId_ERC165",
      "outputs": [
        {
          "name": "",
          "type": "bytes4"
        }
      ],
      "payable": false,
      "stateMutability": "view",
      "type": "function"
    },
    {
      "constant": true,
      "inputs": [
        {
          "name": "",
          "type": "uint256"
        }
      ],
      "name": "itemToOwner",
      "outputs": [
        {
          "name": "",
          "type": "address"
        }
      ],
      "payable": false,
      "stateMutability": "view",
      "type": "function"
    },
    {
      "constant": true,
      "inputs": [
        {
          "name": "_operator",
          "type": "address"
        },
        {
          "name": "_role",
          "type": "string"
        }
      ],
      "name": "hasRole",
      "outputs": [
        {
          "name": "",
          "type": "bool"
        }
      ],
      "payable": false,
      "stateMutability": "view",
      "type": "function"
    },
    {
      "constant": false,
      "inputs": [
        {
          "name": "_from",
          "type": "address"
        },
        {
          "name": "_to",
          "type": "address"
        },
        {
          "name": "_tokenId",
          "type": "uint256"
        }
      ],
      "name": "transferFrom",
      "outputs": [],
      "payable": false,
      "stateMutability": "nonpayable",
      "type": "function"
    },
    {
      "constant": true,
      "inputs": [],
      "name": "TOKEN_SYMBOL",
      "outputs": [
        {
          "name": "",
          "type": "string"
        }
      ],
      "payable": false,
      "stateMutability": "view",
      "type": "function"
    },
    {
      "constant": true,
      "inputs": [
        {
          "name": "",
          "type": "uint256"
        }
      ],
      "name": "shopToOwner",
      "outputs": [
        {
          "name": "",
          "type": "address"
        }
      ],
      "payable": false,
      "stateMutability": "view",
      "type": "function"
    },
    {
      "constant": true,
      "inputs": [
        {
          "name": "_owner",
          "type": "address"
        },
        {
          "name": "_index",
          "type": "uint256"
        }
      ],
      "name": "tokenOfOwnerByIndex",
      "outputs": [
        {
          "name": "",
          "type": "uint256"
        }
      ],
      "payable": false,
      "stateMutability": "view",
      "type": "function"
    },
    {
      "constant": false,
      "inputs": [],
      "name": "unpause",
      "outputs": [],
      "payable": false,
      "stateMutability": "nonpayable",
      "type": "function"
    },
    {
      "constant": false,
      "inputs": [
        {
          "name": "_from",
          "type": "address"
        },
        {
          "name": "_to",
          "type": "address"
        },
        {
          "name": "_tokenId",
          "type": "uint256"
        }
      ],
      "name": "safeTransferFrom",
      "outputs": [],
      "payable": false,
      "stateMutability": "nonpayable",
      "type": "function"
    },
    {
      "constant": true,
      "inputs": [
        {
          "name": "",
          "type": "address"
        }
      ],
      "name": "ownerItemCount",
      "outputs": [
        {
          "name": "",
          "type": "uint256"
        }
      ],
      "payable": false,
      "stateMutability": "view",
      "type": "function"
    },
    {
      "constant": true,
      "inputs": [
        {
          "name": "_tokenId",
          "type": "uint256"
        }
      ],
      "name": "exists",
      "outputs": [
        {
          "name": "",
          "type": "bool"
        }
      ],
      "payable": false,
      "stateMutability": "view",
      "type": "function"
    },
    {
      "constant": true,
      "inputs": [
        {
          "name": "_index",
          "type": "uint256"
        }
      ],
      "name": "tokenByIndex",
      "outputs": [
        {
          "name": "",
          "type": "uint256"
        }
      ],
      "payable": false,
      "stateMutability": "view",
      "type": "function"
    },
    {
      "constant": true,
      "inputs": [],
      "name": "ROLE_SYS_ADMIN",
      "outputs": [
        {
          "name": "",
          "type": "string"
        }
      ],
      "payable": false,
      "stateMutability": "view",
      "type": "function"
    },
    {
      "constant": true,
      "inputs": [],
      "name": "paused",
      "outputs": [
        {
          "name": "",
          "type": "bool"
        }
      ],
      "payable": false,
      "stateMutability": "view",
      "type": "function"
    },
    {
      "constant": true,
      "inputs": [
        {
          "name": "_tokenId",
          "type": "uint256"
        }
      ],
      "name": "ownerOf",
      "outputs": [
        {
          "name": "",
          "type": "address"
        }
      ],
      "payable": false,
      "stateMutability": "view",
      "type": "function"
    },
    {
      "constant": true,
      "inputs": [],
      "name": "newContractAddress",
      "outputs": [
        {
          "name": "",
          "type": "address"
        }
      ],
      "payable": false,
      "stateMutability": "view",
      "type": "function"
    },
    {
      "constant": true,
      "inputs": [
        {
          "name": "_owner",
          "type": "address"
        }
      ],
      "name": "balanceOf",
      "outputs": [
        {
          "name": "",
          "type": "uint256"
        }
      ],
      "payable": false,
      "stateMutability": "view",
      "type": "function"
    },
    {
      "constant": true,
      "inputs": [
        {
          "name": "",
          "type": "uint256"
        }
      ],
      "name": "shops",
      "outputs": [
        {
          "name": "owner",
          "type": "address"
        },
        {
          "name": "shopId",
          "type": "uint256"
        },
        {
          "name": "name",
          "type": "string"
        },
        {
          "name": "description",
          "type": "string"
        }
      ],
      "payable": false,
      "stateMutability": "view",
      "type": "function"
    },
    {
      "constant": false,
      "inputs": [
        {
          "name": "_newAddress",
          "type": "address"
        }
      ],
      "name": "setNewAddress",
      "outputs": [],
      "payable": false,
      "stateMutability": "nonpayable",
      "type": "function"
    },
    {
      "constant": true,
      "inputs": [],
      "name": "ROLE_SHOP_OWNER",
      "outputs": [
        {
          "name": "",
          "type": "string"
        }
      ],
      "payable": false,
      "stateMutability": "view",
      "type": "function"
    },
    {
      "constant": false,
      "inputs": [],
      "name": "pause",
      "outputs": [],
      "payable": false,
      "stateMutability": "nonpayable",
      "type": "function"
    },
    {
      "constant": true,
      "inputs": [],
      "name": "symbol",
      "outputs": [
        {
          "name": "",
          "type": "string"
        }
      ],
      "payable": false,
      "stateMutability": "view",
      "type": "function"
    },
    {
      "constant": false,
      "inputs": [
        {
          "name": "_to",
          "type": "address"
        },
        {
          "name": "_approved",
          "type": "bool"
        }
      ],
      "name": "setApprovalForAll",
      "outputs": [],
      "payable": false,
      "stateMutability": "nonpayable",
      "type": "function"
    },
    {
      "constant": true,
      "inputs": [
        {
          "name": "",
          "type": "uint256"
        }
      ],
      "name": "itemToShop",
      "outputs": [
        {
          "name": "",
          "type": "uint256"
        }
      ],
      "payable": false,
      "stateMutability": "view",
      "type": "function"
    },
    {
      "constant": false,
      "inputs": [
        {
          "name": "_from",
          "type": "address"
        },
        {
          "name": "_to",
          "type": "address"
        },
        {
          "name": "_tokenId",
          "type": "uint256"
        },
        {
          "name": "_data",
          "type": "bytes"
        }
      ],
      "name": "safeTransferFrom",
      "outputs": [],
      "payable": false,
      "stateMutability": "nonpayable",
      "type": "function"
    },
    {
      "constant": true,
      "inputs": [
        {
          "name": "",
          "type": "uint256"
        }
      ],
      "name": "items",
      "outputs": [
        {
          "name": "owner",
          "type": "address"
        },
        {
          "name": "shopId",
          "type": "uint256"
        },
        {
          "name": "itemId",
          "type": "uint256"
        },
        {
          "name": "itemType",
          "type": "string"
        },
        {
          "name": "name",
          "type": "string"
        },
        {
          "name": "description",
          "type": "string"
        },
        {
          "name": "consumable",
          "type": "bool"
        },
        {
          "name": "consumed",
          "type": "bool"
        }
      ],
      "payable": false,
      "stateMutability": "view",
      "type": "function"
    },
    {
      "constant": true,
      "inputs": [
        {
          "name": "_tokenId",
          "type": "uint256"
        }
      ],
      "name": "tokenURI",
      "outputs": [
        {
          "name": "",
          "type": "string"
        }
      ],
      "payable": false,
      "stateMutability": "view",
      "type": "function"
    },
    {
      "constant": true,
      "inputs": [
        {
          "name": "_itemId",
          "type": "uint256"
        }
      ],
      "name": "getItemName",
      "outputs": [
        {
          "name": "",
          "type": "string"
        }
      ],
      "payable": false,
      "stateMutability": "view",
      "type": "function"
    },
    {
      "constant": true,
      "inputs": [
        {
          "name": "_owner",
          "type": "address"
        },
        {
          "name": "_operator",
          "type": "address"
        }
      ],
      "name": "isApprovedForAll",
      "outputs": [
        {
          "name": "",
          "type": "bool"
        }
      ],
      "payable": false,
      "stateMutability": "view",
      "type": "function"
    },
    {
      "anonymous": false,
      "inputs": [
        {
          "indexed": false,
          "name": "shopId",
          "type": "uint256"
        },
        {
          "indexed": false,
          "name": "name",
          "type": "string"
        }
      ],
      "name": "NewShop",
      "type": "event"
    },
    {
      "anonymous": false,
      "inputs": [
        {
          "indexed": false,
          "name": "shopId",
          "type": "uint256"
        },
        {
          "indexed": false,
          "name": "itemId",
          "type": "uint256"
        },
        {
          "indexed": false,
          "name": "name",
          "type": "string"
        }
      ],
      "name": "NewItem",
      "type": "event"
    },
    {
      "anonymous": false,
      "inputs": [
        {
          "indexed": true,
          "name": "_from",
          "type": "address"
        },
        {
          "indexed": true,
          "name": "_to",
          "type": "address"
        },
        {
          "indexed": true,
          "name": "_tokenId",
          "type": "uint256"
        }
      ],
      "name": "Transfer",
      "type": "event"
    },
    {
      "anonymous": false,
      "inputs": [
        {
          "indexed": true,
          "name": "_owner",
          "type": "address"
        },
        {
          "indexed": true,
          "name": "_approved",
          "type": "address"
        },
        {
          "indexed": true,
          "name": "_tokenId",
          "type": "uint256"
        }
      ],
      "name": "Approval",
      "type": "event"
    },
    {
      "anonymous": false,
      "inputs": [
        {
          "indexed": true,
          "name": "_owner",
          "type": "address"
        },
        {
          "indexed": true,
          "name": "_operator",
          "type": "address"
        },
        {
          "indexed": false,
          "name": "_approved",
          "type": "bool"
        }
      ],
      "name": "ApprovalForAll",
      "type": "event"
    },
    {
      "anonymous": false,
      "inputs": [
        {
          "indexed": false,
          "name": "newContract",
          "type": "address"
        }
      ],
      "name": "ContractUpgrade",
      "type": "event"
    },
    {
      "anonymous": false,
      "inputs": [],
      "name": "ContractPaused",
      "type": "event"
    },
    {
      "anonymous": false,
      "inputs": [],
      "name": "ContractUnpaused",
      "type": "event"
    },
    {
      "anonymous": false,
      "inputs": [
        {
          "indexed": true,
          "name": "operator",
          "type": "address"
        },
        {
          "indexed": false,
          "name": "role",
          "type": "string"
        }
      ],
      "name": "RoleAdded",
      "type": "event"
    },
    {
      "anonymous": false,
      "inputs": [
        {
          "indexed": true,
          "name": "operator",
          "type": "address"
        },
        {
          "indexed": false,
          "name": "role",
          "type": "string"
        }
      ],
      "name": "RoleRemoved",
      "type": "event"
    },
    {
      "constant": false,
      "inputs": [
        {
          "name": "_name",
          "type": "string"
        },
        {
          "name": "_desc",
          "type": "string"
        }
      ],
      "name": "createShop",
      "outputs": [],
      "payable": false,
      "stateMutability": "nonpayable",
      "type": "function"
    },
    {
      "constant": true,
      "inputs": [
        {
          "name": "_shopId",
          "type": "uint256"
        }
      ],
      "name": "getShopName",
      "outputs": [
        {
          "name": "",
          "type": "string"
        }
      ],
      "payable": false,
      "stateMutability": "view",
      "type": "function"
    }
  ],
  "bytecode": "0x60806040526000600160006101000a81548160ff0219169083151502179055506040805190810160405280601181526020017f496e47616d6550726f53686f704974656d0000000000000000000000000000008152506040805190810160405280600581526020017f494750534900000000000000000000000000000000000000000000000000000081525060018060006101000a81548160ff021916908315150217905550620000f5336040805190810160405280601181526020017f726f6c652f73797374656d2d61646d696e00000000000000000000000000000081525062000260640100000000026401000000009004565b620001326301ffc9a77c010000000000000000000000000000000000000000000000000000000002620003a9640100000000026401000000009004565b6200016f6380ac58cd7c010000000000000000000000000000000000000000000000000000000002620003a9640100000000026401000000009004565b620001ac634f558e797c010000000000000000000000000000000000000000000000000000000002620003a9640100000000026401000000009004565b8160079080519060200190620001c4929190620004c6565b508060089080519060200190620001dd929190620004c6565b506200021b63780e9d637c010000000000000000000000000000000000000000000000000000000002620003a9640100000000026401000000009004565b62000258635b5e139f7c010000000000000000000000000000000000000000000000000000000002620003a9640100000000026401000000009004565b505062000575565b620002ef826000836040518082805190602001908083835b6020831015156200029f578051825260208201915060208101905060208303925062000278565b6001836020036101000a0380198251168184511680821785525050505050509050019150509081526020016040518091039020620004686401000000000262003922179091906401000000009004565b8173ffffffffffffffffffffffffffffffffffffffff167fbfec83d64eaa953f2708271a023ab9ee82057f8f3578d548c1a4ba0b5b700489826040518080602001828103825283818151815260200191508051906020019080838360005b838110156200036a5780820151818401526020810190506200034d565b50505050905090810190601f168015620003985780820380516001836020036101000a031916815260200191505b509250505060405180910390a25050565b63ffffffff7c010000000000000000000000000000000000000000000000000000000002817bffffffffffffffffffffffffffffffffffffffffffffffffffffffff191614151515620003fb57600080fd5b600160026000837bffffffffffffffffffffffffffffffffffffffffffffffffffffffff19167bffffffffffffffffffffffffffffffffffffffffffffffffffffffff1916815260200190815260200160002060006101000a81548160ff02191690831515021790555050565b60018260000160008373ffffffffffffffffffffffffffffffffffffffff1673ffffffffffffffffffffffffffffffffffffffff16815260200190815260200160002060006101000a81548160ff0219169083151502179055505050565b828054600181600116156101000203166002900490600052602060002090601f016020900481019282601f106200050957805160ff19168380011785556200053a565b828001600101855582156200053a579182015b82811115620005395782518255916020019190600101906200051c565b5b5090506200054991906200054d565b5090565b6200057291905b808211156200056e57600081600090555060010162000554565b5090565b90565b6139ac80620005856000396000f3006080604052600436106101e3576000357c0100000000000000000000000000000000000000000000000000000000900463ffffffff16806301ffc9a7146101e857806306fdde031461024c578063081812fc146102dc578063095ea7b3146103495780630988ca8c146103965780630ae284db1461041f57806318160ddd1461052a578063188214001461055557806319fa8f50146105e55780631a4d96cd1461064e578063217fe6c6146106bb57806323b872dd1461075c5780632a905318146107c95780632cf0d92a146108595780632f745c59146108c65780633f4ba83a1461092757806342842e0e1461093e5780634c798473146109ab5780634f558e7914610a025780634f6ccce714610a4757806356de8ccd14610a885780635c975abb14610b185780636352211e14610b475780636af04a5714610bb457806370a0823114610c0b578063713aca7414610c625780637158798814610dae5780637e1ae97614610df15780638456cb5914610e8157806395d89b4114610e98578063a22cb46514610f28578063a9cb6d7314610f77578063b4abc38114610fb8578063b88d4fde14611067578063bfb231d21461111a578063c87b56dd146112ef578063d9561a9114611395578063dde0e9321461143b578063e985e9c5146114e1575b600080fd5b3480156101f457600080fd5b5061023260048036038101908080357bffffffffffffffffffffffffffffffffffffffffffffffffffffffff1916906020019092919050505061155c565b604051808215151515815260200191505060405180910390f35b34801561025857600080fd5b506102616115c4565b6040518080602001828103825283818151815260200191508051906020019080838360005b838110156102a1578082015181840152602081019050610286565b50505050905090810190601f1680156102ce5780820380516001836020036101000a031916815260200191505b509250505060405180910390f35b3480156102e857600080fd5b5061030760048036038101908080359060200190929190505050611666565b604051808273ffffffffffffffffffffffffffffffffffffffff1673ffffffffffffffffffffffffffffffffffffffff16815260200191505060405180910390f35b34801561035557600080fd5b50610394600480360381019080803573ffffffffffffffffffffffffffffffffffffffff169060200190929190803590602001909291905050506116a3565b005b3480156103a257600080fd5b5061041d600480360381019080803573ffffffffffffffffffffffffffffffffffffffff169060200190929190803590602001908201803590602001908080601f01602080910402602001604051908101604052809392919081815260200183838082843782019150505050505091929192905050506117e8565b005b34801561042b57600080fd5b5061052860048036038101908080359060200190929190803590602001908201803590602001908080601f0160208091040260200160405190810160405280939291908181526020018383808284378201915050505050509192919290803590602001908201803590602001908080601f0160208091040260200160405190810160405280939291908181526020018383808284378201915050505050509192919290803590602001908201803590602001908080601f0160208091040260200160405190810160405280939291908181526020018383808284378201915050505050509192919290803515159060200190929190505050611869565b005b34801561053657600080fd5b5061053f611b67565b6040518082815260200191505060405180910390f35b34801561056157600080fd5b5061056a611b74565b6040518080602001828103825283818151815260200191508051906020019080838360005b838110156105aa57808201518184015260208101905061058f565b50505050905090810190601f1680156105d75780820380516001836020036101000a031916815260200191505b509250505060405180910390f35b3480156105f157600080fd5b506105fa611bad565b60405180827bffffffffffffffffffffffffffffffffffffffffffffffffffffffff19167bffffffffffffffffffffffffffffffffffffffffffffffffffffffff1916815260200191505060405180910390f35b34801561065a57600080fd5b5061067960048036038101908080359060200190929190505050611bd4565b604051808273ffffffffffffffffffffffffffffffffffffffff1673ffffffffffffffffffffffffffffffffffffffff16815260200191505060405180910390f35b3480156106c757600080fd5b50610742600480360381019080803573ffffffffffffffffffffffffffffffffffffffff169060200190929190803590602001908201803590602001908080601f0160208091040260200160405190810160405280939291908181526020018383808284378201915050505050509192919290505050611c07565b604051808215151515815260200191505060405180910390f35b34801561076857600080fd5b506107c7600480360381019080803573ffffffffffffffffffffffffffffffffffffffff169060200190929190803573ffffffffffffffffffffffffffffffffffffffff16906020019092919080359060200190929190505050611c8e565b005b3480156107d557600080fd5b506107de611d9b565b6040518080602001828103825283818151815260200191508051906020019080838360005b8381101561081e578082015181840152602081019050610803565b50505050905090810190601f16801561084b5780820380516001836020036101000a031916815260200191505b509250505060405180910390f35b34801561086557600080fd5b5061088460048036038101908080359060200190929190505050611dd4565b604051808273ffffffffffffffffffffffffffffffffffffffff1673ffffffffffffffffffffffffffffffffffffffff16815260200191505060405180910390f35b3480156108d257600080fd5b50610911600480360381019080803573ffffffffffffffffffffffffffffffffffffffff16906020019092919080359060200190929190505050611e07565b6040518082815260200191505060405180910390f35b34801561093357600080fd5b5061093c611e7e565b005b34801561094a57600080fd5b506109a9600480360381019080803573ffffffffffffffffffffffffffffffffffffffff169060200190929190803573ffffffffffffffffffffffffffffffffffffffff16906020019092919080359060200190929190505050611f21565b005b3480156109b757600080fd5b506109ec600480360381019080803573ffffffffffffffffffffffffffffffffffffffff169060200190929190505050611f59565b6040518082815260200191505060405180910390f35b348015610a0e57600080fd5b50610a2d60048036038101908080359060200190929190505050611f71565b604051808215151515815260200191505060405180910390f35b348015610a5357600080fd5b50610a7260048036038101908080359060200190929190505050611fe3565b6040518082815260200191505060405180910390f35b348015610a9457600080fd5b50610a9d61201b565b6040518080602001828103825283818151815260200191508051906020019080838360005b83811015610add578082015181840152602081019050610ac2565b50505050905090810190601f168015610b0a5780820380516001836020036101000a031916815260200191505b509250505060405180910390f35b348015610b2457600080fd5b50610b2d612054565b604051808215151515815260200191505060405180910390f35b348015610b5357600080fd5b50610b7260048036038101908080359060200190929190505050612067565b604051808273ffffffffffffffffffffffffffffffffffffffff1673ffffffffffffffffffffffffffffffffffffffff16815260200191505060405180910390f35b348015610bc057600080fd5b50610bc96120e5565b604051808273ffffffffffffffffffffffffffffffffffffffff1673ffffffffffffffffffffffffffffffffffffffff16815260200191505060405180910390f35b348015610c1757600080fd5b50610c4c600480360381019080803573ffffffffffffffffffffffffffffffffffffffff16906020019092919050505061210a565b6040518082815260200191505060405180910390f35b348015610c6e57600080fd5b50610c8d6004803603810190808035906020019092919050505061218e565b604051808573ffffffffffffffffffffffffffffffffffffffff1673ffffffffffffffffffffffffffffffffffffffff1681526020018481526020018060200180602001838103835285818151815260200191508051906020019080838360005b83811015610d09578082015181840152602081019050610cee565b50505050905090810190601f168015610d365780820380516001836020036101000a031916815260200191505b50838103825284818151815260200191508051906020019080838360005b83811015610d6f578082015181840152602081019050610d54565b50505050905090810190601f168015610d9c5780820380516001836020036101000a031916815260200191505b50965050505050505060405180910390f35b348015610dba57600080fd5b50610def600480360381019080803573ffffffffffffffffffffffffffffffffffffffff16906020019092919050505061231d565b005b348015610dfd57600080fd5b50610e0661241d565b6040518080602001828103825283818151815260200191508051906020019080838360005b83811015610e46578082015181840152602081019050610e2b565b50505050905090810190601f168015610e735780820380516001836020036101000a031916815260200191505b509250505060405180910390f35b348015610e8d57600080fd5b50610e96612456565b005b348015610ea457600080fd5b50610ead6124f9565b6040518080602001828103825283818151815260200191508051906020019080838360005b83811015610eed578082015181840152602081019050610ed2565b50505050905090810190601f168015610f1a5780820380516001836020036101000a031916815260200191505b509250505060405180910390f35b348015610f3457600080fd5b50610f75600480360381019080803573ffffffffffffffffffffffffffffffffffffffff16906020019092919080351515906020019092919050505061259b565b005b348015610f8357600080fd5b50610fa2600480360381019080803590602001909291905050506126d7565b6040518082815260200191505060405180910390f35b348015610fc457600080fd5b50611065600480360381019080803590602001908201803590602001908080601f0160208091040260200160405190810160405280939291908181526020018383808284378201915050505050509192919290803590602001908201803590602001908080601f01602080910402602001604051908101604052809392919081815260200183838082843782019150505050505091929192905050506126ef565b005b34801561107357600080fd5b50611118600480360381019080803573ffffffffffffffffffffffffffffffffffffffff169060200190929190803573ffffffffffffffffffffffffffffffffffffffff16906020019092919080359060200190929190803590602001908201803590602001908080601f01602080910402602001604051908101604052809392919081815260200183838082843782019150505050505091929192905050506128ec565b005b34801561112657600080fd5b506111456004803603810190808035906020019092919050505061292b565b604051808973ffffffffffffffffffffffffffffffffffffffff1673ffffffffffffffffffffffffffffffffffffffff1681526020018881526020018781526020018060200180602001806020018615151515815260200185151515158152602001848103845289818151815260200191508051906020019080838360005b838110156111df5780820151818401526020810190506111c4565b50505050905090810190601f16801561120c5780820380516001836020036101000a031916815260200191505b50848103835288818151815260200191508051906020019080838360005b8381101561124557808201518184015260208101905061122a565b50505050905090810190601f1680156112725780820380516001836020036101000a031916815260200191505b50848103825287818151815260200191508051906020019080838360005b838110156112ab578082015181840152602081019050611290565b50505050905090810190601f1680156112d85780820380516001836020036101000a031916815260200191505b509b50505050505050505050505060405180910390f35b3480156112fb57600080fd5b5061131a60048036038101908080359060200190929190505050612b84565b6040518080602001828103825283818151815260200191508051906020019080838360005b8381101561135a57808201518184015260208101905061133f565b50505050905090810190601f1680156113875780820380516001836020036101000a031916815260200191505b509250505060405180910390f35b3480156113a157600080fd5b506113c060048036038101908080359060200190929190505050612c4d565b6040518080602001828103825283818151815260200191508051906020019080838360005b838110156114005780820151818401526020810190506113e5565b50505050905090810190601f16801561142d5780820380516001836020036101000a031916815260200191505b509250505060405180910390f35b34801561144757600080fd5b5061146660048036038101908080359060200190929190505050612d0f565b6040518080602001828103825283818151815260200191508051906020019080838360005b838110156114a657808201518184015260208101905061148b565b50505050905090810190601f1680156114d35780820380516001836020036101000a031916815260200191505b509250505060405180910390f35b3480156114ed57600080fd5b50611542600480360381019080803573ffffffffffffffffffffffffffffffffffffffff169060200190929190803573ffffffffffffffffffffffffffffffffffffffff169060200190929190505050612dd1565b604051808215151515815260200191505060405180910390f35b600060026000837bffffffffffffffffffffffffffffffffffffffffffffffffffffffff19167bffffffffffffffffffffffffffffffffffffffffffffffffffffffff1916815260200190815260200160002060009054906101000a900460ff169050919050565b606060078054600181600116156101000203166002900480601f01602080910402602001604051908101604052809291908181526020018280546001816001161561010002031660029004801561165c5780601f106116315761010080835404028352916020019161165c565b820191906000526020600020905b81548152906001019060200180831161163f57829003601f168201915b5050505050905090565b60006004600083815260200190815260200160002060009054906101000a900473ffffffffffffffffffffffffffffffffffffffff169050919050565b60006116ae82612067565b90508073ffffffffffffffffffffffffffffffffffffffff168373ffffffffffffffffffffffffffffffffffffffff16141515156116eb57600080fd5b8073ffffffffffffffffffffffffffffffffffffffff163373ffffffffffffffffffffffffffffffffffffffff16148061172b575061172a8133612dd1565b5b151561173657600080fd5b826004600084815260200190815260200160002060006101000a81548173ffffffffffffffffffffffffffffffffffffffff021916908373ffffffffffffffffffffffffffffffffffffffff160217905550818373ffffffffffffffffffffffffffffffffffffffff168273ffffffffffffffffffffffffffffffffffffffff167f8c5be1e5ebec7d5bd14f71427d1e84f3dd0314c0f7b2291e5b200ac8c7c3b92560405160405180910390a4505050565b611865826000836040518082805190602001908083835b60208310151561182457805182526020820191506020810190506020830392506117ff565b6001836020036101000a0380198251168184511680821785525050505050509050019150509081526020016040518091039020612e6590919063ffffffff16565b5050565b600080600f805490509150339050600f610100604051908101604052808373ffffffffffffffffffffffffffffffffffffffff1681526020018981526020018481526020018881526020018781526020018681526020018515158152602001600015158152509080600181540180825580915050906001820390600052602060002090600702016000909192909190915060008201518160000160006101000a81548173ffffffffffffffffffffffffffffffffffffffff021916908373ffffffffffffffffffffffffffffffffffffffff16021790555060208201518160010155604082015181600201556060820151816003019080519060200190611971929190613851565b50608082015181600401908051906020019061198e929190613851565b5060a08201518160050190805190602001906119ab929190613851565b5060c08201518160060160006101000a81548160ff02191690831515021790555060e08201518160060160016101000a81548160ff0219169083151502179055505050506119f98183612e7e565b866012600084815260200190815260200160002081905550806011600084815260200190815260200160002060006101000a81548173ffffffffffffffffffffffffffffffffffffffff021916908373ffffffffffffffffffffffffffffffffffffffff160217905550601360008273ffffffffffffffffffffffffffffffffffffffff1673ffffffffffffffffffffffffffffffffffffffff168152602001908152602001600020600081548092919060010191905055507f75a81991482b891a1467e94da48f1d18706641bc35728876c780236d8a5226c28783876040518084815260200183815260200180602001828103825283818151815260200191508051906020019080838360005b83811015611b22578082015181840152602081019050611b07565b50505050905090810190601f168015611b4f5780820380516001836020036101000a031916815260200191505b5094505050505060405180910390a150505050505050565b6000600b80549050905090565b6040805190810160405280601181526020017f496e47616d6550726f53686f704974656d00000000000000000000000000000081525081565b6301ffc9a77c01000000000000000000000000000000000000000000000000000000000281565b60116020528060005260406000206000915054906101000a900473ffffffffffffffffffffffffffffffffffffffff1681565b6000611c86836000846040518082805190602001908083835b602083101515611c455780518252602082019150602081019050602083039250611c20565b6001836020036101000a0380198251168184511680821785525050505050509050019150509081526020016040518091039020612f5590919063ffffffff16565b905092915050565b80611c993382612fae565b1515611ca457600080fd5b600073ffffffffffffffffffffffffffffffffffffffff168473ffffffffffffffffffffffffffffffffffffffff1614151515611ce057600080fd5b600073ffffffffffffffffffffffffffffffffffffffff168373ffffffffffffffffffffffffffffffffffffffff1614151515611d1c57600080fd5b611d268483613043565b611d308483613146565b611d3a8383612e7e565b818373ffffffffffffffffffffffffffffffffffffffff168573ffffffffffffffffffffffffffffffffffffffff167fddf252ad1be2c89b69c2b068fc378daa952ba7f163c4a11628f55a4df523b3ef60405160405180910390a450505050565b6040805190810160405280600581526020017f494750534900000000000000000000000000000000000000000000000000000081525081565b60106020528060005260406000206000915054906101000a900473ffffffffffffffffffffffffffffffffffffffff1681565b6000611e128361210a565b82101515611e1f57600080fd5b600960008473ffffffffffffffffffffffffffffffffffffffff1673ffffffffffffffffffffffffffffffffffffffff16815260200190815260200160002082815481101515611e6b57fe5b9060005260206000200154905092915050565b611ebd336040805190810160405280601181526020017f726f6c652f73797374656d2d61646d696e0000000000000000000000000000008152506117e8565b600160009054906101000a900460ff161515611ed857600080fd5b6000600160006101000a81548160ff0219169083151502179055507f0e5e3b3fb504c22cf5c42fa07d521225937514c654007e1f12646f89768d6f9460405160405180910390a1565b80611f2c3382612fae565b1515611f3757600080fd5b611f5384848460206040519081016040528060008152506128ec565b50505050565b60136020528060005260406000206000915090505481565b6000806003600084815260200190815260200160002060009054906101000a900473ffffffffffffffffffffffffffffffffffffffff169050600073ffffffffffffffffffffffffffffffffffffffff168173ffffffffffffffffffffffffffffffffffffffff161415915050919050565b6000611fed611b67565b82101515611ffa57600080fd5b600b8281548110151561200957fe5b90600052602060002001549050919050565b6040805190810160405280601181526020017f726f6c652f73797374656d2d61646d696e00000000000000000000000000000081525081565b600160009054906101000a900460ff1681565b6000806003600084815260200190815260200160002060009054906101000a900473ffffffffffffffffffffffffffffffffffffffff169050600073ffffffffffffffffffffffffffffffffffffffff168173ffffffffffffffffffffffffffffffffffffffff16141515156120dc57600080fd5b80915050919050565b6001809054906101000a900473ffffffffffffffffffffffffffffffffffffffff1681565b60008073ffffffffffffffffffffffffffffffffffffffff168273ffffffffffffffffffffffffffffffffffffffff161415151561214757600080fd5b600560008373ffffffffffffffffffffffffffffffffffffffff1673ffffffffffffffffffffffffffffffffffffffff168152602001908152602001600020549050919050565b600e8181548110151561219d57fe5b90600052602060002090600402016000915090508060000160009054906101000a900473ffffffffffffffffffffffffffffffffffffffff1690806001015490806002018054600181600116156101000203166002900480601f0160208091040260200160405190810160405280929190818152602001828054600181600116156101000203166002900480156122755780601f1061224a57610100808354040283529160200191612275565b820191906000526020600020905b81548152906001019060200180831161225857829003601f168201915b505050505090806003018054600181600116156101000203166002900480601f0160208091040260200160405190810160405280929190818152602001828054600181600116156101000203166002900480156123135780601f106122e857610100808354040283529160200191612313565b820191906000526020600020905b8154815290600101906020018083116122f657829003601f168201915b5050505050905084565b61235c336040805190810160405280601181526020017f726f6c652f73797374656d2d61646d696e0000000000000000000000000000008152506117e8565b600160009054906101000a900460ff16151561237757600080fd5b806001806101000a81548173ffffffffffffffffffffffffffffffffffffffff021916908373ffffffffffffffffffffffffffffffffffffffff1602179055507f450db8da6efbe9c22f2347f7c2021231df1fc58d3ae9a2fa75d39fa44619930581604051808273ffffffffffffffffffffffffffffffffffffffff1673ffffffffffffffffffffffffffffffffffffffff16815260200191505060405180910390a150565b6040805190810160405280600f81526020017f726f6c652f73686f702d6f776e6572000000000000000000000000000000000081525081565b612495336040805190810160405280601181526020017f726f6c652f73797374656d2d61646d696e0000000000000000000000000000008152506117e8565b600160009054906101000a900460ff161515156124b157600080fd5b60018060006101000a81548160ff0219169083151502179055507fab35696f06e428ebc5ceba8cd17f8fed287baf43440206d1943af1ee53e6d26760405160405180910390a1565b606060088054600181600116156101000203166002900480601f0160208091040260200160405190810160405280929190818152602001828054600181600116156101000203166002900480156125915780601f1061256657610100808354040283529160200191612591565b820191906000526020600020905b81548152906001019060200180831161257457829003601f168201915b5050505050905090565b3373ffffffffffffffffffffffffffffffffffffffff168273ffffffffffffffffffffffffffffffffffffffff16141515156125d657600080fd5b80600660003373ffffffffffffffffffffffffffffffffffffffff1673ffffffffffffffffffffffffffffffffffffffff16815260200190815260200160002060008473ffffffffffffffffffffffffffffffffffffffff1673ffffffffffffffffffffffffffffffffffffffff16815260200190815260200160002060006101000a81548160ff0219169083151502179055508173ffffffffffffffffffffffffffffffffffffffff163373ffffffffffffffffffffffffffffffffffffffff167f17307eab39ab6107e8899845ad3d59bd9653f200f220920489ca2b5937696c3183604051808215151515815260200191505060405180910390a35050565b60126020528060005260406000206000915090505481565b600080600e805490509150339050600e6080604051908101604052808373ffffffffffffffffffffffffffffffffffffffff168152602001848152602001868152602001858152509080600181540180825580915050906001820390600052602060002090600402016000909192909190915060008201518160000160006101000a81548173ffffffffffffffffffffffffffffffffffffffff021916908373ffffffffffffffffffffffffffffffffffffffff1602179055506020820151816001015560408201518160020190805190602001906127cf929190613851565b5060608201518160030190805190602001906127ec929190613851565b50505050806010600084815260200190815260200160002060006101000a81548173ffffffffffffffffffffffffffffffffffffffff021916908373ffffffffffffffffffffffffffffffffffffffff1602179055507f48a97f219cc030f581c3d5440f34a51531af5bda2c5fbe345ac9c4a7d4a28bdb82856040518083815260200180602001828103825283818151815260200191508051906020019080838360005b838110156128ab578082015181840152602081019050612890565b50505050905090810190601f1680156128d85780820380516001836020036101000a031916815260200191505b50935050505060405180910390a150505050565b816128f73382612fae565b151561290257600080fd5b61290d858585611c8e565b6129198585858561335e565b151561292457600080fd5b5050505050565b600f8181548110151561293a57fe5b90600052602060002090600702016000915090508060000160009054906101000a900473ffffffffffffffffffffffffffffffffffffffff1690806001015490806002015490806003018054600181600116156101000203166002900480601f016020809104026020016040519081016040528092919081815260200182805460018160011615610100020316600290048015612a185780601f106129ed57610100808354040283529160200191612a18565b820191906000526020600020905b8154815290600101906020018083116129fb57829003601f168201915b505050505090806004018054600181600116156101000203166002900480601f016020809104026020016040519081016040528092919081815260200182805460018160011615610100020316600290048015612ab65780601f10612a8b57610100808354040283529160200191612ab6565b820191906000526020600020905b815481529060010190602001808311612a9957829003601f168201915b505050505090806005018054600181600116156101000203166002900480601f016020809104026020016040519081016040528092919081815260200182805460018160011615610100020316600290048015612b545780601f10612b2957610100808354040283529160200191612b54565b820191906000526020600020905b815481529060010190602001808311612b3757829003601f168201915b5050505050908060060160009054906101000a900460ff16908060060160019054906101000a900460ff16905088565b6060612b8f82611f71565b1515612b9a57600080fd5b600d60008381526020019081526020016000208054600181600116156101000203166002900480601f016020809104026020016040519081016040528092919081815260200182805460018160011615610100020316600290048015612c415780601f10612c1657610100808354040283529160200191612c41565b820191906000526020600020905b815481529060010190602001808311612c2457829003601f168201915b50505050509050919050565b6060600f82815481101515612c5e57fe5b90600052602060002090600702016004018054600181600116156101000203166002900480601f016020809104026020016040519081016040528092919081815260200182805460018160011615610100020316600290048015612d035780601f10612cd857610100808354040283529160200191612d03565b820191906000526020600020905b815481529060010190602001808311612ce657829003601f168201915b50505050509050919050565b6060600e82815481101515612d2057fe5b90600052602060002090600402016002018054600181600116156101000203166002900480601f016020809104026020016040519081016040528092919081815260200182805460018160011615610100020316600290048015612dc55780601f10612d9a57610100808354040283529160200191612dc5565b820191906000526020600020905b815481529060010190602001808311612da857829003601f168201915b50505050509050919050565b6000600660008473ffffffffffffffffffffffffffffffffffffffff1673ffffffffffffffffffffffffffffffffffffffff16815260200190815260200160002060008373ffffffffffffffffffffffffffffffffffffffff1673ffffffffffffffffffffffffffffffffffffffff16815260200190815260200160002060009054906101000a900460ff16905092915050565b612e6f8282612f55565b1515612e7a57600080fd5b5050565b6000612e8a8383613580565b600960008473ffffffffffffffffffffffffffffffffffffffff1673ffffffffffffffffffffffffffffffffffffffff168152602001908152602001600020805490509050600960008473ffffffffffffffffffffffffffffffffffffffff1673ffffffffffffffffffffffffffffffffffffffff16815260200190815260200160002082908060018154018082558091505090600182039060005260206000200160009091929091909150555080600a600084815260200190815260200160002081905550505050565b60008260000160008373ffffffffffffffffffffffffffffffffffffffff1673ffffffffffffffffffffffffffffffffffffffff16815260200190815260200160002060009054906101000a900460ff16905092915050565b600080612fba83612067565b90508073ffffffffffffffffffffffffffffffffffffffff168473ffffffffffffffffffffffffffffffffffffffff16148061302957508373ffffffffffffffffffffffffffffffffffffffff1661301184611666565b73ffffffffffffffffffffffffffffffffffffffff16145b8061303a57506130398185612dd1565b5b91505092915050565b8173ffffffffffffffffffffffffffffffffffffffff1661306382612067565b73ffffffffffffffffffffffffffffffffffffffff1614151561308557600080fd5b600073ffffffffffffffffffffffffffffffffffffffff166004600083815260200190815260200160002060009054906101000a900473ffffffffffffffffffffffffffffffffffffffff1673ffffffffffffffffffffffffffffffffffffffff161415156131425760006004600083815260200190815260200160002060006101000a81548173ffffffffffffffffffffffffffffffffffffffff021916908373ffffffffffffffffffffffffffffffffffffffff1602179055505b5050565b600080600061315585856136da565b600a60008581526020019081526020016000205492506131c16001600960008873ffffffffffffffffffffffffffffffffffffffff1673ffffffffffffffffffffffffffffffffffffffff1681526020019081526020016000208054905061380990919063ffffffff16565b9150600960008673ffffffffffffffffffffffffffffffffffffffff1673ffffffffffffffffffffffffffffffffffffffff1681526020019081526020016000208281548110151561320f57fe5b9060005260206000200154905080600960008773ffffffffffffffffffffffffffffffffffffffff1673ffffffffffffffffffffffffffffffffffffffff1681526020019081526020016000208481548110151561326957fe5b90600052602060002001819055506000600960008773ffffffffffffffffffffffffffffffffffffffff1673ffffffffffffffffffffffffffffffffffffffff168152602001908152602001600020838154811015156132c557fe5b9060005260206000200181905550600960008673ffffffffffffffffffffffffffffffffffffffff1673ffffffffffffffffffffffffffffffffffffffff16815260200190815260200160002080548091906001900361332591906138d1565b506000600a60008681526020019081526020016000208190555082600a6000838152602001908152602001600020819055505050505050565b6000806133808573ffffffffffffffffffffffffffffffffffffffff16613822565b151561338f5760019150613577565b8473ffffffffffffffffffffffffffffffffffffffff1663150b7a02338887876040518563ffffffff167c0100000000000000000000000000000000000000000000000000000000028152600401808573ffffffffffffffffffffffffffffffffffffffff1673ffffffffffffffffffffffffffffffffffffffff1681526020018473ffffffffffffffffffffffffffffffffffffffff1673ffffffffffffffffffffffffffffffffffffffff16815260200183815260200180602001828103825283818151815260200191508051906020019080838360005b83811015613484578082015181840152602081019050613469565b50505050905090810190601f1680156134b15780820380516001836020036101000a031916815260200191505b5095505050505050602060405180830381600087803b1580156134d357600080fd5b505af11580156134e7573d6000803e3d6000fd5b505050506040513d60208110156134fd57600080fd5b8101908080519060200190929190505050905063150b7a027c0100000000000000000000000000000000000000000000000000000000027bffffffffffffffffffffffffffffffffffffffffffffffffffffffff1916817bffffffffffffffffffffffffffffffffffffffffffffffffffffffff19161491505b50949350505050565b600073ffffffffffffffffffffffffffffffffffffffff166003600083815260200190815260200160002060009054906101000a900473ffffffffffffffffffffffffffffffffffffffff1673ffffffffffffffffffffffffffffffffffffffff161415156135ee57600080fd5b816003600083815260200190815260200160002060006101000a81548173ffffffffffffffffffffffffffffffffffffffff021916908373ffffffffffffffffffffffffffffffffffffffff1602179055506136936001600560008573ffffffffffffffffffffffffffffffffffffffff1673ffffffffffffffffffffffffffffffffffffffff1681526020019081526020016000205461383590919063ffffffff16565b600560008473ffffffffffffffffffffffffffffffffffffffff1673ffffffffffffffffffffffffffffffffffffffff168152602001908152602001600020819055505050565b8173ffffffffffffffffffffffffffffffffffffffff166136fa82612067565b73ffffffffffffffffffffffffffffffffffffffff1614151561371c57600080fd5b61376f6001600560008573ffffffffffffffffffffffffffffffffffffffff1673ffffffffffffffffffffffffffffffffffffffff1681526020019081526020016000205461380990919063ffffffff16565b600560008473ffffffffffffffffffffffffffffffffffffffff1673ffffffffffffffffffffffffffffffffffffffff1681526020019081526020016000208190555060006003600083815260200190815260200160002060006101000a81548173ffffffffffffffffffffffffffffffffffffffff021916908373ffffffffffffffffffffffffffffffffffffffff1602179055505050565b600082821115151561381757fe5b818303905092915050565b600080823b905060008111915050919050565b6000818301905082811015151561384857fe5b80905092915050565b828054600181600116156101000203166002900490600052602060002090601f016020900481019282601f1061389257805160ff19168380011785556138c0565b828001600101855582156138c0579182015b828111156138bf5782518255916020019190600101906138a4565b5b5090506138cd91906138fd565b5090565b8154818355818111156138f8578183600052602060002091820191016138f791906138fd565b5b505050565b61391f91905b8082111561391b576000816000905550600101613903565b5090565b90565b60018260000160008373ffffffffffffffffffffffffffffffffffffffff1673ffffffffffffffffffffffffffffffffffffffff16815260200190815260200160002060006101000a81548160ff02191690831515021790555050505600a165627a7a723058207d020a0cfb84b45d5694332e950b42af91a8cbb0591c0cfe8b1a013ad6816fae0029",
  "source": "pragma solidity ^0.4.24;\n\nimport \"./ItemFactory.sol\";\n\n\n/**\n * Functionality related to maintaining shops\n */\ncontract ShopFactory is ItemFactory {\n\n    /**\n     * @dev emitted upon creation of a shop\n     */\n    event NewShop(uint shopId, string name);\n\n    /**\n     * @notice Create a Shop\n     */\n    function createShop(string _name, string _desc) public {\n        uint shopId = shops.length;\n        address owner = msg.sender;\n        shops.push(Shop(owner, shopId, _name, _desc));\n        shopToOwner[shopId] = owner;\n        emit NewShop(shopId, _name);\n    }\n\n    /**\n     * Get the Shop name associated with a given Shop id\n     */\n    function getShopName(uint _shopId) public view returns (string) {\n        return shops[_shopId].name;\n    }\n}",
  "sourcePath": "/Users/cliff/Documents/in-game-pro-shop/contracts/ShopFactory.sol",
  "compiler": {
    "name": "solc",
    "version": "0.4.24+commit.e67f0147.Emscripten.clang"
  },
  "schemaVersion": "2.0.1",
  "updatedAt": "2018-08-06T23:17:13.425Z"
}