{
  "contractName": "ShopFactory",
  "abi": [
    {
      "constant": true,
      "inputs": [
        {
          "name": "_interfaceId",
          "type": "bytes4"
        }
      ],
      "name": "supportsInterface",
      "outputs": [
        {
          "name": "",
          "type": "bool"
        }
      ],
      "payable": false,
      "stateMutability": "view",
      "type": "function"
    },
    {
      "constant": true,
      "inputs": [],
      "name": "name",
      "outputs": [
        {
          "name": "",
          "type": "string"
        }
      ],
      "payable": false,
      "stateMutability": "view",
      "type": "function"
    },
    {
      "constant": true,
      "inputs": [
        {
          "name": "_tokenId",
          "type": "uint256"
        }
      ],
      "name": "getApproved",
      "outputs": [
        {
          "name": "",
          "type": "address"
        }
      ],
      "payable": false,
      "stateMutability": "view",
      "type": "function"
    },
    {
      "constant": false,
      "inputs": [
        {
          "name": "_to",
          "type": "address"
        },
        {
          "name": "_tokenId",
          "type": "uint256"
        }
      ],
      "name": "approve",
      "outputs": [],
      "payable": false,
      "stateMutability": "nonpayable",
      "type": "function"
    },
    {
      "constant": true,
      "inputs": [
        {
          "name": "_operator",
          "type": "address"
        },
        {
          "name": "_role",
          "type": "string"
        }
      ],
      "name": "checkRole",
      "outputs": [],
      "payable": false,
      "stateMutability": "view",
      "type": "function"
    },
    {
      "constant": true,
      "inputs": [],
      "name": "totalSupply",
      "outputs": [
        {
          "name": "",
          "type": "uint256"
        }
      ],
      "payable": false,
      "stateMutability": "view",
      "type": "function"
    },
    {
      "constant": true,
      "inputs": [],
      "name": "TOKEN_NAME",
      "outputs": [
        {
          "name": "",
          "type": "string"
        }
      ],
      "payable": false,
      "stateMutability": "view",
      "type": "function"
    },
    {
      "constant": true,
      "inputs": [],
      "name": "InterfaceId_ERC165",
      "outputs": [
        {
          "name": "",
          "type": "bytes4"
        }
      ],
      "payable": false,
      "stateMutability": "view",
      "type": "function"
    },
    {
      "constant": true,
      "inputs": [
        {
          "name": "",
          "type": "uint256"
        }
      ],
      "name": "itemToOwner",
      "outputs": [
        {
          "name": "",
          "type": "address"
        }
      ],
      "payable": false,
      "stateMutability": "view",
      "type": "function"
    },
    {
      "constant": true,
      "inputs": [
        {
          "name": "_operator",
          "type": "address"
        },
        {
          "name": "_role",
          "type": "string"
        }
      ],
      "name": "hasRole",
      "outputs": [
        {
          "name": "",
          "type": "bool"
        }
      ],
      "payable": false,
      "stateMutability": "view",
      "type": "function"
    },
    {
      "constant": false,
      "inputs": [
        {
          "name": "_from",
          "type": "address"
        },
        {
          "name": "_to",
          "type": "address"
        },
        {
          "name": "_tokenId",
          "type": "uint256"
        }
      ],
      "name": "transferFrom",
      "outputs": [],
      "payable": false,
      "stateMutability": "nonpayable",
      "type": "function"
    },
    {
      "constant": true,
      "inputs": [],
      "name": "TOKEN_SYMBOL",
      "outputs": [
        {
          "name": "",
          "type": "string"
        }
      ],
      "payable": false,
      "stateMutability": "view",
      "type": "function"
    },
    {
      "constant": true,
      "inputs": [
        {
          "name": "",
          "type": "uint256"
        }
      ],
      "name": "shopToOwner",
      "outputs": [
        {
          "name": "",
          "type": "address"
        }
      ],
      "payable": false,
      "stateMutability": "view",
      "type": "function"
    },
    {
      "constant": true,
      "inputs": [
        {
          "name": "_owner",
          "type": "address"
        },
        {
          "name": "_index",
          "type": "uint256"
        }
      ],
      "name": "tokenOfOwnerByIndex",
      "outputs": [
        {
          "name": "",
          "type": "uint256"
        }
      ],
      "payable": false,
      "stateMutability": "view",
      "type": "function"
    },
    {
      "constant": false,
      "inputs": [],
      "name": "unpause",
      "outputs": [],
      "payable": false,
      "stateMutability": "nonpayable",
      "type": "function"
    },
    {
      "constant": false,
      "inputs": [
        {
          "name": "_from",
          "type": "address"
        },
        {
          "name": "_to",
          "type": "address"
        },
        {
          "name": "_tokenId",
          "type": "uint256"
        }
      ],
      "name": "safeTransferFrom",
      "outputs": [],
      "payable": false,
      "stateMutability": "nonpayable",
      "type": "function"
    },
    {
      "constant": true,
      "inputs": [
        {
          "name": "",
          "type": "address"
        }
      ],
      "name": "ownerItemCount",
      "outputs": [
        {
          "name": "",
          "type": "uint256"
        }
      ],
      "payable": false,
      "stateMutability": "view",
      "type": "function"
    },
    {
      "constant": true,
      "inputs": [
        {
          "name": "_tokenId",
          "type": "uint256"
        }
      ],
      "name": "exists",
      "outputs": [
        {
          "name": "",
          "type": "bool"
        }
      ],
      "payable": false,
      "stateMutability": "view",
      "type": "function"
    },
    {
      "constant": true,
      "inputs": [
        {
          "name": "_index",
          "type": "uint256"
        }
      ],
      "name": "tokenByIndex",
      "outputs": [
        {
          "name": "",
          "type": "uint256"
        }
      ],
      "payable": false,
      "stateMutability": "view",
      "type": "function"
    },
    {
      "constant": true,
      "inputs": [],
      "name": "ROLE_SYS_ADMIN",
      "outputs": [
        {
          "name": "",
          "type": "string"
        }
      ],
      "payable": false,
      "stateMutability": "view",
      "type": "function"
    },
    {
      "constant": true,
      "inputs": [],
      "name": "paused",
      "outputs": [
        {
          "name": "",
          "type": "bool"
        }
      ],
      "payable": false,
      "stateMutability": "view",
      "type": "function"
    },
    {
      "constant": true,
      "inputs": [
        {
          "name": "_tokenId",
          "type": "uint256"
        }
      ],
      "name": "ownerOf",
      "outputs": [
        {
          "name": "",
          "type": "address"
        }
      ],
      "payable": false,
      "stateMutability": "view",
      "type": "function"
    },
    {
      "constant": true,
      "inputs": [],
      "name": "newContractAddress",
      "outputs": [
        {
          "name": "",
          "type": "address"
        }
      ],
      "payable": false,
      "stateMutability": "view",
      "type": "function"
    },
    {
      "constant": true,
      "inputs": [
        {
          "name": "_owner",
          "type": "address"
        }
      ],
      "name": "balanceOf",
      "outputs": [
        {
          "name": "",
          "type": "uint256"
        }
      ],
      "payable": false,
      "stateMutability": "view",
      "type": "function"
    },
    {
      "constant": true,
      "inputs": [
        {
          "name": "",
          "type": "uint256"
        }
      ],
      "name": "shops",
      "outputs": [
        {
          "name": "owner",
          "type": "address"
        },
        {
          "name": "shopId",
          "type": "uint256"
        },
        {
          "name": "name",
          "type": "string"
        },
        {
          "name": "description",
          "type": "string"
        }
      ],
      "payable": false,
      "stateMutability": "view",
      "type": "function"
    },
    {
      "constant": false,
      "inputs": [
        {
          "name": "_newAddress",
          "type": "address"
        }
      ],
      "name": "setNewAddress",
      "outputs": [],
      "payable": false,
      "stateMutability": "nonpayable",
      "type": "function"
    },
    {
      "constant": true,
      "inputs": [],
      "name": "ROLE_SHOP_OWNER",
      "outputs": [
        {
          "name": "",
          "type": "string"
        }
      ],
      "payable": false,
      "stateMutability": "view",
      "type": "function"
    },
    {
      "constant": false,
      "inputs": [],
      "name": "pause",
      "outputs": [],
      "payable": false,
      "stateMutability": "nonpayable",
      "type": "function"
    },
    {
      "constant": true,
      "inputs": [],
      "name": "symbol",
      "outputs": [
        {
          "name": "",
          "type": "string"
        }
      ],
      "payable": false,
      "stateMutability": "view",
      "type": "function"
    },
    {
      "constant": false,
      "inputs": [
        {
          "name": "_to",
          "type": "address"
        },
        {
          "name": "_approved",
          "type": "bool"
        }
      ],
      "name": "setApprovalForAll",
      "outputs": [],
      "payable": false,
      "stateMutability": "nonpayable",
      "type": "function"
    },
    {
      "constant": false,
      "inputs": [
        {
          "name": "_owner",
          "type": "address"
        },
        {
          "name": "_shopId",
          "type": "uint256"
        },
        {
          "name": "_itemType",
          "type": "string"
        },
        {
          "name": "_name",
          "type": "string"
        },
        {
          "name": "_desc",
          "type": "string"
        },
        {
          "name": "_consumable",
          "type": "bool"
        }
      ],
      "name": "createItem",
      "outputs": [],
      "payable": false,
      "stateMutability": "nonpayable",
      "type": "function"
    },
    {
      "constant": false,
      "inputs": [
        {
          "name": "_from",
          "type": "address"
        },
        {
          "name": "_to",
          "type": "address"
        },
        {
          "name": "_tokenId",
          "type": "uint256"
        },
        {
          "name": "_data",
          "type": "bytes"
        }
      ],
      "name": "safeTransferFrom",
      "outputs": [],
      "payable": false,
      "stateMutability": "nonpayable",
      "type": "function"
    },
    {
      "constant": true,
      "inputs": [
        {
          "name": "",
          "type": "uint256"
        }
      ],
      "name": "items",
      "outputs": [
        {
          "name": "owner",
          "type": "address"
        },
        {
          "name": "shopId",
          "type": "uint256"
        },
        {
          "name": "itemId",
          "type": "uint256"
        },
        {
          "name": "itemType",
          "type": "string"
        },
        {
          "name": "name",
          "type": "string"
        },
        {
          "name": "description",
          "type": "string"
        },
        {
          "name": "consumable",
          "type": "bool"
        },
        {
          "name": "consumed",
          "type": "bool"
        }
      ],
      "payable": false,
      "stateMutability": "view",
      "type": "function"
    },
    {
      "constant": true,
      "inputs": [
        {
          "name": "_tokenId",
          "type": "uint256"
        }
      ],
      "name": "tokenURI",
      "outputs": [
        {
          "name": "",
          "type": "string"
        }
      ],
      "payable": false,
      "stateMutability": "view",
      "type": "function"
    },
    {
      "constant": true,
      "inputs": [
        {
          "name": "_itemId",
          "type": "uint256"
        }
      ],
      "name": "getItemName",
      "outputs": [
        {
          "name": "",
          "type": "string"
        }
      ],
      "payable": false,
      "stateMutability": "view",
      "type": "function"
    },
    {
      "constant": true,
      "inputs": [
        {
          "name": "_owner",
          "type": "address"
        },
        {
          "name": "_operator",
          "type": "address"
        }
      ],
      "name": "isApprovedForAll",
      "outputs": [
        {
          "name": "",
          "type": "bool"
        }
      ],
      "payable": false,
      "stateMutability": "view",
      "type": "function"
    },
    {
      "anonymous": false,
      "inputs": [
        {
          "indexed": false,
          "name": "shopId",
          "type": "uint256"
        },
        {
          "indexed": false,
          "name": "name",
          "type": "string"
        }
      ],
      "name": "NewShop",
      "type": "event"
    },
    {
      "anonymous": false,
      "inputs": [
        {
          "indexed": false,
          "name": "shopId",
          "type": "uint256"
        },
        {
          "indexed": false,
          "name": "itemId",
          "type": "uint256"
        },
        {
          "indexed": false,
          "name": "name",
          "type": "string"
        }
      ],
      "name": "NewItem",
      "type": "event"
    },
    {
      "anonymous": false,
      "inputs": [
        {
          "indexed": true,
          "name": "_from",
          "type": "address"
        },
        {
          "indexed": true,
          "name": "_to",
          "type": "address"
        },
        {
          "indexed": true,
          "name": "_tokenId",
          "type": "uint256"
        }
      ],
      "name": "Transfer",
      "type": "event"
    },
    {
      "anonymous": false,
      "inputs": [
        {
          "indexed": true,
          "name": "_owner",
          "type": "address"
        },
        {
          "indexed": true,
          "name": "_approved",
          "type": "address"
        },
        {
          "indexed": true,
          "name": "_tokenId",
          "type": "uint256"
        }
      ],
      "name": "Approval",
      "type": "event"
    },
    {
      "anonymous": false,
      "inputs": [
        {
          "indexed": true,
          "name": "_owner",
          "type": "address"
        },
        {
          "indexed": true,
          "name": "_operator",
          "type": "address"
        },
        {
          "indexed": false,
          "name": "_approved",
          "type": "bool"
        }
      ],
      "name": "ApprovalForAll",
      "type": "event"
    },
    {
      "anonymous": false,
      "inputs": [
        {
          "indexed": false,
          "name": "newContract",
          "type": "address"
        }
      ],
      "name": "ContractUpgrade",
      "type": "event"
    },
    {
      "anonymous": false,
      "inputs": [],
      "name": "ContractPaused",
      "type": "event"
    },
    {
      "anonymous": false,
      "inputs": [],
      "name": "ContractUnpaused",
      "type": "event"
    },
    {
      "anonymous": false,
      "inputs": [
        {
          "indexed": true,
          "name": "operator",
          "type": "address"
        },
        {
          "indexed": false,
          "name": "role",
          "type": "string"
        }
      ],
      "name": "RoleAdded",
      "type": "event"
    },
    {
      "anonymous": false,
      "inputs": [
        {
          "indexed": true,
          "name": "operator",
          "type": "address"
        },
        {
          "indexed": false,
          "name": "role",
          "type": "string"
        }
      ],
      "name": "RoleRemoved",
      "type": "event"
    },
    {
      "constant": false,
      "inputs": [
        {
          "name": "_owner",
          "type": "address"
        },
        {
          "name": "_name",
          "type": "string"
        },
        {
          "name": "_desc",
          "type": "string"
        }
      ],
      "name": "createShop",
      "outputs": [],
      "payable": false,
      "stateMutability": "nonpayable",
      "type": "function"
    },
    {
      "constant": true,
      "inputs": [
        {
          "name": "_shopId",
          "type": "uint256"
        }
      ],
      "name": "getShopName",
      "outputs": [
        {
          "name": "",
          "type": "string"
        }
      ],
      "payable": false,
      "stateMutability": "view",
      "type": "function"
    }
  ],
  "bytecode": "0x60806040526000600160006101000a81548160ff0219169083151502179055506040805190810160405280601181526020017f496e47616d6550726f53686f704974656d0000000000000000000000000000008152506040805190810160405280600581526020017f494750534900000000000000000000000000000000000000000000000000000081525060018060006101000a81548160ff021916908315150217905550620000f5336040805190810160405280601181526020017f726f6c652f73797374656d2d61646d696e00000000000000000000000000000081525062000260640100000000026401000000009004565b620001326301ffc9a77c010000000000000000000000000000000000000000000000000000000002620003a9640100000000026401000000009004565b6200016f6380ac58cd7c010000000000000000000000000000000000000000000000000000000002620003a9640100000000026401000000009004565b620001ac634f558e797c010000000000000000000000000000000000000000000000000000000002620003a9640100000000026401000000009004565b8160079080519060200190620001c4929190620004c6565b508060089080519060200190620001dd929190620004c6565b506200021b63780e9d637c010000000000000000000000000000000000000000000000000000000002620003a9640100000000026401000000009004565b62000258635b5e139f7c010000000000000000000000000000000000000000000000000000000002620003a9640100000000026401000000009004565b505062000575565b620002ef826000836040518082805190602001908083835b6020831015156200029f578051825260208201915060208101905060208303925062000278565b6001836020036101000a0380198251168184511680821785525050505050509050019150509081526020016040518091039020620004686401000000000262003954179091906401000000009004565b8173ffffffffffffffffffffffffffffffffffffffff167fbfec83d64eaa953f2708271a023ab9ee82057f8f3578d548c1a4ba0b5b700489826040518080602001828103825283818151815260200191508051906020019080838360005b838110156200036a5780820151818401526020810190506200034d565b50505050905090810190601f168015620003985780820380516001836020036101000a031916815260200191505b509250505060405180910390a25050565b63ffffffff7c010000000000000000000000000000000000000000000000000000000002817bffffffffffffffffffffffffffffffffffffffffffffffffffffffff191614151515620003fb57600080fd5b600160026000837bffffffffffffffffffffffffffffffffffffffffffffffffffffffff19167bffffffffffffffffffffffffffffffffffffffffffffffffffffffff1916815260200190815260200160002060006101000a81548160ff02191690831515021790555050565b60018260000160008373ffffffffffffffffffffffffffffffffffffffff1673ffffffffffffffffffffffffffffffffffffffff16815260200190815260200160002060006101000a81548160ff0219169083151502179055505050565b828054600181600116156101000203166002900490600052602060002090601f016020900481019282601f106200050957805160ff19168380011785556200053a565b828001600101855582156200053a579182015b82811115620005395782518255916020019190600101906200051c565b5b5090506200054991906200054d565b5090565b6200057291905b808211156200056e57600081600090555060010162000554565b5090565b90565b6139de80620005856000396000f3006080604052600436106101d8576000357c0100000000000000000000000000000000000000000000000000000000900463ffffffff16806301ffc9a7146101dd57806306fdde0314610241578063081812fc146102d1578063095ea7b31461033e5780630988ca8c1461038b57806318160ddd14610414578063188214001461043f57806319fa8f50146104cf5780631a4d96cd14610538578063217fe6c6146105a557806323b872dd146106465780632a905318146106b35780632cf0d92a146107435780632f745c59146107b05780633f4ba83a1461081157806342842e0e146108285780634c798473146108955780634f558e79146108ec5780634f6ccce71461093157806356de8ccd146109725780635c975abb14610a025780636352211e14610a315780636af04a5714610a9e57806370a0823114610af5578063713aca7414610b4c5780637158798814610c985780637e1ae97614610cdb5780638456cb5914610d6b57806395d89b4114610d82578063a22cb46514610e12578063a300c0ea14610e61578063a54c275014610f8c578063b88d4fde1461105b578063bfb231d21461110e578063c87b56dd146112e3578063d9561a9114611389578063dde0e9321461142f578063e985e9c5146114d5575b600080fd5b3480156101e957600080fd5b5061022760048036038101908080357bffffffffffffffffffffffffffffffffffffffffffffffffffffffff19169060200190929190505050611550565b604051808215151515815260200191505060405180910390f35b34801561024d57600080fd5b506102566115b8565b6040518080602001828103825283818151815260200191508051906020019080838360005b8381101561029657808201518184015260208101905061027b565b50505050905090810190601f1680156102c35780820380516001836020036101000a031916815260200191505b509250505060405180910390f35b3480156102dd57600080fd5b506102fc6004803603810190808035906020019092919050505061165a565b604051808273ffffffffffffffffffffffffffffffffffffffff1673ffffffffffffffffffffffffffffffffffffffff16815260200191505060405180910390f35b34801561034a57600080fd5b50610389600480360381019080803573ffffffffffffffffffffffffffffffffffffffff16906020019092919080359060200190929190505050611697565b005b34801561039757600080fd5b50610412600480360381019080803573ffffffffffffffffffffffffffffffffffffffff169060200190929190803590602001908201803590602001908080601f01602080910402602001604051908101604052809392919081815260200183838082843782019150505050505091929192905050506117dc565b005b34801561042057600080fd5b5061042961185d565b6040518082815260200191505060405180910390f35b34801561044b57600080fd5b5061045461186a565b6040518080602001828103825283818151815260200191508051906020019080838360005b83811015610494578082015181840152602081019050610479565b50505050905090810190601f1680156104c15780820380516001836020036101000a031916815260200191505b509250505060405180910390f35b3480156104db57600080fd5b506104e46118a3565b60405180827bffffffffffffffffffffffffffffffffffffffffffffffffffffffff19167bffffffffffffffffffffffffffffffffffffffffffffffffffffffff1916815260200191505060405180910390f35b34801561054457600080fd5b50610563600480360381019080803590602001909291905050506118ca565b604051808273ffffffffffffffffffffffffffffffffffffffff1673ffffffffffffffffffffffffffffffffffffffff16815260200191505060405180910390f35b3480156105b157600080fd5b5061062c600480360381019080803573ffffffffffffffffffffffffffffffffffffffff169060200190929190803590602001908201803590602001908080601f01602080910402602001604051908101604052809392919081815260200183838082843782019150505050505091929192905050506118fd565b604051808215151515815260200191505060405180910390f35b34801561065257600080fd5b506106b1600480360381019080803573ffffffffffffffffffffffffffffffffffffffff169060200190929190803573ffffffffffffffffffffffffffffffffffffffff16906020019092919080359060200190929190505050611984565b005b3480156106bf57600080fd5b506106c8611a91565b6040518080602001828103825283818151815260200191508051906020019080838360005b838110156107085780820151818401526020810190506106ed565b50505050905090810190601f1680156107355780820380516001836020036101000a031916815260200191505b509250505060405180910390f35b34801561074f57600080fd5b5061076e60048036038101908080359060200190929190505050611aca565b604051808273ffffffffffffffffffffffffffffffffffffffff1673ffffffffffffffffffffffffffffffffffffffff16815260200191505060405180910390f35b3480156107bc57600080fd5b506107fb600480360381019080803573ffffffffffffffffffffffffffffffffffffffff16906020019092919080359060200190929190505050611afd565b6040518082815260200191505060405180910390f35b34801561081d57600080fd5b50610826611b74565b005b34801561083457600080fd5b50610893600480360381019080803573ffffffffffffffffffffffffffffffffffffffff169060200190929190803573ffffffffffffffffffffffffffffffffffffffff16906020019092919080359060200190929190505050611c17565b005b3480156108a157600080fd5b506108d6600480360381019080803573ffffffffffffffffffffffffffffffffffffffff169060200190929190505050611c4f565b6040518082815260200191505060405180910390f35b3480156108f857600080fd5b5061091760048036038101908080359060200190929190505050611c67565b604051808215151515815260200191505060405180910390f35b34801561093d57600080fd5b5061095c60048036038101908080359060200190929190505050611cd9565b6040518082815260200191505060405180910390f35b34801561097e57600080fd5b50610987611d11565b6040518080602001828103825283818151815260200191508051906020019080838360005b838110156109c75780820151818401526020810190506109ac565b50505050905090810190601f1680156109f45780820380516001836020036101000a031916815260200191505b509250505060405180910390f35b348015610a0e57600080fd5b50610a17611d4a565b604051808215151515815260200191505060405180910390f35b348015610a3d57600080fd5b50610a5c60048036038101908080359060200190929190505050611d5d565b604051808273ffffffffffffffffffffffffffffffffffffffff1673ffffffffffffffffffffffffffffffffffffffff16815260200191505060405180910390f35b348015610aaa57600080fd5b50610ab3611ddb565b604051808273ffffffffffffffffffffffffffffffffffffffff1673ffffffffffffffffffffffffffffffffffffffff16815260200191505060405180910390f35b348015610b0157600080fd5b50610b36600480360381019080803573ffffffffffffffffffffffffffffffffffffffff169060200190929190505050611e00565b6040518082815260200191505060405180910390f35b348015610b5857600080fd5b50610b7760048036038101908080359060200190929190505050611e84565b604051808573ffffffffffffffffffffffffffffffffffffffff1673ffffffffffffffffffffffffffffffffffffffff1681526020018481526020018060200180602001838103835285818151815260200191508051906020019080838360005b83811015610bf3578082015181840152602081019050610bd8565b50505050905090810190601f168015610c205780820380516001836020036101000a031916815260200191505b50838103825284818151815260200191508051906020019080838360005b83811015610c59578082015181840152602081019050610c3e565b50505050905090810190601f168015610c865780820380516001836020036101000a031916815260200191505b50965050505050505060405180910390f35b348015610ca457600080fd5b50610cd9600480360381019080803573ffffffffffffffffffffffffffffffffffffffff169060200190929190505050612013565b005b348015610ce757600080fd5b50610cf0612113565b6040518080602001828103825283818151815260200191508051906020019080838360005b83811015610d30578082015181840152602081019050610d15565b50505050905090810190601f168015610d5d5780820380516001836020036101000a031916815260200191505b509250505060405180910390f35b348015610d7757600080fd5b50610d8061214c565b005b348015610d8e57600080fd5b50610d976121ef565b6040518080602001828103825283818151815260200191508051906020019080838360005b83811015610dd7578082015181840152602081019050610dbc565b50505050905090810190601f168015610e045780820380516001836020036101000a031916815260200191505b509250505060405180910390f35b348015610e1e57600080fd5b50610e5f600480360381019080803573ffffffffffffffffffffffffffffffffffffffff169060200190929190803515159060200190929190505050612291565b005b348015610e6d57600080fd5b50610f8a600480360381019080803573ffffffffffffffffffffffffffffffffffffffff16906020019092919080359060200190929190803590602001908201803590602001908080601f0160208091040260200160405190810160405280939291908181526020018383808284378201915050505050509192919290803590602001908201803590602001908080601f0160208091040260200160405190810160405280939291908181526020018383808284378201915050505050509192919290803590602001908201803590602001908080601f01602080910402602001604051908101604052809392919081815260200183838082843782019150505050505091929192908035151590602001909291905050506123cd565b005b348015610f9857600080fd5b50611059600480360381019080803573ffffffffffffffffffffffffffffffffffffffff169060200190929190803590602001908201803590602001908080601f0160208091040260200160405190810160405280939291908181526020018383808284378201915050505050509192919290803590602001908201803590602001908080601f01602080910402602001604051908101604052809392919081815260200183838082843782019150505050505091929192905050506126bb565b005b34801561106757600080fd5b5061110c600480360381019080803573ffffffffffffffffffffffffffffffffffffffff169060200190929190803573ffffffffffffffffffffffffffffffffffffffff16906020019092919080359060200190929190803590602001908201803590602001908080601f01602080910402602001604051908101604052809392919081815260200183838082843782019150505050505091929192905050506128be565b005b34801561111a57600080fd5b50611139600480360381019080803590602001909291905050506128fd565b604051808973ffffffffffffffffffffffffffffffffffffffff1673ffffffffffffffffffffffffffffffffffffffff1681526020018881526020018781526020018060200180602001806020018615151515815260200185151515158152602001848103845289818151815260200191508051906020019080838360005b838110156111d35780820151818401526020810190506111b8565b50505050905090810190601f1680156112005780820380516001836020036101000a031916815260200191505b50848103835288818151815260200191508051906020019080838360005b8381101561123957808201518184015260208101905061121e565b50505050905090810190601f1680156112665780820380516001836020036101000a031916815260200191505b50848103825287818151815260200191508051906020019080838360005b8381101561129f578082015181840152602081019050611284565b50505050905090810190601f1680156112cc5780820380516001836020036101000a031916815260200191505b509b50505050505050505050505060405180910390f35b3480156112ef57600080fd5b5061130e60048036038101908080359060200190929190505050612b56565b6040518080602001828103825283818151815260200191508051906020019080838360005b8381101561134e578082015181840152602081019050611333565b50505050905090810190601f16801561137b5780820380516001836020036101000a031916815260200191505b509250505060405180910390f35b34801561139557600080fd5b506113b460048036038101908080359060200190929190505050612c1f565b6040518080602001828103825283818151815260200191508051906020019080838360005b838110156113f45780820151818401526020810190506113d9565b50505050905090810190601f1680156114215780820380516001836020036101000a031916815260200191505b509250505060405180910390f35b34801561143b57600080fd5b5061145a60048036038101908080359060200190929190505050612ce1565b6040518080602001828103825283818151815260200191508051906020019080838360005b8381101561149a57808201518184015260208101905061147f565b50505050905090810190601f1680156114c75780820380516001836020036101000a031916815260200191505b509250505060405180910390f35b3480156114e157600080fd5b50611536600480360381019080803573ffffffffffffffffffffffffffffffffffffffff169060200190929190803573ffffffffffffffffffffffffffffffffffffffff169060200190929190505050612da3565b604051808215151515815260200191505060405180910390f35b600060026000837bffffffffffffffffffffffffffffffffffffffffffffffffffffffff19167bffffffffffffffffffffffffffffffffffffffffffffffffffffffff1916815260200190815260200160002060009054906101000a900460ff169050919050565b606060078054600181600116156101000203166002900480601f0160208091040260200160405190810160405280929190818152602001828054600181600116156101000203166002900480156116505780601f1061162557610100808354040283529160200191611650565b820191906000526020600020905b81548152906001019060200180831161163357829003601f168201915b5050505050905090565b60006004600083815260200190815260200160002060009054906101000a900473ffffffffffffffffffffffffffffffffffffffff169050919050565b60006116a282611d5d565b90508073ffffffffffffffffffffffffffffffffffffffff168373ffffffffffffffffffffffffffffffffffffffff16141515156116df57600080fd5b8073ffffffffffffffffffffffffffffffffffffffff163373ffffffffffffffffffffffffffffffffffffffff16148061171f575061171e8133612da3565b5b151561172a57600080fd5b826004600084815260200190815260200160002060006101000a81548173ffffffffffffffffffffffffffffffffffffffff021916908373ffffffffffffffffffffffffffffffffffffffff160217905550818373ffffffffffffffffffffffffffffffffffffffff168273ffffffffffffffffffffffffffffffffffffffff167f8c5be1e5ebec7d5bd14f71427d1e84f3dd0314c0f7b2291e5b200ac8c7c3b92560405160405180910390a4505050565b611859826000836040518082805190602001908083835b60208310151561181857805182526020820191506020810190506020830392506117f3565b6001836020036101000a0380198251168184511680821785525050505050509050019150509081526020016040518091039020612e3790919063ffffffff16565b5050565b6000600b80549050905090565b6040805190810160405280601181526020017f496e47616d6550726f53686f704974656d00000000000000000000000000000081525081565b6301ffc9a77c01000000000000000000000000000000000000000000000000000000000281565b600f6020528060005260406000206000915054906101000a900473ffffffffffffffffffffffffffffffffffffffff1681565b600061197c836000846040518082805190602001908083835b60208310151561193b5780518252602082019150602081019050602083039250611916565b6001836020036101000a0380198251168184511680821785525050505050509050019150509081526020016040518091039020612e5090919063ffffffff16565b905092915050565b8061198f3382612ea9565b151561199a57600080fd5b600073ffffffffffffffffffffffffffffffffffffffff168473ffffffffffffffffffffffffffffffffffffffff16141515156119d657600080fd5b600073ffffffffffffffffffffffffffffffffffffffff168373ffffffffffffffffffffffffffffffffffffffff1614151515611a1257600080fd5b611a1c8483612f3e565b611a268483613041565b611a308383613259565b818373ffffffffffffffffffffffffffffffffffffffff168573ffffffffffffffffffffffffffffffffffffffff167fddf252ad1be2c89b69c2b068fc378daa952ba7f163c4a11628f55a4df523b3ef60405160405180910390a450505050565b6040805190810160405280600581526020017f494750534900000000000000000000000000000000000000000000000000000081525081565b60126020528060005260406000206000915054906101000a900473ffffffffffffffffffffffffffffffffffffffff1681565b6000611b0883611e00565b82101515611b1557600080fd5b600960008473ffffffffffffffffffffffffffffffffffffffff1673ffffffffffffffffffffffffffffffffffffffff16815260200190815260200160002082815481101515611b6157fe5b9060005260206000200154905092915050565b611bb3336040805190810160405280601181526020017f726f6c652f73797374656d2d61646d696e0000000000000000000000000000008152506117dc565b600160009054906101000a900460ff161515611bce57600080fd5b6000600160006101000a81548160ff0219169083151502179055507f0e5e3b3fb504c22cf5c42fa07d521225937514c654007e1f12646f89768d6f9460405160405180910390a1565b80611c223382612ea9565b1515611c2d57600080fd5b611c4984848460206040519081016040528060008152506128be565b50505050565b60106020528060005260406000206000915090505481565b6000806003600084815260200190815260200160002060009054906101000a900473ffffffffffffffffffffffffffffffffffffffff169050600073ffffffffffffffffffffffffffffffffffffffff168173ffffffffffffffffffffffffffffffffffffffff161415915050919050565b6000611ce361185d565b82101515611cf057600080fd5b600b82815481101515611cff57fe5b90600052602060002001549050919050565b6040805190810160405280601181526020017f726f6c652f73797374656d2d61646d696e00000000000000000000000000000081525081565b600160009054906101000a900460ff1681565b6000806003600084815260200190815260200160002060009054906101000a900473ffffffffffffffffffffffffffffffffffffffff169050600073ffffffffffffffffffffffffffffffffffffffff168173ffffffffffffffffffffffffffffffffffffffff1614151515611dd257600080fd5b80915050919050565b6001809054906101000a900473ffffffffffffffffffffffffffffffffffffffff1681565b60008073ffffffffffffffffffffffffffffffffffffffff168273ffffffffffffffffffffffffffffffffffffffff1614151515611e3d57600080fd5b600560008373ffffffffffffffffffffffffffffffffffffffff1673ffffffffffffffffffffffffffffffffffffffff168152602001908152602001600020549050919050565b601181815481101515611e9357fe5b90600052602060002090600402016000915090508060000160009054906101000a900473ffffffffffffffffffffffffffffffffffffffff1690806001015490806002018054600181600116156101000203166002900480601f016020809104026020016040519081016040528092919081815260200182805460018160011615610100020316600290048015611f6b5780601f10611f4057610100808354040283529160200191611f6b565b820191906000526020600020905b815481529060010190602001808311611f4e57829003601f168201915b505050505090806003018054600181600116156101000203166002900480601f0160208091040260200160405190810160405280929190818152602001828054600181600116156101000203166002900480156120095780601f10611fde57610100808354040283529160200191612009565b820191906000526020600020905b815481529060010190602001808311611fec57829003601f168201915b5050505050905084565b612052336040805190810160405280601181526020017f726f6c652f73797374656d2d61646d696e0000000000000000000000000000008152506117dc565b600160009054906101000a900460ff16151561206d57600080fd5b806001806101000a81548173ffffffffffffffffffffffffffffffffffffffff021916908373ffffffffffffffffffffffffffffffffffffffff1602179055507f450db8da6efbe9c22f2347f7c2021231df1fc58d3ae9a2fa75d39fa44619930581604051808273ffffffffffffffffffffffffffffffffffffffff1673ffffffffffffffffffffffffffffffffffffffff16815260200191505060405180910390a150565b6040805190810160405280600f81526020017f726f6c652f73686f702d6f776e6572000000000000000000000000000000000081525081565b61218b336040805190810160405280601181526020017f726f6c652f73797374656d2d61646d696e0000000000000000000000000000008152506117dc565b600160009054906101000a900460ff161515156121a757600080fd5b60018060006101000a81548160ff0219169083151502179055507fab35696f06e428ebc5ceba8cd17f8fed287baf43440206d1943af1ee53e6d26760405160405180910390a1565b606060088054600181600116156101000203166002900480601f0160208091040260200160405190810160405280929190818152602001828054600181600116156101000203166002900480156122875780601f1061225c57610100808354040283529160200191612287565b820191906000526020600020905b81548152906001019060200180831161226a57829003601f168201915b5050505050905090565b3373ffffffffffffffffffffffffffffffffffffffff168273ffffffffffffffffffffffffffffffffffffffff16141515156122cc57600080fd5b80600660003373ffffffffffffffffffffffffffffffffffffffff1673ffffffffffffffffffffffffffffffffffffffff16815260200190815260200160002060008473ffffffffffffffffffffffffffffffffffffffff1673ffffffffffffffffffffffffffffffffffffffff16815260200190815260200160002060006101000a81548160ff0219169083151502179055508173ffffffffffffffffffffffffffffffffffffffff163373ffffffffffffffffffffffffffffffffffffffff167f17307eab39ab6107e8899845ad3d59bd9653f200f220920489ca2b5937696c3183604051808215151515815260200191505060405180910390a35050565b60006123d7613823565b600e805490509150610100604051908101604052808973ffffffffffffffffffffffffffffffffffffffff1681526020018881526020018381526020018781526020018681526020018581526020018415158152602001600015158152509050600e819080600181540180825580915050906001820390600052602060002090600802016000909192909190915060008201518160000160006101000a81548173ffffffffffffffffffffffffffffffffffffffff021916908373ffffffffffffffffffffffffffffffffffffffff160217905550602082015181600101556040820151816002015560608201518160030190805190602001906124dc929190613883565b5060808201518160040190805190602001906124f9929190613883565b5060a0820151816005019080519060200190612516929190613883565b5060c08201518160060160006101000a81548160ff02191690831515021790555060e08201518160060160016101000a81548160ff0219169083151502179055505050506125643383613259565b33600f600084815260200190815260200160002060006101000a81548173ffffffffffffffffffffffffffffffffffffffff021916908373ffffffffffffffffffffffffffffffffffffffff160217905550601060003373ffffffffffffffffffffffffffffffffffffffff1673ffffffffffffffffffffffffffffffffffffffff168152602001908152602001600020600081548092919060010191905055507f75a81991482b891a1467e94da48f1d18706641bc35728876c780236d8a5226c28783876040518084815260200183815260200180602001828103825283818151815260200191508051906020019080838360005b8381101561267557808201518184015260208101905061265a565b50505050905090810190601f1680156126a25780820380516001836020036101000a031916815260200191505b5094505050505060405180910390a15050505050505050565b6000601180549050905060116080604051908101604052808673ffffffffffffffffffffffffffffffffffffffff168152602001838152602001858152602001848152509080600181540180825580915050906001820390600052602060002090600402016000909192909190915060008201518160000160006101000a81548173ffffffffffffffffffffffffffffffffffffffff021916908373ffffffffffffffffffffffffffffffffffffffff160217905550602082015181600101556040820151816002019080519060200190612797929190613883565b5060608201518160030190805190602001906127b4929190613883565b505050506127c23382613259565b336012600083815260200190815260200160002060006101000a81548173ffffffffffffffffffffffffffffffffffffffff021916908373ffffffffffffffffffffffffffffffffffffffff1602179055507f48a97f219cc030f581c3d5440f34a51531af5bda2c5fbe345ac9c4a7d4a28bdb81846040518083815260200180602001828103825283818151815260200191508051906020019080838360005b8381101561287d578082015181840152602081019050612862565b50505050905090810190601f1680156128aa5780820380516001836020036101000a031916815260200191505b50935050505060405180910390a150505050565b816128c93382612ea9565b15156128d457600080fd5b6128df858585611984565b6128eb85858585613330565b15156128f657600080fd5b5050505050565b600e8181548110151561290c57fe5b90600052602060002090600802016000915090508060000160009054906101000a900473ffffffffffffffffffffffffffffffffffffffff1690806001015490806002015490806003018054600181600116156101000203166002900480601f0160208091040260200160405190810160405280929190818152602001828054600181600116156101000203166002900480156129ea5780601f106129bf576101008083540402835291602001916129ea565b820191906000526020600020905b8154815290600101906020018083116129cd57829003601f168201915b505050505090806004018054600181600116156101000203166002900480601f016020809104026020016040519081016040528092919081815260200182805460018160011615610100020316600290048015612a885780601f10612a5d57610100808354040283529160200191612a88565b820191906000526020600020905b815481529060010190602001808311612a6b57829003601f168201915b505050505090806005018054600181600116156101000203166002900480601f016020809104026020016040519081016040528092919081815260200182805460018160011615610100020316600290048015612b265780601f10612afb57610100808354040283529160200191612b26565b820191906000526020600020905b815481529060010190602001808311612b0957829003601f168201915b5050505050908060060160009054906101000a900460ff16908060060160019054906101000a900460ff16905088565b6060612b6182611c67565b1515612b6c57600080fd5b600d60008381526020019081526020016000208054600181600116156101000203166002900480601f016020809104026020016040519081016040528092919081815260200182805460018160011615610100020316600290048015612c135780601f10612be857610100808354040283529160200191612c13565b820191906000526020600020905b815481529060010190602001808311612bf657829003601f168201915b50505050509050919050565b6060600e82815481101515612c3057fe5b90600052602060002090600802016004018054600181600116156101000203166002900480601f016020809104026020016040519081016040528092919081815260200182805460018160011615610100020316600290048015612cd55780601f10612caa57610100808354040283529160200191612cd5565b820191906000526020600020905b815481529060010190602001808311612cb857829003601f168201915b50505050509050919050565b6060601182815481101515612cf257fe5b90600052602060002090600402016002018054600181600116156101000203166002900480601f016020809104026020016040519081016040528092919081815260200182805460018160011615610100020316600290048015612d975780601f10612d6c57610100808354040283529160200191612d97565b820191906000526020600020905b815481529060010190602001808311612d7a57829003601f168201915b50505050509050919050565b6000600660008473ffffffffffffffffffffffffffffffffffffffff1673ffffffffffffffffffffffffffffffffffffffff16815260200190815260200160002060008373ffffffffffffffffffffffffffffffffffffffff1673ffffffffffffffffffffffffffffffffffffffff16815260200190815260200160002060009054906101000a900460ff16905092915050565b612e418282612e50565b1515612e4c57600080fd5b5050565b60008260000160008373ffffffffffffffffffffffffffffffffffffffff1673ffffffffffffffffffffffffffffffffffffffff16815260200190815260200160002060009054906101000a900460ff16905092915050565b600080612eb583611d5d565b90508073ffffffffffffffffffffffffffffffffffffffff168473ffffffffffffffffffffffffffffffffffffffff161480612f2457508373ffffffffffffffffffffffffffffffffffffffff16612f0c8461165a565b73ffffffffffffffffffffffffffffffffffffffff16145b80612f355750612f348185612da3565b5b91505092915050565b8173ffffffffffffffffffffffffffffffffffffffff16612f5e82611d5d565b73ffffffffffffffffffffffffffffffffffffffff16141515612f8057600080fd5b600073ffffffffffffffffffffffffffffffffffffffff166004600083815260200190815260200160002060009054906101000a900473ffffffffffffffffffffffffffffffffffffffff1673ffffffffffffffffffffffffffffffffffffffff1614151561303d5760006004600083815260200190815260200160002060006101000a81548173ffffffffffffffffffffffffffffffffffffffff021916908373ffffffffffffffffffffffffffffffffffffffff1602179055505b5050565b60008060006130508585613552565b600a60008581526020019081526020016000205492506130bc6001600960008873ffffffffffffffffffffffffffffffffffffffff1673ffffffffffffffffffffffffffffffffffffffff1681526020019081526020016000208054905061368190919063ffffffff16565b9150600960008673ffffffffffffffffffffffffffffffffffffffff1673ffffffffffffffffffffffffffffffffffffffff1681526020019081526020016000208281548110151561310a57fe5b9060005260206000200154905080600960008773ffffffffffffffffffffffffffffffffffffffff1673ffffffffffffffffffffffffffffffffffffffff1681526020019081526020016000208481548110151561316457fe5b90600052602060002001819055506000600960008773ffffffffffffffffffffffffffffffffffffffff1673ffffffffffffffffffffffffffffffffffffffff168152602001908152602001600020838154811015156131c057fe5b9060005260206000200181905550600960008673ffffffffffffffffffffffffffffffffffffffff1673ffffffffffffffffffffffffffffffffffffffff1681526020019081526020016000208054809190600190036132209190613903565b506000600a60008681526020019081526020016000208190555082600a6000838152602001908152602001600020819055505050505050565b6000613265838361369a565b600960008473ffffffffffffffffffffffffffffffffffffffff1673ffffffffffffffffffffffffffffffffffffffff168152602001908152602001600020805490509050600960008473ffffffffffffffffffffffffffffffffffffffff1673ffffffffffffffffffffffffffffffffffffffff16815260200190815260200160002082908060018154018082558091505090600182039060005260206000200160009091929091909150555080600a600084815260200190815260200160002081905550505050565b6000806133528573ffffffffffffffffffffffffffffffffffffffff166137f4565b15156133615760019150613549565b8473ffffffffffffffffffffffffffffffffffffffff1663150b7a02338887876040518563ffffffff167c0100000000000000000000000000000000000000000000000000000000028152600401808573ffffffffffffffffffffffffffffffffffffffff1673ffffffffffffffffffffffffffffffffffffffff1681526020018473ffffffffffffffffffffffffffffffffffffffff1673ffffffffffffffffffffffffffffffffffffffff16815260200183815260200180602001828103825283818151815260200191508051906020019080838360005b8381101561345657808201518184015260208101905061343b565b50505050905090810190601f1680156134835780820380516001836020036101000a031916815260200191505b5095505050505050602060405180830381600087803b1580156134a557600080fd5b505af11580156134b9573d6000803e3d6000fd5b505050506040513d60208110156134cf57600080fd5b8101908080519060200190929190505050905063150b7a027c0100000000000000000000000000000000000000000000000000000000027bffffffffffffffffffffffffffffffffffffffffffffffffffffffff1916817bffffffffffffffffffffffffffffffffffffffffffffffffffffffff19161491505b50949350505050565b8173ffffffffffffffffffffffffffffffffffffffff1661357282611d5d565b73ffffffffffffffffffffffffffffffffffffffff1614151561359457600080fd5b6135e76001600560008573ffffffffffffffffffffffffffffffffffffffff1673ffffffffffffffffffffffffffffffffffffffff1681526020019081526020016000205461368190919063ffffffff16565b600560008473ffffffffffffffffffffffffffffffffffffffff1673ffffffffffffffffffffffffffffffffffffffff1681526020019081526020016000208190555060006003600083815260200190815260200160002060006101000a81548173ffffffffffffffffffffffffffffffffffffffff021916908373ffffffffffffffffffffffffffffffffffffffff1602179055505050565b600082821115151561368f57fe5b818303905092915050565b600073ffffffffffffffffffffffffffffffffffffffff166003600083815260200190815260200160002060009054906101000a900473ffffffffffffffffffffffffffffffffffffffff1673ffffffffffffffffffffffffffffffffffffffff1614151561370857600080fd5b816003600083815260200190815260200160002060006101000a81548173ffffffffffffffffffffffffffffffffffffffff021916908373ffffffffffffffffffffffffffffffffffffffff1602179055506137ad6001600560008573ffffffffffffffffffffffffffffffffffffffff1673ffffffffffffffffffffffffffffffffffffffff1681526020019081526020016000205461380790919063ffffffff16565b600560008473ffffffffffffffffffffffffffffffffffffffff1673ffffffffffffffffffffffffffffffffffffffff168152602001908152602001600020819055505050565b600080823b905060008111915050919050565b6000818301905082811015151561381a57fe5b80905092915050565b61010060405190810160405280600073ffffffffffffffffffffffffffffffffffffffff16815260200160008152602001600081526020016060815260200160608152602001606081526020016000151581526020016000151581525090565b828054600181600116156101000203166002900490600052602060002090601f016020900481019282601f106138c457805160ff19168380011785556138f2565b828001600101855582156138f2579182015b828111156138f15782518255916020019190600101906138d6565b5b5090506138ff919061392f565b5090565b81548183558181111561392a57818360005260206000209182019101613929919061392f565b5b505050565b61395191905b8082111561394d576000816000905550600101613935565b5090565b90565b60018260000160008373ffffffffffffffffffffffffffffffffffffffff1673ffffffffffffffffffffffffffffffffffffffff16815260200190815260200160002060006101000a81548160ff02191690831515021790555050505600a165627a7a72305820a49e062093afd06012461f13d399b02a2035365fb92dbedfb163ae7efe14993e0029",
  "source": "pragma solidity ^0.4.24;\n\nimport \"./ItemFactory.sol\";\n\ncontract ShopFactory is ItemFactory {\n\n    event NewShop(uint shopId, string name);\n\n    Shop[] public shops;\n    mapping (uint => address) public shopToOwner;\n\n    function createShop(address _owner,\n                        string _name,\n                        string _desc) public {\n        uint shopId = shops.length;\n        shops.push(Shop(_owner, shopId, _name, _desc));\n        addTokenTo(msg.sender, shopId);\n        shopToOwner[shopId] = msg.sender;\n        emit NewShop(shopId, _name);\n    }\n\n    function getShopName(uint _shopId) public view returns (string) {\n        return shops[_shopId].name;\n    }\n}",
  "sourcePath": "/Users/cliff/Documents/in-game-pro-shop/contracts/ShopFactory.sol",
  "compiler": {
    "name": "solc",
    "version": "0.4.24+commit.e67f0147.Emscripten.clang"
  },
  "schemaVersion": "2.0.1",
  "updatedAt": "2018-08-06T14:47:32.313Z"
}